{
	"Documents/GitHub/XRC-20Plus/contracts/XRC20Plus.sol": {
		"CoinBank": {
			"abi": [
				{
					"inputs": [
						{
							"internalType": "address",
							"name": "_Treasury",
							"type": "address"
						},
						{
							"internalType": "uint256",
							"name": "_supply",
							"type": "uint256"
						}
					],
					"stateMutability": "nonpayable",
					"type": "constructor"
				},
				{
					"anonymous": false,
					"inputs": [
						{
							"indexed": false,
							"internalType": "uint256",
							"name": "",
							"type": "uint256"
						},
						{
							"indexed": false,
							"internalType": "bool",
							"name": "",
							"type": "bool"
						}
					],
					"name": "CoinBankClock",
					"type": "event"
				},
				{
					"stateMutability": "payable",
					"type": "fallback"
				},
				{
					"inputs": [
						{
							"internalType": "uint256",
							"name": "",
							"type": "uint256"
						}
					],
					"name": "Bank",
					"outputs": [
						{
							"internalType": "uint256",
							"name": "Current_Funds_Retained",
							"type": "uint256"
						},
						{
							"internalType": "uint256",
							"name": "Previous_Time",
							"type": "uint256"
						}
					],
					"stateMutability": "view",
					"type": "function"
				},
				{
					"inputs": [],
					"name": "Incomming_Payments",
					"outputs": [],
					"stateMutability": "payable",
					"type": "function"
				},
				{
					"stateMutability": "payable",
					"type": "receive"
				}
			],
			"devdoc": {
				"kind": "dev",
				"methods": {},
				"version": 1
			},
			"evm": {
				"assembly": "    /* \"Documents/GitHub/XRC-20Plus/contracts/XRC20Plus.sol\":291:1827  contract CoinBank is CoinBank_Interface{... */\n  mstore(0x40, 0x80)\n    /* \"Documents/GitHub/XRC-20Plus/contracts/XRC20Plus.sol\":640:804  constructor(address _Treasury,uint _supply){... */\n  callvalue\n  dup1\n  iszero\n  tag_1\n  jumpi\n  0x00\n  dup1\n  revert\ntag_1:\n  pop\n  mload(0x40)\n  sub(codesize, bytecodeSize)\n  dup1\n  bytecodeSize\n  dup4\n  codecopy\n  dup2\n  dup2\n  add\n  0x40\n  mstore\n  dup2\n  add\n  swap1\n  tag_2\n  swap2\n  swap1\n  tag_3\n  jump\t// in\ntag_2:\n    /* \"Documents/GitHub/XRC-20Plus/contracts/XRC20Plus.sol\":703:741  CoinBank_Accounting(0,block.timestamp) */\n  mload(0x40)\n  dup1\n  0x40\n  add\n  0x40\n  mstore\n  dup1\n    /* \"Documents/GitHub/XRC-20Plus/contracts/XRC20Plus.sol\":723:724  0 */\n  0x00\n    /* \"Documents/GitHub/XRC-20Plus/contracts/XRC20Plus.sol\":703:741  CoinBank_Accounting(0,block.timestamp) */\n  dup2\n  mstore\n  0x20\n  add\n    /* \"Documents/GitHub/XRC-20Plus/contracts/XRC20Plus.sol\":725:740  block.timestamp */\n  timestamp\n    /* \"Documents/GitHub/XRC-20Plus/contracts/XRC20Plus.sol\":703:741  CoinBank_Accounting(0,block.timestamp) */\n  dup2\n  mstore\n  pop\n    /* \"Documents/GitHub/XRC-20Plus/contracts/XRC20Plus.sol\":693:697  Bank */\n  0x05\n    /* \"Documents/GitHub/XRC-20Plus/contracts/XRC20Plus.sol\":693:700  Bank[0] */\n  0x00\n    /* \"Documents/GitHub/XRC-20Plus/contracts/XRC20Plus.sol\":698:699  0 */\n  dup1\n    /* \"Documents/GitHub/XRC-20Plus/contracts/XRC20Plus.sol\":693:700  Bank[0] */\n  dup2\n  mstore\n  0x20\n  add\n  swap1\n  dup2\n  mstore\n  0x20\n  add\n  0x00\n  keccak256\n    /* \"Documents/GitHub/XRC-20Plus/contracts/XRC20Plus.sol\":693:741  Bank[0] = CoinBank_Accounting(0,block.timestamp) */\n  0x00\n  dup3\n  add\n  mload\n  dup2\n  0x00\n  add\n  sstore\n  0x20\n  dup3\n  add\n  mload\n  dup2\n  0x01\n  add\n  sstore\n  swap1\n  pop\n  pop\n    /* \"Documents/GitHub/XRC-20Plus/contracts/XRC20Plus.sol\":762:771  _Treasury */\n  dup2\n    /* \"Documents/GitHub/XRC-20Plus/contracts/XRC20Plus.sol\":751:759  Treasury */\n  0x03\n  0x00\n    /* \"Documents/GitHub/XRC-20Plus/contracts/XRC20Plus.sol\":751:771  Treasury = _Treasury */\n  0x0100\n  exp\n  dup2\n  sload\n  dup2\n  0xffffffffffffffffffffffffffffffffffffffff\n  mul\n  not\n  and\n  swap1\n  dup4\n  0xffffffffffffffffffffffffffffffffffffffff\n  and\n  mul\n  or\n  swap1\n  sstore\n  pop\n    /* \"Documents/GitHub/XRC-20Plus/contracts/XRC20Plus.sol\":790:797  _supply */\n  dup1\n    /* \"Documents/GitHub/XRC-20Plus/contracts/XRC20Plus.sol\":781:787  Supply */\n  0x01\n    /* \"Documents/GitHub/XRC-20Plus/contracts/XRC20Plus.sol\":781:797  Supply = _supply */\n  dup2\n  swap1\n  sstore\n  pop\n    /* \"Documents/GitHub/XRC-20Plus/contracts/XRC20Plus.sol\":640:804  constructor(address _Treasury,uint _supply){... */\n  pop\n  pop\n    /* \"Documents/GitHub/XRC-20Plus/contracts/XRC20Plus.sol\":291:1827  contract CoinBank is CoinBank_Interface{... */\n  jump(tag_6)\n    /* \"#utility.yul\":88:205   */\ntag_8:\n    /* \"#utility.yul\":197:198   */\n  0x00\n    /* \"#utility.yul\":194:195   */\n  dup1\n    /* \"#utility.yul\":187:199   */\n  revert\n    /* \"#utility.yul\":334:460   */\ntag_10:\n    /* \"#utility.yul\":371:378   */\n  0x00\n    /* \"#utility.yul\":411:453   */\n  0xffffffffffffffffffffffffffffffffffffffff\n    /* \"#utility.yul\":404:409   */\n  dup3\n    /* \"#utility.yul\":400:454   */\n  and\n    /* \"#utility.yul\":389:454   */\n  swap1\n  pop\n    /* \"#utility.yul\":334:460   */\n  swap2\n  swap1\n  pop\n  jump\t// out\n    /* \"#utility.yul\":466:562   */\ntag_11:\n    /* \"#utility.yul\":503:510   */\n  0x00\n    /* \"#utility.yul\":532:556   */\n  tag_23\n    /* \"#utility.yul\":550:555   */\n  dup3\n    /* \"#utility.yul\":532:556   */\n  tag_10\n  jump\t// in\ntag_23:\n    /* \"#utility.yul\":521:556   */\n  swap1\n  pop\n    /* \"#utility.yul\":466:562   */\n  swap2\n  swap1\n  pop\n  jump\t// out\n    /* \"#utility.yul\":568:690   */\ntag_12:\n    /* \"#utility.yul\":641:665   */\n  tag_25\n    /* \"#utility.yul\":659:664   */\n  dup2\n    /* \"#utility.yul\":641:665   */\n  tag_11\n  jump\t// in\ntag_25:\n    /* \"#utility.yul\":634:639   */\n  dup2\n    /* \"#utility.yul\":631:666   */\n  eq\n    /* \"#utility.yul\":621:684   */\n  tag_26\n  jumpi\n    /* \"#utility.yul\":680:681   */\n  0x00\n    /* \"#utility.yul\":677:678   */\n  dup1\n    /* \"#utility.yul\":670:682   */\n  revert\n    /* \"#utility.yul\":621:684   */\ntag_26:\n    /* \"#utility.yul\":568:690   */\n  pop\n  jump\t// out\n    /* \"#utility.yul\":696:839   */\ntag_13:\n    /* \"#utility.yul\":753:758   */\n  0x00\n    /* \"#utility.yul\":784:790   */\n  dup2\n    /* \"#utility.yul\":778:791   */\n  mload\n    /* \"#utility.yul\":769:791   */\n  swap1\n  pop\n    /* \"#utility.yul\":800:833   */\n  tag_28\n    /* \"#utility.yul\":827:832   */\n  dup2\n    /* \"#utility.yul\":800:833   */\n  tag_12\n  jump\t// in\ntag_28:\n    /* \"#utility.yul\":696:839   */\n  swap3\n  swap2\n  pop\n  pop\n  jump\t// out\n    /* \"#utility.yul\":845:922   */\ntag_14:\n    /* \"#utility.yul\":882:889   */\n  0x00\n    /* \"#utility.yul\":911:916   */\n  dup2\n    /* \"#utility.yul\":900:916   */\n  swap1\n  pop\n    /* \"#utility.yul\":845:922   */\n  swap2\n  swap1\n  pop\n  jump\t// out\n    /* \"#utility.yul\":928:1050   */\ntag_15:\n    /* \"#utility.yul\":1001:1025   */\n  tag_31\n    /* \"#utility.yul\":1019:1024   */\n  dup2\n    /* \"#utility.yul\":1001:1025   */\n  tag_14\n  jump\t// in\ntag_31:\n    /* \"#utility.yul\":994:999   */\n  dup2\n    /* \"#utility.yul\":991:1026   */\n  eq\n    /* \"#utility.yul\":981:1044   */\n  tag_32\n  jumpi\n    /* \"#utility.yul\":1040:1041   */\n  0x00\n    /* \"#utility.yul\":1037:1038   */\n  dup1\n    /* \"#utility.yul\":1030:1042   */\n  revert\n    /* \"#utility.yul\":981:1044   */\ntag_32:\n    /* \"#utility.yul\":928:1050   */\n  pop\n  jump\t// out\n    /* \"#utility.yul\":1056:1199   */\ntag_16:\n    /* \"#utility.yul\":1113:1118   */\n  0x00\n    /* \"#utility.yul\":1144:1150   */\n  dup2\n    /* \"#utility.yul\":1138:1151   */\n  mload\n    /* \"#utility.yul\":1129:1151   */\n  swap1\n  pop\n    /* \"#utility.yul\":1160:1193   */\n  tag_34\n    /* \"#utility.yul\":1187:1192   */\n  dup2\n    /* \"#utility.yul\":1160:1193   */\n  tag_15\n  jump\t// in\ntag_34:\n    /* \"#utility.yul\":1056:1199   */\n  swap3\n  swap2\n  pop\n  pop\n  jump\t// out\n    /* \"#utility.yul\":1205:1712   */\ntag_3:\n    /* \"#utility.yul\":1284:1290   */\n  0x00\n    /* \"#utility.yul\":1292:1298   */\n  dup1\n    /* \"#utility.yul\":1341:1343   */\n  0x40\n    /* \"#utility.yul\":1329:1338   */\n  dup4\n    /* \"#utility.yul\":1320:1327   */\n  dup6\n    /* \"#utility.yul\":1316:1339   */\n  sub\n    /* \"#utility.yul\":1312:1344   */\n  slt\n    /* \"#utility.yul\":1309:1428   */\n  iszero\n  tag_36\n  jumpi\n    /* \"#utility.yul\":1347:1426   */\n  tag_37\n  tag_8\n  jump\t// in\ntag_37:\n    /* \"#utility.yul\":1309:1428   */\ntag_36:\n    /* \"#utility.yul\":1467:1468   */\n  0x00\n    /* \"#utility.yul\":1492:1556   */\n  tag_38\n    /* \"#utility.yul\":1548:1555   */\n  dup6\n    /* \"#utility.yul\":1539:1545   */\n  dup3\n    /* \"#utility.yul\":1528:1537   */\n  dup7\n    /* \"#utility.yul\":1524:1546   */\n  add\n    /* \"#utility.yul\":1492:1556   */\n  tag_13\n  jump\t// in\ntag_38:\n    /* \"#utility.yul\":1482:1556   */\n  swap3\n  pop\n    /* \"#utility.yul\":1438:1566   */\n  pop\n    /* \"#utility.yul\":1605:1607   */\n  0x20\n    /* \"#utility.yul\":1631:1695   */\n  tag_39\n    /* \"#utility.yul\":1687:1694   */\n  dup6\n    /* \"#utility.yul\":1678:1684   */\n  dup3\n    /* \"#utility.yul\":1667:1676   */\n  dup7\n    /* \"#utility.yul\":1663:1685   */\n  add\n    /* \"#utility.yul\":1631:1695   */\n  tag_16\n  jump\t// in\ntag_39:\n    /* \"#utility.yul\":1621:1695   */\n  swap2\n  pop\n    /* \"#utility.yul\":1576:1705   */\n  pop\n    /* \"#utility.yul\":1205:1712   */\n  swap3\n  pop\n  swap3\n  swap1\n  pop\n  jump\t// out\n    /* \"Documents/GitHub/XRC-20Plus/contracts/XRC20Plus.sol\":291:1827  contract CoinBank is CoinBank_Interface{... */\ntag_6:\n  dataSize(sub_0)\n  dup1\n  dataOffset(sub_0)\n  0x00\n  codecopy\n  0x00\n  return\nstop\n\nsub_0: assembly {\n        /* \"Documents/GitHub/XRC-20Plus/contracts/XRC20Plus.sol\":291:1827  contract CoinBank is CoinBank_Interface{... */\n      mstore(0x40, 0x80)\n      jumpi(tag_1, lt(calldatasize, 0x04))\n      shr(0xe0, calldataload(0x00))\n      dup1\n      0x82add361\n      eq\n      tag_3\n      jumpi\n      dup1\n      0xb0128f6d\n      eq\n      tag_4\n      jumpi\n      jump(tag_2)\n    tag_1:\n      jumpi(tag_2, calldatasize)\n        /* \"Documents/GitHub/XRC-20Plus/contracts/XRC20Plus.sol\":1750:1751  0 */\n      0x00\n        /* \"Documents/GitHub/XRC-20Plus/contracts/XRC20Plus.sol\":1740:1749  msg.value */\n      callvalue\n        /* \"Documents/GitHub/XRC-20Plus/contracts/XRC20Plus.sol\":1740:1751  msg.value>0 */\n      gt\n        /* \"Documents/GitHub/XRC-20Plus/contracts/XRC20Plus.sol\":1737:1819  if(msg.value>0){... */\n      iszero\n      tag_7\n      jumpi\n        /* \"Documents/GitHub/XRC-20Plus/contracts/XRC20Plus.sol\":1782:1786  this */\n      address\n        /* \"Documents/GitHub/XRC-20Plus/contracts/XRC20Plus.sol\":1766:1797  payable(address(this)).transfer */\n      0xffffffffffffffffffffffffffffffffffffffff\n      and\n        /* \"Documents/GitHub/XRC-20Plus/contracts/XRC20Plus.sol\":1766:1808  payable(address(this)).transfer(msg.value) */\n      0x08fc\n        /* \"Documents/GitHub/XRC-20Plus/contracts/XRC20Plus.sol\":1798:1807  msg.value */\n      callvalue\n        /* \"Documents/GitHub/XRC-20Plus/contracts/XRC20Plus.sol\":1766:1808  payable(address(this)).transfer(msg.value) */\n      swap1\n      dup2\n      iszero\n      mul\n      swap1\n      mload(0x40)\n      0x00\n      mload(0x40)\n      dup1\n      dup4\n      sub\n      dup2\n      dup6\n      dup9\n      dup9\n      call\n      swap4\n      pop\n      pop\n      pop\n      pop\n      iszero\n      dup1\n      iszero\n      tag_9\n      jumpi\n      returndatasize\n      0x00\n      dup1\n      returndatacopy\n      revert(0x00, returndatasize)\n    tag_9:\n      pop\n        /* \"Documents/GitHub/XRC-20Plus/contracts/XRC20Plus.sol\":1737:1819  if(msg.value>0){... */\n    tag_7:\n        /* \"Documents/GitHub/XRC-20Plus/contracts/XRC20Plus.sol\":291:1827  contract CoinBank is CoinBank_Interface{... */\n      stop\n    tag_2:\n      stop\n        /* \"Documents/GitHub/XRC-20Plus/contracts/XRC20Plus.sol\":1357:1660  function Incomming_Payments()public payable{... */\n    tag_3:\n      tag_12\n      tag_13\n      jump\t// in\n    tag_12:\n      stop\n        /* \"Documents/GitHub/XRC-20Plus/contracts/XRC20Plus.sol\":847:899  mapping (uint256 => CoinBank_Accounting) public Bank */\n    tag_4:\n      callvalue\n      dup1\n      iszero\n      tag_14\n      jumpi\n      0x00\n      dup1\n      revert\n    tag_14:\n      pop\n      tag_15\n      0x04\n      dup1\n      calldatasize\n      sub\n      dup2\n      add\n      swap1\n      tag_16\n      swap2\n      swap1\n      tag_17\n      jump\t// in\n    tag_16:\n      tag_18\n      jump\t// in\n    tag_15:\n      mload(0x40)\n      tag_19\n      swap3\n      swap2\n      swap1\n      tag_20\n      jump\t// in\n    tag_19:\n      mload(0x40)\n      dup1\n      swap2\n      sub\n      swap1\n      return\n        /* \"Documents/GitHub/XRC-20Plus/contracts/XRC20Plus.sol\":1357:1660  function Incomming_Payments()public payable{... */\n    tag_13:\n        /* \"Documents/GitHub/XRC-20Plus/contracts/XRC20Plus.sol\":1410:1418  uint min */\n      0x00\n        /* \"Documents/GitHub/XRC-20Plus/contracts/XRC20Plus.sol\":1480:1484  Bank */\n      0x05\n        /* \"Documents/GitHub/XRC-20Plus/contracts/XRC20Plus.sol\":1480:1487  Bank[0] */\n      0x00\n        /* \"Documents/GitHub/XRC-20Plus/contracts/XRC20Plus.sol\":1485:1486  0 */\n      dup1\n        /* \"Documents/GitHub/XRC-20Plus/contracts/XRC20Plus.sol\":1480:1487  Bank[0] */\n      dup2\n      mstore\n      0x20\n      add\n      swap1\n      dup2\n      mstore\n      0x20\n      add\n      0x00\n      keccak256\n        /* \"Documents/GitHub/XRC-20Plus/contracts/XRC20Plus.sol\":1480:1501  Bank[0].Previous_Time */\n      0x01\n      add\n      sload\n        /* \"Documents/GitHub/XRC-20Plus/contracts/XRC20Plus.sol\":1476:1479  min */\n      dup2\n        /* \"Documents/GitHub/XRC-20Plus/contracts/XRC20Plus.sol\":1476:1501  min+Bank[0].Previous_Time */\n      tag_22\n      swap2\n      swap1\n      tag_23\n      jump\t// in\n    tag_22:\n        /* \"Documents/GitHub/XRC-20Plus/contracts/XRC20Plus.sol\":1459:1474  block.timestamp */\n      timestamp\n        /* \"Documents/GitHub/XRC-20Plus/contracts/XRC20Plus.sol\":1459:1501  block.timestamp<=min+Bank[0].Previous_Time */\n      gt\n        /* \"Documents/GitHub/XRC-20Plus/contracts/XRC20Plus.sol\":1456:1654  if(block.timestamp<=min+Bank[0].Previous_Time){... */\n      tag_24\n      jumpi\n        /* \"Documents/GitHub/XRC-20Plus/contracts/XRC20Plus.sol\":1516:1533  uint single_Shard */\n      0x00\n        /* \"Documents/GitHub/XRC-20Plus/contracts/XRC20Plus.sol\":1563:1569  Supply */\n      sload(0x01)\n        /* \"Documents/GitHub/XRC-20Plus/contracts/XRC20Plus.sol\":1541:1562  address(this).balance */\n      selfbalance\n        /* \"Documents/GitHub/XRC-20Plus/contracts/XRC20Plus.sol\":1541:1569  address(this).balance/Supply */\n      tag_25\n      swap2\n      swap1\n      tag_26\n      jump\t// in\n    tag_25:\n        /* \"Documents/GitHub/XRC-20Plus/contracts/XRC20Plus.sol\":1516:1570  uint single_Shard = uint(address(this).balance/Supply) */\n      swap1\n      pop\n        /* \"Documents/GitHub/XRC-20Plus/contracts/XRC20Plus.sol\":1584:1615  Issue_To_Treasury(single_Shard) */\n      tag_27\n        /* \"Documents/GitHub/XRC-20Plus/contracts/XRC20Plus.sol\":1602:1614  single_Shard */\n      dup2\n        /* \"Documents/GitHub/XRC-20Plus/contracts/XRC20Plus.sol\":1584:1601  Issue_To_Treasury */\n      tag_28\n        /* \"Documents/GitHub/XRC-20Plus/contracts/XRC20Plus.sol\":1584:1615  Issue_To_Treasury(single_Shard) */\n      jump\t// in\n    tag_27:\n        /* \"Documents/GitHub/XRC-20Plus/contracts/XRC20Plus.sol\":1502:1654  {... */\n      pop\n        /* \"Documents/GitHub/XRC-20Plus/contracts/XRC20Plus.sol\":1456:1654  if(block.timestamp<=min+Bank[0].Previous_Time){... */\n    tag_24:\n        /* \"Documents/GitHub/XRC-20Plus/contracts/XRC20Plus.sol\":1400:1660  {... */\n      pop\n        /* \"Documents/GitHub/XRC-20Plus/contracts/XRC20Plus.sol\":1357:1660  function Incomming_Payments()public payable{... */\n      jump\t// out\n        /* \"Documents/GitHub/XRC-20Plus/contracts/XRC20Plus.sol\":847:899  mapping (uint256 => CoinBank_Accounting) public Bank */\n    tag_18:\n      mstore(0x20, 0x05)\n      dup1\n      0x00\n      mstore\n      keccak256(0x00, 0x40)\n      0x00\n      swap2\n      pop\n      swap1\n      pop\n      dup1\n      0x00\n      add\n      sload\n      swap1\n      dup1\n      0x01\n      add\n      sload\n      swap1\n      pop\n      dup3\n      jump\t// out\n        /* \"Documents/GitHub/XRC-20Plus/contracts/XRC20Plus.sol\":945:1265  function Issue_To_Treasury(uint _single_Shard)internal{... */\n    tag_28:\n        /* \"Documents/GitHub/XRC-20Plus/contracts/XRC20Plus.sol\":1056:1083  Plus_Interface exeInterface */\n      0x00\n        /* \"Documents/GitHub/XRC-20Plus/contracts/XRC20Plus.sol\":1101:1109  Treasury */\n      0x03\n      0x00\n      swap1\n      sload\n      swap1\n      0x0100\n      exp\n      swap1\n      div\n      0xffffffffffffffffffffffffffffffffffffffff\n      and\n        /* \"Documents/GitHub/XRC-20Plus/contracts/XRC20Plus.sol\":1056:1110  Plus_Interface exeInterface = Plus_Interface(Treasury) */\n      swap1\n      pop\n        /* \"Documents/GitHub/XRC-20Plus/contracts/XRC20Plus.sol\":1159:1171  exeInterface */\n      dup1\n        /* \"Documents/GitHub/XRC-20Plus/contracts/XRC20Plus.sol\":1159:1192  exeInterface.Accept_From_CoinBank */\n      0xffffffffffffffffffffffffffffffffffffffff\n      and\n      0x9a29e6aa\n        /* \"Documents/GitHub/XRC-20Plus/contracts/XRC20Plus.sol\":1193:1206  _single_Shard */\n      dup4\n        /* \"Documents/GitHub/XRC-20Plus/contracts/XRC20Plus.sol\":1159:1207  exeInterface.Accept_From_CoinBank(_single_Shard) */\n      mload(0x40)\n      dup3\n      0xffffffff\n      and\n      0xe0\n      shl\n      dup2\n      mstore\n      0x04\n      add\n      tag_30\n      swap2\n      swap1\n      tag_31\n      jump\t// in\n    tag_30:\n      0x00\n      mload(0x40)\n      dup1\n      dup4\n      sub\n      dup2\n      0x00\n      dup8\n      dup1\n      extcodesize\n      iszero\n      dup1\n      iszero\n      tag_32\n      jumpi\n      0x00\n      dup1\n      revert\n    tag_32:\n      pop\n      gas\n      call\n      iszero\n      dup1\n      iszero\n      tag_34\n      jumpi\n      returndatasize\n      0x00\n      dup1\n      returndatacopy\n      revert(0x00, returndatasize)\n    tag_34:\n      pop\n      pop\n      pop\n      pop\n        /* \"Documents/GitHub/XRC-20Plus/contracts/XRC20Plus.sol\":1222:1257  CoinBankClock(block.timestamp,true) */\n      0xa45dac62289018e90b3dc24632d939c6f3545fbc1c00325ee50858f926afc630\n        /* \"Documents/GitHub/XRC-20Plus/contracts/XRC20Plus.sol\":1236:1251  block.timestamp */\n      timestamp\n        /* \"Documents/GitHub/XRC-20Plus/contracts/XRC20Plus.sol\":1252:1256  true */\n      0x01\n        /* \"Documents/GitHub/XRC-20Plus/contracts/XRC20Plus.sol\":1222:1257  CoinBankClock(block.timestamp,true) */\n      mload(0x40)\n      tag_35\n      swap3\n      swap2\n      swap1\n      tag_36\n      jump\t// in\n    tag_35:\n      mload(0x40)\n      dup1\n      swap2\n      sub\n      swap1\n      log1\n        /* \"Documents/GitHub/XRC-20Plus/contracts/XRC20Plus.sol\":999:1265  {... */\n      pop\n        /* \"Documents/GitHub/XRC-20Plus/contracts/XRC20Plus.sol\":945:1265  function Issue_To_Treasury(uint _single_Shard)internal{... */\n      pop\n      jump\t// out\n        /* \"#utility.yul\":88:205   */\n    tag_38:\n        /* \"#utility.yul\":197:198   */\n      0x00\n        /* \"#utility.yul\":194:195   */\n      dup1\n        /* \"#utility.yul\":187:199   */\n      revert\n        /* \"#utility.yul\":334:411   */\n    tag_40:\n        /* \"#utility.yul\":371:378   */\n      0x00\n        /* \"#utility.yul\":400:405   */\n      dup2\n        /* \"#utility.yul\":389:405   */\n      swap1\n      pop\n        /* \"#utility.yul\":334:411   */\n      swap2\n      swap1\n      pop\n      jump\t// out\n        /* \"#utility.yul\":417:539   */\n    tag_41:\n        /* \"#utility.yul\":490:514   */\n      tag_54\n        /* \"#utility.yul\":508:513   */\n      dup2\n        /* \"#utility.yul\":490:514   */\n      tag_40\n      jump\t// in\n    tag_54:\n        /* \"#utility.yul\":483:488   */\n      dup2\n        /* \"#utility.yul\":480:515   */\n      eq\n        /* \"#utility.yul\":470:533   */\n      tag_55\n      jumpi\n        /* \"#utility.yul\":529:530   */\n      0x00\n        /* \"#utility.yul\":526:527   */\n      dup1\n        /* \"#utility.yul\":519:531   */\n      revert\n        /* \"#utility.yul\":470:533   */\n    tag_55:\n        /* \"#utility.yul\":417:539   */\n      pop\n      jump\t// out\n        /* \"#utility.yul\":545:684   */\n    tag_42:\n        /* \"#utility.yul\":591:596   */\n      0x00\n        /* \"#utility.yul\":629:635   */\n      dup2\n        /* \"#utility.yul\":616:636   */\n      calldataload\n        /* \"#utility.yul\":607:636   */\n      swap1\n      pop\n        /* \"#utility.yul\":645:678   */\n      tag_57\n        /* \"#utility.yul\":672:677   */\n      dup2\n        /* \"#utility.yul\":645:678   */\n      tag_41\n      jump\t// in\n    tag_57:\n        /* \"#utility.yul\":545:684   */\n      swap3\n      swap2\n      pop\n      pop\n      jump\t// out\n        /* \"#utility.yul\":690:1019   */\n    tag_17:\n        /* \"#utility.yul\":749:755   */\n      0x00\n        /* \"#utility.yul\":798:800   */\n      0x20\n        /* \"#utility.yul\":786:795   */\n      dup3\n        /* \"#utility.yul\":777:784   */\n      dup5\n        /* \"#utility.yul\":773:796   */\n      sub\n        /* \"#utility.yul\":769:801   */\n      slt\n        /* \"#utility.yul\":766:885   */\n      iszero\n      tag_59\n      jumpi\n        /* \"#utility.yul\":804:883   */\n      tag_60\n      tag_38\n      jump\t// in\n    tag_60:\n        /* \"#utility.yul\":766:885   */\n    tag_59:\n        /* \"#utility.yul\":924:925   */\n      0x00\n        /* \"#utility.yul\":949:1002   */\n      tag_61\n        /* \"#utility.yul\":994:1001   */\n      dup5\n        /* \"#utility.yul\":985:991   */\n      dup3\n        /* \"#utility.yul\":974:983   */\n      dup6\n        /* \"#utility.yul\":970:992   */\n      add\n        /* \"#utility.yul\":949:1002   */\n      tag_42\n      jump\t// in\n    tag_61:\n        /* \"#utility.yul\":939:1002   */\n      swap2\n      pop\n        /* \"#utility.yul\":895:1012   */\n      pop\n        /* \"#utility.yul\":690:1019   */\n      swap3\n      swap2\n      pop\n      pop\n      jump\t// out\n        /* \"#utility.yul\":1025:1143   */\n    tag_43:\n        /* \"#utility.yul\":1112:1136   */\n      tag_63\n        /* \"#utility.yul\":1130:1135   */\n      dup2\n        /* \"#utility.yul\":1112:1136   */\n      tag_40\n      jump\t// in\n    tag_63:\n        /* \"#utility.yul\":1107:1110   */\n      dup3\n        /* \"#utility.yul\":1100:1137   */\n      mstore\n        /* \"#utility.yul\":1025:1143   */\n      pop\n      pop\n      jump\t// out\n        /* \"#utility.yul\":1149:1481   */\n    tag_20:\n        /* \"#utility.yul\":1270:1274   */\n      0x00\n        /* \"#utility.yul\":1308:1310   */\n      0x40\n        /* \"#utility.yul\":1297:1306   */\n      dup3\n        /* \"#utility.yul\":1293:1311   */\n      add\n        /* \"#utility.yul\":1285:1311   */\n      swap1\n      pop\n        /* \"#utility.yul\":1321:1392   */\n      tag_65\n        /* \"#utility.yul\":1389:1390   */\n      0x00\n        /* \"#utility.yul\":1378:1387   */\n      dup4\n        /* \"#utility.yul\":1374:1391   */\n      add\n        /* \"#utility.yul\":1365:1371   */\n      dup6\n        /* \"#utility.yul\":1321:1392   */\n      tag_43\n      jump\t// in\n    tag_65:\n        /* \"#utility.yul\":1402:1474   */\n      tag_66\n        /* \"#utility.yul\":1470:1472   */\n      0x20\n        /* \"#utility.yul\":1459:1468   */\n      dup4\n        /* \"#utility.yul\":1455:1473   */\n      add\n        /* \"#utility.yul\":1446:1452   */\n      dup5\n        /* \"#utility.yul\":1402:1474   */\n      tag_43\n      jump\t// in\n    tag_66:\n        /* \"#utility.yul\":1149:1481   */\n      swap4\n      swap3\n      pop\n      pop\n      pop\n      jump\t// out\n        /* \"#utility.yul\":1487:1667   */\n    tag_44:\n        /* \"#utility.yul\":1535:1612   */\n      0x4e487b7100000000000000000000000000000000000000000000000000000000\n        /* \"#utility.yul\":1532:1533   */\n      0x00\n        /* \"#utility.yul\":1525:1613   */\n      mstore\n        /* \"#utility.yul\":1632:1636   */\n      0x11\n        /* \"#utility.yul\":1629:1630   */\n      0x04\n        /* \"#utility.yul\":1622:1637   */\n      mstore\n        /* \"#utility.yul\":1656:1660   */\n      0x24\n        /* \"#utility.yul\":1653:1654   */\n      0x00\n        /* \"#utility.yul\":1646:1661   */\n      revert\n        /* \"#utility.yul\":1673:1978   */\n    tag_23:\n        /* \"#utility.yul\":1713:1716   */\n      0x00\n        /* \"#utility.yul\":1732:1752   */\n      tag_69\n        /* \"#utility.yul\":1750:1751   */\n      dup3\n        /* \"#utility.yul\":1732:1752   */\n      tag_40\n      jump\t// in\n    tag_69:\n        /* \"#utility.yul\":1727:1752   */\n      swap2\n      pop\n        /* \"#utility.yul\":1766:1786   */\n      tag_70\n        /* \"#utility.yul\":1784:1785   */\n      dup4\n        /* \"#utility.yul\":1766:1786   */\n      tag_40\n      jump\t// in\n    tag_70:\n        /* \"#utility.yul\":1761:1786   */\n      swap3\n      pop\n        /* \"#utility.yul\":1920:1921   */\n      dup3\n        /* \"#utility.yul\":1852:1918   */\n      0xffffffffffffffffffffffffffffffffffffffffffffffffffffffffffffffff\n        /* \"#utility.yul\":1848:1922   */\n      sub\n        /* \"#utility.yul\":1845:1846   */\n      dup3\n        /* \"#utility.yul\":1842:1923   */\n      gt\n        /* \"#utility.yul\":1839:1946   */\n      iszero\n      tag_71\n      jumpi\n        /* \"#utility.yul\":1926:1944   */\n      tag_72\n      tag_44\n      jump\t// in\n    tag_72:\n        /* \"#utility.yul\":1839:1946   */\n    tag_71:\n        /* \"#utility.yul\":1970:1971   */\n      dup3\n        /* \"#utility.yul\":1967:1968   */\n      dup3\n        /* \"#utility.yul\":1963:1972   */\n      add\n        /* \"#utility.yul\":1956:1972   */\n      swap1\n      pop\n        /* \"#utility.yul\":1673:1978   */\n      swap3\n      swap2\n      pop\n      pop\n      jump\t// out\n        /* \"#utility.yul\":1984:2164   */\n    tag_45:\n        /* \"#utility.yul\":2032:2109   */\n      0x4e487b7100000000000000000000000000000000000000000000000000000000\n        /* \"#utility.yul\":2029:2030   */\n      0x00\n        /* \"#utility.yul\":2022:2110   */\n      mstore\n        /* \"#utility.yul\":2129:2133   */\n      0x12\n        /* \"#utility.yul\":2126:2127   */\n      0x04\n        /* \"#utility.yul\":2119:2134   */\n      mstore\n        /* \"#utility.yul\":2153:2157   */\n      0x24\n        /* \"#utility.yul\":2150:2151   */\n      0x00\n        /* \"#utility.yul\":2143:2158   */\n      revert\n        /* \"#utility.yul\":2170:2355   */\n    tag_26:\n        /* \"#utility.yul\":2210:2211   */\n      0x00\n        /* \"#utility.yul\":2227:2247   */\n      tag_75\n        /* \"#utility.yul\":2245:2246   */\n      dup3\n        /* \"#utility.yul\":2227:2247   */\n      tag_40\n      jump\t// in\n    tag_75:\n        /* \"#utility.yul\":2222:2247   */\n      swap2\n      pop\n        /* \"#utility.yul\":2261:2281   */\n      tag_76\n        /* \"#utility.yul\":2279:2280   */\n      dup4\n        /* \"#utility.yul\":2261:2281   */\n      tag_40\n      jump\t// in\n    tag_76:\n        /* \"#utility.yul\":2256:2281   */\n      swap3\n      pop\n        /* \"#utility.yul\":2300:2301   */\n      dup3\n        /* \"#utility.yul\":2290:2325   */\n      tag_77\n      jumpi\n        /* \"#utility.yul\":2305:2323   */\n      tag_78\n      tag_45\n      jump\t// in\n    tag_78:\n        /* \"#utility.yul\":2290:2325   */\n    tag_77:\n        /* \"#utility.yul\":2347:2348   */\n      dup3\n        /* \"#utility.yul\":2344:2345   */\n      dup3\n        /* \"#utility.yul\":2340:2349   */\n      div\n        /* \"#utility.yul\":2335:2349   */\n      swap1\n      pop\n        /* \"#utility.yul\":2170:2355   */\n      swap3\n      swap2\n      pop\n      pop\n      jump\t// out\n        /* \"#utility.yul\":2361:2583   */\n    tag_31:\n        /* \"#utility.yul\":2454:2458   */\n      0x00\n        /* \"#utility.yul\":2492:2494   */\n      0x20\n        /* \"#utility.yul\":2481:2490   */\n      dup3\n        /* \"#utility.yul\":2477:2495   */\n      add\n        /* \"#utility.yul\":2469:2495   */\n      swap1\n      pop\n        /* \"#utility.yul\":2505:2576   */\n      tag_80\n        /* \"#utility.yul\":2573:2574   */\n      0x00\n        /* \"#utility.yul\":2562:2571   */\n      dup4\n        /* \"#utility.yul\":2558:2575   */\n      add\n        /* \"#utility.yul\":2549:2555   */\n      dup5\n        /* \"#utility.yul\":2505:2576   */\n      tag_43\n      jump\t// in\n    tag_80:\n        /* \"#utility.yul\":2361:2583   */\n      swap3\n      swap2\n      pop\n      pop\n      jump\t// out\n        /* \"#utility.yul\":2589:2679   */\n    tag_46:\n        /* \"#utility.yul\":2623:2630   */\n      0x00\n        /* \"#utility.yul\":2666:2671   */\n      dup2\n        /* \"#utility.yul\":2659:2672   */\n      iszero\n        /* \"#utility.yul\":2652:2673   */\n      iszero\n        /* \"#utility.yul\":2641:2673   */\n      swap1\n      pop\n        /* \"#utility.yul\":2589:2679   */\n      swap2\n      swap1\n      pop\n      jump\t// out\n        /* \"#utility.yul\":2685:2794   */\n    tag_47:\n        /* \"#utility.yul\":2766:2787   */\n      tag_83\n        /* \"#utility.yul\":2781:2786   */\n      dup2\n        /* \"#utility.yul\":2766:2787   */\n      tag_46\n      jump\t// in\n    tag_83:\n        /* \"#utility.yul\":2761:2764   */\n      dup3\n        /* \"#utility.yul\":2754:2788   */\n      mstore\n        /* \"#utility.yul\":2685:2794   */\n      pop\n      pop\n      jump\t// out\n        /* \"#utility.yul\":2800:3120   */\n    tag_36:\n        /* \"#utility.yul\":2915:2919   */\n      0x00\n        /* \"#utility.yul\":2953:2955   */\n      0x40\n        /* \"#utility.yul\":2942:2951   */\n      dup3\n        /* \"#utility.yul\":2938:2956   */\n      add\n        /* \"#utility.yul\":2930:2956   */\n      swap1\n      pop\n        /* \"#utility.yul\":2966:3037   */\n      tag_85\n        /* \"#utility.yul\":3034:3035   */\n      0x00\n        /* \"#utility.yul\":3023:3032   */\n      dup4\n        /* \"#utility.yul\":3019:3036   */\n      add\n        /* \"#utility.yul\":3010:3016   */\n      dup6\n        /* \"#utility.yul\":2966:3037   */\n      tag_43\n      jump\t// in\n    tag_85:\n        /* \"#utility.yul\":3047:3113   */\n      tag_86\n        /* \"#utility.yul\":3109:3111   */\n      0x20\n        /* \"#utility.yul\":3098:3107   */\n      dup4\n        /* \"#utility.yul\":3094:3112   */\n      add\n        /* \"#utility.yul\":3085:3091   */\n      dup5\n        /* \"#utility.yul\":3047:3113   */\n      tag_47\n      jump\t// in\n    tag_86:\n        /* \"#utility.yul\":2800:3120   */\n      swap4\n      swap3\n      pop\n      pop\n      pop\n      jump\t// out\n\n    auxdata: 0xa2646970667358221220b4cdda6fa7753bc7d1a6f2b6e2dd006b805b13ea10ca364b224388e19315a1bf64736f6c634300080d0033\n}\n",
				"bytecode": {
					"linkReferences": {},
					"object": "608060405234801561001057600080fd5b506040516105d03803806105d08339818101604052810190610032919061015a565b6040518060400160405280600081526020014281525060056000808152602001908152602001600020600082015181600001556020820151816001015590505081600360006101000a81548173ffffffffffffffffffffffffffffffffffffffff021916908373ffffffffffffffffffffffffffffffffffffffff16021790555080600181905550505061019a565b600080fd5b600073ffffffffffffffffffffffffffffffffffffffff82169050919050565b60006100f1826100c6565b9050919050565b610101816100e6565b811461010c57600080fd5b50565b60008151905061011e816100f8565b92915050565b6000819050919050565b61013781610124565b811461014257600080fd5b50565b6000815190506101548161012e565b92915050565b60008060408385031215610171576101706100c1565b5b600061017f8582860161010f565b925050602061019085828601610145565b9150509250929050565b610427806101a96000396000f3fe60806040526004361061002d5760003560e01c806382add36114610087578063b0128f6d1461009157610085565b36610085576000341115610083573073ffffffffffffffffffffffffffffffffffffffff166108fc349081150290604051600060405180830381858888f19350505050158015610081573d6000803e3d6000fd5b505b005b005b61008f6100cf565b005b34801561009d57600080fd5b506100b860048036038101906100b39190610248565b610119565b6040516100c6929190610284565b60405180910390f35b60006005600080815260200190815260200160002060010154816100f391906102dc565b4211610116576000600154476101099190610361565b90506101148161013d565b505b50565b60056020528060005260406000206000915090508060000154908060010154905082565b6000600360009054906101000a900473ffffffffffffffffffffffffffffffffffffffff1690508073ffffffffffffffffffffffffffffffffffffffff16639a29e6aa836040518263ffffffff1660e01b815260040161019d9190610392565b600060405180830381600087803b1580156101b757600080fd5b505af11580156101cb573d6000803e3d6000fd5b505050507fa45dac62289018e90b3dc24632d939c6f3545fbc1c00325ee50858f926afc6304260016040516102019291906103c8565b60405180910390a15050565b600080fd5b6000819050919050565b61022581610212565b811461023057600080fd5b50565b6000813590506102428161021c565b92915050565b60006020828403121561025e5761025d61020d565b5b600061026c84828501610233565b91505092915050565b61027e81610212565b82525050565b60006040820190506102996000830185610275565b6102a66020830184610275565b9392505050565b7f4e487b7100000000000000000000000000000000000000000000000000000000600052601160045260246000fd5b60006102e782610212565b91506102f283610212565b9250827fffffffffffffffffffffffffffffffffffffffffffffffffffffffffffffffff03821115610327576103266102ad565b5b828201905092915050565b7f4e487b7100000000000000000000000000000000000000000000000000000000600052601260045260246000fd5b600061036c82610212565b915061037783610212565b92508261038757610386610332565b5b828204905092915050565b60006020820190506103a76000830184610275565b92915050565b60008115159050919050565b6103c2816103ad565b82525050565b60006040820190506103dd6000830185610275565b6103ea60208301846103b9565b939250505056fea2646970667358221220b4cdda6fa7753bc7d1a6f2b6e2dd006b805b13ea10ca364b224388e19315a1bf64736f6c634300080d0033",
					"opcodes": "PUSH1 0x80 PUSH1 0x40 MSTORE CALLVALUE DUP1 ISZERO PUSH2 0x10 JUMPI PUSH1 0x0 DUP1 REVERT JUMPDEST POP PUSH1 0x40 MLOAD PUSH2 0x5D0 CODESIZE SUB DUP1 PUSH2 0x5D0 DUP4 CODECOPY DUP2 DUP2 ADD PUSH1 0x40 MSTORE DUP2 ADD SWAP1 PUSH2 0x32 SWAP2 SWAP1 PUSH2 0x15A JUMP JUMPDEST PUSH1 0x40 MLOAD DUP1 PUSH1 0x40 ADD PUSH1 0x40 MSTORE DUP1 PUSH1 0x0 DUP2 MSTORE PUSH1 0x20 ADD TIMESTAMP DUP2 MSTORE POP PUSH1 0x5 PUSH1 0x0 DUP1 DUP2 MSTORE PUSH1 0x20 ADD SWAP1 DUP2 MSTORE PUSH1 0x20 ADD PUSH1 0x0 KECCAK256 PUSH1 0x0 DUP3 ADD MLOAD DUP2 PUSH1 0x0 ADD SSTORE PUSH1 0x20 DUP3 ADD MLOAD DUP2 PUSH1 0x1 ADD SSTORE SWAP1 POP POP DUP2 PUSH1 0x3 PUSH1 0x0 PUSH2 0x100 EXP DUP2 SLOAD DUP2 PUSH20 0xFFFFFFFFFFFFFFFFFFFFFFFFFFFFFFFFFFFFFFFF MUL NOT AND SWAP1 DUP4 PUSH20 0xFFFFFFFFFFFFFFFFFFFFFFFFFFFFFFFFFFFFFFFF AND MUL OR SWAP1 SSTORE POP DUP1 PUSH1 0x1 DUP2 SWAP1 SSTORE POP POP POP PUSH2 0x19A JUMP JUMPDEST PUSH1 0x0 DUP1 REVERT JUMPDEST PUSH1 0x0 PUSH20 0xFFFFFFFFFFFFFFFFFFFFFFFFFFFFFFFFFFFFFFFF DUP3 AND SWAP1 POP SWAP2 SWAP1 POP JUMP JUMPDEST PUSH1 0x0 PUSH2 0xF1 DUP3 PUSH2 0xC6 JUMP JUMPDEST SWAP1 POP SWAP2 SWAP1 POP JUMP JUMPDEST PUSH2 0x101 DUP2 PUSH2 0xE6 JUMP JUMPDEST DUP2 EQ PUSH2 0x10C JUMPI PUSH1 0x0 DUP1 REVERT JUMPDEST POP JUMP JUMPDEST PUSH1 0x0 DUP2 MLOAD SWAP1 POP PUSH2 0x11E DUP2 PUSH2 0xF8 JUMP JUMPDEST SWAP3 SWAP2 POP POP JUMP JUMPDEST PUSH1 0x0 DUP2 SWAP1 POP SWAP2 SWAP1 POP JUMP JUMPDEST PUSH2 0x137 DUP2 PUSH2 0x124 JUMP JUMPDEST DUP2 EQ PUSH2 0x142 JUMPI PUSH1 0x0 DUP1 REVERT JUMPDEST POP JUMP JUMPDEST PUSH1 0x0 DUP2 MLOAD SWAP1 POP PUSH2 0x154 DUP2 PUSH2 0x12E JUMP JUMPDEST SWAP3 SWAP2 POP POP JUMP JUMPDEST PUSH1 0x0 DUP1 PUSH1 0x40 DUP4 DUP6 SUB SLT ISZERO PUSH2 0x171 JUMPI PUSH2 0x170 PUSH2 0xC1 JUMP JUMPDEST JUMPDEST PUSH1 0x0 PUSH2 0x17F DUP6 DUP3 DUP7 ADD PUSH2 0x10F JUMP JUMPDEST SWAP3 POP POP PUSH1 0x20 PUSH2 0x190 DUP6 DUP3 DUP7 ADD PUSH2 0x145 JUMP JUMPDEST SWAP2 POP POP SWAP3 POP SWAP3 SWAP1 POP JUMP JUMPDEST PUSH2 0x427 DUP1 PUSH2 0x1A9 PUSH1 0x0 CODECOPY PUSH1 0x0 RETURN INVALID PUSH1 0x80 PUSH1 0x40 MSTORE PUSH1 0x4 CALLDATASIZE LT PUSH2 0x2D JUMPI PUSH1 0x0 CALLDATALOAD PUSH1 0xE0 SHR DUP1 PUSH4 0x82ADD361 EQ PUSH2 0x87 JUMPI DUP1 PUSH4 0xB0128F6D EQ PUSH2 0x91 JUMPI PUSH2 0x85 JUMP JUMPDEST CALLDATASIZE PUSH2 0x85 JUMPI PUSH1 0x0 CALLVALUE GT ISZERO PUSH2 0x83 JUMPI ADDRESS PUSH20 0xFFFFFFFFFFFFFFFFFFFFFFFFFFFFFFFFFFFFFFFF AND PUSH2 0x8FC CALLVALUE SWAP1 DUP2 ISZERO MUL SWAP1 PUSH1 0x40 MLOAD PUSH1 0x0 PUSH1 0x40 MLOAD DUP1 DUP4 SUB DUP2 DUP6 DUP9 DUP9 CALL SWAP4 POP POP POP POP ISZERO DUP1 ISZERO PUSH2 0x81 JUMPI RETURNDATASIZE PUSH1 0x0 DUP1 RETURNDATACOPY RETURNDATASIZE PUSH1 0x0 REVERT JUMPDEST POP JUMPDEST STOP JUMPDEST STOP JUMPDEST PUSH2 0x8F PUSH2 0xCF JUMP JUMPDEST STOP JUMPDEST CALLVALUE DUP1 ISZERO PUSH2 0x9D JUMPI PUSH1 0x0 DUP1 REVERT JUMPDEST POP PUSH2 0xB8 PUSH1 0x4 DUP1 CALLDATASIZE SUB DUP2 ADD SWAP1 PUSH2 0xB3 SWAP2 SWAP1 PUSH2 0x248 JUMP JUMPDEST PUSH2 0x119 JUMP JUMPDEST PUSH1 0x40 MLOAD PUSH2 0xC6 SWAP3 SWAP2 SWAP1 PUSH2 0x284 JUMP JUMPDEST PUSH1 0x40 MLOAD DUP1 SWAP2 SUB SWAP1 RETURN JUMPDEST PUSH1 0x0 PUSH1 0x5 PUSH1 0x0 DUP1 DUP2 MSTORE PUSH1 0x20 ADD SWAP1 DUP2 MSTORE PUSH1 0x20 ADD PUSH1 0x0 KECCAK256 PUSH1 0x1 ADD SLOAD DUP2 PUSH2 0xF3 SWAP2 SWAP1 PUSH2 0x2DC JUMP JUMPDEST TIMESTAMP GT PUSH2 0x116 JUMPI PUSH1 0x0 PUSH1 0x1 SLOAD SELFBALANCE PUSH2 0x109 SWAP2 SWAP1 PUSH2 0x361 JUMP JUMPDEST SWAP1 POP PUSH2 0x114 DUP2 PUSH2 0x13D JUMP JUMPDEST POP JUMPDEST POP JUMP JUMPDEST PUSH1 0x5 PUSH1 0x20 MSTORE DUP1 PUSH1 0x0 MSTORE PUSH1 0x40 PUSH1 0x0 KECCAK256 PUSH1 0x0 SWAP2 POP SWAP1 POP DUP1 PUSH1 0x0 ADD SLOAD SWAP1 DUP1 PUSH1 0x1 ADD SLOAD SWAP1 POP DUP3 JUMP JUMPDEST PUSH1 0x0 PUSH1 0x3 PUSH1 0x0 SWAP1 SLOAD SWAP1 PUSH2 0x100 EXP SWAP1 DIV PUSH20 0xFFFFFFFFFFFFFFFFFFFFFFFFFFFFFFFFFFFFFFFF AND SWAP1 POP DUP1 PUSH20 0xFFFFFFFFFFFFFFFFFFFFFFFFFFFFFFFFFFFFFFFF AND PUSH4 0x9A29E6AA DUP4 PUSH1 0x40 MLOAD DUP3 PUSH4 0xFFFFFFFF AND PUSH1 0xE0 SHL DUP2 MSTORE PUSH1 0x4 ADD PUSH2 0x19D SWAP2 SWAP1 PUSH2 0x392 JUMP JUMPDEST PUSH1 0x0 PUSH1 0x40 MLOAD DUP1 DUP4 SUB DUP2 PUSH1 0x0 DUP8 DUP1 EXTCODESIZE ISZERO DUP1 ISZERO PUSH2 0x1B7 JUMPI PUSH1 0x0 DUP1 REVERT JUMPDEST POP GAS CALL ISZERO DUP1 ISZERO PUSH2 0x1CB JUMPI RETURNDATASIZE PUSH1 0x0 DUP1 RETURNDATACOPY RETURNDATASIZE PUSH1 0x0 REVERT JUMPDEST POP POP POP POP PUSH32 0xA45DAC62289018E90B3DC24632D939C6F3545FBC1C00325EE50858F926AFC630 TIMESTAMP PUSH1 0x1 PUSH1 0x40 MLOAD PUSH2 0x201 SWAP3 SWAP2 SWAP1 PUSH2 0x3C8 JUMP JUMPDEST PUSH1 0x40 MLOAD DUP1 SWAP2 SUB SWAP1 LOG1 POP POP JUMP JUMPDEST PUSH1 0x0 DUP1 REVERT JUMPDEST PUSH1 0x0 DUP2 SWAP1 POP SWAP2 SWAP1 POP JUMP JUMPDEST PUSH2 0x225 DUP2 PUSH2 0x212 JUMP JUMPDEST DUP2 EQ PUSH2 0x230 JUMPI PUSH1 0x0 DUP1 REVERT JUMPDEST POP JUMP JUMPDEST PUSH1 0x0 DUP2 CALLDATALOAD SWAP1 POP PUSH2 0x242 DUP2 PUSH2 0x21C JUMP JUMPDEST SWAP3 SWAP2 POP POP JUMP JUMPDEST PUSH1 0x0 PUSH1 0x20 DUP3 DUP5 SUB SLT ISZERO PUSH2 0x25E JUMPI PUSH2 0x25D PUSH2 0x20D JUMP JUMPDEST JUMPDEST PUSH1 0x0 PUSH2 0x26C DUP5 DUP3 DUP6 ADD PUSH2 0x233 JUMP JUMPDEST SWAP2 POP POP SWAP3 SWAP2 POP POP JUMP JUMPDEST PUSH2 0x27E DUP2 PUSH2 0x212 JUMP JUMPDEST DUP3 MSTORE POP POP JUMP JUMPDEST PUSH1 0x0 PUSH1 0x40 DUP3 ADD SWAP1 POP PUSH2 0x299 PUSH1 0x0 DUP4 ADD DUP6 PUSH2 0x275 JUMP JUMPDEST PUSH2 0x2A6 PUSH1 0x20 DUP4 ADD DUP5 PUSH2 0x275 JUMP JUMPDEST SWAP4 SWAP3 POP POP POP JUMP JUMPDEST PUSH32 0x4E487B7100000000000000000000000000000000000000000000000000000000 PUSH1 0x0 MSTORE PUSH1 0x11 PUSH1 0x4 MSTORE PUSH1 0x24 PUSH1 0x0 REVERT JUMPDEST PUSH1 0x0 PUSH2 0x2E7 DUP3 PUSH2 0x212 JUMP JUMPDEST SWAP2 POP PUSH2 0x2F2 DUP4 PUSH2 0x212 JUMP JUMPDEST SWAP3 POP DUP3 PUSH32 0xFFFFFFFFFFFFFFFFFFFFFFFFFFFFFFFFFFFFFFFFFFFFFFFFFFFFFFFFFFFFFFFF SUB DUP3 GT ISZERO PUSH2 0x327 JUMPI PUSH2 0x326 PUSH2 0x2AD JUMP JUMPDEST JUMPDEST DUP3 DUP3 ADD SWAP1 POP SWAP3 SWAP2 POP POP JUMP JUMPDEST PUSH32 0x4E487B7100000000000000000000000000000000000000000000000000000000 PUSH1 0x0 MSTORE PUSH1 0x12 PUSH1 0x4 MSTORE PUSH1 0x24 PUSH1 0x0 REVERT JUMPDEST PUSH1 0x0 PUSH2 0x36C DUP3 PUSH2 0x212 JUMP JUMPDEST SWAP2 POP PUSH2 0x377 DUP4 PUSH2 0x212 JUMP JUMPDEST SWAP3 POP DUP3 PUSH2 0x387 JUMPI PUSH2 0x386 PUSH2 0x332 JUMP JUMPDEST JUMPDEST DUP3 DUP3 DIV SWAP1 POP SWAP3 SWAP2 POP POP JUMP JUMPDEST PUSH1 0x0 PUSH1 0x20 DUP3 ADD SWAP1 POP PUSH2 0x3A7 PUSH1 0x0 DUP4 ADD DUP5 PUSH2 0x275 JUMP JUMPDEST SWAP3 SWAP2 POP POP JUMP JUMPDEST PUSH1 0x0 DUP2 ISZERO ISZERO SWAP1 POP SWAP2 SWAP1 POP JUMP JUMPDEST PUSH2 0x3C2 DUP2 PUSH2 0x3AD JUMP JUMPDEST DUP3 MSTORE POP POP JUMP JUMPDEST PUSH1 0x0 PUSH1 0x40 DUP3 ADD SWAP1 POP PUSH2 0x3DD PUSH1 0x0 DUP4 ADD DUP6 PUSH2 0x275 JUMP JUMPDEST PUSH2 0x3EA PUSH1 0x20 DUP4 ADD DUP5 PUSH2 0x3B9 JUMP JUMPDEST SWAP4 SWAP3 POP POP POP JUMP INVALID LOG2 PUSH5 0x6970667358 0x22 SLT KECCAK256 0xB4 0xCD 0xDA PUSH16 0xA7753BC7D1A6F2B6E2DD006B805B13EA LT 0xCA CALLDATASIZE 0x4B 0x22 NUMBER DUP9 0xE1 SWAP4 ISZERO LOG1 0xBF PUSH5 0x736F6C6343 STOP ADDMOD 0xD STOP CALLER "
				},
				"gasEstimates": {
					"creation": {
						"codeDepositCost": "212600",
						"executionCost": "infinite",
						"totalCost": "infinite"
					},
					"external": {
						"": "107",
						"Bank(uint256)": "infinite",
						"Incomming_Payments()": "infinite"
					},
					"internal": {
						"Issue_To_Treasury(uint256)": "infinite"
					}
				},
				"methodIdentifiers": {
					"Bank(uint256)": "b0128f6d",
					"Incomming_Payments()": "82add361"
				}
			},
			"userdoc": {
				"kind": "user",
				"methods": {},
				"version": 1
			}
		}
	}
}