{
	"Documents/GitHub/XRC-20Plus/contracts/XRC20Plus.sol": {
		"Plus": {
			"abi": [
				{
					"inputs": [
						{
							"internalType": "string",
							"name": "name",
							"type": "string"
						},
						{
							"internalType": "string",
							"name": "symbol",
							"type": "string"
						},
						{
							"internalType": "uint256",
							"name": "totalSupply",
							"type": "uint256"
						},
						{
							"internalType": "uint8",
							"name": "decimals",
							"type": "uint8"
						}
					],
					"stateMutability": "nonpayable",
					"type": "constructor"
				},
				{
					"anonymous": false,
					"inputs": [
						{
							"indexed": true,
							"internalType": "address",
							"name": "owner",
							"type": "address"
						},
						{
							"indexed": true,
							"internalType": "address",
							"name": "spender",
							"type": "address"
						},
						{
							"indexed": false,
							"internalType": "uint256",
							"name": "value",
							"type": "uint256"
						}
					],
					"name": "Approval",
					"type": "event"
				},
				{
					"anonymous": false,
					"inputs": [
						{
							"indexed": true,
							"internalType": "address",
							"name": "from",
							"type": "address"
						},
						{
							"indexed": true,
							"internalType": "address",
							"name": "to",
							"type": "address"
						},
						{
							"indexed": false,
							"internalType": "uint256",
							"name": "value",
							"type": "uint256"
						}
					],
					"name": "Transfer",
					"type": "event"
				},
				{
					"anonymous": false,
					"inputs": [
						{
							"indexed": false,
							"internalType": "uint256",
							"name": "",
							"type": "uint256"
						},
						{
							"indexed": false,
							"internalType": "bool",
							"name": "",
							"type": "bool"
						}
					],
					"name": "TreasuryClock",
					"type": "event"
				},
				{
					"stateMutability": "payable",
					"type": "fallback"
				},
				{
					"inputs": [
						{
							"internalType": "uint256",
							"name": "_singleShard",
							"type": "uint256"
						}
					],
					"name": "Accept_From_CoinBank",
					"outputs": [],
					"stateMutability": "payable",
					"type": "function"
				},
				{
					"inputs": [],
					"name": "Balance",
					"outputs": [
						{
							"internalType": "uint256",
							"name": "",
							"type": "uint256"
						}
					],
					"stateMutability": "view",
					"type": "function"
				},
				{
					"inputs": [
						{
							"internalType": "uint256",
							"name": "",
							"type": "uint256"
						}
					],
					"name": "CoinBank_Contract",
					"outputs": [
						{
							"internalType": "contract CoinBank",
							"name": "",
							"type": "address"
						}
					],
					"stateMutability": "view",
					"type": "function"
				},
				{
					"inputs": [],
					"name": "Redeem",
					"outputs": [
						{
							"internalType": "bool",
							"name": "",
							"type": "bool"
						}
					],
					"stateMutability": "nonpayable",
					"type": "function"
				},
				{
					"inputs": [],
					"name": "Register_Account",
					"outputs": [
						{
							"internalType": "bool",
							"name": "",
							"type": "bool"
						}
					],
					"stateMutability": "nonpayable",
					"type": "function"
				},
				{
					"inputs": [],
					"name": "View_Account",
					"outputs": [
						{
							"internalType": "uint256",
							"name": "",
							"type": "uint256"
						}
					],
					"stateMutability": "view",
					"type": "function"
				},
				{
					"inputs": [
						{
							"internalType": "address",
							"name": "",
							"type": "address"
						}
					],
					"name": "accounts",
					"outputs": [
						{
							"internalType": "uint256",
							"name": "ammount",
							"type": "uint256"
						},
						{
							"internalType": "bool",
							"name": "exist",
							"type": "bool"
						}
					],
					"stateMutability": "view",
					"type": "function"
				},
				{
					"inputs": [
						{
							"internalType": "address",
							"name": "owner",
							"type": "address"
						},
						{
							"internalType": "address",
							"name": "spender",
							"type": "address"
						}
					],
					"name": "allowance",
					"outputs": [
						{
							"internalType": "uint256",
							"name": "",
							"type": "uint256"
						}
					],
					"stateMutability": "view",
					"type": "function"
				},
				{
					"inputs": [
						{
							"internalType": "address",
							"name": "spender",
							"type": "address"
						},
						{
							"internalType": "uint256",
							"name": "amount",
							"type": "uint256"
						}
					],
					"name": "approve",
					"outputs": [
						{
							"internalType": "bool",
							"name": "",
							"type": "bool"
						}
					],
					"stateMutability": "nonpayable",
					"type": "function"
				},
				{
					"inputs": [
						{
							"internalType": "address",
							"name": "account",
							"type": "address"
						}
					],
					"name": "balanceOf",
					"outputs": [
						{
							"internalType": "uint256",
							"name": "",
							"type": "uint256"
						}
					],
					"stateMutability": "view",
					"type": "function"
				},
				{
					"inputs": [],
					"name": "decimals",
					"outputs": [
						{
							"internalType": "uint8",
							"name": "",
							"type": "uint8"
						}
					],
					"stateMutability": "view",
					"type": "function"
				},
				{
					"inputs": [
						{
							"internalType": "address",
							"name": "spender",
							"type": "address"
						},
						{
							"internalType": "uint256",
							"name": "subtractedValue",
							"type": "uint256"
						}
					],
					"name": "decreaseAllowance",
					"outputs": [
						{
							"internalType": "bool",
							"name": "",
							"type": "bool"
						}
					],
					"stateMutability": "nonpayable",
					"type": "function"
				},
				{
					"inputs": [
						{
							"internalType": "address",
							"name": "spender",
							"type": "address"
						},
						{
							"internalType": "uint256",
							"name": "addedValue",
							"type": "uint256"
						}
					],
					"name": "increaseAllowance",
					"outputs": [
						{
							"internalType": "bool",
							"name": "",
							"type": "bool"
						}
					],
					"stateMutability": "nonpayable",
					"type": "function"
				},
				{
					"inputs": [
						{
							"internalType": "uint256",
							"name": "",
							"type": "uint256"
						}
					],
					"name": "ledger",
					"outputs": [
						{
							"internalType": "address",
							"name": "account",
							"type": "address"
						},
						{
							"internalType": "bool",
							"name": "exist",
							"type": "bool"
						}
					],
					"stateMutability": "view",
					"type": "function"
				},
				{
					"inputs": [],
					"name": "name",
					"outputs": [
						{
							"internalType": "string",
							"name": "",
							"type": "string"
						}
					],
					"stateMutability": "view",
					"type": "function"
				},
				{
					"inputs": [],
					"name": "symbol",
					"outputs": [
						{
							"internalType": "string",
							"name": "",
							"type": "string"
						}
					],
					"stateMutability": "view",
					"type": "function"
				},
				{
					"inputs": [],
					"name": "totalSupply",
					"outputs": [
						{
							"internalType": "uint256",
							"name": "",
							"type": "uint256"
						}
					],
					"stateMutability": "view",
					"type": "function"
				},
				{
					"inputs": [
						{
							"internalType": "address",
							"name": "recipient",
							"type": "address"
						},
						{
							"internalType": "uint256",
							"name": "amount",
							"type": "uint256"
						}
					],
					"name": "transfer",
					"outputs": [
						{
							"internalType": "bool",
							"name": "",
							"type": "bool"
						}
					],
					"stateMutability": "nonpayable",
					"type": "function"
				},
				{
					"inputs": [
						{
							"internalType": "address",
							"name": "sender",
							"type": "address"
						},
						{
							"internalType": "address",
							"name": "recipient",
							"type": "address"
						},
						{
							"internalType": "uint256",
							"name": "amount",
							"type": "uint256"
						}
					],
					"name": "transferFrom",
					"outputs": [
						{
							"internalType": "bool",
							"name": "",
							"type": "bool"
						}
					],
					"stateMutability": "nonpayable",
					"type": "function"
				},
				{
					"stateMutability": "payable",
					"type": "receive"
				}
			],
			"devdoc": {
				"kind": "dev",
				"methods": {
					"allowance(address,address)": {
						"details": "See {IERC20-allowance}."
					},
					"approve(address,uint256)": {
						"details": "See {IERC20-approve}. Requirements: - `spender` cannot be the zero address."
					},
					"balanceOf(address)": {
						"details": "See {IERC20-balanceOf}."
					},
					"decimals()": {
						"details": "Returns the number of decimals used to get its user representation. For example, if `decimals` equals `2`, a balance of `505` tokens should be displayed to a user as `5.05` (`505 / 10 ** 2`). Tokens usually opt for a value of 18, imitating the relationship between Ether and Wei. This is the value {ERC20} uses, unless this function is overridden; NOTE: This information is only used for _display_ purposes: it in no way affects any of the arithmetic of the contract, including {IERC20-balanceOf} and {IERC20-transfer}."
					},
					"decreaseAllowance(address,uint256)": {
						"details": "Atomically decreases the allowance granted to `spender` by the caller. This is an alternative to {approve} that can be used as a mitigation for problems described in {IERC20-approve}. Emits an {Approval} event indicating the updated allowance. Requirements: - `spender` cannot be the zero address. - `spender` must have allowance for the caller of at least `subtractedValue`."
					},
					"increaseAllowance(address,uint256)": {
						"details": "Atomically increases the allowance granted to `spender` by the caller. This is an alternative to {approve} that can be used as a mitigation for problems described in {IERC20-approve}. Emits an {Approval} event indicating the updated allowance. Requirements: - `spender` cannot be the zero address."
					},
					"name()": {
						"details": "Returns the name of the token."
					},
					"symbol()": {
						"details": "Returns the symbol of the token, usually a shorter version of the name."
					},
					"totalSupply()": {
						"details": "See {IERC20-totalSupply}."
					},
					"transfer(address,uint256)": {
						"details": "See {IERC20-transfer}. Requirements: - `recipient` cannot be the zero address. - the caller must have a balance of at least `amount`."
					},
					"transferFrom(address,address,uint256)": {
						"details": "See {IERC20-transferFrom}. Emits an {Approval} event indicating the updated allowance. This is not required by the EIP. See the note at the beginning of {ERC20}. Requirements: - `sender` and `recipient` cannot be the zero address. - `sender` must have a balance of at least `amount`. - the caller must have allowance for ``sender``'s tokens of at least `amount`."
					}
				},
				"version": 1
			},
			"evm": {
				"assembly": "    /* \"Documents/GitHub/XRC-20Plus/contracts/XRC20Plus.sol\":2259:6170  contract Plus is ERC20, Plus_Interface {... */\n  mstore(0x40, 0x80)\n    /* \"Documents/GitHub/XRC-20Plus/contracts/XRC20Plus.sol\":2318:2319  0 */\n  0x00\n    /* \"Documents/GitHub/XRC-20Plus/contracts/XRC20Plus.sol\":2304:2319  uint counter =0 */\n  0x05\n  sstore\n    /* \"Documents/GitHub/XRC-20Plus/contracts/XRC20Plus.sol\":2348:2349  0 */\n  0x00\n    /* \"Documents/GitHub/XRC-20Plus/contracts/XRC20Plus.sol\":2325:2349  uint Account_Counter = 0 */\n  0x06\n  sstore\n    /* \"Documents/GitHub/XRC-20Plus/contracts/XRC20Plus.sol\":2371:2374  100 */\n  0x64\n    /* \"Documents/GitHub/XRC-20Plus/contracts/XRC20Plus.sol\":2355:2374  uint dust_min = 100 */\n  0x07\n  sstore\n    /* \"Documents/GitHub/XRC-20Plus/contracts/XRC20Plus.sol\":2441:2442  0 */\n  0x00\n    /* \"Documents/GitHub/XRC-20Plus/contracts/XRC20Plus.sol\":2434:2442  uint i=0 */\n  0x08\n  sstore\n    /* \"Documents/GitHub/XRC-20Plus/contracts/XRC20Plus.sol\":2975:3375  constructor(string memory name,string memory symbol,uint totalSupply,uint8 decimals) ERC20(name, symbol) {        ... */\n  callvalue\n  dup1\n  iszero\n  tag_1\n  jumpi\n  0x00\n  dup1\n  revert\ntag_1:\n  pop\n  mload(0x40)\n  sub(codesize, bytecodeSize)\n  dup1\n  bytecodeSize\n  dup4\n  codecopy\n  dup2\n  dup2\n  add\n  0x40\n  mstore\n  dup2\n  add\n  swap1\n  tag_2\n  swap2\n  swap1\n  tag_3\n  jump\t// in\ntag_2:\n    /* \"Documents/GitHub/XRC-20Plus/contracts/XRC20Plus.sol\":3066:3070  name */\n  dup4\n    /* \"Documents/GitHub/XRC-20Plus/contracts/XRC20Plus.sol\":3072:3078  symbol */\n  dup4\n    /* \"@openzeppelin/contracts/token/ERC20/ERC20.sol\":2037:2042  name_ */\n  dup2\n    /* \"@openzeppelin/contracts/token/ERC20/ERC20.sol\":2029:2034  _name */\n  0x03\n    /* \"@openzeppelin/contracts/token/ERC20/ERC20.sol\":2029:2042  _name = name_ */\n  swap1\n  dup1\n  mload\n  swap1\n  0x20\n  add\n  swap1\n  tag_7\n  swap3\n  swap2\n  swap1\n  tag_8\n  jump\t// in\ntag_7:\n  pop\n    /* \"@openzeppelin/contracts/token/ERC20/ERC20.sol\":2062:2069  symbol_ */\n  dup1\n    /* \"@openzeppelin/contracts/token/ERC20/ERC20.sol\":2052:2059  _symbol */\n  0x04\n    /* \"@openzeppelin/contracts/token/ERC20/ERC20.sol\":2052:2069  _symbol = symbol_ */\n  swap1\n  dup1\n  mload\n  swap1\n  0x20\n  add\n  swap1\n  tag_9\n  swap3\n  swap2\n  swap1\n  tag_8\n  jump\t// in\ntag_9:\n  pop\n    /* \"@openzeppelin/contracts/token/ERC20/ERC20.sol\":1963:2076  constructor(string memory name_, string memory symbol_) {... */\n  pop\n  pop\n    /* \"Documents/GitHub/XRC-20Plus/contracts/XRC20Plus.sol\":3125:3133  decimals */\n  dup1\n    /* \"Documents/GitHub/XRC-20Plus/contracts/XRC20Plus.sol\":3112:3123  totalSupply */\n  dup3\n    /* \"Documents/GitHub/XRC-20Plus/contracts/XRC20Plus.sol\":3112:3133  totalSupply**decimals */\n  tag_11\n  swap2\n  swap1\n  tag_12\n  jump\t// in\ntag_11:\n    /* \"Documents/GitHub/XRC-20Plus/contracts/XRC20Plus.sol\":3098:3133  totalSupply = totalSupply**decimals */\n  swap2\n  pop\n    /* \"Documents/GitHub/XRC-20Plus/contracts/XRC20Plus.sol\":3143:3179  _mint(msg.sender, uint(totalSupply)) */\n  tag_13\n    /* \"Documents/GitHub/XRC-20Plus/contracts/XRC20Plus.sol\":3149:3159  msg.sender */\n  caller\n    /* \"Documents/GitHub/XRC-20Plus/contracts/XRC20Plus.sol\":3166:3177  totalSupply */\n  dup4\n    /* \"Documents/GitHub/XRC-20Plus/contracts/XRC20Plus.sol\":3143:3148  _mint */\n  shl(0x20, tag_14)\n    /* \"Documents/GitHub/XRC-20Plus/contracts/XRC20Plus.sol\":3143:3179  _mint(msg.sender, uint(totalSupply)) */\n  0x20\n  shr\n  jump\t// in\ntag_13:\n    /* \"Documents/GitHub/XRC-20Plus/contracts/XRC20Plus.sol\":3259:3280  CoinBank incomingbank */\n  0x00\n    /* \"Documents/GitHub/XRC-20Plus/contracts/XRC20Plus.sol\":3304:3308  this */\n  address\n    /* \"Documents/GitHub/XRC-20Plus/contracts/XRC20Plus.sol\":3310:3321  totalSupply */\n  dup4\n    /* \"Documents/GitHub/XRC-20Plus/contracts/XRC20Plus.sol\":3283:3322  new CoinBank(address(this),totalSupply) */\n  mload(0x40)\n  tag_15\n  swap1\n  tag_16\n  jump\t// in\ntag_15:\n  tag_17\n  swap3\n  swap2\n  swap1\n  tag_18\n  jump\t// in\ntag_17:\n  mload(0x40)\n  dup1\n  swap2\n  sub\n  swap1\n  0x00\n  create\n  dup1\n  iszero\n  dup1\n  iszero\n  tag_19\n  jumpi\n  returndatasize\n  0x00\n  dup1\n  returndatacopy\n  revert(0x00, returndatasize)\ntag_19:\n  pop\n    /* \"Documents/GitHub/XRC-20Plus/contracts/XRC20Plus.sol\":3259:3322  CoinBank incomingbank = new CoinBank(address(this),totalSupply) */\n  swap1\n  pop\n    /* \"Documents/GitHub/XRC-20Plus/contracts/XRC20Plus.sol\":3332:3349  CoinBank_Contract */\n  0x0b\n    /* \"Documents/GitHub/XRC-20Plus/contracts/XRC20Plus.sol\":3355:3367  incomingbank */\n  dup2\n    /* \"Documents/GitHub/XRC-20Plus/contracts/XRC20Plus.sol\":3332:3368  CoinBank_Contract.push(incomingbank) */\n  swap1\n  dup1\n  0x01\n  dup2\n  sload\n  add\n  dup1\n  dup3\n  sstore\n  dup1\n  swap2\n  pop\n  pop\n  0x01\n  swap1\n  sub\n  swap1\n  0x00\n  mstore\n  keccak256(0x00, 0x20)\n  add\n  0x00\n  swap1\n  swap2\n  swap1\n  swap2\n  swap1\n  swap2\n  0x0100\n  exp\n  dup2\n  sload\n  dup2\n  0xffffffffffffffffffffffffffffffffffffffff\n  mul\n  not\n  and\n  swap1\n  dup4\n  0xffffffffffffffffffffffffffffffffffffffff\n  and\n  mul\n  or\n  swap1\n  sstore\n  pop\n    /* \"Documents/GitHub/XRC-20Plus/contracts/XRC20Plus.sol\":3080:3375  {        ... */\n  pop\n    /* \"Documents/GitHub/XRC-20Plus/contracts/XRC20Plus.sol\":2975:3375  constructor(string memory name,string memory symbol,uint totalSupply,uint8 decimals) ERC20(name, symbol) {        ... */\n  pop\n  pop\n  pop\n  pop\n    /* \"Documents/GitHub/XRC-20Plus/contracts/XRC20Plus.sol\":2259:6170  contract Plus is ERC20, Plus_Interface {... */\n  jump(tag_21)\n    /* \"@openzeppelin/contracts/token/ERC20/ERC20.sol\":8311:8700  function _mint(address account, uint256 amount) internal virtual {... */\ntag_14:\n    /* \"@openzeppelin/contracts/token/ERC20/ERC20.sol\":8413:8414  0 */\n  0x00\n    /* \"@openzeppelin/contracts/token/ERC20/ERC20.sol\":8394:8415  account != address(0) */\n  0xffffffffffffffffffffffffffffffffffffffff\n  and\n    /* \"@openzeppelin/contracts/token/ERC20/ERC20.sol\":8394:8401  account */\n  dup3\n    /* \"@openzeppelin/contracts/token/ERC20/ERC20.sol\":8394:8415  account != address(0) */\n  0xffffffffffffffffffffffffffffffffffffffff\n  and\n  sub\n    /* \"@openzeppelin/contracts/token/ERC20/ERC20.sol\":8386:8451  require(account != address(0), \"ERC20: mint to the zero address\") */\n  tag_23\n  jumpi\n  mload(0x40)\n  0x08c379a000000000000000000000000000000000000000000000000000000000\n  dup2\n  mstore\n  0x04\n  add\n  tag_24\n  swap1\n  tag_25\n  jump\t// in\ntag_24:\n  mload(0x40)\n  dup1\n  swap2\n  sub\n  swap1\n  revert\ntag_23:\n    /* \"@openzeppelin/contracts/token/ERC20/ERC20.sol\":8462:8511  _beforeTokenTransfer(address(0), account, amount) */\n  tag_26\n    /* \"@openzeppelin/contracts/token/ERC20/ERC20.sol\":8491:8492  0 */\n  0x00\n    /* \"@openzeppelin/contracts/token/ERC20/ERC20.sol\":8495:8502  account */\n  dup4\n    /* \"@openzeppelin/contracts/token/ERC20/ERC20.sol\":8504:8510  amount */\n  dup4\n    /* \"@openzeppelin/contracts/token/ERC20/ERC20.sol\":8462:8482  _beforeTokenTransfer */\n  shl(0x20, tag_27)\n    /* \"@openzeppelin/contracts/token/ERC20/ERC20.sol\":8462:8511  _beforeTokenTransfer(address(0), account, amount) */\n  0x20\n  shr\n  jump\t// in\ntag_26:\n    /* \"@openzeppelin/contracts/token/ERC20/ERC20.sol\":8538:8544  amount */\n  dup1\n    /* \"@openzeppelin/contracts/token/ERC20/ERC20.sol\":8522:8534  _totalSupply */\n  0x02\n  0x00\n    /* \"@openzeppelin/contracts/token/ERC20/ERC20.sol\":8522:8544  _totalSupply += amount */\n  dup3\n  dup3\n  sload\n  tag_28\n  swap2\n  swap1\n  tag_29\n  jump\t// in\ntag_28:\n  swap3\n  pop\n  pop\n  dup2\n  swap1\n  sstore\n  pop\n    /* \"@openzeppelin/contracts/token/ERC20/ERC20.sol\":8576:8582  amount */\n  dup1\n    /* \"@openzeppelin/contracts/token/ERC20/ERC20.sol\":8554:8563  _balances */\n  0x00\n    /* \"@openzeppelin/contracts/token/ERC20/ERC20.sol\":8554:8572  _balances[account] */\n  dup1\n    /* \"@openzeppelin/contracts/token/ERC20/ERC20.sol\":8564:8571  account */\n  dup5\n    /* \"@openzeppelin/contracts/token/ERC20/ERC20.sol\":8554:8572  _balances[account] */\n  0xffffffffffffffffffffffffffffffffffffffff\n  and\n  0xffffffffffffffffffffffffffffffffffffffff\n  and\n  dup2\n  mstore\n  0x20\n  add\n  swap1\n  dup2\n  mstore\n  0x20\n  add\n  0x00\n  keccak256\n  0x00\n    /* \"@openzeppelin/contracts/token/ERC20/ERC20.sol\":8554:8582  _balances[account] += amount */\n  dup3\n  dup3\n  sload\n  tag_30\n  swap2\n  swap1\n  tag_29\n  jump\t// in\ntag_30:\n  swap3\n  pop\n  pop\n  dup2\n  swap1\n  sstore\n  pop\n    /* \"@openzeppelin/contracts/token/ERC20/ERC20.sol\":8618:8625  account */\n  dup2\n    /* \"@openzeppelin/contracts/token/ERC20/ERC20.sol\":8597:8634  Transfer(address(0), account, amount) */\n  0xffffffffffffffffffffffffffffffffffffffff\n  and\n    /* \"@openzeppelin/contracts/token/ERC20/ERC20.sol\":8614:8615  0 */\n  0x00\n    /* \"@openzeppelin/contracts/token/ERC20/ERC20.sol\":8597:8634  Transfer(address(0), account, amount) */\n  0xffffffffffffffffffffffffffffffffffffffff\n  and\n  0xddf252ad1be2c89b69c2b068fc378daa952ba7f163c4a11628f55a4df523b3ef\n    /* \"@openzeppelin/contracts/token/ERC20/ERC20.sol\":8627:8633  amount */\n  dup4\n    /* \"@openzeppelin/contracts/token/ERC20/ERC20.sol\":8597:8634  Transfer(address(0), account, amount) */\n  mload(0x40)\n  tag_31\n  swap2\n  swap1\n  tag_32\n  jump\t// in\ntag_31:\n  mload(0x40)\n  dup1\n  swap2\n  sub\n  swap1\n  log3\n    /* \"@openzeppelin/contracts/token/ERC20/ERC20.sol\":8645:8693  _afterTokenTransfer(address(0), account, amount) */\n  tag_33\n    /* \"@openzeppelin/contracts/token/ERC20/ERC20.sol\":8673:8674  0 */\n  0x00\n    /* \"@openzeppelin/contracts/token/ERC20/ERC20.sol\":8677:8684  account */\n  dup4\n    /* \"@openzeppelin/contracts/token/ERC20/ERC20.sol\":8686:8692  amount */\n  dup4\n    /* \"@openzeppelin/contracts/token/ERC20/ERC20.sol\":8645:8664  _afterTokenTransfer */\n  shl(0x20, tag_34)\n    /* \"@openzeppelin/contracts/token/ERC20/ERC20.sol\":8645:8693  _afterTokenTransfer(address(0), account, amount) */\n  0x20\n  shr\n  jump\t// in\ntag_33:\n    /* \"@openzeppelin/contracts/token/ERC20/ERC20.sol\":8311:8700  function _mint(address account, uint256 amount) internal virtual {... */\n  pop\n  pop\n  jump\t// out\n    /* \"@openzeppelin/contracts/token/ERC20/ERC20.sol\":10973:11094  function _beforeTokenTransfer(... */\ntag_27:\n  pop\n  pop\n  pop\n  jump\t// out\n    /* \"@openzeppelin/contracts/token/ERC20/ERC20.sol\":11682:11802  function _afterTokenTransfer(... */\ntag_34:\n  pop\n  pop\n  pop\n  jump\t// out\n    /* \"Documents/GitHub/XRC-20Plus/contracts/XRC20Plus.sol\":2259:6170  contract Plus is ERC20, Plus_Interface {... */\ntag_8:\n  dup3\n  dup1\n  sload\n  tag_37\n  swap1\n  tag_38\n  jump\t// in\ntag_37:\n  swap1\n  0x00\n  mstore\n  keccak256(0x00, 0x20)\n  swap1\n  0x1f\n  add\n  0x20\n  swap1\n  div\n  dup2\n  add\n  swap3\n  dup3\n  tag_40\n  jumpi\n  0x00\n  dup6\n  sstore\n  jump(tag_39)\ntag_40:\n  dup3\n  0x1f\n  lt\n  tag_41\n  jumpi\n  dup1\n  mload\n  not(0xff)\n  and\n  dup4\n  dup1\n  add\n  or\n  dup6\n  sstore\n  jump(tag_39)\ntag_41:\n  dup3\n  dup1\n  add\n  0x01\n  add\n  dup6\n  sstore\n  dup3\n  iszero\n  tag_39\n  jumpi\n  swap2\n  dup3\n  add\ntag_42:\n  dup3\n  dup2\n  gt\n  iszero\n  tag_43\n  jumpi\n  dup3\n  mload\n  dup3\n  sstore\n  swap2\n  0x20\n  add\n  swap2\n  swap1\n  0x01\n  add\n  swap1\n  jump(tag_42)\ntag_43:\ntag_39:\n  pop\n  swap1\n  pop\n  tag_44\n  swap2\n  swap1\n  tag_45\n  jump\t// in\ntag_44:\n  pop\n  swap1\n  jump\t// out\ntag_16:\n  dataSize(sub_1)\n  dup1\n  dataOffset(sub_1)\n  dup4\n  codecopy\n  add\n  swap1\n  jump\t// out\ntag_45:\ntag_46:\n  dup1\n  dup3\n  gt\n  iszero\n  tag_47\n  jumpi\n  0x00\n  dup2\n  0x00\n  swap1\n  sstore\n  pop\n  0x01\n  add\n  jump(tag_46)\ntag_47:\n  pop\n  swap1\n  jump\t// out\n    /* \"#utility.yul\":7:82   */\ntag_48:\n    /* \"#utility.yul\":40:46   */\n  0x00\n    /* \"#utility.yul\":73:75   */\n  0x40\n    /* \"#utility.yul\":67:76   */\n  mload\n    /* \"#utility.yul\":57:76   */\n  swap1\n  pop\n    /* \"#utility.yul\":7:82   */\n  swap1\n  jump\t// out\n    /* \"#utility.yul\":88:205   */\ntag_49:\n    /* \"#utility.yul\":197:198   */\n  0x00\n    /* \"#utility.yul\":194:195   */\n  dup1\n    /* \"#utility.yul\":187:199   */\n  revert\n    /* \"#utility.yul\":211:328   */\ntag_50:\n    /* \"#utility.yul\":320:321   */\n  0x00\n    /* \"#utility.yul\":317:318   */\n  dup1\n    /* \"#utility.yul\":310:322   */\n  revert\n    /* \"#utility.yul\":334:451   */\ntag_51:\n    /* \"#utility.yul\":443:444   */\n  0x00\n    /* \"#utility.yul\":440:441   */\n  dup1\n    /* \"#utility.yul\":433:445   */\n  revert\n    /* \"#utility.yul\":457:574   */\ntag_52:\n    /* \"#utility.yul\":566:567   */\n  0x00\n    /* \"#utility.yul\":563:564   */\n  dup1\n    /* \"#utility.yul\":556:568   */\n  revert\n    /* \"#utility.yul\":580:682   */\ntag_53:\n    /* \"#utility.yul\":621:627   */\n  0x00\n    /* \"#utility.yul\":672:674   */\n  0x1f\n    /* \"#utility.yul\":668:675   */\n  not\n    /* \"#utility.yul\":663:665   */\n  0x1f\n    /* \"#utility.yul\":656:661   */\n  dup4\n    /* \"#utility.yul\":652:666   */\n  add\n    /* \"#utility.yul\":648:676   */\n  and\n    /* \"#utility.yul\":638:676   */\n  swap1\n  pop\n    /* \"#utility.yul\":580:682   */\n  swap2\n  swap1\n  pop\n  jump\t// out\n    /* \"#utility.yul\":688:868   */\ntag_54:\n    /* \"#utility.yul\":736:813   */\n  0x4e487b7100000000000000000000000000000000000000000000000000000000\n    /* \"#utility.yul\":733:734   */\n  0x00\n    /* \"#utility.yul\":726:814   */\n  mstore\n    /* \"#utility.yul\":833:837   */\n  0x41\n    /* \"#utility.yul\":830:831   */\n  0x04\n    /* \"#utility.yul\":823:838   */\n  mstore\n    /* \"#utility.yul\":857:861   */\n  0x24\n    /* \"#utility.yul\":854:855   */\n  0x00\n    /* \"#utility.yul\":847:862   */\n  revert\n    /* \"#utility.yul\":874:1155   */\ntag_55:\n    /* \"#utility.yul\":957:984   */\n  tag_88\n    /* \"#utility.yul\":979:983   */\n  dup3\n    /* \"#utility.yul\":957:984   */\n  tag_53\n  jump\t// in\ntag_88:\n    /* \"#utility.yul\":949:955   */\n  dup2\n    /* \"#utility.yul\":945:985   */\n  add\n    /* \"#utility.yul\":1087:1093   */\n  dup2\n    /* \"#utility.yul\":1075:1085   */\n  dup2\n    /* \"#utility.yul\":1072:1094   */\n  lt\n    /* \"#utility.yul\":1051:1069   */\n  0xffffffffffffffff\n    /* \"#utility.yul\":1039:1049   */\n  dup3\n    /* \"#utility.yul\":1036:1070   */\n  gt\n    /* \"#utility.yul\":1033:1095   */\n  or\n    /* \"#utility.yul\":1030:1118   */\n  iszero\n  tag_89\n  jumpi\n    /* \"#utility.yul\":1098:1116   */\n  tag_90\n  tag_54\n  jump\t// in\ntag_90:\n    /* \"#utility.yul\":1030:1118   */\ntag_89:\n    /* \"#utility.yul\":1138:1148   */\n  dup1\n    /* \"#utility.yul\":1134:1136   */\n  0x40\n    /* \"#utility.yul\":1127:1149   */\n  mstore\n    /* \"#utility.yul\":917:1155   */\n  pop\n    /* \"#utility.yul\":874:1155   */\n  pop\n  pop\n  jump\t// out\n    /* \"#utility.yul\":1161:1290   */\ntag_56:\n    /* \"#utility.yul\":1195:1201   */\n  0x00\n    /* \"#utility.yul\":1222:1242   */\n  tag_92\n  tag_48\n  jump\t// in\ntag_92:\n    /* \"#utility.yul\":1212:1242   */\n  swap1\n  pop\n    /* \"#utility.yul\":1251:1284   */\n  tag_93\n    /* \"#utility.yul\":1279:1283   */\n  dup3\n    /* \"#utility.yul\":1271:1277   */\n  dup3\n    /* \"#utility.yul\":1251:1284   */\n  tag_55\n  jump\t// in\ntag_93:\n    /* \"#utility.yul\":1161:1290   */\n  swap2\n  swap1\n  pop\n  jump\t// out\n    /* \"#utility.yul\":1296:1604   */\ntag_57:\n    /* \"#utility.yul\":1358:1362   */\n  0x00\n    /* \"#utility.yul\":1448:1466   */\n  0xffffffffffffffff\n    /* \"#utility.yul\":1440:1446   */\n  dup3\n    /* \"#utility.yul\":1437:1467   */\n  gt\n    /* \"#utility.yul\":1434:1490   */\n  iszero\n  tag_95\n  jumpi\n    /* \"#utility.yul\":1470:1488   */\n  tag_96\n  tag_54\n  jump\t// in\ntag_96:\n    /* \"#utility.yul\":1434:1490   */\ntag_95:\n    /* \"#utility.yul\":1508:1537   */\n  tag_97\n    /* \"#utility.yul\":1530:1536   */\n  dup3\n    /* \"#utility.yul\":1508:1537   */\n  tag_53\n  jump\t// in\ntag_97:\n    /* \"#utility.yul\":1500:1537   */\n  swap1\n  pop\n    /* \"#utility.yul\":1592:1596   */\n  0x20\n    /* \"#utility.yul\":1586:1590   */\n  dup2\n    /* \"#utility.yul\":1582:1597   */\n  add\n    /* \"#utility.yul\":1574:1597   */\n  swap1\n  pop\n    /* \"#utility.yul\":1296:1604   */\n  swap2\n  swap1\n  pop\n  jump\t// out\n    /* \"#utility.yul\":1610:1917   */\ntag_58:\n    /* \"#utility.yul\":1678:1679   */\n  0x00\n    /* \"#utility.yul\":1688:1801   */\ntag_99:\n    /* \"#utility.yul\":1702:1708   */\n  dup4\n    /* \"#utility.yul\":1699:1700   */\n  dup2\n    /* \"#utility.yul\":1696:1709   */\n  lt\n    /* \"#utility.yul\":1688:1801   */\n  iszero\n  tag_101\n  jumpi\n    /* \"#utility.yul\":1787:1788   */\n  dup1\n    /* \"#utility.yul\":1782:1785   */\n  dup3\n    /* \"#utility.yul\":1778:1789   */\n  add\n    /* \"#utility.yul\":1772:1790   */\n  mload\n    /* \"#utility.yul\":1768:1769   */\n  dup2\n    /* \"#utility.yul\":1763:1766   */\n  dup5\n    /* \"#utility.yul\":1759:1770   */\n  add\n    /* \"#utility.yul\":1752:1791   */\n  mstore\n    /* \"#utility.yul\":1724:1726   */\n  0x20\n    /* \"#utility.yul\":1721:1722   */\n  dup2\n    /* \"#utility.yul\":1717:1727   */\n  add\n    /* \"#utility.yul\":1712:1727   */\n  swap1\n  pop\n    /* \"#utility.yul\":1688:1801   */\n  jump(tag_99)\ntag_101:\n    /* \"#utility.yul\":1819:1825   */\n  dup4\n    /* \"#utility.yul\":1816:1817   */\n  dup2\n    /* \"#utility.yul\":1813:1826   */\n  gt\n    /* \"#utility.yul\":1810:1911   */\n  iszero\n  tag_102\n  jumpi\n    /* \"#utility.yul\":1899:1900   */\n  0x00\n    /* \"#utility.yul\":1890:1896   */\n  dup5\n    /* \"#utility.yul\":1885:1888   */\n  dup5\n    /* \"#utility.yul\":1881:1897   */\n  add\n    /* \"#utility.yul\":1874:1901   */\n  mstore\n    /* \"#utility.yul\":1810:1911   */\ntag_102:\n    /* \"#utility.yul\":1659:1917   */\n  pop\n    /* \"#utility.yul\":1610:1917   */\n  pop\n  pop\n  pop\n  jump\t// out\n    /* \"#utility.yul\":1923:2344   */\ntag_59:\n    /* \"#utility.yul\":2012:2017   */\n  0x00\n    /* \"#utility.yul\":2037:2103   */\n  tag_104\n    /* \"#utility.yul\":2053:2102   */\n  tag_105\n    /* \"#utility.yul\":2095:2101   */\n  dup5\n    /* \"#utility.yul\":2053:2102   */\n  tag_57\n  jump\t// in\ntag_105:\n    /* \"#utility.yul\":2037:2103   */\n  tag_56\n  jump\t// in\ntag_104:\n    /* \"#utility.yul\":2028:2103   */\n  swap1\n  pop\n    /* \"#utility.yul\":2126:2132   */\n  dup3\n    /* \"#utility.yul\":2119:2124   */\n  dup2\n    /* \"#utility.yul\":2112:2133   */\n  mstore\n    /* \"#utility.yul\":2164:2168   */\n  0x20\n    /* \"#utility.yul\":2157:2162   */\n  dup2\n    /* \"#utility.yul\":2153:2169   */\n  add\n    /* \"#utility.yul\":2202:2205   */\n  dup5\n    /* \"#utility.yul\":2193:2199   */\n  dup5\n    /* \"#utility.yul\":2188:2191   */\n  dup5\n    /* \"#utility.yul\":2184:2200   */\n  add\n    /* \"#utility.yul\":2181:2206   */\n  gt\n    /* \"#utility.yul\":2178:2290   */\n  iszero\n  tag_106\n  jumpi\n    /* \"#utility.yul\":2209:2288   */\n  tag_107\n  tag_52\n  jump\t// in\ntag_107:\n    /* \"#utility.yul\":2178:2290   */\ntag_106:\n    /* \"#utility.yul\":2299:2338   */\n  tag_108\n    /* \"#utility.yul\":2331:2337   */\n  dup5\n    /* \"#utility.yul\":2326:2329   */\n  dup3\n    /* \"#utility.yul\":2321:2324   */\n  dup6\n    /* \"#utility.yul\":2299:2338   */\n  tag_58\n  jump\t// in\ntag_108:\n    /* \"#utility.yul\":2018:2344   */\n  pop\n    /* \"#utility.yul\":1923:2344   */\n  swap4\n  swap3\n  pop\n  pop\n  pop\n  jump\t// out\n    /* \"#utility.yul\":2364:2719   */\ntag_60:\n    /* \"#utility.yul\":2431:2436   */\n  0x00\n    /* \"#utility.yul\":2480:2483   */\n  dup3\n    /* \"#utility.yul\":2473:2477   */\n  0x1f\n    /* \"#utility.yul\":2465:2471   */\n  dup4\n    /* \"#utility.yul\":2461:2478   */\n  add\n    /* \"#utility.yul\":2457:2484   */\n  slt\n    /* \"#utility.yul\":2447:2569   */\n  tag_110\n  jumpi\n    /* \"#utility.yul\":2488:2567   */\n  tag_111\n  tag_51\n  jump\t// in\ntag_111:\n    /* \"#utility.yul\":2447:2569   */\ntag_110:\n    /* \"#utility.yul\":2598:2604   */\n  dup2\n    /* \"#utility.yul\":2592:2605   */\n  mload\n    /* \"#utility.yul\":2623:2713   */\n  tag_112\n    /* \"#utility.yul\":2709:2712   */\n  dup5\n    /* \"#utility.yul\":2701:2707   */\n  dup3\n    /* \"#utility.yul\":2694:2698   */\n  0x20\n    /* \"#utility.yul\":2686:2692   */\n  dup7\n    /* \"#utility.yul\":2682:2699   */\n  add\n    /* \"#utility.yul\":2623:2713   */\n  tag_59\n  jump\t// in\ntag_112:\n    /* \"#utility.yul\":2614:2713   */\n  swap2\n  pop\n    /* \"#utility.yul\":2437:2719   */\n  pop\n    /* \"#utility.yul\":2364:2719   */\n  swap3\n  swap2\n  pop\n  pop\n  jump\t// out\n    /* \"#utility.yul\":2725:2802   */\ntag_61:\n    /* \"#utility.yul\":2762:2769   */\n  0x00\n    /* \"#utility.yul\":2791:2796   */\n  dup2\n    /* \"#utility.yul\":2780:2796   */\n  swap1\n  pop\n    /* \"#utility.yul\":2725:2802   */\n  swap2\n  swap1\n  pop\n  jump\t// out\n    /* \"#utility.yul\":2808:2930   */\ntag_62:\n    /* \"#utility.yul\":2881:2905   */\n  tag_115\n    /* \"#utility.yul\":2899:2904   */\n  dup2\n    /* \"#utility.yul\":2881:2905   */\n  tag_61\n  jump\t// in\ntag_115:\n    /* \"#utility.yul\":2874:2879   */\n  dup2\n    /* \"#utility.yul\":2871:2906   */\n  eq\n    /* \"#utility.yul\":2861:2924   */\n  tag_116\n  jumpi\n    /* \"#utility.yul\":2920:2921   */\n  0x00\n    /* \"#utility.yul\":2917:2918   */\n  dup1\n    /* \"#utility.yul\":2910:2922   */\n  revert\n    /* \"#utility.yul\":2861:2924   */\ntag_116:\n    /* \"#utility.yul\":2808:2930   */\n  pop\n  jump\t// out\n    /* \"#utility.yul\":2936:3079   */\ntag_63:\n    /* \"#utility.yul\":2993:2998   */\n  0x00\n    /* \"#utility.yul\":3024:3030   */\n  dup2\n    /* \"#utility.yul\":3018:3031   */\n  mload\n    /* \"#utility.yul\":3009:3031   */\n  swap1\n  pop\n    /* \"#utility.yul\":3040:3073   */\n  tag_118\n    /* \"#utility.yul\":3067:3072   */\n  dup2\n    /* \"#utility.yul\":3040:3073   */\n  tag_62\n  jump\t// in\ntag_118:\n    /* \"#utility.yul\":2936:3079   */\n  swap3\n  swap2\n  pop\n  pop\n  jump\t// out\n    /* \"#utility.yul\":3085:3171   */\ntag_64:\n    /* \"#utility.yul\":3120:3127   */\n  0x00\n    /* \"#utility.yul\":3160:3164   */\n  0xff\n    /* \"#utility.yul\":3153:3158   */\n  dup3\n    /* \"#utility.yul\":3149:3165   */\n  and\n    /* \"#utility.yul\":3138:3165   */\n  swap1\n  pop\n    /* \"#utility.yul\":3085:3171   */\n  swap2\n  swap1\n  pop\n  jump\t// out\n    /* \"#utility.yul\":3177:3295   */\ntag_65:\n    /* \"#utility.yul\":3248:3270   */\n  tag_121\n    /* \"#utility.yul\":3264:3269   */\n  dup2\n    /* \"#utility.yul\":3248:3270   */\n  tag_64\n  jump\t// in\ntag_121:\n    /* \"#utility.yul\":3241:3246   */\n  dup2\n    /* \"#utility.yul\":3238:3271   */\n  eq\n    /* \"#utility.yul\":3228:3289   */\n  tag_122\n  jumpi\n    /* \"#utility.yul\":3285:3286   */\n  0x00\n    /* \"#utility.yul\":3282:3283   */\n  dup1\n    /* \"#utility.yul\":3275:3287   */\n  revert\n    /* \"#utility.yul\":3228:3289   */\ntag_122:\n    /* \"#utility.yul\":3177:3295   */\n  pop\n  jump\t// out\n    /* \"#utility.yul\":3301:3440   */\ntag_66:\n    /* \"#utility.yul\":3356:3361   */\n  0x00\n    /* \"#utility.yul\":3387:3393   */\n  dup2\n    /* \"#utility.yul\":3381:3394   */\n  mload\n    /* \"#utility.yul\":3372:3394   */\n  swap1\n  pop\n    /* \"#utility.yul\":3403:3434   */\n  tag_124\n    /* \"#utility.yul\":3428:3433   */\n  dup2\n    /* \"#utility.yul\":3403:3434   */\n  tag_65\n  jump\t// in\ntag_124:\n    /* \"#utility.yul\":3301:3440   */\n  swap3\n  swap2\n  pop\n  pop\n  jump\t// out\n    /* \"#utility.yul\":3446:4608   */\ntag_3:\n    /* \"#utility.yul\":3561:3567   */\n  0x00\n    /* \"#utility.yul\":3569:3575   */\n  dup1\n    /* \"#utility.yul\":3577:3583   */\n  0x00\n    /* \"#utility.yul\":3585:3591   */\n  dup1\n    /* \"#utility.yul\":3634:3637   */\n  0x80\n    /* \"#utility.yul\":3622:3631   */\n  dup6\n    /* \"#utility.yul\":3613:3620   */\n  dup8\n    /* \"#utility.yul\":3609:3632   */\n  sub\n    /* \"#utility.yul\":3605:3638   */\n  slt\n    /* \"#utility.yul\":3602:3722   */\n  iszero\n  tag_126\n  jumpi\n    /* \"#utility.yul\":3641:3720   */\n  tag_127\n  tag_49\n  jump\t// in\ntag_127:\n    /* \"#utility.yul\":3602:3722   */\ntag_126:\n    /* \"#utility.yul\":3782:3783   */\n  0x00\n    /* \"#utility.yul\":3771:3780   */\n  dup6\n    /* \"#utility.yul\":3767:3784   */\n  add\n    /* \"#utility.yul\":3761:3785   */\n  mload\n    /* \"#utility.yul\":3812:3830   */\n  0xffffffffffffffff\n    /* \"#utility.yul\":3804:3810   */\n  dup2\n    /* \"#utility.yul\":3801:3831   */\n  gt\n    /* \"#utility.yul\":3798:3915   */\n  iszero\n  tag_128\n  jumpi\n    /* \"#utility.yul\":3834:3913   */\n  tag_129\n  tag_50\n  jump\t// in\ntag_129:\n    /* \"#utility.yul\":3798:3915   */\ntag_128:\n    /* \"#utility.yul\":3939:4013   */\n  tag_130\n    /* \"#utility.yul\":4005:4012   */\n  dup8\n    /* \"#utility.yul\":3996:4002   */\n  dup3\n    /* \"#utility.yul\":3985:3994   */\n  dup9\n    /* \"#utility.yul\":3981:4003   */\n  add\n    /* \"#utility.yul\":3939:4013   */\n  tag_60\n  jump\t// in\ntag_130:\n    /* \"#utility.yul\":3929:4013   */\n  swap5\n  pop\n    /* \"#utility.yul\":3732:4023   */\n  pop\n    /* \"#utility.yul\":4083:4085   */\n  0x20\n    /* \"#utility.yul\":4072:4081   */\n  dup6\n    /* \"#utility.yul\":4068:4086   */\n  add\n    /* \"#utility.yul\":4062:4087   */\n  mload\n    /* \"#utility.yul\":4114:4132   */\n  0xffffffffffffffff\n    /* \"#utility.yul\":4106:4112   */\n  dup2\n    /* \"#utility.yul\":4103:4133   */\n  gt\n    /* \"#utility.yul\":4100:4217   */\n  iszero\n  tag_131\n  jumpi\n    /* \"#utility.yul\":4136:4215   */\n  tag_132\n  tag_50\n  jump\t// in\ntag_132:\n    /* \"#utility.yul\":4100:4217   */\ntag_131:\n    /* \"#utility.yul\":4241:4315   */\n  tag_133\n    /* \"#utility.yul\":4307:4314   */\n  dup8\n    /* \"#utility.yul\":4298:4304   */\n  dup3\n    /* \"#utility.yul\":4287:4296   */\n  dup9\n    /* \"#utility.yul\":4283:4305   */\n  add\n    /* \"#utility.yul\":4241:4315   */\n  tag_60\n  jump\t// in\ntag_133:\n    /* \"#utility.yul\":4231:4315   */\n  swap4\n  pop\n    /* \"#utility.yul\":4033:4325   */\n  pop\n    /* \"#utility.yul\":4364:4366   */\n  0x40\n    /* \"#utility.yul\":4390:4454   */\n  tag_134\n    /* \"#utility.yul\":4446:4453   */\n  dup8\n    /* \"#utility.yul\":4437:4443   */\n  dup3\n    /* \"#utility.yul\":4426:4435   */\n  dup9\n    /* \"#utility.yul\":4422:4444   */\n  add\n    /* \"#utility.yul\":4390:4454   */\n  tag_63\n  jump\t// in\ntag_134:\n    /* \"#utility.yul\":4380:4454   */\n  swap3\n  pop\n    /* \"#utility.yul\":4335:4464   */\n  pop\n    /* \"#utility.yul\":4503:4505   */\n  0x60\n    /* \"#utility.yul\":4529:4591   */\n  tag_135\n    /* \"#utility.yul\":4583:4590   */\n  dup8\n    /* \"#utility.yul\":4574:4580   */\n  dup3\n    /* \"#utility.yul\":4563:4572   */\n  dup9\n    /* \"#utility.yul\":4559:4581   */\n  add\n    /* \"#utility.yul\":4529:4591   */\n  tag_66\n  jump\t// in\ntag_135:\n    /* \"#utility.yul\":4519:4591   */\n  swap2\n  pop\n    /* \"#utility.yul\":4474:4601   */\n  pop\n    /* \"#utility.yul\":3446:4608   */\n  swap3\n  swap6\n  swap2\n  swap5\n  pop\n  swap3\n  pop\n  jump\t// out\n    /* \"#utility.yul\":4614:4794   */\ntag_67:\n    /* \"#utility.yul\":4662:4739   */\n  0x4e487b7100000000000000000000000000000000000000000000000000000000\n    /* \"#utility.yul\":4659:4660   */\n  0x00\n    /* \"#utility.yul\":4652:4740   */\n  mstore\n    /* \"#utility.yul\":4759:4763   */\n  0x11\n    /* \"#utility.yul\":4756:4757   */\n  0x04\n    /* \"#utility.yul\":4749:4764   */\n  mstore\n    /* \"#utility.yul\":4783:4787   */\n  0x24\n    /* \"#utility.yul\":4780:4781   */\n  0x00\n    /* \"#utility.yul\":4773:4788   */\n  revert\n    /* \"#utility.yul\":4800:4902   */\ntag_68:\n    /* \"#utility.yul\":4842:4850   */\n  0x00\n    /* \"#utility.yul\":4889:4894   */\n  dup2\n    /* \"#utility.yul\":4886:4887   */\n  0x01\n    /* \"#utility.yul\":4882:4895   */\n  shr\n    /* \"#utility.yul\":4861:4895   */\n  swap1\n  pop\n    /* \"#utility.yul\":4800:4902   */\n  swap2\n  swap1\n  pop\n  jump\t// out\n    /* \"#utility.yul\":4908:5756   */\ntag_69:\n    /* \"#utility.yul\":4969:4974   */\n  0x00\n    /* \"#utility.yul\":4976:4980   */\n  dup1\n    /* \"#utility.yul\":5000:5006   */\n  dup3\n    /* \"#utility.yul\":4991:5006   */\n  swap2\n  pop\n    /* \"#utility.yul\":5024:5029   */\n  dup4\n    /* \"#utility.yul\":5015:5029   */\n  swap1\n  pop\n    /* \"#utility.yul\":5038:5750   */\ntag_139:\n    /* \"#utility.yul\":5059:5060   */\n  0x01\n    /* \"#utility.yul\":5049:5057   */\n  dup6\n    /* \"#utility.yul\":5046:5061   */\n  gt\n    /* \"#utility.yul\":5038:5750   */\n  iszero\n  tag_141\n  jumpi\n    /* \"#utility.yul\":5154:5158   */\n  dup1\n    /* \"#utility.yul\":5149:5152   */\n  dup7\n    /* \"#utility.yul\":5145:5159   */\n  div\n    /* \"#utility.yul\":5139:5143   */\n  dup2\n    /* \"#utility.yul\":5136:5160   */\n  gt\n    /* \"#utility.yul\":5133:5183   */\n  iszero\n  tag_142\n  jumpi\n    /* \"#utility.yul\":5163:5181   */\n  tag_143\n  tag_67\n  jump\t// in\ntag_143:\n    /* \"#utility.yul\":5133:5183   */\ntag_142:\n    /* \"#utility.yul\":5213:5214   */\n  0x01\n    /* \"#utility.yul\":5203:5211   */\n  dup6\n    /* \"#utility.yul\":5199:5215   */\n  and\n    /* \"#utility.yul\":5196:5647   */\n  iszero\n  tag_144\n  jumpi\n    /* \"#utility.yul\":5628:5632   */\n  dup1\n    /* \"#utility.yul\":5621:5626   */\n  dup3\n    /* \"#utility.yul\":5617:5633   */\n  mul\n    /* \"#utility.yul\":5608:5633   */\n  swap2\n  pop\n    /* \"#utility.yul\":5196:5647   */\ntag_144:\n    /* \"#utility.yul\":5678:5682   */\n  dup1\n    /* \"#utility.yul\":5672:5676   */\n  dup2\n    /* \"#utility.yul\":5668:5683   */\n  mul\n    /* \"#utility.yul\":5660:5683   */\n  swap1\n  pop\n    /* \"#utility.yul\":5708:5740   */\n  tag_145\n    /* \"#utility.yul\":5731:5739   */\n  dup6\n    /* \"#utility.yul\":5708:5740   */\n  tag_68\n  jump\t// in\ntag_145:\n    /* \"#utility.yul\":5696:5740   */\n  swap5\n  pop\n    /* \"#utility.yul\":5038:5750   */\n  jump(tag_139)\ntag_141:\n    /* \"#utility.yul\":4908:5756   */\n  swap5\n  pop\n  swap5\n  swap3\n  pop\n  pop\n  pop\n  jump\t// out\n    /* \"#utility.yul\":5762:6835   */\ntag_70:\n    /* \"#utility.yul\":5816:5821   */\n  0x00\n    /* \"#utility.yul\":6007:6015   */\n  dup3\n    /* \"#utility.yul\":5997:6037   */\n  tag_147\n  jumpi\n    /* \"#utility.yul\":6028:6029   */\n  0x01\n    /* \"#utility.yul\":6019:6029   */\n  swap1\n  pop\n    /* \"#utility.yul\":6030:6035   */\n  jump(tag_146)\n    /* \"#utility.yul\":5997:6037   */\ntag_147:\n    /* \"#utility.yul\":6056:6060   */\n  dup2\n    /* \"#utility.yul\":6046:6082   */\n  tag_148\n  jumpi\n    /* \"#utility.yul\":6073:6074   */\n  0x00\n    /* \"#utility.yul\":6064:6074   */\n  swap1\n  pop\n    /* \"#utility.yul\":6075:6080   */\n  jump(tag_146)\n    /* \"#utility.yul\":6046:6082   */\ntag_148:\n    /* \"#utility.yul\":6142:6146   */\n  dup2\n    /* \"#utility.yul\":6190:6191   */\n  0x01\n    /* \"#utility.yul\":6185:6212   */\n  dup2\n  eq\n  tag_150\n  jumpi\n    /* \"#utility.yul\":6226:6227   */\n  0x02\n    /* \"#utility.yul\":6221:6412   */\n  dup2\n  eq\n  tag_151\n  jumpi\n    /* \"#utility.yul\":6135:6412   */\n  jump(tag_149)\n    /* \"#utility.yul\":6185:6212   */\ntag_150:\n    /* \"#utility.yul\":6203:6204   */\n  0x01\n    /* \"#utility.yul\":6194:6204   */\n  swap2\n  pop\n    /* \"#utility.yul\":6205:6210   */\n  pop\n  jump(tag_146)\n    /* \"#utility.yul\":6221:6412   */\ntag_151:\n    /* \"#utility.yul\":6266:6269   */\n  0xff\n    /* \"#utility.yul\":6256:6264   */\n  dup5\n    /* \"#utility.yul\":6253:6270   */\n  gt\n    /* \"#utility.yul\":6250:6293   */\n  iszero\n  tag_152\n  jumpi\n    /* \"#utility.yul\":6273:6291   */\n  tag_153\n  tag_67\n  jump\t// in\ntag_153:\n    /* \"#utility.yul\":6250:6293   */\ntag_152:\n    /* \"#utility.yul\":6322:6330   */\n  dup4\n    /* \"#utility.yul\":6319:6320   */\n  0x02\n    /* \"#utility.yul\":6315:6331   */\n  exp\n    /* \"#utility.yul\":6306:6331   */\n  swap2\n  pop\n    /* \"#utility.yul\":6357:6360   */\n  dup5\n    /* \"#utility.yul\":6350:6355   */\n  dup3\n    /* \"#utility.yul\":6347:6361   */\n  gt\n    /* \"#utility.yul\":6344:6384   */\n  iszero\n  tag_154\n  jumpi\n    /* \"#utility.yul\":6364:6382   */\n  tag_155\n  tag_67\n  jump\t// in\ntag_155:\n    /* \"#utility.yul\":6344:6384   */\ntag_154:\n    /* \"#utility.yul\":6397:6402   */\n  pop\n  jump(tag_146)\n    /* \"#utility.yul\":6135:6412   */\ntag_149:\n  pop\n    /* \"#utility.yul\":6521:6523   */\n  0x20\n    /* \"#utility.yul\":6511:6519   */\n  dup4\n    /* \"#utility.yul\":6508:6524   */\n  lt\n    /* \"#utility.yul\":6502:6505   */\n  0x0133\n    /* \"#utility.yul\":6496:6500   */\n  dup4\n    /* \"#utility.yul\":6493:6506   */\n  lt\n    /* \"#utility.yul\":6489:6525   */\n  and\n    /* \"#utility.yul\":6471:6473   */\n  0x4e\n    /* \"#utility.yul\":6461:6469   */\n  dup5\n    /* \"#utility.yul\":6458:6474   */\n  lt\n    /* \"#utility.yul\":6453:6455   */\n  0x0b\n    /* \"#utility.yul\":6447:6451   */\n  dup5\n    /* \"#utility.yul\":6444:6456   */\n  lt\n    /* \"#utility.yul\":6440:6475   */\n  and\n    /* \"#utility.yul\":6424:6535   */\n  or\n    /* \"#utility.yul\":6421:6667   */\n  iszero\n  tag_156\n  jumpi\n    /* \"#utility.yul\":6577:6585   */\n  dup3\n    /* \"#utility.yul\":6571:6575   */\n  dup3\n    /* \"#utility.yul\":6567:6586   */\n  exp\n    /* \"#utility.yul\":6558:6586   */\n  swap1\n  pop\n    /* \"#utility.yul\":6612:6615   */\n  dup4\n    /* \"#utility.yul\":6605:6610   */\n  dup2\n    /* \"#utility.yul\":6602:6616   */\n  gt\n    /* \"#utility.yul\":6599:6639   */\n  iszero\n  tag_157\n  jumpi\n    /* \"#utility.yul\":6619:6637   */\n  tag_158\n  tag_67\n  jump\t// in\ntag_158:\n    /* \"#utility.yul\":6599:6639   */\ntag_157:\n    /* \"#utility.yul\":6652:6657   */\n  jump(tag_146)\n    /* \"#utility.yul\":6421:6667   */\ntag_156:\n    /* \"#utility.yul\":6692:6734   */\n  tag_159\n    /* \"#utility.yul\":6730:6733   */\n  dup5\n    /* \"#utility.yul\":6720:6728   */\n  dup5\n    /* \"#utility.yul\":6714:6718   */\n  dup5\n    /* \"#utility.yul\":6711:6712   */\n  0x01\n    /* \"#utility.yul\":6692:6734   */\n  tag_69\n  jump\t// in\ntag_159:\n    /* \"#utility.yul\":6677:6734   */\n  swap3\n  pop\n  swap1\n  pop\n    /* \"#utility.yul\":6766:6770   */\n  dup2\n    /* \"#utility.yul\":6761:6764   */\n  dup5\n    /* \"#utility.yul\":6757:6771   */\n  div\n    /* \"#utility.yul\":6750:6755   */\n  dup2\n    /* \"#utility.yul\":6747:6772   */\n  gt\n    /* \"#utility.yul\":6744:6795   */\n  iszero\n  tag_160\n  jumpi\n    /* \"#utility.yul\":6775:6793   */\n  tag_161\n  tag_67\n  jump\t// in\ntag_161:\n    /* \"#utility.yul\":6744:6795   */\ntag_160:\n    /* \"#utility.yul\":6824:6828   */\n  dup2\n    /* \"#utility.yul\":6817:6822   */\n  dup2\n    /* \"#utility.yul\":6813:6829   */\n  mul\n    /* \"#utility.yul\":6804:6829   */\n  swap1\n  pop\n    /* \"#utility.yul\":5762:6835   */\ntag_146:\n  swap4\n  swap3\n  pop\n  pop\n  pop\n  jump\t// out\n    /* \"#utility.yul\":6841:7122   */\ntag_12:\n    /* \"#utility.yul\":6899:6904   */\n  0x00\n    /* \"#utility.yul\":6923:6946   */\n  tag_163\n    /* \"#utility.yul\":6941:6945   */\n  dup3\n    /* \"#utility.yul\":6923:6946   */\n  tag_61\n  jump\t// in\ntag_163:\n    /* \"#utility.yul\":6915:6946   */\n  swap2\n  pop\n    /* \"#utility.yul\":6967:6992   */\n  tag_164\n    /* \"#utility.yul\":6983:6991   */\n  dup4\n    /* \"#utility.yul\":6967:6992   */\n  tag_64\n  jump\t// in\ntag_164:\n    /* \"#utility.yul\":6955:6992   */\n  swap3\n  pop\n    /* \"#utility.yul\":7011:7115   */\n  tag_165\n    /* \"#utility.yul\":7048:7114   */\n  0xffffffffffffffffffffffffffffffffffffffffffffffffffffffffffffffff\n    /* \"#utility.yul\":7038:7046   */\n  dup5\n    /* \"#utility.yul\":7032:7036   */\n  dup5\n    /* \"#utility.yul\":7011:7115   */\n  tag_70\n  jump\t// in\ntag_165:\n    /* \"#utility.yul\":7002:7115   */\n  swap1\n  pop\n    /* \"#utility.yul\":6841:7122   */\n  swap3\n  swap2\n  pop\n  pop\n  jump\t// out\n    /* \"#utility.yul\":7128:7254   */\ntag_71:\n    /* \"#utility.yul\":7165:7172   */\n  0x00\n    /* \"#utility.yul\":7205:7247   */\n  0xffffffffffffffffffffffffffffffffffffffff\n    /* \"#utility.yul\":7198:7203   */\n  dup3\n    /* \"#utility.yul\":7194:7248   */\n  and\n    /* \"#utility.yul\":7183:7248   */\n  swap1\n  pop\n    /* \"#utility.yul\":7128:7254   */\n  swap2\n  swap1\n  pop\n  jump\t// out\n    /* \"#utility.yul\":7260:7356   */\ntag_72:\n    /* \"#utility.yul\":7297:7304   */\n  0x00\n    /* \"#utility.yul\":7326:7350   */\n  tag_168\n    /* \"#utility.yul\":7344:7349   */\n  dup3\n    /* \"#utility.yul\":7326:7350   */\n  tag_71\n  jump\t// in\ntag_168:\n    /* \"#utility.yul\":7315:7350   */\n  swap1\n  pop\n    /* \"#utility.yul\":7260:7356   */\n  swap2\n  swap1\n  pop\n  jump\t// out\n    /* \"#utility.yul\":7362:7480   */\ntag_73:\n    /* \"#utility.yul\":7449:7473   */\n  tag_170\n    /* \"#utility.yul\":7467:7472   */\n  dup2\n    /* \"#utility.yul\":7449:7473   */\n  tag_72\n  jump\t// in\ntag_170:\n    /* \"#utility.yul\":7444:7447   */\n  dup3\n    /* \"#utility.yul\":7437:7474   */\n  mstore\n    /* \"#utility.yul\":7362:7480   */\n  pop\n  pop\n  jump\t// out\n    /* \"#utility.yul\":7486:7604   */\ntag_74:\n    /* \"#utility.yul\":7573:7597   */\n  tag_172\n    /* \"#utility.yul\":7591:7596   */\n  dup2\n    /* \"#utility.yul\":7573:7597   */\n  tag_61\n  jump\t// in\ntag_172:\n    /* \"#utility.yul\":7568:7571   */\n  dup3\n    /* \"#utility.yul\":7561:7598   */\n  mstore\n    /* \"#utility.yul\":7486:7604   */\n  pop\n  pop\n  jump\t// out\n    /* \"#utility.yul\":7610:7942   */\ntag_18:\n    /* \"#utility.yul\":7731:7735   */\n  0x00\n    /* \"#utility.yul\":7769:7771   */\n  0x40\n    /* \"#utility.yul\":7758:7767   */\n  dup3\n    /* \"#utility.yul\":7754:7772   */\n  add\n    /* \"#utility.yul\":7746:7772   */\n  swap1\n  pop\n    /* \"#utility.yul\":7782:7853   */\n  tag_174\n    /* \"#utility.yul\":7850:7851   */\n  0x00\n    /* \"#utility.yul\":7839:7848   */\n  dup4\n    /* \"#utility.yul\":7835:7852   */\n  add\n    /* \"#utility.yul\":7826:7832   */\n  dup6\n    /* \"#utility.yul\":7782:7853   */\n  tag_73\n  jump\t// in\ntag_174:\n    /* \"#utility.yul\":7863:7935   */\n  tag_175\n    /* \"#utility.yul\":7931:7933   */\n  0x20\n    /* \"#utility.yul\":7920:7929   */\n  dup4\n    /* \"#utility.yul\":7916:7934   */\n  add\n    /* \"#utility.yul\":7907:7913   */\n  dup5\n    /* \"#utility.yul\":7863:7935   */\n  tag_74\n  jump\t// in\ntag_175:\n    /* \"#utility.yul\":7610:7942   */\n  swap4\n  swap3\n  pop\n  pop\n  pop\n  jump\t// out\n    /* \"#utility.yul\":7948:8117   */\ntag_75:\n    /* \"#utility.yul\":8032:8043   */\n  0x00\n    /* \"#utility.yul\":8066:8072   */\n  dup3\n    /* \"#utility.yul\":8061:8064   */\n  dup3\n    /* \"#utility.yul\":8054:8073   */\n  mstore\n    /* \"#utility.yul\":8106:8110   */\n  0x20\n    /* \"#utility.yul\":8101:8104   */\n  dup3\n    /* \"#utility.yul\":8097:8111   */\n  add\n    /* \"#utility.yul\":8082:8111   */\n  swap1\n  pop\n    /* \"#utility.yul\":7948:8117   */\n  swap3\n  swap2\n  pop\n  pop\n  jump\t// out\n    /* \"#utility.yul\":8123:8304   */\ntag_76:\n    /* \"#utility.yul\":8263:8296   */\n  0x45524332303a206d696e7420746f20746865207a65726f206164647265737300\n    /* \"#utility.yul\":8259:8260   */\n  0x00\n    /* \"#utility.yul\":8251:8257   */\n  dup3\n    /* \"#utility.yul\":8247:8261   */\n  add\n    /* \"#utility.yul\":8240:8297   */\n  mstore\n    /* \"#utility.yul\":8123:8304   */\n  pop\n  jump\t// out\n    /* \"#utility.yul\":8310:8676   */\ntag_77:\n    /* \"#utility.yul\":8452:8455   */\n  0x00\n    /* \"#utility.yul\":8473:8540   */\n  tag_179\n    /* \"#utility.yul\":8537:8539   */\n  0x1f\n    /* \"#utility.yul\":8532:8535   */\n  dup4\n    /* \"#utility.yul\":8473:8540   */\n  tag_75\n  jump\t// in\ntag_179:\n    /* \"#utility.yul\":8466:8540   */\n  swap2\n  pop\n    /* \"#utility.yul\":8549:8642   */\n  tag_180\n    /* \"#utility.yul\":8638:8641   */\n  dup3\n    /* \"#utility.yul\":8549:8642   */\n  tag_76\n  jump\t// in\ntag_180:\n    /* \"#utility.yul\":8667:8669   */\n  0x20\n    /* \"#utility.yul\":8662:8665   */\n  dup3\n    /* \"#utility.yul\":8658:8670   */\n  add\n    /* \"#utility.yul\":8651:8670   */\n  swap1\n  pop\n    /* \"#utility.yul\":8310:8676   */\n  swap2\n  swap1\n  pop\n  jump\t// out\n    /* \"#utility.yul\":8682:9101   */\ntag_25:\n    /* \"#utility.yul\":8848:8852   */\n  0x00\n    /* \"#utility.yul\":8886:8888   */\n  0x20\n    /* \"#utility.yul\":8875:8884   */\n  dup3\n    /* \"#utility.yul\":8871:8889   */\n  add\n    /* \"#utility.yul\":8863:8889   */\n  swap1\n  pop\n    /* \"#utility.yul\":8935:8944   */\n  dup2\n    /* \"#utility.yul\":8929:8933   */\n  dup2\n    /* \"#utility.yul\":8925:8945   */\n  sub\n    /* \"#utility.yul\":8921:8922   */\n  0x00\n    /* \"#utility.yul\":8910:8919   */\n  dup4\n    /* \"#utility.yul\":8906:8923   */\n  add\n    /* \"#utility.yul\":8899:8946   */\n  mstore\n    /* \"#utility.yul\":8963:9094   */\n  tag_182\n    /* \"#utility.yul\":9089:9093   */\n  dup2\n    /* \"#utility.yul\":8963:9094   */\n  tag_77\n  jump\t// in\ntag_182:\n    /* \"#utility.yul\":8955:9094   */\n  swap1\n  pop\n    /* \"#utility.yul\":8682:9101   */\n  swap2\n  swap1\n  pop\n  jump\t// out\n    /* \"#utility.yul\":9107:9412   */\ntag_29:\n    /* \"#utility.yul\":9147:9150   */\n  0x00\n    /* \"#utility.yul\":9166:9186   */\n  tag_184\n    /* \"#utility.yul\":9184:9185   */\n  dup3\n    /* \"#utility.yul\":9166:9186   */\n  tag_61\n  jump\t// in\ntag_184:\n    /* \"#utility.yul\":9161:9186   */\n  swap2\n  pop\n    /* \"#utility.yul\":9200:9220   */\n  tag_185\n    /* \"#utility.yul\":9218:9219   */\n  dup4\n    /* \"#utility.yul\":9200:9220   */\n  tag_61\n  jump\t// in\ntag_185:\n    /* \"#utility.yul\":9195:9220   */\n  swap3\n  pop\n    /* \"#utility.yul\":9354:9355   */\n  dup3\n    /* \"#utility.yul\":9286:9352   */\n  0xffffffffffffffffffffffffffffffffffffffffffffffffffffffffffffffff\n    /* \"#utility.yul\":9282:9356   */\n  sub\n    /* \"#utility.yul\":9279:9280   */\n  dup3\n    /* \"#utility.yul\":9276:9357   */\n  gt\n    /* \"#utility.yul\":9273:9380   */\n  iszero\n  tag_186\n  jumpi\n    /* \"#utility.yul\":9360:9378   */\n  tag_187\n  tag_67\n  jump\t// in\ntag_187:\n    /* \"#utility.yul\":9273:9380   */\ntag_186:\n    /* \"#utility.yul\":9404:9405   */\n  dup3\n    /* \"#utility.yul\":9401:9402   */\n  dup3\n    /* \"#utility.yul\":9397:9406   */\n  add\n    /* \"#utility.yul\":9390:9406   */\n  swap1\n  pop\n    /* \"#utility.yul\":9107:9412   */\n  swap3\n  swap2\n  pop\n  pop\n  jump\t// out\n    /* \"#utility.yul\":9418:9640   */\ntag_32:\n    /* \"#utility.yul\":9511:9515   */\n  0x00\n    /* \"#utility.yul\":9549:9551   */\n  0x20\n    /* \"#utility.yul\":9538:9547   */\n  dup3\n    /* \"#utility.yul\":9534:9552   */\n  add\n    /* \"#utility.yul\":9526:9552   */\n  swap1\n  pop\n    /* \"#utility.yul\":9562:9633   */\n  tag_189\n    /* \"#utility.yul\":9630:9631   */\n  0x00\n    /* \"#utility.yul\":9619:9628   */\n  dup4\n    /* \"#utility.yul\":9615:9632   */\n  add\n    /* \"#utility.yul\":9606:9612   */\n  dup5\n    /* \"#utility.yul\":9562:9633   */\n  tag_74\n  jump\t// in\ntag_189:\n    /* \"#utility.yul\":9418:9640   */\n  swap3\n  swap2\n  pop\n  pop\n  jump\t// out\n    /* \"#utility.yul\":9646:9826   */\ntag_78:\n    /* \"#utility.yul\":9694:9771   */\n  0x4e487b7100000000000000000000000000000000000000000000000000000000\n    /* \"#utility.yul\":9691:9692   */\n  0x00\n    /* \"#utility.yul\":9684:9772   */\n  mstore\n    /* \"#utility.yul\":9791:9795   */\n  0x22\n    /* \"#utility.yul\":9788:9789   */\n  0x04\n    /* \"#utility.yul\":9781:9796   */\n  mstore\n    /* \"#utility.yul\":9815:9819   */\n  0x24\n    /* \"#utility.yul\":9812:9813   */\n  0x00\n    /* \"#utility.yul\":9805:9820   */\n  revert\n    /* \"#utility.yul\":9832:10152   */\ntag_38:\n    /* \"#utility.yul\":9876:9882   */\n  0x00\n    /* \"#utility.yul\":9913:9914   */\n  0x02\n    /* \"#utility.yul\":9907:9911   */\n  dup3\n    /* \"#utility.yul\":9903:9915   */\n  div\n    /* \"#utility.yul\":9893:9915   */\n  swap1\n  pop\n    /* \"#utility.yul\":9960:9961   */\n  0x01\n    /* \"#utility.yul\":9954:9958   */\n  dup3\n    /* \"#utility.yul\":9950:9962   */\n  and\n    /* \"#utility.yul\":9981:9999   */\n  dup1\n    /* \"#utility.yul\":9971:10052   */\n  tag_192\n  jumpi\n    /* \"#utility.yul\":10037:10041   */\n  0x7f\n    /* \"#utility.yul\":10029:10035   */\n  dup3\n    /* \"#utility.yul\":10025:10042   */\n  and\n    /* \"#utility.yul\":10015:10042   */\n  swap2\n  pop\n    /* \"#utility.yul\":9971:10052   */\ntag_192:\n    /* \"#utility.yul\":10099:10101   */\n  0x20\n    /* \"#utility.yul\":10091:10097   */\n  dup3\n    /* \"#utility.yul\":10088:10102   */\n  lt\n    /* \"#utility.yul\":10068:10086   */\n  dup2\n    /* \"#utility.yul\":10065:10103   */\n  sub\n    /* \"#utility.yul\":10062:10146   */\n  tag_193\n  jumpi\n    /* \"#utility.yul\":10118:10136   */\n  tag_194\n  tag_78\n  jump\t// in\ntag_194:\n    /* \"#utility.yul\":10062:10146   */\ntag_193:\n    /* \"#utility.yul\":9883:10152   */\n  pop\n    /* \"#utility.yul\":9832:10152   */\n  swap2\n  swap1\n  pop\n  jump\t// out\n    /* \"Documents/GitHub/XRC-20Plus/contracts/XRC20Plus.sol\":2259:6170  contract Plus is ERC20, Plus_Interface {... */\ntag_21:\n  dataSize(sub_0)\n  dup1\n  dataOffset(sub_0)\n  0x00\n  codecopy\n  0x00\n  return\nstop\n\nsub_0: assembly {\n        /* \"Documents/GitHub/XRC-20Plus/contracts/XRC20Plus.sol\":2259:6170  contract Plus is ERC20, Plus_Interface {... */\n      mstore(0x40, 0x80)\n      jumpi(tag_1, lt(calldatasize, 0x04))\n      shr(0xe0, calldataload(0x00))\n      dup1\n      0x70a08231\n      gt\n      tag_22\n      jumpi\n      dup1\n      0xa457c2d7\n      gt\n      tag_23\n      jumpi\n      dup1\n      0xa457c2d7\n      eq\n      tag_17\n      jumpi\n      dup1\n      0xa9059cbb\n      eq\n      tag_18\n      jumpi\n      dup1\n      0xadd1603e\n      eq\n      tag_19\n      jumpi\n      dup1\n      0xd95402e7\n      eq\n      tag_20\n      jumpi\n      dup1\n      0xdd62ed3e\n      eq\n      tag_21\n      jumpi\n      jump(tag_2)\n    tag_23:\n      dup1\n      0x70a08231\n      eq\n      tag_12\n      jumpi\n      dup1\n      0x8ac8bbca\n      eq\n      tag_13\n      jumpi\n      dup1\n      0x948dec44\n      eq\n      tag_14\n      jumpi\n      dup1\n      0x95d89b41\n      eq\n      tag_15\n      jumpi\n      dup1\n      0x9a29e6aa\n      eq\n      tag_16\n      jumpi\n      jump(tag_2)\n    tag_22:\n      dup1\n      0x18160ddd\n      gt\n      tag_24\n      jumpi\n      dup1\n      0x18160ddd\n      eq\n      tag_7\n      jumpi\n      dup1\n      0x23b872dd\n      eq\n      tag_8\n      jumpi\n      dup1\n      0x313ce567\n      eq\n      tag_9\n      jumpi\n      dup1\n      0x39509351\n      eq\n      tag_10\n      jumpi\n      dup1\n      0x5e5c06e2\n      eq\n      tag_11\n      jumpi\n      jump(tag_2)\n    tag_24:\n      dup1\n      0x06fdde03\n      eq\n      tag_3\n      jumpi\n      dup1\n      0x095ea7b3\n      eq\n      tag_4\n      jumpi\n      dup1\n      0x0ef67887\n      eq\n      tag_5\n      jumpi\n      dup1\n      0x10a7fd7b\n      eq\n      tag_6\n      jumpi\n      jump(tag_2)\n    tag_1:\n      jumpi(tag_2, calldatasize)\n      stop\n    tag_2:\n        /* \"Documents/GitHub/XRC-20Plus/contracts/XRC20Plus.sol\":6053:6054  0 */\n      0x00\n        /* \"Documents/GitHub/XRC-20Plus/contracts/XRC20Plus.sol\":6043:6052  msg.value */\n      callvalue\n        /* \"Documents/GitHub/XRC-20Plus/contracts/XRC20Plus.sol\":6043:6054  msg.value>0 */\n      gt\n        /* \"Documents/GitHub/XRC-20Plus/contracts/XRC20Plus.sol\":6040:6122  if(msg.value>0){... */\n      iszero\n      tag_29\n      jumpi\n        /* \"Documents/GitHub/XRC-20Plus/contracts/XRC20Plus.sol\":6085:6089  this */\n      address\n        /* \"Documents/GitHub/XRC-20Plus/contracts/XRC20Plus.sol\":6069:6100  payable(address(this)).transfer */\n      0xffffffffffffffffffffffffffffffffffffffff\n      and\n        /* \"Documents/GitHub/XRC-20Plus/contracts/XRC20Plus.sol\":6069:6111  payable(address(this)).transfer(msg.value) */\n      0x08fc\n        /* \"Documents/GitHub/XRC-20Plus/contracts/XRC20Plus.sol\":6101:6110  msg.value */\n      callvalue\n        /* \"Documents/GitHub/XRC-20Plus/contracts/XRC20Plus.sol\":6069:6111  payable(address(this)).transfer(msg.value) */\n      swap1\n      dup2\n      iszero\n      mul\n      swap1\n      mload(0x40)\n      0x00\n      mload(0x40)\n      dup1\n      dup4\n      sub\n      dup2\n      dup6\n      dup9\n      dup9\n      call\n      swap4\n      pop\n      pop\n      pop\n      pop\n      iszero\n      dup1\n      iszero\n      tag_31\n      jumpi\n      returndatasize\n      0x00\n      dup1\n      returndatacopy\n      revert(0x00, returndatasize)\n    tag_31:\n      pop\n        /* \"Documents/GitHub/XRC-20Plus/contracts/XRC20Plus.sol\":6040:6122  if(msg.value>0){... */\n    tag_29:\n        /* \"Documents/GitHub/XRC-20Plus/contracts/XRC20Plus.sol\":2259:6170  contract Plus is ERC20, Plus_Interface {... */\n      stop\n        /* \"@openzeppelin/contracts/token/ERC20/ERC20.sol\":2141:2239  function name() public view virtual override returns (string memory) {... */\n    tag_3:\n      callvalue\n      dup1\n      iszero\n      tag_32\n      jumpi\n      0x00\n      dup1\n      revert\n    tag_32:\n      pop\n      tag_33\n      tag_34\n      jump\t// in\n    tag_33:\n      mload(0x40)\n      tag_35\n      swap2\n      swap1\n      tag_36\n      jump\t// in\n    tag_35:\n      mload(0x40)\n      dup1\n      swap2\n      sub\n      swap1\n      return\n        /* \"@openzeppelin/contracts/token/ERC20/ERC20.sol\":4238:4404  function approve(address spender, uint256 amount) public virtual override returns (bool) {... */\n    tag_4:\n      callvalue\n      dup1\n      iszero\n      tag_37\n      jumpi\n      0x00\n      dup1\n      revert\n    tag_37:\n      pop\n      tag_38\n      0x04\n      dup1\n      calldatasize\n      sub\n      dup2\n      add\n      swap1\n      tag_39\n      swap2\n      swap1\n      tag_40\n      jump\t// in\n    tag_39:\n      tag_41\n      jump\t// in\n    tag_38:\n      mload(0x40)\n      tag_42\n      swap2\n      swap1\n      tag_43\n      jump\t// in\n    tag_42:\n      mload(0x40)\n      dup1\n      swap2\n      sub\n      swap1\n      return\n        /* \"Documents/GitHub/XRC-20Plus/contracts/XRC20Plus.sol\":4204:4297  function Balance() public view returns(uint256) {... */\n    tag_5:\n      callvalue\n      dup1\n      iszero\n      tag_44\n      jumpi\n      0x00\n      dup1\n      revert\n    tag_44:\n      pop\n      tag_45\n      tag_46\n      jump\t// in\n    tag_45:\n      mload(0x40)\n      tag_47\n      swap2\n      swap1\n      tag_48\n      jump\t// in\n    tag_47:\n      mload(0x40)\n      dup1\n      swap2\n      sub\n      swap1\n      return\n        /* \"Documents/GitHub/XRC-20Plus/contracts/XRC20Plus.sol\":2625:2669  mapping (uint => micro_ledger) public ledger */\n    tag_6:\n      callvalue\n      dup1\n      iszero\n      tag_49\n      jumpi\n      0x00\n      dup1\n      revert\n    tag_49:\n      pop\n      tag_50\n      0x04\n      dup1\n      calldatasize\n      sub\n      dup2\n      add\n      swap1\n      tag_51\n      swap2\n      swap1\n      tag_52\n      jump\t// in\n    tag_51:\n      tag_53\n      jump\t// in\n    tag_50:\n      mload(0x40)\n      tag_54\n      swap3\n      swap2\n      swap1\n      tag_55\n      jump\t// in\n    tag_54:\n      mload(0x40)\n      dup1\n      swap2\n      sub\n      swap1\n      return\n        /* \"@openzeppelin/contracts/token/ERC20/ERC20.sol\":3229:3335  function totalSupply() public view virtual override returns (uint256) {... */\n    tag_7:\n      callvalue\n      dup1\n      iszero\n      tag_56\n      jumpi\n      0x00\n      dup1\n      revert\n    tag_56:\n      pop\n      tag_57\n      tag_58\n      jump\t// in\n    tag_57:\n      mload(0x40)\n      tag_59\n      swap2\n      swap1\n      tag_48\n      jump\t// in\n    tag_59:\n      mload(0x40)\n      dup1\n      swap2\n      sub\n      swap1\n      return\n        /* \"@openzeppelin/contracts/token/ERC20/ERC20.sol\":4871:5349  function transferFrom(... */\n    tag_8:\n      callvalue\n      dup1\n      iszero\n      tag_60\n      jumpi\n      0x00\n      dup1\n      revert\n    tag_60:\n      pop\n      tag_61\n      0x04\n      dup1\n      calldatasize\n      sub\n      dup2\n      add\n      swap1\n      tag_62\n      swap2\n      swap1\n      tag_63\n      jump\t// in\n    tag_62:\n      tag_64\n      jump\t// in\n    tag_61:\n      mload(0x40)\n      tag_65\n      swap2\n      swap1\n      tag_43\n      jump\t// in\n    tag_65:\n      mload(0x40)\n      dup1\n      swap2\n      sub\n      swap1\n      return\n        /* \"@openzeppelin/contracts/token/ERC20/ERC20.sol\":3078:3169  function decimals() public view virtual override returns (uint8) {... */\n    tag_9:\n      callvalue\n      dup1\n      iszero\n      tag_66\n      jumpi\n      0x00\n      dup1\n      revert\n    tag_66:\n      pop\n      tag_67\n      tag_68\n      jump\t// in\n    tag_67:\n      mload(0x40)\n      tag_69\n      swap2\n      swap1\n      tag_70\n      jump\t// in\n    tag_69:\n      mload(0x40)\n      dup1\n      swap2\n      sub\n      swap1\n      return\n        /* \"@openzeppelin/contracts/token/ERC20/ERC20.sol\":5744:5956  function increaseAllowance(address spender, uint256 addedValue) public virtual returns (bool) {... */\n    tag_10:\n      callvalue\n      dup1\n      iszero\n      tag_71\n      jumpi\n      0x00\n      dup1\n      revert\n    tag_71:\n      pop\n      tag_72\n      0x04\n      dup1\n      calldatasize\n      sub\n      dup2\n      add\n      swap1\n      tag_73\n      swap2\n      swap1\n      tag_40\n      jump\t// in\n    tag_73:\n      tag_74\n      jump\t// in\n    tag_72:\n      mload(0x40)\n      tag_75\n      swap2\n      swap1\n      tag_43\n      jump\t// in\n    tag_75:\n      mload(0x40)\n      dup1\n      swap2\n      sub\n      swap1\n      return\n        /* \"Documents/GitHub/XRC-20Plus/contracts/XRC20Plus.sol\":2574:2619  mapping (address => Accounts) public accounts */\n    tag_11:\n      callvalue\n      dup1\n      iszero\n      tag_76\n      jumpi\n      0x00\n      dup1\n      revert\n    tag_76:\n      pop\n      tag_77\n      0x04\n      dup1\n      calldatasize\n      sub\n      dup2\n      add\n      swap1\n      tag_78\n      swap2\n      swap1\n      tag_79\n      jump\t// in\n    tag_78:\n      tag_80\n      jump\t// in\n    tag_77:\n      mload(0x40)\n      tag_81\n      swap3\n      swap2\n      swap1\n      tag_82\n      jump\t// in\n    tag_81:\n      mload(0x40)\n      dup1\n      swap2\n      sub\n      swap1\n      return\n        /* \"@openzeppelin/contracts/token/ERC20/ERC20.sol\":3393:3518  function balanceOf(address account) public view virtual override returns (uint256) {... */\n    tag_12:\n      callvalue\n      dup1\n      iszero\n      tag_83\n      jumpi\n      0x00\n      dup1\n      revert\n    tag_83:\n      pop\n      tag_84\n      0x04\n      dup1\n      calldatasize\n      sub\n      dup2\n      add\n      swap1\n      tag_85\n      swap2\n      swap1\n      tag_79\n      jump\t// in\n    tag_85:\n      tag_86\n      jump\t// in\n    tag_84:\n      mload(0x40)\n      tag_87\n      swap2\n      swap1\n      tag_48\n      jump\t// in\n    tag_87:\n      mload(0x40)\n      dup1\n      swap2\n      sub\n      swap1\n      return\n        /* \"Documents/GitHub/XRC-20Plus/contracts/XRC20Plus.sol\":3996:4171  function View_Account() public view returns(uint){... */\n    tag_13:\n      callvalue\n      dup1\n      iszero\n      tag_88\n      jumpi\n      0x00\n      dup1\n      revert\n    tag_88:\n      pop\n      tag_89\n      tag_90\n      jump\t// in\n    tag_89:\n      mload(0x40)\n      tag_91\n      swap2\n      swap1\n      tag_48\n      jump\t// in\n    tag_91:\n      mload(0x40)\n      dup1\n      swap2\n      sub\n      swap1\n      return\n        /* \"Documents/GitHub/XRC-20Plus/contracts/XRC20Plus.sol\":3656:3948  function Register_Account() public returns(bool){... */\n    tag_14:\n      callvalue\n      dup1\n      iszero\n      tag_92\n      jumpi\n      0x00\n      dup1\n      revert\n    tag_92:\n      pop\n      tag_93\n      tag_94\n      jump\t// in\n    tag_93:\n      mload(0x40)\n      tag_95\n      swap2\n      swap1\n      tag_43\n      jump\t// in\n    tag_95:\n      mload(0x40)\n      dup1\n      swap2\n      sub\n      swap1\n      return\n        /* \"@openzeppelin/contracts/token/ERC20/ERC20.sol\":2352:2454  function symbol() public view virtual override returns (string memory) {... */\n    tag_15:\n      callvalue\n      dup1\n      iszero\n      tag_96\n      jumpi\n      0x00\n      dup1\n      revert\n    tag_96:\n      pop\n      tag_97\n      tag_98\n      jump\t// in\n    tag_97:\n      mload(0x40)\n      tag_99\n      swap2\n      swap1\n      tag_36\n      jump\t// in\n    tag_99:\n      mload(0x40)\n      dup1\n      swap2\n      sub\n      swap1\n      return\n        /* \"Documents/GitHub/XRC-20Plus/contracts/XRC20Plus.sol\":4368:5204  function Accept_From_CoinBank(uint _singleShard)public payable CoinBankOnly{... */\n    tag_16:\n      tag_100\n      0x04\n      dup1\n      calldatasize\n      sub\n      dup2\n      add\n      swap1\n      tag_101\n      swap2\n      swap1\n      tag_52\n      jump\t// in\n    tag_101:\n      tag_102\n      jump\t// in\n    tag_100:\n      stop\n        /* \"@openzeppelin/contracts/token/ERC20/ERC20.sol\":6443:6848  function decreaseAllowance(address spender, uint256 subtractedValue) public virtual returns (bool) {... */\n    tag_17:\n      callvalue\n      dup1\n      iszero\n      tag_103\n      jumpi\n      0x00\n      dup1\n      revert\n    tag_103:\n      pop\n      tag_104\n      0x04\n      dup1\n      calldatasize\n      sub\n      dup2\n      add\n      swap1\n      tag_105\n      swap2\n      swap1\n      tag_40\n      jump\t// in\n    tag_105:\n      tag_106\n      jump\t// in\n    tag_104:\n      mload(0x40)\n      tag_107\n      swap2\n      swap1\n      tag_43\n      jump\t// in\n    tag_107:\n      mload(0x40)\n      dup1\n      swap2\n      sub\n      swap1\n      return\n        /* \"@openzeppelin/contracts/token/ERC20/ERC20.sol\":3721:3893  function transfer(address recipient, uint256 amount) public virtual override returns (bool) {... */\n    tag_18:\n      callvalue\n      dup1\n      iszero\n      tag_108\n      jumpi\n      0x00\n      dup1\n      revert\n    tag_108:\n      pop\n      tag_109\n      0x04\n      dup1\n      calldatasize\n      sub\n      dup2\n      add\n      swap1\n      tag_110\n      swap2\n      swap1\n      tag_40\n      jump\t// in\n    tag_110:\n      tag_111\n      jump\t// in\n    tag_109:\n      mload(0x40)\n      tag_112\n      swap2\n      swap1\n      tag_43\n      jump\t// in\n    tag_112:\n      mload(0x40)\n      dup1\n      swap2\n      sub\n      swap1\n      return\n        /* \"Documents/GitHub/XRC-20Plus/contracts/XRC20Plus.sol\":2704:2739  CoinBank[] public CoinBank_Contract */\n    tag_19:\n      callvalue\n      dup1\n      iszero\n      tag_113\n      jumpi\n      0x00\n      dup1\n      revert\n    tag_113:\n      pop\n      tag_114\n      0x04\n      dup1\n      calldatasize\n      sub\n      dup2\n      add\n      swap1\n      tag_115\n      swap2\n      swap1\n      tag_52\n      jump\t// in\n    tag_115:\n      tag_116\n      jump\t// in\n    tag_114:\n      mload(0x40)\n      tag_117\n      swap2\n      swap1\n      tag_118\n      jump\t// in\n    tag_117:\n      mload(0x40)\n      dup1\n      swap2\n      sub\n      swap1\n      return\n        /* \"Documents/GitHub/XRC-20Plus/contracts/XRC20Plus.sol\":5686:5997  function Redeem()public returns(bool){... */\n    tag_20:\n      callvalue\n      dup1\n      iszero\n      tag_119\n      jumpi\n      0x00\n      dup1\n      revert\n    tag_119:\n      pop\n      tag_120\n      tag_121\n      jump\t// in\n    tag_120:\n      mload(0x40)\n      tag_122\n      swap2\n      swap1\n      tag_43\n      jump\t// in\n    tag_122:\n      mload(0x40)\n      dup1\n      swap2\n      sub\n      swap1\n      return\n        /* \"@openzeppelin/contracts/token/ERC20/ERC20.sol\":3951:4100  function allowance(address owner, address spender) public view virtual override returns (uint256) {... */\n    tag_21:\n      callvalue\n      dup1\n      iszero\n      tag_123\n      jumpi\n      0x00\n      dup1\n      revert\n    tag_123:\n      pop\n      tag_124\n      0x04\n      dup1\n      calldatasize\n      sub\n      dup2\n      add\n      swap1\n      tag_125\n      swap2\n      swap1\n      tag_126\n      jump\t// in\n    tag_125:\n      tag_127\n      jump\t// in\n    tag_124:\n      mload(0x40)\n      tag_128\n      swap2\n      swap1\n      tag_48\n      jump\t// in\n    tag_128:\n      mload(0x40)\n      dup1\n      swap2\n      sub\n      swap1\n      return\n        /* \"@openzeppelin/contracts/token/ERC20/ERC20.sol\":2141:2239  function name() public view virtual override returns (string memory) {... */\n    tag_34:\n        /* \"@openzeppelin/contracts/token/ERC20/ERC20.sol\":2195:2208  string memory */\n      0x60\n        /* \"@openzeppelin/contracts/token/ERC20/ERC20.sol\":2227:2232  _name */\n      0x03\n        /* \"@openzeppelin/contracts/token/ERC20/ERC20.sol\":2220:2232  return _name */\n      dup1\n      sload\n      tag_130\n      swap1\n      tag_131\n      jump\t// in\n    tag_130:\n      dup1\n      0x1f\n      add\n      0x20\n      dup1\n      swap2\n      div\n      mul\n      0x20\n      add\n      mload(0x40)\n      swap1\n      dup2\n      add\n      0x40\n      mstore\n      dup1\n      swap3\n      swap2\n      swap1\n      dup2\n      dup2\n      mstore\n      0x20\n      add\n      dup3\n      dup1\n      sload\n      tag_132\n      swap1\n      tag_131\n      jump\t// in\n    tag_132:\n      dup1\n      iszero\n      tag_133\n      jumpi\n      dup1\n      0x1f\n      lt\n      tag_134\n      jumpi\n      0x0100\n      dup1\n      dup4\n      sload\n      div\n      mul\n      dup4\n      mstore\n      swap2\n      0x20\n      add\n      swap2\n      jump(tag_133)\n    tag_134:\n      dup3\n      add\n      swap2\n      swap1\n      0x00\n      mstore\n      keccak256(0x00, 0x20)\n      swap1\n    tag_135:\n      dup2\n      sload\n      dup2\n      mstore\n      swap1\n      0x01\n      add\n      swap1\n      0x20\n      add\n      dup1\n      dup4\n      gt\n      tag_135\n      jumpi\n      dup3\n      swap1\n      sub\n      0x1f\n      and\n      dup3\n      add\n      swap2\n    tag_133:\n      pop\n      pop\n      pop\n      pop\n      pop\n      swap1\n      pop\n        /* \"@openzeppelin/contracts/token/ERC20/ERC20.sol\":2141:2239  function name() public view virtual override returns (string memory) {... */\n      swap1\n      jump\t// out\n        /* \"@openzeppelin/contracts/token/ERC20/ERC20.sol\":4238:4404  function approve(address spender, uint256 amount) public virtual override returns (bool) {... */\n    tag_41:\n        /* \"@openzeppelin/contracts/token/ERC20/ERC20.sol\":4321:4325  bool */\n      0x00\n        /* \"@openzeppelin/contracts/token/ERC20/ERC20.sol\":4337:4376  _approve(_msgSender(), spender, amount) */\n      tag_137\n        /* \"@openzeppelin/contracts/token/ERC20/ERC20.sol\":4346:4358  _msgSender() */\n      tag_138\n        /* \"@openzeppelin/contracts/token/ERC20/ERC20.sol\":4346:4356  _msgSender */\n      tag_139\n        /* \"@openzeppelin/contracts/token/ERC20/ERC20.sol\":4346:4358  _msgSender() */\n      jump\t// in\n    tag_138:\n        /* \"@openzeppelin/contracts/token/ERC20/ERC20.sol\":4360:4367  spender */\n      dup5\n        /* \"@openzeppelin/contracts/token/ERC20/ERC20.sol\":4369:4375  amount */\n      dup5\n        /* \"@openzeppelin/contracts/token/ERC20/ERC20.sol\":4337:4345  _approve */\n      tag_140\n        /* \"@openzeppelin/contracts/token/ERC20/ERC20.sol\":4337:4376  _approve(_msgSender(), spender, amount) */\n      jump\t// in\n    tag_137:\n        /* \"@openzeppelin/contracts/token/ERC20/ERC20.sol\":4393:4397  true */\n      0x01\n        /* \"@openzeppelin/contracts/token/ERC20/ERC20.sol\":4386:4397  return true */\n      swap1\n      pop\n        /* \"@openzeppelin/contracts/token/ERC20/ERC20.sol\":4238:4404  function approve(address spender, uint256 amount) public virtual override returns (bool) {... */\n      swap3\n      swap2\n      pop\n      pop\n      jump\t// out\n        /* \"Documents/GitHub/XRC-20Plus/contracts/XRC20Plus.sol\":4204:4297  function Balance() public view returns(uint256) {... */\n    tag_46:\n        /* \"Documents/GitHub/XRC-20Plus/contracts/XRC20Plus.sol\":4243:4250  uint256 */\n      0x00\n        /* \"Documents/GitHub/XRC-20Plus/contracts/XRC20Plus.sol\":4269:4290  address(this).balance */\n      selfbalance\n        /* \"Documents/GitHub/XRC-20Plus/contracts/XRC20Plus.sol\":4262:4290  return address(this).balance */\n      swap1\n      pop\n        /* \"Documents/GitHub/XRC-20Plus/contracts/XRC20Plus.sol\":4204:4297  function Balance() public view returns(uint256) {... */\n      swap1\n      jump\t// out\n        /* \"Documents/GitHub/XRC-20Plus/contracts/XRC20Plus.sol\":2625:2669  mapping (uint => micro_ledger) public ledger */\n    tag_53:\n      mstore(0x20, 0x0a)\n      dup1\n      0x00\n      mstore\n      keccak256(0x00, 0x40)\n      0x00\n      swap2\n      pop\n      swap1\n      pop\n      dup1\n      0x00\n      add\n      0x00\n      swap1\n      sload\n      swap1\n      0x0100\n      exp\n      swap1\n      div\n      0xffffffffffffffffffffffffffffffffffffffff\n      and\n      swap1\n      dup1\n      0x00\n      add\n      0x14\n      swap1\n      sload\n      swap1\n      0x0100\n      exp\n      swap1\n      div\n      0xff\n      and\n      swap1\n      pop\n      dup3\n      jump\t// out\n        /* \"@openzeppelin/contracts/token/ERC20/ERC20.sol\":3229:3335  function totalSupply() public view virtual override returns (uint256) {... */\n    tag_58:\n        /* \"@openzeppelin/contracts/token/ERC20/ERC20.sol\":3290:3297  uint256 */\n      0x00\n        /* \"@openzeppelin/contracts/token/ERC20/ERC20.sol\":3316:3328  _totalSupply */\n      sload(0x02)\n        /* \"@openzeppelin/contracts/token/ERC20/ERC20.sol\":3309:3328  return _totalSupply */\n      swap1\n      pop\n        /* \"@openzeppelin/contracts/token/ERC20/ERC20.sol\":3229:3335  function totalSupply() public view virtual override returns (uint256) {... */\n      swap1\n      jump\t// out\n        /* \"@openzeppelin/contracts/token/ERC20/ERC20.sol\":4871:5349  function transferFrom(... */\n    tag_64:\n        /* \"@openzeppelin/contracts/token/ERC20/ERC20.sol\":5007:5011  bool */\n      0x00\n        /* \"@openzeppelin/contracts/token/ERC20/ERC20.sol\":5023:5059  _transfer(sender, recipient, amount) */\n      tag_144\n        /* \"@openzeppelin/contracts/token/ERC20/ERC20.sol\":5033:5039  sender */\n      dup5\n        /* \"@openzeppelin/contracts/token/ERC20/ERC20.sol\":5041:5050  recipient */\n      dup5\n        /* \"@openzeppelin/contracts/token/ERC20/ERC20.sol\":5052:5058  amount */\n      dup5\n        /* \"@openzeppelin/contracts/token/ERC20/ERC20.sol\":5023:5032  _transfer */\n      tag_145\n        /* \"@openzeppelin/contracts/token/ERC20/ERC20.sol\":5023:5059  _transfer(sender, recipient, amount) */\n      jump\t// in\n    tag_144:\n        /* \"@openzeppelin/contracts/token/ERC20/ERC20.sol\":5070:5094  uint256 currentAllowance */\n      0x00\n        /* \"@openzeppelin/contracts/token/ERC20/ERC20.sol\":5097:5108  _allowances */\n      0x01\n        /* \"@openzeppelin/contracts/token/ERC20/ERC20.sol\":5097:5116  _allowances[sender] */\n      0x00\n        /* \"@openzeppelin/contracts/token/ERC20/ERC20.sol\":5109:5115  sender */\n      dup7\n        /* \"@openzeppelin/contracts/token/ERC20/ERC20.sol\":5097:5116  _allowances[sender] */\n      0xffffffffffffffffffffffffffffffffffffffff\n      and\n      0xffffffffffffffffffffffffffffffffffffffff\n      and\n      dup2\n      mstore\n      0x20\n      add\n      swap1\n      dup2\n      mstore\n      0x20\n      add\n      0x00\n      keccak256\n        /* \"@openzeppelin/contracts/token/ERC20/ERC20.sol\":5097:5130  _allowances[sender][_msgSender()] */\n      0x00\n        /* \"@openzeppelin/contracts/token/ERC20/ERC20.sol\":5117:5129  _msgSender() */\n      tag_146\n        /* \"@openzeppelin/contracts/token/ERC20/ERC20.sol\":5117:5127  _msgSender */\n      tag_139\n        /* \"@openzeppelin/contracts/token/ERC20/ERC20.sol\":5117:5129  _msgSender() */\n      jump\t// in\n    tag_146:\n        /* \"@openzeppelin/contracts/token/ERC20/ERC20.sol\":5097:5130  _allowances[sender][_msgSender()] */\n      0xffffffffffffffffffffffffffffffffffffffff\n      and\n      0xffffffffffffffffffffffffffffffffffffffff\n      and\n      dup2\n      mstore\n      0x20\n      add\n      swap1\n      dup2\n      mstore\n      0x20\n      add\n      0x00\n      keccak256\n      sload\n        /* \"@openzeppelin/contracts/token/ERC20/ERC20.sol\":5070:5130  uint256 currentAllowance = _allowances[sender][_msgSender()] */\n      swap1\n      pop\n        /* \"@openzeppelin/contracts/token/ERC20/ERC20.sol\":5168:5174  amount */\n      dup3\n        /* \"@openzeppelin/contracts/token/ERC20/ERC20.sol\":5148:5164  currentAllowance */\n      dup2\n        /* \"@openzeppelin/contracts/token/ERC20/ERC20.sol\":5148:5174  currentAllowance >= amount */\n      lt\n      iszero\n        /* \"@openzeppelin/contracts/token/ERC20/ERC20.sol\":5140:5219  require(currentAllowance >= amount, \"ERC20: transfer amount exceeds allowance\") */\n      tag_147\n      jumpi\n      mload(0x40)\n      0x08c379a000000000000000000000000000000000000000000000000000000000\n      dup2\n      mstore\n      0x04\n      add\n      tag_148\n      swap1\n      tag_149\n      jump\t// in\n    tag_148:\n      mload(0x40)\n      dup1\n      swap2\n      sub\n      swap1\n      revert\n    tag_147:\n        /* \"@openzeppelin/contracts/token/ERC20/ERC20.sol\":5253:5310  _approve(sender, _msgSender(), currentAllowance - amount) */\n      tag_150\n        /* \"@openzeppelin/contracts/token/ERC20/ERC20.sol\":5262:5268  sender */\n      dup6\n        /* \"@openzeppelin/contracts/token/ERC20/ERC20.sol\":5270:5282  _msgSender() */\n      tag_151\n        /* \"@openzeppelin/contracts/token/ERC20/ERC20.sol\":5270:5280  _msgSender */\n      tag_139\n        /* \"@openzeppelin/contracts/token/ERC20/ERC20.sol\":5270:5282  _msgSender() */\n      jump\t// in\n    tag_151:\n        /* \"@openzeppelin/contracts/token/ERC20/ERC20.sol\":5303:5309  amount */\n      dup6\n        /* \"@openzeppelin/contracts/token/ERC20/ERC20.sol\":5284:5300  currentAllowance */\n      dup5\n        /* \"@openzeppelin/contracts/token/ERC20/ERC20.sol\":5284:5309  currentAllowance - amount */\n      sub\n        /* \"@openzeppelin/contracts/token/ERC20/ERC20.sol\":5253:5261  _approve */\n      tag_140\n        /* \"@openzeppelin/contracts/token/ERC20/ERC20.sol\":5253:5310  _approve(sender, _msgSender(), currentAllowance - amount) */\n      jump\t// in\n    tag_150:\n        /* \"@openzeppelin/contracts/token/ERC20/ERC20.sol\":5338:5342  true */\n      0x01\n        /* \"@openzeppelin/contracts/token/ERC20/ERC20.sol\":5331:5342  return true */\n      swap2\n      pop\n      pop\n        /* \"@openzeppelin/contracts/token/ERC20/ERC20.sol\":4871:5349  function transferFrom(... */\n      swap4\n      swap3\n      pop\n      pop\n      pop\n      jump\t// out\n        /* \"@openzeppelin/contracts/token/ERC20/ERC20.sol\":3078:3169  function decimals() public view virtual override returns (uint8) {... */\n    tag_68:\n        /* \"@openzeppelin/contracts/token/ERC20/ERC20.sol\":3136:3141  uint8 */\n      0x00\n        /* \"@openzeppelin/contracts/token/ERC20/ERC20.sol\":3160:3162  18 */\n      0x12\n        /* \"@openzeppelin/contracts/token/ERC20/ERC20.sol\":3153:3162  return 18 */\n      swap1\n      pop\n        /* \"@openzeppelin/contracts/token/ERC20/ERC20.sol\":3078:3169  function decimals() public view virtual override returns (uint8) {... */\n      swap1\n      jump\t// out\n        /* \"@openzeppelin/contracts/token/ERC20/ERC20.sol\":5744:5956  function increaseAllowance(address spender, uint256 addedValue) public virtual returns (bool) {... */\n    tag_74:\n        /* \"@openzeppelin/contracts/token/ERC20/ERC20.sol\":5832:5836  bool */\n      0x00\n        /* \"@openzeppelin/contracts/token/ERC20/ERC20.sol\":5848:5928  _approve(_msgSender(), spender, _allowances[_msgSender()][spender] + addedValue) */\n      tag_154\n        /* \"@openzeppelin/contracts/token/ERC20/ERC20.sol\":5857:5869  _msgSender() */\n      tag_155\n        /* \"@openzeppelin/contracts/token/ERC20/ERC20.sol\":5857:5867  _msgSender */\n      tag_139\n        /* \"@openzeppelin/contracts/token/ERC20/ERC20.sol\":5857:5869  _msgSender() */\n      jump\t// in\n    tag_155:\n        /* \"@openzeppelin/contracts/token/ERC20/ERC20.sol\":5871:5878  spender */\n      dup5\n        /* \"@openzeppelin/contracts/token/ERC20/ERC20.sol\":5917:5927  addedValue */\n      dup5\n        /* \"@openzeppelin/contracts/token/ERC20/ERC20.sol\":5880:5891  _allowances */\n      0x01\n        /* \"@openzeppelin/contracts/token/ERC20/ERC20.sol\":5880:5905  _allowances[_msgSender()] */\n      0x00\n        /* \"@openzeppelin/contracts/token/ERC20/ERC20.sol\":5892:5904  _msgSender() */\n      tag_156\n        /* \"@openzeppelin/contracts/token/ERC20/ERC20.sol\":5892:5902  _msgSender */\n      tag_139\n        /* \"@openzeppelin/contracts/token/ERC20/ERC20.sol\":5892:5904  _msgSender() */\n      jump\t// in\n    tag_156:\n        /* \"@openzeppelin/contracts/token/ERC20/ERC20.sol\":5880:5905  _allowances[_msgSender()] */\n      0xffffffffffffffffffffffffffffffffffffffff\n      and\n      0xffffffffffffffffffffffffffffffffffffffff\n      and\n      dup2\n      mstore\n      0x20\n      add\n      swap1\n      dup2\n      mstore\n      0x20\n      add\n      0x00\n      keccak256\n        /* \"@openzeppelin/contracts/token/ERC20/ERC20.sol\":5880:5914  _allowances[_msgSender()][spender] */\n      0x00\n        /* \"@openzeppelin/contracts/token/ERC20/ERC20.sol\":5906:5913  spender */\n      dup9\n        /* \"@openzeppelin/contracts/token/ERC20/ERC20.sol\":5880:5914  _allowances[_msgSender()][spender] */\n      0xffffffffffffffffffffffffffffffffffffffff\n      and\n      0xffffffffffffffffffffffffffffffffffffffff\n      and\n      dup2\n      mstore\n      0x20\n      add\n      swap1\n      dup2\n      mstore\n      0x20\n      add\n      0x00\n      keccak256\n      sload\n        /* \"@openzeppelin/contracts/token/ERC20/ERC20.sol\":5880:5927  _allowances[_msgSender()][spender] + addedValue */\n      tag_157\n      swap2\n      swap1\n      tag_158\n      jump\t// in\n    tag_157:\n        /* \"@openzeppelin/contracts/token/ERC20/ERC20.sol\":5848:5856  _approve */\n      tag_140\n        /* \"@openzeppelin/contracts/token/ERC20/ERC20.sol\":5848:5928  _approve(_msgSender(), spender, _allowances[_msgSender()][spender] + addedValue) */\n      jump\t// in\n    tag_154:\n        /* \"@openzeppelin/contracts/token/ERC20/ERC20.sol\":5945:5949  true */\n      0x01\n        /* \"@openzeppelin/contracts/token/ERC20/ERC20.sol\":5938:5949  return true */\n      swap1\n      pop\n        /* \"@openzeppelin/contracts/token/ERC20/ERC20.sol\":5744:5956  function increaseAllowance(address spender, uint256 addedValue) public virtual returns (bool) {... */\n      swap3\n      swap2\n      pop\n      pop\n      jump\t// out\n        /* \"Documents/GitHub/XRC-20Plus/contracts/XRC20Plus.sol\":2574:2619  mapping (address => Accounts) public accounts */\n    tag_80:\n      mstore(0x20, 0x09)\n      dup1\n      0x00\n      mstore\n      keccak256(0x00, 0x40)\n      0x00\n      swap2\n      pop\n      swap1\n      pop\n      dup1\n      0x00\n      add\n      sload\n      swap1\n      dup1\n      0x01\n      add\n      0x00\n      swap1\n      sload\n      swap1\n      0x0100\n      exp\n      swap1\n      div\n      0xff\n      and\n      swap1\n      pop\n      dup3\n      jump\t// out\n        /* \"@openzeppelin/contracts/token/ERC20/ERC20.sol\":3393:3518  function balanceOf(address account) public view virtual override returns (uint256) {... */\n    tag_86:\n        /* \"@openzeppelin/contracts/token/ERC20/ERC20.sol\":3467:3474  uint256 */\n      0x00\n        /* \"@openzeppelin/contracts/token/ERC20/ERC20.sol\":3493:3502  _balances */\n      dup1\n        /* \"@openzeppelin/contracts/token/ERC20/ERC20.sol\":3493:3511  _balances[account] */\n      0x00\n        /* \"@openzeppelin/contracts/token/ERC20/ERC20.sol\":3503:3510  account */\n      dup4\n        /* \"@openzeppelin/contracts/token/ERC20/ERC20.sol\":3493:3511  _balances[account] */\n      0xffffffffffffffffffffffffffffffffffffffff\n      and\n      0xffffffffffffffffffffffffffffffffffffffff\n      and\n      dup2\n      mstore\n      0x20\n      add\n      swap1\n      dup2\n      mstore\n      0x20\n      add\n      0x00\n      keccak256\n      sload\n        /* \"@openzeppelin/contracts/token/ERC20/ERC20.sol\":3486:3511  return _balances[account] */\n      swap1\n      pop\n        /* \"@openzeppelin/contracts/token/ERC20/ERC20.sol\":3393:3518  function balanceOf(address account) public view virtual override returns (uint256) {... */\n      swap2\n      swap1\n      pop\n      jump\t// out\n        /* \"Documents/GitHub/XRC-20Plus/contracts/XRC20Plus.sol\":3996:4171  function View_Account() public view returns(uint){... */\n    tag_90:\n        /* \"Documents/GitHub/XRC-20Plus/contracts/XRC20Plus.sol\":4040:4044  uint */\n      0x00\n        /* \"Documents/GitHub/XRC-20Plus/contracts/XRC20Plus.sol\":4093:4097  true */\n      0x01\n        /* \"Documents/GitHub/XRC-20Plus/contracts/XRC20Plus.sol\":4063:4097  accounts[msg.sender].exist == true */\n      iszero\n      iszero\n        /* \"Documents/GitHub/XRC-20Plus/contracts/XRC20Plus.sol\":4063:4071  accounts */\n      0x09\n        /* \"Documents/GitHub/XRC-20Plus/contracts/XRC20Plus.sol\":4063:4083  accounts[msg.sender] */\n      0x00\n        /* \"Documents/GitHub/XRC-20Plus/contracts/XRC20Plus.sol\":4072:4082  msg.sender */\n      caller\n        /* \"Documents/GitHub/XRC-20Plus/contracts/XRC20Plus.sol\":4063:4083  accounts[msg.sender] */\n      0xffffffffffffffffffffffffffffffffffffffff\n      and\n      0xffffffffffffffffffffffffffffffffffffffff\n      and\n      dup2\n      mstore\n      0x20\n      add\n      swap1\n      dup2\n      mstore\n      0x20\n      add\n      0x00\n      keccak256\n        /* \"Documents/GitHub/XRC-20Plus/contracts/XRC20Plus.sol\":4063:4089  accounts[msg.sender].exist */\n      0x01\n      add\n      0x00\n      swap1\n      sload\n      swap1\n      0x0100\n      exp\n      swap1\n      div\n      0xff\n      and\n        /* \"Documents/GitHub/XRC-20Plus/contracts/XRC20Plus.sol\":4063:4097  accounts[msg.sender].exist == true */\n      iszero\n      iszero\n      eq\n        /* \"Documents/GitHub/XRC-20Plus/contracts/XRC20Plus.sol\":4055:4119  require(accounts[msg.sender].exist == true,\"user not registerd\") */\n      tag_161\n      jumpi\n      mload(0x40)\n      0x08c379a000000000000000000000000000000000000000000000000000000000\n      dup2\n      mstore\n      0x04\n      add\n      tag_162\n      swap1\n      tag_163\n      jump\t// in\n    tag_162:\n      mload(0x40)\n      dup1\n      swap2\n      sub\n      swap1\n      revert\n    tag_161:\n        /* \"Documents/GitHub/XRC-20Plus/contracts/XRC20Plus.sol\":4136:4144  accounts */\n      0x09\n        /* \"Documents/GitHub/XRC-20Plus/contracts/XRC20Plus.sol\":4136:4156  accounts[msg.sender] */\n      0x00\n        /* \"Documents/GitHub/XRC-20Plus/contracts/XRC20Plus.sol\":4145:4155  msg.sender */\n      caller\n        /* \"Documents/GitHub/XRC-20Plus/contracts/XRC20Plus.sol\":4136:4156  accounts[msg.sender] */\n      0xffffffffffffffffffffffffffffffffffffffff\n      and\n      0xffffffffffffffffffffffffffffffffffffffff\n      and\n      dup2\n      mstore\n      0x20\n      add\n      swap1\n      dup2\n      mstore\n      0x20\n      add\n      0x00\n      keccak256\n        /* \"Documents/GitHub/XRC-20Plus/contracts/XRC20Plus.sol\":4136:4164  accounts[msg.sender].ammount */\n      0x00\n      add\n      sload\n        /* \"Documents/GitHub/XRC-20Plus/contracts/XRC20Plus.sol\":4129:4164  return accounts[msg.sender].ammount */\n      swap1\n      pop\n        /* \"Documents/GitHub/XRC-20Plus/contracts/XRC20Plus.sol\":3996:4171  function View_Account() public view returns(uint){... */\n      swap1\n      jump\t// out\n        /* \"Documents/GitHub/XRC-20Plus/contracts/XRC20Plus.sol\":3656:3948  function Register_Account() public returns(bool){... */\n    tag_94:\n        /* \"Documents/GitHub/XRC-20Plus/contracts/XRC20Plus.sol\":3699:3703  bool */\n      0x00\n        /* \"Documents/GitHub/XRC-20Plus/contracts/XRC20Plus.sol\":3752:3757  false */\n      dup1\n        /* \"Documents/GitHub/XRC-20Plus/contracts/XRC20Plus.sol\":3722:3757  accounts[msg.sender].exist == false */\n      iszero\n      iszero\n        /* \"Documents/GitHub/XRC-20Plus/contracts/XRC20Plus.sol\":3722:3730  accounts */\n      0x09\n        /* \"Documents/GitHub/XRC-20Plus/contracts/XRC20Plus.sol\":3722:3742  accounts[msg.sender] */\n      0x00\n        /* \"Documents/GitHub/XRC-20Plus/contracts/XRC20Plus.sol\":3731:3741  msg.sender */\n      caller\n        /* \"Documents/GitHub/XRC-20Plus/contracts/XRC20Plus.sol\":3722:3742  accounts[msg.sender] */\n      0xffffffffffffffffffffffffffffffffffffffff\n      and\n      0xffffffffffffffffffffffffffffffffffffffff\n      and\n      dup2\n      mstore\n      0x20\n      add\n      swap1\n      dup2\n      mstore\n      0x20\n      add\n      0x00\n      keccak256\n        /* \"Documents/GitHub/XRC-20Plus/contracts/XRC20Plus.sol\":3722:3748  accounts[msg.sender].exist */\n      0x01\n      add\n      0x00\n      swap1\n      sload\n      swap1\n      0x0100\n      exp\n      swap1\n      div\n      0xff\n      and\n        /* \"Documents/GitHub/XRC-20Plus/contracts/XRC20Plus.sol\":3722:3757  accounts[msg.sender].exist == false */\n      iszero\n      iszero\n      eq\n        /* \"Documents/GitHub/XRC-20Plus/contracts/XRC20Plus.sol\":3714:3779  require(accounts[msg.sender].exist == false,\"user already exist\") */\n      tag_165\n      jumpi\n      mload(0x40)\n      0x08c379a000000000000000000000000000000000000000000000000000000000\n      dup2\n      mstore\n      0x04\n      add\n      tag_166\n      swap1\n      tag_167\n      jump\t// in\n    tag_166:\n      mload(0x40)\n      dup1\n      swap2\n      sub\n      swap1\n      revert\n    tag_165:\n        /* \"Documents/GitHub/XRC-20Plus/contracts/XRC20Plus.sol\":3815:3844  micro_ledger(msg.sender,true) */\n      mload(0x40)\n      dup1\n      0x40\n      add\n      0x40\n      mstore\n      dup1\n        /* \"Documents/GitHub/XRC-20Plus/contracts/XRC20Plus.sol\":3828:3838  msg.sender */\n      caller\n        /* \"Documents/GitHub/XRC-20Plus/contracts/XRC20Plus.sol\":3815:3844  micro_ledger(msg.sender,true) */\n      0xffffffffffffffffffffffffffffffffffffffff\n      and\n      dup2\n      mstore\n      0x20\n      add\n        /* \"Documents/GitHub/XRC-20Plus/contracts/XRC20Plus.sol\":3839:3843  true */\n      0x01\n        /* \"Documents/GitHub/XRC-20Plus/contracts/XRC20Plus.sol\":3815:3844  micro_ledger(msg.sender,true) */\n      iszero\n      iszero\n      dup2\n      mstore\n      pop\n        /* \"Documents/GitHub/XRC-20Plus/contracts/XRC20Plus.sol\":3789:3795  ledger */\n      0x0a\n        /* \"Documents/GitHub/XRC-20Plus/contracts/XRC20Plus.sol\":3789:3812  ledger[Account_Counter] */\n      0x00\n        /* \"Documents/GitHub/XRC-20Plus/contracts/XRC20Plus.sol\":3796:3811  Account_Counter */\n      sload(0x06)\n        /* \"Documents/GitHub/XRC-20Plus/contracts/XRC20Plus.sol\":3789:3812  ledger[Account_Counter] */\n      dup2\n      mstore\n      0x20\n      add\n      swap1\n      dup2\n      mstore\n      0x20\n      add\n      0x00\n      keccak256\n        /* \"Documents/GitHub/XRC-20Plus/contracts/XRC20Plus.sol\":3789:3844  ledger[Account_Counter] = micro_ledger(msg.sender,true) */\n      0x00\n      dup3\n      add\n      mload\n      dup2\n      0x00\n      add\n      exp(0x0100, 0x00)\n      dup2\n      sload\n      dup2\n      0xffffffffffffffffffffffffffffffffffffffff\n      mul\n      not\n      and\n      swap1\n      dup4\n      0xffffffffffffffffffffffffffffffffffffffff\n      and\n      mul\n      or\n      swap1\n      sstore\n      pop\n      0x20\n      dup3\n      add\n      mload\n      dup2\n      0x00\n      add\n      exp(0x0100, 0x14)\n      dup2\n      sload\n      dup2\n      0xff\n      mul\n      not\n      and\n      swap1\n      dup4\n      iszero\n      iszero\n      mul\n      or\n      swap1\n      sstore\n      pop\n      swap1\n      pop\n      pop\n        /* \"Documents/GitHub/XRC-20Plus/contracts/XRC20Plus.sol\":3877:3893  Accounts(0,true) */\n      mload(0x40)\n      dup1\n      0x40\n      add\n      0x40\n      mstore\n      dup1\n        /* \"Documents/GitHub/XRC-20Plus/contracts/XRC20Plus.sol\":3886:3887  0 */\n      0x00\n        /* \"Documents/GitHub/XRC-20Plus/contracts/XRC20Plus.sol\":3877:3893  Accounts(0,true) */\n      dup2\n      mstore\n      0x20\n      add\n        /* \"Documents/GitHub/XRC-20Plus/contracts/XRC20Plus.sol\":3888:3892  true */\n      0x01\n        /* \"Documents/GitHub/XRC-20Plus/contracts/XRC20Plus.sol\":3877:3893  Accounts(0,true) */\n      iszero\n      iszero\n      dup2\n      mstore\n      pop\n        /* \"Documents/GitHub/XRC-20Plus/contracts/XRC20Plus.sol\":3854:3862  accounts */\n      0x09\n        /* \"Documents/GitHub/XRC-20Plus/contracts/XRC20Plus.sol\":3854:3874  accounts[msg.sender] */\n      0x00\n        /* \"Documents/GitHub/XRC-20Plus/contracts/XRC20Plus.sol\":3863:3873  msg.sender */\n      caller\n        /* \"Documents/GitHub/XRC-20Plus/contracts/XRC20Plus.sol\":3854:3874  accounts[msg.sender] */\n      0xffffffffffffffffffffffffffffffffffffffff\n      and\n      0xffffffffffffffffffffffffffffffffffffffff\n      and\n      dup2\n      mstore\n      0x20\n      add\n      swap1\n      dup2\n      mstore\n      0x20\n      add\n      0x00\n      keccak256\n        /* \"Documents/GitHub/XRC-20Plus/contracts/XRC20Plus.sol\":3854:3893  accounts[msg.sender] = Accounts(0,true) */\n      0x00\n      dup3\n      add\n      mload\n      dup2\n      0x00\n      add\n      sstore\n      0x20\n      dup3\n      add\n      mload\n      dup2\n      0x01\n      add\n      exp(0x0100, 0x00)\n      dup2\n      sload\n      dup2\n      0xff\n      mul\n      not\n      and\n      swap1\n      dup4\n      iszero\n      iszero\n      mul\n      or\n      swap1\n      sstore\n      pop\n      swap1\n      pop\n      pop\n        /* \"Documents/GitHub/XRC-20Plus/contracts/XRC20Plus.sol\":3903:3918  Account_Counter */\n      0x06\n      0x00\n        /* \"Documents/GitHub/XRC-20Plus/contracts/XRC20Plus.sol\":3903:3920  Account_Counter++ */\n      dup2\n      sload\n      dup1\n      swap3\n      swap2\n      swap1\n      tag_168\n      swap1\n      tag_169\n      jump\t// in\n    tag_168:\n      swap2\n      swap1\n      pop\n      sstore\n      pop\n        /* \"Documents/GitHub/XRC-20Plus/contracts/XRC20Plus.sol\":3937:3941  true */\n      0x01\n        /* \"Documents/GitHub/XRC-20Plus/contracts/XRC20Plus.sol\":3930:3941  return true */\n      swap1\n      pop\n        /* \"Documents/GitHub/XRC-20Plus/contracts/XRC20Plus.sol\":3656:3948  function Register_Account() public returns(bool){... */\n      swap1\n      jump\t// out\n        /* \"@openzeppelin/contracts/token/ERC20/ERC20.sol\":2352:2454  function symbol() public view virtual override returns (string memory) {... */\n    tag_98:\n        /* \"@openzeppelin/contracts/token/ERC20/ERC20.sol\":2408:2421  string memory */\n      0x60\n        /* \"@openzeppelin/contracts/token/ERC20/ERC20.sol\":2440:2447  _symbol */\n      0x04\n        /* \"@openzeppelin/contracts/token/ERC20/ERC20.sol\":2433:2447  return _symbol */\n      dup1\n      sload\n      tag_171\n      swap1\n      tag_131\n      jump\t// in\n    tag_171:\n      dup1\n      0x1f\n      add\n      0x20\n      dup1\n      swap2\n      div\n      mul\n      0x20\n      add\n      mload(0x40)\n      swap1\n      dup2\n      add\n      0x40\n      mstore\n      dup1\n      swap3\n      swap2\n      swap1\n      dup2\n      dup2\n      mstore\n      0x20\n      add\n      dup3\n      dup1\n      sload\n      tag_172\n      swap1\n      tag_131\n      jump\t// in\n    tag_172:\n      dup1\n      iszero\n      tag_173\n      jumpi\n      dup1\n      0x1f\n      lt\n      tag_174\n      jumpi\n      0x0100\n      dup1\n      dup4\n      sload\n      div\n      mul\n      dup4\n      mstore\n      swap2\n      0x20\n      add\n      swap2\n      jump(tag_173)\n    tag_174:\n      dup3\n      add\n      swap2\n      swap1\n      0x00\n      mstore\n      keccak256(0x00, 0x20)\n      swap1\n    tag_175:\n      dup2\n      sload\n      dup2\n      mstore\n      swap1\n      0x01\n      add\n      swap1\n      0x20\n      add\n      dup1\n      dup4\n      gt\n      tag_175\n      jumpi\n      dup3\n      swap1\n      sub\n      0x1f\n      and\n      dup3\n      add\n      swap2\n    tag_173:\n      pop\n      pop\n      pop\n      pop\n      pop\n      swap1\n      pop\n        /* \"@openzeppelin/contracts/token/ERC20/ERC20.sol\":2352:2454  function symbol() public view virtual override returns (string memory) {... */\n      swap1\n      jump\t// out\n        /* \"Documents/GitHub/XRC-20Plus/contracts/XRC20Plus.sol\":4368:5204  function Accept_From_CoinBank(uint _singleShard)public payable CoinBankOnly{... */\n    tag_102:\n        /* \"Documents/GitHub/XRC-20Plus/contracts/XRC20Plus.sol\":3520:3530  msg.sender */\n      caller\n        /* \"Documents/GitHub/XRC-20Plus/contracts/XRC20Plus.sol\":3503:3531  abi.encodePacked(msg.sender) */\n      add(0x20, mload(0x40))\n      tag_177\n      swap2\n      swap1\n      tag_178\n      jump\t// in\n    tag_177:\n      mload(0x40)\n      0x20\n      dup2\n      dup4\n      sub\n      sub\n      dup2\n      mstore\n      swap1\n      0x40\n      mstore\n        /* \"Documents/GitHub/XRC-20Plus/contracts/XRC20Plus.sol\":3493:3532  keccak256(abi.encodePacked(msg.sender)) */\n      dup1\n      mload\n      swap1\n      0x20\n      add\n      keccak256\n        /* \"Documents/GitHub/XRC-20Plus/contracts/XRC20Plus.sol\":3470:3487  CoinBank_Contract */\n      0x0b\n        /* \"Documents/GitHub/XRC-20Plus/contracts/XRC20Plus.sol\":3453:3488  abi.encodePacked(CoinBank_Contract) */\n      add(0x20, mload(0x40))\n      tag_179\n      swap2\n      swap1\n      tag_180\n      jump\t// in\n    tag_179:\n      mload(0x40)\n      0x20\n      dup2\n      dup4\n      sub\n      sub\n      dup2\n      mstore\n      swap1\n      0x40\n      mstore\n        /* \"Documents/GitHub/XRC-20Plus/contracts/XRC20Plus.sol\":3443:3489  keccak256(abi.encodePacked(CoinBank_Contract)) */\n      dup1\n      mload\n      swap1\n      0x20\n      add\n      keccak256\n        /* \"Documents/GitHub/XRC-20Plus/contracts/XRC20Plus.sol\":3443:3532  keccak256(abi.encodePacked(CoinBank_Contract)) == keccak256(abi.encodePacked(msg.sender)) */\n      eq\n        /* \"Documents/GitHub/XRC-20Plus/contracts/XRC20Plus.sol\":3435:3584  require(keccak256(abi.encodePacked(CoinBank_Contract)) == keccak256(abi.encodePacked(msg.sender)),\"Only Contract coinbank can execute this function\") */\n      tag_181\n      jumpi\n      mload(0x40)\n      0x08c379a000000000000000000000000000000000000000000000000000000000\n      dup2\n      mstore\n      0x04\n      add\n      tag_182\n      swap1\n      tag_183\n      jump\t// in\n    tag_182:\n      mload(0x40)\n      dup1\n      swap2\n      sub\n      swap1\n      revert\n    tag_181:\n        /* \"Documents/GitHub/XRC-20Plus/contracts/XRC20Plus.sol\":4453:4463  uint value */\n      0x00\n        /* \"Documents/GitHub/XRC-20Plus/contracts/XRC20Plus.sol\":4466:4475  msg.value */\n      callvalue\n        /* \"Documents/GitHub/XRC-20Plus/contracts/XRC20Plus.sol\":4453:4475  uint value = msg.value */\n      swap1\n      pop\n        /* \"Documents/GitHub/XRC-20Plus/contracts/XRC20Plus.sol\":4485:4504  uint totalAllocated */\n      0x00\n        /* \"Documents/GitHub/XRC-20Plus/contracts/XRC20Plus.sol\":4516:4536  uint amountAllocated */\n      dup1\n        /* \"Documents/GitHub/XRC-20Plus/contracts/XRC20Plus.sol\":4546:4561  uint dustSpread */\n      dup1\n        /* \"Documents/GitHub/XRC-20Plus/contracts/XRC20Plus.sol\":4570:4584  totalAllocated */\n      dup3\n        /* \"Documents/GitHub/XRC-20Plus/contracts/XRC20Plus.sol\":4564:4569  value */\n      dup5\n        /* \"Documents/GitHub/XRC-20Plus/contracts/XRC20Plus.sol\":4564:4584  value-totalAllocated */\n      tag_185\n      swap2\n      swap1\n      tag_186\n      jump\t// in\n    tag_185:\n        /* \"Documents/GitHub/XRC-20Plus/contracts/XRC20Plus.sol\":4546:4584  uint dustSpread = value-totalAllocated */\n      swap1\n      pop\n        /* \"Documents/GitHub/XRC-20Plus/contracts/XRC20Plus.sol\":4595:5144  for(i;i<=Account_Counter;i++){... */\n    tag_187:\n        /* \"Documents/GitHub/XRC-20Plus/contracts/XRC20Plus.sol\":4604:4619  Account_Counter */\n      sload(0x06)\n        /* \"Documents/GitHub/XRC-20Plus/contracts/XRC20Plus.sol\":4601:4602  i */\n      sload(0x08)\n        /* \"Documents/GitHub/XRC-20Plus/contracts/XRC20Plus.sol\":4601:4619  i<=Account_Counter */\n      gt\n        /* \"Documents/GitHub/XRC-20Plus/contracts/XRC20Plus.sol\":4595:5144  for(i;i<=Account_Counter;i++){... */\n      tag_188\n      jumpi\n        /* \"Documents/GitHub/XRC-20Plus/contracts/XRC20Plus.sol\":4660:4694  InternalAccounting(i,_singleShard) */\n      tag_190\n        /* \"Documents/GitHub/XRC-20Plus/contracts/XRC20Plus.sol\":4679:4680  i */\n      sload(0x08)\n        /* \"Documents/GitHub/XRC-20Plus/contracts/XRC20Plus.sol\":4681:4693  _singleShard */\n      dup7\n        /* \"Documents/GitHub/XRC-20Plus/contracts/XRC20Plus.sol\":4660:4678  InternalAccounting */\n      tag_191\n        /* \"Documents/GitHub/XRC-20Plus/contracts/XRC20Plus.sol\":4660:4694  InternalAccounting(i,_singleShard) */\n      jump\t// in\n    tag_190:\n        /* \"Documents/GitHub/XRC-20Plus/contracts/XRC20Plus.sol\":4639:4640  i */\n      0x08\n      0x00\n        /* \"Documents/GitHub/XRC-20Plus/contracts/XRC20Plus.sol\":4638:4694  (i,amountAllocated) = InternalAccounting(i,_singleShard) */\n      dup3\n      swap6\n      pop\n      dup4\n      swap2\n      swap1\n      pop\n      sstore\n      pop\n      pop\n        /* \"Documents/GitHub/XRC-20Plus/contracts/XRC20Plus.sol\":4726:4741  amountAllocated */\n      dup2\n        /* \"Documents/GitHub/XRC-20Plus/contracts/XRC20Plus.sol\":4708:4741  totalAllocated += amountAllocated */\n      dup4\n      tag_192\n      swap2\n      swap1\n      tag_158\n      jump\t// in\n    tag_192:\n      swap3\n      pop\n        /* \"Documents/GitHub/XRC-20Plus/contracts/XRC20Plus.sol\":4872:4880  dust_min */\n      sload(0x07)\n        /* \"Documents/GitHub/XRC-20Plus/contracts/XRC20Plus.sol\":4860:4870  dustSpread */\n      dup2\n        /* \"Documents/GitHub/XRC-20Plus/contracts/XRC20Plus.sol\":4860:4880  dustSpread<=dust_min */\n      gt\n        /* \"Documents/GitHub/XRC-20Plus/contracts/XRC20Plus.sol\":4857:5134  if(dustSpread<=dust_min){... */\n      tag_193\n      jumpi\n        /* \"Documents/GitHub/XRC-20Plus/contracts/XRC20Plus.sol\":4926:4943  CoinBank_Contract */\n      0x0b\n        /* \"Documents/GitHub/XRC-20Plus/contracts/XRC20Plus.sol\":4944:4945  0 */\n      0x00\n        /* \"Documents/GitHub/XRC-20Plus/contracts/XRC20Plus.sol\":4926:4946  CoinBank_Contract[0] */\n      dup2\n      sload\n      dup2\n      lt\n      tag_194\n      jumpi\n      tag_195\n      tag_196\n      jump\t// in\n    tag_195:\n    tag_194:\n      swap1\n      0x00\n      mstore\n      keccak256(0x00, 0x20)\n      add\n      0x00\n      swap1\n      sload\n      swap1\n      0x0100\n      exp\n      swap1\n      div\n      0xffffffffffffffffffffffffffffffffffffffff\n      and\n        /* \"Documents/GitHub/XRC-20Plus/contracts/XRC20Plus.sol\":4899:4967  CoinBank_Interface(address(CoinBank_Contract[0])).Incomming_Payments */\n      0xffffffffffffffffffffffffffffffffffffffff\n      and\n      0x82add361\n        /* \"Documents/GitHub/XRC-20Plus/contracts/XRC20Plus.sol\":4974:4984  dustSpread */\n      dup3\n        /* \"Documents/GitHub/XRC-20Plus/contracts/XRC20Plus.sol\":4899:4987  CoinBank_Interface(address(CoinBank_Contract[0])).Incomming_Payments{value:dustSpread}() */\n      mload(0x40)\n      dup3\n      0xffffffff\n      and\n      0xe0\n      shl\n      dup2\n      mstore\n      0x04\n      add\n      0x00\n      mload(0x40)\n      dup1\n      dup4\n      sub\n      dup2\n      dup6\n      dup9\n      dup1\n      extcodesize\n      iszero\n      dup1\n      iszero\n      tag_198\n      jumpi\n      0x00\n      dup1\n      revert\n    tag_198:\n      pop\n      gas\n      call\n      iszero\n      dup1\n      iszero\n      tag_200\n      jumpi\n      returndatasize\n      0x00\n      dup1\n      returndatacopy\n      revert(0x00, returndatasize)\n    tag_200:\n      pop\n      pop\n      pop\n      pop\n      pop\n        /* \"Documents/GitHub/XRC-20Plus/contracts/XRC20Plus.sol\":5005:5010  break */\n      jump(tag_188)\n        /* \"Documents/GitHub/XRC-20Plus/contracts/XRC20Plus.sol\":4857:5134  if(dustSpread<=dust_min){... */\n    tag_193:\n        /* \"Documents/GitHub/XRC-20Plus/contracts/XRC20Plus.sol\":5038:5053  Account_Counter */\n      sload(0x06)\n        /* \"Documents/GitHub/XRC-20Plus/contracts/XRC20Plus.sol\":5033:5034  i */\n      sload(0x08)\n        /* \"Documents/GitHub/XRC-20Plus/contracts/XRC20Plus.sol\":5033:5053  i <= Account_Counter */\n      gt\n        /* \"Documents/GitHub/XRC-20Plus/contracts/XRC20Plus.sol\":5030:5134  if(i <= Account_Counter){... */\n      tag_202\n      jumpi\n        /* \"Documents/GitHub/XRC-20Plus/contracts/XRC20Plus.sol\":5076:5077  i */\n      sload(0x08)\n        /* \"Documents/GitHub/XRC-20Plus/contracts/XRC20Plus.sol\":5072:5073  i */\n      0x08\n        /* \"Documents/GitHub/XRC-20Plus/contracts/XRC20Plus.sol\":5072:5077  i = i */\n      dup2\n      swap1\n      sstore\n      pop\n        /* \"Documents/GitHub/XRC-20Plus/contracts/XRC20Plus.sol\":5030:5134  if(i <= Account_Counter){... */\n      jump(tag_203)\n    tag_202:\n        /* \"Documents/GitHub/XRC-20Plus/contracts/XRC20Plus.sol\":5118:5119  0 */\n      0x00\n        /* \"Documents/GitHub/XRC-20Plus/contracts/XRC20Plus.sol\":5114:5115  i */\n      0x08\n        /* \"Documents/GitHub/XRC-20Plus/contracts/XRC20Plus.sol\":5114:5119  i = 0 */\n      dup2\n      swap1\n      sstore\n      pop\n        /* \"Documents/GitHub/XRC-20Plus/contracts/XRC20Plus.sol\":5030:5134  if(i <= Account_Counter){... */\n    tag_203:\n        /* \"Documents/GitHub/XRC-20Plus/contracts/XRC20Plus.sol\":4620:4621  i */\n      0x08\n      0x00\n        /* \"Documents/GitHub/XRC-20Plus/contracts/XRC20Plus.sol\":4620:4623  i++ */\n      dup2\n      sload\n      dup1\n      swap3\n      swap2\n      swap1\n      tag_204\n      swap1\n      tag_169\n      jump\t// in\n    tag_204:\n      swap2\n      swap1\n      pop\n      sstore\n      pop\n        /* \"Documents/GitHub/XRC-20Plus/contracts/XRC20Plus.sol\":4595:5144  for(i;i<=Account_Counter;i++){... */\n      jump(tag_187)\n    tag_188:\n        /* \"Documents/GitHub/XRC-20Plus/contracts/XRC20Plus.sol\":5161:5196  TreasuryClock(block.timestamp,true) */\n      0x8ab34dbde874de5ddabad5029cf0abbef03843eb2d9509a6ae6697f77dc5a948\n        /* \"Documents/GitHub/XRC-20Plus/contracts/XRC20Plus.sol\":5175:5190  block.timestamp */\n      timestamp\n        /* \"Documents/GitHub/XRC-20Plus/contracts/XRC20Plus.sol\":5191:5195  true */\n      0x01\n        /* \"Documents/GitHub/XRC-20Plus/contracts/XRC20Plus.sol\":5161:5196  TreasuryClock(block.timestamp,true) */\n      mload(0x40)\n      tag_205\n      swap3\n      swap2\n      swap1\n      tag_82\n      jump\t// in\n    tag_205:\n      mload(0x40)\n      dup1\n      swap2\n      sub\n      swap1\n      log1\n        /* \"Documents/GitHub/XRC-20Plus/contracts/XRC20Plus.sol\":4443:5204  {... */\n      pop\n      pop\n      pop\n      pop\n        /* \"Documents/GitHub/XRC-20Plus/contracts/XRC20Plus.sol\":4368:5204  function Accept_From_CoinBank(uint _singleShard)public payable CoinBankOnly{... */\n      pop\n      jump\t// out\n        /* \"@openzeppelin/contracts/token/ERC20/ERC20.sol\":6443:6848  function decreaseAllowance(address spender, uint256 subtractedValue) public virtual returns (bool) {... */\n    tag_106:\n        /* \"@openzeppelin/contracts/token/ERC20/ERC20.sol\":6536:6540  bool */\n      0x00\n        /* \"@openzeppelin/contracts/token/ERC20/ERC20.sol\":6552:6576  uint256 currentAllowance */\n      dup1\n        /* \"@openzeppelin/contracts/token/ERC20/ERC20.sol\":6579:6590  _allowances */\n      0x01\n        /* \"@openzeppelin/contracts/token/ERC20/ERC20.sol\":6579:6604  _allowances[_msgSender()] */\n      0x00\n        /* \"@openzeppelin/contracts/token/ERC20/ERC20.sol\":6591:6603  _msgSender() */\n      tag_207\n        /* \"@openzeppelin/contracts/token/ERC20/ERC20.sol\":6591:6601  _msgSender */\n      tag_139\n        /* \"@openzeppelin/contracts/token/ERC20/ERC20.sol\":6591:6603  _msgSender() */\n      jump\t// in\n    tag_207:\n        /* \"@openzeppelin/contracts/token/ERC20/ERC20.sol\":6579:6604  _allowances[_msgSender()] */\n      0xffffffffffffffffffffffffffffffffffffffff\n      and\n      0xffffffffffffffffffffffffffffffffffffffff\n      and\n      dup2\n      mstore\n      0x20\n      add\n      swap1\n      dup2\n      mstore\n      0x20\n      add\n      0x00\n      keccak256\n        /* \"@openzeppelin/contracts/token/ERC20/ERC20.sol\":6579:6613  _allowances[_msgSender()][spender] */\n      0x00\n        /* \"@openzeppelin/contracts/token/ERC20/ERC20.sol\":6605:6612  spender */\n      dup6\n        /* \"@openzeppelin/contracts/token/ERC20/ERC20.sol\":6579:6613  _allowances[_msgSender()][spender] */\n      0xffffffffffffffffffffffffffffffffffffffff\n      and\n      0xffffffffffffffffffffffffffffffffffffffff\n      and\n      dup2\n      mstore\n      0x20\n      add\n      swap1\n      dup2\n      mstore\n      0x20\n      add\n      0x00\n      keccak256\n      sload\n        /* \"@openzeppelin/contracts/token/ERC20/ERC20.sol\":6552:6613  uint256 currentAllowance = _allowances[_msgSender()][spender] */\n      swap1\n      pop\n        /* \"@openzeppelin/contracts/token/ERC20/ERC20.sol\":6651:6666  subtractedValue */\n      dup3\n        /* \"@openzeppelin/contracts/token/ERC20/ERC20.sol\":6631:6647  currentAllowance */\n      dup2\n        /* \"@openzeppelin/contracts/token/ERC20/ERC20.sol\":6631:6666  currentAllowance >= subtractedValue */\n      lt\n      iszero\n        /* \"@openzeppelin/contracts/token/ERC20/ERC20.sol\":6623:6708  require(currentAllowance >= subtractedValue, \"ERC20: decreased allowance below zero\") */\n      tag_208\n      jumpi\n      mload(0x40)\n      0x08c379a000000000000000000000000000000000000000000000000000000000\n      dup2\n      mstore\n      0x04\n      add\n      tag_209\n      swap1\n      tag_210\n      jump\t// in\n    tag_209:\n      mload(0x40)\n      dup1\n      swap2\n      sub\n      swap1\n      revert\n    tag_208:\n        /* \"@openzeppelin/contracts/token/ERC20/ERC20.sol\":6742:6809  _approve(_msgSender(), spender, currentAllowance - subtractedValue) */\n      tag_211\n        /* \"@openzeppelin/contracts/token/ERC20/ERC20.sol\":6751:6763  _msgSender() */\n      tag_212\n        /* \"@openzeppelin/contracts/token/ERC20/ERC20.sol\":6751:6761  _msgSender */\n      tag_139\n        /* \"@openzeppelin/contracts/token/ERC20/ERC20.sol\":6751:6763  _msgSender() */\n      jump\t// in\n    tag_212:\n        /* \"@openzeppelin/contracts/token/ERC20/ERC20.sol\":6765:6772  spender */\n      dup6\n        /* \"@openzeppelin/contracts/token/ERC20/ERC20.sol\":6793:6808  subtractedValue */\n      dup6\n        /* \"@openzeppelin/contracts/token/ERC20/ERC20.sol\":6774:6790  currentAllowance */\n      dup5\n        /* \"@openzeppelin/contracts/token/ERC20/ERC20.sol\":6774:6808  currentAllowance - subtractedValue */\n      sub\n        /* \"@openzeppelin/contracts/token/ERC20/ERC20.sol\":6742:6750  _approve */\n      tag_140\n        /* \"@openzeppelin/contracts/token/ERC20/ERC20.sol\":6742:6809  _approve(_msgSender(), spender, currentAllowance - subtractedValue) */\n      jump\t// in\n    tag_211:\n        /* \"@openzeppelin/contracts/token/ERC20/ERC20.sol\":6837:6841  true */\n      0x01\n        /* \"@openzeppelin/contracts/token/ERC20/ERC20.sol\":6830:6841  return true */\n      swap2\n      pop\n      pop\n        /* \"@openzeppelin/contracts/token/ERC20/ERC20.sol\":6443:6848  function decreaseAllowance(address spender, uint256 subtractedValue) public virtual returns (bool) {... */\n      swap3\n      swap2\n      pop\n      pop\n      jump\t// out\n        /* \"@openzeppelin/contracts/token/ERC20/ERC20.sol\":3721:3893  function transfer(address recipient, uint256 amount) public virtual override returns (bool) {... */\n    tag_111:\n        /* \"@openzeppelin/contracts/token/ERC20/ERC20.sol\":3807:3811  bool */\n      0x00\n        /* \"@openzeppelin/contracts/token/ERC20/ERC20.sol\":3823:3865  _transfer(_msgSender(), recipient, amount) */\n      tag_214\n        /* \"@openzeppelin/contracts/token/ERC20/ERC20.sol\":3833:3845  _msgSender() */\n      tag_215\n        /* \"@openzeppelin/contracts/token/ERC20/ERC20.sol\":3833:3843  _msgSender */\n      tag_139\n        /* \"@openzeppelin/contracts/token/ERC20/ERC20.sol\":3833:3845  _msgSender() */\n      jump\t// in\n    tag_215:\n        /* \"@openzeppelin/contracts/token/ERC20/ERC20.sol\":3847:3856  recipient */\n      dup5\n        /* \"@openzeppelin/contracts/token/ERC20/ERC20.sol\":3858:3864  amount */\n      dup5\n        /* \"@openzeppelin/contracts/token/ERC20/ERC20.sol\":3823:3832  _transfer */\n      tag_145\n        /* \"@openzeppelin/contracts/token/ERC20/ERC20.sol\":3823:3865  _transfer(_msgSender(), recipient, amount) */\n      jump\t// in\n    tag_214:\n        /* \"@openzeppelin/contracts/token/ERC20/ERC20.sol\":3882:3886  true */\n      0x01\n        /* \"@openzeppelin/contracts/token/ERC20/ERC20.sol\":3875:3886  return true */\n      swap1\n      pop\n        /* \"@openzeppelin/contracts/token/ERC20/ERC20.sol\":3721:3893  function transfer(address recipient, uint256 amount) public virtual override returns (bool) {... */\n      swap3\n      swap2\n      pop\n      pop\n      jump\t// out\n        /* \"Documents/GitHub/XRC-20Plus/contracts/XRC20Plus.sol\":2704:2739  CoinBank[] public CoinBank_Contract */\n    tag_116:\n      0x0b\n      dup2\n      dup2\n      sload\n      dup2\n      lt\n      tag_216\n      jumpi\n      0x00\n      dup1\n      revert\n    tag_216:\n      swap1\n      0x00\n      mstore\n      keccak256(0x00, 0x20)\n      add\n      0x00\n      swap2\n      pop\n      sload\n      swap1\n      0x0100\n      exp\n      swap1\n      div\n      0xffffffffffffffffffffffffffffffffffffffff\n      and\n      dup2\n      jump\t// out\n        /* \"Documents/GitHub/XRC-20Plus/contracts/XRC20Plus.sol\":5686:5997  function Redeem()public returns(bool){... */\n    tag_121:\n        /* \"Documents/GitHub/XRC-20Plus/contracts/XRC20Plus.sol\":5718:5722  bool */\n      0x00\n        /* \"Documents/GitHub/XRC-20Plus/contracts/XRC20Plus.sol\":5733:5762  address payable RedeemAddress */\n      dup1\n        /* \"Documents/GitHub/XRC-20Plus/contracts/XRC20Plus.sol\":5773:5783  msg.sender */\n      caller\n        /* \"Documents/GitHub/XRC-20Plus/contracts/XRC20Plus.sol\":5733:5784  address payable RedeemAddress = payable(msg.sender) */\n      swap1\n      pop\n        /* \"Documents/GitHub/XRC-20Plus/contracts/XRC20Plus.sol\":5835:5839  true */\n      0x01\n        /* \"Documents/GitHub/XRC-20Plus/contracts/XRC20Plus.sol\":5802:5839  accounts[RedeemAddress].exist == true */\n      iszero\n      iszero\n        /* \"Documents/GitHub/XRC-20Plus/contracts/XRC20Plus.sol\":5802:5810  accounts */\n      0x09\n        /* \"Documents/GitHub/XRC-20Plus/contracts/XRC20Plus.sol\":5802:5825  accounts[RedeemAddress] */\n      0x00\n        /* \"Documents/GitHub/XRC-20Plus/contracts/XRC20Plus.sol\":5811:5824  RedeemAddress */\n      dup4\n        /* \"Documents/GitHub/XRC-20Plus/contracts/XRC20Plus.sol\":5802:5825  accounts[RedeemAddress] */\n      0xffffffffffffffffffffffffffffffffffffffff\n      and\n      0xffffffffffffffffffffffffffffffffffffffff\n      and\n      dup2\n      mstore\n      0x20\n      add\n      swap1\n      dup2\n      mstore\n      0x20\n      add\n      0x00\n      keccak256\n        /* \"Documents/GitHub/XRC-20Plus/contracts/XRC20Plus.sol\":5802:5831  accounts[RedeemAddress].exist */\n      0x01\n      add\n      0x00\n      swap1\n      sload\n      swap1\n      0x0100\n      exp\n      swap1\n      div\n      0xff\n      and\n        /* \"Documents/GitHub/XRC-20Plus/contracts/XRC20Plus.sol\":5802:5839  accounts[RedeemAddress].exist == true */\n      iszero\n      iszero\n      eq\n        /* \"Documents/GitHub/XRC-20Plus/contracts/XRC20Plus.sol\":5794:5862  require(accounts[RedeemAddress].exist == true,\"User does not exist\") */\n      tag_219\n      jumpi\n      mload(0x40)\n      0x08c379a000000000000000000000000000000000000000000000000000000000\n      dup2\n      mstore\n      0x04\n      add\n      tag_220\n      swap1\n      tag_221\n      jump\t// in\n    tag_220:\n      mload(0x40)\n      dup1\n      swap2\n      sub\n      swap1\n      revert\n    tag_219:\n        /* \"Documents/GitHub/XRC-20Plus/contracts/XRC20Plus.sol\":5872:5885  RedeemAddress */\n      dup1\n        /* \"Documents/GitHub/XRC-20Plus/contracts/XRC20Plus.sol\":5872:5894  RedeemAddress.transfer */\n      0xffffffffffffffffffffffffffffffffffffffff\n      and\n        /* \"Documents/GitHub/XRC-20Plus/contracts/XRC20Plus.sol\":5872:5924  RedeemAddress.transfer(accounts[msg.sender].ammount) */\n      0x08fc\n        /* \"Documents/GitHub/XRC-20Plus/contracts/XRC20Plus.sol\":5895:5903  accounts */\n      0x09\n        /* \"Documents/GitHub/XRC-20Plus/contracts/XRC20Plus.sol\":5895:5915  accounts[msg.sender] */\n      0x00\n        /* \"Documents/GitHub/XRC-20Plus/contracts/XRC20Plus.sol\":5904:5914  msg.sender */\n      caller\n        /* \"Documents/GitHub/XRC-20Plus/contracts/XRC20Plus.sol\":5895:5915  accounts[msg.sender] */\n      0xffffffffffffffffffffffffffffffffffffffff\n      and\n      0xffffffffffffffffffffffffffffffffffffffff\n      and\n      dup2\n      mstore\n      0x20\n      add\n      swap1\n      dup2\n      mstore\n      0x20\n      add\n      0x00\n      keccak256\n        /* \"Documents/GitHub/XRC-20Plus/contracts/XRC20Plus.sol\":5895:5923  accounts[msg.sender].ammount */\n      0x00\n      add\n      sload\n        /* \"Documents/GitHub/XRC-20Plus/contracts/XRC20Plus.sol\":5872:5924  RedeemAddress.transfer(accounts[msg.sender].ammount) */\n      swap1\n      dup2\n      iszero\n      mul\n      swap1\n      mload(0x40)\n      0x00\n      mload(0x40)\n      dup1\n      dup4\n      sub\n      dup2\n      dup6\n      dup9\n      dup9\n      call\n      swap4\n      pop\n      pop\n      pop\n      pop\n      iszero\n      dup1\n      iszero\n      tag_223\n      jumpi\n      returndatasize\n      0x00\n      dup1\n      returndatacopy\n      revert(0x00, returndatasize)\n    tag_223:\n      pop\n        /* \"Documents/GitHub/XRC-20Plus/contracts/XRC20Plus.sol\":5963:5964  0 */\n      0x00\n        /* \"Documents/GitHub/XRC-20Plus/contracts/XRC20Plus.sol\":5934:5942  accounts */\n      0x09\n        /* \"Documents/GitHub/XRC-20Plus/contracts/XRC20Plus.sol\":5934:5954  accounts[msg.sender] */\n      0x00\n        /* \"Documents/GitHub/XRC-20Plus/contracts/XRC20Plus.sol\":5943:5953  msg.sender */\n      caller\n        /* \"Documents/GitHub/XRC-20Plus/contracts/XRC20Plus.sol\":5934:5954  accounts[msg.sender] */\n      0xffffffffffffffffffffffffffffffffffffffff\n      and\n      0xffffffffffffffffffffffffffffffffffffffff\n      and\n      dup2\n      mstore\n      0x20\n      add\n      swap1\n      dup2\n      mstore\n      0x20\n      add\n      0x00\n      keccak256\n        /* \"Documents/GitHub/XRC-20Plus/contracts/XRC20Plus.sol\":5934:5962  accounts[msg.sender].ammount */\n      0x00\n      add\n        /* \"Documents/GitHub/XRC-20Plus/contracts/XRC20Plus.sol\":5934:5964  accounts[msg.sender].ammount=0 */\n      dup2\n      swap1\n      sstore\n      pop\n        /* \"Documents/GitHub/XRC-20Plus/contracts/XRC20Plus.sol\":5981:5985  true */\n      0x01\n        /* \"Documents/GitHub/XRC-20Plus/contracts/XRC20Plus.sol\":5974:5985  return true */\n      swap2\n      pop\n      pop\n        /* \"Documents/GitHub/XRC-20Plus/contracts/XRC20Plus.sol\":5686:5997  function Redeem()public returns(bool){... */\n      swap1\n      jump\t// out\n        /* \"@openzeppelin/contracts/token/ERC20/ERC20.sol\":3951:4100  function allowance(address owner, address spender) public view virtual override returns (uint256) {... */\n    tag_127:\n        /* \"@openzeppelin/contracts/token/ERC20/ERC20.sol\":4040:4047  uint256 */\n      0x00\n        /* \"@openzeppelin/contracts/token/ERC20/ERC20.sol\":4066:4077  _allowances */\n      0x01\n        /* \"@openzeppelin/contracts/token/ERC20/ERC20.sol\":4066:4084  _allowances[owner] */\n      0x00\n        /* \"@openzeppelin/contracts/token/ERC20/ERC20.sol\":4078:4083  owner */\n      dup5\n        /* \"@openzeppelin/contracts/token/ERC20/ERC20.sol\":4066:4084  _allowances[owner] */\n      0xffffffffffffffffffffffffffffffffffffffff\n      and\n      0xffffffffffffffffffffffffffffffffffffffff\n      and\n      dup2\n      mstore\n      0x20\n      add\n      swap1\n      dup2\n      mstore\n      0x20\n      add\n      0x00\n      keccak256\n        /* \"@openzeppelin/contracts/token/ERC20/ERC20.sol\":4066:4093  _allowances[owner][spender] */\n      0x00\n        /* \"@openzeppelin/contracts/token/ERC20/ERC20.sol\":4085:4092  spender */\n      dup4\n        /* \"@openzeppelin/contracts/token/ERC20/ERC20.sol\":4066:4093  _allowances[owner][spender] */\n      0xffffffffffffffffffffffffffffffffffffffff\n      and\n      0xffffffffffffffffffffffffffffffffffffffff\n      and\n      dup2\n      mstore\n      0x20\n      add\n      swap1\n      dup2\n      mstore\n      0x20\n      add\n      0x00\n      keccak256\n      sload\n        /* \"@openzeppelin/contracts/token/ERC20/ERC20.sol\":4059:4093  return _allowances[owner][spender] */\n      swap1\n      pop\n        /* \"@openzeppelin/contracts/token/ERC20/ERC20.sol\":3951:4100  function allowance(address owner, address spender) public view virtual override returns (uint256) {... */\n      swap3\n      swap2\n      pop\n      pop\n      jump\t// out\n        /* \"@openzeppelin/contracts/utils/Context.sol\":640:736  function _msgSender() internal view virtual returns (address) {... */\n    tag_139:\n        /* \"@openzeppelin/contracts/utils/Context.sol\":693:700  address */\n      0x00\n        /* \"@openzeppelin/contracts/utils/Context.sol\":719:729  msg.sender */\n      caller\n        /* \"@openzeppelin/contracts/utils/Context.sol\":712:729  return msg.sender */\n      swap1\n      pop\n        /* \"@openzeppelin/contracts/utils/Context.sol\":640:736  function _msgSender() internal view virtual returns (address) {... */\n      swap1\n      jump\t// out\n        /* \"@openzeppelin/contracts/token/ERC20/ERC20.sol\":10019:10389  function _approve(... */\n    tag_140:\n        /* \"@openzeppelin/contracts/token/ERC20/ERC20.sol\":10167:10168  0 */\n      0x00\n        /* \"@openzeppelin/contracts/token/ERC20/ERC20.sol\":10150:10169  owner != address(0) */\n      0xffffffffffffffffffffffffffffffffffffffff\n      and\n        /* \"@openzeppelin/contracts/token/ERC20/ERC20.sol\":10150:10155  owner */\n      dup4\n        /* \"@openzeppelin/contracts/token/ERC20/ERC20.sol\":10150:10169  owner != address(0) */\n      0xffffffffffffffffffffffffffffffffffffffff\n      and\n      sub\n        /* \"@openzeppelin/contracts/token/ERC20/ERC20.sol\":10142:10210  require(owner != address(0), \"ERC20: approve from the zero address\") */\n      tag_227\n      jumpi\n      mload(0x40)\n      0x08c379a000000000000000000000000000000000000000000000000000000000\n      dup2\n      mstore\n      0x04\n      add\n      tag_228\n      swap1\n      tag_229\n      jump\t// in\n    tag_228:\n      mload(0x40)\n      dup1\n      swap2\n      sub\n      swap1\n      revert\n    tag_227:\n        /* \"@openzeppelin/contracts/token/ERC20/ERC20.sol\":10247:10248  0 */\n      0x00\n        /* \"@openzeppelin/contracts/token/ERC20/ERC20.sol\":10228:10249  spender != address(0) */\n      0xffffffffffffffffffffffffffffffffffffffff\n      and\n        /* \"@openzeppelin/contracts/token/ERC20/ERC20.sol\":10228:10235  spender */\n      dup3\n        /* \"@openzeppelin/contracts/token/ERC20/ERC20.sol\":10228:10249  spender != address(0) */\n      0xffffffffffffffffffffffffffffffffffffffff\n      and\n      sub\n        /* \"@openzeppelin/contracts/token/ERC20/ERC20.sol\":10220:10288  require(spender != address(0), \"ERC20: approve to the zero address\") */\n      tag_230\n      jumpi\n      mload(0x40)\n      0x08c379a000000000000000000000000000000000000000000000000000000000\n      dup2\n      mstore\n      0x04\n      add\n      tag_231\n      swap1\n      tag_232\n      jump\t// in\n    tag_231:\n      mload(0x40)\n      dup1\n      swap2\n      sub\n      swap1\n      revert\n    tag_230:\n        /* \"@openzeppelin/contracts/token/ERC20/ERC20.sol\":10329:10335  amount */\n      dup1\n        /* \"@openzeppelin/contracts/token/ERC20/ERC20.sol\":10299:10310  _allowances */\n      0x01\n        /* \"@openzeppelin/contracts/token/ERC20/ERC20.sol\":10299:10317  _allowances[owner] */\n      0x00\n        /* \"@openzeppelin/contracts/token/ERC20/ERC20.sol\":10311:10316  owner */\n      dup6\n        /* \"@openzeppelin/contracts/token/ERC20/ERC20.sol\":10299:10317  _allowances[owner] */\n      0xffffffffffffffffffffffffffffffffffffffff\n      and\n      0xffffffffffffffffffffffffffffffffffffffff\n      and\n      dup2\n      mstore\n      0x20\n      add\n      swap1\n      dup2\n      mstore\n      0x20\n      add\n      0x00\n      keccak256\n        /* \"@openzeppelin/contracts/token/ERC20/ERC20.sol\":10299:10326  _allowances[owner][spender] */\n      0x00\n        /* \"@openzeppelin/contracts/token/ERC20/ERC20.sol\":10318:10325  spender */\n      dup5\n        /* \"@openzeppelin/contracts/token/ERC20/ERC20.sol\":10299:10326  _allowances[owner][spender] */\n      0xffffffffffffffffffffffffffffffffffffffff\n      and\n      0xffffffffffffffffffffffffffffffffffffffff\n      and\n      dup2\n      mstore\n      0x20\n      add\n      swap1\n      dup2\n      mstore\n      0x20\n      add\n      0x00\n      keccak256\n        /* \"@openzeppelin/contracts/token/ERC20/ERC20.sol\":10299:10335  _allowances[owner][spender] = amount */\n      dup2\n      swap1\n      sstore\n      pop\n        /* \"@openzeppelin/contracts/token/ERC20/ERC20.sol\":10366:10373  spender */\n      dup2\n        /* \"@openzeppelin/contracts/token/ERC20/ERC20.sol\":10350:10382  Approval(owner, spender, amount) */\n      0xffffffffffffffffffffffffffffffffffffffff\n      and\n        /* \"@openzeppelin/contracts/token/ERC20/ERC20.sol\":10359:10364  owner */\n      dup4\n        /* \"@openzeppelin/contracts/token/ERC20/ERC20.sol\":10350:10382  Approval(owner, spender, amount) */\n      0xffffffffffffffffffffffffffffffffffffffff\n      and\n      0x8c5be1e5ebec7d5bd14f71427d1e84f3dd0314c0f7b2291e5b200ac8c7c3b925\n        /* \"@openzeppelin/contracts/token/ERC20/ERC20.sol\":10375:10381  amount */\n      dup4\n        /* \"@openzeppelin/contracts/token/ERC20/ERC20.sol\":10350:10382  Approval(owner, spender, amount) */\n      mload(0x40)\n      tag_233\n      swap2\n      swap1\n      tag_48\n      jump\t// in\n    tag_233:\n      mload(0x40)\n      dup1\n      swap2\n      sub\n      swap1\n      log3\n        /* \"@openzeppelin/contracts/token/ERC20/ERC20.sol\":10019:10389  function _approve(... */\n      pop\n      pop\n      pop\n      jump\t// out\n        /* \"@openzeppelin/contracts/token/ERC20/ERC20.sol\":7322:8035  function _transfer(... */\n    tag_145:\n        /* \"@openzeppelin/contracts/token/ERC20/ERC20.sol\":7475:7476  0 */\n      0x00\n        /* \"@openzeppelin/contracts/token/ERC20/ERC20.sol\":7457:7477  sender != address(0) */\n      0xffffffffffffffffffffffffffffffffffffffff\n      and\n        /* \"@openzeppelin/contracts/token/ERC20/ERC20.sol\":7457:7463  sender */\n      dup4\n        /* \"@openzeppelin/contracts/token/ERC20/ERC20.sol\":7457:7477  sender != address(0) */\n      0xffffffffffffffffffffffffffffffffffffffff\n      and\n      sub\n        /* \"@openzeppelin/contracts/token/ERC20/ERC20.sol\":7449:7519  require(sender != address(0), \"ERC20: transfer from the zero address\") */\n      tag_235\n      jumpi\n      mload(0x40)\n      0x08c379a000000000000000000000000000000000000000000000000000000000\n      dup2\n      mstore\n      0x04\n      add\n      tag_236\n      swap1\n      tag_237\n      jump\t// in\n    tag_236:\n      mload(0x40)\n      dup1\n      swap2\n      sub\n      swap1\n      revert\n    tag_235:\n        /* \"@openzeppelin/contracts/token/ERC20/ERC20.sol\":7558:7559  0 */\n      0x00\n        /* \"@openzeppelin/contracts/token/ERC20/ERC20.sol\":7537:7560  recipient != address(0) */\n      0xffffffffffffffffffffffffffffffffffffffff\n      and\n        /* \"@openzeppelin/contracts/token/ERC20/ERC20.sol\":7537:7546  recipient */\n      dup3\n        /* \"@openzeppelin/contracts/token/ERC20/ERC20.sol\":7537:7560  recipient != address(0) */\n      0xffffffffffffffffffffffffffffffffffffffff\n      and\n      sub\n        /* \"@openzeppelin/contracts/token/ERC20/ERC20.sol\":7529:7600  require(recipient != address(0), \"ERC20: transfer to the zero address\") */\n      tag_238\n      jumpi\n      mload(0x40)\n      0x08c379a000000000000000000000000000000000000000000000000000000000\n      dup2\n      mstore\n      0x04\n      add\n      tag_239\n      swap1\n      tag_240\n      jump\t// in\n    tag_239:\n      mload(0x40)\n      dup1\n      swap2\n      sub\n      swap1\n      revert\n    tag_238:\n        /* \"@openzeppelin/contracts/token/ERC20/ERC20.sol\":7611:7658  _beforeTokenTransfer(sender, recipient, amount) */\n      tag_241\n        /* \"@openzeppelin/contracts/token/ERC20/ERC20.sol\":7632:7638  sender */\n      dup4\n        /* \"@openzeppelin/contracts/token/ERC20/ERC20.sol\":7640:7649  recipient */\n      dup4\n        /* \"@openzeppelin/contracts/token/ERC20/ERC20.sol\":7651:7657  amount */\n      dup4\n        /* \"@openzeppelin/contracts/token/ERC20/ERC20.sol\":7611:7631  _beforeTokenTransfer */\n      tag_242\n        /* \"@openzeppelin/contracts/token/ERC20/ERC20.sol\":7611:7658  _beforeTokenTransfer(sender, recipient, amount) */\n      jump\t// in\n    tag_241:\n        /* \"@openzeppelin/contracts/token/ERC20/ERC20.sol\":7669:7690  uint256 senderBalance */\n      0x00\n        /* \"@openzeppelin/contracts/token/ERC20/ERC20.sol\":7693:7702  _balances */\n      dup1\n        /* \"@openzeppelin/contracts/token/ERC20/ERC20.sol\":7693:7710  _balances[sender] */\n      0x00\n        /* \"@openzeppelin/contracts/token/ERC20/ERC20.sol\":7703:7709  sender */\n      dup6\n        /* \"@openzeppelin/contracts/token/ERC20/ERC20.sol\":7693:7710  _balances[sender] */\n      0xffffffffffffffffffffffffffffffffffffffff\n      and\n      0xffffffffffffffffffffffffffffffffffffffff\n      and\n      dup2\n      mstore\n      0x20\n      add\n      swap1\n      dup2\n      mstore\n      0x20\n      add\n      0x00\n      keccak256\n      sload\n        /* \"@openzeppelin/contracts/token/ERC20/ERC20.sol\":7669:7710  uint256 senderBalance = _balances[sender] */\n      swap1\n      pop\n        /* \"@openzeppelin/contracts/token/ERC20/ERC20.sol\":7745:7751  amount */\n      dup2\n        /* \"@openzeppelin/contracts/token/ERC20/ERC20.sol\":7728:7741  senderBalance */\n      dup2\n        /* \"@openzeppelin/contracts/token/ERC20/ERC20.sol\":7728:7751  senderBalance >= amount */\n      lt\n      iszero\n        /* \"@openzeppelin/contracts/token/ERC20/ERC20.sol\":7720:7794  require(senderBalance >= amount, \"ERC20: transfer amount exceeds balance\") */\n      tag_243\n      jumpi\n      mload(0x40)\n      0x08c379a000000000000000000000000000000000000000000000000000000000\n      dup2\n      mstore\n      0x04\n      add\n      tag_244\n      swap1\n      tag_245\n      jump\t// in\n    tag_244:\n      mload(0x40)\n      dup1\n      swap2\n      sub\n      swap1\n      revert\n    tag_243:\n        /* \"@openzeppelin/contracts/token/ERC20/ERC20.sol\":7864:7870  amount */\n      dup2\n        /* \"@openzeppelin/contracts/token/ERC20/ERC20.sol\":7848:7861  senderBalance */\n      dup2\n        /* \"@openzeppelin/contracts/token/ERC20/ERC20.sol\":7848:7870  senderBalance - amount */\n      sub\n        /* \"@openzeppelin/contracts/token/ERC20/ERC20.sol\":7828:7837  _balances */\n      0x00\n        /* \"@openzeppelin/contracts/token/ERC20/ERC20.sol\":7828:7845  _balances[sender] */\n      dup1\n        /* \"@openzeppelin/contracts/token/ERC20/ERC20.sol\":7838:7844  sender */\n      dup7\n        /* \"@openzeppelin/contracts/token/ERC20/ERC20.sol\":7828:7845  _balances[sender] */\n      0xffffffffffffffffffffffffffffffffffffffff\n      and\n      0xffffffffffffffffffffffffffffffffffffffff\n      and\n      dup2\n      mstore\n      0x20\n      add\n      swap1\n      dup2\n      mstore\n      0x20\n      add\n      0x00\n      keccak256\n        /* \"@openzeppelin/contracts/token/ERC20/ERC20.sol\":7828:7870  _balances[sender] = senderBalance - amount */\n      dup2\n      swap1\n      sstore\n      pop\n        /* \"@openzeppelin/contracts/token/ERC20/ERC20.sol\":7914:7920  amount */\n      dup2\n        /* \"@openzeppelin/contracts/token/ERC20/ERC20.sol\":7890:7899  _balances */\n      0x00\n        /* \"@openzeppelin/contracts/token/ERC20/ERC20.sol\":7890:7910  _balances[recipient] */\n      dup1\n        /* \"@openzeppelin/contracts/token/ERC20/ERC20.sol\":7900:7909  recipient */\n      dup6\n        /* \"@openzeppelin/contracts/token/ERC20/ERC20.sol\":7890:7910  _balances[recipient] */\n      0xffffffffffffffffffffffffffffffffffffffff\n      and\n      0xffffffffffffffffffffffffffffffffffffffff\n      and\n      dup2\n      mstore\n      0x20\n      add\n      swap1\n      dup2\n      mstore\n      0x20\n      add\n      0x00\n      keccak256\n      0x00\n        /* \"@openzeppelin/contracts/token/ERC20/ERC20.sol\":7890:7920  _balances[recipient] += amount */\n      dup3\n      dup3\n      sload\n      tag_246\n      swap2\n      swap1\n      tag_158\n      jump\t// in\n    tag_246:\n      swap3\n      pop\n      pop\n      dup2\n      swap1\n      sstore\n      pop\n        /* \"@openzeppelin/contracts/token/ERC20/ERC20.sol\":7953:7962  recipient */\n      dup3\n        /* \"@openzeppelin/contracts/token/ERC20/ERC20.sol\":7936:7971  Transfer(sender, recipient, amount) */\n      0xffffffffffffffffffffffffffffffffffffffff\n      and\n        /* \"@openzeppelin/contracts/token/ERC20/ERC20.sol\":7945:7951  sender */\n      dup5\n        /* \"@openzeppelin/contracts/token/ERC20/ERC20.sol\":7936:7971  Transfer(sender, recipient, amount) */\n      0xffffffffffffffffffffffffffffffffffffffff\n      and\n      0xddf252ad1be2c89b69c2b068fc378daa952ba7f163c4a11628f55a4df523b3ef\n        /* \"@openzeppelin/contracts/token/ERC20/ERC20.sol\":7964:7970  amount */\n      dup5\n        /* \"@openzeppelin/contracts/token/ERC20/ERC20.sol\":7936:7971  Transfer(sender, recipient, amount) */\n      mload(0x40)\n      tag_247\n      swap2\n      swap1\n      tag_48\n      jump\t// in\n    tag_247:\n      mload(0x40)\n      dup1\n      swap2\n      sub\n      swap1\n      log3\n        /* \"@openzeppelin/contracts/token/ERC20/ERC20.sol\":7982:8028  _afterTokenTransfer(sender, recipient, amount) */\n      tag_248\n        /* \"@openzeppelin/contracts/token/ERC20/ERC20.sol\":8002:8008  sender */\n      dup5\n        /* \"@openzeppelin/contracts/token/ERC20/ERC20.sol\":8010:8019  recipient */\n      dup5\n        /* \"@openzeppelin/contracts/token/ERC20/ERC20.sol\":8021:8027  amount */\n      dup5\n        /* \"@openzeppelin/contracts/token/ERC20/ERC20.sol\":7982:8001  _afterTokenTransfer */\n      tag_249\n        /* \"@openzeppelin/contracts/token/ERC20/ERC20.sol\":7982:8028  _afterTokenTransfer(sender, recipient, amount) */\n      jump\t// in\n    tag_248:\n        /* \"@openzeppelin/contracts/token/ERC20/ERC20.sol\":7439:8035  {... */\n      pop\n        /* \"@openzeppelin/contracts/token/ERC20/ERC20.sol\":7322:8035  function _transfer(... */\n      pop\n      pop\n      pop\n      jump\t// out\n        /* \"Documents/GitHub/XRC-20Plus/contracts/XRC20Plus.sol\":5209:5644  function InternalAccounting(uint _shardHolder,uint _singleShard)internal returns(uint,uint){... */\n    tag_191:\n        /* \"Documents/GitHub/XRC-20Plus/contracts/XRC20Plus.sol\":5290:5294  uint */\n      0x00\n        /* \"Documents/GitHub/XRC-20Plus/contracts/XRC20Plus.sol\":5295:5299  uint */\n      dup1\n        /* \"Documents/GitHub/XRC-20Plus/contracts/XRC20Plus.sol\":5310:5331  address Serach_result */\n      0x00\n        /* \"Documents/GitHub/XRC-20Plus/contracts/XRC20Plus.sol\":5334:5340  ledger */\n      0x0a\n        /* \"Documents/GitHub/XRC-20Plus/contracts/XRC20Plus.sol\":5334:5357  ledger[Account_Counter] */\n      0x00\n        /* \"Documents/GitHub/XRC-20Plus/contracts/XRC20Plus.sol\":5341:5356  Account_Counter */\n      sload(0x06)\n        /* \"Documents/GitHub/XRC-20Plus/contracts/XRC20Plus.sol\":5334:5357  ledger[Account_Counter] */\n      dup2\n      mstore\n      0x20\n      add\n      swap1\n      dup2\n      mstore\n      0x20\n      add\n      0x00\n      keccak256\n        /* \"Documents/GitHub/XRC-20Plus/contracts/XRC20Plus.sol\":5334:5365  ledger[Account_Counter].account */\n      0x00\n      add\n      0x00\n      swap1\n      sload\n      swap1\n      0x0100\n      exp\n      swap1\n      div\n      0xffffffffffffffffffffffffffffffffffffffff\n      and\n        /* \"Documents/GitHub/XRC-20Plus/contracts/XRC20Plus.sol\":5310:5365  address Serach_result = ledger[Account_Counter].account */\n      swap1\n      pop\n        /* \"Documents/GitHub/XRC-20Plus/contracts/XRC20Plus.sol\":5408:5412  true */\n      0x01\n        /* \"Documents/GitHub/XRC-20Plus/contracts/XRC20Plus.sol\":5378:5412  ledger[_shardHolder].exist == true */\n      iszero\n      iszero\n        /* \"Documents/GitHub/XRC-20Plus/contracts/XRC20Plus.sol\":5378:5384  ledger */\n      0x0a\n        /* \"Documents/GitHub/XRC-20Plus/contracts/XRC20Plus.sol\":5378:5398  ledger[_shardHolder] */\n      0x00\n        /* \"Documents/GitHub/XRC-20Plus/contracts/XRC20Plus.sol\":5385:5397  _shardHolder */\n      dup8\n        /* \"Documents/GitHub/XRC-20Plus/contracts/XRC20Plus.sol\":5378:5398  ledger[_shardHolder] */\n      dup2\n      mstore\n      0x20\n      add\n      swap1\n      dup2\n      mstore\n      0x20\n      add\n      0x00\n      keccak256\n        /* \"Documents/GitHub/XRC-20Plus/contracts/XRC20Plus.sol\":5378:5404  ledger[_shardHolder].exist */\n      0x00\n      add\n      0x14\n      swap1\n      sload\n      swap1\n      0x0100\n      exp\n      swap1\n      div\n      0xff\n      and\n        /* \"Documents/GitHub/XRC-20Plus/contracts/XRC20Plus.sol\":5378:5412  ledger[_shardHolder].exist == true */\n      iszero\n      iszero\n      eq\n        /* \"Documents/GitHub/XRC-20Plus/contracts/XRC20Plus.sol\":5378:5451  ledger[_shardHolder].exist == true && accounts[Serach_result].ammount > 0 */\n      dup1\n      iszero\n      tag_251\n      jumpi\n      pop\n        /* \"Documents/GitHub/XRC-20Plus/contracts/XRC20Plus.sol\":5450:5451  0 */\n      0x00\n        /* \"Documents/GitHub/XRC-20Plus/contracts/XRC20Plus.sol\":5416:5424  accounts */\n      0x09\n        /* \"Documents/GitHub/XRC-20Plus/contracts/XRC20Plus.sol\":5416:5439  accounts[Serach_result] */\n      0x00\n        /* \"Documents/GitHub/XRC-20Plus/contracts/XRC20Plus.sol\":5425:5438  Serach_result */\n      dup4\n        /* \"Documents/GitHub/XRC-20Plus/contracts/XRC20Plus.sol\":5416:5439  accounts[Serach_result] */\n      0xffffffffffffffffffffffffffffffffffffffff\n      and\n      0xffffffffffffffffffffffffffffffffffffffff\n      and\n      dup2\n      mstore\n      0x20\n      add\n      swap1\n      dup2\n      mstore\n      0x20\n      add\n      0x00\n      keccak256\n        /* \"Documents/GitHub/XRC-20Plus/contracts/XRC20Plus.sol\":5416:5447  accounts[Serach_result].ammount */\n      0x00\n      add\n      sload\n        /* \"Documents/GitHub/XRC-20Plus/contracts/XRC20Plus.sol\":5416:5451  accounts[Serach_result].ammount > 0 */\n      gt\n        /* \"Documents/GitHub/XRC-20Plus/contracts/XRC20Plus.sol\":5378:5451  ledger[_shardHolder].exist == true && accounts[Serach_result].ammount > 0 */\n    tag_251:\n        /* \"Documents/GitHub/XRC-20Plus/contracts/XRC20Plus.sol\":5375:5569  if(ledger[_shardHolder].exist == true && accounts[Serach_result].ammount > 0){... */\n      iszero\n      tag_252\n      jumpi\n        /* \"Documents/GitHub/XRC-20Plus/contracts/XRC20Plus.sol\":5546:5558  _singleShard */\n      dup4\n        /* \"Documents/GitHub/XRC-20Plus/contracts/XRC20Plus.sol\":5501:5543  balanceOf(ledger[Account_Counter].account) */\n      tag_253\n        /* \"Documents/GitHub/XRC-20Plus/contracts/XRC20Plus.sol\":5511:5517  ledger */\n      0x0a\n        /* \"Documents/GitHub/XRC-20Plus/contracts/XRC20Plus.sol\":5511:5534  ledger[Account_Counter] */\n      0x00\n        /* \"Documents/GitHub/XRC-20Plus/contracts/XRC20Plus.sol\":5518:5533  Account_Counter */\n      sload(0x06)\n        /* \"Documents/GitHub/XRC-20Plus/contracts/XRC20Plus.sol\":5511:5534  ledger[Account_Counter] */\n      dup2\n      mstore\n      0x20\n      add\n      swap1\n      dup2\n      mstore\n      0x20\n      add\n      0x00\n      keccak256\n        /* \"Documents/GitHub/XRC-20Plus/contracts/XRC20Plus.sol\":5511:5542  ledger[Account_Counter].account */\n      0x00\n      add\n      0x00\n      swap1\n      sload\n      swap1\n      0x0100\n      exp\n      swap1\n      div\n      0xffffffffffffffffffffffffffffffffffffffff\n      and\n        /* \"Documents/GitHub/XRC-20Plus/contracts/XRC20Plus.sol\":5501:5510  balanceOf */\n      tag_86\n        /* \"Documents/GitHub/XRC-20Plus/contracts/XRC20Plus.sol\":5501:5543  balanceOf(ledger[Account_Counter].account) */\n      jump\t// in\n    tag_253:\n        /* \"Documents/GitHub/XRC-20Plus/contracts/XRC20Plus.sol\":5501:5558  balanceOf(ledger[Account_Counter].account) * _singleShard */\n      tag_254\n      swap2\n      swap1\n      tag_255\n      jump\t// in\n    tag_254:\n        /* \"Documents/GitHub/XRC-20Plus/contracts/XRC20Plus.sol\":5466:5474  accounts */\n      0x09\n        /* \"Documents/GitHub/XRC-20Plus/contracts/XRC20Plus.sol\":5466:5489  accounts[Serach_result] */\n      0x00\n        /* \"Documents/GitHub/XRC-20Plus/contracts/XRC20Plus.sol\":5475:5488  Serach_result */\n      dup4\n        /* \"Documents/GitHub/XRC-20Plus/contracts/XRC20Plus.sol\":5466:5489  accounts[Serach_result] */\n      0xffffffffffffffffffffffffffffffffffffffff\n      and\n      0xffffffffffffffffffffffffffffffffffffffff\n      and\n      dup2\n      mstore\n      0x20\n      add\n      swap1\n      dup2\n      mstore\n      0x20\n      add\n      0x00\n      keccak256\n        /* \"Documents/GitHub/XRC-20Plus/contracts/XRC20Plus.sol\":5466:5497  accounts[Serach_result].ammount */\n      0x00\n      add\n      0x00\n        /* \"Documents/GitHub/XRC-20Plus/contracts/XRC20Plus.sol\":5466:5558  accounts[Serach_result].ammount += balanceOf(ledger[Account_Counter].account) * _singleShard */\n      dup3\n      dup3\n      sload\n      tag_256\n      swap2\n      swap1\n      tag_158\n      jump\t// in\n    tag_256:\n      swap3\n      pop\n      pop\n      dup2\n      swap1\n      sstore\n      pop\n        /* \"Documents/GitHub/XRC-20Plus/contracts/XRC20Plus.sol\":5375:5569  if(ledger[_shardHolder].exist == true && accounts[Serach_result].ammount > 0){... */\n    tag_252:\n        /* \"Documents/GitHub/XRC-20Plus/contracts/XRC20Plus.sol\":5586:5598  _shardHolder */\n      dup5\n        /* \"Documents/GitHub/XRC-20Plus/contracts/XRC20Plus.sol\":5599:5607  accounts */\n      0x09\n        /* \"Documents/GitHub/XRC-20Plus/contracts/XRC20Plus.sol\":5599:5622  accounts[Serach_result] */\n      0x00\n        /* \"Documents/GitHub/XRC-20Plus/contracts/XRC20Plus.sol\":5608:5621  Serach_result */\n      dup4\n        /* \"Documents/GitHub/XRC-20Plus/contracts/XRC20Plus.sol\":5599:5622  accounts[Serach_result] */\n      0xffffffffffffffffffffffffffffffffffffffff\n      and\n      0xffffffffffffffffffffffffffffffffffffffff\n      and\n      dup2\n      mstore\n      0x20\n      add\n      swap1\n      dup2\n      mstore\n      0x20\n      add\n      0x00\n      keccak256\n        /* \"Documents/GitHub/XRC-20Plus/contracts/XRC20Plus.sol\":5599:5630  accounts[Serach_result].ammount */\n      0x00\n      add\n      sload\n        /* \"Documents/GitHub/XRC-20Plus/contracts/XRC20Plus.sol\":5578:5631  return (_shardHolder,accounts[Serach_result].ammount) */\n      swap3\n      pop\n      swap3\n      pop\n      pop\n        /* \"Documents/GitHub/XRC-20Plus/contracts/XRC20Plus.sol\":5209:5644  function InternalAccounting(uint _shardHolder,uint _singleShard)internal returns(uint,uint){... */\n      swap3\n      pop\n      swap3\n      swap1\n      pop\n      jump\t// out\n        /* \"@openzeppelin/contracts/token/ERC20/ERC20.sol\":10973:11094  function _beforeTokenTransfer(... */\n    tag_242:\n      pop\n      pop\n      pop\n      jump\t// out\n        /* \"@openzeppelin/contracts/token/ERC20/ERC20.sol\":11682:11802  function _afterTokenTransfer(... */\n    tag_249:\n      pop\n      pop\n      pop\n      jump\t// out\n        /* \"#utility.yul\":7:106   */\n    tag_259:\n        /* \"#utility.yul\":59:65   */\n      0x00\n        /* \"#utility.yul\":93:98   */\n      dup2\n        /* \"#utility.yul\":87:99   */\n      mload\n        /* \"#utility.yul\":77:99   */\n      swap1\n      pop\n        /* \"#utility.yul\":7:106   */\n      swap2\n      swap1\n      pop\n      jump\t// out\n        /* \"#utility.yul\":112:281   */\n    tag_260:\n        /* \"#utility.yul\":196:207   */\n      0x00\n        /* \"#utility.yul\":230:236   */\n      dup3\n        /* \"#utility.yul\":225:228   */\n      dup3\n        /* \"#utility.yul\":218:237   */\n      mstore\n        /* \"#utility.yul\":270:274   */\n      0x20\n        /* \"#utility.yul\":265:268   */\n      dup3\n        /* \"#utility.yul\":261:275   */\n      add\n        /* \"#utility.yul\":246:275   */\n      swap1\n      pop\n        /* \"#utility.yul\":112:281   */\n      swap3\n      swap2\n      pop\n      pop\n      jump\t// out\n        /* \"#utility.yul\":287:594   */\n    tag_261:\n        /* \"#utility.yul\":355:356   */\n      0x00\n        /* \"#utility.yul\":365:478   */\n    tag_328:\n        /* \"#utility.yul\":379:385   */\n      dup4\n        /* \"#utility.yul\":376:377   */\n      dup2\n        /* \"#utility.yul\":373:386   */\n      lt\n        /* \"#utility.yul\":365:478   */\n      iszero\n      tag_330\n      jumpi\n        /* \"#utility.yul\":464:465   */\n      dup1\n        /* \"#utility.yul\":459:462   */\n      dup3\n        /* \"#utility.yul\":455:466   */\n      add\n        /* \"#utility.yul\":449:467   */\n      mload\n        /* \"#utility.yul\":445:446   */\n      dup2\n        /* \"#utility.yul\":440:443   */\n      dup5\n        /* \"#utility.yul\":436:447   */\n      add\n        /* \"#utility.yul\":429:468   */\n      mstore\n        /* \"#utility.yul\":401:403   */\n      0x20\n        /* \"#utility.yul\":398:399   */\n      dup2\n        /* \"#utility.yul\":394:404   */\n      add\n        /* \"#utility.yul\":389:404   */\n      swap1\n      pop\n        /* \"#utility.yul\":365:478   */\n      jump(tag_328)\n    tag_330:\n        /* \"#utility.yul\":496:502   */\n      dup4\n        /* \"#utility.yul\":493:494   */\n      dup2\n        /* \"#utility.yul\":490:503   */\n      gt\n        /* \"#utility.yul\":487:588   */\n      iszero\n      tag_331\n      jumpi\n        /* \"#utility.yul\":576:577   */\n      0x00\n        /* \"#utility.yul\":567:573   */\n      dup5\n        /* \"#utility.yul\":562:565   */\n      dup5\n        /* \"#utility.yul\":558:574   */\n      add\n        /* \"#utility.yul\":551:578   */\n      mstore\n        /* \"#utility.yul\":487:588   */\n    tag_331:\n        /* \"#utility.yul\":336:594   */\n      pop\n        /* \"#utility.yul\":287:594   */\n      pop\n      pop\n      pop\n      jump\t// out\n        /* \"#utility.yul\":600:702   */\n    tag_262:\n        /* \"#utility.yul\":641:647   */\n      0x00\n        /* \"#utility.yul\":692:694   */\n      0x1f\n        /* \"#utility.yul\":688:695   */\n      not\n        /* \"#utility.yul\":683:685   */\n      0x1f\n        /* \"#utility.yul\":676:681   */\n      dup4\n        /* \"#utility.yul\":672:686   */\n      add\n        /* \"#utility.yul\":668:696   */\n      and\n        /* \"#utility.yul\":658:696   */\n      swap1\n      pop\n        /* \"#utility.yul\":600:702   */\n      swap2\n      swap1\n      pop\n      jump\t// out\n        /* \"#utility.yul\":708:1072   */\n    tag_263:\n        /* \"#utility.yul\":796:799   */\n      0x00\n        /* \"#utility.yul\":824:863   */\n      tag_334\n        /* \"#utility.yul\":857:862   */\n      dup3\n        /* \"#utility.yul\":824:863   */\n      tag_259\n      jump\t// in\n    tag_334:\n        /* \"#utility.yul\":879:950   */\n      tag_335\n        /* \"#utility.yul\":943:949   */\n      dup2\n        /* \"#utility.yul\":938:941   */\n      dup6\n        /* \"#utility.yul\":879:950   */\n      tag_260\n      jump\t// in\n    tag_335:\n        /* \"#utility.yul\":872:950   */\n      swap4\n      pop\n        /* \"#utility.yul\":959:1011   */\n      tag_336\n        /* \"#utility.yul\":1004:1010   */\n      dup2\n        /* \"#utility.yul\":999:1002   */\n      dup6\n        /* \"#utility.yul\":992:996   */\n      0x20\n        /* \"#utility.yul\":985:990   */\n      dup7\n        /* \"#utility.yul\":981:997   */\n      add\n        /* \"#utility.yul\":959:1011   */\n      tag_261\n      jump\t// in\n    tag_336:\n        /* \"#utility.yul\":1036:1065   */\n      tag_337\n        /* \"#utility.yul\":1058:1064   */\n      dup2\n        /* \"#utility.yul\":1036:1065   */\n      tag_262\n      jump\t// in\n    tag_337:\n        /* \"#utility.yul\":1031:1034   */\n      dup5\n        /* \"#utility.yul\":1027:1066   */\n      add\n        /* \"#utility.yul\":1020:1066   */\n      swap2\n      pop\n        /* \"#utility.yul\":800:1072   */\n      pop\n        /* \"#utility.yul\":708:1072   */\n      swap3\n      swap2\n      pop\n      pop\n      jump\t// out\n        /* \"#utility.yul\":1078:1391   */\n    tag_36:\n        /* \"#utility.yul\":1191:1195   */\n      0x00\n        /* \"#utility.yul\":1229:1231   */\n      0x20\n        /* \"#utility.yul\":1218:1227   */\n      dup3\n        /* \"#utility.yul\":1214:1232   */\n      add\n        /* \"#utility.yul\":1206:1232   */\n      swap1\n      pop\n        /* \"#utility.yul\":1278:1287   */\n      dup2\n        /* \"#utility.yul\":1272:1276   */\n      dup2\n        /* \"#utility.yul\":1268:1288   */\n      sub\n        /* \"#utility.yul\":1264:1265   */\n      0x00\n        /* \"#utility.yul\":1253:1262   */\n      dup4\n        /* \"#utility.yul\":1249:1266   */\n      add\n        /* \"#utility.yul\":1242:1289   */\n      mstore\n        /* \"#utility.yul\":1306:1384   */\n      tag_339\n        /* \"#utility.yul\":1379:1383   */\n      dup2\n        /* \"#utility.yul\":1370:1376   */\n      dup5\n        /* \"#utility.yul\":1306:1384   */\n      tag_263\n      jump\t// in\n    tag_339:\n        /* \"#utility.yul\":1298:1384   */\n      swap1\n      pop\n        /* \"#utility.yul\":1078:1391   */\n      swap3\n      swap2\n      pop\n      pop\n      jump\t// out\n        /* \"#utility.yul\":1478:1595   */\n    tag_265:\n        /* \"#utility.yul\":1587:1588   */\n      0x00\n        /* \"#utility.yul\":1584:1585   */\n      dup1\n        /* \"#utility.yul\":1577:1589   */\n      revert\n        /* \"#utility.yul\":1724:1850   */\n    tag_267:\n        /* \"#utility.yul\":1761:1768   */\n      0x00\n        /* \"#utility.yul\":1801:1843   */\n      0xffffffffffffffffffffffffffffffffffffffff\n        /* \"#utility.yul\":1794:1799   */\n      dup3\n        /* \"#utility.yul\":1790:1844   */\n      and\n        /* \"#utility.yul\":1779:1844   */\n      swap1\n      pop\n        /* \"#utility.yul\":1724:1850   */\n      swap2\n      swap1\n      pop\n      jump\t// out\n        /* \"#utility.yul\":1856:1952   */\n    tag_268:\n        /* \"#utility.yul\":1893:1900   */\n      0x00\n        /* \"#utility.yul\":1922:1946   */\n      tag_345\n        /* \"#utility.yul\":1940:1945   */\n      dup3\n        /* \"#utility.yul\":1922:1946   */\n      tag_267\n      jump\t// in\n    tag_345:\n        /* \"#utility.yul\":1911:1946   */\n      swap1\n      pop\n        /* \"#utility.yul\":1856:1952   */\n      swap2\n      swap1\n      pop\n      jump\t// out\n        /* \"#utility.yul\":1958:2080   */\n    tag_269:\n        /* \"#utility.yul\":2031:2055   */\n      tag_347\n        /* \"#utility.yul\":2049:2054   */\n      dup2\n        /* \"#utility.yul\":2031:2055   */\n      tag_268\n      jump\t// in\n    tag_347:\n        /* \"#utility.yul\":2024:2029   */\n      dup2\n        /* \"#utility.yul\":2021:2056   */\n      eq\n        /* \"#utility.yul\":2011:2074   */\n      tag_348\n      jumpi\n        /* \"#utility.yul\":2070:2071   */\n      0x00\n        /* \"#utility.yul\":2067:2068   */\n      dup1\n        /* \"#utility.yul\":2060:2072   */\n      revert\n        /* \"#utility.yul\":2011:2074   */\n    tag_348:\n        /* \"#utility.yul\":1958:2080   */\n      pop\n      jump\t// out\n        /* \"#utility.yul\":2086:2225   */\n    tag_270:\n        /* \"#utility.yul\":2132:2137   */\n      0x00\n        /* \"#utility.yul\":2170:2176   */\n      dup2\n        /* \"#utility.yul\":2157:2177   */\n      calldataload\n        /* \"#utility.yul\":2148:2177   */\n      swap1\n      pop\n        /* \"#utility.yul\":2186:2219   */\n      tag_350\n        /* \"#utility.yul\":2213:2218   */\n      dup2\n        /* \"#utility.yul\":2186:2219   */\n      tag_269\n      jump\t// in\n    tag_350:\n        /* \"#utility.yul\":2086:2225   */\n      swap3\n      swap2\n      pop\n      pop\n      jump\t// out\n        /* \"#utility.yul\":2231:2308   */\n    tag_271:\n        /* \"#utility.yul\":2268:2275   */\n      0x00\n        /* \"#utility.yul\":2297:2302   */\n      dup2\n        /* \"#utility.yul\":2286:2302   */\n      swap1\n      pop\n        /* \"#utility.yul\":2231:2308   */\n      swap2\n      swap1\n      pop\n      jump\t// out\n        /* \"#utility.yul\":2314:2436   */\n    tag_272:\n        /* \"#utility.yul\":2387:2411   */\n      tag_353\n        /* \"#utility.yul\":2405:2410   */\n      dup2\n        /* \"#utility.yul\":2387:2411   */\n      tag_271\n      jump\t// in\n    tag_353:\n        /* \"#utility.yul\":2380:2385   */\n      dup2\n        /* \"#utility.yul\":2377:2412   */\n      eq\n        /* \"#utility.yul\":2367:2430   */\n      tag_354\n      jumpi\n        /* \"#utility.yul\":2426:2427   */\n      0x00\n        /* \"#utility.yul\":2423:2424   */\n      dup1\n        /* \"#utility.yul\":2416:2428   */\n      revert\n        /* \"#utility.yul\":2367:2430   */\n    tag_354:\n        /* \"#utility.yul\":2314:2436   */\n      pop\n      jump\t// out\n        /* \"#utility.yul\":2442:2581   */\n    tag_273:\n        /* \"#utility.yul\":2488:2493   */\n      0x00\n        /* \"#utility.yul\":2526:2532   */\n      dup2\n        /* \"#utility.yul\":2513:2533   */\n      calldataload\n        /* \"#utility.yul\":2504:2533   */\n      swap1\n      pop\n        /* \"#utility.yul\":2542:2575   */\n      tag_356\n        /* \"#utility.yul\":2569:2574   */\n      dup2\n        /* \"#utility.yul\":2542:2575   */\n      tag_272\n      jump\t// in\n    tag_356:\n        /* \"#utility.yul\":2442:2581   */\n      swap3\n      swap2\n      pop\n      pop\n      jump\t// out\n        /* \"#utility.yul\":2587:3061   */\n    tag_40:\n        /* \"#utility.yul\":2655:2661   */\n      0x00\n        /* \"#utility.yul\":2663:2669   */\n      dup1\n        /* \"#utility.yul\":2712:2714   */\n      0x40\n        /* \"#utility.yul\":2700:2709   */\n      dup4\n        /* \"#utility.yul\":2691:2698   */\n      dup6\n        /* \"#utility.yul\":2687:2710   */\n      sub\n        /* \"#utility.yul\":2683:2715   */\n      slt\n        /* \"#utility.yul\":2680:2799   */\n      iszero\n      tag_358\n      jumpi\n        /* \"#utility.yul\":2718:2797   */\n      tag_359\n      tag_265\n      jump\t// in\n    tag_359:\n        /* \"#utility.yul\":2680:2799   */\n    tag_358:\n        /* \"#utility.yul\":2838:2839   */\n      0x00\n        /* \"#utility.yul\":2863:2916   */\n      tag_360\n        /* \"#utility.yul\":2908:2915   */\n      dup6\n        /* \"#utility.yul\":2899:2905   */\n      dup3\n        /* \"#utility.yul\":2888:2897   */\n      dup7\n        /* \"#utility.yul\":2884:2906   */\n      add\n        /* \"#utility.yul\":2863:2916   */\n      tag_270\n      jump\t// in\n    tag_360:\n        /* \"#utility.yul\":2853:2916   */\n      swap3\n      pop\n        /* \"#utility.yul\":2809:2926   */\n      pop\n        /* \"#utility.yul\":2965:2967   */\n      0x20\n        /* \"#utility.yul\":2991:3044   */\n      tag_361\n        /* \"#utility.yul\":3036:3043   */\n      dup6\n        /* \"#utility.yul\":3027:3033   */\n      dup3\n        /* \"#utility.yul\":3016:3025   */\n      dup7\n        /* \"#utility.yul\":3012:3034   */\n      add\n        /* \"#utility.yul\":2991:3044   */\n      tag_273\n      jump\t// in\n    tag_361:\n        /* \"#utility.yul\":2981:3044   */\n      swap2\n      pop\n        /* \"#utility.yul\":2936:3054   */\n      pop\n        /* \"#utility.yul\":2587:3061   */\n      swap3\n      pop\n      swap3\n      swap1\n      pop\n      jump\t// out\n        /* \"#utility.yul\":3067:3157   */\n    tag_274:\n        /* \"#utility.yul\":3101:3108   */\n      0x00\n        /* \"#utility.yul\":3144:3149   */\n      dup2\n        /* \"#utility.yul\":3137:3150   */\n      iszero\n        /* \"#utility.yul\":3130:3151   */\n      iszero\n        /* \"#utility.yul\":3119:3151   */\n      swap1\n      pop\n        /* \"#utility.yul\":3067:3157   */\n      swap2\n      swap1\n      pop\n      jump\t// out\n        /* \"#utility.yul\":3163:3272   */\n    tag_275:\n        /* \"#utility.yul\":3244:3265   */\n      tag_364\n        /* \"#utility.yul\":3259:3264   */\n      dup2\n        /* \"#utility.yul\":3244:3265   */\n      tag_274\n      jump\t// in\n    tag_364:\n        /* \"#utility.yul\":3239:3242   */\n      dup3\n        /* \"#utility.yul\":3232:3266   */\n      mstore\n        /* \"#utility.yul\":3163:3272   */\n      pop\n      pop\n      jump\t// out\n        /* \"#utility.yul\":3278:3488   */\n    tag_43:\n        /* \"#utility.yul\":3365:3369   */\n      0x00\n        /* \"#utility.yul\":3403:3405   */\n      0x20\n        /* \"#utility.yul\":3392:3401   */\n      dup3\n        /* \"#utility.yul\":3388:3406   */\n      add\n        /* \"#utility.yul\":3380:3406   */\n      swap1\n      pop\n        /* \"#utility.yul\":3416:3481   */\n      tag_366\n        /* \"#utility.yul\":3478:3479   */\n      0x00\n        /* \"#utility.yul\":3467:3476   */\n      dup4\n        /* \"#utility.yul\":3463:3480   */\n      add\n        /* \"#utility.yul\":3454:3460   */\n      dup5\n        /* \"#utility.yul\":3416:3481   */\n      tag_275\n      jump\t// in\n    tag_366:\n        /* \"#utility.yul\":3278:3488   */\n      swap3\n      swap2\n      pop\n      pop\n      jump\t// out\n        /* \"#utility.yul\":3494:3612   */\n    tag_276:\n        /* \"#utility.yul\":3581:3605   */\n      tag_368\n        /* \"#utility.yul\":3599:3604   */\n      dup2\n        /* \"#utility.yul\":3581:3605   */\n      tag_271\n      jump\t// in\n    tag_368:\n        /* \"#utility.yul\":3576:3579   */\n      dup3\n        /* \"#utility.yul\":3569:3606   */\n      mstore\n        /* \"#utility.yul\":3494:3612   */\n      pop\n      pop\n      jump\t// out\n        /* \"#utility.yul\":3618:3840   */\n    tag_48:\n        /* \"#utility.yul\":3711:3715   */\n      0x00\n        /* \"#utility.yul\":3749:3751   */\n      0x20\n        /* \"#utility.yul\":3738:3747   */\n      dup3\n        /* \"#utility.yul\":3734:3752   */\n      add\n        /* \"#utility.yul\":3726:3752   */\n      swap1\n      pop\n        /* \"#utility.yul\":3762:3833   */\n      tag_370\n        /* \"#utility.yul\":3830:3831   */\n      0x00\n        /* \"#utility.yul\":3819:3828   */\n      dup4\n        /* \"#utility.yul\":3815:3832   */\n      add\n        /* \"#utility.yul\":3806:3812   */\n      dup5\n        /* \"#utility.yul\":3762:3833   */\n      tag_276\n      jump\t// in\n    tag_370:\n        /* \"#utility.yul\":3618:3840   */\n      swap3\n      swap2\n      pop\n      pop\n      jump\t// out\n        /* \"#utility.yul\":3846:4175   */\n    tag_52:\n        /* \"#utility.yul\":3905:3911   */\n      0x00\n        /* \"#utility.yul\":3954:3956   */\n      0x20\n        /* \"#utility.yul\":3942:3951   */\n      dup3\n        /* \"#utility.yul\":3933:3940   */\n      dup5\n        /* \"#utility.yul\":3929:3952   */\n      sub\n        /* \"#utility.yul\":3925:3957   */\n      slt\n        /* \"#utility.yul\":3922:4041   */\n      iszero\n      tag_372\n      jumpi\n        /* \"#utility.yul\":3960:4039   */\n      tag_373\n      tag_265\n      jump\t// in\n    tag_373:\n        /* \"#utility.yul\":3922:4041   */\n    tag_372:\n        /* \"#utility.yul\":4080:4081   */\n      0x00\n        /* \"#utility.yul\":4105:4158   */\n      tag_374\n        /* \"#utility.yul\":4150:4157   */\n      dup5\n        /* \"#utility.yul\":4141:4147   */\n      dup3\n        /* \"#utility.yul\":4130:4139   */\n      dup6\n        /* \"#utility.yul\":4126:4148   */\n      add\n        /* \"#utility.yul\":4105:4158   */\n      tag_273\n      jump\t// in\n    tag_374:\n        /* \"#utility.yul\":4095:4158   */\n      swap2\n      pop\n        /* \"#utility.yul\":4051:4168   */\n      pop\n        /* \"#utility.yul\":3846:4175   */\n      swap3\n      swap2\n      pop\n      pop\n      jump\t// out\n        /* \"#utility.yul\":4181:4299   */\n    tag_277:\n        /* \"#utility.yul\":4268:4292   */\n      tag_376\n        /* \"#utility.yul\":4286:4291   */\n      dup2\n        /* \"#utility.yul\":4268:4292   */\n      tag_268\n      jump\t// in\n    tag_376:\n        /* \"#utility.yul\":4263:4266   */\n      dup3\n        /* \"#utility.yul\":4256:4293   */\n      mstore\n        /* \"#utility.yul\":4181:4299   */\n      pop\n      pop\n      jump\t// out\n        /* \"#utility.yul\":4305:4625   */\n    tag_55:\n        /* \"#utility.yul\":4420:4424   */\n      0x00\n        /* \"#utility.yul\":4458:4460   */\n      0x40\n        /* \"#utility.yul\":4447:4456   */\n      dup3\n        /* \"#utility.yul\":4443:4461   */\n      add\n        /* \"#utility.yul\":4435:4461   */\n      swap1\n      pop\n        /* \"#utility.yul\":4471:4542   */\n      tag_378\n        /* \"#utility.yul\":4539:4540   */\n      0x00\n        /* \"#utility.yul\":4528:4537   */\n      dup4\n        /* \"#utility.yul\":4524:4541   */\n      add\n        /* \"#utility.yul\":4515:4521   */\n      dup6\n        /* \"#utility.yul\":4471:4542   */\n      tag_277\n      jump\t// in\n    tag_378:\n        /* \"#utility.yul\":4552:4618   */\n      tag_379\n        /* \"#utility.yul\":4614:4616   */\n      0x20\n        /* \"#utility.yul\":4603:4612   */\n      dup4\n        /* \"#utility.yul\":4599:4617   */\n      add\n        /* \"#utility.yul\":4590:4596   */\n      dup5\n        /* \"#utility.yul\":4552:4618   */\n      tag_275\n      jump\t// in\n    tag_379:\n        /* \"#utility.yul\":4305:4625   */\n      swap4\n      swap3\n      pop\n      pop\n      pop\n      jump\t// out\n        /* \"#utility.yul\":4631:5250   */\n    tag_63:\n        /* \"#utility.yul\":4708:4714   */\n      0x00\n        /* \"#utility.yul\":4716:4722   */\n      dup1\n        /* \"#utility.yul\":4724:4730   */\n      0x00\n        /* \"#utility.yul\":4773:4775   */\n      0x60\n        /* \"#utility.yul\":4761:4770   */\n      dup5\n        /* \"#utility.yul\":4752:4759   */\n      dup7\n        /* \"#utility.yul\":4748:4771   */\n      sub\n        /* \"#utility.yul\":4744:4776   */\n      slt\n        /* \"#utility.yul\":4741:4860   */\n      iszero\n      tag_381\n      jumpi\n        /* \"#utility.yul\":4779:4858   */\n      tag_382\n      tag_265\n      jump\t// in\n    tag_382:\n        /* \"#utility.yul\":4741:4860   */\n    tag_381:\n        /* \"#utility.yul\":4899:4900   */\n      0x00\n        /* \"#utility.yul\":4924:4977   */\n      tag_383\n        /* \"#utility.yul\":4969:4976   */\n      dup7\n        /* \"#utility.yul\":4960:4966   */\n      dup3\n        /* \"#utility.yul\":4949:4958   */\n      dup8\n        /* \"#utility.yul\":4945:4967   */\n      add\n        /* \"#utility.yul\":4924:4977   */\n      tag_270\n      jump\t// in\n    tag_383:\n        /* \"#utility.yul\":4914:4977   */\n      swap4\n      pop\n        /* \"#utility.yul\":4870:4987   */\n      pop\n        /* \"#utility.yul\":5026:5028   */\n      0x20\n        /* \"#utility.yul\":5052:5105   */\n      tag_384\n        /* \"#utility.yul\":5097:5104   */\n      dup7\n        /* \"#utility.yul\":5088:5094   */\n      dup3\n        /* \"#utility.yul\":5077:5086   */\n      dup8\n        /* \"#utility.yul\":5073:5095   */\n      add\n        /* \"#utility.yul\":5052:5105   */\n      tag_270\n      jump\t// in\n    tag_384:\n        /* \"#utility.yul\":5042:5105   */\n      swap3\n      pop\n        /* \"#utility.yul\":4997:5115   */\n      pop\n        /* \"#utility.yul\":5154:5156   */\n      0x40\n        /* \"#utility.yul\":5180:5233   */\n      tag_385\n        /* \"#utility.yul\":5225:5232   */\n      dup7\n        /* \"#utility.yul\":5216:5222   */\n      dup3\n        /* \"#utility.yul\":5205:5214   */\n      dup8\n        /* \"#utility.yul\":5201:5223   */\n      add\n        /* \"#utility.yul\":5180:5233   */\n      tag_273\n      jump\t// in\n    tag_385:\n        /* \"#utility.yul\":5170:5233   */\n      swap2\n      pop\n        /* \"#utility.yul\":5125:5243   */\n      pop\n        /* \"#utility.yul\":4631:5250   */\n      swap3\n      pop\n      swap3\n      pop\n      swap3\n      jump\t// out\n        /* \"#utility.yul\":5256:5342   */\n    tag_278:\n        /* \"#utility.yul\":5291:5298   */\n      0x00\n        /* \"#utility.yul\":5331:5335   */\n      0xff\n        /* \"#utility.yul\":5324:5329   */\n      dup3\n        /* \"#utility.yul\":5320:5336   */\n      and\n        /* \"#utility.yul\":5309:5336   */\n      swap1\n      pop\n        /* \"#utility.yul\":5256:5342   */\n      swap2\n      swap1\n      pop\n      jump\t// out\n        /* \"#utility.yul\":5348:5460   */\n    tag_279:\n        /* \"#utility.yul\":5431:5453   */\n      tag_388\n        /* \"#utility.yul\":5447:5452   */\n      dup2\n        /* \"#utility.yul\":5431:5453   */\n      tag_278\n      jump\t// in\n    tag_388:\n        /* \"#utility.yul\":5426:5429   */\n      dup3\n        /* \"#utility.yul\":5419:5454   */\n      mstore\n        /* \"#utility.yul\":5348:5460   */\n      pop\n      pop\n      jump\t// out\n        /* \"#utility.yul\":5466:5680   */\n    tag_70:\n        /* \"#utility.yul\":5555:5559   */\n      0x00\n        /* \"#utility.yul\":5593:5595   */\n      0x20\n        /* \"#utility.yul\":5582:5591   */\n      dup3\n        /* \"#utility.yul\":5578:5596   */\n      add\n        /* \"#utility.yul\":5570:5596   */\n      swap1\n      pop\n        /* \"#utility.yul\":5606:5673   */\n      tag_390\n        /* \"#utility.yul\":5670:5671   */\n      0x00\n        /* \"#utility.yul\":5659:5668   */\n      dup4\n        /* \"#utility.yul\":5655:5672   */\n      add\n        /* \"#utility.yul\":5646:5652   */\n      dup5\n        /* \"#utility.yul\":5606:5673   */\n      tag_279\n      jump\t// in\n    tag_390:\n        /* \"#utility.yul\":5466:5680   */\n      swap3\n      swap2\n      pop\n      pop\n      jump\t// out\n        /* \"#utility.yul\":5686:6015   */\n    tag_79:\n        /* \"#utility.yul\":5745:5751   */\n      0x00\n        /* \"#utility.yul\":5794:5796   */\n      0x20\n        /* \"#utility.yul\":5782:5791   */\n      dup3\n        /* \"#utility.yul\":5773:5780   */\n      dup5\n        /* \"#utility.yul\":5769:5792   */\n      sub\n        /* \"#utility.yul\":5765:5797   */\n      slt\n        /* \"#utility.yul\":5762:5881   */\n      iszero\n      tag_392\n      jumpi\n        /* \"#utility.yul\":5800:5879   */\n      tag_393\n      tag_265\n      jump\t// in\n    tag_393:\n        /* \"#utility.yul\":5762:5881   */\n    tag_392:\n        /* \"#utility.yul\":5920:5921   */\n      0x00\n        /* \"#utility.yul\":5945:5998   */\n      tag_394\n        /* \"#utility.yul\":5990:5997   */\n      dup5\n        /* \"#utility.yul\":5981:5987   */\n      dup3\n        /* \"#utility.yul\":5970:5979   */\n      dup6\n        /* \"#utility.yul\":5966:5988   */\n      add\n        /* \"#utility.yul\":5945:5998   */\n      tag_270\n      jump\t// in\n    tag_394:\n        /* \"#utility.yul\":5935:5998   */\n      swap2\n      pop\n        /* \"#utility.yul\":5891:6008   */\n      pop\n        /* \"#utility.yul\":5686:6015   */\n      swap3\n      swap2\n      pop\n      pop\n      jump\t// out\n        /* \"#utility.yul\":6021:6341   */\n    tag_82:\n        /* \"#utility.yul\":6136:6140   */\n      0x00\n        /* \"#utility.yul\":6174:6176   */\n      0x40\n        /* \"#utility.yul\":6163:6172   */\n      dup3\n        /* \"#utility.yul\":6159:6177   */\n      add\n        /* \"#utility.yul\":6151:6177   */\n      swap1\n      pop\n        /* \"#utility.yul\":6187:6258   */\n      tag_396\n        /* \"#utility.yul\":6255:6256   */\n      0x00\n        /* \"#utility.yul\":6244:6253   */\n      dup4\n        /* \"#utility.yul\":6240:6257   */\n      add\n        /* \"#utility.yul\":6231:6237   */\n      dup6\n        /* \"#utility.yul\":6187:6258   */\n      tag_276\n      jump\t// in\n    tag_396:\n        /* \"#utility.yul\":6268:6334   */\n      tag_397\n        /* \"#utility.yul\":6330:6332   */\n      0x20\n        /* \"#utility.yul\":6319:6328   */\n      dup4\n        /* \"#utility.yul\":6315:6333   */\n      add\n        /* \"#utility.yul\":6306:6312   */\n      dup5\n        /* \"#utility.yul\":6268:6334   */\n      tag_275\n      jump\t// in\n    tag_397:\n        /* \"#utility.yul\":6021:6341   */\n      swap4\n      swap3\n      pop\n      pop\n      pop\n      jump\t// out\n        /* \"#utility.yul\":6347:6407   */\n    tag_280:\n        /* \"#utility.yul\":6375:6378   */\n      0x00\n        /* \"#utility.yul\":6396:6401   */\n      dup2\n        /* \"#utility.yul\":6389:6401   */\n      swap1\n      pop\n        /* \"#utility.yul\":6347:6407   */\n      swap2\n      swap1\n      pop\n      jump\t// out\n        /* \"#utility.yul\":6413:6555   */\n    tag_281:\n        /* \"#utility.yul\":6463:6472   */\n      0x00\n        /* \"#utility.yul\":6496:6549   */\n      tag_400\n        /* \"#utility.yul\":6514:6548   */\n      tag_401\n        /* \"#utility.yul\":6523:6547   */\n      tag_402\n        /* \"#utility.yul\":6541:6546   */\n      dup5\n        /* \"#utility.yul\":6523:6547   */\n      tag_267\n      jump\t// in\n    tag_402:\n        /* \"#utility.yul\":6514:6548   */\n      tag_280\n      jump\t// in\n    tag_401:\n        /* \"#utility.yul\":6496:6549   */\n      tag_267\n      jump\t// in\n    tag_400:\n        /* \"#utility.yul\":6483:6549   */\n      swap1\n      pop\n        /* \"#utility.yul\":6413:6555   */\n      swap2\n      swap1\n      pop\n      jump\t// out\n        /* \"#utility.yul\":6561:6695   */\n    tag_282:\n        /* \"#utility.yul\":6619:6628   */\n      0x00\n        /* \"#utility.yul\":6652:6689   */\n      tag_404\n        /* \"#utility.yul\":6683:6688   */\n      dup3\n        /* \"#utility.yul\":6652:6689   */\n      tag_281\n      jump\t// in\n    tag_404:\n        /* \"#utility.yul\":6639:6689   */\n      swap1\n      pop\n        /* \"#utility.yul\":6561:6695   */\n      swap2\n      swap1\n      pop\n      jump\t// out\n        /* \"#utility.yul\":6701:6859   */\n    tag_283:\n        /* \"#utility.yul\":6775:6784   */\n      0x00\n        /* \"#utility.yul\":6808:6853   */\n      tag_406\n        /* \"#utility.yul\":6847:6852   */\n      dup3\n        /* \"#utility.yul\":6808:6853   */\n      tag_282\n      jump\t// in\n    tag_406:\n        /* \"#utility.yul\":6795:6853   */\n      swap1\n      pop\n        /* \"#utility.yul\":6701:6859   */\n      swap2\n      swap1\n      pop\n      jump\t// out\n        /* \"#utility.yul\":6865:7044   */\n    tag_284:\n        /* \"#utility.yul\":6976:7037   */\n      tag_408\n        /* \"#utility.yul\":7031:7036   */\n      dup2\n        /* \"#utility.yul\":6976:7037   */\n      tag_283\n      jump\t// in\n    tag_408:\n        /* \"#utility.yul\":6971:6974   */\n      dup3\n        /* \"#utility.yul\":6964:7038   */\n      mstore\n        /* \"#utility.yul\":6865:7044   */\n      pop\n      pop\n      jump\t// out\n        /* \"#utility.yul\":7050:7320   */\n    tag_118:\n        /* \"#utility.yul\":7167:7171   */\n      0x00\n        /* \"#utility.yul\":7205:7207   */\n      0x20\n        /* \"#utility.yul\":7194:7203   */\n      dup3\n        /* \"#utility.yul\":7190:7208   */\n      add\n        /* \"#utility.yul\":7182:7208   */\n      swap1\n      pop\n        /* \"#utility.yul\":7218:7313   */\n      tag_410\n        /* \"#utility.yul\":7310:7311   */\n      0x00\n        /* \"#utility.yul\":7299:7308   */\n      dup4\n        /* \"#utility.yul\":7295:7312   */\n      add\n        /* \"#utility.yul\":7286:7292   */\n      dup5\n        /* \"#utility.yul\":7218:7313   */\n      tag_284\n      jump\t// in\n    tag_410:\n        /* \"#utility.yul\":7050:7320   */\n      swap3\n      swap2\n      pop\n      pop\n      jump\t// out\n        /* \"#utility.yul\":7326:7800   */\n    tag_126:\n        /* \"#utility.yul\":7394:7400   */\n      0x00\n        /* \"#utility.yul\":7402:7408   */\n      dup1\n        /* \"#utility.yul\":7451:7453   */\n      0x40\n        /* \"#utility.yul\":7439:7448   */\n      dup4\n        /* \"#utility.yul\":7430:7437   */\n      dup6\n        /* \"#utility.yul\":7426:7449   */\n      sub\n        /* \"#utility.yul\":7422:7454   */\n      slt\n        /* \"#utility.yul\":7419:7538   */\n      iszero\n      tag_412\n      jumpi\n        /* \"#utility.yul\":7457:7536   */\n      tag_413\n      tag_265\n      jump\t// in\n    tag_413:\n        /* \"#utility.yul\":7419:7538   */\n    tag_412:\n        /* \"#utility.yul\":7577:7578   */\n      0x00\n        /* \"#utility.yul\":7602:7655   */\n      tag_414\n        /* \"#utility.yul\":7647:7654   */\n      dup6\n        /* \"#utility.yul\":7638:7644   */\n      dup3\n        /* \"#utility.yul\":7627:7636   */\n      dup7\n        /* \"#utility.yul\":7623:7645   */\n      add\n        /* \"#utility.yul\":7602:7655   */\n      tag_270\n      jump\t// in\n    tag_414:\n        /* \"#utility.yul\":7592:7655   */\n      swap3\n      pop\n        /* \"#utility.yul\":7548:7665   */\n      pop\n        /* \"#utility.yul\":7704:7706   */\n      0x20\n        /* \"#utility.yul\":7730:7783   */\n      tag_415\n        /* \"#utility.yul\":7775:7782   */\n      dup6\n        /* \"#utility.yul\":7766:7772   */\n      dup3\n        /* \"#utility.yul\":7755:7764   */\n      dup7\n        /* \"#utility.yul\":7751:7773   */\n      add\n        /* \"#utility.yul\":7730:7783   */\n      tag_270\n      jump\t// in\n    tag_415:\n        /* \"#utility.yul\":7720:7783   */\n      swap2\n      pop\n        /* \"#utility.yul\":7675:7793   */\n      pop\n        /* \"#utility.yul\":7326:7800   */\n      swap3\n      pop\n      swap3\n      swap1\n      pop\n      jump\t// out\n        /* \"#utility.yul\":7806:7986   */\n    tag_285:\n        /* \"#utility.yul\":7854:7931   */\n      0x4e487b7100000000000000000000000000000000000000000000000000000000\n        /* \"#utility.yul\":7851:7852   */\n      0x00\n        /* \"#utility.yul\":7844:7932   */\n      mstore\n        /* \"#utility.yul\":7951:7955   */\n      0x22\n        /* \"#utility.yul\":7948:7949   */\n      0x04\n        /* \"#utility.yul\":7941:7956   */\n      mstore\n        /* \"#utility.yul\":7975:7979   */\n      0x24\n        /* \"#utility.yul\":7972:7973   */\n      0x00\n        /* \"#utility.yul\":7965:7980   */\n      revert\n        /* \"#utility.yul\":7992:8312   */\n    tag_131:\n        /* \"#utility.yul\":8036:8042   */\n      0x00\n        /* \"#utility.yul\":8073:8074   */\n      0x02\n        /* \"#utility.yul\":8067:8071   */\n      dup3\n        /* \"#utility.yul\":8063:8075   */\n      div\n        /* \"#utility.yul\":8053:8075   */\n      swap1\n      pop\n        /* \"#utility.yul\":8120:8121   */\n      0x01\n        /* \"#utility.yul\":8114:8118   */\n      dup3\n        /* \"#utility.yul\":8110:8122   */\n      and\n        /* \"#utility.yul\":8141:8159   */\n      dup1\n        /* \"#utility.yul\":8131:8212   */\n      tag_418\n      jumpi\n        /* \"#utility.yul\":8197:8201   */\n      0x7f\n        /* \"#utility.yul\":8189:8195   */\n      dup3\n        /* \"#utility.yul\":8185:8202   */\n      and\n        /* \"#utility.yul\":8175:8202   */\n      swap2\n      pop\n        /* \"#utility.yul\":8131:8212   */\n    tag_418:\n        /* \"#utility.yul\":8259:8261   */\n      0x20\n        /* \"#utility.yul\":8251:8257   */\n      dup3\n        /* \"#utility.yul\":8248:8262   */\n      lt\n        /* \"#utility.yul\":8228:8246   */\n      dup2\n        /* \"#utility.yul\":8225:8263   */\n      sub\n        /* \"#utility.yul\":8222:8306   */\n      tag_419\n      jumpi\n        /* \"#utility.yul\":8278:8296   */\n      tag_420\n      tag_285\n      jump\t// in\n    tag_420:\n        /* \"#utility.yul\":8222:8306   */\n    tag_419:\n        /* \"#utility.yul\":8043:8312   */\n      pop\n        /* \"#utility.yul\":7992:8312   */\n      swap2\n      swap1\n      pop\n      jump\t// out\n        /* \"#utility.yul\":8318:8545   */\n    tag_286:\n        /* \"#utility.yul\":8458:8492   */\n      0x45524332303a207472616e7366657220616d6f756e7420657863656564732061\n        /* \"#utility.yul\":8454:8455   */\n      0x00\n        /* \"#utility.yul\":8446:8452   */\n      dup3\n        /* \"#utility.yul\":8442:8456   */\n      add\n        /* \"#utility.yul\":8435:8493   */\n      mstore\n        /* \"#utility.yul\":8527:8537   */\n      0x6c6c6f77616e6365000000000000000000000000000000000000000000000000\n        /* \"#utility.yul\":8522:8524   */\n      0x20\n        /* \"#utility.yul\":8514:8520   */\n      dup3\n        /* \"#utility.yul\":8510:8525   */\n      add\n        /* \"#utility.yul\":8503:8538   */\n      mstore\n        /* \"#utility.yul\":8318:8545   */\n      pop\n      jump\t// out\n        /* \"#utility.yul\":8551:8917   */\n    tag_287:\n        /* \"#utility.yul\":8693:8696   */\n      0x00\n        /* \"#utility.yul\":8714:8781   */\n      tag_423\n        /* \"#utility.yul\":8778:8780   */\n      0x28\n        /* \"#utility.yul\":8773:8776   */\n      dup4\n        /* \"#utility.yul\":8714:8781   */\n      tag_260\n      jump\t// in\n    tag_423:\n        /* \"#utility.yul\":8707:8781   */\n      swap2\n      pop\n        /* \"#utility.yul\":8790:8883   */\n      tag_424\n        /* \"#utility.yul\":8879:8882   */\n      dup3\n        /* \"#utility.yul\":8790:8883   */\n      tag_286\n      jump\t// in\n    tag_424:\n        /* \"#utility.yul\":8908:8910   */\n      0x40\n        /* \"#utility.yul\":8903:8906   */\n      dup3\n        /* \"#utility.yul\":8899:8911   */\n      add\n        /* \"#utility.yul\":8892:8911   */\n      swap1\n      pop\n        /* \"#utility.yul\":8551:8917   */\n      swap2\n      swap1\n      pop\n      jump\t// out\n        /* \"#utility.yul\":8923:9342   */\n    tag_149:\n        /* \"#utility.yul\":9089:9093   */\n      0x00\n        /* \"#utility.yul\":9127:9129   */\n      0x20\n        /* \"#utility.yul\":9116:9125   */\n      dup3\n        /* \"#utility.yul\":9112:9130   */\n      add\n        /* \"#utility.yul\":9104:9130   */\n      swap1\n      pop\n        /* \"#utility.yul\":9176:9185   */\n      dup2\n        /* \"#utility.yul\":9170:9174   */\n      dup2\n        /* \"#utility.yul\":9166:9186   */\n      sub\n        /* \"#utility.yul\":9162:9163   */\n      0x00\n        /* \"#utility.yul\":9151:9160   */\n      dup4\n        /* \"#utility.yul\":9147:9164   */\n      add\n        /* \"#utility.yul\":9140:9187   */\n      mstore\n        /* \"#utility.yul\":9204:9335   */\n      tag_426\n        /* \"#utility.yul\":9330:9334   */\n      dup2\n        /* \"#utility.yul\":9204:9335   */\n      tag_287\n      jump\t// in\n    tag_426:\n        /* \"#utility.yul\":9196:9335   */\n      swap1\n      pop\n        /* \"#utility.yul\":8923:9342   */\n      swap2\n      swap1\n      pop\n      jump\t// out\n        /* \"#utility.yul\":9348:9528   */\n    tag_288:\n        /* \"#utility.yul\":9396:9473   */\n      0x4e487b7100000000000000000000000000000000000000000000000000000000\n        /* \"#utility.yul\":9393:9394   */\n      0x00\n        /* \"#utility.yul\":9386:9474   */\n      mstore\n        /* \"#utility.yul\":9493:9497   */\n      0x11\n        /* \"#utility.yul\":9490:9491   */\n      0x04\n        /* \"#utility.yul\":9483:9498   */\n      mstore\n        /* \"#utility.yul\":9517:9521   */\n      0x24\n        /* \"#utility.yul\":9514:9515   */\n      0x00\n        /* \"#utility.yul\":9507:9522   */\n      revert\n        /* \"#utility.yul\":9534:9839   */\n    tag_158:\n        /* \"#utility.yul\":9574:9577   */\n      0x00\n        /* \"#utility.yul\":9593:9613   */\n      tag_429\n        /* \"#utility.yul\":9611:9612   */\n      dup3\n        /* \"#utility.yul\":9593:9613   */\n      tag_271\n      jump\t// in\n    tag_429:\n        /* \"#utility.yul\":9588:9613   */\n      swap2\n      pop\n        /* \"#utility.yul\":9627:9647   */\n      tag_430\n        /* \"#utility.yul\":9645:9646   */\n      dup4\n        /* \"#utility.yul\":9627:9647   */\n      tag_271\n      jump\t// in\n    tag_430:\n        /* \"#utility.yul\":9622:9647   */\n      swap3\n      pop\n        /* \"#utility.yul\":9781:9782   */\n      dup3\n        /* \"#utility.yul\":9713:9779   */\n      0xffffffffffffffffffffffffffffffffffffffffffffffffffffffffffffffff\n        /* \"#utility.yul\":9709:9783   */\n      sub\n        /* \"#utility.yul\":9706:9707   */\n      dup3\n        /* \"#utility.yul\":9703:9784   */\n      gt\n        /* \"#utility.yul\":9700:9807   */\n      iszero\n      tag_431\n      jumpi\n        /* \"#utility.yul\":9787:9805   */\n      tag_432\n      tag_288\n      jump\t// in\n    tag_432:\n        /* \"#utility.yul\":9700:9807   */\n    tag_431:\n        /* \"#utility.yul\":9831:9832   */\n      dup3\n        /* \"#utility.yul\":9828:9829   */\n      dup3\n        /* \"#utility.yul\":9824:9833   */\n      add\n        /* \"#utility.yul\":9817:9833   */\n      swap1\n      pop\n        /* \"#utility.yul\":9534:9839   */\n      swap3\n      swap2\n      pop\n      pop\n      jump\t// out\n        /* \"#utility.yul\":9845:10013   */\n    tag_289:\n        /* \"#utility.yul\":9985:10005   */\n      0x75736572206e6f74207265676973746572640000000000000000000000000000\n        /* \"#utility.yul\":9981:9982   */\n      0x00\n        /* \"#utility.yul\":9973:9979   */\n      dup3\n        /* \"#utility.yul\":9969:9983   */\n      add\n        /* \"#utility.yul\":9962:10006   */\n      mstore\n        /* \"#utility.yul\":9845:10013   */\n      pop\n      jump\t// out\n        /* \"#utility.yul\":10019:10385   */\n    tag_290:\n        /* \"#utility.yul\":10161:10164   */\n      0x00\n        /* \"#utility.yul\":10182:10249   */\n      tag_435\n        /* \"#utility.yul\":10246:10248   */\n      0x12\n        /* \"#utility.yul\":10241:10244   */\n      dup4\n        /* \"#utility.yul\":10182:10249   */\n      tag_260\n      jump\t// in\n    tag_435:\n        /* \"#utility.yul\":10175:10249   */\n      swap2\n      pop\n        /* \"#utility.yul\":10258:10351   */\n      tag_436\n        /* \"#utility.yul\":10347:10350   */\n      dup3\n        /* \"#utility.yul\":10258:10351   */\n      tag_289\n      jump\t// in\n    tag_436:\n        /* \"#utility.yul\":10376:10378   */\n      0x20\n        /* \"#utility.yul\":10371:10374   */\n      dup3\n        /* \"#utility.yul\":10367:10379   */\n      add\n        /* \"#utility.yul\":10360:10379   */\n      swap1\n      pop\n        /* \"#utility.yul\":10019:10385   */\n      swap2\n      swap1\n      pop\n      jump\t// out\n        /* \"#utility.yul\":10391:10810   */\n    tag_163:\n        /* \"#utility.yul\":10557:10561   */\n      0x00\n        /* \"#utility.yul\":10595:10597   */\n      0x20\n        /* \"#utility.yul\":10584:10593   */\n      dup3\n        /* \"#utility.yul\":10580:10598   */\n      add\n        /* \"#utility.yul\":10572:10598   */\n      swap1\n      pop\n        /* \"#utility.yul\":10644:10653   */\n      dup2\n        /* \"#utility.yul\":10638:10642   */\n      dup2\n        /* \"#utility.yul\":10634:10654   */\n      sub\n        /* \"#utility.yul\":10630:10631   */\n      0x00\n        /* \"#utility.yul\":10619:10628   */\n      dup4\n        /* \"#utility.yul\":10615:10632   */\n      add\n        /* \"#utility.yul\":10608:10655   */\n      mstore\n        /* \"#utility.yul\":10672:10803   */\n      tag_438\n        /* \"#utility.yul\":10798:10802   */\n      dup2\n        /* \"#utility.yul\":10672:10803   */\n      tag_290\n      jump\t// in\n    tag_438:\n        /* \"#utility.yul\":10664:10803   */\n      swap1\n      pop\n        /* \"#utility.yul\":10391:10810   */\n      swap2\n      swap1\n      pop\n      jump\t// out\n        /* \"#utility.yul\":10816:10984   */\n    tag_291:\n        /* \"#utility.yul\":10956:10976   */\n      0x7573657220616c72656164792065786973740000000000000000000000000000\n        /* \"#utility.yul\":10952:10953   */\n      0x00\n        /* \"#utility.yul\":10944:10950   */\n      dup3\n        /* \"#utility.yul\":10940:10954   */\n      add\n        /* \"#utility.yul\":10933:10977   */\n      mstore\n        /* \"#utility.yul\":10816:10984   */\n      pop\n      jump\t// out\n        /* \"#utility.yul\":10990:11356   */\n    tag_292:\n        /* \"#utility.yul\":11132:11135   */\n      0x00\n        /* \"#utility.yul\":11153:11220   */\n      tag_441\n        /* \"#utility.yul\":11217:11219   */\n      0x12\n        /* \"#utility.yul\":11212:11215   */\n      dup4\n        /* \"#utility.yul\":11153:11220   */\n      tag_260\n      jump\t// in\n    tag_441:\n        /* \"#utility.yul\":11146:11220   */\n      swap2\n      pop\n        /* \"#utility.yul\":11229:11322   */\n      tag_442\n        /* \"#utility.yul\":11318:11321   */\n      dup3\n        /* \"#utility.yul\":11229:11322   */\n      tag_291\n      jump\t// in\n    tag_442:\n        /* \"#utility.yul\":11347:11349   */\n      0x20\n        /* \"#utility.yul\":11342:11345   */\n      dup3\n        /* \"#utility.yul\":11338:11350   */\n      add\n        /* \"#utility.yul\":11331:11350   */\n      swap1\n      pop\n        /* \"#utility.yul\":10990:11356   */\n      swap2\n      swap1\n      pop\n      jump\t// out\n        /* \"#utility.yul\":11362:11781   */\n    tag_167:\n        /* \"#utility.yul\":11528:11532   */\n      0x00\n        /* \"#utility.yul\":11566:11568   */\n      0x20\n        /* \"#utility.yul\":11555:11564   */\n      dup3\n        /* \"#utility.yul\":11551:11569   */\n      add\n        /* \"#utility.yul\":11543:11569   */\n      swap1\n      pop\n        /* \"#utility.yul\":11615:11624   */\n      dup2\n        /* \"#utility.yul\":11609:11613   */\n      dup2\n        /* \"#utility.yul\":11605:11625   */\n      sub\n        /* \"#utility.yul\":11601:11602   */\n      0x00\n        /* \"#utility.yul\":11590:11599   */\n      dup4\n        /* \"#utility.yul\":11586:11603   */\n      add\n        /* \"#utility.yul\":11579:11626   */\n      mstore\n        /* \"#utility.yul\":11643:11774   */\n      tag_444\n        /* \"#utility.yul\":11769:11773   */\n      dup2\n        /* \"#utility.yul\":11643:11774   */\n      tag_292\n      jump\t// in\n    tag_444:\n        /* \"#utility.yul\":11635:11774   */\n      swap1\n      pop\n        /* \"#utility.yul\":11362:11781   */\n      swap2\n      swap1\n      pop\n      jump\t// out\n        /* \"#utility.yul\":11787:12020   */\n    tag_169:\n        /* \"#utility.yul\":11826:11829   */\n      0x00\n        /* \"#utility.yul\":11849:11873   */\n      tag_446\n        /* \"#utility.yul\":11867:11872   */\n      dup3\n        /* \"#utility.yul\":11849:11873   */\n      tag_271\n      jump\t// in\n    tag_446:\n        /* \"#utility.yul\":11840:11873   */\n      swap2\n      pop\n        /* \"#utility.yul\":11895:11961   */\n      0xffffffffffffffffffffffffffffffffffffffffffffffffffffffffffffffff\n        /* \"#utility.yul\":11888:11893   */\n      dup3\n        /* \"#utility.yul\":11885:11962   */\n      sub\n        /* \"#utility.yul\":11882:11985   */\n      tag_447\n      jumpi\n        /* \"#utility.yul\":11965:11983   */\n      tag_448\n      tag_288\n      jump\t// in\n    tag_448:\n        /* \"#utility.yul\":11882:11985   */\n    tag_447:\n        /* \"#utility.yul\":12012:12013   */\n      0x01\n        /* \"#utility.yul\":12005:12010   */\n      dup3\n        /* \"#utility.yul\":12001:12014   */\n      add\n        /* \"#utility.yul\":11994:12014   */\n      swap1\n      pop\n        /* \"#utility.yul\":11787:12020   */\n      swap2\n      swap1\n      pop\n      jump\t// out\n        /* \"#utility.yul\":12026:12120   */\n    tag_293:\n        /* \"#utility.yul\":12059:12067   */\n      0x00\n        /* \"#utility.yul\":12107:12112   */\n      dup2\n        /* \"#utility.yul\":12103:12105   */\n      0x60\n        /* \"#utility.yul\":12099:12113   */\n      shl\n        /* \"#utility.yul\":12078:12113   */\n      swap1\n      pop\n        /* \"#utility.yul\":12026:12120   */\n      swap2\n      swap1\n      pop\n      jump\t// out\n        /* \"#utility.yul\":12126:12220   */\n    tag_294:\n        /* \"#utility.yul\":12165:12172   */\n      0x00\n        /* \"#utility.yul\":12194:12214   */\n      tag_451\n        /* \"#utility.yul\":12208:12213   */\n      dup3\n        /* \"#utility.yul\":12194:12214   */\n      tag_293\n      jump\t// in\n    tag_451:\n        /* \"#utility.yul\":12183:12214   */\n      swap1\n      pop\n        /* \"#utility.yul\":12126:12220   */\n      swap2\n      swap1\n      pop\n      jump\t// out\n        /* \"#utility.yul\":12226:12326   */\n    tag_295:\n        /* \"#utility.yul\":12265:12272   */\n      0x00\n        /* \"#utility.yul\":12294:12320   */\n      tag_453\n        /* \"#utility.yul\":12314:12319   */\n      dup3\n        /* \"#utility.yul\":12294:12320   */\n      tag_294\n      jump\t// in\n    tag_453:\n        /* \"#utility.yul\":12283:12320   */\n      swap1\n      pop\n        /* \"#utility.yul\":12226:12326   */\n      swap2\n      swap1\n      pop\n      jump\t// out\n        /* \"#utility.yul\":12332:12489   */\n    tag_296:\n        /* \"#utility.yul\":12437:12482   */\n      tag_455\n        /* \"#utility.yul\":12457:12481   */\n      tag_456\n        /* \"#utility.yul\":12475:12480   */\n      dup3\n        /* \"#utility.yul\":12457:12481   */\n      tag_268\n      jump\t// in\n    tag_456:\n        /* \"#utility.yul\":12437:12482   */\n      tag_295\n      jump\t// in\n    tag_455:\n        /* \"#utility.yul\":12432:12435   */\n      dup3\n        /* \"#utility.yul\":12425:12483   */\n      mstore\n        /* \"#utility.yul\":12332:12489   */\n      pop\n      pop\n      jump\t// out\n        /* \"#utility.yul\":12495:12751   */\n    tag_178:\n        /* \"#utility.yul\":12607:12610   */\n      0x00\n        /* \"#utility.yul\":12622:12697   */\n      tag_458\n        /* \"#utility.yul\":12693:12696   */\n      dup3\n        /* \"#utility.yul\":12684:12690   */\n      dup5\n        /* \"#utility.yul\":12622:12697   */\n      tag_296\n      jump\t// in\n    tag_458:\n        /* \"#utility.yul\":12722:12724   */\n      0x14\n        /* \"#utility.yul\":12717:12720   */\n      dup3\n        /* \"#utility.yul\":12713:12725   */\n      add\n        /* \"#utility.yul\":12706:12725   */\n      swap2\n      pop\n        /* \"#utility.yul\":12742:12745   */\n      dup2\n        /* \"#utility.yul\":12735:12745   */\n      swap1\n      pop\n        /* \"#utility.yul\":12495:12751   */\n      swap3\n      swap2\n      pop\n      pop\n      jump\t// out\n        /* \"#utility.yul\":12757:12884   */\n    tag_297:\n        /* \"#utility.yul\":12837:12843   */\n      0x00\n        /* \"#utility.yul\":12871:12876   */\n      dup2\n        /* \"#utility.yul\":12865:12877   */\n      sload\n        /* \"#utility.yul\":12855:12877   */\n      swap1\n      pop\n        /* \"#utility.yul\":12757:12884   */\n      swap2\n      swap1\n      pop\n      jump\t// out\n        /* \"#utility.yul\":12890:13061   */\n    tag_298:\n        /* \"#utility.yul\":13015:13026   */\n      0x00\n        /* \"#utility.yul\":13052:13055   */\n      dup2\n        /* \"#utility.yul\":13037:13055   */\n      swap1\n      pop\n        /* \"#utility.yul\":12890:13061   */\n      swap3\n      swap2\n      pop\n      pop\n      jump\t// out\n        /* \"#utility.yul\":13067:13239   */\n    tag_299:\n        /* \"#utility.yul\":13147:13151   */\n      0x00\n        /* \"#utility.yul\":13170:13173   */\n      dup2\n        /* \"#utility.yul\":13162:13173   */\n      swap1\n      pop\n        /* \"#utility.yul\":13193:13196   */\n      dup2\n        /* \"#utility.yul\":13190:13191   */\n      0x00\n        /* \"#utility.yul\":13183:13197   */\n      mstore\n        /* \"#utility.yul\":13227:13231   */\n      0x20\n        /* \"#utility.yul\":13224:13225   */\n      0x00\n        /* \"#utility.yul\":13214:13232   */\n      keccak256\n        /* \"#utility.yul\":13206:13232   */\n      swap1\n      pop\n        /* \"#utility.yul\":13067:13239   */\n      swap2\n      swap1\n      pop\n      jump\t// out\n        /* \"#utility.yul\":13245:13422   */\n    tag_300:\n        /* \"#utility.yul\":13354:13415   */\n      tag_463\n        /* \"#utility.yul\":13409:13414   */\n      dup2\n        /* \"#utility.yul\":13354:13415   */\n      tag_283\n      jump\t// in\n    tag_463:\n        /* \"#utility.yul\":13349:13352   */\n      dup3\n        /* \"#utility.yul\":13342:13416   */\n      mstore\n        /* \"#utility.yul\":13245:13422   */\n      pop\n      pop\n      jump\t// out\n        /* \"#utility.yul\":13428:13671   */\n    tag_301:\n        /* \"#utility.yul\":13529:13539   */\n      0x00\n        /* \"#utility.yul\":13550:13628   */\n      tag_465\n        /* \"#utility.yul\":13624:13627   */\n      dup4\n        /* \"#utility.yul\":13616:13622   */\n      dup4\n        /* \"#utility.yul\":13550:13628   */\n      tag_300\n      jump\t// in\n    tag_465:\n        /* \"#utility.yul\":13660:13664   */\n      0x20\n        /* \"#utility.yul\":13655:13658   */\n      dup4\n        /* \"#utility.yul\":13651:13665   */\n      add\n        /* \"#utility.yul\":13637:13665   */\n      swap1\n      pop\n        /* \"#utility.yul\":13428:13671   */\n      swap3\n      swap2\n      pop\n      pop\n      jump\t// out\n        /* \"#utility.yul\":13677:13779   */\n    tag_302:\n        /* \"#utility.yul\":13719:13727   */\n      0x00\n        /* \"#utility.yul\":13766:13771   */\n      dup2\n        /* \"#utility.yul\":13763:13764   */\n      0x00\n        /* \"#utility.yul\":13759:13772   */\n      shr\n        /* \"#utility.yul\":13738:13772   */\n      swap1\n      pop\n        /* \"#utility.yul\":13677:13779   */\n      swap2\n      swap1\n      pop\n      jump\t// out\n        /* \"#utility.yul\":13785:13940   */\n    tag_303:\n        /* \"#utility.yul\":13851:13858   */\n      0x00\n        /* \"#utility.yul\":13891:13933   */\n      0xffffffffffffffffffffffffffffffffffffffff\n        /* \"#utility.yul\":13884:13889   */\n      dup3\n        /* \"#utility.yul\":13880:13934   */\n      and\n        /* \"#utility.yul\":13869:13934   */\n      swap1\n      pop\n        /* \"#utility.yul\":13785:13940   */\n      swap2\n      swap1\n      pop\n      jump\t// out\n        /* \"#utility.yul\":13946:14144   */\n    tag_304:\n        /* \"#utility.yul\":14031:14036   */\n      0x00\n        /* \"#utility.yul\":14056:14138   */\n      tag_469\n        /* \"#utility.yul\":14103:14137   */\n      tag_470\n        /* \"#utility.yul\":14126:14136   */\n      dup4\n        /* \"#utility.yul\":14103:14137   */\n      tag_302\n      jump\t// in\n    tag_470:\n        /* \"#utility.yul\":14056:14138   */\n      tag_303\n      jump\t// in\n    tag_469:\n        /* \"#utility.yul\":14047:14138   */\n      swap1\n      pop\n        /* \"#utility.yul\":13946:14144   */\n      swap2\n      swap1\n      pop\n      jump\t// out\n        /* \"#utility.yul\":14150:14326   */\n    tag_305:\n        /* \"#utility.yul\":14221:14226   */\n      0x00\n        /* \"#utility.yul\":14246:14319   */\n      tag_472\n        /* \"#utility.yul\":14313:14317   */\n      dup3\n        /* \"#utility.yul\":14307:14318   */\n      sload\n        /* \"#utility.yul\":14246:14319   */\n      tag_304\n      jump\t// in\n    tag_472:\n        /* \"#utility.yul\":14237:14319   */\n      swap1\n      pop\n        /* \"#utility.yul\":14150:14326   */\n      swap2\n      swap1\n      pop\n      jump\t// out\n        /* \"#utility.yul\":14332:14458   */\n    tag_306:\n        /* \"#utility.yul\":14415:14419   */\n      0x00\n        /* \"#utility.yul\":14447:14451   */\n      0x01\n        /* \"#utility.yul\":14442:14445   */\n      dup3\n        /* \"#utility.yul\":14438:14452   */\n      add\n        /* \"#utility.yul\":14430:14452   */\n      swap1\n      pop\n        /* \"#utility.yul\":14332:14458   */\n      swap2\n      swap1\n      pop\n      jump\t// out\n        /* \"#utility.yul\":14512:15427   */\n    tag_307:\n        /* \"#utility.yul\":14670:14673   */\n      0x00\n        /* \"#utility.yul\":14699:14766   */\n      tag_475\n        /* \"#utility.yul\":14760:14765   */\n      dup3\n        /* \"#utility.yul\":14699:14766   */\n      tag_297\n      jump\t// in\n    tag_475:\n        /* \"#utility.yul\":14782:14894   */\n      tag_476\n        /* \"#utility.yul\":14887:14893   */\n      dup2\n        /* \"#utility.yul\":14882:14885   */\n      dup6\n        /* \"#utility.yul\":14782:14894   */\n      tag_298\n      jump\t// in\n    tag_476:\n        /* \"#utility.yul\":14775:14894   */\n      swap4\n      pop\n        /* \"#utility.yul\":14918:14987   */\n      tag_477\n        /* \"#utility.yul\":14981:14986   */\n      dup4\n        /* \"#utility.yul\":14918:14987   */\n      tag_299\n      jump\t// in\n    tag_477:\n        /* \"#utility.yul\":15010:15017   */\n      dup1\n        /* \"#utility.yul\":15041:15042   */\n      0x00\n        /* \"#utility.yul\":15026:15402   */\n    tag_478:\n        /* \"#utility.yul\":15051:15057   */\n      dup4\n        /* \"#utility.yul\":15048:15049   */\n      dup2\n        /* \"#utility.yul\":15045:15058   */\n      lt\n        /* \"#utility.yul\":15026:15402   */\n      iszero\n      tag_480\n      jumpi\n        /* \"#utility.yul\":15121:15181   */\n      tag_481\n        /* \"#utility.yul\":15174:15180   */\n      dup3\n        /* \"#utility.yul\":15121:15181   */\n      tag_305\n      jump\t// in\n    tag_481:\n        /* \"#utility.yul\":15201:15296   */\n      tag_482\n        /* \"#utility.yul\":15292:15295   */\n      dup9\n        /* \"#utility.yul\":15277:15290   */\n      dup3\n        /* \"#utility.yul\":15201:15296   */\n      tag_301\n      jump\t// in\n    tag_482:\n        /* \"#utility.yul\":15194:15296   */\n      swap8\n      pop\n        /* \"#utility.yul\":15319:15392   */\n      tag_483\n        /* \"#utility.yul\":15385:15391   */\n      dup4\n        /* \"#utility.yul\":15319:15392   */\n      tag_306\n      jump\t// in\n    tag_483:\n        /* \"#utility.yul\":15309:15392   */\n      swap3\n      pop\n        /* \"#utility.yul\":15086:15402   */\n      pop\n        /* \"#utility.yul\":15073:15074   */\n      0x01\n        /* \"#utility.yul\":15070:15071   */\n      dup2\n        /* \"#utility.yul\":15066:15075   */\n      add\n        /* \"#utility.yul\":15061:15075   */\n      swap1\n      pop\n        /* \"#utility.yul\":15026:15402   */\n      jump(tag_478)\n    tag_480:\n        /* \"#utility.yul\":15030:15044   */\n      pop\n        /* \"#utility.yul\":15418:15421   */\n      dup6\n        /* \"#utility.yul\":15411:15421   */\n      swap4\n      pop\n        /* \"#utility.yul\":14675:15427   */\n      pop\n      pop\n      pop\n        /* \"#utility.yul\":14512:15427   */\n      swap3\n      swap2\n      pop\n      pop\n      jump\t// out\n        /* \"#utility.yul\":15433:15810   */\n    tag_180:\n        /* \"#utility.yul\":15616:15619   */\n      0x00\n        /* \"#utility.yul\":15638:15784   */\n      tag_485\n        /* \"#utility.yul\":15780:15783   */\n      dup3\n        /* \"#utility.yul\":15771:15777   */\n      dup5\n        /* \"#utility.yul\":15638:15784   */\n      tag_307\n      jump\t// in\n    tag_485:\n        /* \"#utility.yul\":15631:15784   */\n      swap2\n      pop\n        /* \"#utility.yul\":15801:15804   */\n      dup2\n        /* \"#utility.yul\":15794:15804   */\n      swap1\n      pop\n        /* \"#utility.yul\":15433:15810   */\n      swap3\n      swap2\n      pop\n      pop\n      jump\t// out\n        /* \"#utility.yul\":15816:16051   */\n    tag_308:\n        /* \"#utility.yul\":15956:15990   */\n      0x4f6e6c7920436f6e747261637420636f696e62616e6b2063616e206578656375\n        /* \"#utility.yul\":15952:15953   */\n      0x00\n        /* \"#utility.yul\":15944:15950   */\n      dup3\n        /* \"#utility.yul\":15940:15954   */\n      add\n        /* \"#utility.yul\":15933:15991   */\n      mstore\n        /* \"#utility.yul\":16025:16043   */\n      0x746520746869732066756e6374696f6e00000000000000000000000000000000\n        /* \"#utility.yul\":16020:16022   */\n      0x20\n        /* \"#utility.yul\":16012:16018   */\n      dup3\n        /* \"#utility.yul\":16008:16023   */\n      add\n        /* \"#utility.yul\":16001:16044   */\n      mstore\n        /* \"#utility.yul\":15816:16051   */\n      pop\n      jump\t// out\n        /* \"#utility.yul\":16057:16423   */\n    tag_309:\n        /* \"#utility.yul\":16199:16202   */\n      0x00\n        /* \"#utility.yul\":16220:16287   */\n      tag_488\n        /* \"#utility.yul\":16284:16286   */\n      0x30\n        /* \"#utility.yul\":16279:16282   */\n      dup4\n        /* \"#utility.yul\":16220:16287   */\n      tag_260\n      jump\t// in\n    tag_488:\n        /* \"#utility.yul\":16213:16287   */\n      swap2\n      pop\n        /* \"#utility.yul\":16296:16389   */\n      tag_489\n        /* \"#utility.yul\":16385:16388   */\n      dup3\n        /* \"#utility.yul\":16296:16389   */\n      tag_308\n      jump\t// in\n    tag_489:\n        /* \"#utility.yul\":16414:16416   */\n      0x40\n        /* \"#utility.yul\":16409:16412   */\n      dup3\n        /* \"#utility.yul\":16405:16417   */\n      add\n        /* \"#utility.yul\":16398:16417   */\n      swap1\n      pop\n        /* \"#utility.yul\":16057:16423   */\n      swap2\n      swap1\n      pop\n      jump\t// out\n        /* \"#utility.yul\":16429:16848   */\n    tag_183:\n        /* \"#utility.yul\":16595:16599   */\n      0x00\n        /* \"#utility.yul\":16633:16635   */\n      0x20\n        /* \"#utility.yul\":16622:16631   */\n      dup3\n        /* \"#utility.yul\":16618:16636   */\n      add\n        /* \"#utility.yul\":16610:16636   */\n      swap1\n      pop\n        /* \"#utility.yul\":16682:16691   */\n      dup2\n        /* \"#utility.yul\":16676:16680   */\n      dup2\n        /* \"#utility.yul\":16672:16692   */\n      sub\n        /* \"#utility.yul\":16668:16669   */\n      0x00\n        /* \"#utility.yul\":16657:16666   */\n      dup4\n        /* \"#utility.yul\":16653:16670   */\n      add\n        /* \"#utility.yul\":16646:16693   */\n      mstore\n        /* \"#utility.yul\":16710:16841   */\n      tag_491\n        /* \"#utility.yul\":16836:16840   */\n      dup2\n        /* \"#utility.yul\":16710:16841   */\n      tag_309\n      jump\t// in\n    tag_491:\n        /* \"#utility.yul\":16702:16841   */\n      swap1\n      pop\n        /* \"#utility.yul\":16429:16848   */\n      swap2\n      swap1\n      pop\n      jump\t// out\n        /* \"#utility.yul\":16854:17045   */\n    tag_186:\n        /* \"#utility.yul\":16894:16898   */\n      0x00\n        /* \"#utility.yul\":16914:16934   */\n      tag_493\n        /* \"#utility.yul\":16932:16933   */\n      dup3\n        /* \"#utility.yul\":16914:16934   */\n      tag_271\n      jump\t// in\n    tag_493:\n        /* \"#utility.yul\":16909:16934   */\n      swap2\n      pop\n        /* \"#utility.yul\":16948:16968   */\n      tag_494\n        /* \"#utility.yul\":16966:16967   */\n      dup4\n        /* \"#utility.yul\":16948:16968   */\n      tag_271\n      jump\t// in\n    tag_494:\n        /* \"#utility.yul\":16943:16968   */\n      swap3\n      pop\n        /* \"#utility.yul\":16987:16988   */\n      dup3\n        /* \"#utility.yul\":16984:16985   */\n      dup3\n        /* \"#utility.yul\":16981:16989   */\n      lt\n        /* \"#utility.yul\":16978:17012   */\n      iszero\n      tag_495\n      jumpi\n        /* \"#utility.yul\":16992:17010   */\n      tag_496\n      tag_288\n      jump\t// in\n    tag_496:\n        /* \"#utility.yul\":16978:17012   */\n    tag_495:\n        /* \"#utility.yul\":17037:17038   */\n      dup3\n        /* \"#utility.yul\":17034:17035   */\n      dup3\n        /* \"#utility.yul\":17030:17039   */\n      sub\n        /* \"#utility.yul\":17022:17039   */\n      swap1\n      pop\n        /* \"#utility.yul\":16854:17045   */\n      swap3\n      swap2\n      pop\n      pop\n      jump\t// out\n        /* \"#utility.yul\":17051:17231   */\n    tag_196:\n        /* \"#utility.yul\":17099:17176   */\n      0x4e487b7100000000000000000000000000000000000000000000000000000000\n        /* \"#utility.yul\":17096:17097   */\n      0x00\n        /* \"#utility.yul\":17089:17177   */\n      mstore\n        /* \"#utility.yul\":17196:17200   */\n      0x32\n        /* \"#utility.yul\":17193:17194   */\n      0x04\n        /* \"#utility.yul\":17186:17201   */\n      mstore\n        /* \"#utility.yul\":17220:17224   */\n      0x24\n        /* \"#utility.yul\":17217:17218   */\n      0x00\n        /* \"#utility.yul\":17210:17225   */\n      revert\n        /* \"#utility.yul\":17237:17461   */\n    tag_310:\n        /* \"#utility.yul\":17377:17411   */\n      0x45524332303a2064656372656173656420616c6c6f77616e63652062656c6f77\n        /* \"#utility.yul\":17373:17374   */\n      0x00\n        /* \"#utility.yul\":17365:17371   */\n      dup3\n        /* \"#utility.yul\":17361:17375   */\n      add\n        /* \"#utility.yul\":17354:17412   */\n      mstore\n        /* \"#utility.yul\":17446:17453   */\n      0x207a65726f000000000000000000000000000000000000000000000000000000\n        /* \"#utility.yul\":17441:17443   */\n      0x20\n        /* \"#utility.yul\":17433:17439   */\n      dup3\n        /* \"#utility.yul\":17429:17444   */\n      add\n        /* \"#utility.yul\":17422:17454   */\n      mstore\n        /* \"#utility.yul\":17237:17461   */\n      pop\n      jump\t// out\n        /* \"#utility.yul\":17467:17833   */\n    tag_311:\n        /* \"#utility.yul\":17609:17612   */\n      0x00\n        /* \"#utility.yul\":17630:17697   */\n      tag_500\n        /* \"#utility.yul\":17694:17696   */\n      0x25\n        /* \"#utility.yul\":17689:17692   */\n      dup4\n        /* \"#utility.yul\":17630:17697   */\n      tag_260\n      jump\t// in\n    tag_500:\n        /* \"#utility.yul\":17623:17697   */\n      swap2\n      pop\n        /* \"#utility.yul\":17706:17799   */\n      tag_501\n        /* \"#utility.yul\":17795:17798   */\n      dup3\n        /* \"#utility.yul\":17706:17799   */\n      tag_310\n      jump\t// in\n    tag_501:\n        /* \"#utility.yul\":17824:17826   */\n      0x40\n        /* \"#utility.yul\":17819:17822   */\n      dup3\n        /* \"#utility.yul\":17815:17827   */\n      add\n        /* \"#utility.yul\":17808:17827   */\n      swap1\n      pop\n        /* \"#utility.yul\":17467:17833   */\n      swap2\n      swap1\n      pop\n      jump\t// out\n        /* \"#utility.yul\":17839:18258   */\n    tag_210:\n        /* \"#utility.yul\":18005:18009   */\n      0x00\n        /* \"#utility.yul\":18043:18045   */\n      0x20\n        /* \"#utility.yul\":18032:18041   */\n      dup3\n        /* \"#utility.yul\":18028:18046   */\n      add\n        /* \"#utility.yul\":18020:18046   */\n      swap1\n      pop\n        /* \"#utility.yul\":18092:18101   */\n      dup2\n        /* \"#utility.yul\":18086:18090   */\n      dup2\n        /* \"#utility.yul\":18082:18102   */\n      sub\n        /* \"#utility.yul\":18078:18079   */\n      0x00\n        /* \"#utility.yul\":18067:18076   */\n      dup4\n        /* \"#utility.yul\":18063:18080   */\n      add\n        /* \"#utility.yul\":18056:18103   */\n      mstore\n        /* \"#utility.yul\":18120:18251   */\n      tag_503\n        /* \"#utility.yul\":18246:18250   */\n      dup2\n        /* \"#utility.yul\":18120:18251   */\n      tag_311\n      jump\t// in\n    tag_503:\n        /* \"#utility.yul\":18112:18251   */\n      swap1\n      pop\n        /* \"#utility.yul\":17839:18258   */\n      swap2\n      swap1\n      pop\n      jump\t// out\n        /* \"#utility.yul\":18264:18433   */\n    tag_312:\n        /* \"#utility.yul\":18404:18425   */\n      0x5573657220646f6573206e6f7420657869737400000000000000000000000000\n        /* \"#utility.yul\":18400:18401   */\n      0x00\n        /* \"#utility.yul\":18392:18398   */\n      dup3\n        /* \"#utility.yul\":18388:18402   */\n      add\n        /* \"#utility.yul\":18381:18426   */\n      mstore\n        /* \"#utility.yul\":18264:18433   */\n      pop\n      jump\t// out\n        /* \"#utility.yul\":18439:18805   */\n    tag_313:\n        /* \"#utility.yul\":18581:18584   */\n      0x00\n        /* \"#utility.yul\":18602:18669   */\n      tag_506\n        /* \"#utility.yul\":18666:18668   */\n      0x13\n        /* \"#utility.yul\":18661:18664   */\n      dup4\n        /* \"#utility.yul\":18602:18669   */\n      tag_260\n      jump\t// in\n    tag_506:\n        /* \"#utility.yul\":18595:18669   */\n      swap2\n      pop\n        /* \"#utility.yul\":18678:18771   */\n      tag_507\n        /* \"#utility.yul\":18767:18770   */\n      dup3\n        /* \"#utility.yul\":18678:18771   */\n      tag_312\n      jump\t// in\n    tag_507:\n        /* \"#utility.yul\":18796:18798   */\n      0x20\n        /* \"#utility.yul\":18791:18794   */\n      dup3\n        /* \"#utility.yul\":18787:18799   */\n      add\n        /* \"#utility.yul\":18780:18799   */\n      swap1\n      pop\n        /* \"#utility.yul\":18439:18805   */\n      swap2\n      swap1\n      pop\n      jump\t// out\n        /* \"#utility.yul\":18811:19230   */\n    tag_221:\n        /* \"#utility.yul\":18977:18981   */\n      0x00\n        /* \"#utility.yul\":19015:19017   */\n      0x20\n        /* \"#utility.yul\":19004:19013   */\n      dup3\n        /* \"#utility.yul\":19000:19018   */\n      add\n        /* \"#utility.yul\":18992:19018   */\n      swap1\n      pop\n        /* \"#utility.yul\":19064:19073   */\n      dup2\n        /* \"#utility.yul\":19058:19062   */\n      dup2\n        /* \"#utility.yul\":19054:19074   */\n      sub\n        /* \"#utility.yul\":19050:19051   */\n      0x00\n        /* \"#utility.yul\":19039:19048   */\n      dup4\n        /* \"#utility.yul\":19035:19052   */\n      add\n        /* \"#utility.yul\":19028:19075   */\n      mstore\n        /* \"#utility.yul\":19092:19223   */\n      tag_509\n        /* \"#utility.yul\":19218:19222   */\n      dup2\n        /* \"#utility.yul\":19092:19223   */\n      tag_313\n      jump\t// in\n    tag_509:\n        /* \"#utility.yul\":19084:19223   */\n      swap1\n      pop\n        /* \"#utility.yul\":18811:19230   */\n      swap2\n      swap1\n      pop\n      jump\t// out\n        /* \"#utility.yul\":19236:19459   */\n    tag_314:\n        /* \"#utility.yul\":19376:19410   */\n      0x45524332303a20617070726f76652066726f6d20746865207a65726f20616464\n        /* \"#utility.yul\":19372:19373   */\n      0x00\n        /* \"#utility.yul\":19364:19370   */\n      dup3\n        /* \"#utility.yul\":19360:19374   */\n      add\n        /* \"#utility.yul\":19353:19411   */\n      mstore\n        /* \"#utility.yul\":19445:19451   */\n      0x7265737300000000000000000000000000000000000000000000000000000000\n        /* \"#utility.yul\":19440:19442   */\n      0x20\n        /* \"#utility.yul\":19432:19438   */\n      dup3\n        /* \"#utility.yul\":19428:19443   */\n      add\n        /* \"#utility.yul\":19421:19452   */\n      mstore\n        /* \"#utility.yul\":19236:19459   */\n      pop\n      jump\t// out\n        /* \"#utility.yul\":19465:19831   */\n    tag_315:\n        /* \"#utility.yul\":19607:19610   */\n      0x00\n        /* \"#utility.yul\":19628:19695   */\n      tag_512\n        /* \"#utility.yul\":19692:19694   */\n      0x24\n        /* \"#utility.yul\":19687:19690   */\n      dup4\n        /* \"#utility.yul\":19628:19695   */\n      tag_260\n      jump\t// in\n    tag_512:\n        /* \"#utility.yul\":19621:19695   */\n      swap2\n      pop\n        /* \"#utility.yul\":19704:19797   */\n      tag_513\n        /* \"#utility.yul\":19793:19796   */\n      dup3\n        /* \"#utility.yul\":19704:19797   */\n      tag_314\n      jump\t// in\n    tag_513:\n        /* \"#utility.yul\":19822:19824   */\n      0x40\n        /* \"#utility.yul\":19817:19820   */\n      dup3\n        /* \"#utility.yul\":19813:19825   */\n      add\n        /* \"#utility.yul\":19806:19825   */\n      swap1\n      pop\n        /* \"#utility.yul\":19465:19831   */\n      swap2\n      swap1\n      pop\n      jump\t// out\n        /* \"#utility.yul\":19837:20256   */\n    tag_229:\n        /* \"#utility.yul\":20003:20007   */\n      0x00\n        /* \"#utility.yul\":20041:20043   */\n      0x20\n        /* \"#utility.yul\":20030:20039   */\n      dup3\n        /* \"#utility.yul\":20026:20044   */\n      add\n        /* \"#utility.yul\":20018:20044   */\n      swap1\n      pop\n        /* \"#utility.yul\":20090:20099   */\n      dup2\n        /* \"#utility.yul\":20084:20088   */\n      dup2\n        /* \"#utility.yul\":20080:20100   */\n      sub\n        /* \"#utility.yul\":20076:20077   */\n      0x00\n        /* \"#utility.yul\":20065:20074   */\n      dup4\n        /* \"#utility.yul\":20061:20078   */\n      add\n        /* \"#utility.yul\":20054:20101   */\n      mstore\n        /* \"#utility.yul\":20118:20249   */\n      tag_515\n        /* \"#utility.yul\":20244:20248   */\n      dup2\n        /* \"#utility.yul\":20118:20249   */\n      tag_315\n      jump\t// in\n    tag_515:\n        /* \"#utility.yul\":20110:20249   */\n      swap1\n      pop\n        /* \"#utility.yul\":19837:20256   */\n      swap2\n      swap1\n      pop\n      jump\t// out\n        /* \"#utility.yul\":20262:20483   */\n    tag_316:\n        /* \"#utility.yul\":20402:20436   */\n      0x45524332303a20617070726f766520746f20746865207a65726f206164647265\n        /* \"#utility.yul\":20398:20399   */\n      0x00\n        /* \"#utility.yul\":20390:20396   */\n      dup3\n        /* \"#utility.yul\":20386:20400   */\n      add\n        /* \"#utility.yul\":20379:20437   */\n      mstore\n        /* \"#utility.yul\":20471:20475   */\n      0x7373000000000000000000000000000000000000000000000000000000000000\n        /* \"#utility.yul\":20466:20468   */\n      0x20\n        /* \"#utility.yul\":20458:20464   */\n      dup3\n        /* \"#utility.yul\":20454:20469   */\n      add\n        /* \"#utility.yul\":20447:20476   */\n      mstore\n        /* \"#utility.yul\":20262:20483   */\n      pop\n      jump\t// out\n        /* \"#utility.yul\":20489:20855   */\n    tag_317:\n        /* \"#utility.yul\":20631:20634   */\n      0x00\n        /* \"#utility.yul\":20652:20719   */\n      tag_518\n        /* \"#utility.yul\":20716:20718   */\n      0x22\n        /* \"#utility.yul\":20711:20714   */\n      dup4\n        /* \"#utility.yul\":20652:20719   */\n      tag_260\n      jump\t// in\n    tag_518:\n        /* \"#utility.yul\":20645:20719   */\n      swap2\n      pop\n        /* \"#utility.yul\":20728:20821   */\n      tag_519\n        /* \"#utility.yul\":20817:20820   */\n      dup3\n        /* \"#utility.yul\":20728:20821   */\n      tag_316\n      jump\t// in\n    tag_519:\n        /* \"#utility.yul\":20846:20848   */\n      0x40\n        /* \"#utility.yul\":20841:20844   */\n      dup3\n        /* \"#utility.yul\":20837:20849   */\n      add\n        /* \"#utility.yul\":20830:20849   */\n      swap1\n      pop\n        /* \"#utility.yul\":20489:20855   */\n      swap2\n      swap1\n      pop\n      jump\t// out\n        /* \"#utility.yul\":20861:21280   */\n    tag_232:\n        /* \"#utility.yul\":21027:21031   */\n      0x00\n        /* \"#utility.yul\":21065:21067   */\n      0x20\n        /* \"#utility.yul\":21054:21063   */\n      dup3\n        /* \"#utility.yul\":21050:21068   */\n      add\n        /* \"#utility.yul\":21042:21068   */\n      swap1\n      pop\n        /* \"#utility.yul\":21114:21123   */\n      dup2\n        /* \"#utility.yul\":21108:21112   */\n      dup2\n        /* \"#utility.yul\":21104:21124   */\n      sub\n        /* \"#utility.yul\":21100:21101   */\n      0x00\n        /* \"#utility.yul\":21089:21098   */\n      dup4\n        /* \"#utility.yul\":21085:21102   */\n      add\n        /* \"#utility.yul\":21078:21125   */\n      mstore\n        /* \"#utility.yul\":21142:21273   */\n      tag_521\n        /* \"#utility.yul\":21268:21272   */\n      dup2\n        /* \"#utility.yul\":21142:21273   */\n      tag_317\n      jump\t// in\n    tag_521:\n        /* \"#utility.yul\":21134:21273   */\n      swap1\n      pop\n        /* \"#utility.yul\":20861:21280   */\n      swap2\n      swap1\n      pop\n      jump\t// out\n        /* \"#utility.yul\":21286:21510   */\n    tag_318:\n        /* \"#utility.yul\":21426:21460   */\n      0x45524332303a207472616e736665722066726f6d20746865207a65726f206164\n        /* \"#utility.yul\":21422:21423   */\n      0x00\n        /* \"#utility.yul\":21414:21420   */\n      dup3\n        /* \"#utility.yul\":21410:21424   */\n      add\n        /* \"#utility.yul\":21403:21461   */\n      mstore\n        /* \"#utility.yul\":21495:21502   */\n      0x6472657373000000000000000000000000000000000000000000000000000000\n        /* \"#utility.yul\":21490:21492   */\n      0x20\n        /* \"#utility.yul\":21482:21488   */\n      dup3\n        /* \"#utility.yul\":21478:21493   */\n      add\n        /* \"#utility.yul\":21471:21503   */\n      mstore\n        /* \"#utility.yul\":21286:21510   */\n      pop\n      jump\t// out\n        /* \"#utility.yul\":21516:21882   */\n    tag_319:\n        /* \"#utility.yul\":21658:21661   */\n      0x00\n        /* \"#utility.yul\":21679:21746   */\n      tag_524\n        /* \"#utility.yul\":21743:21745   */\n      0x25\n        /* \"#utility.yul\":21738:21741   */\n      dup4\n        /* \"#utility.yul\":21679:21746   */\n      tag_260\n      jump\t// in\n    tag_524:\n        /* \"#utility.yul\":21672:21746   */\n      swap2\n      pop\n        /* \"#utility.yul\":21755:21848   */\n      tag_525\n        /* \"#utility.yul\":21844:21847   */\n      dup3\n        /* \"#utility.yul\":21755:21848   */\n      tag_318\n      jump\t// in\n    tag_525:\n        /* \"#utility.yul\":21873:21875   */\n      0x40\n        /* \"#utility.yul\":21868:21871   */\n      dup3\n        /* \"#utility.yul\":21864:21876   */\n      add\n        /* \"#utility.yul\":21857:21876   */\n      swap1\n      pop\n        /* \"#utility.yul\":21516:21882   */\n      swap2\n      swap1\n      pop\n      jump\t// out\n        /* \"#utility.yul\":21888:22307   */\n    tag_237:\n        /* \"#utility.yul\":22054:22058   */\n      0x00\n        /* \"#utility.yul\":22092:22094   */\n      0x20\n        /* \"#utility.yul\":22081:22090   */\n      dup3\n        /* \"#utility.yul\":22077:22095   */\n      add\n        /* \"#utility.yul\":22069:22095   */\n      swap1\n      pop\n        /* \"#utility.yul\":22141:22150   */\n      dup2\n        /* \"#utility.yul\":22135:22139   */\n      dup2\n        /* \"#utility.yul\":22131:22151   */\n      sub\n        /* \"#utility.yul\":22127:22128   */\n      0x00\n        /* \"#utility.yul\":22116:22125   */\n      dup4\n        /* \"#utility.yul\":22112:22129   */\n      add\n        /* \"#utility.yul\":22105:22152   */\n      mstore\n        /* \"#utility.yul\":22169:22300   */\n      tag_527\n        /* \"#utility.yul\":22295:22299   */\n      dup2\n        /* \"#utility.yul\":22169:22300   */\n      tag_319\n      jump\t// in\n    tag_527:\n        /* \"#utility.yul\":22161:22300   */\n      swap1\n      pop\n        /* \"#utility.yul\":21888:22307   */\n      swap2\n      swap1\n      pop\n      jump\t// out\n        /* \"#utility.yul\":22313:22535   */\n    tag_320:\n        /* \"#utility.yul\":22453:22487   */\n      0x45524332303a207472616e7366657220746f20746865207a65726f2061646472\n        /* \"#utility.yul\":22449:22450   */\n      0x00\n        /* \"#utility.yul\":22441:22447   */\n      dup3\n        /* \"#utility.yul\":22437:22451   */\n      add\n        /* \"#utility.yul\":22430:22488   */\n      mstore\n        /* \"#utility.yul\":22522:22527   */\n      0x6573730000000000000000000000000000000000000000000000000000000000\n        /* \"#utility.yul\":22517:22519   */\n      0x20\n        /* \"#utility.yul\":22509:22515   */\n      dup3\n        /* \"#utility.yul\":22505:22520   */\n      add\n        /* \"#utility.yul\":22498:22528   */\n      mstore\n        /* \"#utility.yul\":22313:22535   */\n      pop\n      jump\t// out\n        /* \"#utility.yul\":22541:22907   */\n    tag_321:\n        /* \"#utility.yul\":22683:22686   */\n      0x00\n        /* \"#utility.yul\":22704:22771   */\n      tag_530\n        /* \"#utility.yul\":22768:22770   */\n      0x23\n        /* \"#utility.yul\":22763:22766   */\n      dup4\n        /* \"#utility.yul\":22704:22771   */\n      tag_260\n      jump\t// in\n    tag_530:\n        /* \"#utility.yul\":22697:22771   */\n      swap2\n      pop\n        /* \"#utility.yul\":22780:22873   */\n      tag_531\n        /* \"#utility.yul\":22869:22872   */\n      dup3\n        /* \"#utility.yul\":22780:22873   */\n      tag_320\n      jump\t// in\n    tag_531:\n        /* \"#utility.yul\":22898:22900   */\n      0x40\n        /* \"#utility.yul\":22893:22896   */\n      dup3\n        /* \"#utility.yul\":22889:22901   */\n      add\n        /* \"#utility.yul\":22882:22901   */\n      swap1\n      pop\n        /* \"#utility.yul\":22541:22907   */\n      swap2\n      swap1\n      pop\n      jump\t// out\n        /* \"#utility.yul\":22913:23332   */\n    tag_240:\n        /* \"#utility.yul\":23079:23083   */\n      0x00\n        /* \"#utility.yul\":23117:23119   */\n      0x20\n        /* \"#utility.yul\":23106:23115   */\n      dup3\n        /* \"#utility.yul\":23102:23120   */\n      add\n        /* \"#utility.yul\":23094:23120   */\n      swap1\n      pop\n        /* \"#utility.yul\":23166:23175   */\n      dup2\n        /* \"#utility.yul\":23160:23164   */\n      dup2\n        /* \"#utility.yul\":23156:23176   */\n      sub\n        /* \"#utility.yul\":23152:23153   */\n      0x00\n        /* \"#utility.yul\":23141:23150   */\n      dup4\n        /* \"#utility.yul\":23137:23154   */\n      add\n        /* \"#utility.yul\":23130:23177   */\n      mstore\n        /* \"#utility.yul\":23194:23325   */\n      tag_533\n        /* \"#utility.yul\":23320:23324   */\n      dup2\n        /* \"#utility.yul\":23194:23325   */\n      tag_321\n      jump\t// in\n    tag_533:\n        /* \"#utility.yul\":23186:23325   */\n      swap1\n      pop\n        /* \"#utility.yul\":22913:23332   */\n      swap2\n      swap1\n      pop\n      jump\t// out\n        /* \"#utility.yul\":23338:23563   */\n    tag_322:\n        /* \"#utility.yul\":23478:23512   */\n      0x45524332303a207472616e7366657220616d6f756e7420657863656564732062\n        /* \"#utility.yul\":23474:23475   */\n      0x00\n        /* \"#utility.yul\":23466:23472   */\n      dup3\n        /* \"#utility.yul\":23462:23476   */\n      add\n        /* \"#utility.yul\":23455:23513   */\n      mstore\n        /* \"#utility.yul\":23547:23555   */\n      0x616c616e63650000000000000000000000000000000000000000000000000000\n        /* \"#utility.yul\":23542:23544   */\n      0x20\n        /* \"#utility.yul\":23534:23540   */\n      dup3\n        /* \"#utility.yul\":23530:23545   */\n      add\n        /* \"#utility.yul\":23523:23556   */\n      mstore\n        /* \"#utility.yul\":23338:23563   */\n      pop\n      jump\t// out\n        /* \"#utility.yul\":23569:23935   */\n    tag_323:\n        /* \"#utility.yul\":23711:23714   */\n      0x00\n        /* \"#utility.yul\":23732:23799   */\n      tag_536\n        /* \"#utility.yul\":23796:23798   */\n      0x26\n        /* \"#utility.yul\":23791:23794   */\n      dup4\n        /* \"#utility.yul\":23732:23799   */\n      tag_260\n      jump\t// in\n    tag_536:\n        /* \"#utility.yul\":23725:23799   */\n      swap2\n      pop\n        /* \"#utility.yul\":23808:23901   */\n      tag_537\n        /* \"#utility.yul\":23897:23900   */\n      dup3\n        /* \"#utility.yul\":23808:23901   */\n      tag_322\n      jump\t// in\n    tag_537:\n        /* \"#utility.yul\":23926:23928   */\n      0x40\n        /* \"#utility.yul\":23921:23924   */\n      dup3\n        /* \"#utility.yul\":23917:23929   */\n      add\n        /* \"#utility.yul\":23910:23929   */\n      swap1\n      pop\n        /* \"#utility.yul\":23569:23935   */\n      swap2\n      swap1\n      pop\n      jump\t// out\n        /* \"#utility.yul\":23941:24360   */\n    tag_245:\n        /* \"#utility.yul\":24107:24111   */\n      0x00\n        /* \"#utility.yul\":24145:24147   */\n      0x20\n        /* \"#utility.yul\":24134:24143   */\n      dup3\n        /* \"#utility.yul\":24130:24148   */\n      add\n        /* \"#utility.yul\":24122:24148   */\n      swap1\n      pop\n        /* \"#utility.yul\":24194:24203   */\n      dup2\n        /* \"#utility.yul\":24188:24192   */\n      dup2\n        /* \"#utility.yul\":24184:24204   */\n      sub\n        /* \"#utility.yul\":24180:24181   */\n      0x00\n        /* \"#utility.yul\":24169:24178   */\n      dup4\n        /* \"#utility.yul\":24165:24182   */\n      add\n        /* \"#utility.yul\":24158:24205   */\n      mstore\n        /* \"#utility.yul\":24222:24353   */\n      tag_539\n        /* \"#utility.yul\":24348:24352   */\n      dup2\n        /* \"#utility.yul\":24222:24353   */\n      tag_323\n      jump\t// in\n    tag_539:\n        /* \"#utility.yul\":24214:24353   */\n      swap1\n      pop\n        /* \"#utility.yul\":23941:24360   */\n      swap2\n      swap1\n      pop\n      jump\t// out\n        /* \"#utility.yul\":24366:24714   */\n    tag_255:\n        /* \"#utility.yul\":24406:24413   */\n      0x00\n        /* \"#utility.yul\":24429:24449   */\n      tag_541\n        /* \"#utility.yul\":24447:24448   */\n      dup3\n        /* \"#utility.yul\":24429:24449   */\n      tag_271\n      jump\t// in\n    tag_541:\n        /* \"#utility.yul\":24424:24449   */\n      swap2\n      pop\n        /* \"#utility.yul\":24463:24483   */\n      tag_542\n        /* \"#utility.yul\":24481:24482   */\n      dup4\n        /* \"#utility.yul\":24463:24483   */\n      tag_271\n      jump\t// in\n    tag_542:\n        /* \"#utility.yul\":24458:24483   */\n      swap3\n      pop\n        /* \"#utility.yul\":24651:24652   */\n      dup2\n        /* \"#utility.yul\":24583:24649   */\n      0xffffffffffffffffffffffffffffffffffffffffffffffffffffffffffffffff\n        /* \"#utility.yul\":24579:24653   */\n      div\n        /* \"#utility.yul\":24576:24577   */\n      dup4\n        /* \"#utility.yul\":24573:24654   */\n      gt\n        /* \"#utility.yul\":24568:24569   */\n      dup3\n        /* \"#utility.yul\":24561:24570   */\n      iszero\n        /* \"#utility.yul\":24554:24571   */\n      iszero\n        /* \"#utility.yul\":24550:24655   */\n      and\n        /* \"#utility.yul\":24547:24678   */\n      iszero\n      tag_543\n      jumpi\n        /* \"#utility.yul\":24658:24676   */\n      tag_544\n      tag_288\n      jump\t// in\n    tag_544:\n        /* \"#utility.yul\":24547:24678   */\n    tag_543:\n        /* \"#utility.yul\":24706:24707   */\n      dup3\n        /* \"#utility.yul\":24703:24704   */\n      dup3\n        /* \"#utility.yul\":24699:24708   */\n      mul\n        /* \"#utility.yul\":24688:24708   */\n      swap1\n      pop\n        /* \"#utility.yul\":24366:24714   */\n      swap3\n      swap2\n      pop\n      pop\n      jump\t// out\n\n    auxdata: 0xa26469706673582212203fd57e9c0f6c828693048a9057097aedb7f319875de2856515777b0101e8dd4064736f6c634300080d0033\n}\n\nsub_1: assembly {\n        /* \"Documents/GitHub/XRC-20Plus/contracts/XRC20Plus.sol\":291:1827  contract CoinBank is CoinBank_Interface{... */\n      mstore(0x40, 0x80)\n        /* \"Documents/GitHub/XRC-20Plus/contracts/XRC20Plus.sol\":640:804  constructor(address _Treasury,uint _supply){... */\n      callvalue\n      dup1\n      iszero\n      tag_1\n      jumpi\n      0x00\n      dup1\n      revert\n    tag_1:\n      pop\n      mload(0x40)\n      sub(codesize, bytecodeSize)\n      dup1\n      bytecodeSize\n      dup4\n      codecopy\n      dup2\n      dup2\n      add\n      0x40\n      mstore\n      dup2\n      add\n      swap1\n      tag_2\n      swap2\n      swap1\n      tag_3\n      jump\t// in\n    tag_2:\n        /* \"Documents/GitHub/XRC-20Plus/contracts/XRC20Plus.sol\":703:741  CoinBank_Accounting(0,block.timestamp) */\n      mload(0x40)\n      dup1\n      0x40\n      add\n      0x40\n      mstore\n      dup1\n        /* \"Documents/GitHub/XRC-20Plus/contracts/XRC20Plus.sol\":723:724  0 */\n      0x00\n        /* \"Documents/GitHub/XRC-20Plus/contracts/XRC20Plus.sol\":703:741  CoinBank_Accounting(0,block.timestamp) */\n      dup2\n      mstore\n      0x20\n      add\n        /* \"Documents/GitHub/XRC-20Plus/contracts/XRC20Plus.sol\":725:740  block.timestamp */\n      timestamp\n        /* \"Documents/GitHub/XRC-20Plus/contracts/XRC20Plus.sol\":703:741  CoinBank_Accounting(0,block.timestamp) */\n      dup2\n      mstore\n      pop\n        /* \"Documents/GitHub/XRC-20Plus/contracts/XRC20Plus.sol\":693:697  Bank */\n      0x05\n        /* \"Documents/GitHub/XRC-20Plus/contracts/XRC20Plus.sol\":693:700  Bank[0] */\n      0x00\n        /* \"Documents/GitHub/XRC-20Plus/contracts/XRC20Plus.sol\":698:699  0 */\n      dup1\n        /* \"Documents/GitHub/XRC-20Plus/contracts/XRC20Plus.sol\":693:700  Bank[0] */\n      dup2\n      mstore\n      0x20\n      add\n      swap1\n      dup2\n      mstore\n      0x20\n      add\n      0x00\n      keccak256\n        /* \"Documents/GitHub/XRC-20Plus/contracts/XRC20Plus.sol\":693:741  Bank[0] = CoinBank_Accounting(0,block.timestamp) */\n      0x00\n      dup3\n      add\n      mload\n      dup2\n      0x00\n      add\n      sstore\n      0x20\n      dup3\n      add\n      mload\n      dup2\n      0x01\n      add\n      sstore\n      swap1\n      pop\n      pop\n        /* \"Documents/GitHub/XRC-20Plus/contracts/XRC20Plus.sol\":762:771  _Treasury */\n      dup2\n        /* \"Documents/GitHub/XRC-20Plus/contracts/XRC20Plus.sol\":751:759  Treasury */\n      0x03\n      0x00\n        /* \"Documents/GitHub/XRC-20Plus/contracts/XRC20Plus.sol\":751:771  Treasury = _Treasury */\n      0x0100\n      exp\n      dup2\n      sload\n      dup2\n      0xffffffffffffffffffffffffffffffffffffffff\n      mul\n      not\n      and\n      swap1\n      dup4\n      0xffffffffffffffffffffffffffffffffffffffff\n      and\n      mul\n      or\n      swap1\n      sstore\n      pop\n        /* \"Documents/GitHub/XRC-20Plus/contracts/XRC20Plus.sol\":790:797  _supply */\n      dup1\n        /* \"Documents/GitHub/XRC-20Plus/contracts/XRC20Plus.sol\":781:787  Supply */\n      0x01\n        /* \"Documents/GitHub/XRC-20Plus/contracts/XRC20Plus.sol\":781:797  Supply = _supply */\n      dup2\n      swap1\n      sstore\n      pop\n        /* \"Documents/GitHub/XRC-20Plus/contracts/XRC20Plus.sol\":640:804  constructor(address _Treasury,uint _supply){... */\n      pop\n      pop\n        /* \"Documents/GitHub/XRC-20Plus/contracts/XRC20Plus.sol\":291:1827  contract CoinBank is CoinBank_Interface{... */\n      jump(tag_6)\n        /* \"#utility.yul\":88:205   */\n    tag_8:\n        /* \"#utility.yul\":197:198   */\n      0x00\n        /* \"#utility.yul\":194:195   */\n      dup1\n        /* \"#utility.yul\":187:199   */\n      revert\n        /* \"#utility.yul\":334:460   */\n    tag_10:\n        /* \"#utility.yul\":371:378   */\n      0x00\n        /* \"#utility.yul\":411:453   */\n      0xffffffffffffffffffffffffffffffffffffffff\n        /* \"#utility.yul\":404:409   */\n      dup3\n        /* \"#utility.yul\":400:454   */\n      and\n        /* \"#utility.yul\":389:454   */\n      swap1\n      pop\n        /* \"#utility.yul\":334:460   */\n      swap2\n      swap1\n      pop\n      jump\t// out\n        /* \"#utility.yul\":466:562   */\n    tag_11:\n        /* \"#utility.yul\":503:510   */\n      0x00\n        /* \"#utility.yul\":532:556   */\n      tag_23\n        /* \"#utility.yul\":550:555   */\n      dup3\n        /* \"#utility.yul\":532:556   */\n      tag_10\n      jump\t// in\n    tag_23:\n        /* \"#utility.yul\":521:556   */\n      swap1\n      pop\n        /* \"#utility.yul\":466:562   */\n      swap2\n      swap1\n      pop\n      jump\t// out\n        /* \"#utility.yul\":568:690   */\n    tag_12:\n        /* \"#utility.yul\":641:665   */\n      tag_25\n        /* \"#utility.yul\":659:664   */\n      dup2\n        /* \"#utility.yul\":641:665   */\n      tag_11\n      jump\t// in\n    tag_25:\n        /* \"#utility.yul\":634:639   */\n      dup2\n        /* \"#utility.yul\":631:666   */\n      eq\n        /* \"#utility.yul\":621:684   */\n      tag_26\n      jumpi\n        /* \"#utility.yul\":680:681   */\n      0x00\n        /* \"#utility.yul\":677:678   */\n      dup1\n        /* \"#utility.yul\":670:682   */\n      revert\n        /* \"#utility.yul\":621:684   */\n    tag_26:\n        /* \"#utility.yul\":568:690   */\n      pop\n      jump\t// out\n        /* \"#utility.yul\":696:839   */\n    tag_13:\n        /* \"#utility.yul\":753:758   */\n      0x00\n        /* \"#utility.yul\":784:790   */\n      dup2\n        /* \"#utility.yul\":778:791   */\n      mload\n        /* \"#utility.yul\":769:791   */\n      swap1\n      pop\n        /* \"#utility.yul\":800:833   */\n      tag_28\n        /* \"#utility.yul\":827:832   */\n      dup2\n        /* \"#utility.yul\":800:833   */\n      tag_12\n      jump\t// in\n    tag_28:\n        /* \"#utility.yul\":696:839   */\n      swap3\n      swap2\n      pop\n      pop\n      jump\t// out\n        /* \"#utility.yul\":845:922   */\n    tag_14:\n        /* \"#utility.yul\":882:889   */\n      0x00\n        /* \"#utility.yul\":911:916   */\n      dup2\n        /* \"#utility.yul\":900:916   */\n      swap1\n      pop\n        /* \"#utility.yul\":845:922   */\n      swap2\n      swap1\n      pop\n      jump\t// out\n        /* \"#utility.yul\":928:1050   */\n    tag_15:\n        /* \"#utility.yul\":1001:1025   */\n      tag_31\n        /* \"#utility.yul\":1019:1024   */\n      dup2\n        /* \"#utility.yul\":1001:1025   */\n      tag_14\n      jump\t// in\n    tag_31:\n        /* \"#utility.yul\":994:999   */\n      dup2\n        /* \"#utility.yul\":991:1026   */\n      eq\n        /* \"#utility.yul\":981:1044   */\n      tag_32\n      jumpi\n        /* \"#utility.yul\":1040:1041   */\n      0x00\n        /* \"#utility.yul\":1037:1038   */\n      dup1\n        /* \"#utility.yul\":1030:1042   */\n      revert\n        /* \"#utility.yul\":981:1044   */\n    tag_32:\n        /* \"#utility.yul\":928:1050   */\n      pop\n      jump\t// out\n        /* \"#utility.yul\":1056:1199   */\n    tag_16:\n        /* \"#utility.yul\":1113:1118   */\n      0x00\n        /* \"#utility.yul\":1144:1150   */\n      dup2\n        /* \"#utility.yul\":1138:1151   */\n      mload\n        /* \"#utility.yul\":1129:1151   */\n      swap1\n      pop\n        /* \"#utility.yul\":1160:1193   */\n      tag_34\n        /* \"#utility.yul\":1187:1192   */\n      dup2\n        /* \"#utility.yul\":1160:1193   */\n      tag_15\n      jump\t// in\n    tag_34:\n        /* \"#utility.yul\":1056:1199   */\n      swap3\n      swap2\n      pop\n      pop\n      jump\t// out\n        /* \"#utility.yul\":1205:1712   */\n    tag_3:\n        /* \"#utility.yul\":1284:1290   */\n      0x00\n        /* \"#utility.yul\":1292:1298   */\n      dup1\n        /* \"#utility.yul\":1341:1343   */\n      0x40\n        /* \"#utility.yul\":1329:1338   */\n      dup4\n        /* \"#utility.yul\":1320:1327   */\n      dup6\n        /* \"#utility.yul\":1316:1339   */\n      sub\n        /* \"#utility.yul\":1312:1344   */\n      slt\n        /* \"#utility.yul\":1309:1428   */\n      iszero\n      tag_36\n      jumpi\n        /* \"#utility.yul\":1347:1426   */\n      tag_37\n      tag_8\n      jump\t// in\n    tag_37:\n        /* \"#utility.yul\":1309:1428   */\n    tag_36:\n        /* \"#utility.yul\":1467:1468   */\n      0x00\n        /* \"#utility.yul\":1492:1556   */\n      tag_38\n        /* \"#utility.yul\":1548:1555   */\n      dup6\n        /* \"#utility.yul\":1539:1545   */\n      dup3\n        /* \"#utility.yul\":1528:1537   */\n      dup7\n        /* \"#utility.yul\":1524:1546   */\n      add\n        /* \"#utility.yul\":1492:1556   */\n      tag_13\n      jump\t// in\n    tag_38:\n        /* \"#utility.yul\":1482:1556   */\n      swap3\n      pop\n        /* \"#utility.yul\":1438:1566   */\n      pop\n        /* \"#utility.yul\":1605:1607   */\n      0x20\n        /* \"#utility.yul\":1631:1695   */\n      tag_39\n        /* \"#utility.yul\":1687:1694   */\n      dup6\n        /* \"#utility.yul\":1678:1684   */\n      dup3\n        /* \"#utility.yul\":1667:1676   */\n      dup7\n        /* \"#utility.yul\":1663:1685   */\n      add\n        /* \"#utility.yul\":1631:1695   */\n      tag_16\n      jump\t// in\n    tag_39:\n        /* \"#utility.yul\":1621:1695   */\n      swap2\n      pop\n        /* \"#utility.yul\":1576:1705   */\n      pop\n        /* \"#utility.yul\":1205:1712   */\n      swap3\n      pop\n      swap3\n      swap1\n      pop\n      jump\t// out\n        /* \"Documents/GitHub/XRC-20Plus/contracts/XRC20Plus.sol\":291:1827  contract CoinBank is CoinBank_Interface{... */\n    tag_6:\n      dataSize(sub_0)\n      dup1\n      dataOffset(sub_0)\n      0x00\n      codecopy\n      0x00\n      return\n    stop\n\n    sub_0: assembly {\n            /* \"Documents/GitHub/XRC-20Plus/contracts/XRC20Plus.sol\":291:1827  contract CoinBank is CoinBank_Interface{... */\n          mstore(0x40, 0x80)\n          jumpi(tag_1, lt(calldatasize, 0x04))\n          shr(0xe0, calldataload(0x00))\n          dup1\n          0x82add361\n          eq\n          tag_3\n          jumpi\n          dup1\n          0xb0128f6d\n          eq\n          tag_4\n          jumpi\n          jump(tag_2)\n        tag_1:\n          jumpi(tag_2, calldatasize)\n            /* \"Documents/GitHub/XRC-20Plus/contracts/XRC20Plus.sol\":1750:1751  0 */\n          0x00\n            /* \"Documents/GitHub/XRC-20Plus/contracts/XRC20Plus.sol\":1740:1749  msg.value */\n          callvalue\n            /* \"Documents/GitHub/XRC-20Plus/contracts/XRC20Plus.sol\":1740:1751  msg.value>0 */\n          gt\n            /* \"Documents/GitHub/XRC-20Plus/contracts/XRC20Plus.sol\":1737:1819  if(msg.value>0){... */\n          iszero\n          tag_7\n          jumpi\n            /* \"Documents/GitHub/XRC-20Plus/contracts/XRC20Plus.sol\":1782:1786  this */\n          address\n            /* \"Documents/GitHub/XRC-20Plus/contracts/XRC20Plus.sol\":1766:1797  payable(address(this)).transfer */\n          0xffffffffffffffffffffffffffffffffffffffff\n          and\n            /* \"Documents/GitHub/XRC-20Plus/contracts/XRC20Plus.sol\":1766:1808  payable(address(this)).transfer(msg.value) */\n          0x08fc\n            /* \"Documents/GitHub/XRC-20Plus/contracts/XRC20Plus.sol\":1798:1807  msg.value */\n          callvalue\n            /* \"Documents/GitHub/XRC-20Plus/contracts/XRC20Plus.sol\":1766:1808  payable(address(this)).transfer(msg.value) */\n          swap1\n          dup2\n          iszero\n          mul\n          swap1\n          mload(0x40)\n          0x00\n          mload(0x40)\n          dup1\n          dup4\n          sub\n          dup2\n          dup6\n          dup9\n          dup9\n          call\n          swap4\n          pop\n          pop\n          pop\n          pop\n          iszero\n          dup1\n          iszero\n          tag_9\n          jumpi\n          returndatasize\n          0x00\n          dup1\n          returndatacopy\n          revert(0x00, returndatasize)\n        tag_9:\n          pop\n            /* \"Documents/GitHub/XRC-20Plus/contracts/XRC20Plus.sol\":1737:1819  if(msg.value>0){... */\n        tag_7:\n            /* \"Documents/GitHub/XRC-20Plus/contracts/XRC20Plus.sol\":291:1827  contract CoinBank is CoinBank_Interface{... */\n          stop\n        tag_2:\n          stop\n            /* \"Documents/GitHub/XRC-20Plus/contracts/XRC20Plus.sol\":1357:1660  function Incomming_Payments()public payable{... */\n        tag_3:\n          tag_12\n          tag_13\n          jump\t// in\n        tag_12:\n          stop\n            /* \"Documents/GitHub/XRC-20Plus/contracts/XRC20Plus.sol\":847:899  mapping (uint256 => CoinBank_Accounting) public Bank */\n        tag_4:\n          callvalue\n          dup1\n          iszero\n          tag_14\n          jumpi\n          0x00\n          dup1\n          revert\n        tag_14:\n          pop\n          tag_15\n          0x04\n          dup1\n          calldatasize\n          sub\n          dup2\n          add\n          swap1\n          tag_16\n          swap2\n          swap1\n          tag_17\n          jump\t// in\n        tag_16:\n          tag_18\n          jump\t// in\n        tag_15:\n          mload(0x40)\n          tag_19\n          swap3\n          swap2\n          swap1\n          tag_20\n          jump\t// in\n        tag_19:\n          mload(0x40)\n          dup1\n          swap2\n          sub\n          swap1\n          return\n            /* \"Documents/GitHub/XRC-20Plus/contracts/XRC20Plus.sol\":1357:1660  function Incomming_Payments()public payable{... */\n        tag_13:\n            /* \"Documents/GitHub/XRC-20Plus/contracts/XRC20Plus.sol\":1410:1418  uint min */\n          0x00\n            /* \"Documents/GitHub/XRC-20Plus/contracts/XRC20Plus.sol\":1480:1484  Bank */\n          0x05\n            /* \"Documents/GitHub/XRC-20Plus/contracts/XRC20Plus.sol\":1480:1487  Bank[0] */\n          0x00\n            /* \"Documents/GitHub/XRC-20Plus/contracts/XRC20Plus.sol\":1485:1486  0 */\n          dup1\n            /* \"Documents/GitHub/XRC-20Plus/contracts/XRC20Plus.sol\":1480:1487  Bank[0] */\n          dup2\n          mstore\n          0x20\n          add\n          swap1\n          dup2\n          mstore\n          0x20\n          add\n          0x00\n          keccak256\n            /* \"Documents/GitHub/XRC-20Plus/contracts/XRC20Plus.sol\":1480:1501  Bank[0].Previous_Time */\n          0x01\n          add\n          sload\n            /* \"Documents/GitHub/XRC-20Plus/contracts/XRC20Plus.sol\":1476:1479  min */\n          dup2\n            /* \"Documents/GitHub/XRC-20Plus/contracts/XRC20Plus.sol\":1476:1501  min+Bank[0].Previous_Time */\n          tag_22\n          swap2\n          swap1\n          tag_23\n          jump\t// in\n        tag_22:\n            /* \"Documents/GitHub/XRC-20Plus/contracts/XRC20Plus.sol\":1459:1474  block.timestamp */\n          timestamp\n            /* \"Documents/GitHub/XRC-20Plus/contracts/XRC20Plus.sol\":1459:1501  block.timestamp<=min+Bank[0].Previous_Time */\n          gt\n            /* \"Documents/GitHub/XRC-20Plus/contracts/XRC20Plus.sol\":1456:1654  if(block.timestamp<=min+Bank[0].Previous_Time){... */\n          tag_24\n          jumpi\n            /* \"Documents/GitHub/XRC-20Plus/contracts/XRC20Plus.sol\":1516:1533  uint single_Shard */\n          0x00\n            /* \"Documents/GitHub/XRC-20Plus/contracts/XRC20Plus.sol\":1563:1569  Supply */\n          sload(0x01)\n            /* \"Documents/GitHub/XRC-20Plus/contracts/XRC20Plus.sol\":1541:1562  address(this).balance */\n          selfbalance\n            /* \"Documents/GitHub/XRC-20Plus/contracts/XRC20Plus.sol\":1541:1569  address(this).balance/Supply */\n          tag_25\n          swap2\n          swap1\n          tag_26\n          jump\t// in\n        tag_25:\n            /* \"Documents/GitHub/XRC-20Plus/contracts/XRC20Plus.sol\":1516:1570  uint single_Shard = uint(address(this).balance/Supply) */\n          swap1\n          pop\n            /* \"Documents/GitHub/XRC-20Plus/contracts/XRC20Plus.sol\":1584:1615  Issue_To_Treasury(single_Shard) */\n          tag_27\n            /* \"Documents/GitHub/XRC-20Plus/contracts/XRC20Plus.sol\":1602:1614  single_Shard */\n          dup2\n            /* \"Documents/GitHub/XRC-20Plus/contracts/XRC20Plus.sol\":1584:1601  Issue_To_Treasury */\n          tag_28\n            /* \"Documents/GitHub/XRC-20Plus/contracts/XRC20Plus.sol\":1584:1615  Issue_To_Treasury(single_Shard) */\n          jump\t// in\n        tag_27:\n            /* \"Documents/GitHub/XRC-20Plus/contracts/XRC20Plus.sol\":1502:1654  {... */\n          pop\n            /* \"Documents/GitHub/XRC-20Plus/contracts/XRC20Plus.sol\":1456:1654  if(block.timestamp<=min+Bank[0].Previous_Time){... */\n        tag_24:\n            /* \"Documents/GitHub/XRC-20Plus/contracts/XRC20Plus.sol\":1400:1660  {... */\n          pop\n            /* \"Documents/GitHub/XRC-20Plus/contracts/XRC20Plus.sol\":1357:1660  function Incomming_Payments()public payable{... */\n          jump\t// out\n            /* \"Documents/GitHub/XRC-20Plus/contracts/XRC20Plus.sol\":847:899  mapping (uint256 => CoinBank_Accounting) public Bank */\n        tag_18:\n          mstore(0x20, 0x05)\n          dup1\n          0x00\n          mstore\n          keccak256(0x00, 0x40)\n          0x00\n          swap2\n          pop\n          swap1\n          pop\n          dup1\n          0x00\n          add\n          sload\n          swap1\n          dup1\n          0x01\n          add\n          sload\n          swap1\n          pop\n          dup3\n          jump\t// out\n            /* \"Documents/GitHub/XRC-20Plus/contracts/XRC20Plus.sol\":945:1265  function Issue_To_Treasury(uint _single_Shard)internal{... */\n        tag_28:\n            /* \"Documents/GitHub/XRC-20Plus/contracts/XRC20Plus.sol\":1056:1083  Plus_Interface exeInterface */\n          0x00\n            /* \"Documents/GitHub/XRC-20Plus/contracts/XRC20Plus.sol\":1101:1109  Treasury */\n          0x03\n          0x00\n          swap1\n          sload\n          swap1\n          0x0100\n          exp\n          swap1\n          div\n          0xffffffffffffffffffffffffffffffffffffffff\n          and\n            /* \"Documents/GitHub/XRC-20Plus/contracts/XRC20Plus.sol\":1056:1110  Plus_Interface exeInterface = Plus_Interface(Treasury) */\n          swap1\n          pop\n            /* \"Documents/GitHub/XRC-20Plus/contracts/XRC20Plus.sol\":1159:1171  exeInterface */\n          dup1\n            /* \"Documents/GitHub/XRC-20Plus/contracts/XRC20Plus.sol\":1159:1192  exeInterface.Accept_From_CoinBank */\n          0xffffffffffffffffffffffffffffffffffffffff\n          and\n          0x9a29e6aa\n            /* \"Documents/GitHub/XRC-20Plus/contracts/XRC20Plus.sol\":1193:1206  _single_Shard */\n          dup4\n            /* \"Documents/GitHub/XRC-20Plus/contracts/XRC20Plus.sol\":1159:1207  exeInterface.Accept_From_CoinBank(_single_Shard) */\n          mload(0x40)\n          dup3\n          0xffffffff\n          and\n          0xe0\n          shl\n          dup2\n          mstore\n          0x04\n          add\n          tag_30\n          swap2\n          swap1\n          tag_31\n          jump\t// in\n        tag_30:\n          0x00\n          mload(0x40)\n          dup1\n          dup4\n          sub\n          dup2\n          0x00\n          dup8\n          dup1\n          extcodesize\n          iszero\n          dup1\n          iszero\n          tag_32\n          jumpi\n          0x00\n          dup1\n          revert\n        tag_32:\n          pop\n          gas\n          call\n          iszero\n          dup1\n          iszero\n          tag_34\n          jumpi\n          returndatasize\n          0x00\n          dup1\n          returndatacopy\n          revert(0x00, returndatasize)\n        tag_34:\n          pop\n          pop\n          pop\n          pop\n            /* \"Documents/GitHub/XRC-20Plus/contracts/XRC20Plus.sol\":1222:1257  CoinBankClock(block.timestamp,true) */\n          0xa45dac62289018e90b3dc24632d939c6f3545fbc1c00325ee50858f926afc630\n            /* \"Documents/GitHub/XRC-20Plus/contracts/XRC20Plus.sol\":1236:1251  block.timestamp */\n          timestamp\n            /* \"Documents/GitHub/XRC-20Plus/contracts/XRC20Plus.sol\":1252:1256  true */\n          0x01\n            /* \"Documents/GitHub/XRC-20Plus/contracts/XRC20Plus.sol\":1222:1257  CoinBankClock(block.timestamp,true) */\n          mload(0x40)\n          tag_35\n          swap3\n          swap2\n          swap1\n          tag_36\n          jump\t// in\n        tag_35:\n          mload(0x40)\n          dup1\n          swap2\n          sub\n          swap1\n          log1\n            /* \"Documents/GitHub/XRC-20Plus/contracts/XRC20Plus.sol\":999:1265  {... */\n          pop\n            /* \"Documents/GitHub/XRC-20Plus/contracts/XRC20Plus.sol\":945:1265  function Issue_To_Treasury(uint _single_Shard)internal{... */\n          pop\n          jump\t// out\n            /* \"#utility.yul\":88:205   */\n        tag_38:\n            /* \"#utility.yul\":197:198   */\n          0x00\n            /* \"#utility.yul\":194:195   */\n          dup1\n            /* \"#utility.yul\":187:199   */\n          revert\n            /* \"#utility.yul\":334:411   */\n        tag_40:\n            /* \"#utility.yul\":371:378   */\n          0x00\n            /* \"#utility.yul\":400:405   */\n          dup2\n            /* \"#utility.yul\":389:405   */\n          swap1\n          pop\n            /* \"#utility.yul\":334:411   */\n          swap2\n          swap1\n          pop\n          jump\t// out\n            /* \"#utility.yul\":417:539   */\n        tag_41:\n            /* \"#utility.yul\":490:514   */\n          tag_54\n            /* \"#utility.yul\":508:513   */\n          dup2\n            /* \"#utility.yul\":490:514   */\n          tag_40\n          jump\t// in\n        tag_54:\n            /* \"#utility.yul\":483:488   */\n          dup2\n            /* \"#utility.yul\":480:515   */\n          eq\n            /* \"#utility.yul\":470:533   */\n          tag_55\n          jumpi\n            /* \"#utility.yul\":529:530   */\n          0x00\n            /* \"#utility.yul\":526:527   */\n          dup1\n            /* \"#utility.yul\":519:531   */\n          revert\n            /* \"#utility.yul\":470:533   */\n        tag_55:\n            /* \"#utility.yul\":417:539   */\n          pop\n          jump\t// out\n            /* \"#utility.yul\":545:684   */\n        tag_42:\n            /* \"#utility.yul\":591:596   */\n          0x00\n            /* \"#utility.yul\":629:635   */\n          dup2\n            /* \"#utility.yul\":616:636   */\n          calldataload\n            /* \"#utility.yul\":607:636   */\n          swap1\n          pop\n            /* \"#utility.yul\":645:678   */\n          tag_57\n            /* \"#utility.yul\":672:677   */\n          dup2\n            /* \"#utility.yul\":645:678   */\n          tag_41\n          jump\t// in\n        tag_57:\n            /* \"#utility.yul\":545:684   */\n          swap3\n          swap2\n          pop\n          pop\n          jump\t// out\n            /* \"#utility.yul\":690:1019   */\n        tag_17:\n            /* \"#utility.yul\":749:755   */\n          0x00\n            /* \"#utility.yul\":798:800   */\n          0x20\n            /* \"#utility.yul\":786:795   */\n          dup3\n            /* \"#utility.yul\":777:784   */\n          dup5\n            /* \"#utility.yul\":773:796   */\n          sub\n            /* \"#utility.yul\":769:801   */\n          slt\n            /* \"#utility.yul\":766:885   */\n          iszero\n          tag_59\n          jumpi\n            /* \"#utility.yul\":804:883   */\n          tag_60\n          tag_38\n          jump\t// in\n        tag_60:\n            /* \"#utility.yul\":766:885   */\n        tag_59:\n            /* \"#utility.yul\":924:925   */\n          0x00\n            /* \"#utility.yul\":949:1002   */\n          tag_61\n            /* \"#utility.yul\":994:1001   */\n          dup5\n            /* \"#utility.yul\":985:991   */\n          dup3\n            /* \"#utility.yul\":974:983   */\n          dup6\n            /* \"#utility.yul\":970:992   */\n          add\n            /* \"#utility.yul\":949:1002   */\n          tag_42\n          jump\t// in\n        tag_61:\n            /* \"#utility.yul\":939:1002   */\n          swap2\n          pop\n            /* \"#utility.yul\":895:1012   */\n          pop\n            /* \"#utility.yul\":690:1019   */\n          swap3\n          swap2\n          pop\n          pop\n          jump\t// out\n            /* \"#utility.yul\":1025:1143   */\n        tag_43:\n            /* \"#utility.yul\":1112:1136   */\n          tag_63\n            /* \"#utility.yul\":1130:1135   */\n          dup2\n            /* \"#utility.yul\":1112:1136   */\n          tag_40\n          jump\t// in\n        tag_63:\n            /* \"#utility.yul\":1107:1110   */\n          dup3\n            /* \"#utility.yul\":1100:1137   */\n          mstore\n            /* \"#utility.yul\":1025:1143   */\n          pop\n          pop\n          jump\t// out\n            /* \"#utility.yul\":1149:1481   */\n        tag_20:\n            /* \"#utility.yul\":1270:1274   */\n          0x00\n            /* \"#utility.yul\":1308:1310   */\n          0x40\n            /* \"#utility.yul\":1297:1306   */\n          dup3\n            /* \"#utility.yul\":1293:1311   */\n          add\n            /* \"#utility.yul\":1285:1311   */\n          swap1\n          pop\n            /* \"#utility.yul\":1321:1392   */\n          tag_65\n            /* \"#utility.yul\":1389:1390   */\n          0x00\n            /* \"#utility.yul\":1378:1387   */\n          dup4\n            /* \"#utility.yul\":1374:1391   */\n          add\n            /* \"#utility.yul\":1365:1371   */\n          dup6\n            /* \"#utility.yul\":1321:1392   */\n          tag_43\n          jump\t// in\n        tag_65:\n            /* \"#utility.yul\":1402:1474   */\n          tag_66\n            /* \"#utility.yul\":1470:1472   */\n          0x20\n            /* \"#utility.yul\":1459:1468   */\n          dup4\n            /* \"#utility.yul\":1455:1473   */\n          add\n            /* \"#utility.yul\":1446:1452   */\n          dup5\n            /* \"#utility.yul\":1402:1474   */\n          tag_43\n          jump\t// in\n        tag_66:\n            /* \"#utility.yul\":1149:1481   */\n          swap4\n          swap3\n          pop\n          pop\n          pop\n          jump\t// out\n            /* \"#utility.yul\":1487:1667   */\n        tag_44:\n            /* \"#utility.yul\":1535:1612   */\n          0x4e487b7100000000000000000000000000000000000000000000000000000000\n            /* \"#utility.yul\":1532:1533   */\n          0x00\n            /* \"#utility.yul\":1525:1613   */\n          mstore\n            /* \"#utility.yul\":1632:1636   */\n          0x11\n            /* \"#utility.yul\":1629:1630   */\n          0x04\n            /* \"#utility.yul\":1622:1637   */\n          mstore\n            /* \"#utility.yul\":1656:1660   */\n          0x24\n            /* \"#utility.yul\":1653:1654   */\n          0x00\n            /* \"#utility.yul\":1646:1661   */\n          revert\n            /* \"#utility.yul\":1673:1978   */\n        tag_23:\n            /* \"#utility.yul\":1713:1716   */\n          0x00\n            /* \"#utility.yul\":1732:1752   */\n          tag_69\n            /* \"#utility.yul\":1750:1751   */\n          dup3\n            /* \"#utility.yul\":1732:1752   */\n          tag_40\n          jump\t// in\n        tag_69:\n            /* \"#utility.yul\":1727:1752   */\n          swap2\n          pop\n            /* \"#utility.yul\":1766:1786   */\n          tag_70\n            /* \"#utility.yul\":1784:1785   */\n          dup4\n            /* \"#utility.yul\":1766:1786   */\n          tag_40\n          jump\t// in\n        tag_70:\n            /* \"#utility.yul\":1761:1786   */\n          swap3\n          pop\n            /* \"#utility.yul\":1920:1921   */\n          dup3\n            /* \"#utility.yul\":1852:1918   */\n          0xffffffffffffffffffffffffffffffffffffffffffffffffffffffffffffffff\n            /* \"#utility.yul\":1848:1922   */\n          sub\n            /* \"#utility.yul\":1845:1846   */\n          dup3\n            /* \"#utility.yul\":1842:1923   */\n          gt\n            /* \"#utility.yul\":1839:1946   */\n          iszero\n          tag_71\n          jumpi\n            /* \"#utility.yul\":1926:1944   */\n          tag_72\n          tag_44\n          jump\t// in\n        tag_72:\n            /* \"#utility.yul\":1839:1946   */\n        tag_71:\n            /* \"#utility.yul\":1970:1971   */\n          dup3\n            /* \"#utility.yul\":1967:1968   */\n          dup3\n            /* \"#utility.yul\":1963:1972   */\n          add\n            /* \"#utility.yul\":1956:1972   */\n          swap1\n          pop\n            /* \"#utility.yul\":1673:1978   */\n          swap3\n          swap2\n          pop\n          pop\n          jump\t// out\n            /* \"#utility.yul\":1984:2164   */\n        tag_45:\n            /* \"#utility.yul\":2032:2109   */\n          0x4e487b7100000000000000000000000000000000000000000000000000000000\n            /* \"#utility.yul\":2029:2030   */\n          0x00\n            /* \"#utility.yul\":2022:2110   */\n          mstore\n            /* \"#utility.yul\":2129:2133   */\n          0x12\n            /* \"#utility.yul\":2126:2127   */\n          0x04\n            /* \"#utility.yul\":2119:2134   */\n          mstore\n            /* \"#utility.yul\":2153:2157   */\n          0x24\n            /* \"#utility.yul\":2150:2151   */\n          0x00\n            /* \"#utility.yul\":2143:2158   */\n          revert\n            /* \"#utility.yul\":2170:2355   */\n        tag_26:\n            /* \"#utility.yul\":2210:2211   */\n          0x00\n            /* \"#utility.yul\":2227:2247   */\n          tag_75\n            /* \"#utility.yul\":2245:2246   */\n          dup3\n            /* \"#utility.yul\":2227:2247   */\n          tag_40\n          jump\t// in\n        tag_75:\n            /* \"#utility.yul\":2222:2247   */\n          swap2\n          pop\n            /* \"#utility.yul\":2261:2281   */\n          tag_76\n            /* \"#utility.yul\":2279:2280   */\n          dup4\n            /* \"#utility.yul\":2261:2281   */\n          tag_40\n          jump\t// in\n        tag_76:\n            /* \"#utility.yul\":2256:2281   */\n          swap3\n          pop\n            /* \"#utility.yul\":2300:2301   */\n          dup3\n            /* \"#utility.yul\":2290:2325   */\n          tag_77\n          jumpi\n            /* \"#utility.yul\":2305:2323   */\n          tag_78\n          tag_45\n          jump\t// in\n        tag_78:\n            /* \"#utility.yul\":2290:2325   */\n        tag_77:\n            /* \"#utility.yul\":2347:2348   */\n          dup3\n            /* \"#utility.yul\":2344:2345   */\n          dup3\n            /* \"#utility.yul\":2340:2349   */\n          div\n            /* \"#utility.yul\":2335:2349   */\n          swap1\n          pop\n            /* \"#utility.yul\":2170:2355   */\n          swap3\n          swap2\n          pop\n          pop\n          jump\t// out\n            /* \"#utility.yul\":2361:2583   */\n        tag_31:\n            /* \"#utility.yul\":2454:2458   */\n          0x00\n            /* \"#utility.yul\":2492:2494   */\n          0x20\n            /* \"#utility.yul\":2481:2490   */\n          dup3\n            /* \"#utility.yul\":2477:2495   */\n          add\n            /* \"#utility.yul\":2469:2495   */\n          swap1\n          pop\n            /* \"#utility.yul\":2505:2576   */\n          tag_80\n            /* \"#utility.yul\":2573:2574   */\n          0x00\n            /* \"#utility.yul\":2562:2571   */\n          dup4\n            /* \"#utility.yul\":2558:2575   */\n          add\n            /* \"#utility.yul\":2549:2555   */\n          dup5\n            /* \"#utility.yul\":2505:2576   */\n          tag_43\n          jump\t// in\n        tag_80:\n            /* \"#utility.yul\":2361:2583   */\n          swap3\n          swap2\n          pop\n          pop\n          jump\t// out\n            /* \"#utility.yul\":2589:2679   */\n        tag_46:\n            /* \"#utility.yul\":2623:2630   */\n          0x00\n            /* \"#utility.yul\":2666:2671   */\n          dup2\n            /* \"#utility.yul\":2659:2672   */\n          iszero\n            /* \"#utility.yul\":2652:2673   */\n          iszero\n            /* \"#utility.yul\":2641:2673   */\n          swap1\n          pop\n            /* \"#utility.yul\":2589:2679   */\n          swap2\n          swap1\n          pop\n          jump\t// out\n            /* \"#utility.yul\":2685:2794   */\n        tag_47:\n            /* \"#utility.yul\":2766:2787   */\n          tag_83\n            /* \"#utility.yul\":2781:2786   */\n          dup2\n            /* \"#utility.yul\":2766:2787   */\n          tag_46\n          jump\t// in\n        tag_83:\n            /* \"#utility.yul\":2761:2764   */\n          dup3\n            /* \"#utility.yul\":2754:2788   */\n          mstore\n            /* \"#utility.yul\":2685:2794   */\n          pop\n          pop\n          jump\t// out\n            /* \"#utility.yul\":2800:3120   */\n        tag_36:\n            /* \"#utility.yul\":2915:2919   */\n          0x00\n            /* \"#utility.yul\":2953:2955   */\n          0x40\n            /* \"#utility.yul\":2942:2951   */\n          dup3\n            /* \"#utility.yul\":2938:2956   */\n          add\n            /* \"#utility.yul\":2930:2956   */\n          swap1\n          pop\n            /* \"#utility.yul\":2966:3037   */\n          tag_85\n            /* \"#utility.yul\":3034:3035   */\n          0x00\n            /* \"#utility.yul\":3023:3032   */\n          dup4\n            /* \"#utility.yul\":3019:3036   */\n          add\n            /* \"#utility.yul\":3010:3016   */\n          dup6\n            /* \"#utility.yul\":2966:3037   */\n          tag_43\n          jump\t// in\n        tag_85:\n            /* \"#utility.yul\":3047:3113   */\n          tag_86\n            /* \"#utility.yul\":3109:3111   */\n          0x20\n            /* \"#utility.yul\":3098:3107   */\n          dup4\n            /* \"#utility.yul\":3094:3112   */\n          add\n            /* \"#utility.yul\":3085:3091   */\n          dup5\n            /* \"#utility.yul\":3047:3113   */\n          tag_47\n          jump\t// in\n        tag_86:\n            /* \"#utility.yul\":2800:3120   */\n          swap4\n          swap3\n          pop\n          pop\n          pop\n          jump\t// out\n\n        auxdata: 0xa2646970667358221220b4cdda6fa7753bc7d1a6f2b6e2dd006b805b13ea10ca364b224388e19315a1bf64736f6c634300080d0033\n    }\n}\n",
				"bytecode": {
					"linkReferences": {},
					"object": "608060405260006005556000600655606460075560006008553480156200002557600080fd5b50604051620034a3380380620034a383398181016040528101906200004b9190620005a6565b8383816003908051906020019062000065929190620002d2565b5080600490805190602001906200007e929190620002d2565b50505080826200008f9190620007d9565b9150620000a333836200015060201b60201c565b60003083604051620000b59062000363565b620000c292919062000880565b604051809103906000f080158015620000df573d6000803e3d6000fd5b509050600b819080600181540180825580915050600190039060005260206000200160009091909190916101000a81548173ffffffffffffffffffffffffffffffffffffffff021916908373ffffffffffffffffffffffffffffffffffffffff160217905550505050505062000a0e565b600073ffffffffffffffffffffffffffffffffffffffff168273ffffffffffffffffffffffffffffffffffffffff1603620001c2576040517f08c379a0000000000000000000000000000000000000000000000000000000008152600401620001b9906200090e565b60405180910390fd5b620001d660008383620002c860201b60201c565b8060026000828254620001ea919062000930565b92505081905550806000808473ffffffffffffffffffffffffffffffffffffffff1673ffffffffffffffffffffffffffffffffffffffff168152602001908152602001600020600082825462000241919062000930565b925050819055508173ffffffffffffffffffffffffffffffffffffffff16600073ffffffffffffffffffffffffffffffffffffffff167fddf252ad1be2c89b69c2b068fc378daa952ba7f163c4a11628f55a4df523b3ef83604051620002a891906200098d565b60405180910390a3620002c460008383620002cd60201b60201c565b5050565b505050565b505050565b828054620002e090620009d9565b90600052602060002090601f01602090048101928262000304576000855562000350565b82601f106200031f57805160ff191683800117855562000350565b8280016001018555821562000350579182015b828111156200034f57825182559160200191906001019062000332565b5b5090506200035f919062000371565b5090565b6105d08062002ed383390190565b5b808211156200038c57600081600090555060010162000372565b5090565b6000604051905090565b600080fd5b600080fd5b600080fd5b600080fd5b6000601f19601f8301169050919050565b7f4e487b7100000000000000000000000000000000000000000000000000000000600052604160045260246000fd5b620003f982620003ae565b810181811067ffffffffffffffff821117156200041b576200041a620003bf565b5b80604052505050565b60006200043062000390565b90506200043e8282620003ee565b919050565b600067ffffffffffffffff821115620004615762000460620003bf565b5b6200046c82620003ae565b9050602081019050919050565b60005b83811015620004995780820151818401526020810190506200047c565b83811115620004a9576000848401525b50505050565b6000620004c6620004c08462000443565b62000424565b905082815260208101848484011115620004e557620004e4620003a9565b5b620004f284828562000479565b509392505050565b600082601f830112620005125762000511620003a4565b5b815162000524848260208601620004af565b91505092915050565b6000819050919050565b62000542816200052d565b81146200054e57600080fd5b50565b600081519050620005628162000537565b92915050565b600060ff82169050919050565b620005808162000568565b81146200058c57600080fd5b50565b600081519050620005a08162000575565b92915050565b60008060008060808587031215620005c357620005c26200039a565b5b600085015167ffffffffffffffff811115620005e457620005e36200039f565b5b620005f287828801620004fa565b945050602085015167ffffffffffffffff8111156200061657620006156200039f565b5b6200062487828801620004fa565b9350506040620006378782880162000551565b92505060606200064a878288016200058f565b91505092959194509250565b7f4e487b7100000000000000000000000000000000000000000000000000000000600052601160045260246000fd5b60008160011c9050919050565b6000808291508390505b6001851115620006e457808604811115620006bc57620006bb62000656565b5b6001851615620006cc5780820291505b8081029050620006dc8562000685565b94506200069c565b94509492505050565b600082620006ff5760019050620007d2565b816200070f5760009050620007d2565b8160018114620007285760028114620007335762000769565b6001915050620007d2565b60ff84111562000748576200074762000656565b5b8360020a91508482111562000762576200076162000656565b5b50620007d2565b5060208310610133831016604e8410600b8410161715620007a35782820a9050838111156200079d576200079c62000656565b5b620007d2565b620007b2848484600162000692565b92509050818404811115620007cc57620007cb62000656565b5b81810290505b9392505050565b6000620007e6826200052d565b9150620007f38362000568565b9250620008227fffffffffffffffffffffffffffffffffffffffffffffffffffffffffffffffff8484620006ed565b905092915050565b600073ffffffffffffffffffffffffffffffffffffffff82169050919050565b600062000857826200082a565b9050919050565b62000869816200084a565b82525050565b6200087a816200052d565b82525050565b60006040820190506200089760008301856200085e565b620008a660208301846200086f565b9392505050565b600082825260208201905092915050565b7f45524332303a206d696e7420746f20746865207a65726f206164647265737300600082015250565b6000620008f6601f83620008ad565b91506200090382620008be565b602082019050919050565b600060208201905081810360008301526200092981620008e7565b9050919050565b60006200093d826200052d565b91506200094a836200052d565b9250827fffffffffffffffffffffffffffffffffffffffffffffffffffffffffffffffff0382111562000982576200098162000656565b5b828201905092915050565b6000602082019050620009a460008301846200086f565b92915050565b7f4e487b7100000000000000000000000000000000000000000000000000000000600052602260045260246000fd5b60006002820490506001821680620009f257607f821691505b60208210810362000a085762000a07620009aa565b5b50919050565b6124b58062000a1e6000396000f3fe6080604052600436106101185760003560e01c806370a08231116100a0578063a457c2d711610064578063a457c2d71461042b578063a9059cbb14610468578063add1603e146104a5578063d95402e7146104e2578063dd62ed3e1461050d5761011f565b806370a08231146103515780638ac8bbca1461038e578063948dec44146103b957806395d89b41146103e45780639a29e6aa1461040f5761011f565b806318160ddd116100e757806318160ddd1461024357806323b872dd1461026e578063313ce567146102ab57806339509351146102d65780635e5c06e2146103135761011f565b806306fdde0314610172578063095ea7b31461019d5780630ef67887146101da57806310a7fd7b146102055761011f565b3661011f57005b6000341115610170573073ffffffffffffffffffffffffffffffffffffffff166108fc349081150290604051600060405180830381858888f1935050505015801561016e573d6000803e3d6000fd5b505b005b34801561017e57600080fd5b5061018761054a565b60405161019491906117cf565b60405180910390f35b3480156101a957600080fd5b506101c460048036038101906101bf919061188a565b6105dc565b6040516101d191906118e5565b60405180910390f35b3480156101e657600080fd5b506101ef6105fa565b6040516101fc919061190f565b60405180910390f35b34801561021157600080fd5b5061022c6004803603810190610227919061192a565b610602565b60405161023a929190611966565b60405180910390f35b34801561024f57600080fd5b50610258610653565b604051610265919061190f565b60405180910390f35b34801561027a57600080fd5b506102956004803603810190610290919061198f565b61065d565b6040516102a291906118e5565b60405180910390f35b3480156102b757600080fd5b506102c0610755565b6040516102cd91906119fe565b60405180910390f35b3480156102e257600080fd5b506102fd60048036038101906102f8919061188a565b61075e565b60405161030a91906118e5565b60405180910390f35b34801561031f57600080fd5b5061033a60048036038101906103359190611a19565b61080a565b604051610348929190611a46565b60405180910390f35b34801561035d57600080fd5b5061037860048036038101906103739190611a19565b61083b565b604051610385919061190f565b60405180910390f35b34801561039a57600080fd5b506103a3610883565b6040516103b0919061190f565b60405180910390f35b3480156103c557600080fd5b506103ce610963565b6040516103db91906118e5565b60405180910390f35b3480156103f057600080fd5b506103f9610b4b565b60405161040691906117cf565b60405180910390f35b6104296004803603810190610424919061192a565b610bdd565b005b34801561043757600080fd5b50610452600480360381019061044d919061188a565b610de5565b60405161045f91906118e5565b60405180910390f35b34801561047457600080fd5b5061048f600480360381019061048a919061188a565b610ed0565b60405161049c91906118e5565b60405180910390f35b3480156104b157600080fd5b506104cc60048036038101906104c7919061192a565b610eee565b6040516104d99190611ace565b60405180910390f35b3480156104ee57600080fd5b506104f7610f2d565b60405161050491906118e5565b60405180910390f35b34801561051957600080fd5b50610534600480360381019061052f9190611ae9565b6110a2565b604051610541919061190f565b60405180910390f35b60606003805461055990611b58565b80601f016020809104026020016040519081016040528092919081815260200182805461058590611b58565b80156105d25780601f106105a7576101008083540402835291602001916105d2565b820191906000526020600020905b8154815290600101906020018083116105b557829003601f168201915b5050505050905090565b60006105f06105e9611129565b8484611131565b6001905092915050565b600047905090565b600a6020528060005260406000206000915090508060000160009054906101000a900473ffffffffffffffffffffffffffffffffffffffff16908060000160149054906101000a900460ff16905082565b6000600254905090565b600061066a8484846112fa565b6000600160008673ffffffffffffffffffffffffffffffffffffffff1673ffffffffffffffffffffffffffffffffffffffff16815260200190815260200160002060006106b5611129565b73ffffffffffffffffffffffffffffffffffffffff1673ffffffffffffffffffffffffffffffffffffffff16815260200190815260200160002054905082811015610735576040517f08c379a000000000000000000000000000000000000000000000000000000000815260040161072c90611bfb565b60405180910390fd5b61074985610741611129565b858403611131565b60019150509392505050565b60006012905090565b600061080061076b611129565b848460016000610779611129565b73ffffffffffffffffffffffffffffffffffffffff1673ffffffffffffffffffffffffffffffffffffffff16815260200190815260200160002060008873ffffffffffffffffffffffffffffffffffffffff1673ffffffffffffffffffffffffffffffffffffffff168152602001908152602001600020546107fb9190611c4a565b611131565b6001905092915050565b60096020528060005260406000206000915090508060000154908060010160009054906101000a900460ff16905082565b60008060008373ffffffffffffffffffffffffffffffffffffffff1673ffffffffffffffffffffffffffffffffffffffff168152602001908152602001600020549050919050565b600060011515600960003373ffffffffffffffffffffffffffffffffffffffff1673ffffffffffffffffffffffffffffffffffffffff16815260200190815260200160002060010160009054906101000a900460ff1615151461091b576040517f08c379a000000000000000000000000000000000000000000000000000000000815260040161091290611cec565b60405180910390fd5b600960003373ffffffffffffffffffffffffffffffffffffffff1673ffffffffffffffffffffffffffffffffffffffff16815260200190815260200160002060000154905090565b6000801515600960003373ffffffffffffffffffffffffffffffffffffffff1673ffffffffffffffffffffffffffffffffffffffff16815260200190815260200160002060010160009054906101000a900460ff161515146109fa576040517f08c379a00000000000000000000000000000000000000000000000000000000081526004016109f190611d58565b60405180910390fd5b60405180604001604052803373ffffffffffffffffffffffffffffffffffffffff16815260200160011515815250600a6000600654815260200190815260200160002060008201518160000160006101000a81548173ffffffffffffffffffffffffffffffffffffffff021916908373ffffffffffffffffffffffffffffffffffffffff16021790555060208201518160000160146101000a81548160ff02191690831515021790555090505060405180604001604052806000815260200160011515815250600960003373ffffffffffffffffffffffffffffffffffffffff1673ffffffffffffffffffffffffffffffffffffffff1681526020019081526020016000206000820151816000015560208201518160010160006101000a81548160ff02191690831515021790555090505060066000815480929190610b3f90611d78565b91905055506001905090565b606060048054610b5a90611b58565b80601f0160208091040260200160405190810160405280929190818152602001828054610b8690611b58565b8015610bd35780601f10610ba857610100808354040283529160200191610bd3565b820191906000526020600020905b815481529060010190602001808311610bb657829003601f168201915b5050505050905090565b33604051602001610bee9190611e08565b60405160208183030381529060405280519060200120600b604051602001610c169190611f41565b6040516020818303038152906040528051906020012014610c6c576040517f08c379a0000000000000000000000000000000000000000000000000000000008152600401610c6390611fca565b60405180910390fd5b6000349050600080808284610c819190611fea565b90505b60065460085411610da457610c9b60085486611579565b60086000829550839190505550508183610cb59190611c4a565b92506007548111610d6557600b600081548110610cd557610cd461201e565b5b9060005260206000200160009054906101000a900473ffffffffffffffffffffffffffffffffffffffff1673ffffffffffffffffffffffffffffffffffffffff166382add361826040518263ffffffff1660e01b81526004016000604051808303818588803b158015610d4757600080fd5b505af1158015610d5b573d6000803e3d6000fd5b5050505050610da4565b60065460085411610d7e57600854600881905550610d87565b60006008819055505b60086000815480929190610d9a90611d78565b9190505550610c84565b7f8ab34dbde874de5ddabad5029cf0abbef03843eb2d9509a6ae6697f77dc5a948426001604051610dd6929190611a46565b60405180910390a15050505050565b60008060016000610df4611129565b73ffffffffffffffffffffffffffffffffffffffff1673ffffffffffffffffffffffffffffffffffffffff16815260200190815260200160002060008573ffffffffffffffffffffffffffffffffffffffff1673ffffffffffffffffffffffffffffffffffffffff16815260200190815260200160002054905082811015610eb1576040517f08c379a0000000000000000000000000000000000000000000000000000000008152600401610ea8906120bf565b60405180910390fd5b610ec5610ebc611129565b85858403611131565b600191505092915050565b6000610ee4610edd611129565b84846112fa565b6001905092915050565b600b8181548110610efe57600080fd5b906000526020600020016000915054906101000a900473ffffffffffffffffffffffffffffffffffffffff1681565b60008033905060011515600960008373ffffffffffffffffffffffffffffffffffffffff1673ffffffffffffffffffffffffffffffffffffffff16815260200190815260200160002060010160009054906101000a900460ff16151514610fc9576040517f08c379a0000000000000000000000000000000000000000000000000000000008152600401610fc09061212b565b60405180910390fd5b8073ffffffffffffffffffffffffffffffffffffffff166108fc600960003373ffffffffffffffffffffffffffffffffffffffff1673ffffffffffffffffffffffffffffffffffffffff168152602001908152602001600020600001549081150290604051600060405180830381858888f19350505050158015611051573d6000803e3d6000fd5b506000600960003373ffffffffffffffffffffffffffffffffffffffff1673ffffffffffffffffffffffffffffffffffffffff16815260200190815260200160002060000181905550600191505090565b6000600160008473ffffffffffffffffffffffffffffffffffffffff1673ffffffffffffffffffffffffffffffffffffffff16815260200190815260200160002060008373ffffffffffffffffffffffffffffffffffffffff1673ffffffffffffffffffffffffffffffffffffffff16815260200190815260200160002054905092915050565b600033905090565b600073ffffffffffffffffffffffffffffffffffffffff168373ffffffffffffffffffffffffffffffffffffffff16036111a0576040517f08c379a0000000000000000000000000000000000000000000000000000000008152600401611197906121bd565b60405180910390fd5b600073ffffffffffffffffffffffffffffffffffffffff168273ffffffffffffffffffffffffffffffffffffffff160361120f576040517f08c379a00000000000000000000000000000000000000000000000000000000081526004016112069061224f565b60405180910390fd5b80600160008573ffffffffffffffffffffffffffffffffffffffff1673ffffffffffffffffffffffffffffffffffffffff16815260200190815260200160002060008473ffffffffffffffffffffffffffffffffffffffff1673ffffffffffffffffffffffffffffffffffffffff168152602001908152602001600020819055508173ffffffffffffffffffffffffffffffffffffffff168373ffffffffffffffffffffffffffffffffffffffff167f8c5be1e5ebec7d5bd14f71427d1e84f3dd0314c0f7b2291e5b200ac8c7c3b925836040516112ed919061190f565b60405180910390a3505050565b600073ffffffffffffffffffffffffffffffffffffffff168373ffffffffffffffffffffffffffffffffffffffff1603611369576040517f08c379a0000000000000000000000000000000000000000000000000000000008152600401611360906122e1565b60405180910390fd5b600073ffffffffffffffffffffffffffffffffffffffff168273ffffffffffffffffffffffffffffffffffffffff16036113d8576040517f08c379a00000000000000000000000000000000000000000000000000000000081526004016113cf90612373565b60405180910390fd5b6113e383838361172c565b60008060008573ffffffffffffffffffffffffffffffffffffffff1673ffffffffffffffffffffffffffffffffffffffff16815260200190815260200160002054905081811015611469576040517f08c379a000000000000000000000000000000000000000000000000000000000815260040161146090612405565b60405180910390fd5b8181036000808673ffffffffffffffffffffffffffffffffffffffff1673ffffffffffffffffffffffffffffffffffffffff16815260200190815260200160002081905550816000808573ffffffffffffffffffffffffffffffffffffffff1673ffffffffffffffffffffffffffffffffffffffff16815260200190815260200160002060008282546114fc9190611c4a565b925050819055508273ffffffffffffffffffffffffffffffffffffffff168473ffffffffffffffffffffffffffffffffffffffff167fddf252ad1be2c89b69c2b068fc378daa952ba7f163c4a11628f55a4df523b3ef84604051611560919061190f565b60405180910390a3611573848484611731565b50505050565b6000806000600a6000600654815260200190815260200160002060000160009054906101000a900473ffffffffffffffffffffffffffffffffffffffff16905060011515600a600087815260200190815260200160002060000160149054906101000a900460ff16151514801561163257506000600960008373ffffffffffffffffffffffffffffffffffffffff1673ffffffffffffffffffffffffffffffffffffffff16815260200190815260200160002060000154115b156116dc5783611679600a6000600654815260200190815260200160002060000160009054906101000a900473ffffffffffffffffffffffffffffffffffffffff1661083b565b6116839190612425565b600960008373ffffffffffffffffffffffffffffffffffffffff1673ffffffffffffffffffffffffffffffffffffffff16815260200190815260200160002060000160008282546116d49190611c4a565b925050819055505b84600960008373ffffffffffffffffffffffffffffffffffffffff1673ffffffffffffffffffffffffffffffffffffffff1681526020019081526020016000206000015492509250509250929050565b505050565b505050565b600081519050919050565b600082825260208201905092915050565b60005b83811015611770578082015181840152602081019050611755565b8381111561177f576000848401525b50505050565b6000601f19601f8301169050919050565b60006117a182611736565b6117ab8185611741565b93506117bb818560208601611752565b6117c481611785565b840191505092915050565b600060208201905081810360008301526117e98184611796565b905092915050565b600080fd5b600073ffffffffffffffffffffffffffffffffffffffff82169050919050565b6000611821826117f6565b9050919050565b61183181611816565b811461183c57600080fd5b50565b60008135905061184e81611828565b92915050565b6000819050919050565b61186781611854565b811461187257600080fd5b50565b6000813590506118848161185e565b92915050565b600080604083850312156118a1576118a06117f1565b5b60006118af8582860161183f565b92505060206118c085828601611875565b9150509250929050565b60008115159050919050565b6118df816118ca565b82525050565b60006020820190506118fa60008301846118d6565b92915050565b61190981611854565b82525050565b60006020820190506119246000830184611900565b92915050565b6000602082840312156119405761193f6117f1565b5b600061194e84828501611875565b91505092915050565b61196081611816565b82525050565b600060408201905061197b6000830185611957565b61198860208301846118d6565b9392505050565b6000806000606084860312156119a8576119a76117f1565b5b60006119b68682870161183f565b93505060206119c78682870161183f565b92505060406119d886828701611875565b9150509250925092565b600060ff82169050919050565b6119f8816119e2565b82525050565b6000602082019050611a1360008301846119ef565b92915050565b600060208284031215611a2f57611a2e6117f1565b5b6000611a3d8482850161183f565b91505092915050565b6000604082019050611a5b6000830185611900565b611a6860208301846118d6565b9392505050565b6000819050919050565b6000611a94611a8f611a8a846117f6565b611a6f565b6117f6565b9050919050565b6000611aa682611a79565b9050919050565b6000611ab882611a9b565b9050919050565b611ac881611aad565b82525050565b6000602082019050611ae36000830184611abf565b92915050565b60008060408385031215611b0057611aff6117f1565b5b6000611b0e8582860161183f565b9250506020611b1f8582860161183f565b9150509250929050565b7f4e487b7100000000000000000000000000000000000000000000000000000000600052602260045260246000fd5b60006002820490506001821680611b7057607f821691505b602082108103611b8357611b82611b29565b5b50919050565b7f45524332303a207472616e7366657220616d6f756e742065786365656473206160008201527f6c6c6f77616e6365000000000000000000000000000000000000000000000000602082015250565b6000611be5602883611741565b9150611bf082611b89565b604082019050919050565b60006020820190508181036000830152611c1481611bd8565b9050919050565b7f4e487b7100000000000000000000000000000000000000000000000000000000600052601160045260246000fd5b6000611c5582611854565b9150611c6083611854565b9250827fffffffffffffffffffffffffffffffffffffffffffffffffffffffffffffffff03821115611c9557611c94611c1b565b5b828201905092915050565b7f75736572206e6f74207265676973746572640000000000000000000000000000600082015250565b6000611cd6601283611741565b9150611ce182611ca0565b602082019050919050565b60006020820190508181036000830152611d0581611cc9565b9050919050565b7f7573657220616c72656164792065786973740000000000000000000000000000600082015250565b6000611d42601283611741565b9150611d4d82611d0c565b602082019050919050565b60006020820190508181036000830152611d7181611d35565b9050919050565b6000611d8382611854565b91507fffffffffffffffffffffffffffffffffffffffffffffffffffffffffffffffff8203611db557611db4611c1b565b5b600182019050919050565b60008160601b9050919050565b6000611dd882611dc0565b9050919050565b6000611dea82611dcd565b9050919050565b611e02611dfd82611816565b611ddf565b82525050565b6000611e148284611df1565b60148201915081905092915050565b600081549050919050565b600081905092915050565b60008190508160005260206000209050919050565b611e5781611aad565b82525050565b6000611e698383611e4e565b60208301905092915050565b60008160001c9050919050565b600073ffffffffffffffffffffffffffffffffffffffff82169050919050565b6000611eb5611eb083611e75565b611e82565b9050919050565b6000611ec88254611ea2565b9050919050565b6000600182019050919050565b6000611ee782611e23565b611ef18185611e2e565b9350611efc83611e39565b8060005b83811015611f3457611f1182611ebc565b611f1b8882611e5d565b9750611f2683611ecf565b925050600181019050611f00565b5085935050505092915050565b6000611f4d8284611edc565b915081905092915050565b7f4f6e6c7920436f6e747261637420636f696e62616e6b2063616e20657865637560008201527f746520746869732066756e6374696f6e00000000000000000000000000000000602082015250565b6000611fb4603083611741565b9150611fbf82611f58565b604082019050919050565b60006020820190508181036000830152611fe381611fa7565b9050919050565b6000611ff582611854565b915061200083611854565b92508282101561201357612012611c1b565b5b828203905092915050565b7f4e487b7100000000000000000000000000000000000000000000000000000000600052603260045260246000fd5b7f45524332303a2064656372656173656420616c6c6f77616e63652062656c6f7760008201527f207a65726f000000000000000000000000000000000000000000000000000000602082015250565b60006120a9602583611741565b91506120b48261204d565b604082019050919050565b600060208201905081810360008301526120d88161209c565b9050919050565b7f5573657220646f6573206e6f7420657869737400000000000000000000000000600082015250565b6000612115601383611741565b9150612120826120df565b602082019050919050565b6000602082019050818103600083015261214481612108565b9050919050565b7f45524332303a20617070726f76652066726f6d20746865207a65726f2061646460008201527f7265737300000000000000000000000000000000000000000000000000000000602082015250565b60006121a7602483611741565b91506121b28261214b565b604082019050919050565b600060208201905081810360008301526121d68161219a565b9050919050565b7f45524332303a20617070726f766520746f20746865207a65726f20616464726560008201527f7373000000000000000000000000000000000000000000000000000000000000602082015250565b6000612239602283611741565b9150612244826121dd565b604082019050919050565b600060208201905081810360008301526122688161222c565b9050919050565b7f45524332303a207472616e736665722066726f6d20746865207a65726f20616460008201527f6472657373000000000000000000000000000000000000000000000000000000602082015250565b60006122cb602583611741565b91506122d68261226f565b604082019050919050565b600060208201905081810360008301526122fa816122be565b9050919050565b7f45524332303a207472616e7366657220746f20746865207a65726f206164647260008201527f6573730000000000000000000000000000000000000000000000000000000000602082015250565b600061235d602383611741565b915061236882612301565b604082019050919050565b6000602082019050818103600083015261238c81612350565b9050919050565b7f45524332303a207472616e7366657220616d6f756e742065786365656473206260008201527f616c616e63650000000000000000000000000000000000000000000000000000602082015250565b60006123ef602683611741565b91506123fa82612393565b604082019050919050565b6000602082019050818103600083015261241e816123e2565b9050919050565b600061243082611854565b915061243b83611854565b9250817fffffffffffffffffffffffffffffffffffffffffffffffffffffffffffffffff048311821515161561247457612473611c1b565b5b82820290509291505056fea26469706673582212203fd57e9c0f6c828693048a9057097aedb7f319875de2856515777b0101e8dd4064736f6c634300080d0033608060405234801561001057600080fd5b506040516105d03803806105d08339818101604052810190610032919061015a565b6040518060400160405280600081526020014281525060056000808152602001908152602001600020600082015181600001556020820151816001015590505081600360006101000a81548173ffffffffffffffffffffffffffffffffffffffff021916908373ffffffffffffffffffffffffffffffffffffffff16021790555080600181905550505061019a565b600080fd5b600073ffffffffffffffffffffffffffffffffffffffff82169050919050565b60006100f1826100c6565b9050919050565b610101816100e6565b811461010c57600080fd5b50565b60008151905061011e816100f8565b92915050565b6000819050919050565b61013781610124565b811461014257600080fd5b50565b6000815190506101548161012e565b92915050565b60008060408385031215610171576101706100c1565b5b600061017f8582860161010f565b925050602061019085828601610145565b9150509250929050565b610427806101a96000396000f3fe60806040526004361061002d5760003560e01c806382add36114610087578063b0128f6d1461009157610085565b36610085576000341115610083573073ffffffffffffffffffffffffffffffffffffffff166108fc349081150290604051600060405180830381858888f19350505050158015610081573d6000803e3d6000fd5b505b005b005b61008f6100cf565b005b34801561009d57600080fd5b506100b860048036038101906100b39190610248565b610119565b6040516100c6929190610284565b60405180910390f35b60006005600080815260200190815260200160002060010154816100f391906102dc565b4211610116576000600154476101099190610361565b90506101148161013d565b505b50565b60056020528060005260406000206000915090508060000154908060010154905082565b6000600360009054906101000a900473ffffffffffffffffffffffffffffffffffffffff1690508073ffffffffffffffffffffffffffffffffffffffff16639a29e6aa836040518263ffffffff1660e01b815260040161019d9190610392565b600060405180830381600087803b1580156101b757600080fd5b505af11580156101cb573d6000803e3d6000fd5b505050507fa45dac62289018e90b3dc24632d939c6f3545fbc1c00325ee50858f926afc6304260016040516102019291906103c8565b60405180910390a15050565b600080fd5b6000819050919050565b61022581610212565b811461023057600080fd5b50565b6000813590506102428161021c565b92915050565b60006020828403121561025e5761025d61020d565b5b600061026c84828501610233565b91505092915050565b61027e81610212565b82525050565b60006040820190506102996000830185610275565b6102a66020830184610275565b9392505050565b7f4e487b7100000000000000000000000000000000000000000000000000000000600052601160045260246000fd5b60006102e782610212565b91506102f283610212565b9250827fffffffffffffffffffffffffffffffffffffffffffffffffffffffffffffffff03821115610327576103266102ad565b5b828201905092915050565b7f4e487b7100000000000000000000000000000000000000000000000000000000600052601260045260246000fd5b600061036c82610212565b915061037783610212565b92508261038757610386610332565b5b828204905092915050565b60006020820190506103a76000830184610275565b92915050565b60008115159050919050565b6103c2816103ad565b82525050565b60006040820190506103dd6000830185610275565b6103ea60208301846103b9565b939250505056fea2646970667358221220b4cdda6fa7753bc7d1a6f2b6e2dd006b805b13ea10ca364b224388e19315a1bf64736f6c634300080d0033",
					"opcodes": "PUSH1 0x80 PUSH1 0x40 MSTORE PUSH1 0x0 PUSH1 0x5 SSTORE PUSH1 0x0 PUSH1 0x6 SSTORE PUSH1 0x64 PUSH1 0x7 SSTORE PUSH1 0x0 PUSH1 0x8 SSTORE CALLVALUE DUP1 ISZERO PUSH3 0x25 JUMPI PUSH1 0x0 DUP1 REVERT JUMPDEST POP PUSH1 0x40 MLOAD PUSH3 0x34A3 CODESIZE SUB DUP1 PUSH3 0x34A3 DUP4 CODECOPY DUP2 DUP2 ADD PUSH1 0x40 MSTORE DUP2 ADD SWAP1 PUSH3 0x4B SWAP2 SWAP1 PUSH3 0x5A6 JUMP JUMPDEST DUP4 DUP4 DUP2 PUSH1 0x3 SWAP1 DUP1 MLOAD SWAP1 PUSH1 0x20 ADD SWAP1 PUSH3 0x65 SWAP3 SWAP2 SWAP1 PUSH3 0x2D2 JUMP JUMPDEST POP DUP1 PUSH1 0x4 SWAP1 DUP1 MLOAD SWAP1 PUSH1 0x20 ADD SWAP1 PUSH3 0x7E SWAP3 SWAP2 SWAP1 PUSH3 0x2D2 JUMP JUMPDEST POP POP POP DUP1 DUP3 PUSH3 0x8F SWAP2 SWAP1 PUSH3 0x7D9 JUMP JUMPDEST SWAP2 POP PUSH3 0xA3 CALLER DUP4 PUSH3 0x150 PUSH1 0x20 SHL PUSH1 0x20 SHR JUMP JUMPDEST PUSH1 0x0 ADDRESS DUP4 PUSH1 0x40 MLOAD PUSH3 0xB5 SWAP1 PUSH3 0x363 JUMP JUMPDEST PUSH3 0xC2 SWAP3 SWAP2 SWAP1 PUSH3 0x880 JUMP JUMPDEST PUSH1 0x40 MLOAD DUP1 SWAP2 SUB SWAP1 PUSH1 0x0 CREATE DUP1 ISZERO DUP1 ISZERO PUSH3 0xDF JUMPI RETURNDATASIZE PUSH1 0x0 DUP1 RETURNDATACOPY RETURNDATASIZE PUSH1 0x0 REVERT JUMPDEST POP SWAP1 POP PUSH1 0xB DUP2 SWAP1 DUP1 PUSH1 0x1 DUP2 SLOAD ADD DUP1 DUP3 SSTORE DUP1 SWAP2 POP POP PUSH1 0x1 SWAP1 SUB SWAP1 PUSH1 0x0 MSTORE PUSH1 0x20 PUSH1 0x0 KECCAK256 ADD PUSH1 0x0 SWAP1 SWAP2 SWAP1 SWAP2 SWAP1 SWAP2 PUSH2 0x100 EXP DUP2 SLOAD DUP2 PUSH20 0xFFFFFFFFFFFFFFFFFFFFFFFFFFFFFFFFFFFFFFFF MUL NOT AND SWAP1 DUP4 PUSH20 0xFFFFFFFFFFFFFFFFFFFFFFFFFFFFFFFFFFFFFFFF AND MUL OR SWAP1 SSTORE POP POP POP POP POP POP PUSH3 0xA0E JUMP JUMPDEST PUSH1 0x0 PUSH20 0xFFFFFFFFFFFFFFFFFFFFFFFFFFFFFFFFFFFFFFFF AND DUP3 PUSH20 0xFFFFFFFFFFFFFFFFFFFFFFFFFFFFFFFFFFFFFFFF AND SUB PUSH3 0x1C2 JUMPI PUSH1 0x40 MLOAD PUSH32 0x8C379A000000000000000000000000000000000000000000000000000000000 DUP2 MSTORE PUSH1 0x4 ADD PUSH3 0x1B9 SWAP1 PUSH3 0x90E JUMP JUMPDEST PUSH1 0x40 MLOAD DUP1 SWAP2 SUB SWAP1 REVERT JUMPDEST PUSH3 0x1D6 PUSH1 0x0 DUP4 DUP4 PUSH3 0x2C8 PUSH1 0x20 SHL PUSH1 0x20 SHR JUMP JUMPDEST DUP1 PUSH1 0x2 PUSH1 0x0 DUP3 DUP3 SLOAD PUSH3 0x1EA SWAP2 SWAP1 PUSH3 0x930 JUMP JUMPDEST SWAP3 POP POP DUP2 SWAP1 SSTORE POP DUP1 PUSH1 0x0 DUP1 DUP5 PUSH20 0xFFFFFFFFFFFFFFFFFFFFFFFFFFFFFFFFFFFFFFFF AND PUSH20 0xFFFFFFFFFFFFFFFFFFFFFFFFFFFFFFFFFFFFFFFF AND DUP2 MSTORE PUSH1 0x20 ADD SWAP1 DUP2 MSTORE PUSH1 0x20 ADD PUSH1 0x0 KECCAK256 PUSH1 0x0 DUP3 DUP3 SLOAD PUSH3 0x241 SWAP2 SWAP1 PUSH3 0x930 JUMP JUMPDEST SWAP3 POP POP DUP2 SWAP1 SSTORE POP DUP2 PUSH20 0xFFFFFFFFFFFFFFFFFFFFFFFFFFFFFFFFFFFFFFFF AND PUSH1 0x0 PUSH20 0xFFFFFFFFFFFFFFFFFFFFFFFFFFFFFFFFFFFFFFFF AND PUSH32 0xDDF252AD1BE2C89B69C2B068FC378DAA952BA7F163C4A11628F55A4DF523B3EF DUP4 PUSH1 0x40 MLOAD PUSH3 0x2A8 SWAP2 SWAP1 PUSH3 0x98D JUMP JUMPDEST PUSH1 0x40 MLOAD DUP1 SWAP2 SUB SWAP1 LOG3 PUSH3 0x2C4 PUSH1 0x0 DUP4 DUP4 PUSH3 0x2CD PUSH1 0x20 SHL PUSH1 0x20 SHR JUMP JUMPDEST POP POP JUMP JUMPDEST POP POP POP JUMP JUMPDEST POP POP POP JUMP JUMPDEST DUP3 DUP1 SLOAD PUSH3 0x2E0 SWAP1 PUSH3 0x9D9 JUMP JUMPDEST SWAP1 PUSH1 0x0 MSTORE PUSH1 0x20 PUSH1 0x0 KECCAK256 SWAP1 PUSH1 0x1F ADD PUSH1 0x20 SWAP1 DIV DUP2 ADD SWAP3 DUP3 PUSH3 0x304 JUMPI PUSH1 0x0 DUP6 SSTORE PUSH3 0x350 JUMP JUMPDEST DUP3 PUSH1 0x1F LT PUSH3 0x31F JUMPI DUP1 MLOAD PUSH1 0xFF NOT AND DUP4 DUP1 ADD OR DUP6 SSTORE PUSH3 0x350 JUMP JUMPDEST DUP3 DUP1 ADD PUSH1 0x1 ADD DUP6 SSTORE DUP3 ISZERO PUSH3 0x350 JUMPI SWAP2 DUP3 ADD JUMPDEST DUP3 DUP2 GT ISZERO PUSH3 0x34F JUMPI DUP3 MLOAD DUP3 SSTORE SWAP2 PUSH1 0x20 ADD SWAP2 SWAP1 PUSH1 0x1 ADD SWAP1 PUSH3 0x332 JUMP JUMPDEST JUMPDEST POP SWAP1 POP PUSH3 0x35F SWAP2 SWAP1 PUSH3 0x371 JUMP JUMPDEST POP SWAP1 JUMP JUMPDEST PUSH2 0x5D0 DUP1 PUSH3 0x2ED3 DUP4 CODECOPY ADD SWAP1 JUMP JUMPDEST JUMPDEST DUP1 DUP3 GT ISZERO PUSH3 0x38C JUMPI PUSH1 0x0 DUP2 PUSH1 0x0 SWAP1 SSTORE POP PUSH1 0x1 ADD PUSH3 0x372 JUMP JUMPDEST POP SWAP1 JUMP JUMPDEST PUSH1 0x0 PUSH1 0x40 MLOAD SWAP1 POP SWAP1 JUMP JUMPDEST PUSH1 0x0 DUP1 REVERT JUMPDEST PUSH1 0x0 DUP1 REVERT JUMPDEST PUSH1 0x0 DUP1 REVERT JUMPDEST PUSH1 0x0 DUP1 REVERT JUMPDEST PUSH1 0x0 PUSH1 0x1F NOT PUSH1 0x1F DUP4 ADD AND SWAP1 POP SWAP2 SWAP1 POP JUMP JUMPDEST PUSH32 0x4E487B7100000000000000000000000000000000000000000000000000000000 PUSH1 0x0 MSTORE PUSH1 0x41 PUSH1 0x4 MSTORE PUSH1 0x24 PUSH1 0x0 REVERT JUMPDEST PUSH3 0x3F9 DUP3 PUSH3 0x3AE JUMP JUMPDEST DUP2 ADD DUP2 DUP2 LT PUSH8 0xFFFFFFFFFFFFFFFF DUP3 GT OR ISZERO PUSH3 0x41B JUMPI PUSH3 0x41A PUSH3 0x3BF JUMP JUMPDEST JUMPDEST DUP1 PUSH1 0x40 MSTORE POP POP POP JUMP JUMPDEST PUSH1 0x0 PUSH3 0x430 PUSH3 0x390 JUMP JUMPDEST SWAP1 POP PUSH3 0x43E DUP3 DUP3 PUSH3 0x3EE JUMP JUMPDEST SWAP2 SWAP1 POP JUMP JUMPDEST PUSH1 0x0 PUSH8 0xFFFFFFFFFFFFFFFF DUP3 GT ISZERO PUSH3 0x461 JUMPI PUSH3 0x460 PUSH3 0x3BF JUMP JUMPDEST JUMPDEST PUSH3 0x46C DUP3 PUSH3 0x3AE JUMP JUMPDEST SWAP1 POP PUSH1 0x20 DUP2 ADD SWAP1 POP SWAP2 SWAP1 POP JUMP JUMPDEST PUSH1 0x0 JUMPDEST DUP4 DUP2 LT ISZERO PUSH3 0x499 JUMPI DUP1 DUP3 ADD MLOAD DUP2 DUP5 ADD MSTORE PUSH1 0x20 DUP2 ADD SWAP1 POP PUSH3 0x47C JUMP JUMPDEST DUP4 DUP2 GT ISZERO PUSH3 0x4A9 JUMPI PUSH1 0x0 DUP5 DUP5 ADD MSTORE JUMPDEST POP POP POP POP JUMP JUMPDEST PUSH1 0x0 PUSH3 0x4C6 PUSH3 0x4C0 DUP5 PUSH3 0x443 JUMP JUMPDEST PUSH3 0x424 JUMP JUMPDEST SWAP1 POP DUP3 DUP2 MSTORE PUSH1 0x20 DUP2 ADD DUP5 DUP5 DUP5 ADD GT ISZERO PUSH3 0x4E5 JUMPI PUSH3 0x4E4 PUSH3 0x3A9 JUMP JUMPDEST JUMPDEST PUSH3 0x4F2 DUP5 DUP3 DUP6 PUSH3 0x479 JUMP JUMPDEST POP SWAP4 SWAP3 POP POP POP JUMP JUMPDEST PUSH1 0x0 DUP3 PUSH1 0x1F DUP4 ADD SLT PUSH3 0x512 JUMPI PUSH3 0x511 PUSH3 0x3A4 JUMP JUMPDEST JUMPDEST DUP2 MLOAD PUSH3 0x524 DUP5 DUP3 PUSH1 0x20 DUP7 ADD PUSH3 0x4AF JUMP JUMPDEST SWAP2 POP POP SWAP3 SWAP2 POP POP JUMP JUMPDEST PUSH1 0x0 DUP2 SWAP1 POP SWAP2 SWAP1 POP JUMP JUMPDEST PUSH3 0x542 DUP2 PUSH3 0x52D JUMP JUMPDEST DUP2 EQ PUSH3 0x54E JUMPI PUSH1 0x0 DUP1 REVERT JUMPDEST POP JUMP JUMPDEST PUSH1 0x0 DUP2 MLOAD SWAP1 POP PUSH3 0x562 DUP2 PUSH3 0x537 JUMP JUMPDEST SWAP3 SWAP2 POP POP JUMP JUMPDEST PUSH1 0x0 PUSH1 0xFF DUP3 AND SWAP1 POP SWAP2 SWAP1 POP JUMP JUMPDEST PUSH3 0x580 DUP2 PUSH3 0x568 JUMP JUMPDEST DUP2 EQ PUSH3 0x58C JUMPI PUSH1 0x0 DUP1 REVERT JUMPDEST POP JUMP JUMPDEST PUSH1 0x0 DUP2 MLOAD SWAP1 POP PUSH3 0x5A0 DUP2 PUSH3 0x575 JUMP JUMPDEST SWAP3 SWAP2 POP POP JUMP JUMPDEST PUSH1 0x0 DUP1 PUSH1 0x0 DUP1 PUSH1 0x80 DUP6 DUP8 SUB SLT ISZERO PUSH3 0x5C3 JUMPI PUSH3 0x5C2 PUSH3 0x39A JUMP JUMPDEST JUMPDEST PUSH1 0x0 DUP6 ADD MLOAD PUSH8 0xFFFFFFFFFFFFFFFF DUP2 GT ISZERO PUSH3 0x5E4 JUMPI PUSH3 0x5E3 PUSH3 0x39F JUMP JUMPDEST JUMPDEST PUSH3 0x5F2 DUP8 DUP3 DUP9 ADD PUSH3 0x4FA JUMP JUMPDEST SWAP5 POP POP PUSH1 0x20 DUP6 ADD MLOAD PUSH8 0xFFFFFFFFFFFFFFFF DUP2 GT ISZERO PUSH3 0x616 JUMPI PUSH3 0x615 PUSH3 0x39F JUMP JUMPDEST JUMPDEST PUSH3 0x624 DUP8 DUP3 DUP9 ADD PUSH3 0x4FA JUMP JUMPDEST SWAP4 POP POP PUSH1 0x40 PUSH3 0x637 DUP8 DUP3 DUP9 ADD PUSH3 0x551 JUMP JUMPDEST SWAP3 POP POP PUSH1 0x60 PUSH3 0x64A DUP8 DUP3 DUP9 ADD PUSH3 0x58F JUMP JUMPDEST SWAP2 POP POP SWAP3 SWAP6 SWAP2 SWAP5 POP SWAP3 POP JUMP JUMPDEST PUSH32 0x4E487B7100000000000000000000000000000000000000000000000000000000 PUSH1 0x0 MSTORE PUSH1 0x11 PUSH1 0x4 MSTORE PUSH1 0x24 PUSH1 0x0 REVERT JUMPDEST PUSH1 0x0 DUP2 PUSH1 0x1 SHR SWAP1 POP SWAP2 SWAP1 POP JUMP JUMPDEST PUSH1 0x0 DUP1 DUP3 SWAP2 POP DUP4 SWAP1 POP JUMPDEST PUSH1 0x1 DUP6 GT ISZERO PUSH3 0x6E4 JUMPI DUP1 DUP7 DIV DUP2 GT ISZERO PUSH3 0x6BC JUMPI PUSH3 0x6BB PUSH3 0x656 JUMP JUMPDEST JUMPDEST PUSH1 0x1 DUP6 AND ISZERO PUSH3 0x6CC JUMPI DUP1 DUP3 MUL SWAP2 POP JUMPDEST DUP1 DUP2 MUL SWAP1 POP PUSH3 0x6DC DUP6 PUSH3 0x685 JUMP JUMPDEST SWAP5 POP PUSH3 0x69C JUMP JUMPDEST SWAP5 POP SWAP5 SWAP3 POP POP POP JUMP JUMPDEST PUSH1 0x0 DUP3 PUSH3 0x6FF JUMPI PUSH1 0x1 SWAP1 POP PUSH3 0x7D2 JUMP JUMPDEST DUP2 PUSH3 0x70F JUMPI PUSH1 0x0 SWAP1 POP PUSH3 0x7D2 JUMP JUMPDEST DUP2 PUSH1 0x1 DUP2 EQ PUSH3 0x728 JUMPI PUSH1 0x2 DUP2 EQ PUSH3 0x733 JUMPI PUSH3 0x769 JUMP JUMPDEST PUSH1 0x1 SWAP2 POP POP PUSH3 0x7D2 JUMP JUMPDEST PUSH1 0xFF DUP5 GT ISZERO PUSH3 0x748 JUMPI PUSH3 0x747 PUSH3 0x656 JUMP JUMPDEST JUMPDEST DUP4 PUSH1 0x2 EXP SWAP2 POP DUP5 DUP3 GT ISZERO PUSH3 0x762 JUMPI PUSH3 0x761 PUSH3 0x656 JUMP JUMPDEST JUMPDEST POP PUSH3 0x7D2 JUMP JUMPDEST POP PUSH1 0x20 DUP4 LT PUSH2 0x133 DUP4 LT AND PUSH1 0x4E DUP5 LT PUSH1 0xB DUP5 LT AND OR ISZERO PUSH3 0x7A3 JUMPI DUP3 DUP3 EXP SWAP1 POP DUP4 DUP2 GT ISZERO PUSH3 0x79D JUMPI PUSH3 0x79C PUSH3 0x656 JUMP JUMPDEST JUMPDEST PUSH3 0x7D2 JUMP JUMPDEST PUSH3 0x7B2 DUP5 DUP5 DUP5 PUSH1 0x1 PUSH3 0x692 JUMP JUMPDEST SWAP3 POP SWAP1 POP DUP2 DUP5 DIV DUP2 GT ISZERO PUSH3 0x7CC JUMPI PUSH3 0x7CB PUSH3 0x656 JUMP JUMPDEST JUMPDEST DUP2 DUP2 MUL SWAP1 POP JUMPDEST SWAP4 SWAP3 POP POP POP JUMP JUMPDEST PUSH1 0x0 PUSH3 0x7E6 DUP3 PUSH3 0x52D JUMP JUMPDEST SWAP2 POP PUSH3 0x7F3 DUP4 PUSH3 0x568 JUMP JUMPDEST SWAP3 POP PUSH3 0x822 PUSH32 0xFFFFFFFFFFFFFFFFFFFFFFFFFFFFFFFFFFFFFFFFFFFFFFFFFFFFFFFFFFFFFFFF DUP5 DUP5 PUSH3 0x6ED JUMP JUMPDEST SWAP1 POP SWAP3 SWAP2 POP POP JUMP JUMPDEST PUSH1 0x0 PUSH20 0xFFFFFFFFFFFFFFFFFFFFFFFFFFFFFFFFFFFFFFFF DUP3 AND SWAP1 POP SWAP2 SWAP1 POP JUMP JUMPDEST PUSH1 0x0 PUSH3 0x857 DUP3 PUSH3 0x82A JUMP JUMPDEST SWAP1 POP SWAP2 SWAP1 POP JUMP JUMPDEST PUSH3 0x869 DUP2 PUSH3 0x84A JUMP JUMPDEST DUP3 MSTORE POP POP JUMP JUMPDEST PUSH3 0x87A DUP2 PUSH3 0x52D JUMP JUMPDEST DUP3 MSTORE POP POP JUMP JUMPDEST PUSH1 0x0 PUSH1 0x40 DUP3 ADD SWAP1 POP PUSH3 0x897 PUSH1 0x0 DUP4 ADD DUP6 PUSH3 0x85E JUMP JUMPDEST PUSH3 0x8A6 PUSH1 0x20 DUP4 ADD DUP5 PUSH3 0x86F JUMP JUMPDEST SWAP4 SWAP3 POP POP POP JUMP JUMPDEST PUSH1 0x0 DUP3 DUP3 MSTORE PUSH1 0x20 DUP3 ADD SWAP1 POP SWAP3 SWAP2 POP POP JUMP JUMPDEST PUSH32 0x45524332303A206D696E7420746F20746865207A65726F206164647265737300 PUSH1 0x0 DUP3 ADD MSTORE POP JUMP JUMPDEST PUSH1 0x0 PUSH3 0x8F6 PUSH1 0x1F DUP4 PUSH3 0x8AD JUMP JUMPDEST SWAP2 POP PUSH3 0x903 DUP3 PUSH3 0x8BE JUMP JUMPDEST PUSH1 0x20 DUP3 ADD SWAP1 POP SWAP2 SWAP1 POP JUMP JUMPDEST PUSH1 0x0 PUSH1 0x20 DUP3 ADD SWAP1 POP DUP2 DUP2 SUB PUSH1 0x0 DUP4 ADD MSTORE PUSH3 0x929 DUP2 PUSH3 0x8E7 JUMP JUMPDEST SWAP1 POP SWAP2 SWAP1 POP JUMP JUMPDEST PUSH1 0x0 PUSH3 0x93D DUP3 PUSH3 0x52D JUMP JUMPDEST SWAP2 POP PUSH3 0x94A DUP4 PUSH3 0x52D JUMP JUMPDEST SWAP3 POP DUP3 PUSH32 0xFFFFFFFFFFFFFFFFFFFFFFFFFFFFFFFFFFFFFFFFFFFFFFFFFFFFFFFFFFFFFFFF SUB DUP3 GT ISZERO PUSH3 0x982 JUMPI PUSH3 0x981 PUSH3 0x656 JUMP JUMPDEST JUMPDEST DUP3 DUP3 ADD SWAP1 POP SWAP3 SWAP2 POP POP JUMP JUMPDEST PUSH1 0x0 PUSH1 0x20 DUP3 ADD SWAP1 POP PUSH3 0x9A4 PUSH1 0x0 DUP4 ADD DUP5 PUSH3 0x86F JUMP JUMPDEST SWAP3 SWAP2 POP POP JUMP JUMPDEST PUSH32 0x4E487B7100000000000000000000000000000000000000000000000000000000 PUSH1 0x0 MSTORE PUSH1 0x22 PUSH1 0x4 MSTORE PUSH1 0x24 PUSH1 0x0 REVERT JUMPDEST PUSH1 0x0 PUSH1 0x2 DUP3 DIV SWAP1 POP PUSH1 0x1 DUP3 AND DUP1 PUSH3 0x9F2 JUMPI PUSH1 0x7F DUP3 AND SWAP2 POP JUMPDEST PUSH1 0x20 DUP3 LT DUP2 SUB PUSH3 0xA08 JUMPI PUSH3 0xA07 PUSH3 0x9AA JUMP JUMPDEST JUMPDEST POP SWAP2 SWAP1 POP JUMP JUMPDEST PUSH2 0x24B5 DUP1 PUSH3 0xA1E PUSH1 0x0 CODECOPY PUSH1 0x0 RETURN INVALID PUSH1 0x80 PUSH1 0x40 MSTORE PUSH1 0x4 CALLDATASIZE LT PUSH2 0x118 JUMPI PUSH1 0x0 CALLDATALOAD PUSH1 0xE0 SHR DUP1 PUSH4 0x70A08231 GT PUSH2 0xA0 JUMPI DUP1 PUSH4 0xA457C2D7 GT PUSH2 0x64 JUMPI DUP1 PUSH4 0xA457C2D7 EQ PUSH2 0x42B JUMPI DUP1 PUSH4 0xA9059CBB EQ PUSH2 0x468 JUMPI DUP1 PUSH4 0xADD1603E EQ PUSH2 0x4A5 JUMPI DUP1 PUSH4 0xD95402E7 EQ PUSH2 0x4E2 JUMPI DUP1 PUSH4 0xDD62ED3E EQ PUSH2 0x50D JUMPI PUSH2 0x11F JUMP JUMPDEST DUP1 PUSH4 0x70A08231 EQ PUSH2 0x351 JUMPI DUP1 PUSH4 0x8AC8BBCA EQ PUSH2 0x38E JUMPI DUP1 PUSH4 0x948DEC44 EQ PUSH2 0x3B9 JUMPI DUP1 PUSH4 0x95D89B41 EQ PUSH2 0x3E4 JUMPI DUP1 PUSH4 0x9A29E6AA EQ PUSH2 0x40F JUMPI PUSH2 0x11F JUMP JUMPDEST DUP1 PUSH4 0x18160DDD GT PUSH2 0xE7 JUMPI DUP1 PUSH4 0x18160DDD EQ PUSH2 0x243 JUMPI DUP1 PUSH4 0x23B872DD EQ PUSH2 0x26E JUMPI DUP1 PUSH4 0x313CE567 EQ PUSH2 0x2AB JUMPI DUP1 PUSH4 0x39509351 EQ PUSH2 0x2D6 JUMPI DUP1 PUSH4 0x5E5C06E2 EQ PUSH2 0x313 JUMPI PUSH2 0x11F JUMP JUMPDEST DUP1 PUSH4 0x6FDDE03 EQ PUSH2 0x172 JUMPI DUP1 PUSH4 0x95EA7B3 EQ PUSH2 0x19D JUMPI DUP1 PUSH4 0xEF67887 EQ PUSH2 0x1DA JUMPI DUP1 PUSH4 0x10A7FD7B EQ PUSH2 0x205 JUMPI PUSH2 0x11F JUMP JUMPDEST CALLDATASIZE PUSH2 0x11F JUMPI STOP JUMPDEST PUSH1 0x0 CALLVALUE GT ISZERO PUSH2 0x170 JUMPI ADDRESS PUSH20 0xFFFFFFFFFFFFFFFFFFFFFFFFFFFFFFFFFFFFFFFF AND PUSH2 0x8FC CALLVALUE SWAP1 DUP2 ISZERO MUL SWAP1 PUSH1 0x40 MLOAD PUSH1 0x0 PUSH1 0x40 MLOAD DUP1 DUP4 SUB DUP2 DUP6 DUP9 DUP9 CALL SWAP4 POP POP POP POP ISZERO DUP1 ISZERO PUSH2 0x16E JUMPI RETURNDATASIZE PUSH1 0x0 DUP1 RETURNDATACOPY RETURNDATASIZE PUSH1 0x0 REVERT JUMPDEST POP JUMPDEST STOP JUMPDEST CALLVALUE DUP1 ISZERO PUSH2 0x17E JUMPI PUSH1 0x0 DUP1 REVERT JUMPDEST POP PUSH2 0x187 PUSH2 0x54A JUMP JUMPDEST PUSH1 0x40 MLOAD PUSH2 0x194 SWAP2 SWAP1 PUSH2 0x17CF JUMP JUMPDEST PUSH1 0x40 MLOAD DUP1 SWAP2 SUB SWAP1 RETURN JUMPDEST CALLVALUE DUP1 ISZERO PUSH2 0x1A9 JUMPI PUSH1 0x0 DUP1 REVERT JUMPDEST POP PUSH2 0x1C4 PUSH1 0x4 DUP1 CALLDATASIZE SUB DUP2 ADD SWAP1 PUSH2 0x1BF SWAP2 SWAP1 PUSH2 0x188A JUMP JUMPDEST PUSH2 0x5DC JUMP JUMPDEST PUSH1 0x40 MLOAD PUSH2 0x1D1 SWAP2 SWAP1 PUSH2 0x18E5 JUMP JUMPDEST PUSH1 0x40 MLOAD DUP1 SWAP2 SUB SWAP1 RETURN JUMPDEST CALLVALUE DUP1 ISZERO PUSH2 0x1E6 JUMPI PUSH1 0x0 DUP1 REVERT JUMPDEST POP PUSH2 0x1EF PUSH2 0x5FA JUMP JUMPDEST PUSH1 0x40 MLOAD PUSH2 0x1FC SWAP2 SWAP1 PUSH2 0x190F JUMP JUMPDEST PUSH1 0x40 MLOAD DUP1 SWAP2 SUB SWAP1 RETURN JUMPDEST CALLVALUE DUP1 ISZERO PUSH2 0x211 JUMPI PUSH1 0x0 DUP1 REVERT JUMPDEST POP PUSH2 0x22C PUSH1 0x4 DUP1 CALLDATASIZE SUB DUP2 ADD SWAP1 PUSH2 0x227 SWAP2 SWAP1 PUSH2 0x192A JUMP JUMPDEST PUSH2 0x602 JUMP JUMPDEST PUSH1 0x40 MLOAD PUSH2 0x23A SWAP3 SWAP2 SWAP1 PUSH2 0x1966 JUMP JUMPDEST PUSH1 0x40 MLOAD DUP1 SWAP2 SUB SWAP1 RETURN JUMPDEST CALLVALUE DUP1 ISZERO PUSH2 0x24F JUMPI PUSH1 0x0 DUP1 REVERT JUMPDEST POP PUSH2 0x258 PUSH2 0x653 JUMP JUMPDEST PUSH1 0x40 MLOAD PUSH2 0x265 SWAP2 SWAP1 PUSH2 0x190F JUMP JUMPDEST PUSH1 0x40 MLOAD DUP1 SWAP2 SUB SWAP1 RETURN JUMPDEST CALLVALUE DUP1 ISZERO PUSH2 0x27A JUMPI PUSH1 0x0 DUP1 REVERT JUMPDEST POP PUSH2 0x295 PUSH1 0x4 DUP1 CALLDATASIZE SUB DUP2 ADD SWAP1 PUSH2 0x290 SWAP2 SWAP1 PUSH2 0x198F JUMP JUMPDEST PUSH2 0x65D JUMP JUMPDEST PUSH1 0x40 MLOAD PUSH2 0x2A2 SWAP2 SWAP1 PUSH2 0x18E5 JUMP JUMPDEST PUSH1 0x40 MLOAD DUP1 SWAP2 SUB SWAP1 RETURN JUMPDEST CALLVALUE DUP1 ISZERO PUSH2 0x2B7 JUMPI PUSH1 0x0 DUP1 REVERT JUMPDEST POP PUSH2 0x2C0 PUSH2 0x755 JUMP JUMPDEST PUSH1 0x40 MLOAD PUSH2 0x2CD SWAP2 SWAP1 PUSH2 0x19FE JUMP JUMPDEST PUSH1 0x40 MLOAD DUP1 SWAP2 SUB SWAP1 RETURN JUMPDEST CALLVALUE DUP1 ISZERO PUSH2 0x2E2 JUMPI PUSH1 0x0 DUP1 REVERT JUMPDEST POP PUSH2 0x2FD PUSH1 0x4 DUP1 CALLDATASIZE SUB DUP2 ADD SWAP1 PUSH2 0x2F8 SWAP2 SWAP1 PUSH2 0x188A JUMP JUMPDEST PUSH2 0x75E JUMP JUMPDEST PUSH1 0x40 MLOAD PUSH2 0x30A SWAP2 SWAP1 PUSH2 0x18E5 JUMP JUMPDEST PUSH1 0x40 MLOAD DUP1 SWAP2 SUB SWAP1 RETURN JUMPDEST CALLVALUE DUP1 ISZERO PUSH2 0x31F JUMPI PUSH1 0x0 DUP1 REVERT JUMPDEST POP PUSH2 0x33A PUSH1 0x4 DUP1 CALLDATASIZE SUB DUP2 ADD SWAP1 PUSH2 0x335 SWAP2 SWAP1 PUSH2 0x1A19 JUMP JUMPDEST PUSH2 0x80A JUMP JUMPDEST PUSH1 0x40 MLOAD PUSH2 0x348 SWAP3 SWAP2 SWAP1 PUSH2 0x1A46 JUMP JUMPDEST PUSH1 0x40 MLOAD DUP1 SWAP2 SUB SWAP1 RETURN JUMPDEST CALLVALUE DUP1 ISZERO PUSH2 0x35D JUMPI PUSH1 0x0 DUP1 REVERT JUMPDEST POP PUSH2 0x378 PUSH1 0x4 DUP1 CALLDATASIZE SUB DUP2 ADD SWAP1 PUSH2 0x373 SWAP2 SWAP1 PUSH2 0x1A19 JUMP JUMPDEST PUSH2 0x83B JUMP JUMPDEST PUSH1 0x40 MLOAD PUSH2 0x385 SWAP2 SWAP1 PUSH2 0x190F JUMP JUMPDEST PUSH1 0x40 MLOAD DUP1 SWAP2 SUB SWAP1 RETURN JUMPDEST CALLVALUE DUP1 ISZERO PUSH2 0x39A JUMPI PUSH1 0x0 DUP1 REVERT JUMPDEST POP PUSH2 0x3A3 PUSH2 0x883 JUMP JUMPDEST PUSH1 0x40 MLOAD PUSH2 0x3B0 SWAP2 SWAP1 PUSH2 0x190F JUMP JUMPDEST PUSH1 0x40 MLOAD DUP1 SWAP2 SUB SWAP1 RETURN JUMPDEST CALLVALUE DUP1 ISZERO PUSH2 0x3C5 JUMPI PUSH1 0x0 DUP1 REVERT JUMPDEST POP PUSH2 0x3CE PUSH2 0x963 JUMP JUMPDEST PUSH1 0x40 MLOAD PUSH2 0x3DB SWAP2 SWAP1 PUSH2 0x18E5 JUMP JUMPDEST PUSH1 0x40 MLOAD DUP1 SWAP2 SUB SWAP1 RETURN JUMPDEST CALLVALUE DUP1 ISZERO PUSH2 0x3F0 JUMPI PUSH1 0x0 DUP1 REVERT JUMPDEST POP PUSH2 0x3F9 PUSH2 0xB4B JUMP JUMPDEST PUSH1 0x40 MLOAD PUSH2 0x406 SWAP2 SWAP1 PUSH2 0x17CF JUMP JUMPDEST PUSH1 0x40 MLOAD DUP1 SWAP2 SUB SWAP1 RETURN JUMPDEST PUSH2 0x429 PUSH1 0x4 DUP1 CALLDATASIZE SUB DUP2 ADD SWAP1 PUSH2 0x424 SWAP2 SWAP1 PUSH2 0x192A JUMP JUMPDEST PUSH2 0xBDD JUMP JUMPDEST STOP JUMPDEST CALLVALUE DUP1 ISZERO PUSH2 0x437 JUMPI PUSH1 0x0 DUP1 REVERT JUMPDEST POP PUSH2 0x452 PUSH1 0x4 DUP1 CALLDATASIZE SUB DUP2 ADD SWAP1 PUSH2 0x44D SWAP2 SWAP1 PUSH2 0x188A JUMP JUMPDEST PUSH2 0xDE5 JUMP JUMPDEST PUSH1 0x40 MLOAD PUSH2 0x45F SWAP2 SWAP1 PUSH2 0x18E5 JUMP JUMPDEST PUSH1 0x40 MLOAD DUP1 SWAP2 SUB SWAP1 RETURN JUMPDEST CALLVALUE DUP1 ISZERO PUSH2 0x474 JUMPI PUSH1 0x0 DUP1 REVERT JUMPDEST POP PUSH2 0x48F PUSH1 0x4 DUP1 CALLDATASIZE SUB DUP2 ADD SWAP1 PUSH2 0x48A SWAP2 SWAP1 PUSH2 0x188A JUMP JUMPDEST PUSH2 0xED0 JUMP JUMPDEST PUSH1 0x40 MLOAD PUSH2 0x49C SWAP2 SWAP1 PUSH2 0x18E5 JUMP JUMPDEST PUSH1 0x40 MLOAD DUP1 SWAP2 SUB SWAP1 RETURN JUMPDEST CALLVALUE DUP1 ISZERO PUSH2 0x4B1 JUMPI PUSH1 0x0 DUP1 REVERT JUMPDEST POP PUSH2 0x4CC PUSH1 0x4 DUP1 CALLDATASIZE SUB DUP2 ADD SWAP1 PUSH2 0x4C7 SWAP2 SWAP1 PUSH2 0x192A JUMP JUMPDEST PUSH2 0xEEE JUMP JUMPDEST PUSH1 0x40 MLOAD PUSH2 0x4D9 SWAP2 SWAP1 PUSH2 0x1ACE JUMP JUMPDEST PUSH1 0x40 MLOAD DUP1 SWAP2 SUB SWAP1 RETURN JUMPDEST CALLVALUE DUP1 ISZERO PUSH2 0x4EE JUMPI PUSH1 0x0 DUP1 REVERT JUMPDEST POP PUSH2 0x4F7 PUSH2 0xF2D JUMP JUMPDEST PUSH1 0x40 MLOAD PUSH2 0x504 SWAP2 SWAP1 PUSH2 0x18E5 JUMP JUMPDEST PUSH1 0x40 MLOAD DUP1 SWAP2 SUB SWAP1 RETURN JUMPDEST CALLVALUE DUP1 ISZERO PUSH2 0x519 JUMPI PUSH1 0x0 DUP1 REVERT JUMPDEST POP PUSH2 0x534 PUSH1 0x4 DUP1 CALLDATASIZE SUB DUP2 ADD SWAP1 PUSH2 0x52F SWAP2 SWAP1 PUSH2 0x1AE9 JUMP JUMPDEST PUSH2 0x10A2 JUMP JUMPDEST PUSH1 0x40 MLOAD PUSH2 0x541 SWAP2 SWAP1 PUSH2 0x190F JUMP JUMPDEST PUSH1 0x40 MLOAD DUP1 SWAP2 SUB SWAP1 RETURN JUMPDEST PUSH1 0x60 PUSH1 0x3 DUP1 SLOAD PUSH2 0x559 SWAP1 PUSH2 0x1B58 JUMP JUMPDEST DUP1 PUSH1 0x1F ADD PUSH1 0x20 DUP1 SWAP2 DIV MUL PUSH1 0x20 ADD PUSH1 0x40 MLOAD SWAP1 DUP2 ADD PUSH1 0x40 MSTORE DUP1 SWAP3 SWAP2 SWAP1 DUP2 DUP2 MSTORE PUSH1 0x20 ADD DUP3 DUP1 SLOAD PUSH2 0x585 SWAP1 PUSH2 0x1B58 JUMP JUMPDEST DUP1 ISZERO PUSH2 0x5D2 JUMPI DUP1 PUSH1 0x1F LT PUSH2 0x5A7 JUMPI PUSH2 0x100 DUP1 DUP4 SLOAD DIV MUL DUP4 MSTORE SWAP2 PUSH1 0x20 ADD SWAP2 PUSH2 0x5D2 JUMP JUMPDEST DUP3 ADD SWAP2 SWAP1 PUSH1 0x0 MSTORE PUSH1 0x20 PUSH1 0x0 KECCAK256 SWAP1 JUMPDEST DUP2 SLOAD DUP2 MSTORE SWAP1 PUSH1 0x1 ADD SWAP1 PUSH1 0x20 ADD DUP1 DUP4 GT PUSH2 0x5B5 JUMPI DUP3 SWAP1 SUB PUSH1 0x1F AND DUP3 ADD SWAP2 JUMPDEST POP POP POP POP POP SWAP1 POP SWAP1 JUMP JUMPDEST PUSH1 0x0 PUSH2 0x5F0 PUSH2 0x5E9 PUSH2 0x1129 JUMP JUMPDEST DUP5 DUP5 PUSH2 0x1131 JUMP JUMPDEST PUSH1 0x1 SWAP1 POP SWAP3 SWAP2 POP POP JUMP JUMPDEST PUSH1 0x0 SELFBALANCE SWAP1 POP SWAP1 JUMP JUMPDEST PUSH1 0xA PUSH1 0x20 MSTORE DUP1 PUSH1 0x0 MSTORE PUSH1 0x40 PUSH1 0x0 KECCAK256 PUSH1 0x0 SWAP2 POP SWAP1 POP DUP1 PUSH1 0x0 ADD PUSH1 0x0 SWAP1 SLOAD SWAP1 PUSH2 0x100 EXP SWAP1 DIV PUSH20 0xFFFFFFFFFFFFFFFFFFFFFFFFFFFFFFFFFFFFFFFF AND SWAP1 DUP1 PUSH1 0x0 ADD PUSH1 0x14 SWAP1 SLOAD SWAP1 PUSH2 0x100 EXP SWAP1 DIV PUSH1 0xFF AND SWAP1 POP DUP3 JUMP JUMPDEST PUSH1 0x0 PUSH1 0x2 SLOAD SWAP1 POP SWAP1 JUMP JUMPDEST PUSH1 0x0 PUSH2 0x66A DUP5 DUP5 DUP5 PUSH2 0x12FA JUMP JUMPDEST PUSH1 0x0 PUSH1 0x1 PUSH1 0x0 DUP7 PUSH20 0xFFFFFFFFFFFFFFFFFFFFFFFFFFFFFFFFFFFFFFFF AND PUSH20 0xFFFFFFFFFFFFFFFFFFFFFFFFFFFFFFFFFFFFFFFF AND DUP2 MSTORE PUSH1 0x20 ADD SWAP1 DUP2 MSTORE PUSH1 0x20 ADD PUSH1 0x0 KECCAK256 PUSH1 0x0 PUSH2 0x6B5 PUSH2 0x1129 JUMP JUMPDEST PUSH20 0xFFFFFFFFFFFFFFFFFFFFFFFFFFFFFFFFFFFFFFFF AND PUSH20 0xFFFFFFFFFFFFFFFFFFFFFFFFFFFFFFFFFFFFFFFF AND DUP2 MSTORE PUSH1 0x20 ADD SWAP1 DUP2 MSTORE PUSH1 0x20 ADD PUSH1 0x0 KECCAK256 SLOAD SWAP1 POP DUP3 DUP2 LT ISZERO PUSH2 0x735 JUMPI PUSH1 0x40 MLOAD PUSH32 0x8C379A000000000000000000000000000000000000000000000000000000000 DUP2 MSTORE PUSH1 0x4 ADD PUSH2 0x72C SWAP1 PUSH2 0x1BFB JUMP JUMPDEST PUSH1 0x40 MLOAD DUP1 SWAP2 SUB SWAP1 REVERT JUMPDEST PUSH2 0x749 DUP6 PUSH2 0x741 PUSH2 0x1129 JUMP JUMPDEST DUP6 DUP5 SUB PUSH2 0x1131 JUMP JUMPDEST PUSH1 0x1 SWAP2 POP POP SWAP4 SWAP3 POP POP POP JUMP JUMPDEST PUSH1 0x0 PUSH1 0x12 SWAP1 POP SWAP1 JUMP JUMPDEST PUSH1 0x0 PUSH2 0x800 PUSH2 0x76B PUSH2 0x1129 JUMP JUMPDEST DUP5 DUP5 PUSH1 0x1 PUSH1 0x0 PUSH2 0x779 PUSH2 0x1129 JUMP JUMPDEST PUSH20 0xFFFFFFFFFFFFFFFFFFFFFFFFFFFFFFFFFFFFFFFF AND PUSH20 0xFFFFFFFFFFFFFFFFFFFFFFFFFFFFFFFFFFFFFFFF AND DUP2 MSTORE PUSH1 0x20 ADD SWAP1 DUP2 MSTORE PUSH1 0x20 ADD PUSH1 0x0 KECCAK256 PUSH1 0x0 DUP9 PUSH20 0xFFFFFFFFFFFFFFFFFFFFFFFFFFFFFFFFFFFFFFFF AND PUSH20 0xFFFFFFFFFFFFFFFFFFFFFFFFFFFFFFFFFFFFFFFF AND DUP2 MSTORE PUSH1 0x20 ADD SWAP1 DUP2 MSTORE PUSH1 0x20 ADD PUSH1 0x0 KECCAK256 SLOAD PUSH2 0x7FB SWAP2 SWAP1 PUSH2 0x1C4A JUMP JUMPDEST PUSH2 0x1131 JUMP JUMPDEST PUSH1 0x1 SWAP1 POP SWAP3 SWAP2 POP POP JUMP JUMPDEST PUSH1 0x9 PUSH1 0x20 MSTORE DUP1 PUSH1 0x0 MSTORE PUSH1 0x40 PUSH1 0x0 KECCAK256 PUSH1 0x0 SWAP2 POP SWAP1 POP DUP1 PUSH1 0x0 ADD SLOAD SWAP1 DUP1 PUSH1 0x1 ADD PUSH1 0x0 SWAP1 SLOAD SWAP1 PUSH2 0x100 EXP SWAP1 DIV PUSH1 0xFF AND SWAP1 POP DUP3 JUMP JUMPDEST PUSH1 0x0 DUP1 PUSH1 0x0 DUP4 PUSH20 0xFFFFFFFFFFFFFFFFFFFFFFFFFFFFFFFFFFFFFFFF AND PUSH20 0xFFFFFFFFFFFFFFFFFFFFFFFFFFFFFFFFFFFFFFFF AND DUP2 MSTORE PUSH1 0x20 ADD SWAP1 DUP2 MSTORE PUSH1 0x20 ADD PUSH1 0x0 KECCAK256 SLOAD SWAP1 POP SWAP2 SWAP1 POP JUMP JUMPDEST PUSH1 0x0 PUSH1 0x1 ISZERO ISZERO PUSH1 0x9 PUSH1 0x0 CALLER PUSH20 0xFFFFFFFFFFFFFFFFFFFFFFFFFFFFFFFFFFFFFFFF AND PUSH20 0xFFFFFFFFFFFFFFFFFFFFFFFFFFFFFFFFFFFFFFFF AND DUP2 MSTORE PUSH1 0x20 ADD SWAP1 DUP2 MSTORE PUSH1 0x20 ADD PUSH1 0x0 KECCAK256 PUSH1 0x1 ADD PUSH1 0x0 SWAP1 SLOAD SWAP1 PUSH2 0x100 EXP SWAP1 DIV PUSH1 0xFF AND ISZERO ISZERO EQ PUSH2 0x91B JUMPI PUSH1 0x40 MLOAD PUSH32 0x8C379A000000000000000000000000000000000000000000000000000000000 DUP2 MSTORE PUSH1 0x4 ADD PUSH2 0x912 SWAP1 PUSH2 0x1CEC JUMP JUMPDEST PUSH1 0x40 MLOAD DUP1 SWAP2 SUB SWAP1 REVERT JUMPDEST PUSH1 0x9 PUSH1 0x0 CALLER PUSH20 0xFFFFFFFFFFFFFFFFFFFFFFFFFFFFFFFFFFFFFFFF AND PUSH20 0xFFFFFFFFFFFFFFFFFFFFFFFFFFFFFFFFFFFFFFFF AND DUP2 MSTORE PUSH1 0x20 ADD SWAP1 DUP2 MSTORE PUSH1 0x20 ADD PUSH1 0x0 KECCAK256 PUSH1 0x0 ADD SLOAD SWAP1 POP SWAP1 JUMP JUMPDEST PUSH1 0x0 DUP1 ISZERO ISZERO PUSH1 0x9 PUSH1 0x0 CALLER PUSH20 0xFFFFFFFFFFFFFFFFFFFFFFFFFFFFFFFFFFFFFFFF AND PUSH20 0xFFFFFFFFFFFFFFFFFFFFFFFFFFFFFFFFFFFFFFFF AND DUP2 MSTORE PUSH1 0x20 ADD SWAP1 DUP2 MSTORE PUSH1 0x20 ADD PUSH1 0x0 KECCAK256 PUSH1 0x1 ADD PUSH1 0x0 SWAP1 SLOAD SWAP1 PUSH2 0x100 EXP SWAP1 DIV PUSH1 0xFF AND ISZERO ISZERO EQ PUSH2 0x9FA JUMPI PUSH1 0x40 MLOAD PUSH32 0x8C379A000000000000000000000000000000000000000000000000000000000 DUP2 MSTORE PUSH1 0x4 ADD PUSH2 0x9F1 SWAP1 PUSH2 0x1D58 JUMP JUMPDEST PUSH1 0x40 MLOAD DUP1 SWAP2 SUB SWAP1 REVERT JUMPDEST PUSH1 0x40 MLOAD DUP1 PUSH1 0x40 ADD PUSH1 0x40 MSTORE DUP1 CALLER PUSH20 0xFFFFFFFFFFFFFFFFFFFFFFFFFFFFFFFFFFFFFFFF AND DUP2 MSTORE PUSH1 0x20 ADD PUSH1 0x1 ISZERO ISZERO DUP2 MSTORE POP PUSH1 0xA PUSH1 0x0 PUSH1 0x6 SLOAD DUP2 MSTORE PUSH1 0x20 ADD SWAP1 DUP2 MSTORE PUSH1 0x20 ADD PUSH1 0x0 KECCAK256 PUSH1 0x0 DUP3 ADD MLOAD DUP2 PUSH1 0x0 ADD PUSH1 0x0 PUSH2 0x100 EXP DUP2 SLOAD DUP2 PUSH20 0xFFFFFFFFFFFFFFFFFFFFFFFFFFFFFFFFFFFFFFFF MUL NOT AND SWAP1 DUP4 PUSH20 0xFFFFFFFFFFFFFFFFFFFFFFFFFFFFFFFFFFFFFFFF AND MUL OR SWAP1 SSTORE POP PUSH1 0x20 DUP3 ADD MLOAD DUP2 PUSH1 0x0 ADD PUSH1 0x14 PUSH2 0x100 EXP DUP2 SLOAD DUP2 PUSH1 0xFF MUL NOT AND SWAP1 DUP4 ISZERO ISZERO MUL OR SWAP1 SSTORE POP SWAP1 POP POP PUSH1 0x40 MLOAD DUP1 PUSH1 0x40 ADD PUSH1 0x40 MSTORE DUP1 PUSH1 0x0 DUP2 MSTORE PUSH1 0x20 ADD PUSH1 0x1 ISZERO ISZERO DUP2 MSTORE POP PUSH1 0x9 PUSH1 0x0 CALLER PUSH20 0xFFFFFFFFFFFFFFFFFFFFFFFFFFFFFFFFFFFFFFFF AND PUSH20 0xFFFFFFFFFFFFFFFFFFFFFFFFFFFFFFFFFFFFFFFF AND DUP2 MSTORE PUSH1 0x20 ADD SWAP1 DUP2 MSTORE PUSH1 0x20 ADD PUSH1 0x0 KECCAK256 PUSH1 0x0 DUP3 ADD MLOAD DUP2 PUSH1 0x0 ADD SSTORE PUSH1 0x20 DUP3 ADD MLOAD DUP2 PUSH1 0x1 ADD PUSH1 0x0 PUSH2 0x100 EXP DUP2 SLOAD DUP2 PUSH1 0xFF MUL NOT AND SWAP1 DUP4 ISZERO ISZERO MUL OR SWAP1 SSTORE POP SWAP1 POP POP PUSH1 0x6 PUSH1 0x0 DUP2 SLOAD DUP1 SWAP3 SWAP2 SWAP1 PUSH2 0xB3F SWAP1 PUSH2 0x1D78 JUMP JUMPDEST SWAP2 SWAP1 POP SSTORE POP PUSH1 0x1 SWAP1 POP SWAP1 JUMP JUMPDEST PUSH1 0x60 PUSH1 0x4 DUP1 SLOAD PUSH2 0xB5A SWAP1 PUSH2 0x1B58 JUMP JUMPDEST DUP1 PUSH1 0x1F ADD PUSH1 0x20 DUP1 SWAP2 DIV MUL PUSH1 0x20 ADD PUSH1 0x40 MLOAD SWAP1 DUP2 ADD PUSH1 0x40 MSTORE DUP1 SWAP3 SWAP2 SWAP1 DUP2 DUP2 MSTORE PUSH1 0x20 ADD DUP3 DUP1 SLOAD PUSH2 0xB86 SWAP1 PUSH2 0x1B58 JUMP JUMPDEST DUP1 ISZERO PUSH2 0xBD3 JUMPI DUP1 PUSH1 0x1F LT PUSH2 0xBA8 JUMPI PUSH2 0x100 DUP1 DUP4 SLOAD DIV MUL DUP4 MSTORE SWAP2 PUSH1 0x20 ADD SWAP2 PUSH2 0xBD3 JUMP JUMPDEST DUP3 ADD SWAP2 SWAP1 PUSH1 0x0 MSTORE PUSH1 0x20 PUSH1 0x0 KECCAK256 SWAP1 JUMPDEST DUP2 SLOAD DUP2 MSTORE SWAP1 PUSH1 0x1 ADD SWAP1 PUSH1 0x20 ADD DUP1 DUP4 GT PUSH2 0xBB6 JUMPI DUP3 SWAP1 SUB PUSH1 0x1F AND DUP3 ADD SWAP2 JUMPDEST POP POP POP POP POP SWAP1 POP SWAP1 JUMP JUMPDEST CALLER PUSH1 0x40 MLOAD PUSH1 0x20 ADD PUSH2 0xBEE SWAP2 SWAP1 PUSH2 0x1E08 JUMP JUMPDEST PUSH1 0x40 MLOAD PUSH1 0x20 DUP2 DUP4 SUB SUB DUP2 MSTORE SWAP1 PUSH1 0x40 MSTORE DUP1 MLOAD SWAP1 PUSH1 0x20 ADD KECCAK256 PUSH1 0xB PUSH1 0x40 MLOAD PUSH1 0x20 ADD PUSH2 0xC16 SWAP2 SWAP1 PUSH2 0x1F41 JUMP JUMPDEST PUSH1 0x40 MLOAD PUSH1 0x20 DUP2 DUP4 SUB SUB DUP2 MSTORE SWAP1 PUSH1 0x40 MSTORE DUP1 MLOAD SWAP1 PUSH1 0x20 ADD KECCAK256 EQ PUSH2 0xC6C JUMPI PUSH1 0x40 MLOAD PUSH32 0x8C379A000000000000000000000000000000000000000000000000000000000 DUP2 MSTORE PUSH1 0x4 ADD PUSH2 0xC63 SWAP1 PUSH2 0x1FCA JUMP JUMPDEST PUSH1 0x40 MLOAD DUP1 SWAP2 SUB SWAP1 REVERT JUMPDEST PUSH1 0x0 CALLVALUE SWAP1 POP PUSH1 0x0 DUP1 DUP1 DUP3 DUP5 PUSH2 0xC81 SWAP2 SWAP1 PUSH2 0x1FEA JUMP JUMPDEST SWAP1 POP JUMPDEST PUSH1 0x6 SLOAD PUSH1 0x8 SLOAD GT PUSH2 0xDA4 JUMPI PUSH2 0xC9B PUSH1 0x8 SLOAD DUP7 PUSH2 0x1579 JUMP JUMPDEST PUSH1 0x8 PUSH1 0x0 DUP3 SWAP6 POP DUP4 SWAP2 SWAP1 POP SSTORE POP POP DUP2 DUP4 PUSH2 0xCB5 SWAP2 SWAP1 PUSH2 0x1C4A JUMP JUMPDEST SWAP3 POP PUSH1 0x7 SLOAD DUP2 GT PUSH2 0xD65 JUMPI PUSH1 0xB PUSH1 0x0 DUP2 SLOAD DUP2 LT PUSH2 0xCD5 JUMPI PUSH2 0xCD4 PUSH2 0x201E JUMP JUMPDEST JUMPDEST SWAP1 PUSH1 0x0 MSTORE PUSH1 0x20 PUSH1 0x0 KECCAK256 ADD PUSH1 0x0 SWAP1 SLOAD SWAP1 PUSH2 0x100 EXP SWAP1 DIV PUSH20 0xFFFFFFFFFFFFFFFFFFFFFFFFFFFFFFFFFFFFFFFF AND PUSH20 0xFFFFFFFFFFFFFFFFFFFFFFFFFFFFFFFFFFFFFFFF AND PUSH4 0x82ADD361 DUP3 PUSH1 0x40 MLOAD DUP3 PUSH4 0xFFFFFFFF AND PUSH1 0xE0 SHL DUP2 MSTORE PUSH1 0x4 ADD PUSH1 0x0 PUSH1 0x40 MLOAD DUP1 DUP4 SUB DUP2 DUP6 DUP9 DUP1 EXTCODESIZE ISZERO DUP1 ISZERO PUSH2 0xD47 JUMPI PUSH1 0x0 DUP1 REVERT JUMPDEST POP GAS CALL ISZERO DUP1 ISZERO PUSH2 0xD5B JUMPI RETURNDATASIZE PUSH1 0x0 DUP1 RETURNDATACOPY RETURNDATASIZE PUSH1 0x0 REVERT JUMPDEST POP POP POP POP POP PUSH2 0xDA4 JUMP JUMPDEST PUSH1 0x6 SLOAD PUSH1 0x8 SLOAD GT PUSH2 0xD7E JUMPI PUSH1 0x8 SLOAD PUSH1 0x8 DUP2 SWAP1 SSTORE POP PUSH2 0xD87 JUMP JUMPDEST PUSH1 0x0 PUSH1 0x8 DUP2 SWAP1 SSTORE POP JUMPDEST PUSH1 0x8 PUSH1 0x0 DUP2 SLOAD DUP1 SWAP3 SWAP2 SWAP1 PUSH2 0xD9A SWAP1 PUSH2 0x1D78 JUMP JUMPDEST SWAP2 SWAP1 POP SSTORE POP PUSH2 0xC84 JUMP JUMPDEST PUSH32 0x8AB34DBDE874DE5DDABAD5029CF0ABBEF03843EB2D9509A6AE6697F77DC5A948 TIMESTAMP PUSH1 0x1 PUSH1 0x40 MLOAD PUSH2 0xDD6 SWAP3 SWAP2 SWAP1 PUSH2 0x1A46 JUMP JUMPDEST PUSH1 0x40 MLOAD DUP1 SWAP2 SUB SWAP1 LOG1 POP POP POP POP POP JUMP JUMPDEST PUSH1 0x0 DUP1 PUSH1 0x1 PUSH1 0x0 PUSH2 0xDF4 PUSH2 0x1129 JUMP JUMPDEST PUSH20 0xFFFFFFFFFFFFFFFFFFFFFFFFFFFFFFFFFFFFFFFF AND PUSH20 0xFFFFFFFFFFFFFFFFFFFFFFFFFFFFFFFFFFFFFFFF AND DUP2 MSTORE PUSH1 0x20 ADD SWAP1 DUP2 MSTORE PUSH1 0x20 ADD PUSH1 0x0 KECCAK256 PUSH1 0x0 DUP6 PUSH20 0xFFFFFFFFFFFFFFFFFFFFFFFFFFFFFFFFFFFFFFFF AND PUSH20 0xFFFFFFFFFFFFFFFFFFFFFFFFFFFFFFFFFFFFFFFF AND DUP2 MSTORE PUSH1 0x20 ADD SWAP1 DUP2 MSTORE PUSH1 0x20 ADD PUSH1 0x0 KECCAK256 SLOAD SWAP1 POP DUP3 DUP2 LT ISZERO PUSH2 0xEB1 JUMPI PUSH1 0x40 MLOAD PUSH32 0x8C379A000000000000000000000000000000000000000000000000000000000 DUP2 MSTORE PUSH1 0x4 ADD PUSH2 0xEA8 SWAP1 PUSH2 0x20BF JUMP JUMPDEST PUSH1 0x40 MLOAD DUP1 SWAP2 SUB SWAP1 REVERT JUMPDEST PUSH2 0xEC5 PUSH2 0xEBC PUSH2 0x1129 JUMP JUMPDEST DUP6 DUP6 DUP5 SUB PUSH2 0x1131 JUMP JUMPDEST PUSH1 0x1 SWAP2 POP POP SWAP3 SWAP2 POP POP JUMP JUMPDEST PUSH1 0x0 PUSH2 0xEE4 PUSH2 0xEDD PUSH2 0x1129 JUMP JUMPDEST DUP5 DUP5 PUSH2 0x12FA JUMP JUMPDEST PUSH1 0x1 SWAP1 POP SWAP3 SWAP2 POP POP JUMP JUMPDEST PUSH1 0xB DUP2 DUP2 SLOAD DUP2 LT PUSH2 0xEFE JUMPI PUSH1 0x0 DUP1 REVERT JUMPDEST SWAP1 PUSH1 0x0 MSTORE PUSH1 0x20 PUSH1 0x0 KECCAK256 ADD PUSH1 0x0 SWAP2 POP SLOAD SWAP1 PUSH2 0x100 EXP SWAP1 DIV PUSH20 0xFFFFFFFFFFFFFFFFFFFFFFFFFFFFFFFFFFFFFFFF AND DUP2 JUMP JUMPDEST PUSH1 0x0 DUP1 CALLER SWAP1 POP PUSH1 0x1 ISZERO ISZERO PUSH1 0x9 PUSH1 0x0 DUP4 PUSH20 0xFFFFFFFFFFFFFFFFFFFFFFFFFFFFFFFFFFFFFFFF AND PUSH20 0xFFFFFFFFFFFFFFFFFFFFFFFFFFFFFFFFFFFFFFFF AND DUP2 MSTORE PUSH1 0x20 ADD SWAP1 DUP2 MSTORE PUSH1 0x20 ADD PUSH1 0x0 KECCAK256 PUSH1 0x1 ADD PUSH1 0x0 SWAP1 SLOAD SWAP1 PUSH2 0x100 EXP SWAP1 DIV PUSH1 0xFF AND ISZERO ISZERO EQ PUSH2 0xFC9 JUMPI PUSH1 0x40 MLOAD PUSH32 0x8C379A000000000000000000000000000000000000000000000000000000000 DUP2 MSTORE PUSH1 0x4 ADD PUSH2 0xFC0 SWAP1 PUSH2 0x212B JUMP JUMPDEST PUSH1 0x40 MLOAD DUP1 SWAP2 SUB SWAP1 REVERT JUMPDEST DUP1 PUSH20 0xFFFFFFFFFFFFFFFFFFFFFFFFFFFFFFFFFFFFFFFF AND PUSH2 0x8FC PUSH1 0x9 PUSH1 0x0 CALLER PUSH20 0xFFFFFFFFFFFFFFFFFFFFFFFFFFFFFFFFFFFFFFFF AND PUSH20 0xFFFFFFFFFFFFFFFFFFFFFFFFFFFFFFFFFFFFFFFF AND DUP2 MSTORE PUSH1 0x20 ADD SWAP1 DUP2 MSTORE PUSH1 0x20 ADD PUSH1 0x0 KECCAK256 PUSH1 0x0 ADD SLOAD SWAP1 DUP2 ISZERO MUL SWAP1 PUSH1 0x40 MLOAD PUSH1 0x0 PUSH1 0x40 MLOAD DUP1 DUP4 SUB DUP2 DUP6 DUP9 DUP9 CALL SWAP4 POP POP POP POP ISZERO DUP1 ISZERO PUSH2 0x1051 JUMPI RETURNDATASIZE PUSH1 0x0 DUP1 RETURNDATACOPY RETURNDATASIZE PUSH1 0x0 REVERT JUMPDEST POP PUSH1 0x0 PUSH1 0x9 PUSH1 0x0 CALLER PUSH20 0xFFFFFFFFFFFFFFFFFFFFFFFFFFFFFFFFFFFFFFFF AND PUSH20 0xFFFFFFFFFFFFFFFFFFFFFFFFFFFFFFFFFFFFFFFF AND DUP2 MSTORE PUSH1 0x20 ADD SWAP1 DUP2 MSTORE PUSH1 0x20 ADD PUSH1 0x0 KECCAK256 PUSH1 0x0 ADD DUP2 SWAP1 SSTORE POP PUSH1 0x1 SWAP2 POP POP SWAP1 JUMP JUMPDEST PUSH1 0x0 PUSH1 0x1 PUSH1 0x0 DUP5 PUSH20 0xFFFFFFFFFFFFFFFFFFFFFFFFFFFFFFFFFFFFFFFF AND PUSH20 0xFFFFFFFFFFFFFFFFFFFFFFFFFFFFFFFFFFFFFFFF AND DUP2 MSTORE PUSH1 0x20 ADD SWAP1 DUP2 MSTORE PUSH1 0x20 ADD PUSH1 0x0 KECCAK256 PUSH1 0x0 DUP4 PUSH20 0xFFFFFFFFFFFFFFFFFFFFFFFFFFFFFFFFFFFFFFFF AND PUSH20 0xFFFFFFFFFFFFFFFFFFFFFFFFFFFFFFFFFFFFFFFF AND DUP2 MSTORE PUSH1 0x20 ADD SWAP1 DUP2 MSTORE PUSH1 0x20 ADD PUSH1 0x0 KECCAK256 SLOAD SWAP1 POP SWAP3 SWAP2 POP POP JUMP JUMPDEST PUSH1 0x0 CALLER SWAP1 POP SWAP1 JUMP JUMPDEST PUSH1 0x0 PUSH20 0xFFFFFFFFFFFFFFFFFFFFFFFFFFFFFFFFFFFFFFFF AND DUP4 PUSH20 0xFFFFFFFFFFFFFFFFFFFFFFFFFFFFFFFFFFFFFFFF AND SUB PUSH2 0x11A0 JUMPI PUSH1 0x40 MLOAD PUSH32 0x8C379A000000000000000000000000000000000000000000000000000000000 DUP2 MSTORE PUSH1 0x4 ADD PUSH2 0x1197 SWAP1 PUSH2 0x21BD JUMP JUMPDEST PUSH1 0x40 MLOAD DUP1 SWAP2 SUB SWAP1 REVERT JUMPDEST PUSH1 0x0 PUSH20 0xFFFFFFFFFFFFFFFFFFFFFFFFFFFFFFFFFFFFFFFF AND DUP3 PUSH20 0xFFFFFFFFFFFFFFFFFFFFFFFFFFFFFFFFFFFFFFFF AND SUB PUSH2 0x120F JUMPI PUSH1 0x40 MLOAD PUSH32 0x8C379A000000000000000000000000000000000000000000000000000000000 DUP2 MSTORE PUSH1 0x4 ADD PUSH2 0x1206 SWAP1 PUSH2 0x224F JUMP JUMPDEST PUSH1 0x40 MLOAD DUP1 SWAP2 SUB SWAP1 REVERT JUMPDEST DUP1 PUSH1 0x1 PUSH1 0x0 DUP6 PUSH20 0xFFFFFFFFFFFFFFFFFFFFFFFFFFFFFFFFFFFFFFFF AND PUSH20 0xFFFFFFFFFFFFFFFFFFFFFFFFFFFFFFFFFFFFFFFF AND DUP2 MSTORE PUSH1 0x20 ADD SWAP1 DUP2 MSTORE PUSH1 0x20 ADD PUSH1 0x0 KECCAK256 PUSH1 0x0 DUP5 PUSH20 0xFFFFFFFFFFFFFFFFFFFFFFFFFFFFFFFFFFFFFFFF AND PUSH20 0xFFFFFFFFFFFFFFFFFFFFFFFFFFFFFFFFFFFFFFFF AND DUP2 MSTORE PUSH1 0x20 ADD SWAP1 DUP2 MSTORE PUSH1 0x20 ADD PUSH1 0x0 KECCAK256 DUP2 SWAP1 SSTORE POP DUP2 PUSH20 0xFFFFFFFFFFFFFFFFFFFFFFFFFFFFFFFFFFFFFFFF AND DUP4 PUSH20 0xFFFFFFFFFFFFFFFFFFFFFFFFFFFFFFFFFFFFFFFF AND PUSH32 0x8C5BE1E5EBEC7D5BD14F71427D1E84F3DD0314C0F7B2291E5B200AC8C7C3B925 DUP4 PUSH1 0x40 MLOAD PUSH2 0x12ED SWAP2 SWAP1 PUSH2 0x190F JUMP JUMPDEST PUSH1 0x40 MLOAD DUP1 SWAP2 SUB SWAP1 LOG3 POP POP POP JUMP JUMPDEST PUSH1 0x0 PUSH20 0xFFFFFFFFFFFFFFFFFFFFFFFFFFFFFFFFFFFFFFFF AND DUP4 PUSH20 0xFFFFFFFFFFFFFFFFFFFFFFFFFFFFFFFFFFFFFFFF AND SUB PUSH2 0x1369 JUMPI PUSH1 0x40 MLOAD PUSH32 0x8C379A000000000000000000000000000000000000000000000000000000000 DUP2 MSTORE PUSH1 0x4 ADD PUSH2 0x1360 SWAP1 PUSH2 0x22E1 JUMP JUMPDEST PUSH1 0x40 MLOAD DUP1 SWAP2 SUB SWAP1 REVERT JUMPDEST PUSH1 0x0 PUSH20 0xFFFFFFFFFFFFFFFFFFFFFFFFFFFFFFFFFFFFFFFF AND DUP3 PUSH20 0xFFFFFFFFFFFFFFFFFFFFFFFFFFFFFFFFFFFFFFFF AND SUB PUSH2 0x13D8 JUMPI PUSH1 0x40 MLOAD PUSH32 0x8C379A000000000000000000000000000000000000000000000000000000000 DUP2 MSTORE PUSH1 0x4 ADD PUSH2 0x13CF SWAP1 PUSH2 0x2373 JUMP JUMPDEST PUSH1 0x40 MLOAD DUP1 SWAP2 SUB SWAP1 REVERT JUMPDEST PUSH2 0x13E3 DUP4 DUP4 DUP4 PUSH2 0x172C JUMP JUMPDEST PUSH1 0x0 DUP1 PUSH1 0x0 DUP6 PUSH20 0xFFFFFFFFFFFFFFFFFFFFFFFFFFFFFFFFFFFFFFFF AND PUSH20 0xFFFFFFFFFFFFFFFFFFFFFFFFFFFFFFFFFFFFFFFF AND DUP2 MSTORE PUSH1 0x20 ADD SWAP1 DUP2 MSTORE PUSH1 0x20 ADD PUSH1 0x0 KECCAK256 SLOAD SWAP1 POP DUP2 DUP2 LT ISZERO PUSH2 0x1469 JUMPI PUSH1 0x40 MLOAD PUSH32 0x8C379A000000000000000000000000000000000000000000000000000000000 DUP2 MSTORE PUSH1 0x4 ADD PUSH2 0x1460 SWAP1 PUSH2 0x2405 JUMP JUMPDEST PUSH1 0x40 MLOAD DUP1 SWAP2 SUB SWAP1 REVERT JUMPDEST DUP2 DUP2 SUB PUSH1 0x0 DUP1 DUP7 PUSH20 0xFFFFFFFFFFFFFFFFFFFFFFFFFFFFFFFFFFFFFFFF AND PUSH20 0xFFFFFFFFFFFFFFFFFFFFFFFFFFFFFFFFFFFFFFFF AND DUP2 MSTORE PUSH1 0x20 ADD SWAP1 DUP2 MSTORE PUSH1 0x20 ADD PUSH1 0x0 KECCAK256 DUP2 SWAP1 SSTORE POP DUP2 PUSH1 0x0 DUP1 DUP6 PUSH20 0xFFFFFFFFFFFFFFFFFFFFFFFFFFFFFFFFFFFFFFFF AND PUSH20 0xFFFFFFFFFFFFFFFFFFFFFFFFFFFFFFFFFFFFFFFF AND DUP2 MSTORE PUSH1 0x20 ADD SWAP1 DUP2 MSTORE PUSH1 0x20 ADD PUSH1 0x0 KECCAK256 PUSH1 0x0 DUP3 DUP3 SLOAD PUSH2 0x14FC SWAP2 SWAP1 PUSH2 0x1C4A JUMP JUMPDEST SWAP3 POP POP DUP2 SWAP1 SSTORE POP DUP3 PUSH20 0xFFFFFFFFFFFFFFFFFFFFFFFFFFFFFFFFFFFFFFFF AND DUP5 PUSH20 0xFFFFFFFFFFFFFFFFFFFFFFFFFFFFFFFFFFFFFFFF AND PUSH32 0xDDF252AD1BE2C89B69C2B068FC378DAA952BA7F163C4A11628F55A4DF523B3EF DUP5 PUSH1 0x40 MLOAD PUSH2 0x1560 SWAP2 SWAP1 PUSH2 0x190F JUMP JUMPDEST PUSH1 0x40 MLOAD DUP1 SWAP2 SUB SWAP1 LOG3 PUSH2 0x1573 DUP5 DUP5 DUP5 PUSH2 0x1731 JUMP JUMPDEST POP POP POP POP JUMP JUMPDEST PUSH1 0x0 DUP1 PUSH1 0x0 PUSH1 0xA PUSH1 0x0 PUSH1 0x6 SLOAD DUP2 MSTORE PUSH1 0x20 ADD SWAP1 DUP2 MSTORE PUSH1 0x20 ADD PUSH1 0x0 KECCAK256 PUSH1 0x0 ADD PUSH1 0x0 SWAP1 SLOAD SWAP1 PUSH2 0x100 EXP SWAP1 DIV PUSH20 0xFFFFFFFFFFFFFFFFFFFFFFFFFFFFFFFFFFFFFFFF AND SWAP1 POP PUSH1 0x1 ISZERO ISZERO PUSH1 0xA PUSH1 0x0 DUP8 DUP2 MSTORE PUSH1 0x20 ADD SWAP1 DUP2 MSTORE PUSH1 0x20 ADD PUSH1 0x0 KECCAK256 PUSH1 0x0 ADD PUSH1 0x14 SWAP1 SLOAD SWAP1 PUSH2 0x100 EXP SWAP1 DIV PUSH1 0xFF AND ISZERO ISZERO EQ DUP1 ISZERO PUSH2 0x1632 JUMPI POP PUSH1 0x0 PUSH1 0x9 PUSH1 0x0 DUP4 PUSH20 0xFFFFFFFFFFFFFFFFFFFFFFFFFFFFFFFFFFFFFFFF AND PUSH20 0xFFFFFFFFFFFFFFFFFFFFFFFFFFFFFFFFFFFFFFFF AND DUP2 MSTORE PUSH1 0x20 ADD SWAP1 DUP2 MSTORE PUSH1 0x20 ADD PUSH1 0x0 KECCAK256 PUSH1 0x0 ADD SLOAD GT JUMPDEST ISZERO PUSH2 0x16DC JUMPI DUP4 PUSH2 0x1679 PUSH1 0xA PUSH1 0x0 PUSH1 0x6 SLOAD DUP2 MSTORE PUSH1 0x20 ADD SWAP1 DUP2 MSTORE PUSH1 0x20 ADD PUSH1 0x0 KECCAK256 PUSH1 0x0 ADD PUSH1 0x0 SWAP1 SLOAD SWAP1 PUSH2 0x100 EXP SWAP1 DIV PUSH20 0xFFFFFFFFFFFFFFFFFFFFFFFFFFFFFFFFFFFFFFFF AND PUSH2 0x83B JUMP JUMPDEST PUSH2 0x1683 SWAP2 SWAP1 PUSH2 0x2425 JUMP JUMPDEST PUSH1 0x9 PUSH1 0x0 DUP4 PUSH20 0xFFFFFFFFFFFFFFFFFFFFFFFFFFFFFFFFFFFFFFFF AND PUSH20 0xFFFFFFFFFFFFFFFFFFFFFFFFFFFFFFFFFFFFFFFF AND DUP2 MSTORE PUSH1 0x20 ADD SWAP1 DUP2 MSTORE PUSH1 0x20 ADD PUSH1 0x0 KECCAK256 PUSH1 0x0 ADD PUSH1 0x0 DUP3 DUP3 SLOAD PUSH2 0x16D4 SWAP2 SWAP1 PUSH2 0x1C4A JUMP JUMPDEST SWAP3 POP POP DUP2 SWAP1 SSTORE POP JUMPDEST DUP5 PUSH1 0x9 PUSH1 0x0 DUP4 PUSH20 0xFFFFFFFFFFFFFFFFFFFFFFFFFFFFFFFFFFFFFFFF AND PUSH20 0xFFFFFFFFFFFFFFFFFFFFFFFFFFFFFFFFFFFFFFFF AND DUP2 MSTORE PUSH1 0x20 ADD SWAP1 DUP2 MSTORE PUSH1 0x20 ADD PUSH1 0x0 KECCAK256 PUSH1 0x0 ADD SLOAD SWAP3 POP SWAP3 POP POP SWAP3 POP SWAP3 SWAP1 POP JUMP JUMPDEST POP POP POP JUMP JUMPDEST POP POP POP JUMP JUMPDEST PUSH1 0x0 DUP2 MLOAD SWAP1 POP SWAP2 SWAP1 POP JUMP JUMPDEST PUSH1 0x0 DUP3 DUP3 MSTORE PUSH1 0x20 DUP3 ADD SWAP1 POP SWAP3 SWAP2 POP POP JUMP JUMPDEST PUSH1 0x0 JUMPDEST DUP4 DUP2 LT ISZERO PUSH2 0x1770 JUMPI DUP1 DUP3 ADD MLOAD DUP2 DUP5 ADD MSTORE PUSH1 0x20 DUP2 ADD SWAP1 POP PUSH2 0x1755 JUMP JUMPDEST DUP4 DUP2 GT ISZERO PUSH2 0x177F JUMPI PUSH1 0x0 DUP5 DUP5 ADD MSTORE JUMPDEST POP POP POP POP JUMP JUMPDEST PUSH1 0x0 PUSH1 0x1F NOT PUSH1 0x1F DUP4 ADD AND SWAP1 POP SWAP2 SWAP1 POP JUMP JUMPDEST PUSH1 0x0 PUSH2 0x17A1 DUP3 PUSH2 0x1736 JUMP JUMPDEST PUSH2 0x17AB DUP2 DUP6 PUSH2 0x1741 JUMP JUMPDEST SWAP4 POP PUSH2 0x17BB DUP2 DUP6 PUSH1 0x20 DUP7 ADD PUSH2 0x1752 JUMP JUMPDEST PUSH2 0x17C4 DUP2 PUSH2 0x1785 JUMP JUMPDEST DUP5 ADD SWAP2 POP POP SWAP3 SWAP2 POP POP JUMP JUMPDEST PUSH1 0x0 PUSH1 0x20 DUP3 ADD SWAP1 POP DUP2 DUP2 SUB PUSH1 0x0 DUP4 ADD MSTORE PUSH2 0x17E9 DUP2 DUP5 PUSH2 0x1796 JUMP JUMPDEST SWAP1 POP SWAP3 SWAP2 POP POP JUMP JUMPDEST PUSH1 0x0 DUP1 REVERT JUMPDEST PUSH1 0x0 PUSH20 0xFFFFFFFFFFFFFFFFFFFFFFFFFFFFFFFFFFFFFFFF DUP3 AND SWAP1 POP SWAP2 SWAP1 POP JUMP JUMPDEST PUSH1 0x0 PUSH2 0x1821 DUP3 PUSH2 0x17F6 JUMP JUMPDEST SWAP1 POP SWAP2 SWAP1 POP JUMP JUMPDEST PUSH2 0x1831 DUP2 PUSH2 0x1816 JUMP JUMPDEST DUP2 EQ PUSH2 0x183C JUMPI PUSH1 0x0 DUP1 REVERT JUMPDEST POP JUMP JUMPDEST PUSH1 0x0 DUP2 CALLDATALOAD SWAP1 POP PUSH2 0x184E DUP2 PUSH2 0x1828 JUMP JUMPDEST SWAP3 SWAP2 POP POP JUMP JUMPDEST PUSH1 0x0 DUP2 SWAP1 POP SWAP2 SWAP1 POP JUMP JUMPDEST PUSH2 0x1867 DUP2 PUSH2 0x1854 JUMP JUMPDEST DUP2 EQ PUSH2 0x1872 JUMPI PUSH1 0x0 DUP1 REVERT JUMPDEST POP JUMP JUMPDEST PUSH1 0x0 DUP2 CALLDATALOAD SWAP1 POP PUSH2 0x1884 DUP2 PUSH2 0x185E JUMP JUMPDEST SWAP3 SWAP2 POP POP JUMP JUMPDEST PUSH1 0x0 DUP1 PUSH1 0x40 DUP4 DUP6 SUB SLT ISZERO PUSH2 0x18A1 JUMPI PUSH2 0x18A0 PUSH2 0x17F1 JUMP JUMPDEST JUMPDEST PUSH1 0x0 PUSH2 0x18AF DUP6 DUP3 DUP7 ADD PUSH2 0x183F JUMP JUMPDEST SWAP3 POP POP PUSH1 0x20 PUSH2 0x18C0 DUP6 DUP3 DUP7 ADD PUSH2 0x1875 JUMP JUMPDEST SWAP2 POP POP SWAP3 POP SWAP3 SWAP1 POP JUMP JUMPDEST PUSH1 0x0 DUP2 ISZERO ISZERO SWAP1 POP SWAP2 SWAP1 POP JUMP JUMPDEST PUSH2 0x18DF DUP2 PUSH2 0x18CA JUMP JUMPDEST DUP3 MSTORE POP POP JUMP JUMPDEST PUSH1 0x0 PUSH1 0x20 DUP3 ADD SWAP1 POP PUSH2 0x18FA PUSH1 0x0 DUP4 ADD DUP5 PUSH2 0x18D6 JUMP JUMPDEST SWAP3 SWAP2 POP POP JUMP JUMPDEST PUSH2 0x1909 DUP2 PUSH2 0x1854 JUMP JUMPDEST DUP3 MSTORE POP POP JUMP JUMPDEST PUSH1 0x0 PUSH1 0x20 DUP3 ADD SWAP1 POP PUSH2 0x1924 PUSH1 0x0 DUP4 ADD DUP5 PUSH2 0x1900 JUMP JUMPDEST SWAP3 SWAP2 POP POP JUMP JUMPDEST PUSH1 0x0 PUSH1 0x20 DUP3 DUP5 SUB SLT ISZERO PUSH2 0x1940 JUMPI PUSH2 0x193F PUSH2 0x17F1 JUMP JUMPDEST JUMPDEST PUSH1 0x0 PUSH2 0x194E DUP5 DUP3 DUP6 ADD PUSH2 0x1875 JUMP JUMPDEST SWAP2 POP POP SWAP3 SWAP2 POP POP JUMP JUMPDEST PUSH2 0x1960 DUP2 PUSH2 0x1816 JUMP JUMPDEST DUP3 MSTORE POP POP JUMP JUMPDEST PUSH1 0x0 PUSH1 0x40 DUP3 ADD SWAP1 POP PUSH2 0x197B PUSH1 0x0 DUP4 ADD DUP6 PUSH2 0x1957 JUMP JUMPDEST PUSH2 0x1988 PUSH1 0x20 DUP4 ADD DUP5 PUSH2 0x18D6 JUMP JUMPDEST SWAP4 SWAP3 POP POP POP JUMP JUMPDEST PUSH1 0x0 DUP1 PUSH1 0x0 PUSH1 0x60 DUP5 DUP7 SUB SLT ISZERO PUSH2 0x19A8 JUMPI PUSH2 0x19A7 PUSH2 0x17F1 JUMP JUMPDEST JUMPDEST PUSH1 0x0 PUSH2 0x19B6 DUP7 DUP3 DUP8 ADD PUSH2 0x183F JUMP JUMPDEST SWAP4 POP POP PUSH1 0x20 PUSH2 0x19C7 DUP7 DUP3 DUP8 ADD PUSH2 0x183F JUMP JUMPDEST SWAP3 POP POP PUSH1 0x40 PUSH2 0x19D8 DUP7 DUP3 DUP8 ADD PUSH2 0x1875 JUMP JUMPDEST SWAP2 POP POP SWAP3 POP SWAP3 POP SWAP3 JUMP JUMPDEST PUSH1 0x0 PUSH1 0xFF DUP3 AND SWAP1 POP SWAP2 SWAP1 POP JUMP JUMPDEST PUSH2 0x19F8 DUP2 PUSH2 0x19E2 JUMP JUMPDEST DUP3 MSTORE POP POP JUMP JUMPDEST PUSH1 0x0 PUSH1 0x20 DUP3 ADD SWAP1 POP PUSH2 0x1A13 PUSH1 0x0 DUP4 ADD DUP5 PUSH2 0x19EF JUMP JUMPDEST SWAP3 SWAP2 POP POP JUMP JUMPDEST PUSH1 0x0 PUSH1 0x20 DUP3 DUP5 SUB SLT ISZERO PUSH2 0x1A2F JUMPI PUSH2 0x1A2E PUSH2 0x17F1 JUMP JUMPDEST JUMPDEST PUSH1 0x0 PUSH2 0x1A3D DUP5 DUP3 DUP6 ADD PUSH2 0x183F JUMP JUMPDEST SWAP2 POP POP SWAP3 SWAP2 POP POP JUMP JUMPDEST PUSH1 0x0 PUSH1 0x40 DUP3 ADD SWAP1 POP PUSH2 0x1A5B PUSH1 0x0 DUP4 ADD DUP6 PUSH2 0x1900 JUMP JUMPDEST PUSH2 0x1A68 PUSH1 0x20 DUP4 ADD DUP5 PUSH2 0x18D6 JUMP JUMPDEST SWAP4 SWAP3 POP POP POP JUMP JUMPDEST PUSH1 0x0 DUP2 SWAP1 POP SWAP2 SWAP1 POP JUMP JUMPDEST PUSH1 0x0 PUSH2 0x1A94 PUSH2 0x1A8F PUSH2 0x1A8A DUP5 PUSH2 0x17F6 JUMP JUMPDEST PUSH2 0x1A6F JUMP JUMPDEST PUSH2 0x17F6 JUMP JUMPDEST SWAP1 POP SWAP2 SWAP1 POP JUMP JUMPDEST PUSH1 0x0 PUSH2 0x1AA6 DUP3 PUSH2 0x1A79 JUMP JUMPDEST SWAP1 POP SWAP2 SWAP1 POP JUMP JUMPDEST PUSH1 0x0 PUSH2 0x1AB8 DUP3 PUSH2 0x1A9B JUMP JUMPDEST SWAP1 POP SWAP2 SWAP1 POP JUMP JUMPDEST PUSH2 0x1AC8 DUP2 PUSH2 0x1AAD JUMP JUMPDEST DUP3 MSTORE POP POP JUMP JUMPDEST PUSH1 0x0 PUSH1 0x20 DUP3 ADD SWAP1 POP PUSH2 0x1AE3 PUSH1 0x0 DUP4 ADD DUP5 PUSH2 0x1ABF JUMP JUMPDEST SWAP3 SWAP2 POP POP JUMP JUMPDEST PUSH1 0x0 DUP1 PUSH1 0x40 DUP4 DUP6 SUB SLT ISZERO PUSH2 0x1B00 JUMPI PUSH2 0x1AFF PUSH2 0x17F1 JUMP JUMPDEST JUMPDEST PUSH1 0x0 PUSH2 0x1B0E DUP6 DUP3 DUP7 ADD PUSH2 0x183F JUMP JUMPDEST SWAP3 POP POP PUSH1 0x20 PUSH2 0x1B1F DUP6 DUP3 DUP7 ADD PUSH2 0x183F JUMP JUMPDEST SWAP2 POP POP SWAP3 POP SWAP3 SWAP1 POP JUMP JUMPDEST PUSH32 0x4E487B7100000000000000000000000000000000000000000000000000000000 PUSH1 0x0 MSTORE PUSH1 0x22 PUSH1 0x4 MSTORE PUSH1 0x24 PUSH1 0x0 REVERT JUMPDEST PUSH1 0x0 PUSH1 0x2 DUP3 DIV SWAP1 POP PUSH1 0x1 DUP3 AND DUP1 PUSH2 0x1B70 JUMPI PUSH1 0x7F DUP3 AND SWAP2 POP JUMPDEST PUSH1 0x20 DUP3 LT DUP2 SUB PUSH2 0x1B83 JUMPI PUSH2 0x1B82 PUSH2 0x1B29 JUMP JUMPDEST JUMPDEST POP SWAP2 SWAP1 POP JUMP JUMPDEST PUSH32 0x45524332303A207472616E7366657220616D6F756E7420657863656564732061 PUSH1 0x0 DUP3 ADD MSTORE PUSH32 0x6C6C6F77616E6365000000000000000000000000000000000000000000000000 PUSH1 0x20 DUP3 ADD MSTORE POP JUMP JUMPDEST PUSH1 0x0 PUSH2 0x1BE5 PUSH1 0x28 DUP4 PUSH2 0x1741 JUMP JUMPDEST SWAP2 POP PUSH2 0x1BF0 DUP3 PUSH2 0x1B89 JUMP JUMPDEST PUSH1 0x40 DUP3 ADD SWAP1 POP SWAP2 SWAP1 POP JUMP JUMPDEST PUSH1 0x0 PUSH1 0x20 DUP3 ADD SWAP1 POP DUP2 DUP2 SUB PUSH1 0x0 DUP4 ADD MSTORE PUSH2 0x1C14 DUP2 PUSH2 0x1BD8 JUMP JUMPDEST SWAP1 POP SWAP2 SWAP1 POP JUMP JUMPDEST PUSH32 0x4E487B7100000000000000000000000000000000000000000000000000000000 PUSH1 0x0 MSTORE PUSH1 0x11 PUSH1 0x4 MSTORE PUSH1 0x24 PUSH1 0x0 REVERT JUMPDEST PUSH1 0x0 PUSH2 0x1C55 DUP3 PUSH2 0x1854 JUMP JUMPDEST SWAP2 POP PUSH2 0x1C60 DUP4 PUSH2 0x1854 JUMP JUMPDEST SWAP3 POP DUP3 PUSH32 0xFFFFFFFFFFFFFFFFFFFFFFFFFFFFFFFFFFFFFFFFFFFFFFFFFFFFFFFFFFFFFFFF SUB DUP3 GT ISZERO PUSH2 0x1C95 JUMPI PUSH2 0x1C94 PUSH2 0x1C1B JUMP JUMPDEST JUMPDEST DUP3 DUP3 ADD SWAP1 POP SWAP3 SWAP2 POP POP JUMP JUMPDEST PUSH32 0x75736572206E6F74207265676973746572640000000000000000000000000000 PUSH1 0x0 DUP3 ADD MSTORE POP JUMP JUMPDEST PUSH1 0x0 PUSH2 0x1CD6 PUSH1 0x12 DUP4 PUSH2 0x1741 JUMP JUMPDEST SWAP2 POP PUSH2 0x1CE1 DUP3 PUSH2 0x1CA0 JUMP JUMPDEST PUSH1 0x20 DUP3 ADD SWAP1 POP SWAP2 SWAP1 POP JUMP JUMPDEST PUSH1 0x0 PUSH1 0x20 DUP3 ADD SWAP1 POP DUP2 DUP2 SUB PUSH1 0x0 DUP4 ADD MSTORE PUSH2 0x1D05 DUP2 PUSH2 0x1CC9 JUMP JUMPDEST SWAP1 POP SWAP2 SWAP1 POP JUMP JUMPDEST PUSH32 0x7573657220616C72656164792065786973740000000000000000000000000000 PUSH1 0x0 DUP3 ADD MSTORE POP JUMP JUMPDEST PUSH1 0x0 PUSH2 0x1D42 PUSH1 0x12 DUP4 PUSH2 0x1741 JUMP JUMPDEST SWAP2 POP PUSH2 0x1D4D DUP3 PUSH2 0x1D0C JUMP JUMPDEST PUSH1 0x20 DUP3 ADD SWAP1 POP SWAP2 SWAP1 POP JUMP JUMPDEST PUSH1 0x0 PUSH1 0x20 DUP3 ADD SWAP1 POP DUP2 DUP2 SUB PUSH1 0x0 DUP4 ADD MSTORE PUSH2 0x1D71 DUP2 PUSH2 0x1D35 JUMP JUMPDEST SWAP1 POP SWAP2 SWAP1 POP JUMP JUMPDEST PUSH1 0x0 PUSH2 0x1D83 DUP3 PUSH2 0x1854 JUMP JUMPDEST SWAP2 POP PUSH32 0xFFFFFFFFFFFFFFFFFFFFFFFFFFFFFFFFFFFFFFFFFFFFFFFFFFFFFFFFFFFFFFFF DUP3 SUB PUSH2 0x1DB5 JUMPI PUSH2 0x1DB4 PUSH2 0x1C1B JUMP JUMPDEST JUMPDEST PUSH1 0x1 DUP3 ADD SWAP1 POP SWAP2 SWAP1 POP JUMP JUMPDEST PUSH1 0x0 DUP2 PUSH1 0x60 SHL SWAP1 POP SWAP2 SWAP1 POP JUMP JUMPDEST PUSH1 0x0 PUSH2 0x1DD8 DUP3 PUSH2 0x1DC0 JUMP JUMPDEST SWAP1 POP SWAP2 SWAP1 POP JUMP JUMPDEST PUSH1 0x0 PUSH2 0x1DEA DUP3 PUSH2 0x1DCD JUMP JUMPDEST SWAP1 POP SWAP2 SWAP1 POP JUMP JUMPDEST PUSH2 0x1E02 PUSH2 0x1DFD DUP3 PUSH2 0x1816 JUMP JUMPDEST PUSH2 0x1DDF JUMP JUMPDEST DUP3 MSTORE POP POP JUMP JUMPDEST PUSH1 0x0 PUSH2 0x1E14 DUP3 DUP5 PUSH2 0x1DF1 JUMP JUMPDEST PUSH1 0x14 DUP3 ADD SWAP2 POP DUP2 SWAP1 POP SWAP3 SWAP2 POP POP JUMP JUMPDEST PUSH1 0x0 DUP2 SLOAD SWAP1 POP SWAP2 SWAP1 POP JUMP JUMPDEST PUSH1 0x0 DUP2 SWAP1 POP SWAP3 SWAP2 POP POP JUMP JUMPDEST PUSH1 0x0 DUP2 SWAP1 POP DUP2 PUSH1 0x0 MSTORE PUSH1 0x20 PUSH1 0x0 KECCAK256 SWAP1 POP SWAP2 SWAP1 POP JUMP JUMPDEST PUSH2 0x1E57 DUP2 PUSH2 0x1AAD JUMP JUMPDEST DUP3 MSTORE POP POP JUMP JUMPDEST PUSH1 0x0 PUSH2 0x1E69 DUP4 DUP4 PUSH2 0x1E4E JUMP JUMPDEST PUSH1 0x20 DUP4 ADD SWAP1 POP SWAP3 SWAP2 POP POP JUMP JUMPDEST PUSH1 0x0 DUP2 PUSH1 0x0 SHR SWAP1 POP SWAP2 SWAP1 POP JUMP JUMPDEST PUSH1 0x0 PUSH20 0xFFFFFFFFFFFFFFFFFFFFFFFFFFFFFFFFFFFFFFFF DUP3 AND SWAP1 POP SWAP2 SWAP1 POP JUMP JUMPDEST PUSH1 0x0 PUSH2 0x1EB5 PUSH2 0x1EB0 DUP4 PUSH2 0x1E75 JUMP JUMPDEST PUSH2 0x1E82 JUMP JUMPDEST SWAP1 POP SWAP2 SWAP1 POP JUMP JUMPDEST PUSH1 0x0 PUSH2 0x1EC8 DUP3 SLOAD PUSH2 0x1EA2 JUMP JUMPDEST SWAP1 POP SWAP2 SWAP1 POP JUMP JUMPDEST PUSH1 0x0 PUSH1 0x1 DUP3 ADD SWAP1 POP SWAP2 SWAP1 POP JUMP JUMPDEST PUSH1 0x0 PUSH2 0x1EE7 DUP3 PUSH2 0x1E23 JUMP JUMPDEST PUSH2 0x1EF1 DUP2 DUP6 PUSH2 0x1E2E JUMP JUMPDEST SWAP4 POP PUSH2 0x1EFC DUP4 PUSH2 0x1E39 JUMP JUMPDEST DUP1 PUSH1 0x0 JUMPDEST DUP4 DUP2 LT ISZERO PUSH2 0x1F34 JUMPI PUSH2 0x1F11 DUP3 PUSH2 0x1EBC JUMP JUMPDEST PUSH2 0x1F1B DUP9 DUP3 PUSH2 0x1E5D JUMP JUMPDEST SWAP8 POP PUSH2 0x1F26 DUP4 PUSH2 0x1ECF JUMP JUMPDEST SWAP3 POP POP PUSH1 0x1 DUP2 ADD SWAP1 POP PUSH2 0x1F00 JUMP JUMPDEST POP DUP6 SWAP4 POP POP POP POP SWAP3 SWAP2 POP POP JUMP JUMPDEST PUSH1 0x0 PUSH2 0x1F4D DUP3 DUP5 PUSH2 0x1EDC JUMP JUMPDEST SWAP2 POP DUP2 SWAP1 POP SWAP3 SWAP2 POP POP JUMP JUMPDEST PUSH32 0x4F6E6C7920436F6E747261637420636F696E62616E6B2063616E206578656375 PUSH1 0x0 DUP3 ADD MSTORE PUSH32 0x746520746869732066756E6374696F6E00000000000000000000000000000000 PUSH1 0x20 DUP3 ADD MSTORE POP JUMP JUMPDEST PUSH1 0x0 PUSH2 0x1FB4 PUSH1 0x30 DUP4 PUSH2 0x1741 JUMP JUMPDEST SWAP2 POP PUSH2 0x1FBF DUP3 PUSH2 0x1F58 JUMP JUMPDEST PUSH1 0x40 DUP3 ADD SWAP1 POP SWAP2 SWAP1 POP JUMP JUMPDEST PUSH1 0x0 PUSH1 0x20 DUP3 ADD SWAP1 POP DUP2 DUP2 SUB PUSH1 0x0 DUP4 ADD MSTORE PUSH2 0x1FE3 DUP2 PUSH2 0x1FA7 JUMP JUMPDEST SWAP1 POP SWAP2 SWAP1 POP JUMP JUMPDEST PUSH1 0x0 PUSH2 0x1FF5 DUP3 PUSH2 0x1854 JUMP JUMPDEST SWAP2 POP PUSH2 0x2000 DUP4 PUSH2 0x1854 JUMP JUMPDEST SWAP3 POP DUP3 DUP3 LT ISZERO PUSH2 0x2013 JUMPI PUSH2 0x2012 PUSH2 0x1C1B JUMP JUMPDEST JUMPDEST DUP3 DUP3 SUB SWAP1 POP SWAP3 SWAP2 POP POP JUMP JUMPDEST PUSH32 0x4E487B7100000000000000000000000000000000000000000000000000000000 PUSH1 0x0 MSTORE PUSH1 0x32 PUSH1 0x4 MSTORE PUSH1 0x24 PUSH1 0x0 REVERT JUMPDEST PUSH32 0x45524332303A2064656372656173656420616C6C6F77616E63652062656C6F77 PUSH1 0x0 DUP3 ADD MSTORE PUSH32 0x207A65726F000000000000000000000000000000000000000000000000000000 PUSH1 0x20 DUP3 ADD MSTORE POP JUMP JUMPDEST PUSH1 0x0 PUSH2 0x20A9 PUSH1 0x25 DUP4 PUSH2 0x1741 JUMP JUMPDEST SWAP2 POP PUSH2 0x20B4 DUP3 PUSH2 0x204D JUMP JUMPDEST PUSH1 0x40 DUP3 ADD SWAP1 POP SWAP2 SWAP1 POP JUMP JUMPDEST PUSH1 0x0 PUSH1 0x20 DUP3 ADD SWAP1 POP DUP2 DUP2 SUB PUSH1 0x0 DUP4 ADD MSTORE PUSH2 0x20D8 DUP2 PUSH2 0x209C JUMP JUMPDEST SWAP1 POP SWAP2 SWAP1 POP JUMP JUMPDEST PUSH32 0x5573657220646F6573206E6F7420657869737400000000000000000000000000 PUSH1 0x0 DUP3 ADD MSTORE POP JUMP JUMPDEST PUSH1 0x0 PUSH2 0x2115 PUSH1 0x13 DUP4 PUSH2 0x1741 JUMP JUMPDEST SWAP2 POP PUSH2 0x2120 DUP3 PUSH2 0x20DF JUMP JUMPDEST PUSH1 0x20 DUP3 ADD SWAP1 POP SWAP2 SWAP1 POP JUMP JUMPDEST PUSH1 0x0 PUSH1 0x20 DUP3 ADD SWAP1 POP DUP2 DUP2 SUB PUSH1 0x0 DUP4 ADD MSTORE PUSH2 0x2144 DUP2 PUSH2 0x2108 JUMP JUMPDEST SWAP1 POP SWAP2 SWAP1 POP JUMP JUMPDEST PUSH32 0x45524332303A20617070726F76652066726F6D20746865207A65726F20616464 PUSH1 0x0 DUP3 ADD MSTORE PUSH32 0x7265737300000000000000000000000000000000000000000000000000000000 PUSH1 0x20 DUP3 ADD MSTORE POP JUMP JUMPDEST PUSH1 0x0 PUSH2 0x21A7 PUSH1 0x24 DUP4 PUSH2 0x1741 JUMP JUMPDEST SWAP2 POP PUSH2 0x21B2 DUP3 PUSH2 0x214B JUMP JUMPDEST PUSH1 0x40 DUP3 ADD SWAP1 POP SWAP2 SWAP1 POP JUMP JUMPDEST PUSH1 0x0 PUSH1 0x20 DUP3 ADD SWAP1 POP DUP2 DUP2 SUB PUSH1 0x0 DUP4 ADD MSTORE PUSH2 0x21D6 DUP2 PUSH2 0x219A JUMP JUMPDEST SWAP1 POP SWAP2 SWAP1 POP JUMP JUMPDEST PUSH32 0x45524332303A20617070726F766520746F20746865207A65726F206164647265 PUSH1 0x0 DUP3 ADD MSTORE PUSH32 0x7373000000000000000000000000000000000000000000000000000000000000 PUSH1 0x20 DUP3 ADD MSTORE POP JUMP JUMPDEST PUSH1 0x0 PUSH2 0x2239 PUSH1 0x22 DUP4 PUSH2 0x1741 JUMP JUMPDEST SWAP2 POP PUSH2 0x2244 DUP3 PUSH2 0x21DD JUMP JUMPDEST PUSH1 0x40 DUP3 ADD SWAP1 POP SWAP2 SWAP1 POP JUMP JUMPDEST PUSH1 0x0 PUSH1 0x20 DUP3 ADD SWAP1 POP DUP2 DUP2 SUB PUSH1 0x0 DUP4 ADD MSTORE PUSH2 0x2268 DUP2 PUSH2 0x222C JUMP JUMPDEST SWAP1 POP SWAP2 SWAP1 POP JUMP JUMPDEST PUSH32 0x45524332303A207472616E736665722066726F6D20746865207A65726F206164 PUSH1 0x0 DUP3 ADD MSTORE PUSH32 0x6472657373000000000000000000000000000000000000000000000000000000 PUSH1 0x20 DUP3 ADD MSTORE POP JUMP JUMPDEST PUSH1 0x0 PUSH2 0x22CB PUSH1 0x25 DUP4 PUSH2 0x1741 JUMP JUMPDEST SWAP2 POP PUSH2 0x22D6 DUP3 PUSH2 0x226F JUMP JUMPDEST PUSH1 0x40 DUP3 ADD SWAP1 POP SWAP2 SWAP1 POP JUMP JUMPDEST PUSH1 0x0 PUSH1 0x20 DUP3 ADD SWAP1 POP DUP2 DUP2 SUB PUSH1 0x0 DUP4 ADD MSTORE PUSH2 0x22FA DUP2 PUSH2 0x22BE JUMP JUMPDEST SWAP1 POP SWAP2 SWAP1 POP JUMP JUMPDEST PUSH32 0x45524332303A207472616E7366657220746F20746865207A65726F2061646472 PUSH1 0x0 DUP3 ADD MSTORE PUSH32 0x6573730000000000000000000000000000000000000000000000000000000000 PUSH1 0x20 DUP3 ADD MSTORE POP JUMP JUMPDEST PUSH1 0x0 PUSH2 0x235D PUSH1 0x23 DUP4 PUSH2 0x1741 JUMP JUMPDEST SWAP2 POP PUSH2 0x2368 DUP3 PUSH2 0x2301 JUMP JUMPDEST PUSH1 0x40 DUP3 ADD SWAP1 POP SWAP2 SWAP1 POP JUMP JUMPDEST PUSH1 0x0 PUSH1 0x20 DUP3 ADD SWAP1 POP DUP2 DUP2 SUB PUSH1 0x0 DUP4 ADD MSTORE PUSH2 0x238C DUP2 PUSH2 0x2350 JUMP JUMPDEST SWAP1 POP SWAP2 SWAP1 POP JUMP JUMPDEST PUSH32 0x45524332303A207472616E7366657220616D6F756E7420657863656564732062 PUSH1 0x0 DUP3 ADD MSTORE PUSH32 0x616C616E63650000000000000000000000000000000000000000000000000000 PUSH1 0x20 DUP3 ADD MSTORE POP JUMP JUMPDEST PUSH1 0x0 PUSH2 0x23EF PUSH1 0x26 DUP4 PUSH2 0x1741 JUMP JUMPDEST SWAP2 POP PUSH2 0x23FA DUP3 PUSH2 0x2393 JUMP JUMPDEST PUSH1 0x40 DUP3 ADD SWAP1 POP SWAP2 SWAP1 POP JUMP JUMPDEST PUSH1 0x0 PUSH1 0x20 DUP3 ADD SWAP1 POP DUP2 DUP2 SUB PUSH1 0x0 DUP4 ADD MSTORE PUSH2 0x241E DUP2 PUSH2 0x23E2 JUMP JUMPDEST SWAP1 POP SWAP2 SWAP1 POP JUMP JUMPDEST PUSH1 0x0 PUSH2 0x2430 DUP3 PUSH2 0x1854 JUMP JUMPDEST SWAP2 POP PUSH2 0x243B DUP4 PUSH2 0x1854 JUMP JUMPDEST SWAP3 POP DUP2 PUSH32 0xFFFFFFFFFFFFFFFFFFFFFFFFFFFFFFFFFFFFFFFFFFFFFFFFFFFFFFFFFFFFFFFF DIV DUP4 GT DUP3 ISZERO ISZERO AND ISZERO PUSH2 0x2474 JUMPI PUSH2 0x2473 PUSH2 0x1C1B JUMP JUMPDEST JUMPDEST DUP3 DUP3 MUL SWAP1 POP SWAP3 SWAP2 POP POP JUMP INVALID LOG2 PUSH5 0x6970667358 0x22 SLT KECCAK256 EXTCODEHASH 0xD5 PUSH31 0x9C0F6C828693048A9057097AEDB7F319875DE2856515777B0101E8DD406473 PUSH16 0x6C634300080D00336080604052348015 PUSH2 0x10 JUMPI PUSH1 0x0 DUP1 REVERT JUMPDEST POP PUSH1 0x40 MLOAD PUSH2 0x5D0 CODESIZE SUB DUP1 PUSH2 0x5D0 DUP4 CODECOPY DUP2 DUP2 ADD PUSH1 0x40 MSTORE DUP2 ADD SWAP1 PUSH2 0x32 SWAP2 SWAP1 PUSH2 0x15A JUMP JUMPDEST PUSH1 0x40 MLOAD DUP1 PUSH1 0x40 ADD PUSH1 0x40 MSTORE DUP1 PUSH1 0x0 DUP2 MSTORE PUSH1 0x20 ADD TIMESTAMP DUP2 MSTORE POP PUSH1 0x5 PUSH1 0x0 DUP1 DUP2 MSTORE PUSH1 0x20 ADD SWAP1 DUP2 MSTORE PUSH1 0x20 ADD PUSH1 0x0 KECCAK256 PUSH1 0x0 DUP3 ADD MLOAD DUP2 PUSH1 0x0 ADD SSTORE PUSH1 0x20 DUP3 ADD MLOAD DUP2 PUSH1 0x1 ADD SSTORE SWAP1 POP POP DUP2 PUSH1 0x3 PUSH1 0x0 PUSH2 0x100 EXP DUP2 SLOAD DUP2 PUSH20 0xFFFFFFFFFFFFFFFFFFFFFFFFFFFFFFFFFFFFFFFF MUL NOT AND SWAP1 DUP4 PUSH20 0xFFFFFFFFFFFFFFFFFFFFFFFFFFFFFFFFFFFFFFFF AND MUL OR SWAP1 SSTORE POP DUP1 PUSH1 0x1 DUP2 SWAP1 SSTORE POP POP POP PUSH2 0x19A JUMP JUMPDEST PUSH1 0x0 DUP1 REVERT JUMPDEST PUSH1 0x0 PUSH20 0xFFFFFFFFFFFFFFFFFFFFFFFFFFFFFFFFFFFFFFFF DUP3 AND SWAP1 POP SWAP2 SWAP1 POP JUMP JUMPDEST PUSH1 0x0 PUSH2 0xF1 DUP3 PUSH2 0xC6 JUMP JUMPDEST SWAP1 POP SWAP2 SWAP1 POP JUMP JUMPDEST PUSH2 0x101 DUP2 PUSH2 0xE6 JUMP JUMPDEST DUP2 EQ PUSH2 0x10C JUMPI PUSH1 0x0 DUP1 REVERT JUMPDEST POP JUMP JUMPDEST PUSH1 0x0 DUP2 MLOAD SWAP1 POP PUSH2 0x11E DUP2 PUSH2 0xF8 JUMP JUMPDEST SWAP3 SWAP2 POP POP JUMP JUMPDEST PUSH1 0x0 DUP2 SWAP1 POP SWAP2 SWAP1 POP JUMP JUMPDEST PUSH2 0x137 DUP2 PUSH2 0x124 JUMP JUMPDEST DUP2 EQ PUSH2 0x142 JUMPI PUSH1 0x0 DUP1 REVERT JUMPDEST POP JUMP JUMPDEST PUSH1 0x0 DUP2 MLOAD SWAP1 POP PUSH2 0x154 DUP2 PUSH2 0x12E JUMP JUMPDEST SWAP3 SWAP2 POP POP JUMP JUMPDEST PUSH1 0x0 DUP1 PUSH1 0x40 DUP4 DUP6 SUB SLT ISZERO PUSH2 0x171 JUMPI PUSH2 0x170 PUSH2 0xC1 JUMP JUMPDEST JUMPDEST PUSH1 0x0 PUSH2 0x17F DUP6 DUP3 DUP7 ADD PUSH2 0x10F JUMP JUMPDEST SWAP3 POP POP PUSH1 0x20 PUSH2 0x190 DUP6 DUP3 DUP7 ADD PUSH2 0x145 JUMP JUMPDEST SWAP2 POP POP SWAP3 POP SWAP3 SWAP1 POP JUMP JUMPDEST PUSH2 0x427 DUP1 PUSH2 0x1A9 PUSH1 0x0 CODECOPY PUSH1 0x0 RETURN INVALID PUSH1 0x80 PUSH1 0x40 MSTORE PUSH1 0x4 CALLDATASIZE LT PUSH2 0x2D JUMPI PUSH1 0x0 CALLDATALOAD PUSH1 0xE0 SHR DUP1 PUSH4 0x82ADD361 EQ PUSH2 0x87 JUMPI DUP1 PUSH4 0xB0128F6D EQ PUSH2 0x91 JUMPI PUSH2 0x85 JUMP JUMPDEST CALLDATASIZE PUSH2 0x85 JUMPI PUSH1 0x0 CALLVALUE GT ISZERO PUSH2 0x83 JUMPI ADDRESS PUSH20 0xFFFFFFFFFFFFFFFFFFFFFFFFFFFFFFFFFFFFFFFF AND PUSH2 0x8FC CALLVALUE SWAP1 DUP2 ISZERO MUL SWAP1 PUSH1 0x40 MLOAD PUSH1 0x0 PUSH1 0x40 MLOAD DUP1 DUP4 SUB DUP2 DUP6 DUP9 DUP9 CALL SWAP4 POP POP POP POP ISZERO DUP1 ISZERO PUSH2 0x81 JUMPI RETURNDATASIZE PUSH1 0x0 DUP1 RETURNDATACOPY RETURNDATASIZE PUSH1 0x0 REVERT JUMPDEST POP JUMPDEST STOP JUMPDEST STOP JUMPDEST PUSH2 0x8F PUSH2 0xCF JUMP JUMPDEST STOP JUMPDEST CALLVALUE DUP1 ISZERO PUSH2 0x9D JUMPI PUSH1 0x0 DUP1 REVERT JUMPDEST POP PUSH2 0xB8 PUSH1 0x4 DUP1 CALLDATASIZE SUB DUP2 ADD SWAP1 PUSH2 0xB3 SWAP2 SWAP1 PUSH2 0x248 JUMP JUMPDEST PUSH2 0x119 JUMP JUMPDEST PUSH1 0x40 MLOAD PUSH2 0xC6 SWAP3 SWAP2 SWAP1 PUSH2 0x284 JUMP JUMPDEST PUSH1 0x40 MLOAD DUP1 SWAP2 SUB SWAP1 RETURN JUMPDEST PUSH1 0x0 PUSH1 0x5 PUSH1 0x0 DUP1 DUP2 MSTORE PUSH1 0x20 ADD SWAP1 DUP2 MSTORE PUSH1 0x20 ADD PUSH1 0x0 KECCAK256 PUSH1 0x1 ADD SLOAD DUP2 PUSH2 0xF3 SWAP2 SWAP1 PUSH2 0x2DC JUMP JUMPDEST TIMESTAMP GT PUSH2 0x116 JUMPI PUSH1 0x0 PUSH1 0x1 SLOAD SELFBALANCE PUSH2 0x109 SWAP2 SWAP1 PUSH2 0x361 JUMP JUMPDEST SWAP1 POP PUSH2 0x114 DUP2 PUSH2 0x13D JUMP JUMPDEST POP JUMPDEST POP JUMP JUMPDEST PUSH1 0x5 PUSH1 0x20 MSTORE DUP1 PUSH1 0x0 MSTORE PUSH1 0x40 PUSH1 0x0 KECCAK256 PUSH1 0x0 SWAP2 POP SWAP1 POP DUP1 PUSH1 0x0 ADD SLOAD SWAP1 DUP1 PUSH1 0x1 ADD SLOAD SWAP1 POP DUP3 JUMP JUMPDEST PUSH1 0x0 PUSH1 0x3 PUSH1 0x0 SWAP1 SLOAD SWAP1 PUSH2 0x100 EXP SWAP1 DIV PUSH20 0xFFFFFFFFFFFFFFFFFFFFFFFFFFFFFFFFFFFFFFFF AND SWAP1 POP DUP1 PUSH20 0xFFFFFFFFFFFFFFFFFFFFFFFFFFFFFFFFFFFFFFFF AND PUSH4 0x9A29E6AA DUP4 PUSH1 0x40 MLOAD DUP3 PUSH4 0xFFFFFFFF AND PUSH1 0xE0 SHL DUP2 MSTORE PUSH1 0x4 ADD PUSH2 0x19D SWAP2 SWAP1 PUSH2 0x392 JUMP JUMPDEST PUSH1 0x0 PUSH1 0x40 MLOAD DUP1 DUP4 SUB DUP2 PUSH1 0x0 DUP8 DUP1 EXTCODESIZE ISZERO DUP1 ISZERO PUSH2 0x1B7 JUMPI PUSH1 0x0 DUP1 REVERT JUMPDEST POP GAS CALL ISZERO DUP1 ISZERO PUSH2 0x1CB JUMPI RETURNDATASIZE PUSH1 0x0 DUP1 RETURNDATACOPY RETURNDATASIZE PUSH1 0x0 REVERT JUMPDEST POP POP POP POP PUSH32 0xA45DAC62289018E90B3DC24632D939C6F3545FBC1C00325EE50858F926AFC630 TIMESTAMP PUSH1 0x1 PUSH1 0x40 MLOAD PUSH2 0x201 SWAP3 SWAP2 SWAP1 PUSH2 0x3C8 JUMP JUMPDEST PUSH1 0x40 MLOAD DUP1 SWAP2 SUB SWAP1 LOG1 POP POP JUMP JUMPDEST PUSH1 0x0 DUP1 REVERT JUMPDEST PUSH1 0x0 DUP2 SWAP1 POP SWAP2 SWAP1 POP JUMP JUMPDEST PUSH2 0x225 DUP2 PUSH2 0x212 JUMP JUMPDEST DUP2 EQ PUSH2 0x230 JUMPI PUSH1 0x0 DUP1 REVERT JUMPDEST POP JUMP JUMPDEST PUSH1 0x0 DUP2 CALLDATALOAD SWAP1 POP PUSH2 0x242 DUP2 PUSH2 0x21C JUMP JUMPDEST SWAP3 SWAP2 POP POP JUMP JUMPDEST PUSH1 0x0 PUSH1 0x20 DUP3 DUP5 SUB SLT ISZERO PUSH2 0x25E JUMPI PUSH2 0x25D PUSH2 0x20D JUMP JUMPDEST JUMPDEST PUSH1 0x0 PUSH2 0x26C DUP5 DUP3 DUP6 ADD PUSH2 0x233 JUMP JUMPDEST SWAP2 POP POP SWAP3 SWAP2 POP POP JUMP JUMPDEST PUSH2 0x27E DUP2 PUSH2 0x212 JUMP JUMPDEST DUP3 MSTORE POP POP JUMP JUMPDEST PUSH1 0x0 PUSH1 0x40 DUP3 ADD SWAP1 POP PUSH2 0x299 PUSH1 0x0 DUP4 ADD DUP6 PUSH2 0x275 JUMP JUMPDEST PUSH2 0x2A6 PUSH1 0x20 DUP4 ADD DUP5 PUSH2 0x275 JUMP JUMPDEST SWAP4 SWAP3 POP POP POP JUMP JUMPDEST PUSH32 0x4E487B7100000000000000000000000000000000000000000000000000000000 PUSH1 0x0 MSTORE PUSH1 0x11 PUSH1 0x4 MSTORE PUSH1 0x24 PUSH1 0x0 REVERT JUMPDEST PUSH1 0x0 PUSH2 0x2E7 DUP3 PUSH2 0x212 JUMP JUMPDEST SWAP2 POP PUSH2 0x2F2 DUP4 PUSH2 0x212 JUMP JUMPDEST SWAP3 POP DUP3 PUSH32 0xFFFFFFFFFFFFFFFFFFFFFFFFFFFFFFFFFFFFFFFFFFFFFFFFFFFFFFFFFFFFFFFF SUB DUP3 GT ISZERO PUSH2 0x327 JUMPI PUSH2 0x326 PUSH2 0x2AD JUMP JUMPDEST JUMPDEST DUP3 DUP3 ADD SWAP1 POP SWAP3 SWAP2 POP POP JUMP JUMPDEST PUSH32 0x4E487B7100000000000000000000000000000000000000000000000000000000 PUSH1 0x0 MSTORE PUSH1 0x12 PUSH1 0x4 MSTORE PUSH1 0x24 PUSH1 0x0 REVERT JUMPDEST PUSH1 0x0 PUSH2 0x36C DUP3 PUSH2 0x212 JUMP JUMPDEST SWAP2 POP PUSH2 0x377 DUP4 PUSH2 0x212 JUMP JUMPDEST SWAP3 POP DUP3 PUSH2 0x387 JUMPI PUSH2 0x386 PUSH2 0x332 JUMP JUMPDEST JUMPDEST DUP3 DUP3 DIV SWAP1 POP SWAP3 SWAP2 POP POP JUMP JUMPDEST PUSH1 0x0 PUSH1 0x20 DUP3 ADD SWAP1 POP PUSH2 0x3A7 PUSH1 0x0 DUP4 ADD DUP5 PUSH2 0x275 JUMP JUMPDEST SWAP3 SWAP2 POP POP JUMP JUMPDEST PUSH1 0x0 DUP2 ISZERO ISZERO SWAP1 POP SWAP2 SWAP1 POP JUMP JUMPDEST PUSH2 0x3C2 DUP2 PUSH2 0x3AD JUMP JUMPDEST DUP3 MSTORE POP POP JUMP JUMPDEST PUSH1 0x0 PUSH1 0x40 DUP3 ADD SWAP1 POP PUSH2 0x3DD PUSH1 0x0 DUP4 ADD DUP6 PUSH2 0x275 JUMP JUMPDEST PUSH2 0x3EA PUSH1 0x20 DUP4 ADD DUP5 PUSH2 0x3B9 JUMP JUMPDEST SWAP4 SWAP3 POP POP POP JUMP INVALID LOG2 PUSH5 0x6970667358 0x22 SLT KECCAK256 0xB4 0xCD 0xDA PUSH16 0xA7753BC7D1A6F2B6E2DD006B805B13EA LT 0xCA CALLDATASIZE 0x4B 0x22 NUMBER DUP9 0xE1 SWAP4 ISZERO LOG1 0xBF PUSH5 0x736F6C6343 STOP ADDMOD 0xD STOP CALLER "
				},
				"gasEstimates": {
					"creation": {
						"codeDepositCost": "1879400",
						"executionCost": "infinite",
						"totalCost": "infinite"
					},
					"external": {
						"": "infinite",
						"Accept_From_CoinBank(uint256)": "infinite",
						"Balance()": "407",
						"CoinBank_Contract(uint256)": "infinite",
						"Redeem()": "infinite",
						"Register_Account()": "107366",
						"View_Account()": "4843",
						"accounts(address)": "5193",
						"allowance(address,address)": "infinite",
						"approve(address,uint256)": "infinite",
						"balanceOf(address)": "2864",
						"decimals()": "410",
						"decreaseAllowance(address,uint256)": "infinite",
						"increaseAllowance(address,uint256)": "infinite",
						"ledger(uint256)": "5258",
						"name()": "infinite",
						"symbol()": "infinite",
						"totalSupply()": "2460",
						"transfer(address,uint256)": "infinite",
						"transferFrom(address,address,uint256)": "infinite"
					},
					"internal": {
						"InternalAccounting(uint256,uint256)": "infinite"
					}
				},
				"methodIdentifiers": {
					"Accept_From_CoinBank(uint256)": "9a29e6aa",
					"Balance()": "0ef67887",
					"CoinBank_Contract(uint256)": "add1603e",
					"Redeem()": "d95402e7",
					"Register_Account()": "948dec44",
					"View_Account()": "8ac8bbca",
					"accounts(address)": "5e5c06e2",
					"allowance(address,address)": "dd62ed3e",
					"approve(address,uint256)": "095ea7b3",
					"balanceOf(address)": "70a08231",
					"decimals()": "313ce567",
					"decreaseAllowance(address,uint256)": "a457c2d7",
					"increaseAllowance(address,uint256)": "39509351",
					"ledger(uint256)": "10a7fd7b",
					"name()": "06fdde03",
					"symbol()": "95d89b41",
					"totalSupply()": "18160ddd",
					"transfer(address,uint256)": "a9059cbb",
					"transferFrom(address,address,uint256)": "23b872dd"
				}
			},
			"userdoc": {
				"kind": "user",
				"methods": {},
				"version": 1
			}
		}
	}
}