{
	"Documents/GitHub/XRC-20Plus/contracts/XRC20Plus.sol": {
		"Plus": {
			"abi": [
				{
					"inputs": [
						{
							"internalType": "string",
							"name": "name",
							"type": "string"
						},
						{
							"internalType": "string",
							"name": "symbol",
							"type": "string"
						},
						{
							"internalType": "uint256",
							"name": "totalSupply",
							"type": "uint256"
						},
						{
							"internalType": "uint8",
							"name": "decimals",
							"type": "uint8"
						}
					],
					"stateMutability": "nonpayable",
					"type": "constructor"
				},
				{
					"anonymous": false,
					"inputs": [
						{
							"indexed": true,
							"internalType": "address",
							"name": "owner",
							"type": "address"
						},
						{
							"indexed": true,
							"internalType": "address",
							"name": "spender",
							"type": "address"
						},
						{
							"indexed": false,
							"internalType": "uint256",
							"name": "value",
							"type": "uint256"
						}
					],
					"name": "Approval",
					"type": "event"
				},
				{
					"anonymous": false,
					"inputs": [
						{
							"indexed": true,
							"internalType": "address",
							"name": "from",
							"type": "address"
						},
						{
							"indexed": true,
							"internalType": "address",
							"name": "to",
							"type": "address"
						},
						{
							"indexed": false,
							"internalType": "uint256",
							"name": "value",
							"type": "uint256"
						}
					],
					"name": "Transfer",
					"type": "event"
				},
				{
					"anonymous": false,
					"inputs": [
						{
							"indexed": false,
							"internalType": "uint256",
							"name": "",
							"type": "uint256"
						},
						{
							"indexed": false,
							"internalType": "bool",
							"name": "",
							"type": "bool"
						}
					],
					"name": "TreasuryClock",
					"type": "event"
				},
				{
					"stateMutability": "payable",
					"type": "fallback"
				},
				{
					"inputs": [
						{
							"internalType": "uint256",
							"name": "_singleShard",
							"type": "uint256"
						}
					],
					"name": "Accept_From_CoinBank",
					"outputs": [],
					"stateMutability": "payable",
					"type": "function"
				},
				{
					"inputs": [],
					"name": "Balance",
					"outputs": [
						{
							"internalType": "uint256",
							"name": "",
							"type": "uint256"
						}
					],
					"stateMutability": "view",
					"type": "function"
				},
				{
					"inputs": [
						{
							"internalType": "uint256",
							"name": "",
							"type": "uint256"
						}
					],
					"name": "CoinBank_Contract",
					"outputs": [
						{
							"internalType": "contract CoinBank",
							"name": "",
							"type": "address"
						}
					],
					"stateMutability": "view",
					"type": "function"
				},
				{
					"inputs": [],
					"name": "Redeem",
					"outputs": [
						{
							"internalType": "bool",
							"name": "",
							"type": "bool"
						}
					],
					"stateMutability": "nonpayable",
					"type": "function"
				},
				{
					"inputs": [],
					"name": "Register_Account",
					"outputs": [
						{
							"internalType": "bool",
							"name": "",
							"type": "bool"
						}
					],
					"stateMutability": "nonpayable",
					"type": "function"
				},
				{
					"inputs": [],
					"name": "View_Account",
					"outputs": [
						{
							"internalType": "uint256",
							"name": "",
							"type": "uint256"
						}
					],
					"stateMutability": "view",
					"type": "function"
				},
				{
					"inputs": [
						{
							"internalType": "address",
							"name": "",
							"type": "address"
						}
					],
					"name": "accounts",
					"outputs": [
						{
							"internalType": "uint256",
							"name": "ammount",
							"type": "uint256"
						},
						{
							"internalType": "bool",
							"name": "exist",
							"type": "bool"
						}
					],
					"stateMutability": "view",
					"type": "function"
				},
				{
					"inputs": [
						{
							"internalType": "address",
							"name": "owner",
							"type": "address"
						},
						{
							"internalType": "address",
							"name": "spender",
							"type": "address"
						}
					],
					"name": "allowance",
					"outputs": [
						{
							"internalType": "uint256",
							"name": "",
							"type": "uint256"
						}
					],
					"stateMutability": "view",
					"type": "function"
				},
				{
					"inputs": [
						{
							"internalType": "address",
							"name": "spender",
							"type": "address"
						},
						{
							"internalType": "uint256",
							"name": "amount",
							"type": "uint256"
						}
					],
					"name": "approve",
					"outputs": [
						{
							"internalType": "bool",
							"name": "",
							"type": "bool"
						}
					],
					"stateMutability": "nonpayable",
					"type": "function"
				},
				{
					"inputs": [
						{
							"internalType": "address",
							"name": "account",
							"type": "address"
						}
					],
					"name": "balanceOf",
					"outputs": [
						{
							"internalType": "uint256",
							"name": "",
							"type": "uint256"
						}
					],
					"stateMutability": "view",
					"type": "function"
				},
				{
					"inputs": [],
					"name": "decimals",
					"outputs": [
						{
							"internalType": "uint8",
							"name": "",
							"type": "uint8"
						}
					],
					"stateMutability": "view",
					"type": "function"
				},
				{
					"inputs": [
						{
							"internalType": "address",
							"name": "spender",
							"type": "address"
						},
						{
							"internalType": "uint256",
							"name": "subtractedValue",
							"type": "uint256"
						}
					],
					"name": "decreaseAllowance",
					"outputs": [
						{
							"internalType": "bool",
							"name": "",
							"type": "bool"
						}
					],
					"stateMutability": "nonpayable",
					"type": "function"
				},
				{
					"inputs": [
						{
							"internalType": "address",
							"name": "spender",
							"type": "address"
						},
						{
							"internalType": "uint256",
							"name": "addedValue",
							"type": "uint256"
						}
					],
					"name": "increaseAllowance",
					"outputs": [
						{
							"internalType": "bool",
							"name": "",
							"type": "bool"
						}
					],
					"stateMutability": "nonpayable",
					"type": "function"
				},
				{
					"inputs": [
						{
							"internalType": "uint256",
							"name": "",
							"type": "uint256"
						}
					],
					"name": "ledger",
					"outputs": [
						{
							"internalType": "address",
							"name": "account",
							"type": "address"
						},
						{
							"internalType": "bool",
							"name": "exist",
							"type": "bool"
						}
					],
					"stateMutability": "view",
					"type": "function"
				},
				{
					"inputs": [],
					"name": "name",
					"outputs": [
						{
							"internalType": "string",
							"name": "",
							"type": "string"
						}
					],
					"stateMutability": "view",
					"type": "function"
				},
				{
					"inputs": [],
					"name": "symbol",
					"outputs": [
						{
							"internalType": "string",
							"name": "",
							"type": "string"
						}
					],
					"stateMutability": "view",
					"type": "function"
				},
				{
					"inputs": [],
					"name": "totalSupply",
					"outputs": [
						{
							"internalType": "uint256",
							"name": "",
							"type": "uint256"
						}
					],
					"stateMutability": "view",
					"type": "function"
				},
				{
					"inputs": [
						{
							"internalType": "address",
							"name": "recipient",
							"type": "address"
						},
						{
							"internalType": "uint256",
							"name": "amount",
							"type": "uint256"
						}
					],
					"name": "transfer",
					"outputs": [
						{
							"internalType": "bool",
							"name": "",
							"type": "bool"
						}
					],
					"stateMutability": "nonpayable",
					"type": "function"
				},
				{
					"inputs": [
						{
							"internalType": "address",
							"name": "sender",
							"type": "address"
						},
						{
							"internalType": "address",
							"name": "recipient",
							"type": "address"
						},
						{
							"internalType": "uint256",
							"name": "amount",
							"type": "uint256"
						}
					],
					"name": "transferFrom",
					"outputs": [
						{
							"internalType": "bool",
							"name": "",
							"type": "bool"
						}
					],
					"stateMutability": "nonpayable",
					"type": "function"
				},
				{
					"stateMutability": "payable",
					"type": "receive"
				}
			],
			"devdoc": {
				"kind": "dev",
				"methods": {
					"allowance(address,address)": {
						"details": "See {IERC20-allowance}."
					},
					"approve(address,uint256)": {
						"details": "See {IERC20-approve}. Requirements: - `spender` cannot be the zero address."
					},
					"balanceOf(address)": {
						"details": "See {IERC20-balanceOf}."
					},
					"decimals()": {
						"details": "Returns the number of decimals used to get its user representation. For example, if `decimals` equals `2`, a balance of `505` tokens should be displayed to a user as `5.05` (`505 / 10 ** 2`). Tokens usually opt for a value of 18, imitating the relationship between Ether and Wei. This is the value {ERC20} uses, unless this function is overridden; NOTE: This information is only used for _display_ purposes: it in no way affects any of the arithmetic of the contract, including {IERC20-balanceOf} and {IERC20-transfer}."
					},
					"decreaseAllowance(address,uint256)": {
						"details": "Atomically decreases the allowance granted to `spender` by the caller. This is an alternative to {approve} that can be used as a mitigation for problems described in {IERC20-approve}. Emits an {Approval} event indicating the updated allowance. Requirements: - `spender` cannot be the zero address. - `spender` must have allowance for the caller of at least `subtractedValue`."
					},
					"increaseAllowance(address,uint256)": {
						"details": "Atomically increases the allowance granted to `spender` by the caller. This is an alternative to {approve} that can be used as a mitigation for problems described in {IERC20-approve}. Emits an {Approval} event indicating the updated allowance. Requirements: - `spender` cannot be the zero address."
					},
					"name()": {
						"details": "Returns the name of the token."
					},
					"symbol()": {
						"details": "Returns the symbol of the token, usually a shorter version of the name."
					},
					"totalSupply()": {
						"details": "See {IERC20-totalSupply}."
					},
					"transfer(address,uint256)": {
						"details": "See {IERC20-transfer}. Requirements: - `recipient` cannot be the zero address. - the caller must have a balance of at least `amount`."
					},
					"transferFrom(address,address,uint256)": {
						"details": "See {IERC20-transferFrom}. Emits an {Approval} event indicating the updated allowance. This is not required by the EIP. See the note at the beginning of {ERC20}. Requirements: - `sender` and `recipient` cannot be the zero address. - `sender` must have a balance of at least `amount`. - the caller must have allowance for ``sender``'s tokens of at least `amount`."
					}
				},
				"version": 1
			},
			"evm": {
				"assembly": "    /* \"Documents/GitHub/XRC-20Plus/contracts/XRC20Plus.sol\":2412:6357  contract Plus is ERC20, Plus_Interface {... */\n  mstore(0x40, 0x80)\n    /* \"Documents/GitHub/XRC-20Plus/contracts/XRC20Plus.sol\":2471:2472  0 */\n  0x00\n    /* \"Documents/GitHub/XRC-20Plus/contracts/XRC20Plus.sol\":2457:2472  uint counter =0 */\n  0x05\n  sstore\n    /* \"Documents/GitHub/XRC-20Plus/contracts/XRC20Plus.sol\":2501:2502  0 */\n  0x00\n    /* \"Documents/GitHub/XRC-20Plus/contracts/XRC20Plus.sol\":2478:2502  uint Account_Counter = 0 */\n  0x06\n  sstore\n    /* \"Documents/GitHub/XRC-20Plus/contracts/XRC20Plus.sol\":2524:2527  100 */\n  0x64\n    /* \"Documents/GitHub/XRC-20Plus/contracts/XRC20Plus.sol\":2508:2527  uint dust_min = 100 */\n  0x07\n  sstore\n    /* \"Documents/GitHub/XRC-20Plus/contracts/XRC20Plus.sol\":2591:2592  0 */\n  0x00\n    /* \"Documents/GitHub/XRC-20Plus/contracts/XRC20Plus.sol\":2584:2592  uint i=0 */\n  0x08\n  sstore\n    /* \"Documents/GitHub/XRC-20Plus/contracts/XRC20Plus.sol\":3125:3559  constructor(string memory name,string memory symbol,uint totalSupply,uint8 decimals) ERC20(name, symbol) {        ... */\n  callvalue\n  dup1\n  iszero\n  tag_1\n  jumpi\n  0x00\n  dup1\n  revert\ntag_1:\n  pop\n  mload(0x40)\n  sub(codesize, bytecodeSize)\n  dup1\n  bytecodeSize\n  dup4\n  codecopy\n  dup2\n  dup2\n  add\n  0x40\n  mstore\n  dup2\n  add\n  swap1\n  tag_2\n  swap2\n  swap1\n  tag_3\n  jump\t// in\ntag_2:\n    /* \"Documents/GitHub/XRC-20Plus/contracts/XRC20Plus.sol\":3216:3220  name */\n  dup4\n    /* \"Documents/GitHub/XRC-20Plus/contracts/XRC20Plus.sol\":3222:3228  symbol */\n  dup4\n    /* \"@openzeppelin/contracts/token/ERC20/ERC20.sol\":2037:2042  name_ */\n  dup2\n    /* \"@openzeppelin/contracts/token/ERC20/ERC20.sol\":2029:2034  _name */\n  0x03\n    /* \"@openzeppelin/contracts/token/ERC20/ERC20.sol\":2029:2042  _name = name_ */\n  swap1\n  dup1\n  mload\n  swap1\n  0x20\n  add\n  swap1\n  tag_7\n  swap3\n  swap2\n  swap1\n  tag_8\n  jump\t// in\ntag_7:\n  pop\n    /* \"@openzeppelin/contracts/token/ERC20/ERC20.sol\":2062:2069  symbol_ */\n  dup1\n    /* \"@openzeppelin/contracts/token/ERC20/ERC20.sol\":2052:2059  _symbol */\n  0x04\n    /* \"@openzeppelin/contracts/token/ERC20/ERC20.sol\":2052:2069  _symbol = symbol_ */\n  swap1\n  dup1\n  mload\n  swap1\n  0x20\n  add\n  swap1\n  tag_9\n  swap3\n  swap2\n  swap1\n  tag_8\n  jump\t// in\ntag_9:\n  pop\n    /* \"@openzeppelin/contracts/token/ERC20/ERC20.sol\":1963:2076  constructor(string memory name_, string memory symbol_) {... */\n  pop\n  pop\n    /* \"Documents/GitHub/XRC-20Plus/contracts/XRC20Plus.sol\":3279:3287  decimals */\n  dup1\n    /* \"Documents/GitHub/XRC-20Plus/contracts/XRC20Plus.sol\":3275:3277  10 */\n  0x0a\n    /* \"Documents/GitHub/XRC-20Plus/contracts/XRC20Plus.sol\":3275:3287  10**decimals */\n  tag_11\n  swap2\n  swap1\n  tag_12\n  jump\t// in\ntag_11:\n    /* \"Documents/GitHub/XRC-20Plus/contracts/XRC20Plus.sol\":3262:3273  totalSupply */\n  dup3\n    /* \"Documents/GitHub/XRC-20Plus/contracts/XRC20Plus.sol\":3262:3288  totalSupply*(10**decimals) */\n  tag_13\n  swap2\n  swap1\n  tag_14\n  jump\t// in\ntag_13:\n    /* \"Documents/GitHub/XRC-20Plus/contracts/XRC20Plus.sol\":3248:3288  totalSupply = totalSupply*(10**decimals) */\n  swap2\n  pop\n    /* \"Documents/GitHub/XRC-20Plus/contracts/XRC20Plus.sol\":3298:3334  _mint(msg.sender, uint(totalSupply)) */\n  tag_15\n    /* \"Documents/GitHub/XRC-20Plus/contracts/XRC20Plus.sol\":3304:3314  msg.sender */\n  caller\n    /* \"Documents/GitHub/XRC-20Plus/contracts/XRC20Plus.sol\":3321:3332  totalSupply */\n  dup4\n    /* \"Documents/GitHub/XRC-20Plus/contracts/XRC20Plus.sol\":3298:3303  _mint */\n  shl(0x20, tag_16)\n    /* \"Documents/GitHub/XRC-20Plus/contracts/XRC20Plus.sol\":3298:3334  _mint(msg.sender, uint(totalSupply)) */\n  0x20\n  shr\n  jump\t// in\ntag_15:\n    /* \"Documents/GitHub/XRC-20Plus/contracts/XRC20Plus.sol\":3344:3362  Register_Account() */\n  tag_17\n    /* \"Documents/GitHub/XRC-20Plus/contracts/XRC20Plus.sol\":3344:3360  Register_Account */\n  shl(0x20, tag_18)\n    /* \"Documents/GitHub/XRC-20Plus/contracts/XRC20Plus.sol\":3344:3362  Register_Account() */\n  0x20\n  shr\n  jump\t// in\ntag_17:\n  pop\n    /* \"Documents/GitHub/XRC-20Plus/contracts/XRC20Plus.sol\":3442:3463  CoinBank incomingbank */\n  0x00\n    /* \"Documents/GitHub/XRC-20Plus/contracts/XRC20Plus.sol\":3487:3491  this */\n  address\n    /* \"Documents/GitHub/XRC-20Plus/contracts/XRC20Plus.sol\":3493:3504  totalSupply */\n  dup4\n    /* \"Documents/GitHub/XRC-20Plus/contracts/XRC20Plus.sol\":3466:3505  new CoinBank(address(this),totalSupply) */\n  mload(0x40)\n  tag_19\n  swap1\n  tag_20\n  jump\t// in\ntag_19:\n  tag_21\n  swap3\n  swap2\n  swap1\n  tag_22\n  jump\t// in\ntag_21:\n  mload(0x40)\n  dup1\n  swap2\n  sub\n  swap1\n  0x00\n  create\n  dup1\n  iszero\n  dup1\n  iszero\n  tag_23\n  jumpi\n  returndatasize\n  0x00\n  dup1\n  returndatacopy\n  revert(0x00, returndatasize)\ntag_23:\n  pop\n    /* \"Documents/GitHub/XRC-20Plus/contracts/XRC20Plus.sol\":3442:3505  CoinBank incomingbank = new CoinBank(address(this),totalSupply) */\n  swap1\n  pop\n    /* \"Documents/GitHub/XRC-20Plus/contracts/XRC20Plus.sol\":3515:3532  CoinBank_Contract */\n  0x0b\n    /* \"Documents/GitHub/XRC-20Plus/contracts/XRC20Plus.sol\":3538:3550  incomingbank */\n  dup2\n    /* \"Documents/GitHub/XRC-20Plus/contracts/XRC20Plus.sol\":3515:3551  CoinBank_Contract.push(incomingbank) */\n  swap1\n  dup1\n  0x01\n  dup2\n  sload\n  add\n  dup1\n  dup3\n  sstore\n  dup1\n  swap2\n  pop\n  pop\n  0x01\n  swap1\n  sub\n  swap1\n  0x00\n  mstore\n  keccak256(0x00, 0x20)\n  add\n  0x00\n  swap1\n  swap2\n  swap1\n  swap2\n  swap1\n  swap2\n  0x0100\n  exp\n  dup2\n  sload\n  dup2\n  0xffffffffffffffffffffffffffffffffffffffff\n  mul\n  not\n  and\n  swap1\n  dup4\n  0xffffffffffffffffffffffffffffffffffffffff\n  and\n  mul\n  or\n  swap1\n  sstore\n  pop\n    /* \"Documents/GitHub/XRC-20Plus/contracts/XRC20Plus.sol\":3230:3559  {        ... */\n  pop\n    /* \"Documents/GitHub/XRC-20Plus/contracts/XRC20Plus.sol\":3125:3559  constructor(string memory name,string memory symbol,uint totalSupply,uint8 decimals) ERC20(name, symbol) {        ... */\n  pop\n  pop\n  pop\n  pop\n    /* \"Documents/GitHub/XRC-20Plus/contracts/XRC20Plus.sol\":2412:6357  contract Plus is ERC20, Plus_Interface {... */\n  jump(tag_25)\n    /* \"@openzeppelin/contracts/token/ERC20/ERC20.sol\":8311:8700  function _mint(address account, uint256 amount) internal virtual {... */\ntag_16:\n    /* \"@openzeppelin/contracts/token/ERC20/ERC20.sol\":8413:8414  0 */\n  0x00\n    /* \"@openzeppelin/contracts/token/ERC20/ERC20.sol\":8394:8415  account != address(0) */\n  0xffffffffffffffffffffffffffffffffffffffff\n  and\n    /* \"@openzeppelin/contracts/token/ERC20/ERC20.sol\":8394:8401  account */\n  dup3\n    /* \"@openzeppelin/contracts/token/ERC20/ERC20.sol\":8394:8415  account != address(0) */\n  0xffffffffffffffffffffffffffffffffffffffff\n  and\n  sub\n    /* \"@openzeppelin/contracts/token/ERC20/ERC20.sol\":8386:8451  require(account != address(0), \"ERC20: mint to the zero address\") */\n  tag_27\n  jumpi\n  mload(0x40)\n  0x08c379a000000000000000000000000000000000000000000000000000000000\n  dup2\n  mstore\n  0x04\n  add\n  tag_28\n  swap1\n  tag_29\n  jump\t// in\ntag_28:\n  mload(0x40)\n  dup1\n  swap2\n  sub\n  swap1\n  revert\ntag_27:\n    /* \"@openzeppelin/contracts/token/ERC20/ERC20.sol\":8462:8511  _beforeTokenTransfer(address(0), account, amount) */\n  tag_30\n    /* \"@openzeppelin/contracts/token/ERC20/ERC20.sol\":8491:8492  0 */\n  0x00\n    /* \"@openzeppelin/contracts/token/ERC20/ERC20.sol\":8495:8502  account */\n  dup4\n    /* \"@openzeppelin/contracts/token/ERC20/ERC20.sol\":8504:8510  amount */\n  dup4\n    /* \"@openzeppelin/contracts/token/ERC20/ERC20.sol\":8462:8482  _beforeTokenTransfer */\n  shl(0x20, tag_31)\n    /* \"@openzeppelin/contracts/token/ERC20/ERC20.sol\":8462:8511  _beforeTokenTransfer(address(0), account, amount) */\n  0x20\n  shr\n  jump\t// in\ntag_30:\n    /* \"@openzeppelin/contracts/token/ERC20/ERC20.sol\":8538:8544  amount */\n  dup1\n    /* \"@openzeppelin/contracts/token/ERC20/ERC20.sol\":8522:8534  _totalSupply */\n  0x02\n  0x00\n    /* \"@openzeppelin/contracts/token/ERC20/ERC20.sol\":8522:8544  _totalSupply += amount */\n  dup3\n  dup3\n  sload\n  tag_32\n  swap2\n  swap1\n  tag_33\n  jump\t// in\ntag_32:\n  swap3\n  pop\n  pop\n  dup2\n  swap1\n  sstore\n  pop\n    /* \"@openzeppelin/contracts/token/ERC20/ERC20.sol\":8576:8582  amount */\n  dup1\n    /* \"@openzeppelin/contracts/token/ERC20/ERC20.sol\":8554:8563  _balances */\n  0x00\n    /* \"@openzeppelin/contracts/token/ERC20/ERC20.sol\":8554:8572  _balances[account] */\n  dup1\n    /* \"@openzeppelin/contracts/token/ERC20/ERC20.sol\":8564:8571  account */\n  dup5\n    /* \"@openzeppelin/contracts/token/ERC20/ERC20.sol\":8554:8572  _balances[account] */\n  0xffffffffffffffffffffffffffffffffffffffff\n  and\n  0xffffffffffffffffffffffffffffffffffffffff\n  and\n  dup2\n  mstore\n  0x20\n  add\n  swap1\n  dup2\n  mstore\n  0x20\n  add\n  0x00\n  keccak256\n  0x00\n    /* \"@openzeppelin/contracts/token/ERC20/ERC20.sol\":8554:8582  _balances[account] += amount */\n  dup3\n  dup3\n  sload\n  tag_34\n  swap2\n  swap1\n  tag_33\n  jump\t// in\ntag_34:\n  swap3\n  pop\n  pop\n  dup2\n  swap1\n  sstore\n  pop\n    /* \"@openzeppelin/contracts/token/ERC20/ERC20.sol\":8618:8625  account */\n  dup2\n    /* \"@openzeppelin/contracts/token/ERC20/ERC20.sol\":8597:8634  Transfer(address(0), account, amount) */\n  0xffffffffffffffffffffffffffffffffffffffff\n  and\n    /* \"@openzeppelin/contracts/token/ERC20/ERC20.sol\":8614:8615  0 */\n  0x00\n    /* \"@openzeppelin/contracts/token/ERC20/ERC20.sol\":8597:8634  Transfer(address(0), account, amount) */\n  0xffffffffffffffffffffffffffffffffffffffff\n  and\n  0xddf252ad1be2c89b69c2b068fc378daa952ba7f163c4a11628f55a4df523b3ef\n    /* \"@openzeppelin/contracts/token/ERC20/ERC20.sol\":8627:8633  amount */\n  dup4\n    /* \"@openzeppelin/contracts/token/ERC20/ERC20.sol\":8597:8634  Transfer(address(0), account, amount) */\n  mload(0x40)\n  tag_35\n  swap2\n  swap1\n  tag_36\n  jump\t// in\ntag_35:\n  mload(0x40)\n  dup1\n  swap2\n  sub\n  swap1\n  log3\n    /* \"@openzeppelin/contracts/token/ERC20/ERC20.sol\":8645:8693  _afterTokenTransfer(address(0), account, amount) */\n  tag_37\n    /* \"@openzeppelin/contracts/token/ERC20/ERC20.sol\":8673:8674  0 */\n  0x00\n    /* \"@openzeppelin/contracts/token/ERC20/ERC20.sol\":8677:8684  account */\n  dup4\n    /* \"@openzeppelin/contracts/token/ERC20/ERC20.sol\":8686:8692  amount */\n  dup4\n    /* \"@openzeppelin/contracts/token/ERC20/ERC20.sol\":8645:8664  _afterTokenTransfer */\n  shl(0x20, tag_38)\n    /* \"@openzeppelin/contracts/token/ERC20/ERC20.sol\":8645:8693  _afterTokenTransfer(address(0), account, amount) */\n  0x20\n  shr\n  jump\t// in\ntag_37:\n    /* \"@openzeppelin/contracts/token/ERC20/ERC20.sol\":8311:8700  function _mint(address account, uint256 amount) internal virtual {... */\n  pop\n  pop\n  jump\t// out\n    /* \"Documents/GitHub/XRC-20Plus/contracts/XRC20Plus.sol\":3843:4135  function Register_Account() public returns(bool){... */\ntag_18:\n    /* \"Documents/GitHub/XRC-20Plus/contracts/XRC20Plus.sol\":3886:3890  bool */\n  0x00\n    /* \"Documents/GitHub/XRC-20Plus/contracts/XRC20Plus.sol\":3939:3944  false */\n  dup1\n    /* \"Documents/GitHub/XRC-20Plus/contracts/XRC20Plus.sol\":3909:3944  accounts[msg.sender].exist == false */\n  iszero\n  iszero\n    /* \"Documents/GitHub/XRC-20Plus/contracts/XRC20Plus.sol\":3909:3917  accounts */\n  0x09\n    /* \"Documents/GitHub/XRC-20Plus/contracts/XRC20Plus.sol\":3909:3929  accounts[msg.sender] */\n  0x00\n    /* \"Documents/GitHub/XRC-20Plus/contracts/XRC20Plus.sol\":3918:3928  msg.sender */\n  caller\n    /* \"Documents/GitHub/XRC-20Plus/contracts/XRC20Plus.sol\":3909:3929  accounts[msg.sender] */\n  0xffffffffffffffffffffffffffffffffffffffff\n  and\n  0xffffffffffffffffffffffffffffffffffffffff\n  and\n  dup2\n  mstore\n  0x20\n  add\n  swap1\n  dup2\n  mstore\n  0x20\n  add\n  0x00\n  keccak256\n    /* \"Documents/GitHub/XRC-20Plus/contracts/XRC20Plus.sol\":3909:3935  accounts[msg.sender].exist */\n  0x01\n  add\n  0x00\n  swap1\n  sload\n  swap1\n  0x0100\n  exp\n  swap1\n  div\n  0xff\n  and\n    /* \"Documents/GitHub/XRC-20Plus/contracts/XRC20Plus.sol\":3909:3944  accounts[msg.sender].exist == false */\n  iszero\n  iszero\n  eq\n    /* \"Documents/GitHub/XRC-20Plus/contracts/XRC20Plus.sol\":3901:3966  require(accounts[msg.sender].exist == false,\"user already exist\") */\n  tag_40\n  jumpi\n  mload(0x40)\n  0x08c379a000000000000000000000000000000000000000000000000000000000\n  dup2\n  mstore\n  0x04\n  add\n  tag_41\n  swap1\n  tag_42\n  jump\t// in\ntag_41:\n  mload(0x40)\n  dup1\n  swap2\n  sub\n  swap1\n  revert\ntag_40:\n    /* \"Documents/GitHub/XRC-20Plus/contracts/XRC20Plus.sol\":4002:4031  micro_ledger(msg.sender,true) */\n  mload(0x40)\n  dup1\n  0x40\n  add\n  0x40\n  mstore\n  dup1\n    /* \"Documents/GitHub/XRC-20Plus/contracts/XRC20Plus.sol\":4015:4025  msg.sender */\n  caller\n    /* \"Documents/GitHub/XRC-20Plus/contracts/XRC20Plus.sol\":4002:4031  micro_ledger(msg.sender,true) */\n  0xffffffffffffffffffffffffffffffffffffffff\n  and\n  dup2\n  mstore\n  0x20\n  add\n    /* \"Documents/GitHub/XRC-20Plus/contracts/XRC20Plus.sol\":4026:4030  true */\n  0x01\n    /* \"Documents/GitHub/XRC-20Plus/contracts/XRC20Plus.sol\":4002:4031  micro_ledger(msg.sender,true) */\n  iszero\n  iszero\n  dup2\n  mstore\n  pop\n    /* \"Documents/GitHub/XRC-20Plus/contracts/XRC20Plus.sol\":3976:3982  ledger */\n  0x0a\n    /* \"Documents/GitHub/XRC-20Plus/contracts/XRC20Plus.sol\":3976:3999  ledger[Account_Counter] */\n  0x00\n    /* \"Documents/GitHub/XRC-20Plus/contracts/XRC20Plus.sol\":3983:3998  Account_Counter */\n  sload(0x06)\n    /* \"Documents/GitHub/XRC-20Plus/contracts/XRC20Plus.sol\":3976:3999  ledger[Account_Counter] */\n  dup2\n  mstore\n  0x20\n  add\n  swap1\n  dup2\n  mstore\n  0x20\n  add\n  0x00\n  keccak256\n    /* \"Documents/GitHub/XRC-20Plus/contracts/XRC20Plus.sol\":3976:4031  ledger[Account_Counter] = micro_ledger(msg.sender,true) */\n  0x00\n  dup3\n  add\n  mload\n  dup2\n  0x00\n  add\n  exp(0x0100, 0x00)\n  dup2\n  sload\n  dup2\n  0xffffffffffffffffffffffffffffffffffffffff\n  mul\n  not\n  and\n  swap1\n  dup4\n  0xffffffffffffffffffffffffffffffffffffffff\n  and\n  mul\n  or\n  swap1\n  sstore\n  pop\n  0x20\n  dup3\n  add\n  mload\n  dup2\n  0x00\n  add\n  exp(0x0100, 0x14)\n  dup2\n  sload\n  dup2\n  0xff\n  mul\n  not\n  and\n  swap1\n  dup4\n  iszero\n  iszero\n  mul\n  or\n  swap1\n  sstore\n  pop\n  swap1\n  pop\n  pop\n    /* \"Documents/GitHub/XRC-20Plus/contracts/XRC20Plus.sol\":4064:4080  Accounts(0,true) */\n  mload(0x40)\n  dup1\n  0x40\n  add\n  0x40\n  mstore\n  dup1\n    /* \"Documents/GitHub/XRC-20Plus/contracts/XRC20Plus.sol\":4073:4074  0 */\n  0x00\n    /* \"Documents/GitHub/XRC-20Plus/contracts/XRC20Plus.sol\":4064:4080  Accounts(0,true) */\n  dup2\n  mstore\n  0x20\n  add\n    /* \"Documents/GitHub/XRC-20Plus/contracts/XRC20Plus.sol\":4075:4079  true */\n  0x01\n    /* \"Documents/GitHub/XRC-20Plus/contracts/XRC20Plus.sol\":4064:4080  Accounts(0,true) */\n  iszero\n  iszero\n  dup2\n  mstore\n  pop\n    /* \"Documents/GitHub/XRC-20Plus/contracts/XRC20Plus.sol\":4041:4049  accounts */\n  0x09\n    /* \"Documents/GitHub/XRC-20Plus/contracts/XRC20Plus.sol\":4041:4061  accounts[msg.sender] */\n  0x00\n    /* \"Documents/GitHub/XRC-20Plus/contracts/XRC20Plus.sol\":4050:4060  msg.sender */\n  caller\n    /* \"Documents/GitHub/XRC-20Plus/contracts/XRC20Plus.sol\":4041:4061  accounts[msg.sender] */\n  0xffffffffffffffffffffffffffffffffffffffff\n  and\n  0xffffffffffffffffffffffffffffffffffffffff\n  and\n  dup2\n  mstore\n  0x20\n  add\n  swap1\n  dup2\n  mstore\n  0x20\n  add\n  0x00\n  keccak256\n    /* \"Documents/GitHub/XRC-20Plus/contracts/XRC20Plus.sol\":4041:4080  accounts[msg.sender] = Accounts(0,true) */\n  0x00\n  dup3\n  add\n  mload\n  dup2\n  0x00\n  add\n  sstore\n  0x20\n  dup3\n  add\n  mload\n  dup2\n  0x01\n  add\n  exp(0x0100, 0x00)\n  dup2\n  sload\n  dup2\n  0xff\n  mul\n  not\n  and\n  swap1\n  dup4\n  iszero\n  iszero\n  mul\n  or\n  swap1\n  sstore\n  pop\n  swap1\n  pop\n  pop\n    /* \"Documents/GitHub/XRC-20Plus/contracts/XRC20Plus.sol\":4090:4105  Account_Counter */\n  0x06\n  0x00\n    /* \"Documents/GitHub/XRC-20Plus/contracts/XRC20Plus.sol\":4090:4107  Account_Counter++ */\n  dup2\n  sload\n  dup1\n  swap3\n  swap2\n  swap1\n  tag_43\n  swap1\n  tag_44\n  jump\t// in\ntag_43:\n  swap2\n  swap1\n  pop\n  sstore\n  pop\n    /* \"Documents/GitHub/XRC-20Plus/contracts/XRC20Plus.sol\":4124:4128  true */\n  0x01\n    /* \"Documents/GitHub/XRC-20Plus/contracts/XRC20Plus.sol\":4117:4128  return true */\n  swap1\n  pop\n    /* \"Documents/GitHub/XRC-20Plus/contracts/XRC20Plus.sol\":3843:4135  function Register_Account() public returns(bool){... */\n  swap1\n  jump\t// out\n    /* \"@openzeppelin/contracts/token/ERC20/ERC20.sol\":10973:11094  function _beforeTokenTransfer(... */\ntag_31:\n  pop\n  pop\n  pop\n  jump\t// out\n    /* \"@openzeppelin/contracts/token/ERC20/ERC20.sol\":11682:11802  function _afterTokenTransfer(... */\ntag_38:\n  pop\n  pop\n  pop\n  jump\t// out\n    /* \"Documents/GitHub/XRC-20Plus/contracts/XRC20Plus.sol\":2412:6357  contract Plus is ERC20, Plus_Interface {... */\ntag_8:\n  dup3\n  dup1\n  sload\n  tag_47\n  swap1\n  tag_48\n  jump\t// in\ntag_47:\n  swap1\n  0x00\n  mstore\n  keccak256(0x00, 0x20)\n  swap1\n  0x1f\n  add\n  0x20\n  swap1\n  div\n  dup2\n  add\n  swap3\n  dup3\n  tag_50\n  jumpi\n  0x00\n  dup6\n  sstore\n  jump(tag_49)\ntag_50:\n  dup3\n  0x1f\n  lt\n  tag_51\n  jumpi\n  dup1\n  mload\n  not(0xff)\n  and\n  dup4\n  dup1\n  add\n  or\n  dup6\n  sstore\n  jump(tag_49)\ntag_51:\n  dup3\n  dup1\n  add\n  0x01\n  add\n  dup6\n  sstore\n  dup3\n  iszero\n  tag_49\n  jumpi\n  swap2\n  dup3\n  add\ntag_52:\n  dup3\n  dup2\n  gt\n  iszero\n  tag_53\n  jumpi\n  dup3\n  mload\n  dup3\n  sstore\n  swap2\n  0x20\n  add\n  swap2\n  swap1\n  0x01\n  add\n  swap1\n  jump(tag_52)\ntag_53:\ntag_49:\n  pop\n  swap1\n  pop\n  tag_54\n  swap2\n  swap1\n  tag_55\n  jump\t// in\ntag_54:\n  pop\n  swap1\n  jump\t// out\ntag_20:\n  dataSize(sub_1)\n  dup1\n  dataOffset(sub_1)\n  dup4\n  codecopy\n  add\n  swap1\n  jump\t// out\ntag_55:\ntag_56:\n  dup1\n  dup3\n  gt\n  iszero\n  tag_57\n  jumpi\n  0x00\n  dup2\n  0x00\n  swap1\n  sstore\n  pop\n  0x01\n  add\n  jump(tag_56)\ntag_57:\n  pop\n  swap1\n  jump\t// out\n    /* \"#utility.yul\":7:82   */\ntag_58:\n    /* \"#utility.yul\":40:46   */\n  0x00\n    /* \"#utility.yul\":73:75   */\n  0x40\n    /* \"#utility.yul\":67:76   */\n  mload\n    /* \"#utility.yul\":57:76   */\n  swap1\n  pop\n    /* \"#utility.yul\":7:82   */\n  swap1\n  jump\t// out\n    /* \"#utility.yul\":88:205   */\ntag_59:\n    /* \"#utility.yul\":197:198   */\n  0x00\n    /* \"#utility.yul\":194:195   */\n  dup1\n    /* \"#utility.yul\":187:199   */\n  revert\n    /* \"#utility.yul\":211:328   */\ntag_60:\n    /* \"#utility.yul\":320:321   */\n  0x00\n    /* \"#utility.yul\":317:318   */\n  dup1\n    /* \"#utility.yul\":310:322   */\n  revert\n    /* \"#utility.yul\":334:451   */\ntag_61:\n    /* \"#utility.yul\":443:444   */\n  0x00\n    /* \"#utility.yul\":440:441   */\n  dup1\n    /* \"#utility.yul\":433:445   */\n  revert\n    /* \"#utility.yul\":457:574   */\ntag_62:\n    /* \"#utility.yul\":566:567   */\n  0x00\n    /* \"#utility.yul\":563:564   */\n  dup1\n    /* \"#utility.yul\":556:568   */\n  revert\n    /* \"#utility.yul\":580:682   */\ntag_63:\n    /* \"#utility.yul\":621:627   */\n  0x00\n    /* \"#utility.yul\":672:674   */\n  0x1f\n    /* \"#utility.yul\":668:675   */\n  not\n    /* \"#utility.yul\":663:665   */\n  0x1f\n    /* \"#utility.yul\":656:661   */\n  dup4\n    /* \"#utility.yul\":652:666   */\n  add\n    /* \"#utility.yul\":648:676   */\n  and\n    /* \"#utility.yul\":638:676   */\n  swap1\n  pop\n    /* \"#utility.yul\":580:682   */\n  swap2\n  swap1\n  pop\n  jump\t// out\n    /* \"#utility.yul\":688:868   */\ntag_64:\n    /* \"#utility.yul\":736:813   */\n  0x4e487b7100000000000000000000000000000000000000000000000000000000\n    /* \"#utility.yul\":733:734   */\n  0x00\n    /* \"#utility.yul\":726:814   */\n  mstore\n    /* \"#utility.yul\":833:837   */\n  0x41\n    /* \"#utility.yul\":830:831   */\n  0x04\n    /* \"#utility.yul\":823:838   */\n  mstore\n    /* \"#utility.yul\":857:861   */\n  0x24\n    /* \"#utility.yul\":854:855   */\n  0x00\n    /* \"#utility.yul\":847:862   */\n  revert\n    /* \"#utility.yul\":874:1155   */\ntag_65:\n    /* \"#utility.yul\":957:984   */\n  tag_100\n    /* \"#utility.yul\":979:983   */\n  dup3\n    /* \"#utility.yul\":957:984   */\n  tag_63\n  jump\t// in\ntag_100:\n    /* \"#utility.yul\":949:955   */\n  dup2\n    /* \"#utility.yul\":945:985   */\n  add\n    /* \"#utility.yul\":1087:1093   */\n  dup2\n    /* \"#utility.yul\":1075:1085   */\n  dup2\n    /* \"#utility.yul\":1072:1094   */\n  lt\n    /* \"#utility.yul\":1051:1069   */\n  0xffffffffffffffff\n    /* \"#utility.yul\":1039:1049   */\n  dup3\n    /* \"#utility.yul\":1036:1070   */\n  gt\n    /* \"#utility.yul\":1033:1095   */\n  or\n    /* \"#utility.yul\":1030:1118   */\n  iszero\n  tag_101\n  jumpi\n    /* \"#utility.yul\":1098:1116   */\n  tag_102\n  tag_64\n  jump\t// in\ntag_102:\n    /* \"#utility.yul\":1030:1118   */\ntag_101:\n    /* \"#utility.yul\":1138:1148   */\n  dup1\n    /* \"#utility.yul\":1134:1136   */\n  0x40\n    /* \"#utility.yul\":1127:1149   */\n  mstore\n    /* \"#utility.yul\":917:1155   */\n  pop\n    /* \"#utility.yul\":874:1155   */\n  pop\n  pop\n  jump\t// out\n    /* \"#utility.yul\":1161:1290   */\ntag_66:\n    /* \"#utility.yul\":1195:1201   */\n  0x00\n    /* \"#utility.yul\":1222:1242   */\n  tag_104\n  tag_58\n  jump\t// in\ntag_104:\n    /* \"#utility.yul\":1212:1242   */\n  swap1\n  pop\n    /* \"#utility.yul\":1251:1284   */\n  tag_105\n    /* \"#utility.yul\":1279:1283   */\n  dup3\n    /* \"#utility.yul\":1271:1277   */\n  dup3\n    /* \"#utility.yul\":1251:1284   */\n  tag_65\n  jump\t// in\ntag_105:\n    /* \"#utility.yul\":1161:1290   */\n  swap2\n  swap1\n  pop\n  jump\t// out\n    /* \"#utility.yul\":1296:1604   */\ntag_67:\n    /* \"#utility.yul\":1358:1362   */\n  0x00\n    /* \"#utility.yul\":1448:1466   */\n  0xffffffffffffffff\n    /* \"#utility.yul\":1440:1446   */\n  dup3\n    /* \"#utility.yul\":1437:1467   */\n  gt\n    /* \"#utility.yul\":1434:1490   */\n  iszero\n  tag_107\n  jumpi\n    /* \"#utility.yul\":1470:1488   */\n  tag_108\n  tag_64\n  jump\t// in\ntag_108:\n    /* \"#utility.yul\":1434:1490   */\ntag_107:\n    /* \"#utility.yul\":1508:1537   */\n  tag_109\n    /* \"#utility.yul\":1530:1536   */\n  dup3\n    /* \"#utility.yul\":1508:1537   */\n  tag_63\n  jump\t// in\ntag_109:\n    /* \"#utility.yul\":1500:1537   */\n  swap1\n  pop\n    /* \"#utility.yul\":1592:1596   */\n  0x20\n    /* \"#utility.yul\":1586:1590   */\n  dup2\n    /* \"#utility.yul\":1582:1597   */\n  add\n    /* \"#utility.yul\":1574:1597   */\n  swap1\n  pop\n    /* \"#utility.yul\":1296:1604   */\n  swap2\n  swap1\n  pop\n  jump\t// out\n    /* \"#utility.yul\":1610:1917   */\ntag_68:\n    /* \"#utility.yul\":1678:1679   */\n  0x00\n    /* \"#utility.yul\":1688:1801   */\ntag_111:\n    /* \"#utility.yul\":1702:1708   */\n  dup4\n    /* \"#utility.yul\":1699:1700   */\n  dup2\n    /* \"#utility.yul\":1696:1709   */\n  lt\n    /* \"#utility.yul\":1688:1801   */\n  iszero\n  tag_113\n  jumpi\n    /* \"#utility.yul\":1787:1788   */\n  dup1\n    /* \"#utility.yul\":1782:1785   */\n  dup3\n    /* \"#utility.yul\":1778:1789   */\n  add\n    /* \"#utility.yul\":1772:1790   */\n  mload\n    /* \"#utility.yul\":1768:1769   */\n  dup2\n    /* \"#utility.yul\":1763:1766   */\n  dup5\n    /* \"#utility.yul\":1759:1770   */\n  add\n    /* \"#utility.yul\":1752:1791   */\n  mstore\n    /* \"#utility.yul\":1724:1726   */\n  0x20\n    /* \"#utility.yul\":1721:1722   */\n  dup2\n    /* \"#utility.yul\":1717:1727   */\n  add\n    /* \"#utility.yul\":1712:1727   */\n  swap1\n  pop\n    /* \"#utility.yul\":1688:1801   */\n  jump(tag_111)\ntag_113:\n    /* \"#utility.yul\":1819:1825   */\n  dup4\n    /* \"#utility.yul\":1816:1817   */\n  dup2\n    /* \"#utility.yul\":1813:1826   */\n  gt\n    /* \"#utility.yul\":1810:1911   */\n  iszero\n  tag_114\n  jumpi\n    /* \"#utility.yul\":1899:1900   */\n  0x00\n    /* \"#utility.yul\":1890:1896   */\n  dup5\n    /* \"#utility.yul\":1885:1888   */\n  dup5\n    /* \"#utility.yul\":1881:1897   */\n  add\n    /* \"#utility.yul\":1874:1901   */\n  mstore\n    /* \"#utility.yul\":1810:1911   */\ntag_114:\n    /* \"#utility.yul\":1659:1917   */\n  pop\n    /* \"#utility.yul\":1610:1917   */\n  pop\n  pop\n  pop\n  jump\t// out\n    /* \"#utility.yul\":1923:2344   */\ntag_69:\n    /* \"#utility.yul\":2012:2017   */\n  0x00\n    /* \"#utility.yul\":2037:2103   */\n  tag_116\n    /* \"#utility.yul\":2053:2102   */\n  tag_117\n    /* \"#utility.yul\":2095:2101   */\n  dup5\n    /* \"#utility.yul\":2053:2102   */\n  tag_67\n  jump\t// in\ntag_117:\n    /* \"#utility.yul\":2037:2103   */\n  tag_66\n  jump\t// in\ntag_116:\n    /* \"#utility.yul\":2028:2103   */\n  swap1\n  pop\n    /* \"#utility.yul\":2126:2132   */\n  dup3\n    /* \"#utility.yul\":2119:2124   */\n  dup2\n    /* \"#utility.yul\":2112:2133   */\n  mstore\n    /* \"#utility.yul\":2164:2168   */\n  0x20\n    /* \"#utility.yul\":2157:2162   */\n  dup2\n    /* \"#utility.yul\":2153:2169   */\n  add\n    /* \"#utility.yul\":2202:2205   */\n  dup5\n    /* \"#utility.yul\":2193:2199   */\n  dup5\n    /* \"#utility.yul\":2188:2191   */\n  dup5\n    /* \"#utility.yul\":2184:2200   */\n  add\n    /* \"#utility.yul\":2181:2206   */\n  gt\n    /* \"#utility.yul\":2178:2290   */\n  iszero\n  tag_118\n  jumpi\n    /* \"#utility.yul\":2209:2288   */\n  tag_119\n  tag_62\n  jump\t// in\ntag_119:\n    /* \"#utility.yul\":2178:2290   */\ntag_118:\n    /* \"#utility.yul\":2299:2338   */\n  tag_120\n    /* \"#utility.yul\":2331:2337   */\n  dup5\n    /* \"#utility.yul\":2326:2329   */\n  dup3\n    /* \"#utility.yul\":2321:2324   */\n  dup6\n    /* \"#utility.yul\":2299:2338   */\n  tag_68\n  jump\t// in\ntag_120:\n    /* \"#utility.yul\":2018:2344   */\n  pop\n    /* \"#utility.yul\":1923:2344   */\n  swap4\n  swap3\n  pop\n  pop\n  pop\n  jump\t// out\n    /* \"#utility.yul\":2364:2719   */\ntag_70:\n    /* \"#utility.yul\":2431:2436   */\n  0x00\n    /* \"#utility.yul\":2480:2483   */\n  dup3\n    /* \"#utility.yul\":2473:2477   */\n  0x1f\n    /* \"#utility.yul\":2465:2471   */\n  dup4\n    /* \"#utility.yul\":2461:2478   */\n  add\n    /* \"#utility.yul\":2457:2484   */\n  slt\n    /* \"#utility.yul\":2447:2569   */\n  tag_122\n  jumpi\n    /* \"#utility.yul\":2488:2567   */\n  tag_123\n  tag_61\n  jump\t// in\ntag_123:\n    /* \"#utility.yul\":2447:2569   */\ntag_122:\n    /* \"#utility.yul\":2598:2604   */\n  dup2\n    /* \"#utility.yul\":2592:2605   */\n  mload\n    /* \"#utility.yul\":2623:2713   */\n  tag_124\n    /* \"#utility.yul\":2709:2712   */\n  dup5\n    /* \"#utility.yul\":2701:2707   */\n  dup3\n    /* \"#utility.yul\":2694:2698   */\n  0x20\n    /* \"#utility.yul\":2686:2692   */\n  dup7\n    /* \"#utility.yul\":2682:2699   */\n  add\n    /* \"#utility.yul\":2623:2713   */\n  tag_69\n  jump\t// in\ntag_124:\n    /* \"#utility.yul\":2614:2713   */\n  swap2\n  pop\n    /* \"#utility.yul\":2437:2719   */\n  pop\n    /* \"#utility.yul\":2364:2719   */\n  swap3\n  swap2\n  pop\n  pop\n  jump\t// out\n    /* \"#utility.yul\":2725:2802   */\ntag_71:\n    /* \"#utility.yul\":2762:2769   */\n  0x00\n    /* \"#utility.yul\":2791:2796   */\n  dup2\n    /* \"#utility.yul\":2780:2796   */\n  swap1\n  pop\n    /* \"#utility.yul\":2725:2802   */\n  swap2\n  swap1\n  pop\n  jump\t// out\n    /* \"#utility.yul\":2808:2930   */\ntag_72:\n    /* \"#utility.yul\":2881:2905   */\n  tag_127\n    /* \"#utility.yul\":2899:2904   */\n  dup2\n    /* \"#utility.yul\":2881:2905   */\n  tag_71\n  jump\t// in\ntag_127:\n    /* \"#utility.yul\":2874:2879   */\n  dup2\n    /* \"#utility.yul\":2871:2906   */\n  eq\n    /* \"#utility.yul\":2861:2924   */\n  tag_128\n  jumpi\n    /* \"#utility.yul\":2920:2921   */\n  0x00\n    /* \"#utility.yul\":2917:2918   */\n  dup1\n    /* \"#utility.yul\":2910:2922   */\n  revert\n    /* \"#utility.yul\":2861:2924   */\ntag_128:\n    /* \"#utility.yul\":2808:2930   */\n  pop\n  jump\t// out\n    /* \"#utility.yul\":2936:3079   */\ntag_73:\n    /* \"#utility.yul\":2993:2998   */\n  0x00\n    /* \"#utility.yul\":3024:3030   */\n  dup2\n    /* \"#utility.yul\":3018:3031   */\n  mload\n    /* \"#utility.yul\":3009:3031   */\n  swap1\n  pop\n    /* \"#utility.yul\":3040:3073   */\n  tag_130\n    /* \"#utility.yul\":3067:3072   */\n  dup2\n    /* \"#utility.yul\":3040:3073   */\n  tag_72\n  jump\t// in\ntag_130:\n    /* \"#utility.yul\":2936:3079   */\n  swap3\n  swap2\n  pop\n  pop\n  jump\t// out\n    /* \"#utility.yul\":3085:3171   */\ntag_74:\n    /* \"#utility.yul\":3120:3127   */\n  0x00\n    /* \"#utility.yul\":3160:3164   */\n  0xff\n    /* \"#utility.yul\":3153:3158   */\n  dup3\n    /* \"#utility.yul\":3149:3165   */\n  and\n    /* \"#utility.yul\":3138:3165   */\n  swap1\n  pop\n    /* \"#utility.yul\":3085:3171   */\n  swap2\n  swap1\n  pop\n  jump\t// out\n    /* \"#utility.yul\":3177:3295   */\ntag_75:\n    /* \"#utility.yul\":3248:3270   */\n  tag_133\n    /* \"#utility.yul\":3264:3269   */\n  dup2\n    /* \"#utility.yul\":3248:3270   */\n  tag_74\n  jump\t// in\ntag_133:\n    /* \"#utility.yul\":3241:3246   */\n  dup2\n    /* \"#utility.yul\":3238:3271   */\n  eq\n    /* \"#utility.yul\":3228:3289   */\n  tag_134\n  jumpi\n    /* \"#utility.yul\":3285:3286   */\n  0x00\n    /* \"#utility.yul\":3282:3283   */\n  dup1\n    /* \"#utility.yul\":3275:3287   */\n  revert\n    /* \"#utility.yul\":3228:3289   */\ntag_134:\n    /* \"#utility.yul\":3177:3295   */\n  pop\n  jump\t// out\n    /* \"#utility.yul\":3301:3440   */\ntag_76:\n    /* \"#utility.yul\":3356:3361   */\n  0x00\n    /* \"#utility.yul\":3387:3393   */\n  dup2\n    /* \"#utility.yul\":3381:3394   */\n  mload\n    /* \"#utility.yul\":3372:3394   */\n  swap1\n  pop\n    /* \"#utility.yul\":3403:3434   */\n  tag_136\n    /* \"#utility.yul\":3428:3433   */\n  dup2\n    /* \"#utility.yul\":3403:3434   */\n  tag_75\n  jump\t// in\ntag_136:\n    /* \"#utility.yul\":3301:3440   */\n  swap3\n  swap2\n  pop\n  pop\n  jump\t// out\n    /* \"#utility.yul\":3446:4608   */\ntag_3:\n    /* \"#utility.yul\":3561:3567   */\n  0x00\n    /* \"#utility.yul\":3569:3575   */\n  dup1\n    /* \"#utility.yul\":3577:3583   */\n  0x00\n    /* \"#utility.yul\":3585:3591   */\n  dup1\n    /* \"#utility.yul\":3634:3637   */\n  0x80\n    /* \"#utility.yul\":3622:3631   */\n  dup6\n    /* \"#utility.yul\":3613:3620   */\n  dup8\n    /* \"#utility.yul\":3609:3632   */\n  sub\n    /* \"#utility.yul\":3605:3638   */\n  slt\n    /* \"#utility.yul\":3602:3722   */\n  iszero\n  tag_138\n  jumpi\n    /* \"#utility.yul\":3641:3720   */\n  tag_139\n  tag_59\n  jump\t// in\ntag_139:\n    /* \"#utility.yul\":3602:3722   */\ntag_138:\n    /* \"#utility.yul\":3782:3783   */\n  0x00\n    /* \"#utility.yul\":3771:3780   */\n  dup6\n    /* \"#utility.yul\":3767:3784   */\n  add\n    /* \"#utility.yul\":3761:3785   */\n  mload\n    /* \"#utility.yul\":3812:3830   */\n  0xffffffffffffffff\n    /* \"#utility.yul\":3804:3810   */\n  dup2\n    /* \"#utility.yul\":3801:3831   */\n  gt\n    /* \"#utility.yul\":3798:3915   */\n  iszero\n  tag_140\n  jumpi\n    /* \"#utility.yul\":3834:3913   */\n  tag_141\n  tag_60\n  jump\t// in\ntag_141:\n    /* \"#utility.yul\":3798:3915   */\ntag_140:\n    /* \"#utility.yul\":3939:4013   */\n  tag_142\n    /* \"#utility.yul\":4005:4012   */\n  dup8\n    /* \"#utility.yul\":3996:4002   */\n  dup3\n    /* \"#utility.yul\":3985:3994   */\n  dup9\n    /* \"#utility.yul\":3981:4003   */\n  add\n    /* \"#utility.yul\":3939:4013   */\n  tag_70\n  jump\t// in\ntag_142:\n    /* \"#utility.yul\":3929:4013   */\n  swap5\n  pop\n    /* \"#utility.yul\":3732:4023   */\n  pop\n    /* \"#utility.yul\":4083:4085   */\n  0x20\n    /* \"#utility.yul\":4072:4081   */\n  dup6\n    /* \"#utility.yul\":4068:4086   */\n  add\n    /* \"#utility.yul\":4062:4087   */\n  mload\n    /* \"#utility.yul\":4114:4132   */\n  0xffffffffffffffff\n    /* \"#utility.yul\":4106:4112   */\n  dup2\n    /* \"#utility.yul\":4103:4133   */\n  gt\n    /* \"#utility.yul\":4100:4217   */\n  iszero\n  tag_143\n  jumpi\n    /* \"#utility.yul\":4136:4215   */\n  tag_144\n  tag_60\n  jump\t// in\ntag_144:\n    /* \"#utility.yul\":4100:4217   */\ntag_143:\n    /* \"#utility.yul\":4241:4315   */\n  tag_145\n    /* \"#utility.yul\":4307:4314   */\n  dup8\n    /* \"#utility.yul\":4298:4304   */\n  dup3\n    /* \"#utility.yul\":4287:4296   */\n  dup9\n    /* \"#utility.yul\":4283:4305   */\n  add\n    /* \"#utility.yul\":4241:4315   */\n  tag_70\n  jump\t// in\ntag_145:\n    /* \"#utility.yul\":4231:4315   */\n  swap4\n  pop\n    /* \"#utility.yul\":4033:4325   */\n  pop\n    /* \"#utility.yul\":4364:4366   */\n  0x40\n    /* \"#utility.yul\":4390:4454   */\n  tag_146\n    /* \"#utility.yul\":4446:4453   */\n  dup8\n    /* \"#utility.yul\":4437:4443   */\n  dup3\n    /* \"#utility.yul\":4426:4435   */\n  dup9\n    /* \"#utility.yul\":4422:4444   */\n  add\n    /* \"#utility.yul\":4390:4454   */\n  tag_73\n  jump\t// in\ntag_146:\n    /* \"#utility.yul\":4380:4454   */\n  swap3\n  pop\n    /* \"#utility.yul\":4335:4464   */\n  pop\n    /* \"#utility.yul\":4503:4505   */\n  0x60\n    /* \"#utility.yul\":4529:4591   */\n  tag_147\n    /* \"#utility.yul\":4583:4590   */\n  dup8\n    /* \"#utility.yul\":4574:4580   */\n  dup3\n    /* \"#utility.yul\":4563:4572   */\n  dup9\n    /* \"#utility.yul\":4559:4581   */\n  add\n    /* \"#utility.yul\":4529:4591   */\n  tag_76\n  jump\t// in\ntag_147:\n    /* \"#utility.yul\":4519:4591   */\n  swap2\n  pop\n    /* \"#utility.yul\":4474:4601   */\n  pop\n    /* \"#utility.yul\":3446:4608   */\n  swap3\n  swap6\n  swap2\n  swap5\n  pop\n  swap3\n  pop\n  jump\t// out\n    /* \"#utility.yul\":4614:4794   */\ntag_77:\n    /* \"#utility.yul\":4662:4739   */\n  0x4e487b7100000000000000000000000000000000000000000000000000000000\n    /* \"#utility.yul\":4659:4660   */\n  0x00\n    /* \"#utility.yul\":4652:4740   */\n  mstore\n    /* \"#utility.yul\":4759:4763   */\n  0x11\n    /* \"#utility.yul\":4756:4757   */\n  0x04\n    /* \"#utility.yul\":4749:4764   */\n  mstore\n    /* \"#utility.yul\":4783:4787   */\n  0x24\n    /* \"#utility.yul\":4780:4781   */\n  0x00\n    /* \"#utility.yul\":4773:4788   */\n  revert\n    /* \"#utility.yul\":4800:4902   */\ntag_78:\n    /* \"#utility.yul\":4842:4850   */\n  0x00\n    /* \"#utility.yul\":4889:4894   */\n  dup2\n    /* \"#utility.yul\":4886:4887   */\n  0x01\n    /* \"#utility.yul\":4882:4895   */\n  shr\n    /* \"#utility.yul\":4861:4895   */\n  swap1\n  pop\n    /* \"#utility.yul\":4800:4902   */\n  swap2\n  swap1\n  pop\n  jump\t// out\n    /* \"#utility.yul\":4908:5756   */\ntag_79:\n    /* \"#utility.yul\":4969:4974   */\n  0x00\n    /* \"#utility.yul\":4976:4980   */\n  dup1\n    /* \"#utility.yul\":5000:5006   */\n  dup3\n    /* \"#utility.yul\":4991:5006   */\n  swap2\n  pop\n    /* \"#utility.yul\":5024:5029   */\n  dup4\n    /* \"#utility.yul\":5015:5029   */\n  swap1\n  pop\n    /* \"#utility.yul\":5038:5750   */\ntag_151:\n    /* \"#utility.yul\":5059:5060   */\n  0x01\n    /* \"#utility.yul\":5049:5057   */\n  dup6\n    /* \"#utility.yul\":5046:5061   */\n  gt\n    /* \"#utility.yul\":5038:5750   */\n  iszero\n  tag_153\n  jumpi\n    /* \"#utility.yul\":5154:5158   */\n  dup1\n    /* \"#utility.yul\":5149:5152   */\n  dup7\n    /* \"#utility.yul\":5145:5159   */\n  div\n    /* \"#utility.yul\":5139:5143   */\n  dup2\n    /* \"#utility.yul\":5136:5160   */\n  gt\n    /* \"#utility.yul\":5133:5183   */\n  iszero\n  tag_154\n  jumpi\n    /* \"#utility.yul\":5163:5181   */\n  tag_155\n  tag_77\n  jump\t// in\ntag_155:\n    /* \"#utility.yul\":5133:5183   */\ntag_154:\n    /* \"#utility.yul\":5213:5214   */\n  0x01\n    /* \"#utility.yul\":5203:5211   */\n  dup6\n    /* \"#utility.yul\":5199:5215   */\n  and\n    /* \"#utility.yul\":5196:5647   */\n  iszero\n  tag_156\n  jumpi\n    /* \"#utility.yul\":5628:5632   */\n  dup1\n    /* \"#utility.yul\":5621:5626   */\n  dup3\n    /* \"#utility.yul\":5617:5633   */\n  mul\n    /* \"#utility.yul\":5608:5633   */\n  swap2\n  pop\n    /* \"#utility.yul\":5196:5647   */\ntag_156:\n    /* \"#utility.yul\":5678:5682   */\n  dup1\n    /* \"#utility.yul\":5672:5676   */\n  dup2\n    /* \"#utility.yul\":5668:5683   */\n  mul\n    /* \"#utility.yul\":5660:5683   */\n  swap1\n  pop\n    /* \"#utility.yul\":5708:5740   */\n  tag_157\n    /* \"#utility.yul\":5731:5739   */\n  dup6\n    /* \"#utility.yul\":5708:5740   */\n  tag_78\n  jump\t// in\ntag_157:\n    /* \"#utility.yul\":5696:5740   */\n  swap5\n  pop\n    /* \"#utility.yul\":5038:5750   */\n  jump(tag_151)\ntag_153:\n    /* \"#utility.yul\":4908:5756   */\n  swap5\n  pop\n  swap5\n  swap3\n  pop\n  pop\n  pop\n  jump\t// out\n    /* \"#utility.yul\":5762:6835   */\ntag_80:\n    /* \"#utility.yul\":5816:5821   */\n  0x00\n    /* \"#utility.yul\":6007:6015   */\n  dup3\n    /* \"#utility.yul\":5997:6037   */\n  tag_159\n  jumpi\n    /* \"#utility.yul\":6028:6029   */\n  0x01\n    /* \"#utility.yul\":6019:6029   */\n  swap1\n  pop\n    /* \"#utility.yul\":6030:6035   */\n  jump(tag_158)\n    /* \"#utility.yul\":5997:6037   */\ntag_159:\n    /* \"#utility.yul\":6056:6060   */\n  dup2\n    /* \"#utility.yul\":6046:6082   */\n  tag_160\n  jumpi\n    /* \"#utility.yul\":6073:6074   */\n  0x00\n    /* \"#utility.yul\":6064:6074   */\n  swap1\n  pop\n    /* \"#utility.yul\":6075:6080   */\n  jump(tag_158)\n    /* \"#utility.yul\":6046:6082   */\ntag_160:\n    /* \"#utility.yul\":6142:6146   */\n  dup2\n    /* \"#utility.yul\":6190:6191   */\n  0x01\n    /* \"#utility.yul\":6185:6212   */\n  dup2\n  eq\n  tag_162\n  jumpi\n    /* \"#utility.yul\":6226:6227   */\n  0x02\n    /* \"#utility.yul\":6221:6412   */\n  dup2\n  eq\n  tag_163\n  jumpi\n    /* \"#utility.yul\":6135:6412   */\n  jump(tag_161)\n    /* \"#utility.yul\":6185:6212   */\ntag_162:\n    /* \"#utility.yul\":6203:6204   */\n  0x01\n    /* \"#utility.yul\":6194:6204   */\n  swap2\n  pop\n    /* \"#utility.yul\":6205:6210   */\n  pop\n  jump(tag_158)\n    /* \"#utility.yul\":6221:6412   */\ntag_163:\n    /* \"#utility.yul\":6266:6269   */\n  0xff\n    /* \"#utility.yul\":6256:6264   */\n  dup5\n    /* \"#utility.yul\":6253:6270   */\n  gt\n    /* \"#utility.yul\":6250:6293   */\n  iszero\n  tag_164\n  jumpi\n    /* \"#utility.yul\":6273:6291   */\n  tag_165\n  tag_77\n  jump\t// in\ntag_165:\n    /* \"#utility.yul\":6250:6293   */\ntag_164:\n    /* \"#utility.yul\":6322:6330   */\n  dup4\n    /* \"#utility.yul\":6319:6320   */\n  0x02\n    /* \"#utility.yul\":6315:6331   */\n  exp\n    /* \"#utility.yul\":6306:6331   */\n  swap2\n  pop\n    /* \"#utility.yul\":6357:6360   */\n  dup5\n    /* \"#utility.yul\":6350:6355   */\n  dup3\n    /* \"#utility.yul\":6347:6361   */\n  gt\n    /* \"#utility.yul\":6344:6384   */\n  iszero\n  tag_166\n  jumpi\n    /* \"#utility.yul\":6364:6382   */\n  tag_167\n  tag_77\n  jump\t// in\ntag_167:\n    /* \"#utility.yul\":6344:6384   */\ntag_166:\n    /* \"#utility.yul\":6397:6402   */\n  pop\n  jump(tag_158)\n    /* \"#utility.yul\":6135:6412   */\ntag_161:\n  pop\n    /* \"#utility.yul\":6521:6523   */\n  0x20\n    /* \"#utility.yul\":6511:6519   */\n  dup4\n    /* \"#utility.yul\":6508:6524   */\n  lt\n    /* \"#utility.yul\":6502:6505   */\n  0x0133\n    /* \"#utility.yul\":6496:6500   */\n  dup4\n    /* \"#utility.yul\":6493:6506   */\n  lt\n    /* \"#utility.yul\":6489:6525   */\n  and\n    /* \"#utility.yul\":6471:6473   */\n  0x4e\n    /* \"#utility.yul\":6461:6469   */\n  dup5\n    /* \"#utility.yul\":6458:6474   */\n  lt\n    /* \"#utility.yul\":6453:6455   */\n  0x0b\n    /* \"#utility.yul\":6447:6451   */\n  dup5\n    /* \"#utility.yul\":6444:6456   */\n  lt\n    /* \"#utility.yul\":6440:6475   */\n  and\n    /* \"#utility.yul\":6424:6535   */\n  or\n    /* \"#utility.yul\":6421:6667   */\n  iszero\n  tag_168\n  jumpi\n    /* \"#utility.yul\":6577:6585   */\n  dup3\n    /* \"#utility.yul\":6571:6575   */\n  dup3\n    /* \"#utility.yul\":6567:6586   */\n  exp\n    /* \"#utility.yul\":6558:6586   */\n  swap1\n  pop\n    /* \"#utility.yul\":6612:6615   */\n  dup4\n    /* \"#utility.yul\":6605:6610   */\n  dup2\n    /* \"#utility.yul\":6602:6616   */\n  gt\n    /* \"#utility.yul\":6599:6639   */\n  iszero\n  tag_169\n  jumpi\n    /* \"#utility.yul\":6619:6637   */\n  tag_170\n  tag_77\n  jump\t// in\ntag_170:\n    /* \"#utility.yul\":6599:6639   */\ntag_169:\n    /* \"#utility.yul\":6652:6657   */\n  jump(tag_158)\n    /* \"#utility.yul\":6421:6667   */\ntag_168:\n    /* \"#utility.yul\":6692:6734   */\n  tag_171\n    /* \"#utility.yul\":6730:6733   */\n  dup5\n    /* \"#utility.yul\":6720:6728   */\n  dup5\n    /* \"#utility.yul\":6714:6718   */\n  dup5\n    /* \"#utility.yul\":6711:6712   */\n  0x01\n    /* \"#utility.yul\":6692:6734   */\n  tag_79\n  jump\t// in\ntag_171:\n    /* \"#utility.yul\":6677:6734   */\n  swap3\n  pop\n  swap1\n  pop\n    /* \"#utility.yul\":6766:6770   */\n  dup2\n    /* \"#utility.yul\":6761:6764   */\n  dup5\n    /* \"#utility.yul\":6757:6771   */\n  div\n    /* \"#utility.yul\":6750:6755   */\n  dup2\n    /* \"#utility.yul\":6747:6772   */\n  gt\n    /* \"#utility.yul\":6744:6795   */\n  iszero\n  tag_172\n  jumpi\n    /* \"#utility.yul\":6775:6793   */\n  tag_173\n  tag_77\n  jump\t// in\ntag_173:\n    /* \"#utility.yul\":6744:6795   */\ntag_172:\n    /* \"#utility.yul\":6824:6828   */\n  dup2\n    /* \"#utility.yul\":6817:6822   */\n  dup2\n    /* \"#utility.yul\":6813:6829   */\n  mul\n    /* \"#utility.yul\":6804:6829   */\n  swap1\n  pop\n    /* \"#utility.yul\":5762:6835   */\ntag_158:\n  swap4\n  swap3\n  pop\n  pop\n  pop\n  jump\t// out\n    /* \"#utility.yul\":6841:7122   */\ntag_12:\n    /* \"#utility.yul\":6899:6904   */\n  0x00\n    /* \"#utility.yul\":6923:6946   */\n  tag_175\n    /* \"#utility.yul\":6941:6945   */\n  dup3\n    /* \"#utility.yul\":6923:6946   */\n  tag_71\n  jump\t// in\ntag_175:\n    /* \"#utility.yul\":6915:6946   */\n  swap2\n  pop\n    /* \"#utility.yul\":6967:6992   */\n  tag_176\n    /* \"#utility.yul\":6983:6991   */\n  dup4\n    /* \"#utility.yul\":6967:6992   */\n  tag_74\n  jump\t// in\ntag_176:\n    /* \"#utility.yul\":6955:6992   */\n  swap3\n  pop\n    /* \"#utility.yul\":7011:7115   */\n  tag_177\n    /* \"#utility.yul\":7048:7114   */\n  0xffffffffffffffffffffffffffffffffffffffffffffffffffffffffffffffff\n    /* \"#utility.yul\":7038:7046   */\n  dup5\n    /* \"#utility.yul\":7032:7036   */\n  dup5\n    /* \"#utility.yul\":7011:7115   */\n  tag_80\n  jump\t// in\ntag_177:\n    /* \"#utility.yul\":7002:7115   */\n  swap1\n  pop\n    /* \"#utility.yul\":6841:7122   */\n  swap3\n  swap2\n  pop\n  pop\n  jump\t// out\n    /* \"#utility.yul\":7128:7476   */\ntag_14:\n    /* \"#utility.yul\":7168:7175   */\n  0x00\n    /* \"#utility.yul\":7191:7211   */\n  tag_179\n    /* \"#utility.yul\":7209:7210   */\n  dup3\n    /* \"#utility.yul\":7191:7211   */\n  tag_71\n  jump\t// in\ntag_179:\n    /* \"#utility.yul\":7186:7211   */\n  swap2\n  pop\n    /* \"#utility.yul\":7225:7245   */\n  tag_180\n    /* \"#utility.yul\":7243:7244   */\n  dup4\n    /* \"#utility.yul\":7225:7245   */\n  tag_71\n  jump\t// in\ntag_180:\n    /* \"#utility.yul\":7220:7245   */\n  swap3\n  pop\n    /* \"#utility.yul\":7413:7414   */\n  dup2\n    /* \"#utility.yul\":7345:7411   */\n  0xffffffffffffffffffffffffffffffffffffffffffffffffffffffffffffffff\n    /* \"#utility.yul\":7341:7415   */\n  div\n    /* \"#utility.yul\":7338:7339   */\n  dup4\n    /* \"#utility.yul\":7335:7416   */\n  gt\n    /* \"#utility.yul\":7330:7331   */\n  dup3\n    /* \"#utility.yul\":7323:7332   */\n  iszero\n    /* \"#utility.yul\":7316:7333   */\n  iszero\n    /* \"#utility.yul\":7312:7417   */\n  and\n    /* \"#utility.yul\":7309:7440   */\n  iszero\n  tag_181\n  jumpi\n    /* \"#utility.yul\":7420:7438   */\n  tag_182\n  tag_77\n  jump\t// in\ntag_182:\n    /* \"#utility.yul\":7309:7440   */\ntag_181:\n    /* \"#utility.yul\":7468:7469   */\n  dup3\n    /* \"#utility.yul\":7465:7466   */\n  dup3\n    /* \"#utility.yul\":7461:7470   */\n  mul\n    /* \"#utility.yul\":7450:7470   */\n  swap1\n  pop\n    /* \"#utility.yul\":7128:7476   */\n  swap3\n  swap2\n  pop\n  pop\n  jump\t// out\n    /* \"#utility.yul\":7482:7608   */\ntag_81:\n    /* \"#utility.yul\":7519:7526   */\n  0x00\n    /* \"#utility.yul\":7559:7601   */\n  0xffffffffffffffffffffffffffffffffffffffff\n    /* \"#utility.yul\":7552:7557   */\n  dup3\n    /* \"#utility.yul\":7548:7602   */\n  and\n    /* \"#utility.yul\":7537:7602   */\n  swap1\n  pop\n    /* \"#utility.yul\":7482:7608   */\n  swap2\n  swap1\n  pop\n  jump\t// out\n    /* \"#utility.yul\":7614:7710   */\ntag_82:\n    /* \"#utility.yul\":7651:7658   */\n  0x00\n    /* \"#utility.yul\":7680:7704   */\n  tag_185\n    /* \"#utility.yul\":7698:7703   */\n  dup3\n    /* \"#utility.yul\":7680:7704   */\n  tag_81\n  jump\t// in\ntag_185:\n    /* \"#utility.yul\":7669:7704   */\n  swap1\n  pop\n    /* \"#utility.yul\":7614:7710   */\n  swap2\n  swap1\n  pop\n  jump\t// out\n    /* \"#utility.yul\":7716:7834   */\ntag_83:\n    /* \"#utility.yul\":7803:7827   */\n  tag_187\n    /* \"#utility.yul\":7821:7826   */\n  dup2\n    /* \"#utility.yul\":7803:7827   */\n  tag_82\n  jump\t// in\ntag_187:\n    /* \"#utility.yul\":7798:7801   */\n  dup3\n    /* \"#utility.yul\":7791:7828   */\n  mstore\n    /* \"#utility.yul\":7716:7834   */\n  pop\n  pop\n  jump\t// out\n    /* \"#utility.yul\":7840:7958   */\ntag_84:\n    /* \"#utility.yul\":7927:7951   */\n  tag_189\n    /* \"#utility.yul\":7945:7950   */\n  dup2\n    /* \"#utility.yul\":7927:7951   */\n  tag_71\n  jump\t// in\ntag_189:\n    /* \"#utility.yul\":7922:7925   */\n  dup3\n    /* \"#utility.yul\":7915:7952   */\n  mstore\n    /* \"#utility.yul\":7840:7958   */\n  pop\n  pop\n  jump\t// out\n    /* \"#utility.yul\":7964:8296   */\ntag_22:\n    /* \"#utility.yul\":8085:8089   */\n  0x00\n    /* \"#utility.yul\":8123:8125   */\n  0x40\n    /* \"#utility.yul\":8112:8121   */\n  dup3\n    /* \"#utility.yul\":8108:8126   */\n  add\n    /* \"#utility.yul\":8100:8126   */\n  swap1\n  pop\n    /* \"#utility.yul\":8136:8207   */\n  tag_191\n    /* \"#utility.yul\":8204:8205   */\n  0x00\n    /* \"#utility.yul\":8193:8202   */\n  dup4\n    /* \"#utility.yul\":8189:8206   */\n  add\n    /* \"#utility.yul\":8180:8186   */\n  dup6\n    /* \"#utility.yul\":8136:8207   */\n  tag_83\n  jump\t// in\ntag_191:\n    /* \"#utility.yul\":8217:8289   */\n  tag_192\n    /* \"#utility.yul\":8285:8287   */\n  0x20\n    /* \"#utility.yul\":8274:8283   */\n  dup4\n    /* \"#utility.yul\":8270:8288   */\n  add\n    /* \"#utility.yul\":8261:8267   */\n  dup5\n    /* \"#utility.yul\":8217:8289   */\n  tag_84\n  jump\t// in\ntag_192:\n    /* \"#utility.yul\":7964:8296   */\n  swap4\n  swap3\n  pop\n  pop\n  pop\n  jump\t// out\n    /* \"#utility.yul\":8302:8471   */\ntag_85:\n    /* \"#utility.yul\":8386:8397   */\n  0x00\n    /* \"#utility.yul\":8420:8426   */\n  dup3\n    /* \"#utility.yul\":8415:8418   */\n  dup3\n    /* \"#utility.yul\":8408:8427   */\n  mstore\n    /* \"#utility.yul\":8460:8464   */\n  0x20\n    /* \"#utility.yul\":8455:8458   */\n  dup3\n    /* \"#utility.yul\":8451:8465   */\n  add\n    /* \"#utility.yul\":8436:8465   */\n  swap1\n  pop\n    /* \"#utility.yul\":8302:8471   */\n  swap3\n  swap2\n  pop\n  pop\n  jump\t// out\n    /* \"#utility.yul\":8477:8658   */\ntag_86:\n    /* \"#utility.yul\":8617:8650   */\n  0x45524332303a206d696e7420746f20746865207a65726f206164647265737300\n    /* \"#utility.yul\":8613:8614   */\n  0x00\n    /* \"#utility.yul\":8605:8611   */\n  dup3\n    /* \"#utility.yul\":8601:8615   */\n  add\n    /* \"#utility.yul\":8594:8651   */\n  mstore\n    /* \"#utility.yul\":8477:8658   */\n  pop\n  jump\t// out\n    /* \"#utility.yul\":8664:9030   */\ntag_87:\n    /* \"#utility.yul\":8806:8809   */\n  0x00\n    /* \"#utility.yul\":8827:8894   */\n  tag_196\n    /* \"#utility.yul\":8891:8893   */\n  0x1f\n    /* \"#utility.yul\":8886:8889   */\n  dup4\n    /* \"#utility.yul\":8827:8894   */\n  tag_85\n  jump\t// in\ntag_196:\n    /* \"#utility.yul\":8820:8894   */\n  swap2\n  pop\n    /* \"#utility.yul\":8903:8996   */\n  tag_197\n    /* \"#utility.yul\":8992:8995   */\n  dup3\n    /* \"#utility.yul\":8903:8996   */\n  tag_86\n  jump\t// in\ntag_197:\n    /* \"#utility.yul\":9021:9023   */\n  0x20\n    /* \"#utility.yul\":9016:9019   */\n  dup3\n    /* \"#utility.yul\":9012:9024   */\n  add\n    /* \"#utility.yul\":9005:9024   */\n  swap1\n  pop\n    /* \"#utility.yul\":8664:9030   */\n  swap2\n  swap1\n  pop\n  jump\t// out\n    /* \"#utility.yul\":9036:9455   */\ntag_29:\n    /* \"#utility.yul\":9202:9206   */\n  0x00\n    /* \"#utility.yul\":9240:9242   */\n  0x20\n    /* \"#utility.yul\":9229:9238   */\n  dup3\n    /* \"#utility.yul\":9225:9243   */\n  add\n    /* \"#utility.yul\":9217:9243   */\n  swap1\n  pop\n    /* \"#utility.yul\":9289:9298   */\n  dup2\n    /* \"#utility.yul\":9283:9287   */\n  dup2\n    /* \"#utility.yul\":9279:9299   */\n  sub\n    /* \"#utility.yul\":9275:9276   */\n  0x00\n    /* \"#utility.yul\":9264:9273   */\n  dup4\n    /* \"#utility.yul\":9260:9277   */\n  add\n    /* \"#utility.yul\":9253:9300   */\n  mstore\n    /* \"#utility.yul\":9317:9448   */\n  tag_199\n    /* \"#utility.yul\":9443:9447   */\n  dup2\n    /* \"#utility.yul\":9317:9448   */\n  tag_87\n  jump\t// in\ntag_199:\n    /* \"#utility.yul\":9309:9448   */\n  swap1\n  pop\n    /* \"#utility.yul\":9036:9455   */\n  swap2\n  swap1\n  pop\n  jump\t// out\n    /* \"#utility.yul\":9461:9766   */\ntag_33:\n    /* \"#utility.yul\":9501:9504   */\n  0x00\n    /* \"#utility.yul\":9520:9540   */\n  tag_201\n    /* \"#utility.yul\":9538:9539   */\n  dup3\n    /* \"#utility.yul\":9520:9540   */\n  tag_71\n  jump\t// in\ntag_201:\n    /* \"#utility.yul\":9515:9540   */\n  swap2\n  pop\n    /* \"#utility.yul\":9554:9574   */\n  tag_202\n    /* \"#utility.yul\":9572:9573   */\n  dup4\n    /* \"#utility.yul\":9554:9574   */\n  tag_71\n  jump\t// in\ntag_202:\n    /* \"#utility.yul\":9549:9574   */\n  swap3\n  pop\n    /* \"#utility.yul\":9708:9709   */\n  dup3\n    /* \"#utility.yul\":9640:9706   */\n  0xffffffffffffffffffffffffffffffffffffffffffffffffffffffffffffffff\n    /* \"#utility.yul\":9636:9710   */\n  sub\n    /* \"#utility.yul\":9633:9634   */\n  dup3\n    /* \"#utility.yul\":9630:9711   */\n  gt\n    /* \"#utility.yul\":9627:9734   */\n  iszero\n  tag_203\n  jumpi\n    /* \"#utility.yul\":9714:9732   */\n  tag_204\n  tag_77\n  jump\t// in\ntag_204:\n    /* \"#utility.yul\":9627:9734   */\ntag_203:\n    /* \"#utility.yul\":9758:9759   */\n  dup3\n    /* \"#utility.yul\":9755:9756   */\n  dup3\n    /* \"#utility.yul\":9751:9760   */\n  add\n    /* \"#utility.yul\":9744:9760   */\n  swap1\n  pop\n    /* \"#utility.yul\":9461:9766   */\n  swap3\n  swap2\n  pop\n  pop\n  jump\t// out\n    /* \"#utility.yul\":9772:9994   */\ntag_36:\n    /* \"#utility.yul\":9865:9869   */\n  0x00\n    /* \"#utility.yul\":9903:9905   */\n  0x20\n    /* \"#utility.yul\":9892:9901   */\n  dup3\n    /* \"#utility.yul\":9888:9906   */\n  add\n    /* \"#utility.yul\":9880:9906   */\n  swap1\n  pop\n    /* \"#utility.yul\":9916:9987   */\n  tag_206\n    /* \"#utility.yul\":9984:9985   */\n  0x00\n    /* \"#utility.yul\":9973:9982   */\n  dup4\n    /* \"#utility.yul\":9969:9986   */\n  add\n    /* \"#utility.yul\":9960:9966   */\n  dup5\n    /* \"#utility.yul\":9916:9987   */\n  tag_84\n  jump\t// in\ntag_206:\n    /* \"#utility.yul\":9772:9994   */\n  swap3\n  swap2\n  pop\n  pop\n  jump\t// out\n    /* \"#utility.yul\":10000:10168   */\ntag_88:\n    /* \"#utility.yul\":10140:10160   */\n  0x7573657220616c72656164792065786973740000000000000000000000000000\n    /* \"#utility.yul\":10136:10137   */\n  0x00\n    /* \"#utility.yul\":10128:10134   */\n  dup3\n    /* \"#utility.yul\":10124:10138   */\n  add\n    /* \"#utility.yul\":10117:10161   */\n  mstore\n    /* \"#utility.yul\":10000:10168   */\n  pop\n  jump\t// out\n    /* \"#utility.yul\":10174:10540   */\ntag_89:\n    /* \"#utility.yul\":10316:10319   */\n  0x00\n    /* \"#utility.yul\":10337:10404   */\n  tag_209\n    /* \"#utility.yul\":10401:10403   */\n  0x12\n    /* \"#utility.yul\":10396:10399   */\n  dup4\n    /* \"#utility.yul\":10337:10404   */\n  tag_85\n  jump\t// in\ntag_209:\n    /* \"#utility.yul\":10330:10404   */\n  swap2\n  pop\n    /* \"#utility.yul\":10413:10506   */\n  tag_210\n    /* \"#utility.yul\":10502:10505   */\n  dup3\n    /* \"#utility.yul\":10413:10506   */\n  tag_88\n  jump\t// in\ntag_210:\n    /* \"#utility.yul\":10531:10533   */\n  0x20\n    /* \"#utility.yul\":10526:10529   */\n  dup3\n    /* \"#utility.yul\":10522:10534   */\n  add\n    /* \"#utility.yul\":10515:10534   */\n  swap1\n  pop\n    /* \"#utility.yul\":10174:10540   */\n  swap2\n  swap1\n  pop\n  jump\t// out\n    /* \"#utility.yul\":10546:10965   */\ntag_42:\n    /* \"#utility.yul\":10712:10716   */\n  0x00\n    /* \"#utility.yul\":10750:10752   */\n  0x20\n    /* \"#utility.yul\":10739:10748   */\n  dup3\n    /* \"#utility.yul\":10735:10753   */\n  add\n    /* \"#utility.yul\":10727:10753   */\n  swap1\n  pop\n    /* \"#utility.yul\":10799:10808   */\n  dup2\n    /* \"#utility.yul\":10793:10797   */\n  dup2\n    /* \"#utility.yul\":10789:10809   */\n  sub\n    /* \"#utility.yul\":10785:10786   */\n  0x00\n    /* \"#utility.yul\":10774:10783   */\n  dup4\n    /* \"#utility.yul\":10770:10787   */\n  add\n    /* \"#utility.yul\":10763:10810   */\n  mstore\n    /* \"#utility.yul\":10827:10958   */\n  tag_212\n    /* \"#utility.yul\":10953:10957   */\n  dup2\n    /* \"#utility.yul\":10827:10958   */\n  tag_89\n  jump\t// in\ntag_212:\n    /* \"#utility.yul\":10819:10958   */\n  swap1\n  pop\n    /* \"#utility.yul\":10546:10965   */\n  swap2\n  swap1\n  pop\n  jump\t// out\n    /* \"#utility.yul\":10971:11204   */\ntag_44:\n    /* \"#utility.yul\":11010:11013   */\n  0x00\n    /* \"#utility.yul\":11033:11057   */\n  tag_214\n    /* \"#utility.yul\":11051:11056   */\n  dup3\n    /* \"#utility.yul\":11033:11057   */\n  tag_71\n  jump\t// in\ntag_214:\n    /* \"#utility.yul\":11024:11057   */\n  swap2\n  pop\n    /* \"#utility.yul\":11079:11145   */\n  0xffffffffffffffffffffffffffffffffffffffffffffffffffffffffffffffff\n    /* \"#utility.yul\":11072:11077   */\n  dup3\n    /* \"#utility.yul\":11069:11146   */\n  sub\n    /* \"#utility.yul\":11066:11169   */\n  tag_215\n  jumpi\n    /* \"#utility.yul\":11149:11167   */\n  tag_216\n  tag_77\n  jump\t// in\ntag_216:\n    /* \"#utility.yul\":11066:11169   */\ntag_215:\n    /* \"#utility.yul\":11196:11197   */\n  0x01\n    /* \"#utility.yul\":11189:11194   */\n  dup3\n    /* \"#utility.yul\":11185:11198   */\n  add\n    /* \"#utility.yul\":11178:11198   */\n  swap1\n  pop\n    /* \"#utility.yul\":10971:11204   */\n  swap2\n  swap1\n  pop\n  jump\t// out\n    /* \"#utility.yul\":11210:11390   */\ntag_90:\n    /* \"#utility.yul\":11258:11335   */\n  0x4e487b7100000000000000000000000000000000000000000000000000000000\n    /* \"#utility.yul\":11255:11256   */\n  0x00\n    /* \"#utility.yul\":11248:11336   */\n  mstore\n    /* \"#utility.yul\":11355:11359   */\n  0x22\n    /* \"#utility.yul\":11352:11353   */\n  0x04\n    /* \"#utility.yul\":11345:11360   */\n  mstore\n    /* \"#utility.yul\":11379:11383   */\n  0x24\n    /* \"#utility.yul\":11376:11377   */\n  0x00\n    /* \"#utility.yul\":11369:11384   */\n  revert\n    /* \"#utility.yul\":11396:11716   */\ntag_48:\n    /* \"#utility.yul\":11440:11446   */\n  0x00\n    /* \"#utility.yul\":11477:11478   */\n  0x02\n    /* \"#utility.yul\":11471:11475   */\n  dup3\n    /* \"#utility.yul\":11467:11479   */\n  div\n    /* \"#utility.yul\":11457:11479   */\n  swap1\n  pop\n    /* \"#utility.yul\":11524:11525   */\n  0x01\n    /* \"#utility.yul\":11518:11522   */\n  dup3\n    /* \"#utility.yul\":11514:11526   */\n  and\n    /* \"#utility.yul\":11545:11563   */\n  dup1\n    /* \"#utility.yul\":11535:11616   */\n  tag_219\n  jumpi\n    /* \"#utility.yul\":11601:11605   */\n  0x7f\n    /* \"#utility.yul\":11593:11599   */\n  dup3\n    /* \"#utility.yul\":11589:11606   */\n  and\n    /* \"#utility.yul\":11579:11606   */\n  swap2\n  pop\n    /* \"#utility.yul\":11535:11616   */\ntag_219:\n    /* \"#utility.yul\":11663:11665   */\n  0x20\n    /* \"#utility.yul\":11655:11661   */\n  dup3\n    /* \"#utility.yul\":11652:11666   */\n  lt\n    /* \"#utility.yul\":11632:11650   */\n  dup2\n    /* \"#utility.yul\":11629:11667   */\n  sub\n    /* \"#utility.yul\":11626:11710   */\n  tag_220\n  jumpi\n    /* \"#utility.yul\":11682:11700   */\n  tag_221\n  tag_90\n  jump\t// in\ntag_221:\n    /* \"#utility.yul\":11626:11710   */\ntag_220:\n    /* \"#utility.yul\":11447:11716   */\n  pop\n    /* \"#utility.yul\":11396:11716   */\n  swap2\n  swap1\n  pop\n  jump\t// out\n    /* \"Documents/GitHub/XRC-20Plus/contracts/XRC20Plus.sol\":2412:6357  contract Plus is ERC20, Plus_Interface {... */\ntag_25:\n  dataSize(sub_0)\n  dup1\n  dataOffset(sub_0)\n  0x00\n  codecopy\n  0x00\n  return\nstop\n\nsub_0: assembly {\n        /* \"Documents/GitHub/XRC-20Plus/contracts/XRC20Plus.sol\":2412:6357  contract Plus is ERC20, Plus_Interface {... */\n      mstore(0x40, 0x80)\n      jumpi(tag_1, lt(calldatasize, 0x04))\n      shr(0xe0, calldataload(0x00))\n      dup1\n      0x70a08231\n      gt\n      tag_22\n      jumpi\n      dup1\n      0xa457c2d7\n      gt\n      tag_23\n      jumpi\n      dup1\n      0xa457c2d7\n      eq\n      tag_17\n      jumpi\n      dup1\n      0xa9059cbb\n      eq\n      tag_18\n      jumpi\n      dup1\n      0xadd1603e\n      eq\n      tag_19\n      jumpi\n      dup1\n      0xd95402e7\n      eq\n      tag_20\n      jumpi\n      dup1\n      0xdd62ed3e\n      eq\n      tag_21\n      jumpi\n      jump(tag_2)\n    tag_23:\n      dup1\n      0x70a08231\n      eq\n      tag_12\n      jumpi\n      dup1\n      0x8ac8bbca\n      eq\n      tag_13\n      jumpi\n      dup1\n      0x948dec44\n      eq\n      tag_14\n      jumpi\n      dup1\n      0x95d89b41\n      eq\n      tag_15\n      jumpi\n      dup1\n      0x9a29e6aa\n      eq\n      tag_16\n      jumpi\n      jump(tag_2)\n    tag_22:\n      dup1\n      0x18160ddd\n      gt\n      tag_24\n      jumpi\n      dup1\n      0x18160ddd\n      eq\n      tag_7\n      jumpi\n      dup1\n      0x23b872dd\n      eq\n      tag_8\n      jumpi\n      dup1\n      0x313ce567\n      eq\n      tag_9\n      jumpi\n      dup1\n      0x39509351\n      eq\n      tag_10\n      jumpi\n      dup1\n      0x5e5c06e2\n      eq\n      tag_11\n      jumpi\n      jump(tag_2)\n    tag_24:\n      dup1\n      0x06fdde03\n      eq\n      tag_3\n      jumpi\n      dup1\n      0x095ea7b3\n      eq\n      tag_4\n      jumpi\n      dup1\n      0x0ef67887\n      eq\n      tag_5\n      jumpi\n      dup1\n      0x10a7fd7b\n      eq\n      tag_6\n      jumpi\n      jump(tag_2)\n    tag_1:\n      jumpi(tag_2, calldatasize)\n      stop\n    tag_2:\n        /* \"Documents/GitHub/XRC-20Plus/contracts/XRC20Plus.sol\":6240:6241  0 */\n      0x00\n        /* \"Documents/GitHub/XRC-20Plus/contracts/XRC20Plus.sol\":6230:6239  msg.value */\n      callvalue\n        /* \"Documents/GitHub/XRC-20Plus/contracts/XRC20Plus.sol\":6230:6241  msg.value>0 */\n      gt\n        /* \"Documents/GitHub/XRC-20Plus/contracts/XRC20Plus.sol\":6227:6309  if(msg.value>0){... */\n      iszero\n      tag_29\n      jumpi\n        /* \"Documents/GitHub/XRC-20Plus/contracts/XRC20Plus.sol\":6272:6276  this */\n      address\n        /* \"Documents/GitHub/XRC-20Plus/contracts/XRC20Plus.sol\":6256:6287  payable(address(this)).transfer */\n      0xffffffffffffffffffffffffffffffffffffffff\n      and\n        /* \"Documents/GitHub/XRC-20Plus/contracts/XRC20Plus.sol\":6256:6298  payable(address(this)).transfer(msg.value) */\n      0x08fc\n        /* \"Documents/GitHub/XRC-20Plus/contracts/XRC20Plus.sol\":6288:6297  msg.value */\n      callvalue\n        /* \"Documents/GitHub/XRC-20Plus/contracts/XRC20Plus.sol\":6256:6298  payable(address(this)).transfer(msg.value) */\n      swap1\n      dup2\n      iszero\n      mul\n      swap1\n      mload(0x40)\n      0x00\n      mload(0x40)\n      dup1\n      dup4\n      sub\n      dup2\n      dup6\n      dup9\n      dup9\n      call\n      swap4\n      pop\n      pop\n      pop\n      pop\n      iszero\n      dup1\n      iszero\n      tag_31\n      jumpi\n      returndatasize\n      0x00\n      dup1\n      returndatacopy\n      revert(0x00, returndatasize)\n    tag_31:\n      pop\n        /* \"Documents/GitHub/XRC-20Plus/contracts/XRC20Plus.sol\":6227:6309  if(msg.value>0){... */\n    tag_29:\n        /* \"Documents/GitHub/XRC-20Plus/contracts/XRC20Plus.sol\":2412:6357  contract Plus is ERC20, Plus_Interface {... */\n      stop\n        /* \"@openzeppelin/contracts/token/ERC20/ERC20.sol\":2141:2239  function name() public view virtual override returns (string memory) {... */\n    tag_3:\n      callvalue\n      dup1\n      iszero\n      tag_32\n      jumpi\n      0x00\n      dup1\n      revert\n    tag_32:\n      pop\n      tag_33\n      tag_34\n      jump\t// in\n    tag_33:\n      mload(0x40)\n      tag_35\n      swap2\n      swap1\n      tag_36\n      jump\t// in\n    tag_35:\n      mload(0x40)\n      dup1\n      swap2\n      sub\n      swap1\n      return\n        /* \"@openzeppelin/contracts/token/ERC20/ERC20.sol\":4238:4404  function approve(address spender, uint256 amount) public virtual override returns (bool) {... */\n    tag_4:\n      callvalue\n      dup1\n      iszero\n      tag_37\n      jumpi\n      0x00\n      dup1\n      revert\n    tag_37:\n      pop\n      tag_38\n      0x04\n      dup1\n      calldatasize\n      sub\n      dup2\n      add\n      swap1\n      tag_39\n      swap2\n      swap1\n      tag_40\n      jump\t// in\n    tag_39:\n      tag_41\n      jump\t// in\n    tag_38:\n      mload(0x40)\n      tag_42\n      swap2\n      swap1\n      tag_43\n      jump\t// in\n    tag_42:\n      mload(0x40)\n      dup1\n      swap2\n      sub\n      swap1\n      return\n        /* \"Documents/GitHub/XRC-20Plus/contracts/XRC20Plus.sol\":4391:4484  function Balance() public view returns(uint256) {... */\n    tag_5:\n      callvalue\n      dup1\n      iszero\n      tag_44\n      jumpi\n      0x00\n      dup1\n      revert\n    tag_44:\n      pop\n      tag_45\n      tag_46\n      jump\t// in\n    tag_45:\n      mload(0x40)\n      tag_47\n      swap2\n      swap1\n      tag_48\n      jump\t// in\n    tag_47:\n      mload(0x40)\n      dup1\n      swap2\n      sub\n      swap1\n      return\n        /* \"Documents/GitHub/XRC-20Plus/contracts/XRC20Plus.sol\":2775:2819  mapping (uint => micro_ledger) public ledger */\n    tag_6:\n      callvalue\n      dup1\n      iszero\n      tag_49\n      jumpi\n      0x00\n      dup1\n      revert\n    tag_49:\n      pop\n      tag_50\n      0x04\n      dup1\n      calldatasize\n      sub\n      dup2\n      add\n      swap1\n      tag_51\n      swap2\n      swap1\n      tag_52\n      jump\t// in\n    tag_51:\n      tag_53\n      jump\t// in\n    tag_50:\n      mload(0x40)\n      tag_54\n      swap3\n      swap2\n      swap1\n      tag_55\n      jump\t// in\n    tag_54:\n      mload(0x40)\n      dup1\n      swap2\n      sub\n      swap1\n      return\n        /* \"@openzeppelin/contracts/token/ERC20/ERC20.sol\":3229:3335  function totalSupply() public view virtual override returns (uint256) {... */\n    tag_7:\n      callvalue\n      dup1\n      iszero\n      tag_56\n      jumpi\n      0x00\n      dup1\n      revert\n    tag_56:\n      pop\n      tag_57\n      tag_58\n      jump\t// in\n    tag_57:\n      mload(0x40)\n      tag_59\n      swap2\n      swap1\n      tag_48\n      jump\t// in\n    tag_59:\n      mload(0x40)\n      dup1\n      swap2\n      sub\n      swap1\n      return\n        /* \"@openzeppelin/contracts/token/ERC20/ERC20.sol\":4871:5349  function transferFrom(... */\n    tag_8:\n      callvalue\n      dup1\n      iszero\n      tag_60\n      jumpi\n      0x00\n      dup1\n      revert\n    tag_60:\n      pop\n      tag_61\n      0x04\n      dup1\n      calldatasize\n      sub\n      dup2\n      add\n      swap1\n      tag_62\n      swap2\n      swap1\n      tag_63\n      jump\t// in\n    tag_62:\n      tag_64\n      jump\t// in\n    tag_61:\n      mload(0x40)\n      tag_65\n      swap2\n      swap1\n      tag_43\n      jump\t// in\n    tag_65:\n      mload(0x40)\n      dup1\n      swap2\n      sub\n      swap1\n      return\n        /* \"@openzeppelin/contracts/token/ERC20/ERC20.sol\":3078:3169  function decimals() public view virtual override returns (uint8) {... */\n    tag_9:\n      callvalue\n      dup1\n      iszero\n      tag_66\n      jumpi\n      0x00\n      dup1\n      revert\n    tag_66:\n      pop\n      tag_67\n      tag_68\n      jump\t// in\n    tag_67:\n      mload(0x40)\n      tag_69\n      swap2\n      swap1\n      tag_70\n      jump\t// in\n    tag_69:\n      mload(0x40)\n      dup1\n      swap2\n      sub\n      swap1\n      return\n        /* \"@openzeppelin/contracts/token/ERC20/ERC20.sol\":5744:5956  function increaseAllowance(address spender, uint256 addedValue) public virtual returns (bool) {... */\n    tag_10:\n      callvalue\n      dup1\n      iszero\n      tag_71\n      jumpi\n      0x00\n      dup1\n      revert\n    tag_71:\n      pop\n      tag_72\n      0x04\n      dup1\n      calldatasize\n      sub\n      dup2\n      add\n      swap1\n      tag_73\n      swap2\n      swap1\n      tag_40\n      jump\t// in\n    tag_73:\n      tag_74\n      jump\t// in\n    tag_72:\n      mload(0x40)\n      tag_75\n      swap2\n      swap1\n      tag_43\n      jump\t// in\n    tag_75:\n      mload(0x40)\n      dup1\n      swap2\n      sub\n      swap1\n      return\n        /* \"Documents/GitHub/XRC-20Plus/contracts/XRC20Plus.sol\":2724:2769  mapping (address => Accounts) public accounts */\n    tag_11:\n      callvalue\n      dup1\n      iszero\n      tag_76\n      jumpi\n      0x00\n      dup1\n      revert\n    tag_76:\n      pop\n      tag_77\n      0x04\n      dup1\n      calldatasize\n      sub\n      dup2\n      add\n      swap1\n      tag_78\n      swap2\n      swap1\n      tag_79\n      jump\t// in\n    tag_78:\n      tag_80\n      jump\t// in\n    tag_77:\n      mload(0x40)\n      tag_81\n      swap3\n      swap2\n      swap1\n      tag_82\n      jump\t// in\n    tag_81:\n      mload(0x40)\n      dup1\n      swap2\n      sub\n      swap1\n      return\n        /* \"@openzeppelin/contracts/token/ERC20/ERC20.sol\":3393:3518  function balanceOf(address account) public view virtual override returns (uint256) {... */\n    tag_12:\n      callvalue\n      dup1\n      iszero\n      tag_83\n      jumpi\n      0x00\n      dup1\n      revert\n    tag_83:\n      pop\n      tag_84\n      0x04\n      dup1\n      calldatasize\n      sub\n      dup2\n      add\n      swap1\n      tag_85\n      swap2\n      swap1\n      tag_79\n      jump\t// in\n    tag_85:\n      tag_86\n      jump\t// in\n    tag_84:\n      mload(0x40)\n      tag_87\n      swap2\n      swap1\n      tag_48\n      jump\t// in\n    tag_87:\n      mload(0x40)\n      dup1\n      swap2\n      sub\n      swap1\n      return\n        /* \"Documents/GitHub/XRC-20Plus/contracts/XRC20Plus.sol\":4183:4358  function View_Account() public view returns(uint){... */\n    tag_13:\n      callvalue\n      dup1\n      iszero\n      tag_88\n      jumpi\n      0x00\n      dup1\n      revert\n    tag_88:\n      pop\n      tag_89\n      tag_90\n      jump\t// in\n    tag_89:\n      mload(0x40)\n      tag_91\n      swap2\n      swap1\n      tag_48\n      jump\t// in\n    tag_91:\n      mload(0x40)\n      dup1\n      swap2\n      sub\n      swap1\n      return\n        /* \"Documents/GitHub/XRC-20Plus/contracts/XRC20Plus.sol\":3843:4135  function Register_Account() public returns(bool){... */\n    tag_14:\n      callvalue\n      dup1\n      iszero\n      tag_92\n      jumpi\n      0x00\n      dup1\n      revert\n    tag_92:\n      pop\n      tag_93\n      tag_94\n      jump\t// in\n    tag_93:\n      mload(0x40)\n      tag_95\n      swap2\n      swap1\n      tag_43\n      jump\t// in\n    tag_95:\n      mload(0x40)\n      dup1\n      swap2\n      sub\n      swap1\n      return\n        /* \"@openzeppelin/contracts/token/ERC20/ERC20.sol\":2352:2454  function symbol() public view virtual override returns (string memory) {... */\n    tag_15:\n      callvalue\n      dup1\n      iszero\n      tag_96\n      jumpi\n      0x00\n      dup1\n      revert\n    tag_96:\n      pop\n      tag_97\n      tag_98\n      jump\t// in\n    tag_97:\n      mload(0x40)\n      tag_99\n      swap2\n      swap1\n      tag_36\n      jump\t// in\n    tag_99:\n      mload(0x40)\n      dup1\n      swap2\n      sub\n      swap1\n      return\n        /* \"Documents/GitHub/XRC-20Plus/contracts/XRC20Plus.sol\":4555:5391  function Accept_From_CoinBank(uint _singleShard)public payable CoinBankOnly{... */\n    tag_16:\n      tag_100\n      0x04\n      dup1\n      calldatasize\n      sub\n      dup2\n      add\n      swap1\n      tag_101\n      swap2\n      swap1\n      tag_52\n      jump\t// in\n    tag_101:\n      tag_102\n      jump\t// in\n    tag_100:\n      stop\n        /* \"@openzeppelin/contracts/token/ERC20/ERC20.sol\":6443:6848  function decreaseAllowance(address spender, uint256 subtractedValue) public virtual returns (bool) {... */\n    tag_17:\n      callvalue\n      dup1\n      iszero\n      tag_103\n      jumpi\n      0x00\n      dup1\n      revert\n    tag_103:\n      pop\n      tag_104\n      0x04\n      dup1\n      calldatasize\n      sub\n      dup2\n      add\n      swap1\n      tag_105\n      swap2\n      swap1\n      tag_40\n      jump\t// in\n    tag_105:\n      tag_106\n      jump\t// in\n    tag_104:\n      mload(0x40)\n      tag_107\n      swap2\n      swap1\n      tag_43\n      jump\t// in\n    tag_107:\n      mload(0x40)\n      dup1\n      swap2\n      sub\n      swap1\n      return\n        /* \"@openzeppelin/contracts/token/ERC20/ERC20.sol\":3721:3893  function transfer(address recipient, uint256 amount) public virtual override returns (bool) {... */\n    tag_18:\n      callvalue\n      dup1\n      iszero\n      tag_108\n      jumpi\n      0x00\n      dup1\n      revert\n    tag_108:\n      pop\n      tag_109\n      0x04\n      dup1\n      calldatasize\n      sub\n      dup2\n      add\n      swap1\n      tag_110\n      swap2\n      swap1\n      tag_40\n      jump\t// in\n    tag_110:\n      tag_111\n      jump\t// in\n    tag_109:\n      mload(0x40)\n      tag_112\n      swap2\n      swap1\n      tag_43\n      jump\t// in\n    tag_112:\n      mload(0x40)\n      dup1\n      swap2\n      sub\n      swap1\n      return\n        /* \"Documents/GitHub/XRC-20Plus/contracts/XRC20Plus.sol\":2854:2889  CoinBank[] public CoinBank_Contract */\n    tag_19:\n      callvalue\n      dup1\n      iszero\n      tag_113\n      jumpi\n      0x00\n      dup1\n      revert\n    tag_113:\n      pop\n      tag_114\n      0x04\n      dup1\n      calldatasize\n      sub\n      dup2\n      add\n      swap1\n      tag_115\n      swap2\n      swap1\n      tag_52\n      jump\t// in\n    tag_115:\n      tag_116\n      jump\t// in\n    tag_114:\n      mload(0x40)\n      tag_117\n      swap2\n      swap1\n      tag_118\n      jump\t// in\n    tag_117:\n      mload(0x40)\n      dup1\n      swap2\n      sub\n      swap1\n      return\n        /* \"Documents/GitHub/XRC-20Plus/contracts/XRC20Plus.sol\":5873:6184  function Redeem()public returns(bool){... */\n    tag_20:\n      callvalue\n      dup1\n      iszero\n      tag_119\n      jumpi\n      0x00\n      dup1\n      revert\n    tag_119:\n      pop\n      tag_120\n      tag_121\n      jump\t// in\n    tag_120:\n      mload(0x40)\n      tag_122\n      swap2\n      swap1\n      tag_43\n      jump\t// in\n    tag_122:\n      mload(0x40)\n      dup1\n      swap2\n      sub\n      swap1\n      return\n        /* \"@openzeppelin/contracts/token/ERC20/ERC20.sol\":3951:4100  function allowance(address owner, address spender) public view virtual override returns (uint256) {... */\n    tag_21:\n      callvalue\n      dup1\n      iszero\n      tag_123\n      jumpi\n      0x00\n      dup1\n      revert\n    tag_123:\n      pop\n      tag_124\n      0x04\n      dup1\n      calldatasize\n      sub\n      dup2\n      add\n      swap1\n      tag_125\n      swap2\n      swap1\n      tag_126\n      jump\t// in\n    tag_125:\n      tag_127\n      jump\t// in\n    tag_124:\n      mload(0x40)\n      tag_128\n      swap2\n      swap1\n      tag_48\n      jump\t// in\n    tag_128:\n      mload(0x40)\n      dup1\n      swap2\n      sub\n      swap1\n      return\n        /* \"@openzeppelin/contracts/token/ERC20/ERC20.sol\":2141:2239  function name() public view virtual override returns (string memory) {... */\n    tag_34:\n        /* \"@openzeppelin/contracts/token/ERC20/ERC20.sol\":2195:2208  string memory */\n      0x60\n        /* \"@openzeppelin/contracts/token/ERC20/ERC20.sol\":2227:2232  _name */\n      0x03\n        /* \"@openzeppelin/contracts/token/ERC20/ERC20.sol\":2220:2232  return _name */\n      dup1\n      sload\n      tag_130\n      swap1\n      tag_131\n      jump\t// in\n    tag_130:\n      dup1\n      0x1f\n      add\n      0x20\n      dup1\n      swap2\n      div\n      mul\n      0x20\n      add\n      mload(0x40)\n      swap1\n      dup2\n      add\n      0x40\n      mstore\n      dup1\n      swap3\n      swap2\n      swap1\n      dup2\n      dup2\n      mstore\n      0x20\n      add\n      dup3\n      dup1\n      sload\n      tag_132\n      swap1\n      tag_131\n      jump\t// in\n    tag_132:\n      dup1\n      iszero\n      tag_133\n      jumpi\n      dup1\n      0x1f\n      lt\n      tag_134\n      jumpi\n      0x0100\n      dup1\n      dup4\n      sload\n      div\n      mul\n      dup4\n      mstore\n      swap2\n      0x20\n      add\n      swap2\n      jump(tag_133)\n    tag_134:\n      dup3\n      add\n      swap2\n      swap1\n      0x00\n      mstore\n      keccak256(0x00, 0x20)\n      swap1\n    tag_135:\n      dup2\n      sload\n      dup2\n      mstore\n      swap1\n      0x01\n      add\n      swap1\n      0x20\n      add\n      dup1\n      dup4\n      gt\n      tag_135\n      jumpi\n      dup3\n      swap1\n      sub\n      0x1f\n      and\n      dup3\n      add\n      swap2\n    tag_133:\n      pop\n      pop\n      pop\n      pop\n      pop\n      swap1\n      pop\n        /* \"@openzeppelin/contracts/token/ERC20/ERC20.sol\":2141:2239  function name() public view virtual override returns (string memory) {... */\n      swap1\n      jump\t// out\n        /* \"@openzeppelin/contracts/token/ERC20/ERC20.sol\":4238:4404  function approve(address spender, uint256 amount) public virtual override returns (bool) {... */\n    tag_41:\n        /* \"@openzeppelin/contracts/token/ERC20/ERC20.sol\":4321:4325  bool */\n      0x00\n        /* \"@openzeppelin/contracts/token/ERC20/ERC20.sol\":4337:4376  _approve(_msgSender(), spender, amount) */\n      tag_137\n        /* \"@openzeppelin/contracts/token/ERC20/ERC20.sol\":4346:4358  _msgSender() */\n      tag_138\n        /* \"@openzeppelin/contracts/token/ERC20/ERC20.sol\":4346:4356  _msgSender */\n      tag_139\n        /* \"@openzeppelin/contracts/token/ERC20/ERC20.sol\":4346:4358  _msgSender() */\n      jump\t// in\n    tag_138:\n        /* \"@openzeppelin/contracts/token/ERC20/ERC20.sol\":4360:4367  spender */\n      dup5\n        /* \"@openzeppelin/contracts/token/ERC20/ERC20.sol\":4369:4375  amount */\n      dup5\n        /* \"@openzeppelin/contracts/token/ERC20/ERC20.sol\":4337:4345  _approve */\n      tag_140\n        /* \"@openzeppelin/contracts/token/ERC20/ERC20.sol\":4337:4376  _approve(_msgSender(), spender, amount) */\n      jump\t// in\n    tag_137:\n        /* \"@openzeppelin/contracts/token/ERC20/ERC20.sol\":4393:4397  true */\n      0x01\n        /* \"@openzeppelin/contracts/token/ERC20/ERC20.sol\":4386:4397  return true */\n      swap1\n      pop\n        /* \"@openzeppelin/contracts/token/ERC20/ERC20.sol\":4238:4404  function approve(address spender, uint256 amount) public virtual override returns (bool) {... */\n      swap3\n      swap2\n      pop\n      pop\n      jump\t// out\n        /* \"Documents/GitHub/XRC-20Plus/contracts/XRC20Plus.sol\":4391:4484  function Balance() public view returns(uint256) {... */\n    tag_46:\n        /* \"Documents/GitHub/XRC-20Plus/contracts/XRC20Plus.sol\":4430:4437  uint256 */\n      0x00\n        /* \"Documents/GitHub/XRC-20Plus/contracts/XRC20Plus.sol\":4456:4477  address(this).balance */\n      selfbalance\n        /* \"Documents/GitHub/XRC-20Plus/contracts/XRC20Plus.sol\":4449:4477  return address(this).balance */\n      swap1\n      pop\n        /* \"Documents/GitHub/XRC-20Plus/contracts/XRC20Plus.sol\":4391:4484  function Balance() public view returns(uint256) {... */\n      swap1\n      jump\t// out\n        /* \"Documents/GitHub/XRC-20Plus/contracts/XRC20Plus.sol\":2775:2819  mapping (uint => micro_ledger) public ledger */\n    tag_53:\n      mstore(0x20, 0x0a)\n      dup1\n      0x00\n      mstore\n      keccak256(0x00, 0x40)\n      0x00\n      swap2\n      pop\n      swap1\n      pop\n      dup1\n      0x00\n      add\n      0x00\n      swap1\n      sload\n      swap1\n      0x0100\n      exp\n      swap1\n      div\n      0xffffffffffffffffffffffffffffffffffffffff\n      and\n      swap1\n      dup1\n      0x00\n      add\n      0x14\n      swap1\n      sload\n      swap1\n      0x0100\n      exp\n      swap1\n      div\n      0xff\n      and\n      swap1\n      pop\n      dup3\n      jump\t// out\n        /* \"@openzeppelin/contracts/token/ERC20/ERC20.sol\":3229:3335  function totalSupply() public view virtual override returns (uint256) {... */\n    tag_58:\n        /* \"@openzeppelin/contracts/token/ERC20/ERC20.sol\":3290:3297  uint256 */\n      0x00\n        /* \"@openzeppelin/contracts/token/ERC20/ERC20.sol\":3316:3328  _totalSupply */\n      sload(0x02)\n        /* \"@openzeppelin/contracts/token/ERC20/ERC20.sol\":3309:3328  return _totalSupply */\n      swap1\n      pop\n        /* \"@openzeppelin/contracts/token/ERC20/ERC20.sol\":3229:3335  function totalSupply() public view virtual override returns (uint256) {... */\n      swap1\n      jump\t// out\n        /* \"@openzeppelin/contracts/token/ERC20/ERC20.sol\":4871:5349  function transferFrom(... */\n    tag_64:\n        /* \"@openzeppelin/contracts/token/ERC20/ERC20.sol\":5007:5011  bool */\n      0x00\n        /* \"@openzeppelin/contracts/token/ERC20/ERC20.sol\":5023:5059  _transfer(sender, recipient, amount) */\n      tag_144\n        /* \"@openzeppelin/contracts/token/ERC20/ERC20.sol\":5033:5039  sender */\n      dup5\n        /* \"@openzeppelin/contracts/token/ERC20/ERC20.sol\":5041:5050  recipient */\n      dup5\n        /* \"@openzeppelin/contracts/token/ERC20/ERC20.sol\":5052:5058  amount */\n      dup5\n        /* \"@openzeppelin/contracts/token/ERC20/ERC20.sol\":5023:5032  _transfer */\n      tag_145\n        /* \"@openzeppelin/contracts/token/ERC20/ERC20.sol\":5023:5059  _transfer(sender, recipient, amount) */\n      jump\t// in\n    tag_144:\n        /* \"@openzeppelin/contracts/token/ERC20/ERC20.sol\":5070:5094  uint256 currentAllowance */\n      0x00\n        /* \"@openzeppelin/contracts/token/ERC20/ERC20.sol\":5097:5108  _allowances */\n      0x01\n        /* \"@openzeppelin/contracts/token/ERC20/ERC20.sol\":5097:5116  _allowances[sender] */\n      0x00\n        /* \"@openzeppelin/contracts/token/ERC20/ERC20.sol\":5109:5115  sender */\n      dup7\n        /* \"@openzeppelin/contracts/token/ERC20/ERC20.sol\":5097:5116  _allowances[sender] */\n      0xffffffffffffffffffffffffffffffffffffffff\n      and\n      0xffffffffffffffffffffffffffffffffffffffff\n      and\n      dup2\n      mstore\n      0x20\n      add\n      swap1\n      dup2\n      mstore\n      0x20\n      add\n      0x00\n      keccak256\n        /* \"@openzeppelin/contracts/token/ERC20/ERC20.sol\":5097:5130  _allowances[sender][_msgSender()] */\n      0x00\n        /* \"@openzeppelin/contracts/token/ERC20/ERC20.sol\":5117:5129  _msgSender() */\n      tag_146\n        /* \"@openzeppelin/contracts/token/ERC20/ERC20.sol\":5117:5127  _msgSender */\n      tag_139\n        /* \"@openzeppelin/contracts/token/ERC20/ERC20.sol\":5117:5129  _msgSender() */\n      jump\t// in\n    tag_146:\n        /* \"@openzeppelin/contracts/token/ERC20/ERC20.sol\":5097:5130  _allowances[sender][_msgSender()] */\n      0xffffffffffffffffffffffffffffffffffffffff\n      and\n      0xffffffffffffffffffffffffffffffffffffffff\n      and\n      dup2\n      mstore\n      0x20\n      add\n      swap1\n      dup2\n      mstore\n      0x20\n      add\n      0x00\n      keccak256\n      sload\n        /* \"@openzeppelin/contracts/token/ERC20/ERC20.sol\":5070:5130  uint256 currentAllowance = _allowances[sender][_msgSender()] */\n      swap1\n      pop\n        /* \"@openzeppelin/contracts/token/ERC20/ERC20.sol\":5168:5174  amount */\n      dup3\n        /* \"@openzeppelin/contracts/token/ERC20/ERC20.sol\":5148:5164  currentAllowance */\n      dup2\n        /* \"@openzeppelin/contracts/token/ERC20/ERC20.sol\":5148:5174  currentAllowance >= amount */\n      lt\n      iszero\n        /* \"@openzeppelin/contracts/token/ERC20/ERC20.sol\":5140:5219  require(currentAllowance >= amount, \"ERC20: transfer amount exceeds allowance\") */\n      tag_147\n      jumpi\n      mload(0x40)\n      0x08c379a000000000000000000000000000000000000000000000000000000000\n      dup2\n      mstore\n      0x04\n      add\n      tag_148\n      swap1\n      tag_149\n      jump\t// in\n    tag_148:\n      mload(0x40)\n      dup1\n      swap2\n      sub\n      swap1\n      revert\n    tag_147:\n        /* \"@openzeppelin/contracts/token/ERC20/ERC20.sol\":5253:5310  _approve(sender, _msgSender(), currentAllowance - amount) */\n      tag_150\n        /* \"@openzeppelin/contracts/token/ERC20/ERC20.sol\":5262:5268  sender */\n      dup6\n        /* \"@openzeppelin/contracts/token/ERC20/ERC20.sol\":5270:5282  _msgSender() */\n      tag_151\n        /* \"@openzeppelin/contracts/token/ERC20/ERC20.sol\":5270:5280  _msgSender */\n      tag_139\n        /* \"@openzeppelin/contracts/token/ERC20/ERC20.sol\":5270:5282  _msgSender() */\n      jump\t// in\n    tag_151:\n        /* \"@openzeppelin/contracts/token/ERC20/ERC20.sol\":5303:5309  amount */\n      dup6\n        /* \"@openzeppelin/contracts/token/ERC20/ERC20.sol\":5284:5300  currentAllowance */\n      dup5\n        /* \"@openzeppelin/contracts/token/ERC20/ERC20.sol\":5284:5309  currentAllowance - amount */\n      sub\n        /* \"@openzeppelin/contracts/token/ERC20/ERC20.sol\":5253:5261  _approve */\n      tag_140\n        /* \"@openzeppelin/contracts/token/ERC20/ERC20.sol\":5253:5310  _approve(sender, _msgSender(), currentAllowance - amount) */\n      jump\t// in\n    tag_150:\n        /* \"@openzeppelin/contracts/token/ERC20/ERC20.sol\":5338:5342  true */\n      0x01\n        /* \"@openzeppelin/contracts/token/ERC20/ERC20.sol\":5331:5342  return true */\n      swap2\n      pop\n      pop\n        /* \"@openzeppelin/contracts/token/ERC20/ERC20.sol\":4871:5349  function transferFrom(... */\n      swap4\n      swap3\n      pop\n      pop\n      pop\n      jump\t// out\n        /* \"@openzeppelin/contracts/token/ERC20/ERC20.sol\":3078:3169  function decimals() public view virtual override returns (uint8) {... */\n    tag_68:\n        /* \"@openzeppelin/contracts/token/ERC20/ERC20.sol\":3136:3141  uint8 */\n      0x00\n        /* \"@openzeppelin/contracts/token/ERC20/ERC20.sol\":3160:3162  18 */\n      0x12\n        /* \"@openzeppelin/contracts/token/ERC20/ERC20.sol\":3153:3162  return 18 */\n      swap1\n      pop\n        /* \"@openzeppelin/contracts/token/ERC20/ERC20.sol\":3078:3169  function decimals() public view virtual override returns (uint8) {... */\n      swap1\n      jump\t// out\n        /* \"@openzeppelin/contracts/token/ERC20/ERC20.sol\":5744:5956  function increaseAllowance(address spender, uint256 addedValue) public virtual returns (bool) {... */\n    tag_74:\n        /* \"@openzeppelin/contracts/token/ERC20/ERC20.sol\":5832:5836  bool */\n      0x00\n        /* \"@openzeppelin/contracts/token/ERC20/ERC20.sol\":5848:5928  _approve(_msgSender(), spender, _allowances[_msgSender()][spender] + addedValue) */\n      tag_154\n        /* \"@openzeppelin/contracts/token/ERC20/ERC20.sol\":5857:5869  _msgSender() */\n      tag_155\n        /* \"@openzeppelin/contracts/token/ERC20/ERC20.sol\":5857:5867  _msgSender */\n      tag_139\n        /* \"@openzeppelin/contracts/token/ERC20/ERC20.sol\":5857:5869  _msgSender() */\n      jump\t// in\n    tag_155:\n        /* \"@openzeppelin/contracts/token/ERC20/ERC20.sol\":5871:5878  spender */\n      dup5\n        /* \"@openzeppelin/contracts/token/ERC20/ERC20.sol\":5917:5927  addedValue */\n      dup5\n        /* \"@openzeppelin/contracts/token/ERC20/ERC20.sol\":5880:5891  _allowances */\n      0x01\n        /* \"@openzeppelin/contracts/token/ERC20/ERC20.sol\":5880:5905  _allowances[_msgSender()] */\n      0x00\n        /* \"@openzeppelin/contracts/token/ERC20/ERC20.sol\":5892:5904  _msgSender() */\n      tag_156\n        /* \"@openzeppelin/contracts/token/ERC20/ERC20.sol\":5892:5902  _msgSender */\n      tag_139\n        /* \"@openzeppelin/contracts/token/ERC20/ERC20.sol\":5892:5904  _msgSender() */\n      jump\t// in\n    tag_156:\n        /* \"@openzeppelin/contracts/token/ERC20/ERC20.sol\":5880:5905  _allowances[_msgSender()] */\n      0xffffffffffffffffffffffffffffffffffffffff\n      and\n      0xffffffffffffffffffffffffffffffffffffffff\n      and\n      dup2\n      mstore\n      0x20\n      add\n      swap1\n      dup2\n      mstore\n      0x20\n      add\n      0x00\n      keccak256\n        /* \"@openzeppelin/contracts/token/ERC20/ERC20.sol\":5880:5914  _allowances[_msgSender()][spender] */\n      0x00\n        /* \"@openzeppelin/contracts/token/ERC20/ERC20.sol\":5906:5913  spender */\n      dup9\n        /* \"@openzeppelin/contracts/token/ERC20/ERC20.sol\":5880:5914  _allowances[_msgSender()][spender] */\n      0xffffffffffffffffffffffffffffffffffffffff\n      and\n      0xffffffffffffffffffffffffffffffffffffffff\n      and\n      dup2\n      mstore\n      0x20\n      add\n      swap1\n      dup2\n      mstore\n      0x20\n      add\n      0x00\n      keccak256\n      sload\n        /* \"@openzeppelin/contracts/token/ERC20/ERC20.sol\":5880:5927  _allowances[_msgSender()][spender] + addedValue */\n      tag_157\n      swap2\n      swap1\n      tag_158\n      jump\t// in\n    tag_157:\n        /* \"@openzeppelin/contracts/token/ERC20/ERC20.sol\":5848:5856  _approve */\n      tag_140\n        /* \"@openzeppelin/contracts/token/ERC20/ERC20.sol\":5848:5928  _approve(_msgSender(), spender, _allowances[_msgSender()][spender] + addedValue) */\n      jump\t// in\n    tag_154:\n        /* \"@openzeppelin/contracts/token/ERC20/ERC20.sol\":5945:5949  true */\n      0x01\n        /* \"@openzeppelin/contracts/token/ERC20/ERC20.sol\":5938:5949  return true */\n      swap1\n      pop\n        /* \"@openzeppelin/contracts/token/ERC20/ERC20.sol\":5744:5956  function increaseAllowance(address spender, uint256 addedValue) public virtual returns (bool) {... */\n      swap3\n      swap2\n      pop\n      pop\n      jump\t// out\n        /* \"Documents/GitHub/XRC-20Plus/contracts/XRC20Plus.sol\":2724:2769  mapping (address => Accounts) public accounts */\n    tag_80:\n      mstore(0x20, 0x09)\n      dup1\n      0x00\n      mstore\n      keccak256(0x00, 0x40)\n      0x00\n      swap2\n      pop\n      swap1\n      pop\n      dup1\n      0x00\n      add\n      sload\n      swap1\n      dup1\n      0x01\n      add\n      0x00\n      swap1\n      sload\n      swap1\n      0x0100\n      exp\n      swap1\n      div\n      0xff\n      and\n      swap1\n      pop\n      dup3\n      jump\t// out\n        /* \"@openzeppelin/contracts/token/ERC20/ERC20.sol\":3393:3518  function balanceOf(address account) public view virtual override returns (uint256) {... */\n    tag_86:\n        /* \"@openzeppelin/contracts/token/ERC20/ERC20.sol\":3467:3474  uint256 */\n      0x00\n        /* \"@openzeppelin/contracts/token/ERC20/ERC20.sol\":3493:3502  _balances */\n      dup1\n        /* \"@openzeppelin/contracts/token/ERC20/ERC20.sol\":3493:3511  _balances[account] */\n      0x00\n        /* \"@openzeppelin/contracts/token/ERC20/ERC20.sol\":3503:3510  account */\n      dup4\n        /* \"@openzeppelin/contracts/token/ERC20/ERC20.sol\":3493:3511  _balances[account] */\n      0xffffffffffffffffffffffffffffffffffffffff\n      and\n      0xffffffffffffffffffffffffffffffffffffffff\n      and\n      dup2\n      mstore\n      0x20\n      add\n      swap1\n      dup2\n      mstore\n      0x20\n      add\n      0x00\n      keccak256\n      sload\n        /* \"@openzeppelin/contracts/token/ERC20/ERC20.sol\":3486:3511  return _balances[account] */\n      swap1\n      pop\n        /* \"@openzeppelin/contracts/token/ERC20/ERC20.sol\":3393:3518  function balanceOf(address account) public view virtual override returns (uint256) {... */\n      swap2\n      swap1\n      pop\n      jump\t// out\n        /* \"Documents/GitHub/XRC-20Plus/contracts/XRC20Plus.sol\":4183:4358  function View_Account() public view returns(uint){... */\n    tag_90:\n        /* \"Documents/GitHub/XRC-20Plus/contracts/XRC20Plus.sol\":4227:4231  uint */\n      0x00\n        /* \"Documents/GitHub/XRC-20Plus/contracts/XRC20Plus.sol\":4280:4284  true */\n      0x01\n        /* \"Documents/GitHub/XRC-20Plus/contracts/XRC20Plus.sol\":4250:4284  accounts[msg.sender].exist == true */\n      iszero\n      iszero\n        /* \"Documents/GitHub/XRC-20Plus/contracts/XRC20Plus.sol\":4250:4258  accounts */\n      0x09\n        /* \"Documents/GitHub/XRC-20Plus/contracts/XRC20Plus.sol\":4250:4270  accounts[msg.sender] */\n      0x00\n        /* \"Documents/GitHub/XRC-20Plus/contracts/XRC20Plus.sol\":4259:4269  msg.sender */\n      caller\n        /* \"Documents/GitHub/XRC-20Plus/contracts/XRC20Plus.sol\":4250:4270  accounts[msg.sender] */\n      0xffffffffffffffffffffffffffffffffffffffff\n      and\n      0xffffffffffffffffffffffffffffffffffffffff\n      and\n      dup2\n      mstore\n      0x20\n      add\n      swap1\n      dup2\n      mstore\n      0x20\n      add\n      0x00\n      keccak256\n        /* \"Documents/GitHub/XRC-20Plus/contracts/XRC20Plus.sol\":4250:4276  accounts[msg.sender].exist */\n      0x01\n      add\n      0x00\n      swap1\n      sload\n      swap1\n      0x0100\n      exp\n      swap1\n      div\n      0xff\n      and\n        /* \"Documents/GitHub/XRC-20Plus/contracts/XRC20Plus.sol\":4250:4284  accounts[msg.sender].exist == true */\n      iszero\n      iszero\n      eq\n        /* \"Documents/GitHub/XRC-20Plus/contracts/XRC20Plus.sol\":4242:4306  require(accounts[msg.sender].exist == true,\"user not registerd\") */\n      tag_161\n      jumpi\n      mload(0x40)\n      0x08c379a000000000000000000000000000000000000000000000000000000000\n      dup2\n      mstore\n      0x04\n      add\n      tag_162\n      swap1\n      tag_163\n      jump\t// in\n    tag_162:\n      mload(0x40)\n      dup1\n      swap2\n      sub\n      swap1\n      revert\n    tag_161:\n        /* \"Documents/GitHub/XRC-20Plus/contracts/XRC20Plus.sol\":4323:4331  accounts */\n      0x09\n        /* \"Documents/GitHub/XRC-20Plus/contracts/XRC20Plus.sol\":4323:4343  accounts[msg.sender] */\n      0x00\n        /* \"Documents/GitHub/XRC-20Plus/contracts/XRC20Plus.sol\":4332:4342  msg.sender */\n      caller\n        /* \"Documents/GitHub/XRC-20Plus/contracts/XRC20Plus.sol\":4323:4343  accounts[msg.sender] */\n      0xffffffffffffffffffffffffffffffffffffffff\n      and\n      0xffffffffffffffffffffffffffffffffffffffff\n      and\n      dup2\n      mstore\n      0x20\n      add\n      swap1\n      dup2\n      mstore\n      0x20\n      add\n      0x00\n      keccak256\n        /* \"Documents/GitHub/XRC-20Plus/contracts/XRC20Plus.sol\":4323:4351  accounts[msg.sender].ammount */\n      0x00\n      add\n      sload\n        /* \"Documents/GitHub/XRC-20Plus/contracts/XRC20Plus.sol\":4316:4351  return accounts[msg.sender].ammount */\n      swap1\n      pop\n        /* \"Documents/GitHub/XRC-20Plus/contracts/XRC20Plus.sol\":4183:4358  function View_Account() public view returns(uint){... */\n      swap1\n      jump\t// out\n        /* \"Documents/GitHub/XRC-20Plus/contracts/XRC20Plus.sol\":3843:4135  function Register_Account() public returns(bool){... */\n    tag_94:\n        /* \"Documents/GitHub/XRC-20Plus/contracts/XRC20Plus.sol\":3886:3890  bool */\n      0x00\n        /* \"Documents/GitHub/XRC-20Plus/contracts/XRC20Plus.sol\":3939:3944  false */\n      dup1\n        /* \"Documents/GitHub/XRC-20Plus/contracts/XRC20Plus.sol\":3909:3944  accounts[msg.sender].exist == false */\n      iszero\n      iszero\n        /* \"Documents/GitHub/XRC-20Plus/contracts/XRC20Plus.sol\":3909:3917  accounts */\n      0x09\n        /* \"Documents/GitHub/XRC-20Plus/contracts/XRC20Plus.sol\":3909:3929  accounts[msg.sender] */\n      0x00\n        /* \"Documents/GitHub/XRC-20Plus/contracts/XRC20Plus.sol\":3918:3928  msg.sender */\n      caller\n        /* \"Documents/GitHub/XRC-20Plus/contracts/XRC20Plus.sol\":3909:3929  accounts[msg.sender] */\n      0xffffffffffffffffffffffffffffffffffffffff\n      and\n      0xffffffffffffffffffffffffffffffffffffffff\n      and\n      dup2\n      mstore\n      0x20\n      add\n      swap1\n      dup2\n      mstore\n      0x20\n      add\n      0x00\n      keccak256\n        /* \"Documents/GitHub/XRC-20Plus/contracts/XRC20Plus.sol\":3909:3935  accounts[msg.sender].exist */\n      0x01\n      add\n      0x00\n      swap1\n      sload\n      swap1\n      0x0100\n      exp\n      swap1\n      div\n      0xff\n      and\n        /* \"Documents/GitHub/XRC-20Plus/contracts/XRC20Plus.sol\":3909:3944  accounts[msg.sender].exist == false */\n      iszero\n      iszero\n      eq\n        /* \"Documents/GitHub/XRC-20Plus/contracts/XRC20Plus.sol\":3901:3966  require(accounts[msg.sender].exist == false,\"user already exist\") */\n      tag_165\n      jumpi\n      mload(0x40)\n      0x08c379a000000000000000000000000000000000000000000000000000000000\n      dup2\n      mstore\n      0x04\n      add\n      tag_166\n      swap1\n      tag_167\n      jump\t// in\n    tag_166:\n      mload(0x40)\n      dup1\n      swap2\n      sub\n      swap1\n      revert\n    tag_165:\n        /* \"Documents/GitHub/XRC-20Plus/contracts/XRC20Plus.sol\":4002:4031  micro_ledger(msg.sender,true) */\n      mload(0x40)\n      dup1\n      0x40\n      add\n      0x40\n      mstore\n      dup1\n        /* \"Documents/GitHub/XRC-20Plus/contracts/XRC20Plus.sol\":4015:4025  msg.sender */\n      caller\n        /* \"Documents/GitHub/XRC-20Plus/contracts/XRC20Plus.sol\":4002:4031  micro_ledger(msg.sender,true) */\n      0xffffffffffffffffffffffffffffffffffffffff\n      and\n      dup2\n      mstore\n      0x20\n      add\n        /* \"Documents/GitHub/XRC-20Plus/contracts/XRC20Plus.sol\":4026:4030  true */\n      0x01\n        /* \"Documents/GitHub/XRC-20Plus/contracts/XRC20Plus.sol\":4002:4031  micro_ledger(msg.sender,true) */\n      iszero\n      iszero\n      dup2\n      mstore\n      pop\n        /* \"Documents/GitHub/XRC-20Plus/contracts/XRC20Plus.sol\":3976:3982  ledger */\n      0x0a\n        /* \"Documents/GitHub/XRC-20Plus/contracts/XRC20Plus.sol\":3976:3999  ledger[Account_Counter] */\n      0x00\n        /* \"Documents/GitHub/XRC-20Plus/contracts/XRC20Plus.sol\":3983:3998  Account_Counter */\n      sload(0x06)\n        /* \"Documents/GitHub/XRC-20Plus/contracts/XRC20Plus.sol\":3976:3999  ledger[Account_Counter] */\n      dup2\n      mstore\n      0x20\n      add\n      swap1\n      dup2\n      mstore\n      0x20\n      add\n      0x00\n      keccak256\n        /* \"Documents/GitHub/XRC-20Plus/contracts/XRC20Plus.sol\":3976:4031  ledger[Account_Counter] = micro_ledger(msg.sender,true) */\n      0x00\n      dup3\n      add\n      mload\n      dup2\n      0x00\n      add\n      exp(0x0100, 0x00)\n      dup2\n      sload\n      dup2\n      0xffffffffffffffffffffffffffffffffffffffff\n      mul\n      not\n      and\n      swap1\n      dup4\n      0xffffffffffffffffffffffffffffffffffffffff\n      and\n      mul\n      or\n      swap1\n      sstore\n      pop\n      0x20\n      dup3\n      add\n      mload\n      dup2\n      0x00\n      add\n      exp(0x0100, 0x14)\n      dup2\n      sload\n      dup2\n      0xff\n      mul\n      not\n      and\n      swap1\n      dup4\n      iszero\n      iszero\n      mul\n      or\n      swap1\n      sstore\n      pop\n      swap1\n      pop\n      pop\n        /* \"Documents/GitHub/XRC-20Plus/contracts/XRC20Plus.sol\":4064:4080  Accounts(0,true) */\n      mload(0x40)\n      dup1\n      0x40\n      add\n      0x40\n      mstore\n      dup1\n        /* \"Documents/GitHub/XRC-20Plus/contracts/XRC20Plus.sol\":4073:4074  0 */\n      0x00\n        /* \"Documents/GitHub/XRC-20Plus/contracts/XRC20Plus.sol\":4064:4080  Accounts(0,true) */\n      dup2\n      mstore\n      0x20\n      add\n        /* \"Documents/GitHub/XRC-20Plus/contracts/XRC20Plus.sol\":4075:4079  true */\n      0x01\n        /* \"Documents/GitHub/XRC-20Plus/contracts/XRC20Plus.sol\":4064:4080  Accounts(0,true) */\n      iszero\n      iszero\n      dup2\n      mstore\n      pop\n        /* \"Documents/GitHub/XRC-20Plus/contracts/XRC20Plus.sol\":4041:4049  accounts */\n      0x09\n        /* \"Documents/GitHub/XRC-20Plus/contracts/XRC20Plus.sol\":4041:4061  accounts[msg.sender] */\n      0x00\n        /* \"Documents/GitHub/XRC-20Plus/contracts/XRC20Plus.sol\":4050:4060  msg.sender */\n      caller\n        /* \"Documents/GitHub/XRC-20Plus/contracts/XRC20Plus.sol\":4041:4061  accounts[msg.sender] */\n      0xffffffffffffffffffffffffffffffffffffffff\n      and\n      0xffffffffffffffffffffffffffffffffffffffff\n      and\n      dup2\n      mstore\n      0x20\n      add\n      swap1\n      dup2\n      mstore\n      0x20\n      add\n      0x00\n      keccak256\n        /* \"Documents/GitHub/XRC-20Plus/contracts/XRC20Plus.sol\":4041:4080  accounts[msg.sender] = Accounts(0,true) */\n      0x00\n      dup3\n      add\n      mload\n      dup2\n      0x00\n      add\n      sstore\n      0x20\n      dup3\n      add\n      mload\n      dup2\n      0x01\n      add\n      exp(0x0100, 0x00)\n      dup2\n      sload\n      dup2\n      0xff\n      mul\n      not\n      and\n      swap1\n      dup4\n      iszero\n      iszero\n      mul\n      or\n      swap1\n      sstore\n      pop\n      swap1\n      pop\n      pop\n        /* \"Documents/GitHub/XRC-20Plus/contracts/XRC20Plus.sol\":4090:4105  Account_Counter */\n      0x06\n      0x00\n        /* \"Documents/GitHub/XRC-20Plus/contracts/XRC20Plus.sol\":4090:4107  Account_Counter++ */\n      dup2\n      sload\n      dup1\n      swap3\n      swap2\n      swap1\n      tag_168\n      swap1\n      tag_169\n      jump\t// in\n    tag_168:\n      swap2\n      swap1\n      pop\n      sstore\n      pop\n        /* \"Documents/GitHub/XRC-20Plus/contracts/XRC20Plus.sol\":4124:4128  true */\n      0x01\n        /* \"Documents/GitHub/XRC-20Plus/contracts/XRC20Plus.sol\":4117:4128  return true */\n      swap1\n      pop\n        /* \"Documents/GitHub/XRC-20Plus/contracts/XRC20Plus.sol\":3843:4135  function Register_Account() public returns(bool){... */\n      swap1\n      jump\t// out\n        /* \"@openzeppelin/contracts/token/ERC20/ERC20.sol\":2352:2454  function symbol() public view virtual override returns (string memory) {... */\n    tag_98:\n        /* \"@openzeppelin/contracts/token/ERC20/ERC20.sol\":2408:2421  string memory */\n      0x60\n        /* \"@openzeppelin/contracts/token/ERC20/ERC20.sol\":2440:2447  _symbol */\n      0x04\n        /* \"@openzeppelin/contracts/token/ERC20/ERC20.sol\":2433:2447  return _symbol */\n      dup1\n      sload\n      tag_171\n      swap1\n      tag_131\n      jump\t// in\n    tag_171:\n      dup1\n      0x1f\n      add\n      0x20\n      dup1\n      swap2\n      div\n      mul\n      0x20\n      add\n      mload(0x40)\n      swap1\n      dup2\n      add\n      0x40\n      mstore\n      dup1\n      swap3\n      swap2\n      swap1\n      dup2\n      dup2\n      mstore\n      0x20\n      add\n      dup3\n      dup1\n      sload\n      tag_172\n      swap1\n      tag_131\n      jump\t// in\n    tag_172:\n      dup1\n      iszero\n      tag_173\n      jumpi\n      dup1\n      0x1f\n      lt\n      tag_174\n      jumpi\n      0x0100\n      dup1\n      dup4\n      sload\n      div\n      mul\n      dup4\n      mstore\n      swap2\n      0x20\n      add\n      swap2\n      jump(tag_173)\n    tag_174:\n      dup3\n      add\n      swap2\n      swap1\n      0x00\n      mstore\n      keccak256(0x00, 0x20)\n      swap1\n    tag_175:\n      dup2\n      sload\n      dup2\n      mstore\n      swap1\n      0x01\n      add\n      swap1\n      0x20\n      add\n      dup1\n      dup4\n      gt\n      tag_175\n      jumpi\n      dup3\n      swap1\n      sub\n      0x1f\n      and\n      dup3\n      add\n      swap2\n    tag_173:\n      pop\n      pop\n      pop\n      pop\n      pop\n      swap1\n      pop\n        /* \"@openzeppelin/contracts/token/ERC20/ERC20.sol\":2352:2454  function symbol() public view virtual override returns (string memory) {... */\n      swap1\n      jump\t// out\n        /* \"Documents/GitHub/XRC-20Plus/contracts/XRC20Plus.sol\":4555:5391  function Accept_From_CoinBank(uint _singleShard)public payable CoinBankOnly{... */\n    tag_102:\n        /* \"Documents/GitHub/XRC-20Plus/contracts/XRC20Plus.sol\":3707:3717  msg.sender */\n      caller\n        /* \"Documents/GitHub/XRC-20Plus/contracts/XRC20Plus.sol\":3690:3718  abi.encodePacked(msg.sender) */\n      add(0x20, mload(0x40))\n      tag_177\n      swap2\n      swap1\n      tag_178\n      jump\t// in\n    tag_177:\n      mload(0x40)\n      0x20\n      dup2\n      dup4\n      sub\n      sub\n      dup2\n      mstore\n      swap1\n      0x40\n      mstore\n        /* \"Documents/GitHub/XRC-20Plus/contracts/XRC20Plus.sol\":3680:3719  keccak256(abi.encodePacked(msg.sender)) */\n      dup1\n      mload\n      swap1\n      0x20\n      add\n      keccak256\n        /* \"Documents/GitHub/XRC-20Plus/contracts/XRC20Plus.sol\":3654:3671  CoinBank_Contract */\n      0x0b\n        /* \"Documents/GitHub/XRC-20Plus/contracts/XRC20Plus.sol\":3672:3673  0 */\n      0x00\n        /* \"Documents/GitHub/XRC-20Plus/contracts/XRC20Plus.sol\":3654:3674  CoinBank_Contract[0] */\n      dup2\n      sload\n      dup2\n      lt\n      tag_179\n      jumpi\n      tag_180\n      tag_181\n      jump\t// in\n    tag_180:\n    tag_179:\n      swap1\n      0x00\n      mstore\n      keccak256(0x00, 0x20)\n      add\n      0x00\n      swap1\n      sload\n      swap1\n      0x0100\n      exp\n      swap1\n      div\n      0xffffffffffffffffffffffffffffffffffffffff\n      and\n        /* \"Documents/GitHub/XRC-20Plus/contracts/XRC20Plus.sol\":3637:3675  abi.encodePacked(CoinBank_Contract[0]) */\n      add(0x20, mload(0x40))\n      tag_183\n      swap2\n      swap1\n      tag_184\n      jump\t// in\n    tag_183:\n      mload(0x40)\n      0x20\n      dup2\n      dup4\n      sub\n      sub\n      dup2\n      mstore\n      swap1\n      0x40\n      mstore\n        /* \"Documents/GitHub/XRC-20Plus/contracts/XRC20Plus.sol\":3627:3676  keccak256(abi.encodePacked(CoinBank_Contract[0])) */\n      dup1\n      mload\n      swap1\n      0x20\n      add\n      keccak256\n        /* \"Documents/GitHub/XRC-20Plus/contracts/XRC20Plus.sol\":3627:3719  keccak256(abi.encodePacked(CoinBank_Contract[0])) == keccak256(abi.encodePacked(msg.sender)) */\n      eq\n        /* \"Documents/GitHub/XRC-20Plus/contracts/XRC20Plus.sol\":3619:3771  require(keccak256(abi.encodePacked(CoinBank_Contract[0])) == keccak256(abi.encodePacked(msg.sender)),\"Only Contract coinbank can execute this function\") */\n      tag_185\n      jumpi\n      mload(0x40)\n      0x08c379a000000000000000000000000000000000000000000000000000000000\n      dup2\n      mstore\n      0x04\n      add\n      tag_186\n      swap1\n      tag_187\n      jump\t// in\n    tag_186:\n      mload(0x40)\n      dup1\n      swap2\n      sub\n      swap1\n      revert\n    tag_185:\n        /* \"Documents/GitHub/XRC-20Plus/contracts/XRC20Plus.sol\":4640:4650  uint value */\n      0x00\n        /* \"Documents/GitHub/XRC-20Plus/contracts/XRC20Plus.sol\":4653:4662  msg.value */\n      callvalue\n        /* \"Documents/GitHub/XRC-20Plus/contracts/XRC20Plus.sol\":4640:4662  uint value = msg.value */\n      swap1\n      pop\n        /* \"Documents/GitHub/XRC-20Plus/contracts/XRC20Plus.sol\":4672:4691  uint totalAllocated */\n      0x00\n        /* \"Documents/GitHub/XRC-20Plus/contracts/XRC20Plus.sol\":4703:4723  uint amountAllocated */\n      dup1\n        /* \"Documents/GitHub/XRC-20Plus/contracts/XRC20Plus.sol\":4733:4748  uint dustSpread */\n      dup1\n        /* \"Documents/GitHub/XRC-20Plus/contracts/XRC20Plus.sol\":4757:4771  totalAllocated */\n      dup3\n        /* \"Documents/GitHub/XRC-20Plus/contracts/XRC20Plus.sol\":4751:4756  value */\n      dup5\n        /* \"Documents/GitHub/XRC-20Plus/contracts/XRC20Plus.sol\":4751:4771  value-totalAllocated */\n      tag_189\n      swap2\n      swap1\n      tag_190\n      jump\t// in\n    tag_189:\n        /* \"Documents/GitHub/XRC-20Plus/contracts/XRC20Plus.sol\":4733:4771  uint dustSpread = value-totalAllocated */\n      swap1\n      pop\n        /* \"Documents/GitHub/XRC-20Plus/contracts/XRC20Plus.sol\":4782:5331  for(i;i<=Account_Counter;i++){... */\n    tag_191:\n        /* \"Documents/GitHub/XRC-20Plus/contracts/XRC20Plus.sol\":4791:4806  Account_Counter */\n      sload(0x06)\n        /* \"Documents/GitHub/XRC-20Plus/contracts/XRC20Plus.sol\":4788:4789  i */\n      sload(0x08)\n        /* \"Documents/GitHub/XRC-20Plus/contracts/XRC20Plus.sol\":4788:4806  i<=Account_Counter */\n      gt\n        /* \"Documents/GitHub/XRC-20Plus/contracts/XRC20Plus.sol\":4782:5331  for(i;i<=Account_Counter;i++){... */\n      tag_192\n      jumpi\n        /* \"Documents/GitHub/XRC-20Plus/contracts/XRC20Plus.sol\":4847:4881  InternalAccounting(i,_singleShard) */\n      tag_194\n        /* \"Documents/GitHub/XRC-20Plus/contracts/XRC20Plus.sol\":4866:4867  i */\n      sload(0x08)\n        /* \"Documents/GitHub/XRC-20Plus/contracts/XRC20Plus.sol\":4868:4880  _singleShard */\n      dup7\n        /* \"Documents/GitHub/XRC-20Plus/contracts/XRC20Plus.sol\":4847:4865  InternalAccounting */\n      tag_195\n        /* \"Documents/GitHub/XRC-20Plus/contracts/XRC20Plus.sol\":4847:4881  InternalAccounting(i,_singleShard) */\n      jump\t// in\n    tag_194:\n        /* \"Documents/GitHub/XRC-20Plus/contracts/XRC20Plus.sol\":4826:4827  i */\n      0x08\n      0x00\n        /* \"Documents/GitHub/XRC-20Plus/contracts/XRC20Plus.sol\":4825:4881  (i,amountAllocated) = InternalAccounting(i,_singleShard) */\n      dup3\n      swap6\n      pop\n      dup4\n      swap2\n      swap1\n      pop\n      sstore\n      pop\n      pop\n        /* \"Documents/GitHub/XRC-20Plus/contracts/XRC20Plus.sol\":4913:4928  amountAllocated */\n      dup2\n        /* \"Documents/GitHub/XRC-20Plus/contracts/XRC20Plus.sol\":4895:4928  totalAllocated += amountAllocated */\n      dup4\n      tag_196\n      swap2\n      swap1\n      tag_158\n      jump\t// in\n    tag_196:\n      swap3\n      pop\n        /* \"Documents/GitHub/XRC-20Plus/contracts/XRC20Plus.sol\":5059:5067  dust_min */\n      sload(0x07)\n        /* \"Documents/GitHub/XRC-20Plus/contracts/XRC20Plus.sol\":5047:5057  dustSpread */\n      dup2\n        /* \"Documents/GitHub/XRC-20Plus/contracts/XRC20Plus.sol\":5047:5067  dustSpread<=dust_min */\n      gt\n        /* \"Documents/GitHub/XRC-20Plus/contracts/XRC20Plus.sol\":5044:5321  if(dustSpread<=dust_min){... */\n      tag_197\n      jumpi\n        /* \"Documents/GitHub/XRC-20Plus/contracts/XRC20Plus.sol\":5113:5130  CoinBank_Contract */\n      0x0b\n        /* \"Documents/GitHub/XRC-20Plus/contracts/XRC20Plus.sol\":5131:5132  0 */\n      0x00\n        /* \"Documents/GitHub/XRC-20Plus/contracts/XRC20Plus.sol\":5113:5133  CoinBank_Contract[0] */\n      dup2\n      sload\n      dup2\n      lt\n      tag_198\n      jumpi\n      tag_199\n      tag_181\n      jump\t// in\n    tag_199:\n    tag_198:\n      swap1\n      0x00\n      mstore\n      keccak256(0x00, 0x20)\n      add\n      0x00\n      swap1\n      sload\n      swap1\n      0x0100\n      exp\n      swap1\n      div\n      0xffffffffffffffffffffffffffffffffffffffff\n      and\n        /* \"Documents/GitHub/XRC-20Plus/contracts/XRC20Plus.sol\":5086:5154  CoinBank_Interface(address(CoinBank_Contract[0])).Incomming_Payments */\n      0xffffffffffffffffffffffffffffffffffffffff\n      and\n      0x82add361\n        /* \"Documents/GitHub/XRC-20Plus/contracts/XRC20Plus.sol\":5161:5171  dustSpread */\n      dup3\n        /* \"Documents/GitHub/XRC-20Plus/contracts/XRC20Plus.sol\":5086:5174  CoinBank_Interface(address(CoinBank_Contract[0])).Incomming_Payments{value:dustSpread}() */\n      mload(0x40)\n      dup3\n      0xffffffff\n      and\n      0xe0\n      shl\n      dup2\n      mstore\n      0x04\n      add\n      0x20\n      mload(0x40)\n      dup1\n      dup4\n      sub\n      dup2\n      dup6\n      dup9\n      gas\n      call\n      iszero\n      dup1\n      iszero\n      tag_202\n      jumpi\n      returndatasize\n      0x00\n      dup1\n      returndatacopy\n      revert(0x00, returndatasize)\n    tag_202:\n      pop\n      pop\n      pop\n      pop\n      pop\n      mload(0x40)\n      returndatasize\n      not(0x1f)\n      0x1f\n      dup3\n      add\n      and\n      dup3\n      add\n      dup1\n      0x40\n      mstore\n      pop\n      dup2\n      add\n      swap1\n      tag_203\n      swap2\n      swap1\n      tag_204\n      jump\t// in\n    tag_203:\n      pop\n        /* \"Documents/GitHub/XRC-20Plus/contracts/XRC20Plus.sol\":5192:5197  break */\n      jump(tag_192)\n        /* \"Documents/GitHub/XRC-20Plus/contracts/XRC20Plus.sol\":5044:5321  if(dustSpread<=dust_min){... */\n    tag_197:\n        /* \"Documents/GitHub/XRC-20Plus/contracts/XRC20Plus.sol\":5225:5240  Account_Counter */\n      sload(0x06)\n        /* \"Documents/GitHub/XRC-20Plus/contracts/XRC20Plus.sol\":5220:5221  i */\n      sload(0x08)\n        /* \"Documents/GitHub/XRC-20Plus/contracts/XRC20Plus.sol\":5220:5240  i <= Account_Counter */\n      gt\n        /* \"Documents/GitHub/XRC-20Plus/contracts/XRC20Plus.sol\":5217:5321  if(i <= Account_Counter){... */\n      tag_206\n      jumpi\n        /* \"Documents/GitHub/XRC-20Plus/contracts/XRC20Plus.sol\":5263:5264  i */\n      sload(0x08)\n        /* \"Documents/GitHub/XRC-20Plus/contracts/XRC20Plus.sol\":5259:5260  i */\n      0x08\n        /* \"Documents/GitHub/XRC-20Plus/contracts/XRC20Plus.sol\":5259:5264  i = i */\n      dup2\n      swap1\n      sstore\n      pop\n        /* \"Documents/GitHub/XRC-20Plus/contracts/XRC20Plus.sol\":5217:5321  if(i <= Account_Counter){... */\n      jump(tag_207)\n    tag_206:\n        /* \"Documents/GitHub/XRC-20Plus/contracts/XRC20Plus.sol\":5305:5306  0 */\n      0x00\n        /* \"Documents/GitHub/XRC-20Plus/contracts/XRC20Plus.sol\":5301:5302  i */\n      0x08\n        /* \"Documents/GitHub/XRC-20Plus/contracts/XRC20Plus.sol\":5301:5306  i = 0 */\n      dup2\n      swap1\n      sstore\n      pop\n        /* \"Documents/GitHub/XRC-20Plus/contracts/XRC20Plus.sol\":5217:5321  if(i <= Account_Counter){... */\n    tag_207:\n        /* \"Documents/GitHub/XRC-20Plus/contracts/XRC20Plus.sol\":4807:4808  i */\n      0x08\n      0x00\n        /* \"Documents/GitHub/XRC-20Plus/contracts/XRC20Plus.sol\":4807:4810  i++ */\n      dup2\n      sload\n      dup1\n      swap3\n      swap2\n      swap1\n      tag_208\n      swap1\n      tag_169\n      jump\t// in\n    tag_208:\n      swap2\n      swap1\n      pop\n      sstore\n      pop\n        /* \"Documents/GitHub/XRC-20Plus/contracts/XRC20Plus.sol\":4782:5331  for(i;i<=Account_Counter;i++){... */\n      jump(tag_191)\n    tag_192:\n        /* \"Documents/GitHub/XRC-20Plus/contracts/XRC20Plus.sol\":5348:5383  TreasuryClock(block.timestamp,true) */\n      0x8ab34dbde874de5ddabad5029cf0abbef03843eb2d9509a6ae6697f77dc5a948\n        /* \"Documents/GitHub/XRC-20Plus/contracts/XRC20Plus.sol\":5362:5377  block.timestamp */\n      timestamp\n        /* \"Documents/GitHub/XRC-20Plus/contracts/XRC20Plus.sol\":5378:5382  true */\n      0x01\n        /* \"Documents/GitHub/XRC-20Plus/contracts/XRC20Plus.sol\":5348:5383  TreasuryClock(block.timestamp,true) */\n      mload(0x40)\n      tag_209\n      swap3\n      swap2\n      swap1\n      tag_82\n      jump\t// in\n    tag_209:\n      mload(0x40)\n      dup1\n      swap2\n      sub\n      swap1\n      log1\n        /* \"Documents/GitHub/XRC-20Plus/contracts/XRC20Plus.sol\":4630:5391  {... */\n      pop\n      pop\n      pop\n      pop\n        /* \"Documents/GitHub/XRC-20Plus/contracts/XRC20Plus.sol\":4555:5391  function Accept_From_CoinBank(uint _singleShard)public payable CoinBankOnly{... */\n      pop\n      jump\t// out\n        /* \"@openzeppelin/contracts/token/ERC20/ERC20.sol\":6443:6848  function decreaseAllowance(address spender, uint256 subtractedValue) public virtual returns (bool) {... */\n    tag_106:\n        /* \"@openzeppelin/contracts/token/ERC20/ERC20.sol\":6536:6540  bool */\n      0x00\n        /* \"@openzeppelin/contracts/token/ERC20/ERC20.sol\":6552:6576  uint256 currentAllowance */\n      dup1\n        /* \"@openzeppelin/contracts/token/ERC20/ERC20.sol\":6579:6590  _allowances */\n      0x01\n        /* \"@openzeppelin/contracts/token/ERC20/ERC20.sol\":6579:6604  _allowances[_msgSender()] */\n      0x00\n        /* \"@openzeppelin/contracts/token/ERC20/ERC20.sol\":6591:6603  _msgSender() */\n      tag_211\n        /* \"@openzeppelin/contracts/token/ERC20/ERC20.sol\":6591:6601  _msgSender */\n      tag_139\n        /* \"@openzeppelin/contracts/token/ERC20/ERC20.sol\":6591:6603  _msgSender() */\n      jump\t// in\n    tag_211:\n        /* \"@openzeppelin/contracts/token/ERC20/ERC20.sol\":6579:6604  _allowances[_msgSender()] */\n      0xffffffffffffffffffffffffffffffffffffffff\n      and\n      0xffffffffffffffffffffffffffffffffffffffff\n      and\n      dup2\n      mstore\n      0x20\n      add\n      swap1\n      dup2\n      mstore\n      0x20\n      add\n      0x00\n      keccak256\n        /* \"@openzeppelin/contracts/token/ERC20/ERC20.sol\":6579:6613  _allowances[_msgSender()][spender] */\n      0x00\n        /* \"@openzeppelin/contracts/token/ERC20/ERC20.sol\":6605:6612  spender */\n      dup6\n        /* \"@openzeppelin/contracts/token/ERC20/ERC20.sol\":6579:6613  _allowances[_msgSender()][spender] */\n      0xffffffffffffffffffffffffffffffffffffffff\n      and\n      0xffffffffffffffffffffffffffffffffffffffff\n      and\n      dup2\n      mstore\n      0x20\n      add\n      swap1\n      dup2\n      mstore\n      0x20\n      add\n      0x00\n      keccak256\n      sload\n        /* \"@openzeppelin/contracts/token/ERC20/ERC20.sol\":6552:6613  uint256 currentAllowance = _allowances[_msgSender()][spender] */\n      swap1\n      pop\n        /* \"@openzeppelin/contracts/token/ERC20/ERC20.sol\":6651:6666  subtractedValue */\n      dup3\n        /* \"@openzeppelin/contracts/token/ERC20/ERC20.sol\":6631:6647  currentAllowance */\n      dup2\n        /* \"@openzeppelin/contracts/token/ERC20/ERC20.sol\":6631:6666  currentAllowance >= subtractedValue */\n      lt\n      iszero\n        /* \"@openzeppelin/contracts/token/ERC20/ERC20.sol\":6623:6708  require(currentAllowance >= subtractedValue, \"ERC20: decreased allowance below zero\") */\n      tag_212\n      jumpi\n      mload(0x40)\n      0x08c379a000000000000000000000000000000000000000000000000000000000\n      dup2\n      mstore\n      0x04\n      add\n      tag_213\n      swap1\n      tag_214\n      jump\t// in\n    tag_213:\n      mload(0x40)\n      dup1\n      swap2\n      sub\n      swap1\n      revert\n    tag_212:\n        /* \"@openzeppelin/contracts/token/ERC20/ERC20.sol\":6742:6809  _approve(_msgSender(), spender, currentAllowance - subtractedValue) */\n      tag_215\n        /* \"@openzeppelin/contracts/token/ERC20/ERC20.sol\":6751:6763  _msgSender() */\n      tag_216\n        /* \"@openzeppelin/contracts/token/ERC20/ERC20.sol\":6751:6761  _msgSender */\n      tag_139\n        /* \"@openzeppelin/contracts/token/ERC20/ERC20.sol\":6751:6763  _msgSender() */\n      jump\t// in\n    tag_216:\n        /* \"@openzeppelin/contracts/token/ERC20/ERC20.sol\":6765:6772  spender */\n      dup6\n        /* \"@openzeppelin/contracts/token/ERC20/ERC20.sol\":6793:6808  subtractedValue */\n      dup6\n        /* \"@openzeppelin/contracts/token/ERC20/ERC20.sol\":6774:6790  currentAllowance */\n      dup5\n        /* \"@openzeppelin/contracts/token/ERC20/ERC20.sol\":6774:6808  currentAllowance - subtractedValue */\n      sub\n        /* \"@openzeppelin/contracts/token/ERC20/ERC20.sol\":6742:6750  _approve */\n      tag_140\n        /* \"@openzeppelin/contracts/token/ERC20/ERC20.sol\":6742:6809  _approve(_msgSender(), spender, currentAllowance - subtractedValue) */\n      jump\t// in\n    tag_215:\n        /* \"@openzeppelin/contracts/token/ERC20/ERC20.sol\":6837:6841  true */\n      0x01\n        /* \"@openzeppelin/contracts/token/ERC20/ERC20.sol\":6830:6841  return true */\n      swap2\n      pop\n      pop\n        /* \"@openzeppelin/contracts/token/ERC20/ERC20.sol\":6443:6848  function decreaseAllowance(address spender, uint256 subtractedValue) public virtual returns (bool) {... */\n      swap3\n      swap2\n      pop\n      pop\n      jump\t// out\n        /* \"@openzeppelin/contracts/token/ERC20/ERC20.sol\":3721:3893  function transfer(address recipient, uint256 amount) public virtual override returns (bool) {... */\n    tag_111:\n        /* \"@openzeppelin/contracts/token/ERC20/ERC20.sol\":3807:3811  bool */\n      0x00\n        /* \"@openzeppelin/contracts/token/ERC20/ERC20.sol\":3823:3865  _transfer(_msgSender(), recipient, amount) */\n      tag_218\n        /* \"@openzeppelin/contracts/token/ERC20/ERC20.sol\":3833:3845  _msgSender() */\n      tag_219\n        /* \"@openzeppelin/contracts/token/ERC20/ERC20.sol\":3833:3843  _msgSender */\n      tag_139\n        /* \"@openzeppelin/contracts/token/ERC20/ERC20.sol\":3833:3845  _msgSender() */\n      jump\t// in\n    tag_219:\n        /* \"@openzeppelin/contracts/token/ERC20/ERC20.sol\":3847:3856  recipient */\n      dup5\n        /* \"@openzeppelin/contracts/token/ERC20/ERC20.sol\":3858:3864  amount */\n      dup5\n        /* \"@openzeppelin/contracts/token/ERC20/ERC20.sol\":3823:3832  _transfer */\n      tag_145\n        /* \"@openzeppelin/contracts/token/ERC20/ERC20.sol\":3823:3865  _transfer(_msgSender(), recipient, amount) */\n      jump\t// in\n    tag_218:\n        /* \"@openzeppelin/contracts/token/ERC20/ERC20.sol\":3882:3886  true */\n      0x01\n        /* \"@openzeppelin/contracts/token/ERC20/ERC20.sol\":3875:3886  return true */\n      swap1\n      pop\n        /* \"@openzeppelin/contracts/token/ERC20/ERC20.sol\":3721:3893  function transfer(address recipient, uint256 amount) public virtual override returns (bool) {... */\n      swap3\n      swap2\n      pop\n      pop\n      jump\t// out\n        /* \"Documents/GitHub/XRC-20Plus/contracts/XRC20Plus.sol\":2854:2889  CoinBank[] public CoinBank_Contract */\n    tag_116:\n      0x0b\n      dup2\n      dup2\n      sload\n      dup2\n      lt\n      tag_220\n      jumpi\n      0x00\n      dup1\n      revert\n    tag_220:\n      swap1\n      0x00\n      mstore\n      keccak256(0x00, 0x20)\n      add\n      0x00\n      swap2\n      pop\n      sload\n      swap1\n      0x0100\n      exp\n      swap1\n      div\n      0xffffffffffffffffffffffffffffffffffffffff\n      and\n      dup2\n      jump\t// out\n        /* \"Documents/GitHub/XRC-20Plus/contracts/XRC20Plus.sol\":5873:6184  function Redeem()public returns(bool){... */\n    tag_121:\n        /* \"Documents/GitHub/XRC-20Plus/contracts/XRC20Plus.sol\":5905:5909  bool */\n      0x00\n        /* \"Documents/GitHub/XRC-20Plus/contracts/XRC20Plus.sol\":5920:5949  address payable RedeemAddress */\n      dup1\n        /* \"Documents/GitHub/XRC-20Plus/contracts/XRC20Plus.sol\":5960:5970  msg.sender */\n      caller\n        /* \"Documents/GitHub/XRC-20Plus/contracts/XRC20Plus.sol\":5920:5971  address payable RedeemAddress = payable(msg.sender) */\n      swap1\n      pop\n        /* \"Documents/GitHub/XRC-20Plus/contracts/XRC20Plus.sol\":6022:6026  true */\n      0x01\n        /* \"Documents/GitHub/XRC-20Plus/contracts/XRC20Plus.sol\":5989:6026  accounts[RedeemAddress].exist == true */\n      iszero\n      iszero\n        /* \"Documents/GitHub/XRC-20Plus/contracts/XRC20Plus.sol\":5989:5997  accounts */\n      0x09\n        /* \"Documents/GitHub/XRC-20Plus/contracts/XRC20Plus.sol\":5989:6012  accounts[RedeemAddress] */\n      0x00\n        /* \"Documents/GitHub/XRC-20Plus/contracts/XRC20Plus.sol\":5998:6011  RedeemAddress */\n      dup4\n        /* \"Documents/GitHub/XRC-20Plus/contracts/XRC20Plus.sol\":5989:6012  accounts[RedeemAddress] */\n      0xffffffffffffffffffffffffffffffffffffffff\n      and\n      0xffffffffffffffffffffffffffffffffffffffff\n      and\n      dup2\n      mstore\n      0x20\n      add\n      swap1\n      dup2\n      mstore\n      0x20\n      add\n      0x00\n      keccak256\n        /* \"Documents/GitHub/XRC-20Plus/contracts/XRC20Plus.sol\":5989:6018  accounts[RedeemAddress].exist */\n      0x01\n      add\n      0x00\n      swap1\n      sload\n      swap1\n      0x0100\n      exp\n      swap1\n      div\n      0xff\n      and\n        /* \"Documents/GitHub/XRC-20Plus/contracts/XRC20Plus.sol\":5989:6026  accounts[RedeemAddress].exist == true */\n      iszero\n      iszero\n      eq\n        /* \"Documents/GitHub/XRC-20Plus/contracts/XRC20Plus.sol\":5981:6049  require(accounts[RedeemAddress].exist == true,\"User does not exist\") */\n      tag_223\n      jumpi\n      mload(0x40)\n      0x08c379a000000000000000000000000000000000000000000000000000000000\n      dup2\n      mstore\n      0x04\n      add\n      tag_224\n      swap1\n      tag_225\n      jump\t// in\n    tag_224:\n      mload(0x40)\n      dup1\n      swap2\n      sub\n      swap1\n      revert\n    tag_223:\n        /* \"Documents/GitHub/XRC-20Plus/contracts/XRC20Plus.sol\":6059:6072  RedeemAddress */\n      dup1\n        /* \"Documents/GitHub/XRC-20Plus/contracts/XRC20Plus.sol\":6059:6081  RedeemAddress.transfer */\n      0xffffffffffffffffffffffffffffffffffffffff\n      and\n        /* \"Documents/GitHub/XRC-20Plus/contracts/XRC20Plus.sol\":6059:6111  RedeemAddress.transfer(accounts[msg.sender].ammount) */\n      0x08fc\n        /* \"Documents/GitHub/XRC-20Plus/contracts/XRC20Plus.sol\":6082:6090  accounts */\n      0x09\n        /* \"Documents/GitHub/XRC-20Plus/contracts/XRC20Plus.sol\":6082:6102  accounts[msg.sender] */\n      0x00\n        /* \"Documents/GitHub/XRC-20Plus/contracts/XRC20Plus.sol\":6091:6101  msg.sender */\n      caller\n        /* \"Documents/GitHub/XRC-20Plus/contracts/XRC20Plus.sol\":6082:6102  accounts[msg.sender] */\n      0xffffffffffffffffffffffffffffffffffffffff\n      and\n      0xffffffffffffffffffffffffffffffffffffffff\n      and\n      dup2\n      mstore\n      0x20\n      add\n      swap1\n      dup2\n      mstore\n      0x20\n      add\n      0x00\n      keccak256\n        /* \"Documents/GitHub/XRC-20Plus/contracts/XRC20Plus.sol\":6082:6110  accounts[msg.sender].ammount */\n      0x00\n      add\n      sload\n        /* \"Documents/GitHub/XRC-20Plus/contracts/XRC20Plus.sol\":6059:6111  RedeemAddress.transfer(accounts[msg.sender].ammount) */\n      swap1\n      dup2\n      iszero\n      mul\n      swap1\n      mload(0x40)\n      0x00\n      mload(0x40)\n      dup1\n      dup4\n      sub\n      dup2\n      dup6\n      dup9\n      dup9\n      call\n      swap4\n      pop\n      pop\n      pop\n      pop\n      iszero\n      dup1\n      iszero\n      tag_227\n      jumpi\n      returndatasize\n      0x00\n      dup1\n      returndatacopy\n      revert(0x00, returndatasize)\n    tag_227:\n      pop\n        /* \"Documents/GitHub/XRC-20Plus/contracts/XRC20Plus.sol\":6150:6151  0 */\n      0x00\n        /* \"Documents/GitHub/XRC-20Plus/contracts/XRC20Plus.sol\":6121:6129  accounts */\n      0x09\n        /* \"Documents/GitHub/XRC-20Plus/contracts/XRC20Plus.sol\":6121:6141  accounts[msg.sender] */\n      0x00\n        /* \"Documents/GitHub/XRC-20Plus/contracts/XRC20Plus.sol\":6130:6140  msg.sender */\n      caller\n        /* \"Documents/GitHub/XRC-20Plus/contracts/XRC20Plus.sol\":6121:6141  accounts[msg.sender] */\n      0xffffffffffffffffffffffffffffffffffffffff\n      and\n      0xffffffffffffffffffffffffffffffffffffffff\n      and\n      dup2\n      mstore\n      0x20\n      add\n      swap1\n      dup2\n      mstore\n      0x20\n      add\n      0x00\n      keccak256\n        /* \"Documents/GitHub/XRC-20Plus/contracts/XRC20Plus.sol\":6121:6149  accounts[msg.sender].ammount */\n      0x00\n      add\n        /* \"Documents/GitHub/XRC-20Plus/contracts/XRC20Plus.sol\":6121:6151  accounts[msg.sender].ammount=0 */\n      dup2\n      swap1\n      sstore\n      pop\n        /* \"Documents/GitHub/XRC-20Plus/contracts/XRC20Plus.sol\":6168:6172  true */\n      0x01\n        /* \"Documents/GitHub/XRC-20Plus/contracts/XRC20Plus.sol\":6161:6172  return true */\n      swap2\n      pop\n      pop\n        /* \"Documents/GitHub/XRC-20Plus/contracts/XRC20Plus.sol\":5873:6184  function Redeem()public returns(bool){... */\n      swap1\n      jump\t// out\n        /* \"@openzeppelin/contracts/token/ERC20/ERC20.sol\":3951:4100  function allowance(address owner, address spender) public view virtual override returns (uint256) {... */\n    tag_127:\n        /* \"@openzeppelin/contracts/token/ERC20/ERC20.sol\":4040:4047  uint256 */\n      0x00\n        /* \"@openzeppelin/contracts/token/ERC20/ERC20.sol\":4066:4077  _allowances */\n      0x01\n        /* \"@openzeppelin/contracts/token/ERC20/ERC20.sol\":4066:4084  _allowances[owner] */\n      0x00\n        /* \"@openzeppelin/contracts/token/ERC20/ERC20.sol\":4078:4083  owner */\n      dup5\n        /* \"@openzeppelin/contracts/token/ERC20/ERC20.sol\":4066:4084  _allowances[owner] */\n      0xffffffffffffffffffffffffffffffffffffffff\n      and\n      0xffffffffffffffffffffffffffffffffffffffff\n      and\n      dup2\n      mstore\n      0x20\n      add\n      swap1\n      dup2\n      mstore\n      0x20\n      add\n      0x00\n      keccak256\n        /* \"@openzeppelin/contracts/token/ERC20/ERC20.sol\":4066:4093  _allowances[owner][spender] */\n      0x00\n        /* \"@openzeppelin/contracts/token/ERC20/ERC20.sol\":4085:4092  spender */\n      dup4\n        /* \"@openzeppelin/contracts/token/ERC20/ERC20.sol\":4066:4093  _allowances[owner][spender] */\n      0xffffffffffffffffffffffffffffffffffffffff\n      and\n      0xffffffffffffffffffffffffffffffffffffffff\n      and\n      dup2\n      mstore\n      0x20\n      add\n      swap1\n      dup2\n      mstore\n      0x20\n      add\n      0x00\n      keccak256\n      sload\n        /* \"@openzeppelin/contracts/token/ERC20/ERC20.sol\":4059:4093  return _allowances[owner][spender] */\n      swap1\n      pop\n        /* \"@openzeppelin/contracts/token/ERC20/ERC20.sol\":3951:4100  function allowance(address owner, address spender) public view virtual override returns (uint256) {... */\n      swap3\n      swap2\n      pop\n      pop\n      jump\t// out\n        /* \"@openzeppelin/contracts/utils/Context.sol\":640:736  function _msgSender() internal view virtual returns (address) {... */\n    tag_139:\n        /* \"@openzeppelin/contracts/utils/Context.sol\":693:700  address */\n      0x00\n        /* \"@openzeppelin/contracts/utils/Context.sol\":719:729  msg.sender */\n      caller\n        /* \"@openzeppelin/contracts/utils/Context.sol\":712:729  return msg.sender */\n      swap1\n      pop\n        /* \"@openzeppelin/contracts/utils/Context.sol\":640:736  function _msgSender() internal view virtual returns (address) {... */\n      swap1\n      jump\t// out\n        /* \"@openzeppelin/contracts/token/ERC20/ERC20.sol\":10019:10389  function _approve(... */\n    tag_140:\n        /* \"@openzeppelin/contracts/token/ERC20/ERC20.sol\":10167:10168  0 */\n      0x00\n        /* \"@openzeppelin/contracts/token/ERC20/ERC20.sol\":10150:10169  owner != address(0) */\n      0xffffffffffffffffffffffffffffffffffffffff\n      and\n        /* \"@openzeppelin/contracts/token/ERC20/ERC20.sol\":10150:10155  owner */\n      dup4\n        /* \"@openzeppelin/contracts/token/ERC20/ERC20.sol\":10150:10169  owner != address(0) */\n      0xffffffffffffffffffffffffffffffffffffffff\n      and\n      sub\n        /* \"@openzeppelin/contracts/token/ERC20/ERC20.sol\":10142:10210  require(owner != address(0), \"ERC20: approve from the zero address\") */\n      tag_231\n      jumpi\n      mload(0x40)\n      0x08c379a000000000000000000000000000000000000000000000000000000000\n      dup2\n      mstore\n      0x04\n      add\n      tag_232\n      swap1\n      tag_233\n      jump\t// in\n    tag_232:\n      mload(0x40)\n      dup1\n      swap2\n      sub\n      swap1\n      revert\n    tag_231:\n        /* \"@openzeppelin/contracts/token/ERC20/ERC20.sol\":10247:10248  0 */\n      0x00\n        /* \"@openzeppelin/contracts/token/ERC20/ERC20.sol\":10228:10249  spender != address(0) */\n      0xffffffffffffffffffffffffffffffffffffffff\n      and\n        /* \"@openzeppelin/contracts/token/ERC20/ERC20.sol\":10228:10235  spender */\n      dup3\n        /* \"@openzeppelin/contracts/token/ERC20/ERC20.sol\":10228:10249  spender != address(0) */\n      0xffffffffffffffffffffffffffffffffffffffff\n      and\n      sub\n        /* \"@openzeppelin/contracts/token/ERC20/ERC20.sol\":10220:10288  require(spender != address(0), \"ERC20: approve to the zero address\") */\n      tag_234\n      jumpi\n      mload(0x40)\n      0x08c379a000000000000000000000000000000000000000000000000000000000\n      dup2\n      mstore\n      0x04\n      add\n      tag_235\n      swap1\n      tag_236\n      jump\t// in\n    tag_235:\n      mload(0x40)\n      dup1\n      swap2\n      sub\n      swap1\n      revert\n    tag_234:\n        /* \"@openzeppelin/contracts/token/ERC20/ERC20.sol\":10329:10335  amount */\n      dup1\n        /* \"@openzeppelin/contracts/token/ERC20/ERC20.sol\":10299:10310  _allowances */\n      0x01\n        /* \"@openzeppelin/contracts/token/ERC20/ERC20.sol\":10299:10317  _allowances[owner] */\n      0x00\n        /* \"@openzeppelin/contracts/token/ERC20/ERC20.sol\":10311:10316  owner */\n      dup6\n        /* \"@openzeppelin/contracts/token/ERC20/ERC20.sol\":10299:10317  _allowances[owner] */\n      0xffffffffffffffffffffffffffffffffffffffff\n      and\n      0xffffffffffffffffffffffffffffffffffffffff\n      and\n      dup2\n      mstore\n      0x20\n      add\n      swap1\n      dup2\n      mstore\n      0x20\n      add\n      0x00\n      keccak256\n        /* \"@openzeppelin/contracts/token/ERC20/ERC20.sol\":10299:10326  _allowances[owner][spender] */\n      0x00\n        /* \"@openzeppelin/contracts/token/ERC20/ERC20.sol\":10318:10325  spender */\n      dup5\n        /* \"@openzeppelin/contracts/token/ERC20/ERC20.sol\":10299:10326  _allowances[owner][spender] */\n      0xffffffffffffffffffffffffffffffffffffffff\n      and\n      0xffffffffffffffffffffffffffffffffffffffff\n      and\n      dup2\n      mstore\n      0x20\n      add\n      swap1\n      dup2\n      mstore\n      0x20\n      add\n      0x00\n      keccak256\n        /* \"@openzeppelin/contracts/token/ERC20/ERC20.sol\":10299:10335  _allowances[owner][spender] = amount */\n      dup2\n      swap1\n      sstore\n      pop\n        /* \"@openzeppelin/contracts/token/ERC20/ERC20.sol\":10366:10373  spender */\n      dup2\n        /* \"@openzeppelin/contracts/token/ERC20/ERC20.sol\":10350:10382  Approval(owner, spender, amount) */\n      0xffffffffffffffffffffffffffffffffffffffff\n      and\n        /* \"@openzeppelin/contracts/token/ERC20/ERC20.sol\":10359:10364  owner */\n      dup4\n        /* \"@openzeppelin/contracts/token/ERC20/ERC20.sol\":10350:10382  Approval(owner, spender, amount) */\n      0xffffffffffffffffffffffffffffffffffffffff\n      and\n      0x8c5be1e5ebec7d5bd14f71427d1e84f3dd0314c0f7b2291e5b200ac8c7c3b925\n        /* \"@openzeppelin/contracts/token/ERC20/ERC20.sol\":10375:10381  amount */\n      dup4\n        /* \"@openzeppelin/contracts/token/ERC20/ERC20.sol\":10350:10382  Approval(owner, spender, amount) */\n      mload(0x40)\n      tag_237\n      swap2\n      swap1\n      tag_48\n      jump\t// in\n    tag_237:\n      mload(0x40)\n      dup1\n      swap2\n      sub\n      swap1\n      log3\n        /* \"@openzeppelin/contracts/token/ERC20/ERC20.sol\":10019:10389  function _approve(... */\n      pop\n      pop\n      pop\n      jump\t// out\n        /* \"@openzeppelin/contracts/token/ERC20/ERC20.sol\":7322:8035  function _transfer(... */\n    tag_145:\n        /* \"@openzeppelin/contracts/token/ERC20/ERC20.sol\":7475:7476  0 */\n      0x00\n        /* \"@openzeppelin/contracts/token/ERC20/ERC20.sol\":7457:7477  sender != address(0) */\n      0xffffffffffffffffffffffffffffffffffffffff\n      and\n        /* \"@openzeppelin/contracts/token/ERC20/ERC20.sol\":7457:7463  sender */\n      dup4\n        /* \"@openzeppelin/contracts/token/ERC20/ERC20.sol\":7457:7477  sender != address(0) */\n      0xffffffffffffffffffffffffffffffffffffffff\n      and\n      sub\n        /* \"@openzeppelin/contracts/token/ERC20/ERC20.sol\":7449:7519  require(sender != address(0), \"ERC20: transfer from the zero address\") */\n      tag_239\n      jumpi\n      mload(0x40)\n      0x08c379a000000000000000000000000000000000000000000000000000000000\n      dup2\n      mstore\n      0x04\n      add\n      tag_240\n      swap1\n      tag_241\n      jump\t// in\n    tag_240:\n      mload(0x40)\n      dup1\n      swap2\n      sub\n      swap1\n      revert\n    tag_239:\n        /* \"@openzeppelin/contracts/token/ERC20/ERC20.sol\":7558:7559  0 */\n      0x00\n        /* \"@openzeppelin/contracts/token/ERC20/ERC20.sol\":7537:7560  recipient != address(0) */\n      0xffffffffffffffffffffffffffffffffffffffff\n      and\n        /* \"@openzeppelin/contracts/token/ERC20/ERC20.sol\":7537:7546  recipient */\n      dup3\n        /* \"@openzeppelin/contracts/token/ERC20/ERC20.sol\":7537:7560  recipient != address(0) */\n      0xffffffffffffffffffffffffffffffffffffffff\n      and\n      sub\n        /* \"@openzeppelin/contracts/token/ERC20/ERC20.sol\":7529:7600  require(recipient != address(0), \"ERC20: transfer to the zero address\") */\n      tag_242\n      jumpi\n      mload(0x40)\n      0x08c379a000000000000000000000000000000000000000000000000000000000\n      dup2\n      mstore\n      0x04\n      add\n      tag_243\n      swap1\n      tag_244\n      jump\t// in\n    tag_243:\n      mload(0x40)\n      dup1\n      swap2\n      sub\n      swap1\n      revert\n    tag_242:\n        /* \"@openzeppelin/contracts/token/ERC20/ERC20.sol\":7611:7658  _beforeTokenTransfer(sender, recipient, amount) */\n      tag_245\n        /* \"@openzeppelin/contracts/token/ERC20/ERC20.sol\":7632:7638  sender */\n      dup4\n        /* \"@openzeppelin/contracts/token/ERC20/ERC20.sol\":7640:7649  recipient */\n      dup4\n        /* \"@openzeppelin/contracts/token/ERC20/ERC20.sol\":7651:7657  amount */\n      dup4\n        /* \"@openzeppelin/contracts/token/ERC20/ERC20.sol\":7611:7631  _beforeTokenTransfer */\n      tag_246\n        /* \"@openzeppelin/contracts/token/ERC20/ERC20.sol\":7611:7658  _beforeTokenTransfer(sender, recipient, amount) */\n      jump\t// in\n    tag_245:\n        /* \"@openzeppelin/contracts/token/ERC20/ERC20.sol\":7669:7690  uint256 senderBalance */\n      0x00\n        /* \"@openzeppelin/contracts/token/ERC20/ERC20.sol\":7693:7702  _balances */\n      dup1\n        /* \"@openzeppelin/contracts/token/ERC20/ERC20.sol\":7693:7710  _balances[sender] */\n      0x00\n        /* \"@openzeppelin/contracts/token/ERC20/ERC20.sol\":7703:7709  sender */\n      dup6\n        /* \"@openzeppelin/contracts/token/ERC20/ERC20.sol\":7693:7710  _balances[sender] */\n      0xffffffffffffffffffffffffffffffffffffffff\n      and\n      0xffffffffffffffffffffffffffffffffffffffff\n      and\n      dup2\n      mstore\n      0x20\n      add\n      swap1\n      dup2\n      mstore\n      0x20\n      add\n      0x00\n      keccak256\n      sload\n        /* \"@openzeppelin/contracts/token/ERC20/ERC20.sol\":7669:7710  uint256 senderBalance = _balances[sender] */\n      swap1\n      pop\n        /* \"@openzeppelin/contracts/token/ERC20/ERC20.sol\":7745:7751  amount */\n      dup2\n        /* \"@openzeppelin/contracts/token/ERC20/ERC20.sol\":7728:7741  senderBalance */\n      dup2\n        /* \"@openzeppelin/contracts/token/ERC20/ERC20.sol\":7728:7751  senderBalance >= amount */\n      lt\n      iszero\n        /* \"@openzeppelin/contracts/token/ERC20/ERC20.sol\":7720:7794  require(senderBalance >= amount, \"ERC20: transfer amount exceeds balance\") */\n      tag_247\n      jumpi\n      mload(0x40)\n      0x08c379a000000000000000000000000000000000000000000000000000000000\n      dup2\n      mstore\n      0x04\n      add\n      tag_248\n      swap1\n      tag_249\n      jump\t// in\n    tag_248:\n      mload(0x40)\n      dup1\n      swap2\n      sub\n      swap1\n      revert\n    tag_247:\n        /* \"@openzeppelin/contracts/token/ERC20/ERC20.sol\":7864:7870  amount */\n      dup2\n        /* \"@openzeppelin/contracts/token/ERC20/ERC20.sol\":7848:7861  senderBalance */\n      dup2\n        /* \"@openzeppelin/contracts/token/ERC20/ERC20.sol\":7848:7870  senderBalance - amount */\n      sub\n        /* \"@openzeppelin/contracts/token/ERC20/ERC20.sol\":7828:7837  _balances */\n      0x00\n        /* \"@openzeppelin/contracts/token/ERC20/ERC20.sol\":7828:7845  _balances[sender] */\n      dup1\n        /* \"@openzeppelin/contracts/token/ERC20/ERC20.sol\":7838:7844  sender */\n      dup7\n        /* \"@openzeppelin/contracts/token/ERC20/ERC20.sol\":7828:7845  _balances[sender] */\n      0xffffffffffffffffffffffffffffffffffffffff\n      and\n      0xffffffffffffffffffffffffffffffffffffffff\n      and\n      dup2\n      mstore\n      0x20\n      add\n      swap1\n      dup2\n      mstore\n      0x20\n      add\n      0x00\n      keccak256\n        /* \"@openzeppelin/contracts/token/ERC20/ERC20.sol\":7828:7870  _balances[sender] = senderBalance - amount */\n      dup2\n      swap1\n      sstore\n      pop\n        /* \"@openzeppelin/contracts/token/ERC20/ERC20.sol\":7914:7920  amount */\n      dup2\n        /* \"@openzeppelin/contracts/token/ERC20/ERC20.sol\":7890:7899  _balances */\n      0x00\n        /* \"@openzeppelin/contracts/token/ERC20/ERC20.sol\":7890:7910  _balances[recipient] */\n      dup1\n        /* \"@openzeppelin/contracts/token/ERC20/ERC20.sol\":7900:7909  recipient */\n      dup6\n        /* \"@openzeppelin/contracts/token/ERC20/ERC20.sol\":7890:7910  _balances[recipient] */\n      0xffffffffffffffffffffffffffffffffffffffff\n      and\n      0xffffffffffffffffffffffffffffffffffffffff\n      and\n      dup2\n      mstore\n      0x20\n      add\n      swap1\n      dup2\n      mstore\n      0x20\n      add\n      0x00\n      keccak256\n      0x00\n        /* \"@openzeppelin/contracts/token/ERC20/ERC20.sol\":7890:7920  _balances[recipient] += amount */\n      dup3\n      dup3\n      sload\n      tag_250\n      swap2\n      swap1\n      tag_158\n      jump\t// in\n    tag_250:\n      swap3\n      pop\n      pop\n      dup2\n      swap1\n      sstore\n      pop\n        /* \"@openzeppelin/contracts/token/ERC20/ERC20.sol\":7953:7962  recipient */\n      dup3\n        /* \"@openzeppelin/contracts/token/ERC20/ERC20.sol\":7936:7971  Transfer(sender, recipient, amount) */\n      0xffffffffffffffffffffffffffffffffffffffff\n      and\n        /* \"@openzeppelin/contracts/token/ERC20/ERC20.sol\":7945:7951  sender */\n      dup5\n        /* \"@openzeppelin/contracts/token/ERC20/ERC20.sol\":7936:7971  Transfer(sender, recipient, amount) */\n      0xffffffffffffffffffffffffffffffffffffffff\n      and\n      0xddf252ad1be2c89b69c2b068fc378daa952ba7f163c4a11628f55a4df523b3ef\n        /* \"@openzeppelin/contracts/token/ERC20/ERC20.sol\":7964:7970  amount */\n      dup5\n        /* \"@openzeppelin/contracts/token/ERC20/ERC20.sol\":7936:7971  Transfer(sender, recipient, amount) */\n      mload(0x40)\n      tag_251\n      swap2\n      swap1\n      tag_48\n      jump\t// in\n    tag_251:\n      mload(0x40)\n      dup1\n      swap2\n      sub\n      swap1\n      log3\n        /* \"@openzeppelin/contracts/token/ERC20/ERC20.sol\":7982:8028  _afterTokenTransfer(sender, recipient, amount) */\n      tag_252\n        /* \"@openzeppelin/contracts/token/ERC20/ERC20.sol\":8002:8008  sender */\n      dup5\n        /* \"@openzeppelin/contracts/token/ERC20/ERC20.sol\":8010:8019  recipient */\n      dup5\n        /* \"@openzeppelin/contracts/token/ERC20/ERC20.sol\":8021:8027  amount */\n      dup5\n        /* \"@openzeppelin/contracts/token/ERC20/ERC20.sol\":7982:8001  _afterTokenTransfer */\n      tag_253\n        /* \"@openzeppelin/contracts/token/ERC20/ERC20.sol\":7982:8028  _afterTokenTransfer(sender, recipient, amount) */\n      jump\t// in\n    tag_252:\n        /* \"@openzeppelin/contracts/token/ERC20/ERC20.sol\":7439:8035  {... */\n      pop\n        /* \"@openzeppelin/contracts/token/ERC20/ERC20.sol\":7322:8035  function _transfer(... */\n      pop\n      pop\n      pop\n      jump\t// out\n        /* \"Documents/GitHub/XRC-20Plus/contracts/XRC20Plus.sol\":5396:5831  function InternalAccounting(uint _shardHolder,uint _singleShard)internal returns(uint,uint){... */\n    tag_195:\n        /* \"Documents/GitHub/XRC-20Plus/contracts/XRC20Plus.sol\":5477:5481  uint */\n      0x00\n        /* \"Documents/GitHub/XRC-20Plus/contracts/XRC20Plus.sol\":5482:5486  uint */\n      dup1\n        /* \"Documents/GitHub/XRC-20Plus/contracts/XRC20Plus.sol\":5497:5518  address Serach_result */\n      0x00\n        /* \"Documents/GitHub/XRC-20Plus/contracts/XRC20Plus.sol\":5521:5527  ledger */\n      0x0a\n        /* \"Documents/GitHub/XRC-20Plus/contracts/XRC20Plus.sol\":5521:5544  ledger[Account_Counter] */\n      0x00\n        /* \"Documents/GitHub/XRC-20Plus/contracts/XRC20Plus.sol\":5528:5543  Account_Counter */\n      sload(0x06)\n        /* \"Documents/GitHub/XRC-20Plus/contracts/XRC20Plus.sol\":5521:5544  ledger[Account_Counter] */\n      dup2\n      mstore\n      0x20\n      add\n      swap1\n      dup2\n      mstore\n      0x20\n      add\n      0x00\n      keccak256\n        /* \"Documents/GitHub/XRC-20Plus/contracts/XRC20Plus.sol\":5521:5552  ledger[Account_Counter].account */\n      0x00\n      add\n      0x00\n      swap1\n      sload\n      swap1\n      0x0100\n      exp\n      swap1\n      div\n      0xffffffffffffffffffffffffffffffffffffffff\n      and\n        /* \"Documents/GitHub/XRC-20Plus/contracts/XRC20Plus.sol\":5497:5552  address Serach_result = ledger[Account_Counter].account */\n      swap1\n      pop\n        /* \"Documents/GitHub/XRC-20Plus/contracts/XRC20Plus.sol\":5595:5599  true */\n      0x01\n        /* \"Documents/GitHub/XRC-20Plus/contracts/XRC20Plus.sol\":5565:5599  ledger[_shardHolder].exist == true */\n      iszero\n      iszero\n        /* \"Documents/GitHub/XRC-20Plus/contracts/XRC20Plus.sol\":5565:5571  ledger */\n      0x0a\n        /* \"Documents/GitHub/XRC-20Plus/contracts/XRC20Plus.sol\":5565:5585  ledger[_shardHolder] */\n      0x00\n        /* \"Documents/GitHub/XRC-20Plus/contracts/XRC20Plus.sol\":5572:5584  _shardHolder */\n      dup8\n        /* \"Documents/GitHub/XRC-20Plus/contracts/XRC20Plus.sol\":5565:5585  ledger[_shardHolder] */\n      dup2\n      mstore\n      0x20\n      add\n      swap1\n      dup2\n      mstore\n      0x20\n      add\n      0x00\n      keccak256\n        /* \"Documents/GitHub/XRC-20Plus/contracts/XRC20Plus.sol\":5565:5591  ledger[_shardHolder].exist */\n      0x00\n      add\n      0x14\n      swap1\n      sload\n      swap1\n      0x0100\n      exp\n      swap1\n      div\n      0xff\n      and\n        /* \"Documents/GitHub/XRC-20Plus/contracts/XRC20Plus.sol\":5565:5599  ledger[_shardHolder].exist == true */\n      iszero\n      iszero\n      eq\n        /* \"Documents/GitHub/XRC-20Plus/contracts/XRC20Plus.sol\":5565:5638  ledger[_shardHolder].exist == true && accounts[Serach_result].ammount > 0 */\n      dup1\n      iszero\n      tag_255\n      jumpi\n      pop\n        /* \"Documents/GitHub/XRC-20Plus/contracts/XRC20Plus.sol\":5637:5638  0 */\n      0x00\n        /* \"Documents/GitHub/XRC-20Plus/contracts/XRC20Plus.sol\":5603:5611  accounts */\n      0x09\n        /* \"Documents/GitHub/XRC-20Plus/contracts/XRC20Plus.sol\":5603:5626  accounts[Serach_result] */\n      0x00\n        /* \"Documents/GitHub/XRC-20Plus/contracts/XRC20Plus.sol\":5612:5625  Serach_result */\n      dup4\n        /* \"Documents/GitHub/XRC-20Plus/contracts/XRC20Plus.sol\":5603:5626  accounts[Serach_result] */\n      0xffffffffffffffffffffffffffffffffffffffff\n      and\n      0xffffffffffffffffffffffffffffffffffffffff\n      and\n      dup2\n      mstore\n      0x20\n      add\n      swap1\n      dup2\n      mstore\n      0x20\n      add\n      0x00\n      keccak256\n        /* \"Documents/GitHub/XRC-20Plus/contracts/XRC20Plus.sol\":5603:5634  accounts[Serach_result].ammount */\n      0x00\n      add\n      sload\n        /* \"Documents/GitHub/XRC-20Plus/contracts/XRC20Plus.sol\":5603:5638  accounts[Serach_result].ammount > 0 */\n      gt\n        /* \"Documents/GitHub/XRC-20Plus/contracts/XRC20Plus.sol\":5565:5638  ledger[_shardHolder].exist == true && accounts[Serach_result].ammount > 0 */\n    tag_255:\n        /* \"Documents/GitHub/XRC-20Plus/contracts/XRC20Plus.sol\":5562:5756  if(ledger[_shardHolder].exist == true && accounts[Serach_result].ammount > 0){... */\n      iszero\n      tag_256\n      jumpi\n        /* \"Documents/GitHub/XRC-20Plus/contracts/XRC20Plus.sol\":5733:5745  _singleShard */\n      dup4\n        /* \"Documents/GitHub/XRC-20Plus/contracts/XRC20Plus.sol\":5688:5730  balanceOf(ledger[Account_Counter].account) */\n      tag_257\n        /* \"Documents/GitHub/XRC-20Plus/contracts/XRC20Plus.sol\":5698:5704  ledger */\n      0x0a\n        /* \"Documents/GitHub/XRC-20Plus/contracts/XRC20Plus.sol\":5698:5721  ledger[Account_Counter] */\n      0x00\n        /* \"Documents/GitHub/XRC-20Plus/contracts/XRC20Plus.sol\":5705:5720  Account_Counter */\n      sload(0x06)\n        /* \"Documents/GitHub/XRC-20Plus/contracts/XRC20Plus.sol\":5698:5721  ledger[Account_Counter] */\n      dup2\n      mstore\n      0x20\n      add\n      swap1\n      dup2\n      mstore\n      0x20\n      add\n      0x00\n      keccak256\n        /* \"Documents/GitHub/XRC-20Plus/contracts/XRC20Plus.sol\":5698:5729  ledger[Account_Counter].account */\n      0x00\n      add\n      0x00\n      swap1\n      sload\n      swap1\n      0x0100\n      exp\n      swap1\n      div\n      0xffffffffffffffffffffffffffffffffffffffff\n      and\n        /* \"Documents/GitHub/XRC-20Plus/contracts/XRC20Plus.sol\":5688:5697  balanceOf */\n      tag_86\n        /* \"Documents/GitHub/XRC-20Plus/contracts/XRC20Plus.sol\":5688:5730  balanceOf(ledger[Account_Counter].account) */\n      jump\t// in\n    tag_257:\n        /* \"Documents/GitHub/XRC-20Plus/contracts/XRC20Plus.sol\":5688:5745  balanceOf(ledger[Account_Counter].account) * _singleShard */\n      tag_258\n      swap2\n      swap1\n      tag_259\n      jump\t// in\n    tag_258:\n        /* \"Documents/GitHub/XRC-20Plus/contracts/XRC20Plus.sol\":5653:5661  accounts */\n      0x09\n        /* \"Documents/GitHub/XRC-20Plus/contracts/XRC20Plus.sol\":5653:5676  accounts[Serach_result] */\n      0x00\n        /* \"Documents/GitHub/XRC-20Plus/contracts/XRC20Plus.sol\":5662:5675  Serach_result */\n      dup4\n        /* \"Documents/GitHub/XRC-20Plus/contracts/XRC20Plus.sol\":5653:5676  accounts[Serach_result] */\n      0xffffffffffffffffffffffffffffffffffffffff\n      and\n      0xffffffffffffffffffffffffffffffffffffffff\n      and\n      dup2\n      mstore\n      0x20\n      add\n      swap1\n      dup2\n      mstore\n      0x20\n      add\n      0x00\n      keccak256\n        /* \"Documents/GitHub/XRC-20Plus/contracts/XRC20Plus.sol\":5653:5684  accounts[Serach_result].ammount */\n      0x00\n      add\n      0x00\n        /* \"Documents/GitHub/XRC-20Plus/contracts/XRC20Plus.sol\":5653:5745  accounts[Serach_result].ammount += balanceOf(ledger[Account_Counter].account) * _singleShard */\n      dup3\n      dup3\n      sload\n      tag_260\n      swap2\n      swap1\n      tag_158\n      jump\t// in\n    tag_260:\n      swap3\n      pop\n      pop\n      dup2\n      swap1\n      sstore\n      pop\n        /* \"Documents/GitHub/XRC-20Plus/contracts/XRC20Plus.sol\":5562:5756  if(ledger[_shardHolder].exist == true && accounts[Serach_result].ammount > 0){... */\n    tag_256:\n        /* \"Documents/GitHub/XRC-20Plus/contracts/XRC20Plus.sol\":5773:5785  _shardHolder */\n      dup5\n        /* \"Documents/GitHub/XRC-20Plus/contracts/XRC20Plus.sol\":5786:5794  accounts */\n      0x09\n        /* \"Documents/GitHub/XRC-20Plus/contracts/XRC20Plus.sol\":5786:5809  accounts[Serach_result] */\n      0x00\n        /* \"Documents/GitHub/XRC-20Plus/contracts/XRC20Plus.sol\":5795:5808  Serach_result */\n      dup4\n        /* \"Documents/GitHub/XRC-20Plus/contracts/XRC20Plus.sol\":5786:5809  accounts[Serach_result] */\n      0xffffffffffffffffffffffffffffffffffffffff\n      and\n      0xffffffffffffffffffffffffffffffffffffffff\n      and\n      dup2\n      mstore\n      0x20\n      add\n      swap1\n      dup2\n      mstore\n      0x20\n      add\n      0x00\n      keccak256\n        /* \"Documents/GitHub/XRC-20Plus/contracts/XRC20Plus.sol\":5786:5817  accounts[Serach_result].ammount */\n      0x00\n      add\n      sload\n        /* \"Documents/GitHub/XRC-20Plus/contracts/XRC20Plus.sol\":5765:5818  return (_shardHolder,accounts[Serach_result].ammount) */\n      swap3\n      pop\n      swap3\n      pop\n      pop\n        /* \"Documents/GitHub/XRC-20Plus/contracts/XRC20Plus.sol\":5396:5831  function InternalAccounting(uint _shardHolder,uint _singleShard)internal returns(uint,uint){... */\n      swap3\n      pop\n      swap3\n      swap1\n      pop\n      jump\t// out\n        /* \"@openzeppelin/contracts/token/ERC20/ERC20.sol\":10973:11094  function _beforeTokenTransfer(... */\n    tag_246:\n      pop\n      pop\n      pop\n      jump\t// out\n        /* \"@openzeppelin/contracts/token/ERC20/ERC20.sol\":11682:11802  function _afterTokenTransfer(... */\n    tag_253:\n      pop\n      pop\n      pop\n      jump\t// out\n        /* \"#utility.yul\":7:106   */\n    tag_263:\n        /* \"#utility.yul\":59:65   */\n      0x00\n        /* \"#utility.yul\":93:98   */\n      dup2\n        /* \"#utility.yul\":87:99   */\n      mload\n        /* \"#utility.yul\":77:99   */\n      swap1\n      pop\n        /* \"#utility.yul\":7:106   */\n      swap2\n      swap1\n      pop\n      jump\t// out\n        /* \"#utility.yul\":112:281   */\n    tag_264:\n        /* \"#utility.yul\":196:207   */\n      0x00\n        /* \"#utility.yul\":230:236   */\n      dup3\n        /* \"#utility.yul\":225:228   */\n      dup3\n        /* \"#utility.yul\":218:237   */\n      mstore\n        /* \"#utility.yul\":270:274   */\n      0x20\n        /* \"#utility.yul\":265:268   */\n      dup3\n        /* \"#utility.yul\":261:275   */\n      add\n        /* \"#utility.yul\":246:275   */\n      swap1\n      pop\n        /* \"#utility.yul\":112:281   */\n      swap3\n      swap2\n      pop\n      pop\n      jump\t// out\n        /* \"#utility.yul\":287:594   */\n    tag_265:\n        /* \"#utility.yul\":355:356   */\n      0x00\n        /* \"#utility.yul\":365:478   */\n    tag_325:\n        /* \"#utility.yul\":379:385   */\n      dup4\n        /* \"#utility.yul\":376:377   */\n      dup2\n        /* \"#utility.yul\":373:386   */\n      lt\n        /* \"#utility.yul\":365:478   */\n      iszero\n      tag_327\n      jumpi\n        /* \"#utility.yul\":464:465   */\n      dup1\n        /* \"#utility.yul\":459:462   */\n      dup3\n        /* \"#utility.yul\":455:466   */\n      add\n        /* \"#utility.yul\":449:467   */\n      mload\n        /* \"#utility.yul\":445:446   */\n      dup2\n        /* \"#utility.yul\":440:443   */\n      dup5\n        /* \"#utility.yul\":436:447   */\n      add\n        /* \"#utility.yul\":429:468   */\n      mstore\n        /* \"#utility.yul\":401:403   */\n      0x20\n        /* \"#utility.yul\":398:399   */\n      dup2\n        /* \"#utility.yul\":394:404   */\n      add\n        /* \"#utility.yul\":389:404   */\n      swap1\n      pop\n        /* \"#utility.yul\":365:478   */\n      jump(tag_325)\n    tag_327:\n        /* \"#utility.yul\":496:502   */\n      dup4\n        /* \"#utility.yul\":493:494   */\n      dup2\n        /* \"#utility.yul\":490:503   */\n      gt\n        /* \"#utility.yul\":487:588   */\n      iszero\n      tag_328\n      jumpi\n        /* \"#utility.yul\":576:577   */\n      0x00\n        /* \"#utility.yul\":567:573   */\n      dup5\n        /* \"#utility.yul\":562:565   */\n      dup5\n        /* \"#utility.yul\":558:574   */\n      add\n        /* \"#utility.yul\":551:578   */\n      mstore\n        /* \"#utility.yul\":487:588   */\n    tag_328:\n        /* \"#utility.yul\":336:594   */\n      pop\n        /* \"#utility.yul\":287:594   */\n      pop\n      pop\n      pop\n      jump\t// out\n        /* \"#utility.yul\":600:702   */\n    tag_266:\n        /* \"#utility.yul\":641:647   */\n      0x00\n        /* \"#utility.yul\":692:694   */\n      0x1f\n        /* \"#utility.yul\":688:695   */\n      not\n        /* \"#utility.yul\":683:685   */\n      0x1f\n        /* \"#utility.yul\":676:681   */\n      dup4\n        /* \"#utility.yul\":672:686   */\n      add\n        /* \"#utility.yul\":668:696   */\n      and\n        /* \"#utility.yul\":658:696   */\n      swap1\n      pop\n        /* \"#utility.yul\":600:702   */\n      swap2\n      swap1\n      pop\n      jump\t// out\n        /* \"#utility.yul\":708:1072   */\n    tag_267:\n        /* \"#utility.yul\":796:799   */\n      0x00\n        /* \"#utility.yul\":824:863   */\n      tag_331\n        /* \"#utility.yul\":857:862   */\n      dup3\n        /* \"#utility.yul\":824:863   */\n      tag_263\n      jump\t// in\n    tag_331:\n        /* \"#utility.yul\":879:950   */\n      tag_332\n        /* \"#utility.yul\":943:949   */\n      dup2\n        /* \"#utility.yul\":938:941   */\n      dup6\n        /* \"#utility.yul\":879:950   */\n      tag_264\n      jump\t// in\n    tag_332:\n        /* \"#utility.yul\":872:950   */\n      swap4\n      pop\n        /* \"#utility.yul\":959:1011   */\n      tag_333\n        /* \"#utility.yul\":1004:1010   */\n      dup2\n        /* \"#utility.yul\":999:1002   */\n      dup6\n        /* \"#utility.yul\":992:996   */\n      0x20\n        /* \"#utility.yul\":985:990   */\n      dup7\n        /* \"#utility.yul\":981:997   */\n      add\n        /* \"#utility.yul\":959:1011   */\n      tag_265\n      jump\t// in\n    tag_333:\n        /* \"#utility.yul\":1036:1065   */\n      tag_334\n        /* \"#utility.yul\":1058:1064   */\n      dup2\n        /* \"#utility.yul\":1036:1065   */\n      tag_266\n      jump\t// in\n    tag_334:\n        /* \"#utility.yul\":1031:1034   */\n      dup5\n        /* \"#utility.yul\":1027:1066   */\n      add\n        /* \"#utility.yul\":1020:1066   */\n      swap2\n      pop\n        /* \"#utility.yul\":800:1072   */\n      pop\n        /* \"#utility.yul\":708:1072   */\n      swap3\n      swap2\n      pop\n      pop\n      jump\t// out\n        /* \"#utility.yul\":1078:1391   */\n    tag_36:\n        /* \"#utility.yul\":1191:1195   */\n      0x00\n        /* \"#utility.yul\":1229:1231   */\n      0x20\n        /* \"#utility.yul\":1218:1227   */\n      dup3\n        /* \"#utility.yul\":1214:1232   */\n      add\n        /* \"#utility.yul\":1206:1232   */\n      swap1\n      pop\n        /* \"#utility.yul\":1278:1287   */\n      dup2\n        /* \"#utility.yul\":1272:1276   */\n      dup2\n        /* \"#utility.yul\":1268:1288   */\n      sub\n        /* \"#utility.yul\":1264:1265   */\n      0x00\n        /* \"#utility.yul\":1253:1262   */\n      dup4\n        /* \"#utility.yul\":1249:1266   */\n      add\n        /* \"#utility.yul\":1242:1289   */\n      mstore\n        /* \"#utility.yul\":1306:1384   */\n      tag_336\n        /* \"#utility.yul\":1379:1383   */\n      dup2\n        /* \"#utility.yul\":1370:1376   */\n      dup5\n        /* \"#utility.yul\":1306:1384   */\n      tag_267\n      jump\t// in\n    tag_336:\n        /* \"#utility.yul\":1298:1384   */\n      swap1\n      pop\n        /* \"#utility.yul\":1078:1391   */\n      swap3\n      swap2\n      pop\n      pop\n      jump\t// out\n        /* \"#utility.yul\":1478:1595   */\n    tag_269:\n        /* \"#utility.yul\":1587:1588   */\n      0x00\n        /* \"#utility.yul\":1584:1585   */\n      dup1\n        /* \"#utility.yul\":1577:1589   */\n      revert\n        /* \"#utility.yul\":1724:1850   */\n    tag_271:\n        /* \"#utility.yul\":1761:1768   */\n      0x00\n        /* \"#utility.yul\":1801:1843   */\n      0xffffffffffffffffffffffffffffffffffffffff\n        /* \"#utility.yul\":1794:1799   */\n      dup3\n        /* \"#utility.yul\":1790:1844   */\n      and\n        /* \"#utility.yul\":1779:1844   */\n      swap1\n      pop\n        /* \"#utility.yul\":1724:1850   */\n      swap2\n      swap1\n      pop\n      jump\t// out\n        /* \"#utility.yul\":1856:1952   */\n    tag_272:\n        /* \"#utility.yul\":1893:1900   */\n      0x00\n        /* \"#utility.yul\":1922:1946   */\n      tag_342\n        /* \"#utility.yul\":1940:1945   */\n      dup3\n        /* \"#utility.yul\":1922:1946   */\n      tag_271\n      jump\t// in\n    tag_342:\n        /* \"#utility.yul\":1911:1946   */\n      swap1\n      pop\n        /* \"#utility.yul\":1856:1952   */\n      swap2\n      swap1\n      pop\n      jump\t// out\n        /* \"#utility.yul\":1958:2080   */\n    tag_273:\n        /* \"#utility.yul\":2031:2055   */\n      tag_344\n        /* \"#utility.yul\":2049:2054   */\n      dup2\n        /* \"#utility.yul\":2031:2055   */\n      tag_272\n      jump\t// in\n    tag_344:\n        /* \"#utility.yul\":2024:2029   */\n      dup2\n        /* \"#utility.yul\":2021:2056   */\n      eq\n        /* \"#utility.yul\":2011:2074   */\n      tag_345\n      jumpi\n        /* \"#utility.yul\":2070:2071   */\n      0x00\n        /* \"#utility.yul\":2067:2068   */\n      dup1\n        /* \"#utility.yul\":2060:2072   */\n      revert\n        /* \"#utility.yul\":2011:2074   */\n    tag_345:\n        /* \"#utility.yul\":1958:2080   */\n      pop\n      jump\t// out\n        /* \"#utility.yul\":2086:2225   */\n    tag_274:\n        /* \"#utility.yul\":2132:2137   */\n      0x00\n        /* \"#utility.yul\":2170:2176   */\n      dup2\n        /* \"#utility.yul\":2157:2177   */\n      calldataload\n        /* \"#utility.yul\":2148:2177   */\n      swap1\n      pop\n        /* \"#utility.yul\":2186:2219   */\n      tag_347\n        /* \"#utility.yul\":2213:2218   */\n      dup2\n        /* \"#utility.yul\":2186:2219   */\n      tag_273\n      jump\t// in\n    tag_347:\n        /* \"#utility.yul\":2086:2225   */\n      swap3\n      swap2\n      pop\n      pop\n      jump\t// out\n        /* \"#utility.yul\":2231:2308   */\n    tag_275:\n        /* \"#utility.yul\":2268:2275   */\n      0x00\n        /* \"#utility.yul\":2297:2302   */\n      dup2\n        /* \"#utility.yul\":2286:2302   */\n      swap1\n      pop\n        /* \"#utility.yul\":2231:2308   */\n      swap2\n      swap1\n      pop\n      jump\t// out\n        /* \"#utility.yul\":2314:2436   */\n    tag_276:\n        /* \"#utility.yul\":2387:2411   */\n      tag_350\n        /* \"#utility.yul\":2405:2410   */\n      dup2\n        /* \"#utility.yul\":2387:2411   */\n      tag_275\n      jump\t// in\n    tag_350:\n        /* \"#utility.yul\":2380:2385   */\n      dup2\n        /* \"#utility.yul\":2377:2412   */\n      eq\n        /* \"#utility.yul\":2367:2430   */\n      tag_351\n      jumpi\n        /* \"#utility.yul\":2426:2427   */\n      0x00\n        /* \"#utility.yul\":2423:2424   */\n      dup1\n        /* \"#utility.yul\":2416:2428   */\n      revert\n        /* \"#utility.yul\":2367:2430   */\n    tag_351:\n        /* \"#utility.yul\":2314:2436   */\n      pop\n      jump\t// out\n        /* \"#utility.yul\":2442:2581   */\n    tag_277:\n        /* \"#utility.yul\":2488:2493   */\n      0x00\n        /* \"#utility.yul\":2526:2532   */\n      dup2\n        /* \"#utility.yul\":2513:2533   */\n      calldataload\n        /* \"#utility.yul\":2504:2533   */\n      swap1\n      pop\n        /* \"#utility.yul\":2542:2575   */\n      tag_353\n        /* \"#utility.yul\":2569:2574   */\n      dup2\n        /* \"#utility.yul\":2542:2575   */\n      tag_276\n      jump\t// in\n    tag_353:\n        /* \"#utility.yul\":2442:2581   */\n      swap3\n      swap2\n      pop\n      pop\n      jump\t// out\n        /* \"#utility.yul\":2587:3061   */\n    tag_40:\n        /* \"#utility.yul\":2655:2661   */\n      0x00\n        /* \"#utility.yul\":2663:2669   */\n      dup1\n        /* \"#utility.yul\":2712:2714   */\n      0x40\n        /* \"#utility.yul\":2700:2709   */\n      dup4\n        /* \"#utility.yul\":2691:2698   */\n      dup6\n        /* \"#utility.yul\":2687:2710   */\n      sub\n        /* \"#utility.yul\":2683:2715   */\n      slt\n        /* \"#utility.yul\":2680:2799   */\n      iszero\n      tag_355\n      jumpi\n        /* \"#utility.yul\":2718:2797   */\n      tag_356\n      tag_269\n      jump\t// in\n    tag_356:\n        /* \"#utility.yul\":2680:2799   */\n    tag_355:\n        /* \"#utility.yul\":2838:2839   */\n      0x00\n        /* \"#utility.yul\":2863:2916   */\n      tag_357\n        /* \"#utility.yul\":2908:2915   */\n      dup6\n        /* \"#utility.yul\":2899:2905   */\n      dup3\n        /* \"#utility.yul\":2888:2897   */\n      dup7\n        /* \"#utility.yul\":2884:2906   */\n      add\n        /* \"#utility.yul\":2863:2916   */\n      tag_274\n      jump\t// in\n    tag_357:\n        /* \"#utility.yul\":2853:2916   */\n      swap3\n      pop\n        /* \"#utility.yul\":2809:2926   */\n      pop\n        /* \"#utility.yul\":2965:2967   */\n      0x20\n        /* \"#utility.yul\":2991:3044   */\n      tag_358\n        /* \"#utility.yul\":3036:3043   */\n      dup6\n        /* \"#utility.yul\":3027:3033   */\n      dup3\n        /* \"#utility.yul\":3016:3025   */\n      dup7\n        /* \"#utility.yul\":3012:3034   */\n      add\n        /* \"#utility.yul\":2991:3044   */\n      tag_277\n      jump\t// in\n    tag_358:\n        /* \"#utility.yul\":2981:3044   */\n      swap2\n      pop\n        /* \"#utility.yul\":2936:3054   */\n      pop\n        /* \"#utility.yul\":2587:3061   */\n      swap3\n      pop\n      swap3\n      swap1\n      pop\n      jump\t// out\n        /* \"#utility.yul\":3067:3157   */\n    tag_278:\n        /* \"#utility.yul\":3101:3108   */\n      0x00\n        /* \"#utility.yul\":3144:3149   */\n      dup2\n        /* \"#utility.yul\":3137:3150   */\n      iszero\n        /* \"#utility.yul\":3130:3151   */\n      iszero\n        /* \"#utility.yul\":3119:3151   */\n      swap1\n      pop\n        /* \"#utility.yul\":3067:3157   */\n      swap2\n      swap1\n      pop\n      jump\t// out\n        /* \"#utility.yul\":3163:3272   */\n    tag_279:\n        /* \"#utility.yul\":3244:3265   */\n      tag_361\n        /* \"#utility.yul\":3259:3264   */\n      dup2\n        /* \"#utility.yul\":3244:3265   */\n      tag_278\n      jump\t// in\n    tag_361:\n        /* \"#utility.yul\":3239:3242   */\n      dup3\n        /* \"#utility.yul\":3232:3266   */\n      mstore\n        /* \"#utility.yul\":3163:3272   */\n      pop\n      pop\n      jump\t// out\n        /* \"#utility.yul\":3278:3488   */\n    tag_43:\n        /* \"#utility.yul\":3365:3369   */\n      0x00\n        /* \"#utility.yul\":3403:3405   */\n      0x20\n        /* \"#utility.yul\":3392:3401   */\n      dup3\n        /* \"#utility.yul\":3388:3406   */\n      add\n        /* \"#utility.yul\":3380:3406   */\n      swap1\n      pop\n        /* \"#utility.yul\":3416:3481   */\n      tag_363\n        /* \"#utility.yul\":3478:3479   */\n      0x00\n        /* \"#utility.yul\":3467:3476   */\n      dup4\n        /* \"#utility.yul\":3463:3480   */\n      add\n        /* \"#utility.yul\":3454:3460   */\n      dup5\n        /* \"#utility.yul\":3416:3481   */\n      tag_279\n      jump\t// in\n    tag_363:\n        /* \"#utility.yul\":3278:3488   */\n      swap3\n      swap2\n      pop\n      pop\n      jump\t// out\n        /* \"#utility.yul\":3494:3612   */\n    tag_280:\n        /* \"#utility.yul\":3581:3605   */\n      tag_365\n        /* \"#utility.yul\":3599:3604   */\n      dup2\n        /* \"#utility.yul\":3581:3605   */\n      tag_275\n      jump\t// in\n    tag_365:\n        /* \"#utility.yul\":3576:3579   */\n      dup3\n        /* \"#utility.yul\":3569:3606   */\n      mstore\n        /* \"#utility.yul\":3494:3612   */\n      pop\n      pop\n      jump\t// out\n        /* \"#utility.yul\":3618:3840   */\n    tag_48:\n        /* \"#utility.yul\":3711:3715   */\n      0x00\n        /* \"#utility.yul\":3749:3751   */\n      0x20\n        /* \"#utility.yul\":3738:3747   */\n      dup3\n        /* \"#utility.yul\":3734:3752   */\n      add\n        /* \"#utility.yul\":3726:3752   */\n      swap1\n      pop\n        /* \"#utility.yul\":3762:3833   */\n      tag_367\n        /* \"#utility.yul\":3830:3831   */\n      0x00\n        /* \"#utility.yul\":3819:3828   */\n      dup4\n        /* \"#utility.yul\":3815:3832   */\n      add\n        /* \"#utility.yul\":3806:3812   */\n      dup5\n        /* \"#utility.yul\":3762:3833   */\n      tag_280\n      jump\t// in\n    tag_367:\n        /* \"#utility.yul\":3618:3840   */\n      swap3\n      swap2\n      pop\n      pop\n      jump\t// out\n        /* \"#utility.yul\":3846:4175   */\n    tag_52:\n        /* \"#utility.yul\":3905:3911   */\n      0x00\n        /* \"#utility.yul\":3954:3956   */\n      0x20\n        /* \"#utility.yul\":3942:3951   */\n      dup3\n        /* \"#utility.yul\":3933:3940   */\n      dup5\n        /* \"#utility.yul\":3929:3952   */\n      sub\n        /* \"#utility.yul\":3925:3957   */\n      slt\n        /* \"#utility.yul\":3922:4041   */\n      iszero\n      tag_369\n      jumpi\n        /* \"#utility.yul\":3960:4039   */\n      tag_370\n      tag_269\n      jump\t// in\n    tag_370:\n        /* \"#utility.yul\":3922:4041   */\n    tag_369:\n        /* \"#utility.yul\":4080:4081   */\n      0x00\n        /* \"#utility.yul\":4105:4158   */\n      tag_371\n        /* \"#utility.yul\":4150:4157   */\n      dup5\n        /* \"#utility.yul\":4141:4147   */\n      dup3\n        /* \"#utility.yul\":4130:4139   */\n      dup6\n        /* \"#utility.yul\":4126:4148   */\n      add\n        /* \"#utility.yul\":4105:4158   */\n      tag_277\n      jump\t// in\n    tag_371:\n        /* \"#utility.yul\":4095:4158   */\n      swap2\n      pop\n        /* \"#utility.yul\":4051:4168   */\n      pop\n        /* \"#utility.yul\":3846:4175   */\n      swap3\n      swap2\n      pop\n      pop\n      jump\t// out\n        /* \"#utility.yul\":4181:4299   */\n    tag_281:\n        /* \"#utility.yul\":4268:4292   */\n      tag_373\n        /* \"#utility.yul\":4286:4291   */\n      dup2\n        /* \"#utility.yul\":4268:4292   */\n      tag_272\n      jump\t// in\n    tag_373:\n        /* \"#utility.yul\":4263:4266   */\n      dup3\n        /* \"#utility.yul\":4256:4293   */\n      mstore\n        /* \"#utility.yul\":4181:4299   */\n      pop\n      pop\n      jump\t// out\n        /* \"#utility.yul\":4305:4625   */\n    tag_55:\n        /* \"#utility.yul\":4420:4424   */\n      0x00\n        /* \"#utility.yul\":4458:4460   */\n      0x40\n        /* \"#utility.yul\":4447:4456   */\n      dup3\n        /* \"#utility.yul\":4443:4461   */\n      add\n        /* \"#utility.yul\":4435:4461   */\n      swap1\n      pop\n        /* \"#utility.yul\":4471:4542   */\n      tag_375\n        /* \"#utility.yul\":4539:4540   */\n      0x00\n        /* \"#utility.yul\":4528:4537   */\n      dup4\n        /* \"#utility.yul\":4524:4541   */\n      add\n        /* \"#utility.yul\":4515:4521   */\n      dup6\n        /* \"#utility.yul\":4471:4542   */\n      tag_281\n      jump\t// in\n    tag_375:\n        /* \"#utility.yul\":4552:4618   */\n      tag_376\n        /* \"#utility.yul\":4614:4616   */\n      0x20\n        /* \"#utility.yul\":4603:4612   */\n      dup4\n        /* \"#utility.yul\":4599:4617   */\n      add\n        /* \"#utility.yul\":4590:4596   */\n      dup5\n        /* \"#utility.yul\":4552:4618   */\n      tag_279\n      jump\t// in\n    tag_376:\n        /* \"#utility.yul\":4305:4625   */\n      swap4\n      swap3\n      pop\n      pop\n      pop\n      jump\t// out\n        /* \"#utility.yul\":4631:5250   */\n    tag_63:\n        /* \"#utility.yul\":4708:4714   */\n      0x00\n        /* \"#utility.yul\":4716:4722   */\n      dup1\n        /* \"#utility.yul\":4724:4730   */\n      0x00\n        /* \"#utility.yul\":4773:4775   */\n      0x60\n        /* \"#utility.yul\":4761:4770   */\n      dup5\n        /* \"#utility.yul\":4752:4759   */\n      dup7\n        /* \"#utility.yul\":4748:4771   */\n      sub\n        /* \"#utility.yul\":4744:4776   */\n      slt\n        /* \"#utility.yul\":4741:4860   */\n      iszero\n      tag_378\n      jumpi\n        /* \"#utility.yul\":4779:4858   */\n      tag_379\n      tag_269\n      jump\t// in\n    tag_379:\n        /* \"#utility.yul\":4741:4860   */\n    tag_378:\n        /* \"#utility.yul\":4899:4900   */\n      0x00\n        /* \"#utility.yul\":4924:4977   */\n      tag_380\n        /* \"#utility.yul\":4969:4976   */\n      dup7\n        /* \"#utility.yul\":4960:4966   */\n      dup3\n        /* \"#utility.yul\":4949:4958   */\n      dup8\n        /* \"#utility.yul\":4945:4967   */\n      add\n        /* \"#utility.yul\":4924:4977   */\n      tag_274\n      jump\t// in\n    tag_380:\n        /* \"#utility.yul\":4914:4977   */\n      swap4\n      pop\n        /* \"#utility.yul\":4870:4987   */\n      pop\n        /* \"#utility.yul\":5026:5028   */\n      0x20\n        /* \"#utility.yul\":5052:5105   */\n      tag_381\n        /* \"#utility.yul\":5097:5104   */\n      dup7\n        /* \"#utility.yul\":5088:5094   */\n      dup3\n        /* \"#utility.yul\":5077:5086   */\n      dup8\n        /* \"#utility.yul\":5073:5095   */\n      add\n        /* \"#utility.yul\":5052:5105   */\n      tag_274\n      jump\t// in\n    tag_381:\n        /* \"#utility.yul\":5042:5105   */\n      swap3\n      pop\n        /* \"#utility.yul\":4997:5115   */\n      pop\n        /* \"#utility.yul\":5154:5156   */\n      0x40\n        /* \"#utility.yul\":5180:5233   */\n      tag_382\n        /* \"#utility.yul\":5225:5232   */\n      dup7\n        /* \"#utility.yul\":5216:5222   */\n      dup3\n        /* \"#utility.yul\":5205:5214   */\n      dup8\n        /* \"#utility.yul\":5201:5223   */\n      add\n        /* \"#utility.yul\":5180:5233   */\n      tag_277\n      jump\t// in\n    tag_382:\n        /* \"#utility.yul\":5170:5233   */\n      swap2\n      pop\n        /* \"#utility.yul\":5125:5243   */\n      pop\n        /* \"#utility.yul\":4631:5250   */\n      swap3\n      pop\n      swap3\n      pop\n      swap3\n      jump\t// out\n        /* \"#utility.yul\":5256:5342   */\n    tag_282:\n        /* \"#utility.yul\":5291:5298   */\n      0x00\n        /* \"#utility.yul\":5331:5335   */\n      0xff\n        /* \"#utility.yul\":5324:5329   */\n      dup3\n        /* \"#utility.yul\":5320:5336   */\n      and\n        /* \"#utility.yul\":5309:5336   */\n      swap1\n      pop\n        /* \"#utility.yul\":5256:5342   */\n      swap2\n      swap1\n      pop\n      jump\t// out\n        /* \"#utility.yul\":5348:5460   */\n    tag_283:\n        /* \"#utility.yul\":5431:5453   */\n      tag_385\n        /* \"#utility.yul\":5447:5452   */\n      dup2\n        /* \"#utility.yul\":5431:5453   */\n      tag_282\n      jump\t// in\n    tag_385:\n        /* \"#utility.yul\":5426:5429   */\n      dup3\n        /* \"#utility.yul\":5419:5454   */\n      mstore\n        /* \"#utility.yul\":5348:5460   */\n      pop\n      pop\n      jump\t// out\n        /* \"#utility.yul\":5466:5680   */\n    tag_70:\n        /* \"#utility.yul\":5555:5559   */\n      0x00\n        /* \"#utility.yul\":5593:5595   */\n      0x20\n        /* \"#utility.yul\":5582:5591   */\n      dup3\n        /* \"#utility.yul\":5578:5596   */\n      add\n        /* \"#utility.yul\":5570:5596   */\n      swap1\n      pop\n        /* \"#utility.yul\":5606:5673   */\n      tag_387\n        /* \"#utility.yul\":5670:5671   */\n      0x00\n        /* \"#utility.yul\":5659:5668   */\n      dup4\n        /* \"#utility.yul\":5655:5672   */\n      add\n        /* \"#utility.yul\":5646:5652   */\n      dup5\n        /* \"#utility.yul\":5606:5673   */\n      tag_283\n      jump\t// in\n    tag_387:\n        /* \"#utility.yul\":5466:5680   */\n      swap3\n      swap2\n      pop\n      pop\n      jump\t// out\n        /* \"#utility.yul\":5686:6015   */\n    tag_79:\n        /* \"#utility.yul\":5745:5751   */\n      0x00\n        /* \"#utility.yul\":5794:5796   */\n      0x20\n        /* \"#utility.yul\":5782:5791   */\n      dup3\n        /* \"#utility.yul\":5773:5780   */\n      dup5\n        /* \"#utility.yul\":5769:5792   */\n      sub\n        /* \"#utility.yul\":5765:5797   */\n      slt\n        /* \"#utility.yul\":5762:5881   */\n      iszero\n      tag_389\n      jumpi\n        /* \"#utility.yul\":5800:5879   */\n      tag_390\n      tag_269\n      jump\t// in\n    tag_390:\n        /* \"#utility.yul\":5762:5881   */\n    tag_389:\n        /* \"#utility.yul\":5920:5921   */\n      0x00\n        /* \"#utility.yul\":5945:5998   */\n      tag_391\n        /* \"#utility.yul\":5990:5997   */\n      dup5\n        /* \"#utility.yul\":5981:5987   */\n      dup3\n        /* \"#utility.yul\":5970:5979   */\n      dup6\n        /* \"#utility.yul\":5966:5988   */\n      add\n        /* \"#utility.yul\":5945:5998   */\n      tag_274\n      jump\t// in\n    tag_391:\n        /* \"#utility.yul\":5935:5998   */\n      swap2\n      pop\n        /* \"#utility.yul\":5891:6008   */\n      pop\n        /* \"#utility.yul\":5686:6015   */\n      swap3\n      swap2\n      pop\n      pop\n      jump\t// out\n        /* \"#utility.yul\":6021:6341   */\n    tag_82:\n        /* \"#utility.yul\":6136:6140   */\n      0x00\n        /* \"#utility.yul\":6174:6176   */\n      0x40\n        /* \"#utility.yul\":6163:6172   */\n      dup3\n        /* \"#utility.yul\":6159:6177   */\n      add\n        /* \"#utility.yul\":6151:6177   */\n      swap1\n      pop\n        /* \"#utility.yul\":6187:6258   */\n      tag_393\n        /* \"#utility.yul\":6255:6256   */\n      0x00\n        /* \"#utility.yul\":6244:6253   */\n      dup4\n        /* \"#utility.yul\":6240:6257   */\n      add\n        /* \"#utility.yul\":6231:6237   */\n      dup6\n        /* \"#utility.yul\":6187:6258   */\n      tag_280\n      jump\t// in\n    tag_393:\n        /* \"#utility.yul\":6268:6334   */\n      tag_394\n        /* \"#utility.yul\":6330:6332   */\n      0x20\n        /* \"#utility.yul\":6319:6328   */\n      dup4\n        /* \"#utility.yul\":6315:6333   */\n      add\n        /* \"#utility.yul\":6306:6312   */\n      dup5\n        /* \"#utility.yul\":6268:6334   */\n      tag_279\n      jump\t// in\n    tag_394:\n        /* \"#utility.yul\":6021:6341   */\n      swap4\n      swap3\n      pop\n      pop\n      pop\n      jump\t// out\n        /* \"#utility.yul\":6347:6407   */\n    tag_284:\n        /* \"#utility.yul\":6375:6378   */\n      0x00\n        /* \"#utility.yul\":6396:6401   */\n      dup2\n        /* \"#utility.yul\":6389:6401   */\n      swap1\n      pop\n        /* \"#utility.yul\":6347:6407   */\n      swap2\n      swap1\n      pop\n      jump\t// out\n        /* \"#utility.yul\":6413:6555   */\n    tag_285:\n        /* \"#utility.yul\":6463:6472   */\n      0x00\n        /* \"#utility.yul\":6496:6549   */\n      tag_397\n        /* \"#utility.yul\":6514:6548   */\n      tag_398\n        /* \"#utility.yul\":6523:6547   */\n      tag_399\n        /* \"#utility.yul\":6541:6546   */\n      dup5\n        /* \"#utility.yul\":6523:6547   */\n      tag_271\n      jump\t// in\n    tag_399:\n        /* \"#utility.yul\":6514:6548   */\n      tag_284\n      jump\t// in\n    tag_398:\n        /* \"#utility.yul\":6496:6549   */\n      tag_271\n      jump\t// in\n    tag_397:\n        /* \"#utility.yul\":6483:6549   */\n      swap1\n      pop\n        /* \"#utility.yul\":6413:6555   */\n      swap2\n      swap1\n      pop\n      jump\t// out\n        /* \"#utility.yul\":6561:6695   */\n    tag_286:\n        /* \"#utility.yul\":6619:6628   */\n      0x00\n        /* \"#utility.yul\":6652:6689   */\n      tag_401\n        /* \"#utility.yul\":6683:6688   */\n      dup3\n        /* \"#utility.yul\":6652:6689   */\n      tag_285\n      jump\t// in\n    tag_401:\n        /* \"#utility.yul\":6639:6689   */\n      swap1\n      pop\n        /* \"#utility.yul\":6561:6695   */\n      swap2\n      swap1\n      pop\n      jump\t// out\n        /* \"#utility.yul\":6701:6859   */\n    tag_287:\n        /* \"#utility.yul\":6775:6784   */\n      0x00\n        /* \"#utility.yul\":6808:6853   */\n      tag_403\n        /* \"#utility.yul\":6847:6852   */\n      dup3\n        /* \"#utility.yul\":6808:6853   */\n      tag_286\n      jump\t// in\n    tag_403:\n        /* \"#utility.yul\":6795:6853   */\n      swap1\n      pop\n        /* \"#utility.yul\":6701:6859   */\n      swap2\n      swap1\n      pop\n      jump\t// out\n        /* \"#utility.yul\":6865:7044   */\n    tag_288:\n        /* \"#utility.yul\":6976:7037   */\n      tag_405\n        /* \"#utility.yul\":7031:7036   */\n      dup2\n        /* \"#utility.yul\":6976:7037   */\n      tag_287\n      jump\t// in\n    tag_405:\n        /* \"#utility.yul\":6971:6974   */\n      dup3\n        /* \"#utility.yul\":6964:7038   */\n      mstore\n        /* \"#utility.yul\":6865:7044   */\n      pop\n      pop\n      jump\t// out\n        /* \"#utility.yul\":7050:7320   */\n    tag_118:\n        /* \"#utility.yul\":7167:7171   */\n      0x00\n        /* \"#utility.yul\":7205:7207   */\n      0x20\n        /* \"#utility.yul\":7194:7203   */\n      dup3\n        /* \"#utility.yul\":7190:7208   */\n      add\n        /* \"#utility.yul\":7182:7208   */\n      swap1\n      pop\n        /* \"#utility.yul\":7218:7313   */\n      tag_407\n        /* \"#utility.yul\":7310:7311   */\n      0x00\n        /* \"#utility.yul\":7299:7308   */\n      dup4\n        /* \"#utility.yul\":7295:7312   */\n      add\n        /* \"#utility.yul\":7286:7292   */\n      dup5\n        /* \"#utility.yul\":7218:7313   */\n      tag_288\n      jump\t// in\n    tag_407:\n        /* \"#utility.yul\":7050:7320   */\n      swap3\n      swap2\n      pop\n      pop\n      jump\t// out\n        /* \"#utility.yul\":7326:7800   */\n    tag_126:\n        /* \"#utility.yul\":7394:7400   */\n      0x00\n        /* \"#utility.yul\":7402:7408   */\n      dup1\n        /* \"#utility.yul\":7451:7453   */\n      0x40\n        /* \"#utility.yul\":7439:7448   */\n      dup4\n        /* \"#utility.yul\":7430:7437   */\n      dup6\n        /* \"#utility.yul\":7426:7449   */\n      sub\n        /* \"#utility.yul\":7422:7454   */\n      slt\n        /* \"#utility.yul\":7419:7538   */\n      iszero\n      tag_409\n      jumpi\n        /* \"#utility.yul\":7457:7536   */\n      tag_410\n      tag_269\n      jump\t// in\n    tag_410:\n        /* \"#utility.yul\":7419:7538   */\n    tag_409:\n        /* \"#utility.yul\":7577:7578   */\n      0x00\n        /* \"#utility.yul\":7602:7655   */\n      tag_411\n        /* \"#utility.yul\":7647:7654   */\n      dup6\n        /* \"#utility.yul\":7638:7644   */\n      dup3\n        /* \"#utility.yul\":7627:7636   */\n      dup7\n        /* \"#utility.yul\":7623:7645   */\n      add\n        /* \"#utility.yul\":7602:7655   */\n      tag_274\n      jump\t// in\n    tag_411:\n        /* \"#utility.yul\":7592:7655   */\n      swap3\n      pop\n        /* \"#utility.yul\":7548:7665   */\n      pop\n        /* \"#utility.yul\":7704:7706   */\n      0x20\n        /* \"#utility.yul\":7730:7783   */\n      tag_412\n        /* \"#utility.yul\":7775:7782   */\n      dup6\n        /* \"#utility.yul\":7766:7772   */\n      dup3\n        /* \"#utility.yul\":7755:7764   */\n      dup7\n        /* \"#utility.yul\":7751:7773   */\n      add\n        /* \"#utility.yul\":7730:7783   */\n      tag_274\n      jump\t// in\n    tag_412:\n        /* \"#utility.yul\":7720:7783   */\n      swap2\n      pop\n        /* \"#utility.yul\":7675:7793   */\n      pop\n        /* \"#utility.yul\":7326:7800   */\n      swap3\n      pop\n      swap3\n      swap1\n      pop\n      jump\t// out\n        /* \"#utility.yul\":7806:7986   */\n    tag_289:\n        /* \"#utility.yul\":7854:7931   */\n      0x4e487b7100000000000000000000000000000000000000000000000000000000\n        /* \"#utility.yul\":7851:7852   */\n      0x00\n        /* \"#utility.yul\":7844:7932   */\n      mstore\n        /* \"#utility.yul\":7951:7955   */\n      0x22\n        /* \"#utility.yul\":7948:7949   */\n      0x04\n        /* \"#utility.yul\":7941:7956   */\n      mstore\n        /* \"#utility.yul\":7975:7979   */\n      0x24\n        /* \"#utility.yul\":7972:7973   */\n      0x00\n        /* \"#utility.yul\":7965:7980   */\n      revert\n        /* \"#utility.yul\":7992:8312   */\n    tag_131:\n        /* \"#utility.yul\":8036:8042   */\n      0x00\n        /* \"#utility.yul\":8073:8074   */\n      0x02\n        /* \"#utility.yul\":8067:8071   */\n      dup3\n        /* \"#utility.yul\":8063:8075   */\n      div\n        /* \"#utility.yul\":8053:8075   */\n      swap1\n      pop\n        /* \"#utility.yul\":8120:8121   */\n      0x01\n        /* \"#utility.yul\":8114:8118   */\n      dup3\n        /* \"#utility.yul\":8110:8122   */\n      and\n        /* \"#utility.yul\":8141:8159   */\n      dup1\n        /* \"#utility.yul\":8131:8212   */\n      tag_415\n      jumpi\n        /* \"#utility.yul\":8197:8201   */\n      0x7f\n        /* \"#utility.yul\":8189:8195   */\n      dup3\n        /* \"#utility.yul\":8185:8202   */\n      and\n        /* \"#utility.yul\":8175:8202   */\n      swap2\n      pop\n        /* \"#utility.yul\":8131:8212   */\n    tag_415:\n        /* \"#utility.yul\":8259:8261   */\n      0x20\n        /* \"#utility.yul\":8251:8257   */\n      dup3\n        /* \"#utility.yul\":8248:8262   */\n      lt\n        /* \"#utility.yul\":8228:8246   */\n      dup2\n        /* \"#utility.yul\":8225:8263   */\n      sub\n        /* \"#utility.yul\":8222:8306   */\n      tag_416\n      jumpi\n        /* \"#utility.yul\":8278:8296   */\n      tag_417\n      tag_289\n      jump\t// in\n    tag_417:\n        /* \"#utility.yul\":8222:8306   */\n    tag_416:\n        /* \"#utility.yul\":8043:8312   */\n      pop\n        /* \"#utility.yul\":7992:8312   */\n      swap2\n      swap1\n      pop\n      jump\t// out\n        /* \"#utility.yul\":8318:8545   */\n    tag_290:\n        /* \"#utility.yul\":8458:8492   */\n      0x45524332303a207472616e7366657220616d6f756e7420657863656564732061\n        /* \"#utility.yul\":8454:8455   */\n      0x00\n        /* \"#utility.yul\":8446:8452   */\n      dup3\n        /* \"#utility.yul\":8442:8456   */\n      add\n        /* \"#utility.yul\":8435:8493   */\n      mstore\n        /* \"#utility.yul\":8527:8537   */\n      0x6c6c6f77616e6365000000000000000000000000000000000000000000000000\n        /* \"#utility.yul\":8522:8524   */\n      0x20\n        /* \"#utility.yul\":8514:8520   */\n      dup3\n        /* \"#utility.yul\":8510:8525   */\n      add\n        /* \"#utility.yul\":8503:8538   */\n      mstore\n        /* \"#utility.yul\":8318:8545   */\n      pop\n      jump\t// out\n        /* \"#utility.yul\":8551:8917   */\n    tag_291:\n        /* \"#utility.yul\":8693:8696   */\n      0x00\n        /* \"#utility.yul\":8714:8781   */\n      tag_420\n        /* \"#utility.yul\":8778:8780   */\n      0x28\n        /* \"#utility.yul\":8773:8776   */\n      dup4\n        /* \"#utility.yul\":8714:8781   */\n      tag_264\n      jump\t// in\n    tag_420:\n        /* \"#utility.yul\":8707:8781   */\n      swap2\n      pop\n        /* \"#utility.yul\":8790:8883   */\n      tag_421\n        /* \"#utility.yul\":8879:8882   */\n      dup3\n        /* \"#utility.yul\":8790:8883   */\n      tag_290\n      jump\t// in\n    tag_421:\n        /* \"#utility.yul\":8908:8910   */\n      0x40\n        /* \"#utility.yul\":8903:8906   */\n      dup3\n        /* \"#utility.yul\":8899:8911   */\n      add\n        /* \"#utility.yul\":8892:8911   */\n      swap1\n      pop\n        /* \"#utility.yul\":8551:8917   */\n      swap2\n      swap1\n      pop\n      jump\t// out\n        /* \"#utility.yul\":8923:9342   */\n    tag_149:\n        /* \"#utility.yul\":9089:9093   */\n      0x00\n        /* \"#utility.yul\":9127:9129   */\n      0x20\n        /* \"#utility.yul\":9116:9125   */\n      dup3\n        /* \"#utility.yul\":9112:9130   */\n      add\n        /* \"#utility.yul\":9104:9130   */\n      swap1\n      pop\n        /* \"#utility.yul\":9176:9185   */\n      dup2\n        /* \"#utility.yul\":9170:9174   */\n      dup2\n        /* \"#utility.yul\":9166:9186   */\n      sub\n        /* \"#utility.yul\":9162:9163   */\n      0x00\n        /* \"#utility.yul\":9151:9160   */\n      dup4\n        /* \"#utility.yul\":9147:9164   */\n      add\n        /* \"#utility.yul\":9140:9187   */\n      mstore\n        /* \"#utility.yul\":9204:9335   */\n      tag_423\n        /* \"#utility.yul\":9330:9334   */\n      dup2\n        /* \"#utility.yul\":9204:9335   */\n      tag_291\n      jump\t// in\n    tag_423:\n        /* \"#utility.yul\":9196:9335   */\n      swap1\n      pop\n        /* \"#utility.yul\":8923:9342   */\n      swap2\n      swap1\n      pop\n      jump\t// out\n        /* \"#utility.yul\":9348:9528   */\n    tag_292:\n        /* \"#utility.yul\":9396:9473   */\n      0x4e487b7100000000000000000000000000000000000000000000000000000000\n        /* \"#utility.yul\":9393:9394   */\n      0x00\n        /* \"#utility.yul\":9386:9474   */\n      mstore\n        /* \"#utility.yul\":9493:9497   */\n      0x11\n        /* \"#utility.yul\":9490:9491   */\n      0x04\n        /* \"#utility.yul\":9483:9498   */\n      mstore\n        /* \"#utility.yul\":9517:9521   */\n      0x24\n        /* \"#utility.yul\":9514:9515   */\n      0x00\n        /* \"#utility.yul\":9507:9522   */\n      revert\n        /* \"#utility.yul\":9534:9839   */\n    tag_158:\n        /* \"#utility.yul\":9574:9577   */\n      0x00\n        /* \"#utility.yul\":9593:9613   */\n      tag_426\n        /* \"#utility.yul\":9611:9612   */\n      dup3\n        /* \"#utility.yul\":9593:9613   */\n      tag_275\n      jump\t// in\n    tag_426:\n        /* \"#utility.yul\":9588:9613   */\n      swap2\n      pop\n        /* \"#utility.yul\":9627:9647   */\n      tag_427\n        /* \"#utility.yul\":9645:9646   */\n      dup4\n        /* \"#utility.yul\":9627:9647   */\n      tag_275\n      jump\t// in\n    tag_427:\n        /* \"#utility.yul\":9622:9647   */\n      swap3\n      pop\n        /* \"#utility.yul\":9781:9782   */\n      dup3\n        /* \"#utility.yul\":9713:9779   */\n      0xffffffffffffffffffffffffffffffffffffffffffffffffffffffffffffffff\n        /* \"#utility.yul\":9709:9783   */\n      sub\n        /* \"#utility.yul\":9706:9707   */\n      dup3\n        /* \"#utility.yul\":9703:9784   */\n      gt\n        /* \"#utility.yul\":9700:9807   */\n      iszero\n      tag_428\n      jumpi\n        /* \"#utility.yul\":9787:9805   */\n      tag_429\n      tag_292\n      jump\t// in\n    tag_429:\n        /* \"#utility.yul\":9700:9807   */\n    tag_428:\n        /* \"#utility.yul\":9831:9832   */\n      dup3\n        /* \"#utility.yul\":9828:9829   */\n      dup3\n        /* \"#utility.yul\":9824:9833   */\n      add\n        /* \"#utility.yul\":9817:9833   */\n      swap1\n      pop\n        /* \"#utility.yul\":9534:9839   */\n      swap3\n      swap2\n      pop\n      pop\n      jump\t// out\n        /* \"#utility.yul\":9845:10013   */\n    tag_293:\n        /* \"#utility.yul\":9985:10005   */\n      0x75736572206e6f74207265676973746572640000000000000000000000000000\n        /* \"#utility.yul\":9981:9982   */\n      0x00\n        /* \"#utility.yul\":9973:9979   */\n      dup3\n        /* \"#utility.yul\":9969:9983   */\n      add\n        /* \"#utility.yul\":9962:10006   */\n      mstore\n        /* \"#utility.yul\":9845:10013   */\n      pop\n      jump\t// out\n        /* \"#utility.yul\":10019:10385   */\n    tag_294:\n        /* \"#utility.yul\":10161:10164   */\n      0x00\n        /* \"#utility.yul\":10182:10249   */\n      tag_432\n        /* \"#utility.yul\":10246:10248   */\n      0x12\n        /* \"#utility.yul\":10241:10244   */\n      dup4\n        /* \"#utility.yul\":10182:10249   */\n      tag_264\n      jump\t// in\n    tag_432:\n        /* \"#utility.yul\":10175:10249   */\n      swap2\n      pop\n        /* \"#utility.yul\":10258:10351   */\n      tag_433\n        /* \"#utility.yul\":10347:10350   */\n      dup3\n        /* \"#utility.yul\":10258:10351   */\n      tag_293\n      jump\t// in\n    tag_433:\n        /* \"#utility.yul\":10376:10378   */\n      0x20\n        /* \"#utility.yul\":10371:10374   */\n      dup3\n        /* \"#utility.yul\":10367:10379   */\n      add\n        /* \"#utility.yul\":10360:10379   */\n      swap1\n      pop\n        /* \"#utility.yul\":10019:10385   */\n      swap2\n      swap1\n      pop\n      jump\t// out\n        /* \"#utility.yul\":10391:10810   */\n    tag_163:\n        /* \"#utility.yul\":10557:10561   */\n      0x00\n        /* \"#utility.yul\":10595:10597   */\n      0x20\n        /* \"#utility.yul\":10584:10593   */\n      dup3\n        /* \"#utility.yul\":10580:10598   */\n      add\n        /* \"#utility.yul\":10572:10598   */\n      swap1\n      pop\n        /* \"#utility.yul\":10644:10653   */\n      dup2\n        /* \"#utility.yul\":10638:10642   */\n      dup2\n        /* \"#utility.yul\":10634:10654   */\n      sub\n        /* \"#utility.yul\":10630:10631   */\n      0x00\n        /* \"#utility.yul\":10619:10628   */\n      dup4\n        /* \"#utility.yul\":10615:10632   */\n      add\n        /* \"#utility.yul\":10608:10655   */\n      mstore\n        /* \"#utility.yul\":10672:10803   */\n      tag_435\n        /* \"#utility.yul\":10798:10802   */\n      dup2\n        /* \"#utility.yul\":10672:10803   */\n      tag_294\n      jump\t// in\n    tag_435:\n        /* \"#utility.yul\":10664:10803   */\n      swap1\n      pop\n        /* \"#utility.yul\":10391:10810   */\n      swap2\n      swap1\n      pop\n      jump\t// out\n        /* \"#utility.yul\":10816:10984   */\n    tag_295:\n        /* \"#utility.yul\":10956:10976   */\n      0x7573657220616c72656164792065786973740000000000000000000000000000\n        /* \"#utility.yul\":10952:10953   */\n      0x00\n        /* \"#utility.yul\":10944:10950   */\n      dup3\n        /* \"#utility.yul\":10940:10954   */\n      add\n        /* \"#utility.yul\":10933:10977   */\n      mstore\n        /* \"#utility.yul\":10816:10984   */\n      pop\n      jump\t// out\n        /* \"#utility.yul\":10990:11356   */\n    tag_296:\n        /* \"#utility.yul\":11132:11135   */\n      0x00\n        /* \"#utility.yul\":11153:11220   */\n      tag_438\n        /* \"#utility.yul\":11217:11219   */\n      0x12\n        /* \"#utility.yul\":11212:11215   */\n      dup4\n        /* \"#utility.yul\":11153:11220   */\n      tag_264\n      jump\t// in\n    tag_438:\n        /* \"#utility.yul\":11146:11220   */\n      swap2\n      pop\n        /* \"#utility.yul\":11229:11322   */\n      tag_439\n        /* \"#utility.yul\":11318:11321   */\n      dup3\n        /* \"#utility.yul\":11229:11322   */\n      tag_295\n      jump\t// in\n    tag_439:\n        /* \"#utility.yul\":11347:11349   */\n      0x20\n        /* \"#utility.yul\":11342:11345   */\n      dup3\n        /* \"#utility.yul\":11338:11350   */\n      add\n        /* \"#utility.yul\":11331:11350   */\n      swap1\n      pop\n        /* \"#utility.yul\":10990:11356   */\n      swap2\n      swap1\n      pop\n      jump\t// out\n        /* \"#utility.yul\":11362:11781   */\n    tag_167:\n        /* \"#utility.yul\":11528:11532   */\n      0x00\n        /* \"#utility.yul\":11566:11568   */\n      0x20\n        /* \"#utility.yul\":11555:11564   */\n      dup3\n        /* \"#utility.yul\":11551:11569   */\n      add\n        /* \"#utility.yul\":11543:11569   */\n      swap1\n      pop\n        /* \"#utility.yul\":11615:11624   */\n      dup2\n        /* \"#utility.yul\":11609:11613   */\n      dup2\n        /* \"#utility.yul\":11605:11625   */\n      sub\n        /* \"#utility.yul\":11601:11602   */\n      0x00\n        /* \"#utility.yul\":11590:11599   */\n      dup4\n        /* \"#utility.yul\":11586:11603   */\n      add\n        /* \"#utility.yul\":11579:11626   */\n      mstore\n        /* \"#utility.yul\":11643:11774   */\n      tag_441\n        /* \"#utility.yul\":11769:11773   */\n      dup2\n        /* \"#utility.yul\":11643:11774   */\n      tag_296\n      jump\t// in\n    tag_441:\n        /* \"#utility.yul\":11635:11774   */\n      swap1\n      pop\n        /* \"#utility.yul\":11362:11781   */\n      swap2\n      swap1\n      pop\n      jump\t// out\n        /* \"#utility.yul\":11787:12020   */\n    tag_169:\n        /* \"#utility.yul\":11826:11829   */\n      0x00\n        /* \"#utility.yul\":11849:11873   */\n      tag_443\n        /* \"#utility.yul\":11867:11872   */\n      dup3\n        /* \"#utility.yul\":11849:11873   */\n      tag_275\n      jump\t// in\n    tag_443:\n        /* \"#utility.yul\":11840:11873   */\n      swap2\n      pop\n        /* \"#utility.yul\":11895:11961   */\n      0xffffffffffffffffffffffffffffffffffffffffffffffffffffffffffffffff\n        /* \"#utility.yul\":11888:11893   */\n      dup3\n        /* \"#utility.yul\":11885:11962   */\n      sub\n        /* \"#utility.yul\":11882:11985   */\n      tag_444\n      jumpi\n        /* \"#utility.yul\":11965:11983   */\n      tag_445\n      tag_292\n      jump\t// in\n    tag_445:\n        /* \"#utility.yul\":11882:11985   */\n    tag_444:\n        /* \"#utility.yul\":12012:12013   */\n      0x01\n        /* \"#utility.yul\":12005:12010   */\n      dup3\n        /* \"#utility.yul\":12001:12014   */\n      add\n        /* \"#utility.yul\":11994:12014   */\n      swap1\n      pop\n        /* \"#utility.yul\":11787:12020   */\n      swap2\n      swap1\n      pop\n      jump\t// out\n        /* \"#utility.yul\":12026:12120   */\n    tag_297:\n        /* \"#utility.yul\":12059:12067   */\n      0x00\n        /* \"#utility.yul\":12107:12112   */\n      dup2\n        /* \"#utility.yul\":12103:12105   */\n      0x60\n        /* \"#utility.yul\":12099:12113   */\n      shl\n        /* \"#utility.yul\":12078:12113   */\n      swap1\n      pop\n        /* \"#utility.yul\":12026:12120   */\n      swap2\n      swap1\n      pop\n      jump\t// out\n        /* \"#utility.yul\":12126:12220   */\n    tag_298:\n        /* \"#utility.yul\":12165:12172   */\n      0x00\n        /* \"#utility.yul\":12194:12214   */\n      tag_448\n        /* \"#utility.yul\":12208:12213   */\n      dup3\n        /* \"#utility.yul\":12194:12214   */\n      tag_297\n      jump\t// in\n    tag_448:\n        /* \"#utility.yul\":12183:12214   */\n      swap1\n      pop\n        /* \"#utility.yul\":12126:12220   */\n      swap2\n      swap1\n      pop\n      jump\t// out\n        /* \"#utility.yul\":12226:12326   */\n    tag_299:\n        /* \"#utility.yul\":12265:12272   */\n      0x00\n        /* \"#utility.yul\":12294:12320   */\n      tag_450\n        /* \"#utility.yul\":12314:12319   */\n      dup3\n        /* \"#utility.yul\":12294:12320   */\n      tag_298\n      jump\t// in\n    tag_450:\n        /* \"#utility.yul\":12283:12320   */\n      swap1\n      pop\n        /* \"#utility.yul\":12226:12326   */\n      swap2\n      swap1\n      pop\n      jump\t// out\n        /* \"#utility.yul\":12332:12489   */\n    tag_300:\n        /* \"#utility.yul\":12437:12482   */\n      tag_452\n        /* \"#utility.yul\":12457:12481   */\n      tag_453\n        /* \"#utility.yul\":12475:12480   */\n      dup3\n        /* \"#utility.yul\":12457:12481   */\n      tag_272\n      jump\t// in\n    tag_453:\n        /* \"#utility.yul\":12437:12482   */\n      tag_299\n      jump\t// in\n    tag_452:\n        /* \"#utility.yul\":12432:12435   */\n      dup3\n        /* \"#utility.yul\":12425:12483   */\n      mstore\n        /* \"#utility.yul\":12332:12489   */\n      pop\n      pop\n      jump\t// out\n        /* \"#utility.yul\":12495:12751   */\n    tag_178:\n        /* \"#utility.yul\":12607:12610   */\n      0x00\n        /* \"#utility.yul\":12622:12697   */\n      tag_455\n        /* \"#utility.yul\":12693:12696   */\n      dup3\n        /* \"#utility.yul\":12684:12690   */\n      dup5\n        /* \"#utility.yul\":12622:12697   */\n      tag_300\n      jump\t// in\n    tag_455:\n        /* \"#utility.yul\":12722:12724   */\n      0x14\n        /* \"#utility.yul\":12717:12720   */\n      dup3\n        /* \"#utility.yul\":12713:12725   */\n      add\n        /* \"#utility.yul\":12706:12725   */\n      swap2\n      pop\n        /* \"#utility.yul\":12742:12745   */\n      dup2\n        /* \"#utility.yul\":12735:12745   */\n      swap1\n      pop\n        /* \"#utility.yul\":12495:12751   */\n      swap3\n      swap2\n      pop\n      pop\n      jump\t// out\n        /* \"#utility.yul\":12757:12937   */\n    tag_181:\n        /* \"#utility.yul\":12805:12882   */\n      0x4e487b7100000000000000000000000000000000000000000000000000000000\n        /* \"#utility.yul\":12802:12803   */\n      0x00\n        /* \"#utility.yul\":12795:12883   */\n      mstore\n        /* \"#utility.yul\":12902:12906   */\n      0x32\n        /* \"#utility.yul\":12899:12900   */\n      0x04\n        /* \"#utility.yul\":12892:12907   */\n      mstore\n        /* \"#utility.yul\":12926:12930   */\n      0x24\n        /* \"#utility.yul\":12923:12924   */\n      0x00\n        /* \"#utility.yul\":12916:12931   */\n      revert\n        /* \"#utility.yul\":12943:13051   */\n    tag_301:\n        /* \"#utility.yul\":12990:12997   */\n      0x00\n        /* \"#utility.yul\":13019:13045   */\n      tag_458\n        /* \"#utility.yul\":13039:13044   */\n      dup3\n        /* \"#utility.yul\":13019:13045   */\n      tag_298\n      jump\t// in\n    tag_458:\n        /* \"#utility.yul\":13008:13045   */\n      swap1\n      pop\n        /* \"#utility.yul\":12943:13051   */\n      swap2\n      swap1\n      pop\n      jump\t// out\n        /* \"#utility.yul\":13057:13283   */\n    tag_302:\n        /* \"#utility.yul\":13186:13276   */\n      tag_460\n        /* \"#utility.yul\":13214:13275   */\n      tag_461\n        /* \"#utility.yul\":13269:13274   */\n      dup3\n        /* \"#utility.yul\":13214:13275   */\n      tag_287\n      jump\t// in\n    tag_461:\n        /* \"#utility.yul\":13186:13276   */\n      tag_301\n      jump\t// in\n    tag_460:\n        /* \"#utility.yul\":13181:13184   */\n      dup3\n        /* \"#utility.yul\":13174:13277   */\n      mstore\n        /* \"#utility.yul\":13057:13283   */\n      pop\n      pop\n      jump\t// out\n        /* \"#utility.yul\":13289:13593   */\n    tag_184:\n        /* \"#utility.yul\":13425:13428   */\n      0x00\n        /* \"#utility.yul\":13440:13539   */\n      tag_463\n        /* \"#utility.yul\":13535:13538   */\n      dup3\n        /* \"#utility.yul\":13526:13532   */\n      dup5\n        /* \"#utility.yul\":13440:13539   */\n      tag_302\n      jump\t// in\n    tag_463:\n        /* \"#utility.yul\":13564:13566   */\n      0x14\n        /* \"#utility.yul\":13559:13562   */\n      dup3\n        /* \"#utility.yul\":13555:13567   */\n      add\n        /* \"#utility.yul\":13548:13567   */\n      swap2\n      pop\n        /* \"#utility.yul\":13584:13587   */\n      dup2\n        /* \"#utility.yul\":13577:13587   */\n      swap1\n      pop\n        /* \"#utility.yul\":13289:13593   */\n      swap3\n      swap2\n      pop\n      pop\n      jump\t// out\n        /* \"#utility.yul\":13599:13834   */\n    tag_303:\n        /* \"#utility.yul\":13739:13773   */\n      0x4f6e6c7920436f6e747261637420636f696e62616e6b2063616e206578656375\n        /* \"#utility.yul\":13735:13736   */\n      0x00\n        /* \"#utility.yul\":13727:13733   */\n      dup3\n        /* \"#utility.yul\":13723:13737   */\n      add\n        /* \"#utility.yul\":13716:13774   */\n      mstore\n        /* \"#utility.yul\":13808:13826   */\n      0x746520746869732066756e6374696f6e00000000000000000000000000000000\n        /* \"#utility.yul\":13803:13805   */\n      0x20\n        /* \"#utility.yul\":13795:13801   */\n      dup3\n        /* \"#utility.yul\":13791:13806   */\n      add\n        /* \"#utility.yul\":13784:13827   */\n      mstore\n        /* \"#utility.yul\":13599:13834   */\n      pop\n      jump\t// out\n        /* \"#utility.yul\":13840:14206   */\n    tag_304:\n        /* \"#utility.yul\":13982:13985   */\n      0x00\n        /* \"#utility.yul\":14003:14070   */\n      tag_466\n        /* \"#utility.yul\":14067:14069   */\n      0x30\n        /* \"#utility.yul\":14062:14065   */\n      dup4\n        /* \"#utility.yul\":14003:14070   */\n      tag_264\n      jump\t// in\n    tag_466:\n        /* \"#utility.yul\":13996:14070   */\n      swap2\n      pop\n        /* \"#utility.yul\":14079:14172   */\n      tag_467\n        /* \"#utility.yul\":14168:14171   */\n      dup3\n        /* \"#utility.yul\":14079:14172   */\n      tag_303\n      jump\t// in\n    tag_467:\n        /* \"#utility.yul\":14197:14199   */\n      0x40\n        /* \"#utility.yul\":14192:14195   */\n      dup3\n        /* \"#utility.yul\":14188:14200   */\n      add\n        /* \"#utility.yul\":14181:14200   */\n      swap1\n      pop\n        /* \"#utility.yul\":13840:14206   */\n      swap2\n      swap1\n      pop\n      jump\t// out\n        /* \"#utility.yul\":14212:14631   */\n    tag_187:\n        /* \"#utility.yul\":14378:14382   */\n      0x00\n        /* \"#utility.yul\":14416:14418   */\n      0x20\n        /* \"#utility.yul\":14405:14414   */\n      dup3\n        /* \"#utility.yul\":14401:14419   */\n      add\n        /* \"#utility.yul\":14393:14419   */\n      swap1\n      pop\n        /* \"#utility.yul\":14465:14474   */\n      dup2\n        /* \"#utility.yul\":14459:14463   */\n      dup2\n        /* \"#utility.yul\":14455:14475   */\n      sub\n        /* \"#utility.yul\":14451:14452   */\n      0x00\n        /* \"#utility.yul\":14440:14449   */\n      dup4\n        /* \"#utility.yul\":14436:14453   */\n      add\n        /* \"#utility.yul\":14429:14476   */\n      mstore\n        /* \"#utility.yul\":14493:14624   */\n      tag_469\n        /* \"#utility.yul\":14619:14623   */\n      dup2\n        /* \"#utility.yul\":14493:14624   */\n      tag_304\n      jump\t// in\n    tag_469:\n        /* \"#utility.yul\":14485:14624   */\n      swap1\n      pop\n        /* \"#utility.yul\":14212:14631   */\n      swap2\n      swap1\n      pop\n      jump\t// out\n        /* \"#utility.yul\":14637:14828   */\n    tag_190:\n        /* \"#utility.yul\":14677:14681   */\n      0x00\n        /* \"#utility.yul\":14697:14717   */\n      tag_471\n        /* \"#utility.yul\":14715:14716   */\n      dup3\n        /* \"#utility.yul\":14697:14717   */\n      tag_275\n      jump\t// in\n    tag_471:\n        /* \"#utility.yul\":14692:14717   */\n      swap2\n      pop\n        /* \"#utility.yul\":14731:14751   */\n      tag_472\n        /* \"#utility.yul\":14749:14750   */\n      dup4\n        /* \"#utility.yul\":14731:14751   */\n      tag_275\n      jump\t// in\n    tag_472:\n        /* \"#utility.yul\":14726:14751   */\n      swap3\n      pop\n        /* \"#utility.yul\":14770:14771   */\n      dup3\n        /* \"#utility.yul\":14767:14768   */\n      dup3\n        /* \"#utility.yul\":14764:14772   */\n      lt\n        /* \"#utility.yul\":14761:14795   */\n      iszero\n      tag_473\n      jumpi\n        /* \"#utility.yul\":14775:14793   */\n      tag_474\n      tag_292\n      jump\t// in\n    tag_474:\n        /* \"#utility.yul\":14761:14795   */\n    tag_473:\n        /* \"#utility.yul\":14820:14821   */\n      dup3\n        /* \"#utility.yul\":14817:14818   */\n      dup3\n        /* \"#utility.yul\":14813:14822   */\n      sub\n        /* \"#utility.yul\":14805:14822   */\n      swap1\n      pop\n        /* \"#utility.yul\":14637:14828   */\n      swap3\n      swap2\n      pop\n      pop\n      jump\t// out\n        /* \"#utility.yul\":14834:14950   */\n    tag_305:\n        /* \"#utility.yul\":14904:14925   */\n      tag_476\n        /* \"#utility.yul\":14919:14924   */\n      dup2\n        /* \"#utility.yul\":14904:14925   */\n      tag_278\n      jump\t// in\n    tag_476:\n        /* \"#utility.yul\":14897:14902   */\n      dup2\n        /* \"#utility.yul\":14894:14926   */\n      eq\n        /* \"#utility.yul\":14884:14944   */\n      tag_477\n      jumpi\n        /* \"#utility.yul\":14940:14941   */\n      0x00\n        /* \"#utility.yul\":14937:14938   */\n      dup1\n        /* \"#utility.yul\":14930:14942   */\n      revert\n        /* \"#utility.yul\":14884:14944   */\n    tag_477:\n        /* \"#utility.yul\":14834:14950   */\n      pop\n      jump\t// out\n        /* \"#utility.yul\":14956:15093   */\n    tag_306:\n        /* \"#utility.yul\":15010:15015   */\n      0x00\n        /* \"#utility.yul\":15041:15047   */\n      dup2\n        /* \"#utility.yul\":15035:15048   */\n      mload\n        /* \"#utility.yul\":15026:15048   */\n      swap1\n      pop\n        /* \"#utility.yul\":15057:15087   */\n      tag_479\n        /* \"#utility.yul\":15081:15086   */\n      dup2\n        /* \"#utility.yul\":15057:15087   */\n      tag_305\n      jump\t// in\n    tag_479:\n        /* \"#utility.yul\":14956:15093   */\n      swap3\n      swap2\n      pop\n      pop\n      jump\t// out\n        /* \"#utility.yul\":15099:15444   */\n    tag_204:\n        /* \"#utility.yul\":15166:15172   */\n      0x00\n        /* \"#utility.yul\":15215:15217   */\n      0x20\n        /* \"#utility.yul\":15203:15212   */\n      dup3\n        /* \"#utility.yul\":15194:15201   */\n      dup5\n        /* \"#utility.yul\":15190:15213   */\n      sub\n        /* \"#utility.yul\":15186:15218   */\n      slt\n        /* \"#utility.yul\":15183:15302   */\n      iszero\n      tag_481\n      jumpi\n        /* \"#utility.yul\":15221:15300   */\n      tag_482\n      tag_269\n      jump\t// in\n    tag_482:\n        /* \"#utility.yul\":15183:15302   */\n    tag_481:\n        /* \"#utility.yul\":15341:15342   */\n      0x00\n        /* \"#utility.yul\":15366:15427   */\n      tag_483\n        /* \"#utility.yul\":15419:15426   */\n      dup5\n        /* \"#utility.yul\":15410:15416   */\n      dup3\n        /* \"#utility.yul\":15399:15408   */\n      dup6\n        /* \"#utility.yul\":15395:15417   */\n      add\n        /* \"#utility.yul\":15366:15427   */\n      tag_306\n      jump\t// in\n    tag_483:\n        /* \"#utility.yul\":15356:15427   */\n      swap2\n      pop\n        /* \"#utility.yul\":15312:15437   */\n      pop\n        /* \"#utility.yul\":15099:15444   */\n      swap3\n      swap2\n      pop\n      pop\n      jump\t// out\n        /* \"#utility.yul\":15450:15674   */\n    tag_307:\n        /* \"#utility.yul\":15590:15624   */\n      0x45524332303a2064656372656173656420616c6c6f77616e63652062656c6f77\n        /* \"#utility.yul\":15586:15587   */\n      0x00\n        /* \"#utility.yul\":15578:15584   */\n      dup3\n        /* \"#utility.yul\":15574:15588   */\n      add\n        /* \"#utility.yul\":15567:15625   */\n      mstore\n        /* \"#utility.yul\":15659:15666   */\n      0x207a65726f000000000000000000000000000000000000000000000000000000\n        /* \"#utility.yul\":15654:15656   */\n      0x20\n        /* \"#utility.yul\":15646:15652   */\n      dup3\n        /* \"#utility.yul\":15642:15657   */\n      add\n        /* \"#utility.yul\":15635:15667   */\n      mstore\n        /* \"#utility.yul\":15450:15674   */\n      pop\n      jump\t// out\n        /* \"#utility.yul\":15680:16046   */\n    tag_308:\n        /* \"#utility.yul\":15822:15825   */\n      0x00\n        /* \"#utility.yul\":15843:15910   */\n      tag_486\n        /* \"#utility.yul\":15907:15909   */\n      0x25\n        /* \"#utility.yul\":15902:15905   */\n      dup4\n        /* \"#utility.yul\":15843:15910   */\n      tag_264\n      jump\t// in\n    tag_486:\n        /* \"#utility.yul\":15836:15910   */\n      swap2\n      pop\n        /* \"#utility.yul\":15919:16012   */\n      tag_487\n        /* \"#utility.yul\":16008:16011   */\n      dup3\n        /* \"#utility.yul\":15919:16012   */\n      tag_307\n      jump\t// in\n    tag_487:\n        /* \"#utility.yul\":16037:16039   */\n      0x40\n        /* \"#utility.yul\":16032:16035   */\n      dup3\n        /* \"#utility.yul\":16028:16040   */\n      add\n        /* \"#utility.yul\":16021:16040   */\n      swap1\n      pop\n        /* \"#utility.yul\":15680:16046   */\n      swap2\n      swap1\n      pop\n      jump\t// out\n        /* \"#utility.yul\":16052:16471   */\n    tag_214:\n        /* \"#utility.yul\":16218:16222   */\n      0x00\n        /* \"#utility.yul\":16256:16258   */\n      0x20\n        /* \"#utility.yul\":16245:16254   */\n      dup3\n        /* \"#utility.yul\":16241:16259   */\n      add\n        /* \"#utility.yul\":16233:16259   */\n      swap1\n      pop\n        /* \"#utility.yul\":16305:16314   */\n      dup2\n        /* \"#utility.yul\":16299:16303   */\n      dup2\n        /* \"#utility.yul\":16295:16315   */\n      sub\n        /* \"#utility.yul\":16291:16292   */\n      0x00\n        /* \"#utility.yul\":16280:16289   */\n      dup4\n        /* \"#utility.yul\":16276:16293   */\n      add\n        /* \"#utility.yul\":16269:16316   */\n      mstore\n        /* \"#utility.yul\":16333:16464   */\n      tag_489\n        /* \"#utility.yul\":16459:16463   */\n      dup2\n        /* \"#utility.yul\":16333:16464   */\n      tag_308\n      jump\t// in\n    tag_489:\n        /* \"#utility.yul\":16325:16464   */\n      swap1\n      pop\n        /* \"#utility.yul\":16052:16471   */\n      swap2\n      swap1\n      pop\n      jump\t// out\n        /* \"#utility.yul\":16477:16646   */\n    tag_309:\n        /* \"#utility.yul\":16617:16638   */\n      0x5573657220646f6573206e6f7420657869737400000000000000000000000000\n        /* \"#utility.yul\":16613:16614   */\n      0x00\n        /* \"#utility.yul\":16605:16611   */\n      dup3\n        /* \"#utility.yul\":16601:16615   */\n      add\n        /* \"#utility.yul\":16594:16639   */\n      mstore\n        /* \"#utility.yul\":16477:16646   */\n      pop\n      jump\t// out\n        /* \"#utility.yul\":16652:17018   */\n    tag_310:\n        /* \"#utility.yul\":16794:16797   */\n      0x00\n        /* \"#utility.yul\":16815:16882   */\n      tag_492\n        /* \"#utility.yul\":16879:16881   */\n      0x13\n        /* \"#utility.yul\":16874:16877   */\n      dup4\n        /* \"#utility.yul\":16815:16882   */\n      tag_264\n      jump\t// in\n    tag_492:\n        /* \"#utility.yul\":16808:16882   */\n      swap2\n      pop\n        /* \"#utility.yul\":16891:16984   */\n      tag_493\n        /* \"#utility.yul\":16980:16983   */\n      dup3\n        /* \"#utility.yul\":16891:16984   */\n      tag_309\n      jump\t// in\n    tag_493:\n        /* \"#utility.yul\":17009:17011   */\n      0x20\n        /* \"#utility.yul\":17004:17007   */\n      dup3\n        /* \"#utility.yul\":17000:17012   */\n      add\n        /* \"#utility.yul\":16993:17012   */\n      swap1\n      pop\n        /* \"#utility.yul\":16652:17018   */\n      swap2\n      swap1\n      pop\n      jump\t// out\n        /* \"#utility.yul\":17024:17443   */\n    tag_225:\n        /* \"#utility.yul\":17190:17194   */\n      0x00\n        /* \"#utility.yul\":17228:17230   */\n      0x20\n        /* \"#utility.yul\":17217:17226   */\n      dup3\n        /* \"#utility.yul\":17213:17231   */\n      add\n        /* \"#utility.yul\":17205:17231   */\n      swap1\n      pop\n        /* \"#utility.yul\":17277:17286   */\n      dup2\n        /* \"#utility.yul\":17271:17275   */\n      dup2\n        /* \"#utility.yul\":17267:17287   */\n      sub\n        /* \"#utility.yul\":17263:17264   */\n      0x00\n        /* \"#utility.yul\":17252:17261   */\n      dup4\n        /* \"#utility.yul\":17248:17265   */\n      add\n        /* \"#utility.yul\":17241:17288   */\n      mstore\n        /* \"#utility.yul\":17305:17436   */\n      tag_495\n        /* \"#utility.yul\":17431:17435   */\n      dup2\n        /* \"#utility.yul\":17305:17436   */\n      tag_310\n      jump\t// in\n    tag_495:\n        /* \"#utility.yul\":17297:17436   */\n      swap1\n      pop\n        /* \"#utility.yul\":17024:17443   */\n      swap2\n      swap1\n      pop\n      jump\t// out\n        /* \"#utility.yul\":17449:17672   */\n    tag_311:\n        /* \"#utility.yul\":17589:17623   */\n      0x45524332303a20617070726f76652066726f6d20746865207a65726f20616464\n        /* \"#utility.yul\":17585:17586   */\n      0x00\n        /* \"#utility.yul\":17577:17583   */\n      dup3\n        /* \"#utility.yul\":17573:17587   */\n      add\n        /* \"#utility.yul\":17566:17624   */\n      mstore\n        /* \"#utility.yul\":17658:17664   */\n      0x7265737300000000000000000000000000000000000000000000000000000000\n        /* \"#utility.yul\":17653:17655   */\n      0x20\n        /* \"#utility.yul\":17645:17651   */\n      dup3\n        /* \"#utility.yul\":17641:17656   */\n      add\n        /* \"#utility.yul\":17634:17665   */\n      mstore\n        /* \"#utility.yul\":17449:17672   */\n      pop\n      jump\t// out\n        /* \"#utility.yul\":17678:18044   */\n    tag_312:\n        /* \"#utility.yul\":17820:17823   */\n      0x00\n        /* \"#utility.yul\":17841:17908   */\n      tag_498\n        /* \"#utility.yul\":17905:17907   */\n      0x24\n        /* \"#utility.yul\":17900:17903   */\n      dup4\n        /* \"#utility.yul\":17841:17908   */\n      tag_264\n      jump\t// in\n    tag_498:\n        /* \"#utility.yul\":17834:17908   */\n      swap2\n      pop\n        /* \"#utility.yul\":17917:18010   */\n      tag_499\n        /* \"#utility.yul\":18006:18009   */\n      dup3\n        /* \"#utility.yul\":17917:18010   */\n      tag_311\n      jump\t// in\n    tag_499:\n        /* \"#utility.yul\":18035:18037   */\n      0x40\n        /* \"#utility.yul\":18030:18033   */\n      dup3\n        /* \"#utility.yul\":18026:18038   */\n      add\n        /* \"#utility.yul\":18019:18038   */\n      swap1\n      pop\n        /* \"#utility.yul\":17678:18044   */\n      swap2\n      swap1\n      pop\n      jump\t// out\n        /* \"#utility.yul\":18050:18469   */\n    tag_233:\n        /* \"#utility.yul\":18216:18220   */\n      0x00\n        /* \"#utility.yul\":18254:18256   */\n      0x20\n        /* \"#utility.yul\":18243:18252   */\n      dup3\n        /* \"#utility.yul\":18239:18257   */\n      add\n        /* \"#utility.yul\":18231:18257   */\n      swap1\n      pop\n        /* \"#utility.yul\":18303:18312   */\n      dup2\n        /* \"#utility.yul\":18297:18301   */\n      dup2\n        /* \"#utility.yul\":18293:18313   */\n      sub\n        /* \"#utility.yul\":18289:18290   */\n      0x00\n        /* \"#utility.yul\":18278:18287   */\n      dup4\n        /* \"#utility.yul\":18274:18291   */\n      add\n        /* \"#utility.yul\":18267:18314   */\n      mstore\n        /* \"#utility.yul\":18331:18462   */\n      tag_501\n        /* \"#utility.yul\":18457:18461   */\n      dup2\n        /* \"#utility.yul\":18331:18462   */\n      tag_312\n      jump\t// in\n    tag_501:\n        /* \"#utility.yul\":18323:18462   */\n      swap1\n      pop\n        /* \"#utility.yul\":18050:18469   */\n      swap2\n      swap1\n      pop\n      jump\t// out\n        /* \"#utility.yul\":18475:18696   */\n    tag_313:\n        /* \"#utility.yul\":18615:18649   */\n      0x45524332303a20617070726f766520746f20746865207a65726f206164647265\n        /* \"#utility.yul\":18611:18612   */\n      0x00\n        /* \"#utility.yul\":18603:18609   */\n      dup3\n        /* \"#utility.yul\":18599:18613   */\n      add\n        /* \"#utility.yul\":18592:18650   */\n      mstore\n        /* \"#utility.yul\":18684:18688   */\n      0x7373000000000000000000000000000000000000000000000000000000000000\n        /* \"#utility.yul\":18679:18681   */\n      0x20\n        /* \"#utility.yul\":18671:18677   */\n      dup3\n        /* \"#utility.yul\":18667:18682   */\n      add\n        /* \"#utility.yul\":18660:18689   */\n      mstore\n        /* \"#utility.yul\":18475:18696   */\n      pop\n      jump\t// out\n        /* \"#utility.yul\":18702:19068   */\n    tag_314:\n        /* \"#utility.yul\":18844:18847   */\n      0x00\n        /* \"#utility.yul\":18865:18932   */\n      tag_504\n        /* \"#utility.yul\":18929:18931   */\n      0x22\n        /* \"#utility.yul\":18924:18927   */\n      dup4\n        /* \"#utility.yul\":18865:18932   */\n      tag_264\n      jump\t// in\n    tag_504:\n        /* \"#utility.yul\":18858:18932   */\n      swap2\n      pop\n        /* \"#utility.yul\":18941:19034   */\n      tag_505\n        /* \"#utility.yul\":19030:19033   */\n      dup3\n        /* \"#utility.yul\":18941:19034   */\n      tag_313\n      jump\t// in\n    tag_505:\n        /* \"#utility.yul\":19059:19061   */\n      0x40\n        /* \"#utility.yul\":19054:19057   */\n      dup3\n        /* \"#utility.yul\":19050:19062   */\n      add\n        /* \"#utility.yul\":19043:19062   */\n      swap1\n      pop\n        /* \"#utility.yul\":18702:19068   */\n      swap2\n      swap1\n      pop\n      jump\t// out\n        /* \"#utility.yul\":19074:19493   */\n    tag_236:\n        /* \"#utility.yul\":19240:19244   */\n      0x00\n        /* \"#utility.yul\":19278:19280   */\n      0x20\n        /* \"#utility.yul\":19267:19276   */\n      dup3\n        /* \"#utility.yul\":19263:19281   */\n      add\n        /* \"#utility.yul\":19255:19281   */\n      swap1\n      pop\n        /* \"#utility.yul\":19327:19336   */\n      dup2\n        /* \"#utility.yul\":19321:19325   */\n      dup2\n        /* \"#utility.yul\":19317:19337   */\n      sub\n        /* \"#utility.yul\":19313:19314   */\n      0x00\n        /* \"#utility.yul\":19302:19311   */\n      dup4\n        /* \"#utility.yul\":19298:19315   */\n      add\n        /* \"#utility.yul\":19291:19338   */\n      mstore\n        /* \"#utility.yul\":19355:19486   */\n      tag_507\n        /* \"#utility.yul\":19481:19485   */\n      dup2\n        /* \"#utility.yul\":19355:19486   */\n      tag_314\n      jump\t// in\n    tag_507:\n        /* \"#utility.yul\":19347:19486   */\n      swap1\n      pop\n        /* \"#utility.yul\":19074:19493   */\n      swap2\n      swap1\n      pop\n      jump\t// out\n        /* \"#utility.yul\":19499:19723   */\n    tag_315:\n        /* \"#utility.yul\":19639:19673   */\n      0x45524332303a207472616e736665722066726f6d20746865207a65726f206164\n        /* \"#utility.yul\":19635:19636   */\n      0x00\n        /* \"#utility.yul\":19627:19633   */\n      dup3\n        /* \"#utility.yul\":19623:19637   */\n      add\n        /* \"#utility.yul\":19616:19674   */\n      mstore\n        /* \"#utility.yul\":19708:19715   */\n      0x6472657373000000000000000000000000000000000000000000000000000000\n        /* \"#utility.yul\":19703:19705   */\n      0x20\n        /* \"#utility.yul\":19695:19701   */\n      dup3\n        /* \"#utility.yul\":19691:19706   */\n      add\n        /* \"#utility.yul\":19684:19716   */\n      mstore\n        /* \"#utility.yul\":19499:19723   */\n      pop\n      jump\t// out\n        /* \"#utility.yul\":19729:20095   */\n    tag_316:\n        /* \"#utility.yul\":19871:19874   */\n      0x00\n        /* \"#utility.yul\":19892:19959   */\n      tag_510\n        /* \"#utility.yul\":19956:19958   */\n      0x25\n        /* \"#utility.yul\":19951:19954   */\n      dup4\n        /* \"#utility.yul\":19892:19959   */\n      tag_264\n      jump\t// in\n    tag_510:\n        /* \"#utility.yul\":19885:19959   */\n      swap2\n      pop\n        /* \"#utility.yul\":19968:20061   */\n      tag_511\n        /* \"#utility.yul\":20057:20060   */\n      dup3\n        /* \"#utility.yul\":19968:20061   */\n      tag_315\n      jump\t// in\n    tag_511:\n        /* \"#utility.yul\":20086:20088   */\n      0x40\n        /* \"#utility.yul\":20081:20084   */\n      dup3\n        /* \"#utility.yul\":20077:20089   */\n      add\n        /* \"#utility.yul\":20070:20089   */\n      swap1\n      pop\n        /* \"#utility.yul\":19729:20095   */\n      swap2\n      swap1\n      pop\n      jump\t// out\n        /* \"#utility.yul\":20101:20520   */\n    tag_241:\n        /* \"#utility.yul\":20267:20271   */\n      0x00\n        /* \"#utility.yul\":20305:20307   */\n      0x20\n        /* \"#utility.yul\":20294:20303   */\n      dup3\n        /* \"#utility.yul\":20290:20308   */\n      add\n        /* \"#utility.yul\":20282:20308   */\n      swap1\n      pop\n        /* \"#utility.yul\":20354:20363   */\n      dup2\n        /* \"#utility.yul\":20348:20352   */\n      dup2\n        /* \"#utility.yul\":20344:20364   */\n      sub\n        /* \"#utility.yul\":20340:20341   */\n      0x00\n        /* \"#utility.yul\":20329:20338   */\n      dup4\n        /* \"#utility.yul\":20325:20342   */\n      add\n        /* \"#utility.yul\":20318:20365   */\n      mstore\n        /* \"#utility.yul\":20382:20513   */\n      tag_513\n        /* \"#utility.yul\":20508:20512   */\n      dup2\n        /* \"#utility.yul\":20382:20513   */\n      tag_316\n      jump\t// in\n    tag_513:\n        /* \"#utility.yul\":20374:20513   */\n      swap1\n      pop\n        /* \"#utility.yul\":20101:20520   */\n      swap2\n      swap1\n      pop\n      jump\t// out\n        /* \"#utility.yul\":20526:20748   */\n    tag_317:\n        /* \"#utility.yul\":20666:20700   */\n      0x45524332303a207472616e7366657220746f20746865207a65726f2061646472\n        /* \"#utility.yul\":20662:20663   */\n      0x00\n        /* \"#utility.yul\":20654:20660   */\n      dup3\n        /* \"#utility.yul\":20650:20664   */\n      add\n        /* \"#utility.yul\":20643:20701   */\n      mstore\n        /* \"#utility.yul\":20735:20740   */\n      0x6573730000000000000000000000000000000000000000000000000000000000\n        /* \"#utility.yul\":20730:20732   */\n      0x20\n        /* \"#utility.yul\":20722:20728   */\n      dup3\n        /* \"#utility.yul\":20718:20733   */\n      add\n        /* \"#utility.yul\":20711:20741   */\n      mstore\n        /* \"#utility.yul\":20526:20748   */\n      pop\n      jump\t// out\n        /* \"#utility.yul\":20754:21120   */\n    tag_318:\n        /* \"#utility.yul\":20896:20899   */\n      0x00\n        /* \"#utility.yul\":20917:20984   */\n      tag_516\n        /* \"#utility.yul\":20981:20983   */\n      0x23\n        /* \"#utility.yul\":20976:20979   */\n      dup4\n        /* \"#utility.yul\":20917:20984   */\n      tag_264\n      jump\t// in\n    tag_516:\n        /* \"#utility.yul\":20910:20984   */\n      swap2\n      pop\n        /* \"#utility.yul\":20993:21086   */\n      tag_517\n        /* \"#utility.yul\":21082:21085   */\n      dup3\n        /* \"#utility.yul\":20993:21086   */\n      tag_317\n      jump\t// in\n    tag_517:\n        /* \"#utility.yul\":21111:21113   */\n      0x40\n        /* \"#utility.yul\":21106:21109   */\n      dup3\n        /* \"#utility.yul\":21102:21114   */\n      add\n        /* \"#utility.yul\":21095:21114   */\n      swap1\n      pop\n        /* \"#utility.yul\":20754:21120   */\n      swap2\n      swap1\n      pop\n      jump\t// out\n        /* \"#utility.yul\":21126:21545   */\n    tag_244:\n        /* \"#utility.yul\":21292:21296   */\n      0x00\n        /* \"#utility.yul\":21330:21332   */\n      0x20\n        /* \"#utility.yul\":21319:21328   */\n      dup3\n        /* \"#utility.yul\":21315:21333   */\n      add\n        /* \"#utility.yul\":21307:21333   */\n      swap1\n      pop\n        /* \"#utility.yul\":21379:21388   */\n      dup2\n        /* \"#utility.yul\":21373:21377   */\n      dup2\n        /* \"#utility.yul\":21369:21389   */\n      sub\n        /* \"#utility.yul\":21365:21366   */\n      0x00\n        /* \"#utility.yul\":21354:21363   */\n      dup4\n        /* \"#utility.yul\":21350:21367   */\n      add\n        /* \"#utility.yul\":21343:21390   */\n      mstore\n        /* \"#utility.yul\":21407:21538   */\n      tag_519\n        /* \"#utility.yul\":21533:21537   */\n      dup2\n        /* \"#utility.yul\":21407:21538   */\n      tag_318\n      jump\t// in\n    tag_519:\n        /* \"#utility.yul\":21399:21538   */\n      swap1\n      pop\n        /* \"#utility.yul\":21126:21545   */\n      swap2\n      swap1\n      pop\n      jump\t// out\n        /* \"#utility.yul\":21551:21776   */\n    tag_319:\n        /* \"#utility.yul\":21691:21725   */\n      0x45524332303a207472616e7366657220616d6f756e7420657863656564732062\n        /* \"#utility.yul\":21687:21688   */\n      0x00\n        /* \"#utility.yul\":21679:21685   */\n      dup3\n        /* \"#utility.yul\":21675:21689   */\n      add\n        /* \"#utility.yul\":21668:21726   */\n      mstore\n        /* \"#utility.yul\":21760:21768   */\n      0x616c616e63650000000000000000000000000000000000000000000000000000\n        /* \"#utility.yul\":21755:21757   */\n      0x20\n        /* \"#utility.yul\":21747:21753   */\n      dup3\n        /* \"#utility.yul\":21743:21758   */\n      add\n        /* \"#utility.yul\":21736:21769   */\n      mstore\n        /* \"#utility.yul\":21551:21776   */\n      pop\n      jump\t// out\n        /* \"#utility.yul\":21782:22148   */\n    tag_320:\n        /* \"#utility.yul\":21924:21927   */\n      0x00\n        /* \"#utility.yul\":21945:22012   */\n      tag_522\n        /* \"#utility.yul\":22009:22011   */\n      0x26\n        /* \"#utility.yul\":22004:22007   */\n      dup4\n        /* \"#utility.yul\":21945:22012   */\n      tag_264\n      jump\t// in\n    tag_522:\n        /* \"#utility.yul\":21938:22012   */\n      swap2\n      pop\n        /* \"#utility.yul\":22021:22114   */\n      tag_523\n        /* \"#utility.yul\":22110:22113   */\n      dup3\n        /* \"#utility.yul\":22021:22114   */\n      tag_319\n      jump\t// in\n    tag_523:\n        /* \"#utility.yul\":22139:22141   */\n      0x40\n        /* \"#utility.yul\":22134:22137   */\n      dup3\n        /* \"#utility.yul\":22130:22142   */\n      add\n        /* \"#utility.yul\":22123:22142   */\n      swap1\n      pop\n        /* \"#utility.yul\":21782:22148   */\n      swap2\n      swap1\n      pop\n      jump\t// out\n        /* \"#utility.yul\":22154:22573   */\n    tag_249:\n        /* \"#utility.yul\":22320:22324   */\n      0x00\n        /* \"#utility.yul\":22358:22360   */\n      0x20\n        /* \"#utility.yul\":22347:22356   */\n      dup3\n        /* \"#utility.yul\":22343:22361   */\n      add\n        /* \"#utility.yul\":22335:22361   */\n      swap1\n      pop\n        /* \"#utility.yul\":22407:22416   */\n      dup2\n        /* \"#utility.yul\":22401:22405   */\n      dup2\n        /* \"#utility.yul\":22397:22417   */\n      sub\n        /* \"#utility.yul\":22393:22394   */\n      0x00\n        /* \"#utility.yul\":22382:22391   */\n      dup4\n        /* \"#utility.yul\":22378:22395   */\n      add\n        /* \"#utility.yul\":22371:22418   */\n      mstore\n        /* \"#utility.yul\":22435:22566   */\n      tag_525\n        /* \"#utility.yul\":22561:22565   */\n      dup2\n        /* \"#utility.yul\":22435:22566   */\n      tag_320\n      jump\t// in\n    tag_525:\n        /* \"#utility.yul\":22427:22566   */\n      swap1\n      pop\n        /* \"#utility.yul\":22154:22573   */\n      swap2\n      swap1\n      pop\n      jump\t// out\n        /* \"#utility.yul\":22579:22927   */\n    tag_259:\n        /* \"#utility.yul\":22619:22626   */\n      0x00\n        /* \"#utility.yul\":22642:22662   */\n      tag_527\n        /* \"#utility.yul\":22660:22661   */\n      dup3\n        /* \"#utility.yul\":22642:22662   */\n      tag_275\n      jump\t// in\n    tag_527:\n        /* \"#utility.yul\":22637:22662   */\n      swap2\n      pop\n        /* \"#utility.yul\":22676:22696   */\n      tag_528\n        /* \"#utility.yul\":22694:22695   */\n      dup4\n        /* \"#utility.yul\":22676:22696   */\n      tag_275\n      jump\t// in\n    tag_528:\n        /* \"#utility.yul\":22671:22696   */\n      swap3\n      pop\n        /* \"#utility.yul\":22864:22865   */\n      dup2\n        /* \"#utility.yul\":22796:22862   */\n      0xffffffffffffffffffffffffffffffffffffffffffffffffffffffffffffffff\n        /* \"#utility.yul\":22792:22866   */\n      div\n        /* \"#utility.yul\":22789:22790   */\n      dup4\n        /* \"#utility.yul\":22786:22867   */\n      gt\n        /* \"#utility.yul\":22781:22782   */\n      dup3\n        /* \"#utility.yul\":22774:22783   */\n      iszero\n        /* \"#utility.yul\":22767:22784   */\n      iszero\n        /* \"#utility.yul\":22763:22868   */\n      and\n        /* \"#utility.yul\":22760:22891   */\n      iszero\n      tag_529\n      jumpi\n        /* \"#utility.yul\":22871:22889   */\n      tag_530\n      tag_292\n      jump\t// in\n    tag_530:\n        /* \"#utility.yul\":22760:22891   */\n    tag_529:\n        /* \"#utility.yul\":22919:22920   */\n      dup3\n        /* \"#utility.yul\":22916:22917   */\n      dup3\n        /* \"#utility.yul\":22912:22921   */\n      mul\n        /* \"#utility.yul\":22901:22921   */\n      swap1\n      pop\n        /* \"#utility.yul\":22579:22927   */\n      swap3\n      swap2\n      pop\n      pop\n      jump\t// out\n\n    auxdata: 0xa2646970667358221220e1beae79bf61cbc771e9be9e2e5641d3fedd60feecf3afff84690fc28e9b0e6b64736f6c634300080d0033\n}\n\nsub_1: assembly {\n        /* \"Documents/GitHub/XRC-20Plus/contracts/XRC20Plus.sol\":305:1980  contract CoinBank is CoinBank_Interface{... */\n      mstore(0x40, 0x80)\n        /* \"Documents/GitHub/XRC-20Plus/contracts/XRC20Plus.sol\":610:780  constructor(address _Treasury,uint _supply){... */\n      callvalue\n      dup1\n      iszero\n      tag_1\n      jumpi\n      0x00\n      dup1\n      revert\n    tag_1:\n      pop\n      mload(0x40)\n      sub(codesize, bytecodeSize)\n      dup1\n      bytecodeSize\n      dup4\n      codecopy\n      dup2\n      dup2\n      add\n      0x40\n      mstore\n      dup2\n      add\n      swap1\n      tag_2\n      swap2\n      swap1\n      tag_3\n      jump\t// in\n    tag_2:\n        /* \"Documents/GitHub/XRC-20Plus/contracts/XRC20Plus.sol\":681:717  CoinBank_Accounting(block.timestamp) */\n      mload(0x40)\n      dup1\n      0x20\n      add\n      0x40\n      mstore\n      dup1\n        /* \"Documents/GitHub/XRC-20Plus/contracts/XRC20Plus.sol\":701:716  block.timestamp */\n      timestamp\n        /* \"Documents/GitHub/XRC-20Plus/contracts/XRC20Plus.sol\":681:717  CoinBank_Accounting(block.timestamp) */\n      dup2\n      mstore\n      pop\n        /* \"Documents/GitHub/XRC-20Plus/contracts/XRC20Plus.sol\":663:667  Bank */\n      0x04\n        /* \"Documents/GitHub/XRC-20Plus/contracts/XRC20Plus.sol\":663:678  Bank[_Treasury] */\n      0x00\n        /* \"Documents/GitHub/XRC-20Plus/contracts/XRC20Plus.sol\":668:677  _Treasury */\n      dup5\n        /* \"Documents/GitHub/XRC-20Plus/contracts/XRC20Plus.sol\":663:678  Bank[_Treasury] */\n      0xffffffffffffffffffffffffffffffffffffffff\n      and\n      0xffffffffffffffffffffffffffffffffffffffff\n      and\n      dup2\n      mstore\n      0x20\n      add\n      swap1\n      dup2\n      mstore\n      0x20\n      add\n      0x00\n      keccak256\n        /* \"Documents/GitHub/XRC-20Plus/contracts/XRC20Plus.sol\":663:717  Bank[_Treasury] = CoinBank_Accounting(block.timestamp) */\n      0x00\n      dup3\n      add\n      mload\n      dup2\n      0x00\n      add\n      sstore\n      swap1\n      pop\n      pop\n        /* \"Documents/GitHub/XRC-20Plus/contracts/XRC20Plus.sol\":738:747  _Treasury */\n      dup2\n        /* \"Documents/GitHub/XRC-20Plus/contracts/XRC20Plus.sol\":727:735  Treasury */\n      0x03\n      0x00\n        /* \"Documents/GitHub/XRC-20Plus/contracts/XRC20Plus.sol\":727:747  Treasury = _Treasury */\n      0x0100\n      exp\n      dup2\n      sload\n      dup2\n      0xffffffffffffffffffffffffffffffffffffffff\n      mul\n      not\n      and\n      swap1\n      dup4\n      0xffffffffffffffffffffffffffffffffffffffff\n      and\n      mul\n      or\n      swap1\n      sstore\n      pop\n        /* \"Documents/GitHub/XRC-20Plus/contracts/XRC20Plus.sol\":766:773  _supply */\n      dup1\n        /* \"Documents/GitHub/XRC-20Plus/contracts/XRC20Plus.sol\":757:763  Supply */\n      0x01\n        /* \"Documents/GitHub/XRC-20Plus/contracts/XRC20Plus.sol\":757:773  Supply = _supply */\n      dup2\n      swap1\n      sstore\n      pop\n        /* \"Documents/GitHub/XRC-20Plus/contracts/XRC20Plus.sol\":610:780  constructor(address _Treasury,uint _supply){... */\n      pop\n      pop\n        /* \"Documents/GitHub/XRC-20Plus/contracts/XRC20Plus.sol\":305:1980  contract CoinBank is CoinBank_Interface{... */\n      jump(tag_6)\n        /* \"#utility.yul\":88:205   */\n    tag_8:\n        /* \"#utility.yul\":197:198   */\n      0x00\n        /* \"#utility.yul\":194:195   */\n      dup1\n        /* \"#utility.yul\":187:199   */\n      revert\n        /* \"#utility.yul\":334:460   */\n    tag_10:\n        /* \"#utility.yul\":371:378   */\n      0x00\n        /* \"#utility.yul\":411:453   */\n      0xffffffffffffffffffffffffffffffffffffffff\n        /* \"#utility.yul\":404:409   */\n      dup3\n        /* \"#utility.yul\":400:454   */\n      and\n        /* \"#utility.yul\":389:454   */\n      swap1\n      pop\n        /* \"#utility.yul\":334:460   */\n      swap2\n      swap1\n      pop\n      jump\t// out\n        /* \"#utility.yul\":466:562   */\n    tag_11:\n        /* \"#utility.yul\":503:510   */\n      0x00\n        /* \"#utility.yul\":532:556   */\n      tag_23\n        /* \"#utility.yul\":550:555   */\n      dup3\n        /* \"#utility.yul\":532:556   */\n      tag_10\n      jump\t// in\n    tag_23:\n        /* \"#utility.yul\":521:556   */\n      swap1\n      pop\n        /* \"#utility.yul\":466:562   */\n      swap2\n      swap1\n      pop\n      jump\t// out\n        /* \"#utility.yul\":568:690   */\n    tag_12:\n        /* \"#utility.yul\":641:665   */\n      tag_25\n        /* \"#utility.yul\":659:664   */\n      dup2\n        /* \"#utility.yul\":641:665   */\n      tag_11\n      jump\t// in\n    tag_25:\n        /* \"#utility.yul\":634:639   */\n      dup2\n        /* \"#utility.yul\":631:666   */\n      eq\n        /* \"#utility.yul\":621:684   */\n      tag_26\n      jumpi\n        /* \"#utility.yul\":680:681   */\n      0x00\n        /* \"#utility.yul\":677:678   */\n      dup1\n        /* \"#utility.yul\":670:682   */\n      revert\n        /* \"#utility.yul\":621:684   */\n    tag_26:\n        /* \"#utility.yul\":568:690   */\n      pop\n      jump\t// out\n        /* \"#utility.yul\":696:839   */\n    tag_13:\n        /* \"#utility.yul\":753:758   */\n      0x00\n        /* \"#utility.yul\":784:790   */\n      dup2\n        /* \"#utility.yul\":778:791   */\n      mload\n        /* \"#utility.yul\":769:791   */\n      swap1\n      pop\n        /* \"#utility.yul\":800:833   */\n      tag_28\n        /* \"#utility.yul\":827:832   */\n      dup2\n        /* \"#utility.yul\":800:833   */\n      tag_12\n      jump\t// in\n    tag_28:\n        /* \"#utility.yul\":696:839   */\n      swap3\n      swap2\n      pop\n      pop\n      jump\t// out\n        /* \"#utility.yul\":845:922   */\n    tag_14:\n        /* \"#utility.yul\":882:889   */\n      0x00\n        /* \"#utility.yul\":911:916   */\n      dup2\n        /* \"#utility.yul\":900:916   */\n      swap1\n      pop\n        /* \"#utility.yul\":845:922   */\n      swap2\n      swap1\n      pop\n      jump\t// out\n        /* \"#utility.yul\":928:1050   */\n    tag_15:\n        /* \"#utility.yul\":1001:1025   */\n      tag_31\n        /* \"#utility.yul\":1019:1024   */\n      dup2\n        /* \"#utility.yul\":1001:1025   */\n      tag_14\n      jump\t// in\n    tag_31:\n        /* \"#utility.yul\":994:999   */\n      dup2\n        /* \"#utility.yul\":991:1026   */\n      eq\n        /* \"#utility.yul\":981:1044   */\n      tag_32\n      jumpi\n        /* \"#utility.yul\":1040:1041   */\n      0x00\n        /* \"#utility.yul\":1037:1038   */\n      dup1\n        /* \"#utility.yul\":1030:1042   */\n      revert\n        /* \"#utility.yul\":981:1044   */\n    tag_32:\n        /* \"#utility.yul\":928:1050   */\n      pop\n      jump\t// out\n        /* \"#utility.yul\":1056:1199   */\n    tag_16:\n        /* \"#utility.yul\":1113:1118   */\n      0x00\n        /* \"#utility.yul\":1144:1150   */\n      dup2\n        /* \"#utility.yul\":1138:1151   */\n      mload\n        /* \"#utility.yul\":1129:1151   */\n      swap1\n      pop\n        /* \"#utility.yul\":1160:1193   */\n      tag_34\n        /* \"#utility.yul\":1187:1192   */\n      dup2\n        /* \"#utility.yul\":1160:1193   */\n      tag_15\n      jump\t// in\n    tag_34:\n        /* \"#utility.yul\":1056:1199   */\n      swap3\n      swap2\n      pop\n      pop\n      jump\t// out\n        /* \"#utility.yul\":1205:1712   */\n    tag_3:\n        /* \"#utility.yul\":1284:1290   */\n      0x00\n        /* \"#utility.yul\":1292:1298   */\n      dup1\n        /* \"#utility.yul\":1341:1343   */\n      0x40\n        /* \"#utility.yul\":1329:1338   */\n      dup4\n        /* \"#utility.yul\":1320:1327   */\n      dup6\n        /* \"#utility.yul\":1316:1339   */\n      sub\n        /* \"#utility.yul\":1312:1344   */\n      slt\n        /* \"#utility.yul\":1309:1428   */\n      iszero\n      tag_36\n      jumpi\n        /* \"#utility.yul\":1347:1426   */\n      tag_37\n      tag_8\n      jump\t// in\n    tag_37:\n        /* \"#utility.yul\":1309:1428   */\n    tag_36:\n        /* \"#utility.yul\":1467:1468   */\n      0x00\n        /* \"#utility.yul\":1492:1556   */\n      tag_38\n        /* \"#utility.yul\":1548:1555   */\n      dup6\n        /* \"#utility.yul\":1539:1545   */\n      dup3\n        /* \"#utility.yul\":1528:1537   */\n      dup7\n        /* \"#utility.yul\":1524:1546   */\n      add\n        /* \"#utility.yul\":1492:1556   */\n      tag_13\n      jump\t// in\n    tag_38:\n        /* \"#utility.yul\":1482:1556   */\n      swap3\n      pop\n        /* \"#utility.yul\":1438:1566   */\n      pop\n        /* \"#utility.yul\":1605:1607   */\n      0x20\n        /* \"#utility.yul\":1631:1695   */\n      tag_39\n        /* \"#utility.yul\":1687:1694   */\n      dup6\n        /* \"#utility.yul\":1678:1684   */\n      dup3\n        /* \"#utility.yul\":1667:1676   */\n      dup7\n        /* \"#utility.yul\":1663:1685   */\n      add\n        /* \"#utility.yul\":1631:1695   */\n      tag_16\n      jump\t// in\n    tag_39:\n        /* \"#utility.yul\":1621:1695   */\n      swap2\n      pop\n        /* \"#utility.yul\":1576:1705   */\n      pop\n        /* \"#utility.yul\":1205:1712   */\n      swap3\n      pop\n      swap3\n      swap1\n      pop\n      jump\t// out\n        /* \"Documents/GitHub/XRC-20Plus/contracts/XRC20Plus.sol\":305:1980  contract CoinBank is CoinBank_Interface{... */\n    tag_6:\n      dataSize(sub_0)\n      dup1\n      dataOffset(sub_0)\n      0x00\n      codecopy\n      0x00\n      return\n    stop\n\n    sub_0: assembly {\n            /* \"Documents/GitHub/XRC-20Plus/contracts/XRC20Plus.sol\":305:1980  contract CoinBank is CoinBank_Interface{... */\n          mstore(0x40, 0x80)\n          jumpi(tag_1, lt(calldatasize, 0x04))\n          shr(0xe0, calldataload(0x00))\n          dup1\n          0x563df32f\n          eq\n          tag_3\n          jumpi\n          dup1\n          0x82add361\n          eq\n          tag_4\n          jumpi\n          dup1\n          0x91d1a764\n          eq\n          tag_5\n          jumpi\n          dup1\n          0xee07bf22\n          eq\n          tag_6\n          jumpi\n          jump(tag_2)\n        tag_1:\n          jumpi(tag_2, calldatasize)\n            /* \"Documents/GitHub/XRC-20Plus/contracts/XRC20Plus.sol\":1903:1904  0 */\n          0x00\n            /* \"Documents/GitHub/XRC-20Plus/contracts/XRC20Plus.sol\":1893:1902  msg.value */\n          callvalue\n            /* \"Documents/GitHub/XRC-20Plus/contracts/XRC20Plus.sol\":1893:1904  msg.value>0 */\n          gt\n            /* \"Documents/GitHub/XRC-20Plus/contracts/XRC20Plus.sol\":1890:1972  if(msg.value>0){... */\n          iszero\n          tag_9\n          jumpi\n            /* \"Documents/GitHub/XRC-20Plus/contracts/XRC20Plus.sol\":1935:1939  this */\n          address\n            /* \"Documents/GitHub/XRC-20Plus/contracts/XRC20Plus.sol\":1919:1950  payable(address(this)).transfer */\n          0xffffffffffffffffffffffffffffffffffffffff\n          and\n            /* \"Documents/GitHub/XRC-20Plus/contracts/XRC20Plus.sol\":1919:1961  payable(address(this)).transfer(msg.value) */\n          0x08fc\n            /* \"Documents/GitHub/XRC-20Plus/contracts/XRC20Plus.sol\":1951:1960  msg.value */\n          callvalue\n            /* \"Documents/GitHub/XRC-20Plus/contracts/XRC20Plus.sol\":1919:1961  payable(address(this)).transfer(msg.value) */\n          swap1\n          dup2\n          iszero\n          mul\n          swap1\n          mload(0x40)\n          0x00\n          mload(0x40)\n          dup1\n          dup4\n          sub\n          dup2\n          dup6\n          dup9\n          dup9\n          call\n          swap4\n          pop\n          pop\n          pop\n          pop\n          iszero\n          dup1\n          iszero\n          tag_11\n          jumpi\n          returndatasize\n          0x00\n          dup1\n          returndatacopy\n          revert(0x00, returndatasize)\n        tag_11:\n          pop\n            /* \"Documents/GitHub/XRC-20Plus/contracts/XRC20Plus.sol\":1890:1972  if(msg.value>0){... */\n        tag_9:\n            /* \"Documents/GitHub/XRC-20Plus/contracts/XRC20Plus.sol\":305:1980  contract CoinBank is CoinBank_Interface{... */\n          stop\n        tag_2:\n          stop\n            /* \"Documents/GitHub/XRC-20Plus/contracts/XRC20Plus.sol\":436:459  address public Treasury */\n        tag_3:\n          callvalue\n          dup1\n          iszero\n          tag_14\n          jumpi\n          0x00\n          dup1\n          revert\n        tag_14:\n          pop\n          tag_15\n          tag_16\n          jump\t// in\n        tag_15:\n          mload(0x40)\n          tag_17\n          swap2\n          swap1\n          tag_18\n          jump\t// in\n        tag_17:\n          mload(0x40)\n          dup1\n          swap2\n          sub\n          swap1\n          return\n            /* \"Documents/GitHub/XRC-20Plus/contracts/XRC20Plus.sol\":1333:1813  function Incomming_Payments()public payable returns(bool){... */\n        tag_4:\n          tag_19\n          tag_20\n          jump\t// in\n        tag_19:\n          mload(0x40)\n          tag_21\n          swap2\n          swap1\n          tag_22\n          jump\t// in\n        tag_21:\n          mload(0x40)\n          dup1\n          swap2\n          sub\n          swap1\n          return\n            /* \"Documents/GitHub/XRC-20Plus/contracts/XRC20Plus.sol\":823:875  mapping (address => CoinBank_Accounting) public Bank */\n        tag_5:\n          callvalue\n          dup1\n          iszero\n          tag_23\n          jumpi\n          0x00\n          dup1\n          revert\n        tag_23:\n          pop\n          tag_24\n          0x04\n          dup1\n          calldatasize\n          sub\n          dup2\n          add\n          swap1\n          tag_25\n          swap2\n          swap1\n          tag_26\n          jump\t// in\n        tag_25:\n          tag_27\n          jump\t// in\n        tag_24:\n          mload(0x40)\n          tag_28\n          swap2\n          swap1\n          tag_29\n          jump\t// in\n        tag_28:\n          mload(0x40)\n          dup1\n          swap2\n          sub\n          swap1\n          return\n            /* \"Documents/GitHub/XRC-20Plus/contracts/XRC20Plus.sol\":381:399  uint public Supply */\n        tag_6:\n          callvalue\n          dup1\n          iszero\n          tag_30\n          jumpi\n          0x00\n          dup1\n          revert\n        tag_30:\n          pop\n          tag_31\n          tag_32\n          jump\t// in\n        tag_31:\n          mload(0x40)\n          tag_33\n          swap2\n          swap1\n          tag_29\n          jump\t// in\n        tag_33:\n          mload(0x40)\n          dup1\n          swap2\n          sub\n          swap1\n          return\n            /* \"Documents/GitHub/XRC-20Plus/contracts/XRC20Plus.sol\":436:459  address public Treasury */\n        tag_16:\n          0x03\n          0x00\n          swap1\n          sload\n          swap1\n          0x0100\n          exp\n          swap1\n          div\n          0xffffffffffffffffffffffffffffffffffffffff\n          and\n          dup2\n          jump\t// out\n            /* \"Documents/GitHub/XRC-20Plus/contracts/XRC20Plus.sol\":1333:1813  function Incomming_Payments()public payable returns(bool){... */\n        tag_20:\n            /* \"Documents/GitHub/XRC-20Plus/contracts/XRC20Plus.sol\":1385:1389  bool */\n          0x00\n            /* \"Documents/GitHub/XRC-20Plus/contracts/XRC20Plus.sol\":1400:1417  uint timeInterval */\n          dup1\n            /* \"Documents/GitHub/XRC-20Plus/contracts/XRC20Plus.sol\":1418:1419  0 */\n          0x00\n            /* \"Documents/GitHub/XRC-20Plus/contracts/XRC20Plus.sol\":1400:1419  uint timeInterval=0 */\n          swap1\n          pop\n            /* \"Documents/GitHub/XRC-20Plus/contracts/XRC20Plus.sol\":1500:1504  Bank */\n          0x04\n            /* \"Documents/GitHub/XRC-20Plus/contracts/XRC20Plus.sol\":1500:1514  Bank[Treasury] */\n          0x00\n            /* \"Documents/GitHub/XRC-20Plus/contracts/XRC20Plus.sol\":1505:1513  Treasury */\n          0x03\n          0x00\n          swap1\n          sload\n          swap1\n          0x0100\n          exp\n          swap1\n          div\n          0xffffffffffffffffffffffffffffffffffffffff\n          and\n            /* \"Documents/GitHub/XRC-20Plus/contracts/XRC20Plus.sol\":1500:1514  Bank[Treasury] */\n          0xffffffffffffffffffffffffffffffffffffffff\n          and\n          0xffffffffffffffffffffffffffffffffffffffff\n          and\n          dup2\n          mstore\n          0x20\n          add\n          swap1\n          dup2\n          mstore\n          0x20\n          add\n          0x00\n          keccak256\n            /* \"Documents/GitHub/XRC-20Plus/contracts/XRC20Plus.sol\":1500:1528  Bank[Treasury].Previous_Time */\n          0x00\n          add\n          sload\n            /* \"Documents/GitHub/XRC-20Plus/contracts/XRC20Plus.sol\":1487:1499  timeInterval */\n          dup2\n            /* \"Documents/GitHub/XRC-20Plus/contracts/XRC20Plus.sol\":1487:1528  timeInterval+Bank[Treasury].Previous_Time */\n          tag_35\n          swap2\n          swap1\n          tag_36\n          jump\t// in\n        tag_35:\n            /* \"Documents/GitHub/XRC-20Plus/contracts/XRC20Plus.sol\":1470:1485  block.timestamp */\n          timestamp\n            /* \"Documents/GitHub/XRC-20Plus/contracts/XRC20Plus.sol\":1470:1528  block.timestamp>=timeInterval+Bank[Treasury].Previous_Time */\n          lt\n            /* \"Documents/GitHub/XRC-20Plus/contracts/XRC20Plus.sol\":1467:1807  if(block.timestamp>=timeInterval+Bank[Treasury].Previous_Time){... */\n          tag_37\n          jumpi\n            /* \"Documents/GitHub/XRC-20Plus/contracts/XRC20Plus.sol\":1543:1560  uint single_Shard */\n          0x00\n            /* \"Documents/GitHub/XRC-20Plus/contracts/XRC20Plus.sol\":1590:1596  Supply */\n          sload(0x01)\n            /* \"Documents/GitHub/XRC-20Plus/contracts/XRC20Plus.sol\":1568:1589  address(this).balance */\n          selfbalance\n            /* \"Documents/GitHub/XRC-20Plus/contracts/XRC20Plus.sol\":1568:1596  address(this).balance/Supply */\n          tag_38\n          swap2\n          swap1\n          tag_39\n          jump\t// in\n        tag_38:\n            /* \"Documents/GitHub/XRC-20Plus/contracts/XRC20Plus.sol\":1543:1597  uint single_Shard = uint(address(this).balance/Supply) */\n          swap1\n          pop\n            /* \"Documents/GitHub/XRC-20Plus/contracts/XRC20Plus.sol\":1611:1642  Issue_To_Treasury(single_Shard) */\n          tag_40\n            /* \"Documents/GitHub/XRC-20Plus/contracts/XRC20Plus.sol\":1629:1641  single_Shard */\n          dup2\n            /* \"Documents/GitHub/XRC-20Plus/contracts/XRC20Plus.sol\":1611:1628  Issue_To_Treasury */\n          tag_41\n            /* \"Documents/GitHub/XRC-20Plus/contracts/XRC20Plus.sol\":1611:1642  Issue_To_Treasury(single_Shard) */\n          jump\t// in\n        tag_40:\n            /* \"Documents/GitHub/XRC-20Plus/contracts/XRC20Plus.sol\":1715:1730  block.timestamp */\n          timestamp\n            /* \"Documents/GitHub/XRC-20Plus/contracts/XRC20Plus.sol\":1684:1688  Bank */\n          0x04\n            /* \"Documents/GitHub/XRC-20Plus/contracts/XRC20Plus.sol\":1684:1698  Bank[Treasury] */\n          0x00\n            /* \"Documents/GitHub/XRC-20Plus/contracts/XRC20Plus.sol\":1689:1697  Treasury */\n          0x03\n          0x00\n          swap1\n          sload\n          swap1\n          0x0100\n          exp\n          swap1\n          div\n          0xffffffffffffffffffffffffffffffffffffffff\n          and\n            /* \"Documents/GitHub/XRC-20Plus/contracts/XRC20Plus.sol\":1684:1698  Bank[Treasury] */\n          0xffffffffffffffffffffffffffffffffffffffff\n          and\n          0xffffffffffffffffffffffffffffffffffffffff\n          and\n          dup2\n          mstore\n          0x20\n          add\n          swap1\n          dup2\n          mstore\n          0x20\n          add\n          0x00\n          keccak256\n            /* \"Documents/GitHub/XRC-20Plus/contracts/XRC20Plus.sol\":1684:1712  Bank[Treasury].Previous_Time */\n          0x00\n          add\n            /* \"Documents/GitHub/XRC-20Plus/contracts/XRC20Plus.sol\":1684:1730  Bank[Treasury].Previous_Time = block.timestamp */\n          dup2\n          swap1\n          sstore\n          pop\n            /* \"Documents/GitHub/XRC-20Plus/contracts/XRC20Plus.sol\":1751:1755  true */\n          0x01\n            /* \"Documents/GitHub/XRC-20Plus/contracts/XRC20Plus.sol\":1744:1755  return true */\n          swap3\n          pop\n          pop\n          pop\n          jump(tag_34)\n            /* \"Documents/GitHub/XRC-20Plus/contracts/XRC20Plus.sol\":1467:1807  if(block.timestamp>=timeInterval+Bank[Treasury].Previous_Time){... */\n        tag_37:\n            /* \"Documents/GitHub/XRC-20Plus/contracts/XRC20Plus.sol\":1791:1796  false */\n          0x00\n            /* \"Documents/GitHub/XRC-20Plus/contracts/XRC20Plus.sol\":1784:1796  return false */\n          swap2\n          pop\n          pop\n            /* \"Documents/GitHub/XRC-20Plus/contracts/XRC20Plus.sol\":1333:1813  function Incomming_Payments()public payable returns(bool){... */\n        tag_34:\n          swap1\n          jump\t// out\n            /* \"Documents/GitHub/XRC-20Plus/contracts/XRC20Plus.sol\":823:875  mapping (address => CoinBank_Accounting) public Bank */\n        tag_27:\n          mstore(0x20, 0x04)\n          dup1\n          0x00\n          mstore\n          keccak256(0x00, 0x40)\n          0x00\n          swap2\n          pop\n          swap1\n          pop\n          dup1\n          0x00\n          add\n          sload\n          swap1\n          pop\n          dup2\n          jump\t// out\n            /* \"Documents/GitHub/XRC-20Plus/contracts/XRC20Plus.sol\":381:399  uint public Supply */\n        tag_32:\n          sload(0x01)\n          dup2\n          jump\t// out\n            /* \"Documents/GitHub/XRC-20Plus/contracts/XRC20Plus.sol\":921:1241  function Issue_To_Treasury(uint _single_Shard)internal{... */\n        tag_41:\n            /* \"Documents/GitHub/XRC-20Plus/contracts/XRC20Plus.sol\":1032:1059  Plus_Interface exeInterface */\n          0x00\n            /* \"Documents/GitHub/XRC-20Plus/contracts/XRC20Plus.sol\":1077:1085  Treasury */\n          0x03\n          0x00\n          swap1\n          sload\n          swap1\n          0x0100\n          exp\n          swap1\n          div\n          0xffffffffffffffffffffffffffffffffffffffff\n          and\n            /* \"Documents/GitHub/XRC-20Plus/contracts/XRC20Plus.sol\":1032:1086  Plus_Interface exeInterface = Plus_Interface(Treasury) */\n          swap1\n          pop\n            /* \"Documents/GitHub/XRC-20Plus/contracts/XRC20Plus.sol\":1135:1147  exeInterface */\n          dup1\n            /* \"Documents/GitHub/XRC-20Plus/contracts/XRC20Plus.sol\":1135:1168  exeInterface.Accept_From_CoinBank */\n          0xffffffffffffffffffffffffffffffffffffffff\n          and\n          0x9a29e6aa\n            /* \"Documents/GitHub/XRC-20Plus/contracts/XRC20Plus.sol\":1169:1182  _single_Shard */\n          dup4\n            /* \"Documents/GitHub/XRC-20Plus/contracts/XRC20Plus.sol\":1135:1183  exeInterface.Accept_From_CoinBank(_single_Shard) */\n          mload(0x40)\n          dup3\n          0xffffffff\n          and\n          0xe0\n          shl\n          dup2\n          mstore\n          0x04\n          add\n          tag_44\n          swap2\n          swap1\n          tag_29\n          jump\t// in\n        tag_44:\n          0x00\n          mload(0x40)\n          dup1\n          dup4\n          sub\n          dup2\n          0x00\n          dup8\n          dup1\n          extcodesize\n          iszero\n          dup1\n          iszero\n          tag_45\n          jumpi\n          0x00\n          dup1\n          revert\n        tag_45:\n          pop\n          gas\n          call\n          iszero\n          dup1\n          iszero\n          tag_47\n          jumpi\n          returndatasize\n          0x00\n          dup1\n          returndatacopy\n          revert(0x00, returndatasize)\n        tag_47:\n          pop\n          pop\n          pop\n          pop\n            /* \"Documents/GitHub/XRC-20Plus/contracts/XRC20Plus.sol\":1198:1233  CoinBankClock(block.timestamp,true) */\n          0xa45dac62289018e90b3dc24632d939c6f3545fbc1c00325ee50858f926afc630\n            /* \"Documents/GitHub/XRC-20Plus/contracts/XRC20Plus.sol\":1212:1227  block.timestamp */\n          timestamp\n            /* \"Documents/GitHub/XRC-20Plus/contracts/XRC20Plus.sol\":1228:1232  true */\n          0x01\n            /* \"Documents/GitHub/XRC-20Plus/contracts/XRC20Plus.sol\":1198:1233  CoinBankClock(block.timestamp,true) */\n          mload(0x40)\n          tag_48\n          swap3\n          swap2\n          swap1\n          tag_49\n          jump\t// in\n        tag_48:\n          mload(0x40)\n          dup1\n          swap2\n          sub\n          swap1\n          log1\n            /* \"Documents/GitHub/XRC-20Plus/contracts/XRC20Plus.sol\":975:1241  {... */\n          pop\n            /* \"Documents/GitHub/XRC-20Plus/contracts/XRC20Plus.sol\":921:1241  function Issue_To_Treasury(uint _single_Shard)internal{... */\n          pop\n          jump\t// out\n            /* \"#utility.yul\":7:133   */\n        tag_50:\n            /* \"#utility.yul\":44:51   */\n          0x00\n            /* \"#utility.yul\":84:126   */\n          0xffffffffffffffffffffffffffffffffffffffff\n            /* \"#utility.yul\":77:82   */\n          dup3\n            /* \"#utility.yul\":73:127   */\n          and\n            /* \"#utility.yul\":62:127   */\n          swap1\n          pop\n            /* \"#utility.yul\":7:133   */\n          swap2\n          swap1\n          pop\n          jump\t// out\n            /* \"#utility.yul\":139:235   */\n        tag_51:\n            /* \"#utility.yul\":176:183   */\n          0x00\n            /* \"#utility.yul\":205:229   */\n          tag_67\n            /* \"#utility.yul\":223:228   */\n          dup3\n            /* \"#utility.yul\":205:229   */\n          tag_50\n          jump\t// in\n        tag_67:\n            /* \"#utility.yul\":194:229   */\n          swap1\n          pop\n            /* \"#utility.yul\":139:235   */\n          swap2\n          swap1\n          pop\n          jump\t// out\n            /* \"#utility.yul\":241:359   */\n        tag_52:\n            /* \"#utility.yul\":328:352   */\n          tag_69\n            /* \"#utility.yul\":346:351   */\n          dup2\n            /* \"#utility.yul\":328:352   */\n          tag_51\n          jump\t// in\n        tag_69:\n            /* \"#utility.yul\":323:326   */\n          dup3\n            /* \"#utility.yul\":316:353   */\n          mstore\n            /* \"#utility.yul\":241:359   */\n          pop\n          pop\n          jump\t// out\n            /* \"#utility.yul\":365:587   */\n        tag_18:\n            /* \"#utility.yul\":458:462   */\n          0x00\n            /* \"#utility.yul\":496:498   */\n          0x20\n            /* \"#utility.yul\":485:494   */\n          dup3\n            /* \"#utility.yul\":481:499   */\n          add\n            /* \"#utility.yul\":473:499   */\n          swap1\n          pop\n            /* \"#utility.yul\":509:580   */\n          tag_71\n            /* \"#utility.yul\":577:578   */\n          0x00\n            /* \"#utility.yul\":566:575   */\n          dup4\n            /* \"#utility.yul\":562:579   */\n          add\n            /* \"#utility.yul\":553:559   */\n          dup5\n            /* \"#utility.yul\":509:580   */\n          tag_52\n          jump\t// in\n        tag_71:\n            /* \"#utility.yul\":365:587   */\n          swap3\n          swap2\n          pop\n          pop\n          jump\t// out\n            /* \"#utility.yul\":593:683   */\n        tag_53:\n            /* \"#utility.yul\":627:634   */\n          0x00\n            /* \"#utility.yul\":670:675   */\n          dup2\n            /* \"#utility.yul\":663:676   */\n          iszero\n            /* \"#utility.yul\":656:677   */\n          iszero\n            /* \"#utility.yul\":645:677   */\n          swap1\n          pop\n            /* \"#utility.yul\":593:683   */\n          swap2\n          swap1\n          pop\n          jump\t// out\n            /* \"#utility.yul\":689:798   */\n        tag_54:\n            /* \"#utility.yul\":770:791   */\n          tag_74\n            /* \"#utility.yul\":785:790   */\n          dup2\n            /* \"#utility.yul\":770:791   */\n          tag_53\n          jump\t// in\n        tag_74:\n            /* \"#utility.yul\":765:768   */\n          dup3\n            /* \"#utility.yul\":758:792   */\n          mstore\n            /* \"#utility.yul\":689:798   */\n          pop\n          pop\n          jump\t// out\n            /* \"#utility.yul\":804:1014   */\n        tag_22:\n            /* \"#utility.yul\":891:895   */\n          0x00\n            /* \"#utility.yul\":929:931   */\n          0x20\n            /* \"#utility.yul\":918:927   */\n          dup3\n            /* \"#utility.yul\":914:932   */\n          add\n            /* \"#utility.yul\":906:932   */\n          swap1\n          pop\n            /* \"#utility.yul\":942:1007   */\n          tag_76\n            /* \"#utility.yul\":1004:1005   */\n          0x00\n            /* \"#utility.yul\":993:1002   */\n          dup4\n            /* \"#utility.yul\":989:1006   */\n          add\n            /* \"#utility.yul\":980:986   */\n          dup5\n            /* \"#utility.yul\":942:1007   */\n          tag_54\n          jump\t// in\n        tag_76:\n            /* \"#utility.yul\":804:1014   */\n          swap3\n          swap2\n          pop\n          pop\n          jump\t// out\n            /* \"#utility.yul\":1101:1218   */\n        tag_56:\n            /* \"#utility.yul\":1210:1211   */\n          0x00\n            /* \"#utility.yul\":1207:1208   */\n          dup1\n            /* \"#utility.yul\":1200:1212   */\n          revert\n            /* \"#utility.yul\":1347:1469   */\n        tag_58:\n            /* \"#utility.yul\":1420:1444   */\n          tag_81\n            /* \"#utility.yul\":1438:1443   */\n          dup2\n            /* \"#utility.yul\":1420:1444   */\n          tag_51\n          jump\t// in\n        tag_81:\n            /* \"#utility.yul\":1413:1418   */\n          dup2\n            /* \"#utility.yul\":1410:1445   */\n          eq\n            /* \"#utility.yul\":1400:1463   */\n          tag_82\n          jumpi\n            /* \"#utility.yul\":1459:1460   */\n          0x00\n            /* \"#utility.yul\":1456:1457   */\n          dup1\n            /* \"#utility.yul\":1449:1461   */\n          revert\n            /* \"#utility.yul\":1400:1463   */\n        tag_82:\n            /* \"#utility.yul\":1347:1469   */\n          pop\n          jump\t// out\n            /* \"#utility.yul\":1475:1614   */\n        tag_59:\n            /* \"#utility.yul\":1521:1526   */\n          0x00\n            /* \"#utility.yul\":1559:1565   */\n          dup2\n            /* \"#utility.yul\":1546:1566   */\n          calldataload\n            /* \"#utility.yul\":1537:1566   */\n          swap1\n          pop\n            /* \"#utility.yul\":1575:1608   */\n          tag_84\n            /* \"#utility.yul\":1602:1607   */\n          dup2\n            /* \"#utility.yul\":1575:1608   */\n          tag_58\n          jump\t// in\n        tag_84:\n            /* \"#utility.yul\":1475:1614   */\n          swap3\n          swap2\n          pop\n          pop\n          jump\t// out\n            /* \"#utility.yul\":1620:1949   */\n        tag_26:\n            /* \"#utility.yul\":1679:1685   */\n          0x00\n            /* \"#utility.yul\":1728:1730   */\n          0x20\n            /* \"#utility.yul\":1716:1725   */\n          dup3\n            /* \"#utility.yul\":1707:1714   */\n          dup5\n            /* \"#utility.yul\":1703:1726   */\n          sub\n            /* \"#utility.yul\":1699:1731   */\n          slt\n            /* \"#utility.yul\":1696:1815   */\n          iszero\n          tag_86\n          jumpi\n            /* \"#utility.yul\":1734:1813   */\n          tag_87\n          tag_56\n          jump\t// in\n        tag_87:\n            /* \"#utility.yul\":1696:1815   */\n        tag_86:\n            /* \"#utility.yul\":1854:1855   */\n          0x00\n            /* \"#utility.yul\":1879:1932   */\n          tag_88\n            /* \"#utility.yul\":1924:1931   */\n          dup5\n            /* \"#utility.yul\":1915:1921   */\n          dup3\n            /* \"#utility.yul\":1904:1913   */\n          dup6\n            /* \"#utility.yul\":1900:1922   */\n          add\n            /* \"#utility.yul\":1879:1932   */\n          tag_59\n          jump\t// in\n        tag_88:\n            /* \"#utility.yul\":1869:1932   */\n          swap2\n          pop\n            /* \"#utility.yul\":1825:1942   */\n          pop\n            /* \"#utility.yul\":1620:1949   */\n          swap3\n          swap2\n          pop\n          pop\n          jump\t// out\n            /* \"#utility.yul\":1955:2032   */\n        tag_60:\n            /* \"#utility.yul\":1992:1999   */\n          0x00\n            /* \"#utility.yul\":2021:2026   */\n          dup2\n            /* \"#utility.yul\":2010:2026   */\n          swap1\n          pop\n            /* \"#utility.yul\":1955:2032   */\n          swap2\n          swap1\n          pop\n          jump\t// out\n            /* \"#utility.yul\":2038:2156   */\n        tag_61:\n            /* \"#utility.yul\":2125:2149   */\n          tag_91\n            /* \"#utility.yul\":2143:2148   */\n          dup2\n            /* \"#utility.yul\":2125:2149   */\n          tag_60\n          jump\t// in\n        tag_91:\n            /* \"#utility.yul\":2120:2123   */\n          dup3\n            /* \"#utility.yul\":2113:2150   */\n          mstore\n            /* \"#utility.yul\":2038:2156   */\n          pop\n          pop\n          jump\t// out\n            /* \"#utility.yul\":2162:2384   */\n        tag_29:\n            /* \"#utility.yul\":2255:2259   */\n          0x00\n            /* \"#utility.yul\":2293:2295   */\n          0x20\n            /* \"#utility.yul\":2282:2291   */\n          dup3\n            /* \"#utility.yul\":2278:2296   */\n          add\n            /* \"#utility.yul\":2270:2296   */\n          swap1\n          pop\n            /* \"#utility.yul\":2306:2377   */\n          tag_93\n            /* \"#utility.yul\":2374:2375   */\n          0x00\n            /* \"#utility.yul\":2363:2372   */\n          dup4\n            /* \"#utility.yul\":2359:2376   */\n          add\n            /* \"#utility.yul\":2350:2356   */\n          dup5\n            /* \"#utility.yul\":2306:2377   */\n          tag_61\n          jump\t// in\n        tag_93:\n            /* \"#utility.yul\":2162:2384   */\n          swap3\n          swap2\n          pop\n          pop\n          jump\t// out\n            /* \"#utility.yul\":2390:2570   */\n        tag_62:\n            /* \"#utility.yul\":2438:2515   */\n          0x4e487b7100000000000000000000000000000000000000000000000000000000\n            /* \"#utility.yul\":2435:2436   */\n          0x00\n            /* \"#utility.yul\":2428:2516   */\n          mstore\n            /* \"#utility.yul\":2535:2539   */\n          0x11\n            /* \"#utility.yul\":2532:2533   */\n          0x04\n            /* \"#utility.yul\":2525:2540   */\n          mstore\n            /* \"#utility.yul\":2559:2563   */\n          0x24\n            /* \"#utility.yul\":2556:2557   */\n          0x00\n            /* \"#utility.yul\":2549:2564   */\n          revert\n            /* \"#utility.yul\":2576:2881   */\n        tag_36:\n            /* \"#utility.yul\":2616:2619   */\n          0x00\n            /* \"#utility.yul\":2635:2655   */\n          tag_96\n            /* \"#utility.yul\":2653:2654   */\n          dup3\n            /* \"#utility.yul\":2635:2655   */\n          tag_60\n          jump\t// in\n        tag_96:\n            /* \"#utility.yul\":2630:2655   */\n          swap2\n          pop\n            /* \"#utility.yul\":2669:2689   */\n          tag_97\n            /* \"#utility.yul\":2687:2688   */\n          dup4\n            /* \"#utility.yul\":2669:2689   */\n          tag_60\n          jump\t// in\n        tag_97:\n            /* \"#utility.yul\":2664:2689   */\n          swap3\n          pop\n            /* \"#utility.yul\":2823:2824   */\n          dup3\n            /* \"#utility.yul\":2755:2821   */\n          0xffffffffffffffffffffffffffffffffffffffffffffffffffffffffffffffff\n            /* \"#utility.yul\":2751:2825   */\n          sub\n            /* \"#utility.yul\":2748:2749   */\n          dup3\n            /* \"#utility.yul\":2745:2826   */\n          gt\n            /* \"#utility.yul\":2742:2849   */\n          iszero\n          tag_98\n          jumpi\n            /* \"#utility.yul\":2829:2847   */\n          tag_99\n          tag_62\n          jump\t// in\n        tag_99:\n            /* \"#utility.yul\":2742:2849   */\n        tag_98:\n            /* \"#utility.yul\":2873:2874   */\n          dup3\n            /* \"#utility.yul\":2870:2871   */\n          dup3\n            /* \"#utility.yul\":2866:2875   */\n          add\n            /* \"#utility.yul\":2859:2875   */\n          swap1\n          pop\n            /* \"#utility.yul\":2576:2881   */\n          swap3\n          swap2\n          pop\n          pop\n          jump\t// out\n            /* \"#utility.yul\":2887:3067   */\n        tag_63:\n            /* \"#utility.yul\":2935:3012   */\n          0x4e487b7100000000000000000000000000000000000000000000000000000000\n            /* \"#utility.yul\":2932:2933   */\n          0x00\n            /* \"#utility.yul\":2925:3013   */\n          mstore\n            /* \"#utility.yul\":3032:3036   */\n          0x12\n            /* \"#utility.yul\":3029:3030   */\n          0x04\n            /* \"#utility.yul\":3022:3037   */\n          mstore\n            /* \"#utility.yul\":3056:3060   */\n          0x24\n            /* \"#utility.yul\":3053:3054   */\n          0x00\n            /* \"#utility.yul\":3046:3061   */\n          revert\n            /* \"#utility.yul\":3073:3258   */\n        tag_39:\n            /* \"#utility.yul\":3113:3114   */\n          0x00\n            /* \"#utility.yul\":3130:3150   */\n          tag_102\n            /* \"#utility.yul\":3148:3149   */\n          dup3\n            /* \"#utility.yul\":3130:3150   */\n          tag_60\n          jump\t// in\n        tag_102:\n            /* \"#utility.yul\":3125:3150   */\n          swap2\n          pop\n            /* \"#utility.yul\":3164:3184   */\n          tag_103\n            /* \"#utility.yul\":3182:3183   */\n          dup4\n            /* \"#utility.yul\":3164:3184   */\n          tag_60\n          jump\t// in\n        tag_103:\n            /* \"#utility.yul\":3159:3184   */\n          swap3\n          pop\n            /* \"#utility.yul\":3203:3204   */\n          dup3\n            /* \"#utility.yul\":3193:3228   */\n          tag_104\n          jumpi\n            /* \"#utility.yul\":3208:3226   */\n          tag_105\n          tag_63\n          jump\t// in\n        tag_105:\n            /* \"#utility.yul\":3193:3228   */\n        tag_104:\n            /* \"#utility.yul\":3250:3251   */\n          dup3\n            /* \"#utility.yul\":3247:3248   */\n          dup3\n            /* \"#utility.yul\":3243:3252   */\n          div\n            /* \"#utility.yul\":3238:3252   */\n          swap1\n          pop\n            /* \"#utility.yul\":3073:3258   */\n          swap3\n          swap2\n          pop\n          pop\n          jump\t// out\n            /* \"#utility.yul\":3264:3584   */\n        tag_49:\n            /* \"#utility.yul\":3379:3383   */\n          0x00\n            /* \"#utility.yul\":3417:3419   */\n          0x40\n            /* \"#utility.yul\":3406:3415   */\n          dup3\n            /* \"#utility.yul\":3402:3420   */\n          add\n            /* \"#utility.yul\":3394:3420   */\n          swap1\n          pop\n            /* \"#utility.yul\":3430:3501   */\n          tag_107\n            /* \"#utility.yul\":3498:3499   */\n          0x00\n            /* \"#utility.yul\":3487:3496   */\n          dup4\n            /* \"#utility.yul\":3483:3500   */\n          add\n            /* \"#utility.yul\":3474:3480   */\n          dup6\n            /* \"#utility.yul\":3430:3501   */\n          tag_61\n          jump\t// in\n        tag_107:\n            /* \"#utility.yul\":3511:3577   */\n          tag_108\n            /* \"#utility.yul\":3573:3575   */\n          0x20\n            /* \"#utility.yul\":3562:3571   */\n          dup4\n            /* \"#utility.yul\":3558:3576   */\n          add\n            /* \"#utility.yul\":3549:3555   */\n          dup5\n            /* \"#utility.yul\":3511:3577   */\n          tag_54\n          jump\t// in\n        tag_108:\n            /* \"#utility.yul\":3264:3584   */\n          swap4\n          swap3\n          pop\n          pop\n          pop\n          jump\t// out\n\n        auxdata: 0xa26469706673582212206d7da3af6b6eb98f277cefc5b009d58c19412df221f5516c33b24b5c6aea469264736f6c634300080d0033\n    }\n}\n",
				"bytecode": {
					"linkReferences": {},
					"object": "608060405260006005556000600655606460075560006008553480156200002557600080fd5b50604051620039603803806200396083398181016040528101906200004b9190620007b2565b8383816003908051906020019062000065929190620004de565b5080600490805190602001906200007e929190620004de565b50505080600a620000909190620009e5565b826200009d919062000a36565b9150620000b133836200016f60201b60201c565b620000c1620002e760201b60201c565b5060003083604051620000d4906200056f565b620000e192919062000aed565b604051809103906000f080158015620000fe573d6000803e3d6000fd5b509050600b819080600181540180825580915050600190039060005260206000200160009091909190916101000a81548173ffffffffffffffffffffffffffffffffffffffff021916908373ffffffffffffffffffffffffffffffffffffffff160217905550505050505062000d3a565b600073ffffffffffffffffffffffffffffffffffffffff168273ffffffffffffffffffffffffffffffffffffffff1603620001e1576040517f08c379a0000000000000000000000000000000000000000000000000000000008152600401620001d89062000b7b565b60405180910390fd5b620001f560008383620004d460201b60201c565b806002600082825462000209919062000b9d565b92505081905550806000808473ffffffffffffffffffffffffffffffffffffffff1673ffffffffffffffffffffffffffffffffffffffff168152602001908152602001600020600082825462000260919062000b9d565b925050819055508173ffffffffffffffffffffffffffffffffffffffff16600073ffffffffffffffffffffffffffffffffffffffff167fddf252ad1be2c89b69c2b068fc378daa952ba7f163c4a11628f55a4df523b3ef83604051620002c7919062000bfa565b60405180910390a3620002e360008383620004d960201b60201c565b5050565b6000801515600960003373ffffffffffffffffffffffffffffffffffffffff1673ffffffffffffffffffffffffffffffffffffffff16815260200190815260200160002060010160009054906101000a900460ff1615151462000381576040517f08c379a0000000000000000000000000000000000000000000000000000000008152600401620003789062000c67565b60405180910390fd5b60405180604001604052803373ffffffffffffffffffffffffffffffffffffffff16815260200160011515815250600a6000600654815260200190815260200160002060008201518160000160006101000a81548173ffffffffffffffffffffffffffffffffffffffff021916908373ffffffffffffffffffffffffffffffffffffffff16021790555060208201518160000160146101000a81548160ff02191690831515021790555090505060405180604001604052806000815260200160011515815250600960003373ffffffffffffffffffffffffffffffffffffffff1673ffffffffffffffffffffffffffffffffffffffff1681526020019081526020016000206000820151816000015560208201518160010160006101000a81548160ff02191690831515021790555090505060066000815480929190620004c89062000c89565b91905055506001905090565b505050565b505050565b828054620004ec9062000d05565b90600052602060002090601f0160209004810192826200051057600085556200055c565b82601f106200052b57805160ff19168380011785556200055c565b828001600101855582156200055c579182015b828111156200055b5782518255916020019190600101906200053e565b5b5090506200056b91906200057d565b5090565b6107a980620031b783390190565b5b80821115620005985760008160009055506001016200057e565b5090565b6000604051905090565b600080fd5b600080fd5b600080fd5b600080fd5b6000601f19601f8301169050919050565b7f4e487b7100000000000000000000000000000000000000000000000000000000600052604160045260246000fd5b6200060582620005ba565b810181811067ffffffffffffffff82111715620006275762000626620005cb565b5b80604052505050565b60006200063c6200059c565b90506200064a8282620005fa565b919050565b600067ffffffffffffffff8211156200066d576200066c620005cb565b5b6200067882620005ba565b9050602081019050919050565b60005b83811015620006a557808201518184015260208101905062000688565b83811115620006b5576000848401525b50505050565b6000620006d2620006cc846200064f565b62000630565b905082815260208101848484011115620006f157620006f0620005b5565b5b620006fe84828562000685565b509392505050565b600082601f8301126200071e576200071d620005b0565b5b815162000730848260208601620006bb565b91505092915050565b6000819050919050565b6200074e8162000739565b81146200075a57600080fd5b50565b6000815190506200076e8162000743565b92915050565b600060ff82169050919050565b6200078c8162000774565b81146200079857600080fd5b50565b600081519050620007ac8162000781565b92915050565b60008060008060808587031215620007cf57620007ce620005a6565b5b600085015167ffffffffffffffff811115620007f057620007ef620005ab565b5b620007fe8782880162000706565b945050602085015167ffffffffffffffff811115620008225762000821620005ab565b5b620008308782880162000706565b935050604062000843878288016200075d565b925050606062000856878288016200079b565b91505092959194509250565b7f4e487b7100000000000000000000000000000000000000000000000000000000600052601160045260246000fd5b60008160011c9050919050565b6000808291508390505b6001851115620008f057808604811115620008c857620008c762000862565b5b6001851615620008d85780820291505b8081029050620008e88562000891565b9450620008a8565b94509492505050565b6000826200090b5760019050620009de565b816200091b5760009050620009de565b81600181146200093457600281146200093f5762000975565b6001915050620009de565b60ff84111562000954576200095362000862565b5b8360020a9150848211156200096e576200096d62000862565b5b50620009de565b5060208310610133831016604e8410600b8410161715620009af5782820a905083811115620009a957620009a862000862565b5b620009de565b620009be84848460016200089e565b92509050818404811115620009d857620009d762000862565b5b81810290505b9392505050565b6000620009f28262000739565b9150620009ff8362000774565b925062000a2e7fffffffffffffffffffffffffffffffffffffffffffffffffffffffffffffffff8484620008f9565b905092915050565b600062000a438262000739565b915062000a508362000739565b9250817fffffffffffffffffffffffffffffffffffffffffffffffffffffffffffffffff048311821515161562000a8c5762000a8b62000862565b5b828202905092915050565b600073ffffffffffffffffffffffffffffffffffffffff82169050919050565b600062000ac48262000a97565b9050919050565b62000ad68162000ab7565b82525050565b62000ae78162000739565b82525050565b600060408201905062000b04600083018562000acb565b62000b13602083018462000adc565b9392505050565b600082825260208201905092915050565b7f45524332303a206d696e7420746f20746865207a65726f206164647265737300600082015250565b600062000b63601f8362000b1a565b915062000b708262000b2b565b602082019050919050565b6000602082019050818103600083015262000b968162000b54565b9050919050565b600062000baa8262000739565b915062000bb78362000739565b9250827fffffffffffffffffffffffffffffffffffffffffffffffffffffffffffffffff0382111562000bef5762000bee62000862565b5b828201905092915050565b600060208201905062000c11600083018462000adc565b92915050565b7f7573657220616c72656164792065786973740000000000000000000000000000600082015250565b600062000c4f60128362000b1a565b915062000c5c8262000c17565b602082019050919050565b6000602082019050818103600083015262000c828162000c40565b9050919050565b600062000c968262000739565b91507fffffffffffffffffffffffffffffffffffffffffffffffffffffffffffffffff820362000ccb5762000cca62000862565b5b600182019050919050565b7f4e487b7100000000000000000000000000000000000000000000000000000000600052602260045260246000fd5b6000600282049050600182168062000d1e57607f821691505b60208210810362000d345762000d3362000cd6565b5b50919050565b61246d8062000d4a6000396000f3fe6080604052600436106101185760003560e01c806370a08231116100a0578063a457c2d711610064578063a457c2d71461042b578063a9059cbb14610468578063add1603e146104a5578063d95402e7146104e2578063dd62ed3e1461050d5761011f565b806370a08231146103515780638ac8bbca1461038e578063948dec44146103b957806395d89b41146103e45780639a29e6aa1461040f5761011f565b806318160ddd116100e757806318160ddd1461024357806323b872dd1461026e578063313ce567146102ab57806339509351146102d65780635e5c06e2146103135761011f565b806306fdde0314610172578063095ea7b31461019d5780630ef67887146101da57806310a7fd7b146102055761011f565b3661011f57005b6000341115610170573073ffffffffffffffffffffffffffffffffffffffff166108fc349081150290604051600060405180830381858888f1935050505015801561016e573d6000803e3d6000fd5b505b005b34801561017e57600080fd5b5061018761054a565b604051610194919061181f565b60405180910390f35b3480156101a957600080fd5b506101c460048036038101906101bf91906118da565b6105dc565b6040516101d19190611935565b60405180910390f35b3480156101e657600080fd5b506101ef6105fa565b6040516101fc919061195f565b60405180910390f35b34801561021157600080fd5b5061022c6004803603810190610227919061197a565b610602565b60405161023a9291906119b6565b60405180910390f35b34801561024f57600080fd5b50610258610653565b604051610265919061195f565b60405180910390f35b34801561027a57600080fd5b50610295600480360381019061029091906119df565b61065d565b6040516102a29190611935565b60405180910390f35b3480156102b757600080fd5b506102c0610755565b6040516102cd9190611a4e565b60405180910390f35b3480156102e257600080fd5b506102fd60048036038101906102f891906118da565b61075e565b60405161030a9190611935565b60405180910390f35b34801561031f57600080fd5b5061033a60048036038101906103359190611a69565b61080a565b604051610348929190611a96565b60405180910390f35b34801561035d57600080fd5b5061037860048036038101906103739190611a69565b61083b565b604051610385919061195f565b60405180910390f35b34801561039a57600080fd5b506103a3610883565b6040516103b0919061195f565b60405180910390f35b3480156103c557600080fd5b506103ce610963565b6040516103db9190611935565b60405180910390f35b3480156103f057600080fd5b506103f9610b4b565b604051610406919061181f565b60405180910390f35b6104296004803603810190610424919061197a565b610bdd565b005b34801561043757600080fd5b50610452600480360381019061044d91906118da565b610e35565b60405161045f9190611935565b60405180910390f35b34801561047457600080fd5b5061048f600480360381019061048a91906118da565b610f20565b60405161049c9190611935565b60405180910390f35b3480156104b157600080fd5b506104cc60048036038101906104c7919061197a565b610f3e565b6040516104d99190611b1e565b60405180910390f35b3480156104ee57600080fd5b506104f7610f7d565b6040516105049190611935565b60405180910390f35b34801561051957600080fd5b50610534600480360381019061052f9190611b39565b6110f2565b604051610541919061195f565b60405180910390f35b60606003805461055990611ba8565b80601f016020809104026020016040519081016040528092919081815260200182805461058590611ba8565b80156105d25780601f106105a7576101008083540402835291602001916105d2565b820191906000526020600020905b8154815290600101906020018083116105b557829003601f168201915b5050505050905090565b60006105f06105e9611179565b8484611181565b6001905092915050565b600047905090565b600a6020528060005260406000206000915090508060000160009054906101000a900473ffffffffffffffffffffffffffffffffffffffff16908060000160149054906101000a900460ff16905082565b6000600254905090565b600061066a84848461134a565b6000600160008673ffffffffffffffffffffffffffffffffffffffff1673ffffffffffffffffffffffffffffffffffffffff16815260200190815260200160002060006106b5611179565b73ffffffffffffffffffffffffffffffffffffffff1673ffffffffffffffffffffffffffffffffffffffff16815260200190815260200160002054905082811015610735576040517f08c379a000000000000000000000000000000000000000000000000000000000815260040161072c90611c4b565b60405180910390fd5b61074985610741611179565b858403611181565b60019150509392505050565b60006012905090565b600061080061076b611179565b848460016000610779611179565b73ffffffffffffffffffffffffffffffffffffffff1673ffffffffffffffffffffffffffffffffffffffff16815260200190815260200160002060008873ffffffffffffffffffffffffffffffffffffffff1673ffffffffffffffffffffffffffffffffffffffff168152602001908152602001600020546107fb9190611c9a565b611181565b6001905092915050565b60096020528060005260406000206000915090508060000154908060010160009054906101000a900460ff16905082565b60008060008373ffffffffffffffffffffffffffffffffffffffff1673ffffffffffffffffffffffffffffffffffffffff168152602001908152602001600020549050919050565b600060011515600960003373ffffffffffffffffffffffffffffffffffffffff1673ffffffffffffffffffffffffffffffffffffffff16815260200190815260200160002060010160009054906101000a900460ff1615151461091b576040517f08c379a000000000000000000000000000000000000000000000000000000000815260040161091290611d3c565b60405180910390fd5b600960003373ffffffffffffffffffffffffffffffffffffffff1673ffffffffffffffffffffffffffffffffffffffff16815260200190815260200160002060000154905090565b6000801515600960003373ffffffffffffffffffffffffffffffffffffffff1673ffffffffffffffffffffffffffffffffffffffff16815260200190815260200160002060010160009054906101000a900460ff161515146109fa576040517f08c379a00000000000000000000000000000000000000000000000000000000081526004016109f190611da8565b60405180910390fd5b60405180604001604052803373ffffffffffffffffffffffffffffffffffffffff16815260200160011515815250600a6000600654815260200190815260200160002060008201518160000160006101000a81548173ffffffffffffffffffffffffffffffffffffffff021916908373ffffffffffffffffffffffffffffffffffffffff16021790555060208201518160000160146101000a81548160ff02191690831515021790555090505060405180604001604052806000815260200160011515815250600960003373ffffffffffffffffffffffffffffffffffffffff1673ffffffffffffffffffffffffffffffffffffffff1681526020019081526020016000206000820151816000015560208201518160010160006101000a81548160ff02191690831515021790555090505060066000815480929190610b3f90611dc8565b91905055506001905090565b606060048054610b5a90611ba8565b80601f0160208091040260200160405190810160405280929190818152602001828054610b8690611ba8565b8015610bd35780601f10610ba857610100808354040283529160200191610bd3565b820191906000526020600020905b815481529060010190602001808311610bb657829003601f168201915b5050505050905090565b33604051602001610bee9190611e58565b60405160208183030381529060405280519060200120600b600081548110610c1957610c18611e73565b5b9060005260206000200160009054906101000a900473ffffffffffffffffffffffffffffffffffffffff16604051602001610c549190611ecb565b6040516020818303038152906040528051906020012014610caa576040517f08c379a0000000000000000000000000000000000000000000000000000000008152600401610ca190611f58565b60405180910390fd5b6000349050600080808284610cbf9190611f78565b90505b60065460085411610df457610cd9600854866115c9565b60086000829550839190505550508183610cf39190611c9a565b92506007548111610db557600b600081548110610d1357610d12611e73565b5b9060005260206000200160009054906101000a900473ffffffffffffffffffffffffffffffffffffffff1673ffffffffffffffffffffffffffffffffffffffff166382add361826040518263ffffffff1660e01b815260040160206040518083038185885af1158015610d8a573d6000803e3d6000fd5b50505050506040513d601f19601f82011682018060405250810190610daf9190611fd8565b50610df4565b60065460085411610dce57600854600881905550610dd7565b60006008819055505b60086000815480929190610dea90611dc8565b9190505550610cc2565b7f8ab34dbde874de5ddabad5029cf0abbef03843eb2d9509a6ae6697f77dc5a948426001604051610e26929190611a96565b60405180910390a15050505050565b60008060016000610e44611179565b73ffffffffffffffffffffffffffffffffffffffff1673ffffffffffffffffffffffffffffffffffffffff16815260200190815260200160002060008573ffffffffffffffffffffffffffffffffffffffff1673ffffffffffffffffffffffffffffffffffffffff16815260200190815260200160002054905082811015610f01576040517f08c379a0000000000000000000000000000000000000000000000000000000008152600401610ef890612077565b60405180910390fd5b610f15610f0c611179565b85858403611181565b600191505092915050565b6000610f34610f2d611179565b848461134a565b6001905092915050565b600b8181548110610f4e57600080fd5b906000526020600020016000915054906101000a900473ffffffffffffffffffffffffffffffffffffffff1681565b60008033905060011515600960008373ffffffffffffffffffffffffffffffffffffffff1673ffffffffffffffffffffffffffffffffffffffff16815260200190815260200160002060010160009054906101000a900460ff16151514611019576040517f08c379a0000000000000000000000000000000000000000000000000000000008152600401611010906120e3565b60405180910390fd5b8073ffffffffffffffffffffffffffffffffffffffff166108fc600960003373ffffffffffffffffffffffffffffffffffffffff1673ffffffffffffffffffffffffffffffffffffffff168152602001908152602001600020600001549081150290604051600060405180830381858888f193505050501580156110a1573d6000803e3d6000fd5b506000600960003373ffffffffffffffffffffffffffffffffffffffff1673ffffffffffffffffffffffffffffffffffffffff16815260200190815260200160002060000181905550600191505090565b6000600160008473ffffffffffffffffffffffffffffffffffffffff1673ffffffffffffffffffffffffffffffffffffffff16815260200190815260200160002060008373ffffffffffffffffffffffffffffffffffffffff1673ffffffffffffffffffffffffffffffffffffffff16815260200190815260200160002054905092915050565b600033905090565b600073ffffffffffffffffffffffffffffffffffffffff168373ffffffffffffffffffffffffffffffffffffffff16036111f0576040517f08c379a00000000000000000000000000000000000000000000000000000000081526004016111e790612175565b60405180910390fd5b600073ffffffffffffffffffffffffffffffffffffffff168273ffffffffffffffffffffffffffffffffffffffff160361125f576040517f08c379a000000000000000000000000000000000000000000000000000000000815260040161125690612207565b60405180910390fd5b80600160008573ffffffffffffffffffffffffffffffffffffffff1673ffffffffffffffffffffffffffffffffffffffff16815260200190815260200160002060008473ffffffffffffffffffffffffffffffffffffffff1673ffffffffffffffffffffffffffffffffffffffff168152602001908152602001600020819055508173ffffffffffffffffffffffffffffffffffffffff168373ffffffffffffffffffffffffffffffffffffffff167f8c5be1e5ebec7d5bd14f71427d1e84f3dd0314c0f7b2291e5b200ac8c7c3b9258360405161133d919061195f565b60405180910390a3505050565b600073ffffffffffffffffffffffffffffffffffffffff168373ffffffffffffffffffffffffffffffffffffffff16036113b9576040517f08c379a00000000000000000000000000000000000000000000000000000000081526004016113b090612299565b60405180910390fd5b600073ffffffffffffffffffffffffffffffffffffffff168273ffffffffffffffffffffffffffffffffffffffff1603611428576040517f08c379a000000000000000000000000000000000000000000000000000000000815260040161141f9061232b565b60405180910390fd5b61143383838361177c565b60008060008573ffffffffffffffffffffffffffffffffffffffff1673ffffffffffffffffffffffffffffffffffffffff168152602001908152602001600020549050818110156114b9576040517f08c379a00000000000000000000000000000000000000000000000000000000081526004016114b0906123bd565b60405180910390fd5b8181036000808673ffffffffffffffffffffffffffffffffffffffff1673ffffffffffffffffffffffffffffffffffffffff16815260200190815260200160002081905550816000808573ffffffffffffffffffffffffffffffffffffffff1673ffffffffffffffffffffffffffffffffffffffff168152602001908152602001600020600082825461154c9190611c9a565b925050819055508273ffffffffffffffffffffffffffffffffffffffff168473ffffffffffffffffffffffffffffffffffffffff167fddf252ad1be2c89b69c2b068fc378daa952ba7f163c4a11628f55a4df523b3ef846040516115b0919061195f565b60405180910390a36115c3848484611781565b50505050565b6000806000600a6000600654815260200190815260200160002060000160009054906101000a900473ffffffffffffffffffffffffffffffffffffffff16905060011515600a600087815260200190815260200160002060000160149054906101000a900460ff16151514801561168257506000600960008373ffffffffffffffffffffffffffffffffffffffff1673ffffffffffffffffffffffffffffffffffffffff16815260200190815260200160002060000154115b1561172c57836116c9600a6000600654815260200190815260200160002060000160009054906101000a900473ffffffffffffffffffffffffffffffffffffffff1661083b565b6116d391906123dd565b600960008373ffffffffffffffffffffffffffffffffffffffff1673ffffffffffffffffffffffffffffffffffffffff16815260200190815260200160002060000160008282546117249190611c9a565b925050819055505b84600960008373ffffffffffffffffffffffffffffffffffffffff1673ffffffffffffffffffffffffffffffffffffffff1681526020019081526020016000206000015492509250509250929050565b505050565b505050565b600081519050919050565b600082825260208201905092915050565b60005b838110156117c05780820151818401526020810190506117a5565b838111156117cf576000848401525b50505050565b6000601f19601f8301169050919050565b60006117f182611786565b6117fb8185611791565b935061180b8185602086016117a2565b611814816117d5565b840191505092915050565b6000602082019050818103600083015261183981846117e6565b905092915050565b600080fd5b600073ffffffffffffffffffffffffffffffffffffffff82169050919050565b600061187182611846565b9050919050565b61188181611866565b811461188c57600080fd5b50565b60008135905061189e81611878565b92915050565b6000819050919050565b6118b7816118a4565b81146118c257600080fd5b50565b6000813590506118d4816118ae565b92915050565b600080604083850312156118f1576118f0611841565b5b60006118ff8582860161188f565b9250506020611910858286016118c5565b9150509250929050565b60008115159050919050565b61192f8161191a565b82525050565b600060208201905061194a6000830184611926565b92915050565b611959816118a4565b82525050565b60006020820190506119746000830184611950565b92915050565b6000602082840312156119905761198f611841565b5b600061199e848285016118c5565b91505092915050565b6119b081611866565b82525050565b60006040820190506119cb60008301856119a7565b6119d86020830184611926565b9392505050565b6000806000606084860312156119f8576119f7611841565b5b6000611a068682870161188f565b9350506020611a178682870161188f565b9250506040611a28868287016118c5565b9150509250925092565b600060ff82169050919050565b611a4881611a32565b82525050565b6000602082019050611a636000830184611a3f565b92915050565b600060208284031215611a7f57611a7e611841565b5b6000611a8d8482850161188f565b91505092915050565b6000604082019050611aab6000830185611950565b611ab86020830184611926565b9392505050565b6000819050919050565b6000611ae4611adf611ada84611846565b611abf565b611846565b9050919050565b6000611af682611ac9565b9050919050565b6000611b0882611aeb565b9050919050565b611b1881611afd565b82525050565b6000602082019050611b336000830184611b0f565b92915050565b60008060408385031215611b5057611b4f611841565b5b6000611b5e8582860161188f565b9250506020611b6f8582860161188f565b9150509250929050565b7f4e487b7100000000000000000000000000000000000000000000000000000000600052602260045260246000fd5b60006002820490506001821680611bc057607f821691505b602082108103611bd357611bd2611b79565b5b50919050565b7f45524332303a207472616e7366657220616d6f756e742065786365656473206160008201527f6c6c6f77616e6365000000000000000000000000000000000000000000000000602082015250565b6000611c35602883611791565b9150611c4082611bd9565b604082019050919050565b60006020820190508181036000830152611c6481611c28565b9050919050565b7f4e487b7100000000000000000000000000000000000000000000000000000000600052601160045260246000fd5b6000611ca5826118a4565b9150611cb0836118a4565b9250827fffffffffffffffffffffffffffffffffffffffffffffffffffffffffffffffff03821115611ce557611ce4611c6b565b5b828201905092915050565b7f75736572206e6f74207265676973746572640000000000000000000000000000600082015250565b6000611d26601283611791565b9150611d3182611cf0565b602082019050919050565b60006020820190508181036000830152611d5581611d19565b9050919050565b7f7573657220616c72656164792065786973740000000000000000000000000000600082015250565b6000611d92601283611791565b9150611d9d82611d5c565b602082019050919050565b60006020820190508181036000830152611dc181611d85565b9050919050565b6000611dd3826118a4565b91507fffffffffffffffffffffffffffffffffffffffffffffffffffffffffffffffff8203611e0557611e04611c6b565b5b600182019050919050565b60008160601b9050919050565b6000611e2882611e10565b9050919050565b6000611e3a82611e1d565b9050919050565b611e52611e4d82611866565b611e2f565b82525050565b6000611e648284611e41565b60148201915081905092915050565b7f4e487b7100000000000000000000000000000000000000000000000000000000600052603260045260246000fd5b6000611ead82611e1d565b9050919050565b611ec5611ec082611afd565b611ea2565b82525050565b6000611ed78284611eb4565b60148201915081905092915050565b7f4f6e6c7920436f6e747261637420636f696e62616e6b2063616e20657865637560008201527f746520746869732066756e6374696f6e00000000000000000000000000000000602082015250565b6000611f42603083611791565b9150611f4d82611ee6565b604082019050919050565b60006020820190508181036000830152611f7181611f35565b9050919050565b6000611f83826118a4565b9150611f8e836118a4565b925082821015611fa157611fa0611c6b565b5b828203905092915050565b611fb58161191a565b8114611fc057600080fd5b50565b600081519050611fd281611fac565b92915050565b600060208284031215611fee57611fed611841565b5b6000611ffc84828501611fc3565b91505092915050565b7f45524332303a2064656372656173656420616c6c6f77616e63652062656c6f7760008201527f207a65726f000000000000000000000000000000000000000000000000000000602082015250565b6000612061602583611791565b915061206c82612005565b604082019050919050565b6000602082019050818103600083015261209081612054565b9050919050565b7f5573657220646f6573206e6f7420657869737400000000000000000000000000600082015250565b60006120cd601383611791565b91506120d882612097565b602082019050919050565b600060208201905081810360008301526120fc816120c0565b9050919050565b7f45524332303a20617070726f76652066726f6d20746865207a65726f2061646460008201527f7265737300000000000000000000000000000000000000000000000000000000602082015250565b600061215f602483611791565b915061216a82612103565b604082019050919050565b6000602082019050818103600083015261218e81612152565b9050919050565b7f45524332303a20617070726f766520746f20746865207a65726f20616464726560008201527f7373000000000000000000000000000000000000000000000000000000000000602082015250565b60006121f1602283611791565b91506121fc82612195565b604082019050919050565b60006020820190508181036000830152612220816121e4565b9050919050565b7f45524332303a207472616e736665722066726f6d20746865207a65726f20616460008201527f6472657373000000000000000000000000000000000000000000000000000000602082015250565b6000612283602583611791565b915061228e82612227565b604082019050919050565b600060208201905081810360008301526122b281612276565b9050919050565b7f45524332303a207472616e7366657220746f20746865207a65726f206164647260008201527f6573730000000000000000000000000000000000000000000000000000000000602082015250565b6000612315602383611791565b9150612320826122b9565b604082019050919050565b6000602082019050818103600083015261234481612308565b9050919050565b7f45524332303a207472616e7366657220616d6f756e742065786365656473206260008201527f616c616e63650000000000000000000000000000000000000000000000000000602082015250565b60006123a7602683611791565b91506123b28261234b565b604082019050919050565b600060208201905081810360008301526123d68161239a565b9050919050565b60006123e8826118a4565b91506123f3836118a4565b9250817fffffffffffffffffffffffffffffffffffffffffffffffffffffffffffffffff048311821515161561242c5761242b611c6b565b5b82820290509291505056fea2646970667358221220e1beae79bf61cbc771e9be9e2e5641d3fedd60feecf3afff84690fc28e9b0e6b64736f6c634300080d0033608060405234801561001057600080fd5b506040516107a93803806107a983398181016040528101906100329190610175565b604051806020016040528042815250600460008473ffffffffffffffffffffffffffffffffffffffff1673ffffffffffffffffffffffffffffffffffffffff1681526020019081526020016000206000820151816000015590505081600360006101000a81548173ffffffffffffffffffffffffffffffffffffffff021916908373ffffffffffffffffffffffffffffffffffffffff1602179055508060018190555050506101b5565b600080fd5b600073ffffffffffffffffffffffffffffffffffffffff82169050919050565b600061010c826100e1565b9050919050565b61011c81610101565b811461012757600080fd5b50565b60008151905061013981610113565b92915050565b6000819050919050565b6101528161013f565b811461015d57600080fd5b50565b60008151905061016f81610149565b92915050565b6000806040838503121561018c5761018b6100dc565b5b600061019a8582860161012a565b92505060206101ab85828601610160565b9150509250929050565b6105e5806101c46000396000f3fe6080604052600436106100435760003560e01c8063563df32f1461009d57806382add361146100c857806391d1a764146100e6578063ee07bf22146101235761009b565b3661009b576000341115610099573073ffffffffffffffffffffffffffffffffffffffff166108fc349081150290604051600060405180830381858888f19350505050158015610097573d6000803e3d6000fd5b505b005b005b3480156100a957600080fd5b506100b261014e565b6040516100bf91906103be565b60405180910390f35b6100d0610174565b6040516100dd91906103f4565b60405180910390f35b3480156100f257600080fd5b5061010d60048036038101906101089190610440565b610289565b60405161011a9190610486565b60405180910390f35b34801561012f57600080fd5b506101386102a7565b6040516101459190610486565b60405180910390f35b600360009054906101000a900473ffffffffffffffffffffffffffffffffffffffff1681565b6000806000905060046000600360009054906101000a900473ffffffffffffffffffffffffffffffffffffffff1673ffffffffffffffffffffffffffffffffffffffff1673ffffffffffffffffffffffffffffffffffffffff16815260200190815260200160002060000154816101eb91906104d0565b4210610280576000600154476102019190610555565b905061020c816102ad565b4260046000600360009054906101000a900473ffffffffffffffffffffffffffffffffffffffff1673ffffffffffffffffffffffffffffffffffffffff1673ffffffffffffffffffffffffffffffffffffffff16815260200190815260200160002060000181905550600192505050610286565b60009150505b90565b60046020528060005260406000206000915090508060000154905081565b60015481565b6000600360009054906101000a900473ffffffffffffffffffffffffffffffffffffffff1690508073ffffffffffffffffffffffffffffffffffffffff16639a29e6aa836040518263ffffffff1660e01b815260040161030d9190610486565b600060405180830381600087803b15801561032757600080fd5b505af115801561033b573d6000803e3d6000fd5b505050507fa45dac62289018e90b3dc24632d939c6f3545fbc1c00325ee50858f926afc630426001604051610371929190610586565b60405180910390a15050565b600073ffffffffffffffffffffffffffffffffffffffff82169050919050565b60006103a88261037d565b9050919050565b6103b88161039d565b82525050565b60006020820190506103d360008301846103af565b92915050565b60008115159050919050565b6103ee816103d9565b82525050565b600060208201905061040960008301846103e5565b92915050565b600080fd5b61041d8161039d565b811461042857600080fd5b50565b60008135905061043a81610414565b92915050565b6000602082840312156104565761045561040f565b5b60006104648482850161042b565b91505092915050565b6000819050919050565b6104808161046d565b82525050565b600060208201905061049b6000830184610477565b92915050565b7f4e487b7100000000000000000000000000000000000000000000000000000000600052601160045260246000fd5b60006104db8261046d565b91506104e68361046d565b9250827fffffffffffffffffffffffffffffffffffffffffffffffffffffffffffffffff0382111561051b5761051a6104a1565b5b828201905092915050565b7f4e487b7100000000000000000000000000000000000000000000000000000000600052601260045260246000fd5b60006105608261046d565b915061056b8361046d565b92508261057b5761057a610526565b5b828204905092915050565b600060408201905061059b6000830185610477565b6105a860208301846103e5565b939250505056fea26469706673582212206d7da3af6b6eb98f277cefc5b009d58c19412df221f5516c33b24b5c6aea469264736f6c634300080d0033",
					"opcodes": "PUSH1 0x80 PUSH1 0x40 MSTORE PUSH1 0x0 PUSH1 0x5 SSTORE PUSH1 0x0 PUSH1 0x6 SSTORE PUSH1 0x64 PUSH1 0x7 SSTORE PUSH1 0x0 PUSH1 0x8 SSTORE CALLVALUE DUP1 ISZERO PUSH3 0x25 JUMPI PUSH1 0x0 DUP1 REVERT JUMPDEST POP PUSH1 0x40 MLOAD PUSH3 0x3960 CODESIZE SUB DUP1 PUSH3 0x3960 DUP4 CODECOPY DUP2 DUP2 ADD PUSH1 0x40 MSTORE DUP2 ADD SWAP1 PUSH3 0x4B SWAP2 SWAP1 PUSH3 0x7B2 JUMP JUMPDEST DUP4 DUP4 DUP2 PUSH1 0x3 SWAP1 DUP1 MLOAD SWAP1 PUSH1 0x20 ADD SWAP1 PUSH3 0x65 SWAP3 SWAP2 SWAP1 PUSH3 0x4DE JUMP JUMPDEST POP DUP1 PUSH1 0x4 SWAP1 DUP1 MLOAD SWAP1 PUSH1 0x20 ADD SWAP1 PUSH3 0x7E SWAP3 SWAP2 SWAP1 PUSH3 0x4DE JUMP JUMPDEST POP POP POP DUP1 PUSH1 0xA PUSH3 0x90 SWAP2 SWAP1 PUSH3 0x9E5 JUMP JUMPDEST DUP3 PUSH3 0x9D SWAP2 SWAP1 PUSH3 0xA36 JUMP JUMPDEST SWAP2 POP PUSH3 0xB1 CALLER DUP4 PUSH3 0x16F PUSH1 0x20 SHL PUSH1 0x20 SHR JUMP JUMPDEST PUSH3 0xC1 PUSH3 0x2E7 PUSH1 0x20 SHL PUSH1 0x20 SHR JUMP JUMPDEST POP PUSH1 0x0 ADDRESS DUP4 PUSH1 0x40 MLOAD PUSH3 0xD4 SWAP1 PUSH3 0x56F JUMP JUMPDEST PUSH3 0xE1 SWAP3 SWAP2 SWAP1 PUSH3 0xAED JUMP JUMPDEST PUSH1 0x40 MLOAD DUP1 SWAP2 SUB SWAP1 PUSH1 0x0 CREATE DUP1 ISZERO DUP1 ISZERO PUSH3 0xFE JUMPI RETURNDATASIZE PUSH1 0x0 DUP1 RETURNDATACOPY RETURNDATASIZE PUSH1 0x0 REVERT JUMPDEST POP SWAP1 POP PUSH1 0xB DUP2 SWAP1 DUP1 PUSH1 0x1 DUP2 SLOAD ADD DUP1 DUP3 SSTORE DUP1 SWAP2 POP POP PUSH1 0x1 SWAP1 SUB SWAP1 PUSH1 0x0 MSTORE PUSH1 0x20 PUSH1 0x0 KECCAK256 ADD PUSH1 0x0 SWAP1 SWAP2 SWAP1 SWAP2 SWAP1 SWAP2 PUSH2 0x100 EXP DUP2 SLOAD DUP2 PUSH20 0xFFFFFFFFFFFFFFFFFFFFFFFFFFFFFFFFFFFFFFFF MUL NOT AND SWAP1 DUP4 PUSH20 0xFFFFFFFFFFFFFFFFFFFFFFFFFFFFFFFFFFFFFFFF AND MUL OR SWAP1 SSTORE POP POP POP POP POP POP PUSH3 0xD3A JUMP JUMPDEST PUSH1 0x0 PUSH20 0xFFFFFFFFFFFFFFFFFFFFFFFFFFFFFFFFFFFFFFFF AND DUP3 PUSH20 0xFFFFFFFFFFFFFFFFFFFFFFFFFFFFFFFFFFFFFFFF AND SUB PUSH3 0x1E1 JUMPI PUSH1 0x40 MLOAD PUSH32 0x8C379A000000000000000000000000000000000000000000000000000000000 DUP2 MSTORE PUSH1 0x4 ADD PUSH3 0x1D8 SWAP1 PUSH3 0xB7B JUMP JUMPDEST PUSH1 0x40 MLOAD DUP1 SWAP2 SUB SWAP1 REVERT JUMPDEST PUSH3 0x1F5 PUSH1 0x0 DUP4 DUP4 PUSH3 0x4D4 PUSH1 0x20 SHL PUSH1 0x20 SHR JUMP JUMPDEST DUP1 PUSH1 0x2 PUSH1 0x0 DUP3 DUP3 SLOAD PUSH3 0x209 SWAP2 SWAP1 PUSH3 0xB9D JUMP JUMPDEST SWAP3 POP POP DUP2 SWAP1 SSTORE POP DUP1 PUSH1 0x0 DUP1 DUP5 PUSH20 0xFFFFFFFFFFFFFFFFFFFFFFFFFFFFFFFFFFFFFFFF AND PUSH20 0xFFFFFFFFFFFFFFFFFFFFFFFFFFFFFFFFFFFFFFFF AND DUP2 MSTORE PUSH1 0x20 ADD SWAP1 DUP2 MSTORE PUSH1 0x20 ADD PUSH1 0x0 KECCAK256 PUSH1 0x0 DUP3 DUP3 SLOAD PUSH3 0x260 SWAP2 SWAP1 PUSH3 0xB9D JUMP JUMPDEST SWAP3 POP POP DUP2 SWAP1 SSTORE POP DUP2 PUSH20 0xFFFFFFFFFFFFFFFFFFFFFFFFFFFFFFFFFFFFFFFF AND PUSH1 0x0 PUSH20 0xFFFFFFFFFFFFFFFFFFFFFFFFFFFFFFFFFFFFFFFF AND PUSH32 0xDDF252AD1BE2C89B69C2B068FC378DAA952BA7F163C4A11628F55A4DF523B3EF DUP4 PUSH1 0x40 MLOAD PUSH3 0x2C7 SWAP2 SWAP1 PUSH3 0xBFA JUMP JUMPDEST PUSH1 0x40 MLOAD DUP1 SWAP2 SUB SWAP1 LOG3 PUSH3 0x2E3 PUSH1 0x0 DUP4 DUP4 PUSH3 0x4D9 PUSH1 0x20 SHL PUSH1 0x20 SHR JUMP JUMPDEST POP POP JUMP JUMPDEST PUSH1 0x0 DUP1 ISZERO ISZERO PUSH1 0x9 PUSH1 0x0 CALLER PUSH20 0xFFFFFFFFFFFFFFFFFFFFFFFFFFFFFFFFFFFFFFFF AND PUSH20 0xFFFFFFFFFFFFFFFFFFFFFFFFFFFFFFFFFFFFFFFF AND DUP2 MSTORE PUSH1 0x20 ADD SWAP1 DUP2 MSTORE PUSH1 0x20 ADD PUSH1 0x0 KECCAK256 PUSH1 0x1 ADD PUSH1 0x0 SWAP1 SLOAD SWAP1 PUSH2 0x100 EXP SWAP1 DIV PUSH1 0xFF AND ISZERO ISZERO EQ PUSH3 0x381 JUMPI PUSH1 0x40 MLOAD PUSH32 0x8C379A000000000000000000000000000000000000000000000000000000000 DUP2 MSTORE PUSH1 0x4 ADD PUSH3 0x378 SWAP1 PUSH3 0xC67 JUMP JUMPDEST PUSH1 0x40 MLOAD DUP1 SWAP2 SUB SWAP1 REVERT JUMPDEST PUSH1 0x40 MLOAD DUP1 PUSH1 0x40 ADD PUSH1 0x40 MSTORE DUP1 CALLER PUSH20 0xFFFFFFFFFFFFFFFFFFFFFFFFFFFFFFFFFFFFFFFF AND DUP2 MSTORE PUSH1 0x20 ADD PUSH1 0x1 ISZERO ISZERO DUP2 MSTORE POP PUSH1 0xA PUSH1 0x0 PUSH1 0x6 SLOAD DUP2 MSTORE PUSH1 0x20 ADD SWAP1 DUP2 MSTORE PUSH1 0x20 ADD PUSH1 0x0 KECCAK256 PUSH1 0x0 DUP3 ADD MLOAD DUP2 PUSH1 0x0 ADD PUSH1 0x0 PUSH2 0x100 EXP DUP2 SLOAD DUP2 PUSH20 0xFFFFFFFFFFFFFFFFFFFFFFFFFFFFFFFFFFFFFFFF MUL NOT AND SWAP1 DUP4 PUSH20 0xFFFFFFFFFFFFFFFFFFFFFFFFFFFFFFFFFFFFFFFF AND MUL OR SWAP1 SSTORE POP PUSH1 0x20 DUP3 ADD MLOAD DUP2 PUSH1 0x0 ADD PUSH1 0x14 PUSH2 0x100 EXP DUP2 SLOAD DUP2 PUSH1 0xFF MUL NOT AND SWAP1 DUP4 ISZERO ISZERO MUL OR SWAP1 SSTORE POP SWAP1 POP POP PUSH1 0x40 MLOAD DUP1 PUSH1 0x40 ADD PUSH1 0x40 MSTORE DUP1 PUSH1 0x0 DUP2 MSTORE PUSH1 0x20 ADD PUSH1 0x1 ISZERO ISZERO DUP2 MSTORE POP PUSH1 0x9 PUSH1 0x0 CALLER PUSH20 0xFFFFFFFFFFFFFFFFFFFFFFFFFFFFFFFFFFFFFFFF AND PUSH20 0xFFFFFFFFFFFFFFFFFFFFFFFFFFFFFFFFFFFFFFFF AND DUP2 MSTORE PUSH1 0x20 ADD SWAP1 DUP2 MSTORE PUSH1 0x20 ADD PUSH1 0x0 KECCAK256 PUSH1 0x0 DUP3 ADD MLOAD DUP2 PUSH1 0x0 ADD SSTORE PUSH1 0x20 DUP3 ADD MLOAD DUP2 PUSH1 0x1 ADD PUSH1 0x0 PUSH2 0x100 EXP DUP2 SLOAD DUP2 PUSH1 0xFF MUL NOT AND SWAP1 DUP4 ISZERO ISZERO MUL OR SWAP1 SSTORE POP SWAP1 POP POP PUSH1 0x6 PUSH1 0x0 DUP2 SLOAD DUP1 SWAP3 SWAP2 SWAP1 PUSH3 0x4C8 SWAP1 PUSH3 0xC89 JUMP JUMPDEST SWAP2 SWAP1 POP SSTORE POP PUSH1 0x1 SWAP1 POP SWAP1 JUMP JUMPDEST POP POP POP JUMP JUMPDEST POP POP POP JUMP JUMPDEST DUP3 DUP1 SLOAD PUSH3 0x4EC SWAP1 PUSH3 0xD05 JUMP JUMPDEST SWAP1 PUSH1 0x0 MSTORE PUSH1 0x20 PUSH1 0x0 KECCAK256 SWAP1 PUSH1 0x1F ADD PUSH1 0x20 SWAP1 DIV DUP2 ADD SWAP3 DUP3 PUSH3 0x510 JUMPI PUSH1 0x0 DUP6 SSTORE PUSH3 0x55C JUMP JUMPDEST DUP3 PUSH1 0x1F LT PUSH3 0x52B JUMPI DUP1 MLOAD PUSH1 0xFF NOT AND DUP4 DUP1 ADD OR DUP6 SSTORE PUSH3 0x55C JUMP JUMPDEST DUP3 DUP1 ADD PUSH1 0x1 ADD DUP6 SSTORE DUP3 ISZERO PUSH3 0x55C JUMPI SWAP2 DUP3 ADD JUMPDEST DUP3 DUP2 GT ISZERO PUSH3 0x55B JUMPI DUP3 MLOAD DUP3 SSTORE SWAP2 PUSH1 0x20 ADD SWAP2 SWAP1 PUSH1 0x1 ADD SWAP1 PUSH3 0x53E JUMP JUMPDEST JUMPDEST POP SWAP1 POP PUSH3 0x56B SWAP2 SWAP1 PUSH3 0x57D JUMP JUMPDEST POP SWAP1 JUMP JUMPDEST PUSH2 0x7A9 DUP1 PUSH3 0x31B7 DUP4 CODECOPY ADD SWAP1 JUMP JUMPDEST JUMPDEST DUP1 DUP3 GT ISZERO PUSH3 0x598 JUMPI PUSH1 0x0 DUP2 PUSH1 0x0 SWAP1 SSTORE POP PUSH1 0x1 ADD PUSH3 0x57E JUMP JUMPDEST POP SWAP1 JUMP JUMPDEST PUSH1 0x0 PUSH1 0x40 MLOAD SWAP1 POP SWAP1 JUMP JUMPDEST PUSH1 0x0 DUP1 REVERT JUMPDEST PUSH1 0x0 DUP1 REVERT JUMPDEST PUSH1 0x0 DUP1 REVERT JUMPDEST PUSH1 0x0 DUP1 REVERT JUMPDEST PUSH1 0x0 PUSH1 0x1F NOT PUSH1 0x1F DUP4 ADD AND SWAP1 POP SWAP2 SWAP1 POP JUMP JUMPDEST PUSH32 0x4E487B7100000000000000000000000000000000000000000000000000000000 PUSH1 0x0 MSTORE PUSH1 0x41 PUSH1 0x4 MSTORE PUSH1 0x24 PUSH1 0x0 REVERT JUMPDEST PUSH3 0x605 DUP3 PUSH3 0x5BA JUMP JUMPDEST DUP2 ADD DUP2 DUP2 LT PUSH8 0xFFFFFFFFFFFFFFFF DUP3 GT OR ISZERO PUSH3 0x627 JUMPI PUSH3 0x626 PUSH3 0x5CB JUMP JUMPDEST JUMPDEST DUP1 PUSH1 0x40 MSTORE POP POP POP JUMP JUMPDEST PUSH1 0x0 PUSH3 0x63C PUSH3 0x59C JUMP JUMPDEST SWAP1 POP PUSH3 0x64A DUP3 DUP3 PUSH3 0x5FA JUMP JUMPDEST SWAP2 SWAP1 POP JUMP JUMPDEST PUSH1 0x0 PUSH8 0xFFFFFFFFFFFFFFFF DUP3 GT ISZERO PUSH3 0x66D JUMPI PUSH3 0x66C PUSH3 0x5CB JUMP JUMPDEST JUMPDEST PUSH3 0x678 DUP3 PUSH3 0x5BA JUMP JUMPDEST SWAP1 POP PUSH1 0x20 DUP2 ADD SWAP1 POP SWAP2 SWAP1 POP JUMP JUMPDEST PUSH1 0x0 JUMPDEST DUP4 DUP2 LT ISZERO PUSH3 0x6A5 JUMPI DUP1 DUP3 ADD MLOAD DUP2 DUP5 ADD MSTORE PUSH1 0x20 DUP2 ADD SWAP1 POP PUSH3 0x688 JUMP JUMPDEST DUP4 DUP2 GT ISZERO PUSH3 0x6B5 JUMPI PUSH1 0x0 DUP5 DUP5 ADD MSTORE JUMPDEST POP POP POP POP JUMP JUMPDEST PUSH1 0x0 PUSH3 0x6D2 PUSH3 0x6CC DUP5 PUSH3 0x64F JUMP JUMPDEST PUSH3 0x630 JUMP JUMPDEST SWAP1 POP DUP3 DUP2 MSTORE PUSH1 0x20 DUP2 ADD DUP5 DUP5 DUP5 ADD GT ISZERO PUSH3 0x6F1 JUMPI PUSH3 0x6F0 PUSH3 0x5B5 JUMP JUMPDEST JUMPDEST PUSH3 0x6FE DUP5 DUP3 DUP6 PUSH3 0x685 JUMP JUMPDEST POP SWAP4 SWAP3 POP POP POP JUMP JUMPDEST PUSH1 0x0 DUP3 PUSH1 0x1F DUP4 ADD SLT PUSH3 0x71E JUMPI PUSH3 0x71D PUSH3 0x5B0 JUMP JUMPDEST JUMPDEST DUP2 MLOAD PUSH3 0x730 DUP5 DUP3 PUSH1 0x20 DUP7 ADD PUSH3 0x6BB JUMP JUMPDEST SWAP2 POP POP SWAP3 SWAP2 POP POP JUMP JUMPDEST PUSH1 0x0 DUP2 SWAP1 POP SWAP2 SWAP1 POP JUMP JUMPDEST PUSH3 0x74E DUP2 PUSH3 0x739 JUMP JUMPDEST DUP2 EQ PUSH3 0x75A JUMPI PUSH1 0x0 DUP1 REVERT JUMPDEST POP JUMP JUMPDEST PUSH1 0x0 DUP2 MLOAD SWAP1 POP PUSH3 0x76E DUP2 PUSH3 0x743 JUMP JUMPDEST SWAP3 SWAP2 POP POP JUMP JUMPDEST PUSH1 0x0 PUSH1 0xFF DUP3 AND SWAP1 POP SWAP2 SWAP1 POP JUMP JUMPDEST PUSH3 0x78C DUP2 PUSH3 0x774 JUMP JUMPDEST DUP2 EQ PUSH3 0x798 JUMPI PUSH1 0x0 DUP1 REVERT JUMPDEST POP JUMP JUMPDEST PUSH1 0x0 DUP2 MLOAD SWAP1 POP PUSH3 0x7AC DUP2 PUSH3 0x781 JUMP JUMPDEST SWAP3 SWAP2 POP POP JUMP JUMPDEST PUSH1 0x0 DUP1 PUSH1 0x0 DUP1 PUSH1 0x80 DUP6 DUP8 SUB SLT ISZERO PUSH3 0x7CF JUMPI PUSH3 0x7CE PUSH3 0x5A6 JUMP JUMPDEST JUMPDEST PUSH1 0x0 DUP6 ADD MLOAD PUSH8 0xFFFFFFFFFFFFFFFF DUP2 GT ISZERO PUSH3 0x7F0 JUMPI PUSH3 0x7EF PUSH3 0x5AB JUMP JUMPDEST JUMPDEST PUSH3 0x7FE DUP8 DUP3 DUP9 ADD PUSH3 0x706 JUMP JUMPDEST SWAP5 POP POP PUSH1 0x20 DUP6 ADD MLOAD PUSH8 0xFFFFFFFFFFFFFFFF DUP2 GT ISZERO PUSH3 0x822 JUMPI PUSH3 0x821 PUSH3 0x5AB JUMP JUMPDEST JUMPDEST PUSH3 0x830 DUP8 DUP3 DUP9 ADD PUSH3 0x706 JUMP JUMPDEST SWAP4 POP POP PUSH1 0x40 PUSH3 0x843 DUP8 DUP3 DUP9 ADD PUSH3 0x75D JUMP JUMPDEST SWAP3 POP POP PUSH1 0x60 PUSH3 0x856 DUP8 DUP3 DUP9 ADD PUSH3 0x79B JUMP JUMPDEST SWAP2 POP POP SWAP3 SWAP6 SWAP2 SWAP5 POP SWAP3 POP JUMP JUMPDEST PUSH32 0x4E487B7100000000000000000000000000000000000000000000000000000000 PUSH1 0x0 MSTORE PUSH1 0x11 PUSH1 0x4 MSTORE PUSH1 0x24 PUSH1 0x0 REVERT JUMPDEST PUSH1 0x0 DUP2 PUSH1 0x1 SHR SWAP1 POP SWAP2 SWAP1 POP JUMP JUMPDEST PUSH1 0x0 DUP1 DUP3 SWAP2 POP DUP4 SWAP1 POP JUMPDEST PUSH1 0x1 DUP6 GT ISZERO PUSH3 0x8F0 JUMPI DUP1 DUP7 DIV DUP2 GT ISZERO PUSH3 0x8C8 JUMPI PUSH3 0x8C7 PUSH3 0x862 JUMP JUMPDEST JUMPDEST PUSH1 0x1 DUP6 AND ISZERO PUSH3 0x8D8 JUMPI DUP1 DUP3 MUL SWAP2 POP JUMPDEST DUP1 DUP2 MUL SWAP1 POP PUSH3 0x8E8 DUP6 PUSH3 0x891 JUMP JUMPDEST SWAP5 POP PUSH3 0x8A8 JUMP JUMPDEST SWAP5 POP SWAP5 SWAP3 POP POP POP JUMP JUMPDEST PUSH1 0x0 DUP3 PUSH3 0x90B JUMPI PUSH1 0x1 SWAP1 POP PUSH3 0x9DE JUMP JUMPDEST DUP2 PUSH3 0x91B JUMPI PUSH1 0x0 SWAP1 POP PUSH3 0x9DE JUMP JUMPDEST DUP2 PUSH1 0x1 DUP2 EQ PUSH3 0x934 JUMPI PUSH1 0x2 DUP2 EQ PUSH3 0x93F JUMPI PUSH3 0x975 JUMP JUMPDEST PUSH1 0x1 SWAP2 POP POP PUSH3 0x9DE JUMP JUMPDEST PUSH1 0xFF DUP5 GT ISZERO PUSH3 0x954 JUMPI PUSH3 0x953 PUSH3 0x862 JUMP JUMPDEST JUMPDEST DUP4 PUSH1 0x2 EXP SWAP2 POP DUP5 DUP3 GT ISZERO PUSH3 0x96E JUMPI PUSH3 0x96D PUSH3 0x862 JUMP JUMPDEST JUMPDEST POP PUSH3 0x9DE JUMP JUMPDEST POP PUSH1 0x20 DUP4 LT PUSH2 0x133 DUP4 LT AND PUSH1 0x4E DUP5 LT PUSH1 0xB DUP5 LT AND OR ISZERO PUSH3 0x9AF JUMPI DUP3 DUP3 EXP SWAP1 POP DUP4 DUP2 GT ISZERO PUSH3 0x9A9 JUMPI PUSH3 0x9A8 PUSH3 0x862 JUMP JUMPDEST JUMPDEST PUSH3 0x9DE JUMP JUMPDEST PUSH3 0x9BE DUP5 DUP5 DUP5 PUSH1 0x1 PUSH3 0x89E JUMP JUMPDEST SWAP3 POP SWAP1 POP DUP2 DUP5 DIV DUP2 GT ISZERO PUSH3 0x9D8 JUMPI PUSH3 0x9D7 PUSH3 0x862 JUMP JUMPDEST JUMPDEST DUP2 DUP2 MUL SWAP1 POP JUMPDEST SWAP4 SWAP3 POP POP POP JUMP JUMPDEST PUSH1 0x0 PUSH3 0x9F2 DUP3 PUSH3 0x739 JUMP JUMPDEST SWAP2 POP PUSH3 0x9FF DUP4 PUSH3 0x774 JUMP JUMPDEST SWAP3 POP PUSH3 0xA2E PUSH32 0xFFFFFFFFFFFFFFFFFFFFFFFFFFFFFFFFFFFFFFFFFFFFFFFFFFFFFFFFFFFFFFFF DUP5 DUP5 PUSH3 0x8F9 JUMP JUMPDEST SWAP1 POP SWAP3 SWAP2 POP POP JUMP JUMPDEST PUSH1 0x0 PUSH3 0xA43 DUP3 PUSH3 0x739 JUMP JUMPDEST SWAP2 POP PUSH3 0xA50 DUP4 PUSH3 0x739 JUMP JUMPDEST SWAP3 POP DUP2 PUSH32 0xFFFFFFFFFFFFFFFFFFFFFFFFFFFFFFFFFFFFFFFFFFFFFFFFFFFFFFFFFFFFFFFF DIV DUP4 GT DUP3 ISZERO ISZERO AND ISZERO PUSH3 0xA8C JUMPI PUSH3 0xA8B PUSH3 0x862 JUMP JUMPDEST JUMPDEST DUP3 DUP3 MUL SWAP1 POP SWAP3 SWAP2 POP POP JUMP JUMPDEST PUSH1 0x0 PUSH20 0xFFFFFFFFFFFFFFFFFFFFFFFFFFFFFFFFFFFFFFFF DUP3 AND SWAP1 POP SWAP2 SWAP1 POP JUMP JUMPDEST PUSH1 0x0 PUSH3 0xAC4 DUP3 PUSH3 0xA97 JUMP JUMPDEST SWAP1 POP SWAP2 SWAP1 POP JUMP JUMPDEST PUSH3 0xAD6 DUP2 PUSH3 0xAB7 JUMP JUMPDEST DUP3 MSTORE POP POP JUMP JUMPDEST PUSH3 0xAE7 DUP2 PUSH3 0x739 JUMP JUMPDEST DUP3 MSTORE POP POP JUMP JUMPDEST PUSH1 0x0 PUSH1 0x40 DUP3 ADD SWAP1 POP PUSH3 0xB04 PUSH1 0x0 DUP4 ADD DUP6 PUSH3 0xACB JUMP JUMPDEST PUSH3 0xB13 PUSH1 0x20 DUP4 ADD DUP5 PUSH3 0xADC JUMP JUMPDEST SWAP4 SWAP3 POP POP POP JUMP JUMPDEST PUSH1 0x0 DUP3 DUP3 MSTORE PUSH1 0x20 DUP3 ADD SWAP1 POP SWAP3 SWAP2 POP POP JUMP JUMPDEST PUSH32 0x45524332303A206D696E7420746F20746865207A65726F206164647265737300 PUSH1 0x0 DUP3 ADD MSTORE POP JUMP JUMPDEST PUSH1 0x0 PUSH3 0xB63 PUSH1 0x1F DUP4 PUSH3 0xB1A JUMP JUMPDEST SWAP2 POP PUSH3 0xB70 DUP3 PUSH3 0xB2B JUMP JUMPDEST PUSH1 0x20 DUP3 ADD SWAP1 POP SWAP2 SWAP1 POP JUMP JUMPDEST PUSH1 0x0 PUSH1 0x20 DUP3 ADD SWAP1 POP DUP2 DUP2 SUB PUSH1 0x0 DUP4 ADD MSTORE PUSH3 0xB96 DUP2 PUSH3 0xB54 JUMP JUMPDEST SWAP1 POP SWAP2 SWAP1 POP JUMP JUMPDEST PUSH1 0x0 PUSH3 0xBAA DUP3 PUSH3 0x739 JUMP JUMPDEST SWAP2 POP PUSH3 0xBB7 DUP4 PUSH3 0x739 JUMP JUMPDEST SWAP3 POP DUP3 PUSH32 0xFFFFFFFFFFFFFFFFFFFFFFFFFFFFFFFFFFFFFFFFFFFFFFFFFFFFFFFFFFFFFFFF SUB DUP3 GT ISZERO PUSH3 0xBEF JUMPI PUSH3 0xBEE PUSH3 0x862 JUMP JUMPDEST JUMPDEST DUP3 DUP3 ADD SWAP1 POP SWAP3 SWAP2 POP POP JUMP JUMPDEST PUSH1 0x0 PUSH1 0x20 DUP3 ADD SWAP1 POP PUSH3 0xC11 PUSH1 0x0 DUP4 ADD DUP5 PUSH3 0xADC JUMP JUMPDEST SWAP3 SWAP2 POP POP JUMP JUMPDEST PUSH32 0x7573657220616C72656164792065786973740000000000000000000000000000 PUSH1 0x0 DUP3 ADD MSTORE POP JUMP JUMPDEST PUSH1 0x0 PUSH3 0xC4F PUSH1 0x12 DUP4 PUSH3 0xB1A JUMP JUMPDEST SWAP2 POP PUSH3 0xC5C DUP3 PUSH3 0xC17 JUMP JUMPDEST PUSH1 0x20 DUP3 ADD SWAP1 POP SWAP2 SWAP1 POP JUMP JUMPDEST PUSH1 0x0 PUSH1 0x20 DUP3 ADD SWAP1 POP DUP2 DUP2 SUB PUSH1 0x0 DUP4 ADD MSTORE PUSH3 0xC82 DUP2 PUSH3 0xC40 JUMP JUMPDEST SWAP1 POP SWAP2 SWAP1 POP JUMP JUMPDEST PUSH1 0x0 PUSH3 0xC96 DUP3 PUSH3 0x739 JUMP JUMPDEST SWAP2 POP PUSH32 0xFFFFFFFFFFFFFFFFFFFFFFFFFFFFFFFFFFFFFFFFFFFFFFFFFFFFFFFFFFFFFFFF DUP3 SUB PUSH3 0xCCB JUMPI PUSH3 0xCCA PUSH3 0x862 JUMP JUMPDEST JUMPDEST PUSH1 0x1 DUP3 ADD SWAP1 POP SWAP2 SWAP1 POP JUMP JUMPDEST PUSH32 0x4E487B7100000000000000000000000000000000000000000000000000000000 PUSH1 0x0 MSTORE PUSH1 0x22 PUSH1 0x4 MSTORE PUSH1 0x24 PUSH1 0x0 REVERT JUMPDEST PUSH1 0x0 PUSH1 0x2 DUP3 DIV SWAP1 POP PUSH1 0x1 DUP3 AND DUP1 PUSH3 0xD1E JUMPI PUSH1 0x7F DUP3 AND SWAP2 POP JUMPDEST PUSH1 0x20 DUP3 LT DUP2 SUB PUSH3 0xD34 JUMPI PUSH3 0xD33 PUSH3 0xCD6 JUMP JUMPDEST JUMPDEST POP SWAP2 SWAP1 POP JUMP JUMPDEST PUSH2 0x246D DUP1 PUSH3 0xD4A PUSH1 0x0 CODECOPY PUSH1 0x0 RETURN INVALID PUSH1 0x80 PUSH1 0x40 MSTORE PUSH1 0x4 CALLDATASIZE LT PUSH2 0x118 JUMPI PUSH1 0x0 CALLDATALOAD PUSH1 0xE0 SHR DUP1 PUSH4 0x70A08231 GT PUSH2 0xA0 JUMPI DUP1 PUSH4 0xA457C2D7 GT PUSH2 0x64 JUMPI DUP1 PUSH4 0xA457C2D7 EQ PUSH2 0x42B JUMPI DUP1 PUSH4 0xA9059CBB EQ PUSH2 0x468 JUMPI DUP1 PUSH4 0xADD1603E EQ PUSH2 0x4A5 JUMPI DUP1 PUSH4 0xD95402E7 EQ PUSH2 0x4E2 JUMPI DUP1 PUSH4 0xDD62ED3E EQ PUSH2 0x50D JUMPI PUSH2 0x11F JUMP JUMPDEST DUP1 PUSH4 0x70A08231 EQ PUSH2 0x351 JUMPI DUP1 PUSH4 0x8AC8BBCA EQ PUSH2 0x38E JUMPI DUP1 PUSH4 0x948DEC44 EQ PUSH2 0x3B9 JUMPI DUP1 PUSH4 0x95D89B41 EQ PUSH2 0x3E4 JUMPI DUP1 PUSH4 0x9A29E6AA EQ PUSH2 0x40F JUMPI PUSH2 0x11F JUMP JUMPDEST DUP1 PUSH4 0x18160DDD GT PUSH2 0xE7 JUMPI DUP1 PUSH4 0x18160DDD EQ PUSH2 0x243 JUMPI DUP1 PUSH4 0x23B872DD EQ PUSH2 0x26E JUMPI DUP1 PUSH4 0x313CE567 EQ PUSH2 0x2AB JUMPI DUP1 PUSH4 0x39509351 EQ PUSH2 0x2D6 JUMPI DUP1 PUSH4 0x5E5C06E2 EQ PUSH2 0x313 JUMPI PUSH2 0x11F JUMP JUMPDEST DUP1 PUSH4 0x6FDDE03 EQ PUSH2 0x172 JUMPI DUP1 PUSH4 0x95EA7B3 EQ PUSH2 0x19D JUMPI DUP1 PUSH4 0xEF67887 EQ PUSH2 0x1DA JUMPI DUP1 PUSH4 0x10A7FD7B EQ PUSH2 0x205 JUMPI PUSH2 0x11F JUMP JUMPDEST CALLDATASIZE PUSH2 0x11F JUMPI STOP JUMPDEST PUSH1 0x0 CALLVALUE GT ISZERO PUSH2 0x170 JUMPI ADDRESS PUSH20 0xFFFFFFFFFFFFFFFFFFFFFFFFFFFFFFFFFFFFFFFF AND PUSH2 0x8FC CALLVALUE SWAP1 DUP2 ISZERO MUL SWAP1 PUSH1 0x40 MLOAD PUSH1 0x0 PUSH1 0x40 MLOAD DUP1 DUP4 SUB DUP2 DUP6 DUP9 DUP9 CALL SWAP4 POP POP POP POP ISZERO DUP1 ISZERO PUSH2 0x16E JUMPI RETURNDATASIZE PUSH1 0x0 DUP1 RETURNDATACOPY RETURNDATASIZE PUSH1 0x0 REVERT JUMPDEST POP JUMPDEST STOP JUMPDEST CALLVALUE DUP1 ISZERO PUSH2 0x17E JUMPI PUSH1 0x0 DUP1 REVERT JUMPDEST POP PUSH2 0x187 PUSH2 0x54A JUMP JUMPDEST PUSH1 0x40 MLOAD PUSH2 0x194 SWAP2 SWAP1 PUSH2 0x181F JUMP JUMPDEST PUSH1 0x40 MLOAD DUP1 SWAP2 SUB SWAP1 RETURN JUMPDEST CALLVALUE DUP1 ISZERO PUSH2 0x1A9 JUMPI PUSH1 0x0 DUP1 REVERT JUMPDEST POP PUSH2 0x1C4 PUSH1 0x4 DUP1 CALLDATASIZE SUB DUP2 ADD SWAP1 PUSH2 0x1BF SWAP2 SWAP1 PUSH2 0x18DA JUMP JUMPDEST PUSH2 0x5DC JUMP JUMPDEST PUSH1 0x40 MLOAD PUSH2 0x1D1 SWAP2 SWAP1 PUSH2 0x1935 JUMP JUMPDEST PUSH1 0x40 MLOAD DUP1 SWAP2 SUB SWAP1 RETURN JUMPDEST CALLVALUE DUP1 ISZERO PUSH2 0x1E6 JUMPI PUSH1 0x0 DUP1 REVERT JUMPDEST POP PUSH2 0x1EF PUSH2 0x5FA JUMP JUMPDEST PUSH1 0x40 MLOAD PUSH2 0x1FC SWAP2 SWAP1 PUSH2 0x195F JUMP JUMPDEST PUSH1 0x40 MLOAD DUP1 SWAP2 SUB SWAP1 RETURN JUMPDEST CALLVALUE DUP1 ISZERO PUSH2 0x211 JUMPI PUSH1 0x0 DUP1 REVERT JUMPDEST POP PUSH2 0x22C PUSH1 0x4 DUP1 CALLDATASIZE SUB DUP2 ADD SWAP1 PUSH2 0x227 SWAP2 SWAP1 PUSH2 0x197A JUMP JUMPDEST PUSH2 0x602 JUMP JUMPDEST PUSH1 0x40 MLOAD PUSH2 0x23A SWAP3 SWAP2 SWAP1 PUSH2 0x19B6 JUMP JUMPDEST PUSH1 0x40 MLOAD DUP1 SWAP2 SUB SWAP1 RETURN JUMPDEST CALLVALUE DUP1 ISZERO PUSH2 0x24F JUMPI PUSH1 0x0 DUP1 REVERT JUMPDEST POP PUSH2 0x258 PUSH2 0x653 JUMP JUMPDEST PUSH1 0x40 MLOAD PUSH2 0x265 SWAP2 SWAP1 PUSH2 0x195F JUMP JUMPDEST PUSH1 0x40 MLOAD DUP1 SWAP2 SUB SWAP1 RETURN JUMPDEST CALLVALUE DUP1 ISZERO PUSH2 0x27A JUMPI PUSH1 0x0 DUP1 REVERT JUMPDEST POP PUSH2 0x295 PUSH1 0x4 DUP1 CALLDATASIZE SUB DUP2 ADD SWAP1 PUSH2 0x290 SWAP2 SWAP1 PUSH2 0x19DF JUMP JUMPDEST PUSH2 0x65D JUMP JUMPDEST PUSH1 0x40 MLOAD PUSH2 0x2A2 SWAP2 SWAP1 PUSH2 0x1935 JUMP JUMPDEST PUSH1 0x40 MLOAD DUP1 SWAP2 SUB SWAP1 RETURN JUMPDEST CALLVALUE DUP1 ISZERO PUSH2 0x2B7 JUMPI PUSH1 0x0 DUP1 REVERT JUMPDEST POP PUSH2 0x2C0 PUSH2 0x755 JUMP JUMPDEST PUSH1 0x40 MLOAD PUSH2 0x2CD SWAP2 SWAP1 PUSH2 0x1A4E JUMP JUMPDEST PUSH1 0x40 MLOAD DUP1 SWAP2 SUB SWAP1 RETURN JUMPDEST CALLVALUE DUP1 ISZERO PUSH2 0x2E2 JUMPI PUSH1 0x0 DUP1 REVERT JUMPDEST POP PUSH2 0x2FD PUSH1 0x4 DUP1 CALLDATASIZE SUB DUP2 ADD SWAP1 PUSH2 0x2F8 SWAP2 SWAP1 PUSH2 0x18DA JUMP JUMPDEST PUSH2 0x75E JUMP JUMPDEST PUSH1 0x40 MLOAD PUSH2 0x30A SWAP2 SWAP1 PUSH2 0x1935 JUMP JUMPDEST PUSH1 0x40 MLOAD DUP1 SWAP2 SUB SWAP1 RETURN JUMPDEST CALLVALUE DUP1 ISZERO PUSH2 0x31F JUMPI PUSH1 0x0 DUP1 REVERT JUMPDEST POP PUSH2 0x33A PUSH1 0x4 DUP1 CALLDATASIZE SUB DUP2 ADD SWAP1 PUSH2 0x335 SWAP2 SWAP1 PUSH2 0x1A69 JUMP JUMPDEST PUSH2 0x80A JUMP JUMPDEST PUSH1 0x40 MLOAD PUSH2 0x348 SWAP3 SWAP2 SWAP1 PUSH2 0x1A96 JUMP JUMPDEST PUSH1 0x40 MLOAD DUP1 SWAP2 SUB SWAP1 RETURN JUMPDEST CALLVALUE DUP1 ISZERO PUSH2 0x35D JUMPI PUSH1 0x0 DUP1 REVERT JUMPDEST POP PUSH2 0x378 PUSH1 0x4 DUP1 CALLDATASIZE SUB DUP2 ADD SWAP1 PUSH2 0x373 SWAP2 SWAP1 PUSH2 0x1A69 JUMP JUMPDEST PUSH2 0x83B JUMP JUMPDEST PUSH1 0x40 MLOAD PUSH2 0x385 SWAP2 SWAP1 PUSH2 0x195F JUMP JUMPDEST PUSH1 0x40 MLOAD DUP1 SWAP2 SUB SWAP1 RETURN JUMPDEST CALLVALUE DUP1 ISZERO PUSH2 0x39A JUMPI PUSH1 0x0 DUP1 REVERT JUMPDEST POP PUSH2 0x3A3 PUSH2 0x883 JUMP JUMPDEST PUSH1 0x40 MLOAD PUSH2 0x3B0 SWAP2 SWAP1 PUSH2 0x195F JUMP JUMPDEST PUSH1 0x40 MLOAD DUP1 SWAP2 SUB SWAP1 RETURN JUMPDEST CALLVALUE DUP1 ISZERO PUSH2 0x3C5 JUMPI PUSH1 0x0 DUP1 REVERT JUMPDEST POP PUSH2 0x3CE PUSH2 0x963 JUMP JUMPDEST PUSH1 0x40 MLOAD PUSH2 0x3DB SWAP2 SWAP1 PUSH2 0x1935 JUMP JUMPDEST PUSH1 0x40 MLOAD DUP1 SWAP2 SUB SWAP1 RETURN JUMPDEST CALLVALUE DUP1 ISZERO PUSH2 0x3F0 JUMPI PUSH1 0x0 DUP1 REVERT JUMPDEST POP PUSH2 0x3F9 PUSH2 0xB4B JUMP JUMPDEST PUSH1 0x40 MLOAD PUSH2 0x406 SWAP2 SWAP1 PUSH2 0x181F JUMP JUMPDEST PUSH1 0x40 MLOAD DUP1 SWAP2 SUB SWAP1 RETURN JUMPDEST PUSH2 0x429 PUSH1 0x4 DUP1 CALLDATASIZE SUB DUP2 ADD SWAP1 PUSH2 0x424 SWAP2 SWAP1 PUSH2 0x197A JUMP JUMPDEST PUSH2 0xBDD JUMP JUMPDEST STOP JUMPDEST CALLVALUE DUP1 ISZERO PUSH2 0x437 JUMPI PUSH1 0x0 DUP1 REVERT JUMPDEST POP PUSH2 0x452 PUSH1 0x4 DUP1 CALLDATASIZE SUB DUP2 ADD SWAP1 PUSH2 0x44D SWAP2 SWAP1 PUSH2 0x18DA JUMP JUMPDEST PUSH2 0xE35 JUMP JUMPDEST PUSH1 0x40 MLOAD PUSH2 0x45F SWAP2 SWAP1 PUSH2 0x1935 JUMP JUMPDEST PUSH1 0x40 MLOAD DUP1 SWAP2 SUB SWAP1 RETURN JUMPDEST CALLVALUE DUP1 ISZERO PUSH2 0x474 JUMPI PUSH1 0x0 DUP1 REVERT JUMPDEST POP PUSH2 0x48F PUSH1 0x4 DUP1 CALLDATASIZE SUB DUP2 ADD SWAP1 PUSH2 0x48A SWAP2 SWAP1 PUSH2 0x18DA JUMP JUMPDEST PUSH2 0xF20 JUMP JUMPDEST PUSH1 0x40 MLOAD PUSH2 0x49C SWAP2 SWAP1 PUSH2 0x1935 JUMP JUMPDEST PUSH1 0x40 MLOAD DUP1 SWAP2 SUB SWAP1 RETURN JUMPDEST CALLVALUE DUP1 ISZERO PUSH2 0x4B1 JUMPI PUSH1 0x0 DUP1 REVERT JUMPDEST POP PUSH2 0x4CC PUSH1 0x4 DUP1 CALLDATASIZE SUB DUP2 ADD SWAP1 PUSH2 0x4C7 SWAP2 SWAP1 PUSH2 0x197A JUMP JUMPDEST PUSH2 0xF3E JUMP JUMPDEST PUSH1 0x40 MLOAD PUSH2 0x4D9 SWAP2 SWAP1 PUSH2 0x1B1E JUMP JUMPDEST PUSH1 0x40 MLOAD DUP1 SWAP2 SUB SWAP1 RETURN JUMPDEST CALLVALUE DUP1 ISZERO PUSH2 0x4EE JUMPI PUSH1 0x0 DUP1 REVERT JUMPDEST POP PUSH2 0x4F7 PUSH2 0xF7D JUMP JUMPDEST PUSH1 0x40 MLOAD PUSH2 0x504 SWAP2 SWAP1 PUSH2 0x1935 JUMP JUMPDEST PUSH1 0x40 MLOAD DUP1 SWAP2 SUB SWAP1 RETURN JUMPDEST CALLVALUE DUP1 ISZERO PUSH2 0x519 JUMPI PUSH1 0x0 DUP1 REVERT JUMPDEST POP PUSH2 0x534 PUSH1 0x4 DUP1 CALLDATASIZE SUB DUP2 ADD SWAP1 PUSH2 0x52F SWAP2 SWAP1 PUSH2 0x1B39 JUMP JUMPDEST PUSH2 0x10F2 JUMP JUMPDEST PUSH1 0x40 MLOAD PUSH2 0x541 SWAP2 SWAP1 PUSH2 0x195F JUMP JUMPDEST PUSH1 0x40 MLOAD DUP1 SWAP2 SUB SWAP1 RETURN JUMPDEST PUSH1 0x60 PUSH1 0x3 DUP1 SLOAD PUSH2 0x559 SWAP1 PUSH2 0x1BA8 JUMP JUMPDEST DUP1 PUSH1 0x1F ADD PUSH1 0x20 DUP1 SWAP2 DIV MUL PUSH1 0x20 ADD PUSH1 0x40 MLOAD SWAP1 DUP2 ADD PUSH1 0x40 MSTORE DUP1 SWAP3 SWAP2 SWAP1 DUP2 DUP2 MSTORE PUSH1 0x20 ADD DUP3 DUP1 SLOAD PUSH2 0x585 SWAP1 PUSH2 0x1BA8 JUMP JUMPDEST DUP1 ISZERO PUSH2 0x5D2 JUMPI DUP1 PUSH1 0x1F LT PUSH2 0x5A7 JUMPI PUSH2 0x100 DUP1 DUP4 SLOAD DIV MUL DUP4 MSTORE SWAP2 PUSH1 0x20 ADD SWAP2 PUSH2 0x5D2 JUMP JUMPDEST DUP3 ADD SWAP2 SWAP1 PUSH1 0x0 MSTORE PUSH1 0x20 PUSH1 0x0 KECCAK256 SWAP1 JUMPDEST DUP2 SLOAD DUP2 MSTORE SWAP1 PUSH1 0x1 ADD SWAP1 PUSH1 0x20 ADD DUP1 DUP4 GT PUSH2 0x5B5 JUMPI DUP3 SWAP1 SUB PUSH1 0x1F AND DUP3 ADD SWAP2 JUMPDEST POP POP POP POP POP SWAP1 POP SWAP1 JUMP JUMPDEST PUSH1 0x0 PUSH2 0x5F0 PUSH2 0x5E9 PUSH2 0x1179 JUMP JUMPDEST DUP5 DUP5 PUSH2 0x1181 JUMP JUMPDEST PUSH1 0x1 SWAP1 POP SWAP3 SWAP2 POP POP JUMP JUMPDEST PUSH1 0x0 SELFBALANCE SWAP1 POP SWAP1 JUMP JUMPDEST PUSH1 0xA PUSH1 0x20 MSTORE DUP1 PUSH1 0x0 MSTORE PUSH1 0x40 PUSH1 0x0 KECCAK256 PUSH1 0x0 SWAP2 POP SWAP1 POP DUP1 PUSH1 0x0 ADD PUSH1 0x0 SWAP1 SLOAD SWAP1 PUSH2 0x100 EXP SWAP1 DIV PUSH20 0xFFFFFFFFFFFFFFFFFFFFFFFFFFFFFFFFFFFFFFFF AND SWAP1 DUP1 PUSH1 0x0 ADD PUSH1 0x14 SWAP1 SLOAD SWAP1 PUSH2 0x100 EXP SWAP1 DIV PUSH1 0xFF AND SWAP1 POP DUP3 JUMP JUMPDEST PUSH1 0x0 PUSH1 0x2 SLOAD SWAP1 POP SWAP1 JUMP JUMPDEST PUSH1 0x0 PUSH2 0x66A DUP5 DUP5 DUP5 PUSH2 0x134A JUMP JUMPDEST PUSH1 0x0 PUSH1 0x1 PUSH1 0x0 DUP7 PUSH20 0xFFFFFFFFFFFFFFFFFFFFFFFFFFFFFFFFFFFFFFFF AND PUSH20 0xFFFFFFFFFFFFFFFFFFFFFFFFFFFFFFFFFFFFFFFF AND DUP2 MSTORE PUSH1 0x20 ADD SWAP1 DUP2 MSTORE PUSH1 0x20 ADD PUSH1 0x0 KECCAK256 PUSH1 0x0 PUSH2 0x6B5 PUSH2 0x1179 JUMP JUMPDEST PUSH20 0xFFFFFFFFFFFFFFFFFFFFFFFFFFFFFFFFFFFFFFFF AND PUSH20 0xFFFFFFFFFFFFFFFFFFFFFFFFFFFFFFFFFFFFFFFF AND DUP2 MSTORE PUSH1 0x20 ADD SWAP1 DUP2 MSTORE PUSH1 0x20 ADD PUSH1 0x0 KECCAK256 SLOAD SWAP1 POP DUP3 DUP2 LT ISZERO PUSH2 0x735 JUMPI PUSH1 0x40 MLOAD PUSH32 0x8C379A000000000000000000000000000000000000000000000000000000000 DUP2 MSTORE PUSH1 0x4 ADD PUSH2 0x72C SWAP1 PUSH2 0x1C4B JUMP JUMPDEST PUSH1 0x40 MLOAD DUP1 SWAP2 SUB SWAP1 REVERT JUMPDEST PUSH2 0x749 DUP6 PUSH2 0x741 PUSH2 0x1179 JUMP JUMPDEST DUP6 DUP5 SUB PUSH2 0x1181 JUMP JUMPDEST PUSH1 0x1 SWAP2 POP POP SWAP4 SWAP3 POP POP POP JUMP JUMPDEST PUSH1 0x0 PUSH1 0x12 SWAP1 POP SWAP1 JUMP JUMPDEST PUSH1 0x0 PUSH2 0x800 PUSH2 0x76B PUSH2 0x1179 JUMP JUMPDEST DUP5 DUP5 PUSH1 0x1 PUSH1 0x0 PUSH2 0x779 PUSH2 0x1179 JUMP JUMPDEST PUSH20 0xFFFFFFFFFFFFFFFFFFFFFFFFFFFFFFFFFFFFFFFF AND PUSH20 0xFFFFFFFFFFFFFFFFFFFFFFFFFFFFFFFFFFFFFFFF AND DUP2 MSTORE PUSH1 0x20 ADD SWAP1 DUP2 MSTORE PUSH1 0x20 ADD PUSH1 0x0 KECCAK256 PUSH1 0x0 DUP9 PUSH20 0xFFFFFFFFFFFFFFFFFFFFFFFFFFFFFFFFFFFFFFFF AND PUSH20 0xFFFFFFFFFFFFFFFFFFFFFFFFFFFFFFFFFFFFFFFF AND DUP2 MSTORE PUSH1 0x20 ADD SWAP1 DUP2 MSTORE PUSH1 0x20 ADD PUSH1 0x0 KECCAK256 SLOAD PUSH2 0x7FB SWAP2 SWAP1 PUSH2 0x1C9A JUMP JUMPDEST PUSH2 0x1181 JUMP JUMPDEST PUSH1 0x1 SWAP1 POP SWAP3 SWAP2 POP POP JUMP JUMPDEST PUSH1 0x9 PUSH1 0x20 MSTORE DUP1 PUSH1 0x0 MSTORE PUSH1 0x40 PUSH1 0x0 KECCAK256 PUSH1 0x0 SWAP2 POP SWAP1 POP DUP1 PUSH1 0x0 ADD SLOAD SWAP1 DUP1 PUSH1 0x1 ADD PUSH1 0x0 SWAP1 SLOAD SWAP1 PUSH2 0x100 EXP SWAP1 DIV PUSH1 0xFF AND SWAP1 POP DUP3 JUMP JUMPDEST PUSH1 0x0 DUP1 PUSH1 0x0 DUP4 PUSH20 0xFFFFFFFFFFFFFFFFFFFFFFFFFFFFFFFFFFFFFFFF AND PUSH20 0xFFFFFFFFFFFFFFFFFFFFFFFFFFFFFFFFFFFFFFFF AND DUP2 MSTORE PUSH1 0x20 ADD SWAP1 DUP2 MSTORE PUSH1 0x20 ADD PUSH1 0x0 KECCAK256 SLOAD SWAP1 POP SWAP2 SWAP1 POP JUMP JUMPDEST PUSH1 0x0 PUSH1 0x1 ISZERO ISZERO PUSH1 0x9 PUSH1 0x0 CALLER PUSH20 0xFFFFFFFFFFFFFFFFFFFFFFFFFFFFFFFFFFFFFFFF AND PUSH20 0xFFFFFFFFFFFFFFFFFFFFFFFFFFFFFFFFFFFFFFFF AND DUP2 MSTORE PUSH1 0x20 ADD SWAP1 DUP2 MSTORE PUSH1 0x20 ADD PUSH1 0x0 KECCAK256 PUSH1 0x1 ADD PUSH1 0x0 SWAP1 SLOAD SWAP1 PUSH2 0x100 EXP SWAP1 DIV PUSH1 0xFF AND ISZERO ISZERO EQ PUSH2 0x91B JUMPI PUSH1 0x40 MLOAD PUSH32 0x8C379A000000000000000000000000000000000000000000000000000000000 DUP2 MSTORE PUSH1 0x4 ADD PUSH2 0x912 SWAP1 PUSH2 0x1D3C JUMP JUMPDEST PUSH1 0x40 MLOAD DUP1 SWAP2 SUB SWAP1 REVERT JUMPDEST PUSH1 0x9 PUSH1 0x0 CALLER PUSH20 0xFFFFFFFFFFFFFFFFFFFFFFFFFFFFFFFFFFFFFFFF AND PUSH20 0xFFFFFFFFFFFFFFFFFFFFFFFFFFFFFFFFFFFFFFFF AND DUP2 MSTORE PUSH1 0x20 ADD SWAP1 DUP2 MSTORE PUSH1 0x20 ADD PUSH1 0x0 KECCAK256 PUSH1 0x0 ADD SLOAD SWAP1 POP SWAP1 JUMP JUMPDEST PUSH1 0x0 DUP1 ISZERO ISZERO PUSH1 0x9 PUSH1 0x0 CALLER PUSH20 0xFFFFFFFFFFFFFFFFFFFFFFFFFFFFFFFFFFFFFFFF AND PUSH20 0xFFFFFFFFFFFFFFFFFFFFFFFFFFFFFFFFFFFFFFFF AND DUP2 MSTORE PUSH1 0x20 ADD SWAP1 DUP2 MSTORE PUSH1 0x20 ADD PUSH1 0x0 KECCAK256 PUSH1 0x1 ADD PUSH1 0x0 SWAP1 SLOAD SWAP1 PUSH2 0x100 EXP SWAP1 DIV PUSH1 0xFF AND ISZERO ISZERO EQ PUSH2 0x9FA JUMPI PUSH1 0x40 MLOAD PUSH32 0x8C379A000000000000000000000000000000000000000000000000000000000 DUP2 MSTORE PUSH1 0x4 ADD PUSH2 0x9F1 SWAP1 PUSH2 0x1DA8 JUMP JUMPDEST PUSH1 0x40 MLOAD DUP1 SWAP2 SUB SWAP1 REVERT JUMPDEST PUSH1 0x40 MLOAD DUP1 PUSH1 0x40 ADD PUSH1 0x40 MSTORE DUP1 CALLER PUSH20 0xFFFFFFFFFFFFFFFFFFFFFFFFFFFFFFFFFFFFFFFF AND DUP2 MSTORE PUSH1 0x20 ADD PUSH1 0x1 ISZERO ISZERO DUP2 MSTORE POP PUSH1 0xA PUSH1 0x0 PUSH1 0x6 SLOAD DUP2 MSTORE PUSH1 0x20 ADD SWAP1 DUP2 MSTORE PUSH1 0x20 ADD PUSH1 0x0 KECCAK256 PUSH1 0x0 DUP3 ADD MLOAD DUP2 PUSH1 0x0 ADD PUSH1 0x0 PUSH2 0x100 EXP DUP2 SLOAD DUP2 PUSH20 0xFFFFFFFFFFFFFFFFFFFFFFFFFFFFFFFFFFFFFFFF MUL NOT AND SWAP1 DUP4 PUSH20 0xFFFFFFFFFFFFFFFFFFFFFFFFFFFFFFFFFFFFFFFF AND MUL OR SWAP1 SSTORE POP PUSH1 0x20 DUP3 ADD MLOAD DUP2 PUSH1 0x0 ADD PUSH1 0x14 PUSH2 0x100 EXP DUP2 SLOAD DUP2 PUSH1 0xFF MUL NOT AND SWAP1 DUP4 ISZERO ISZERO MUL OR SWAP1 SSTORE POP SWAP1 POP POP PUSH1 0x40 MLOAD DUP1 PUSH1 0x40 ADD PUSH1 0x40 MSTORE DUP1 PUSH1 0x0 DUP2 MSTORE PUSH1 0x20 ADD PUSH1 0x1 ISZERO ISZERO DUP2 MSTORE POP PUSH1 0x9 PUSH1 0x0 CALLER PUSH20 0xFFFFFFFFFFFFFFFFFFFFFFFFFFFFFFFFFFFFFFFF AND PUSH20 0xFFFFFFFFFFFFFFFFFFFFFFFFFFFFFFFFFFFFFFFF AND DUP2 MSTORE PUSH1 0x20 ADD SWAP1 DUP2 MSTORE PUSH1 0x20 ADD PUSH1 0x0 KECCAK256 PUSH1 0x0 DUP3 ADD MLOAD DUP2 PUSH1 0x0 ADD SSTORE PUSH1 0x20 DUP3 ADD MLOAD DUP2 PUSH1 0x1 ADD PUSH1 0x0 PUSH2 0x100 EXP DUP2 SLOAD DUP2 PUSH1 0xFF MUL NOT AND SWAP1 DUP4 ISZERO ISZERO MUL OR SWAP1 SSTORE POP SWAP1 POP POP PUSH1 0x6 PUSH1 0x0 DUP2 SLOAD DUP1 SWAP3 SWAP2 SWAP1 PUSH2 0xB3F SWAP1 PUSH2 0x1DC8 JUMP JUMPDEST SWAP2 SWAP1 POP SSTORE POP PUSH1 0x1 SWAP1 POP SWAP1 JUMP JUMPDEST PUSH1 0x60 PUSH1 0x4 DUP1 SLOAD PUSH2 0xB5A SWAP1 PUSH2 0x1BA8 JUMP JUMPDEST DUP1 PUSH1 0x1F ADD PUSH1 0x20 DUP1 SWAP2 DIV MUL PUSH1 0x20 ADD PUSH1 0x40 MLOAD SWAP1 DUP2 ADD PUSH1 0x40 MSTORE DUP1 SWAP3 SWAP2 SWAP1 DUP2 DUP2 MSTORE PUSH1 0x20 ADD DUP3 DUP1 SLOAD PUSH2 0xB86 SWAP1 PUSH2 0x1BA8 JUMP JUMPDEST DUP1 ISZERO PUSH2 0xBD3 JUMPI DUP1 PUSH1 0x1F LT PUSH2 0xBA8 JUMPI PUSH2 0x100 DUP1 DUP4 SLOAD DIV MUL DUP4 MSTORE SWAP2 PUSH1 0x20 ADD SWAP2 PUSH2 0xBD3 JUMP JUMPDEST DUP3 ADD SWAP2 SWAP1 PUSH1 0x0 MSTORE PUSH1 0x20 PUSH1 0x0 KECCAK256 SWAP1 JUMPDEST DUP2 SLOAD DUP2 MSTORE SWAP1 PUSH1 0x1 ADD SWAP1 PUSH1 0x20 ADD DUP1 DUP4 GT PUSH2 0xBB6 JUMPI DUP3 SWAP1 SUB PUSH1 0x1F AND DUP3 ADD SWAP2 JUMPDEST POP POP POP POP POP SWAP1 POP SWAP1 JUMP JUMPDEST CALLER PUSH1 0x40 MLOAD PUSH1 0x20 ADD PUSH2 0xBEE SWAP2 SWAP1 PUSH2 0x1E58 JUMP JUMPDEST PUSH1 0x40 MLOAD PUSH1 0x20 DUP2 DUP4 SUB SUB DUP2 MSTORE SWAP1 PUSH1 0x40 MSTORE DUP1 MLOAD SWAP1 PUSH1 0x20 ADD KECCAK256 PUSH1 0xB PUSH1 0x0 DUP2 SLOAD DUP2 LT PUSH2 0xC19 JUMPI PUSH2 0xC18 PUSH2 0x1E73 JUMP JUMPDEST JUMPDEST SWAP1 PUSH1 0x0 MSTORE PUSH1 0x20 PUSH1 0x0 KECCAK256 ADD PUSH1 0x0 SWAP1 SLOAD SWAP1 PUSH2 0x100 EXP SWAP1 DIV PUSH20 0xFFFFFFFFFFFFFFFFFFFFFFFFFFFFFFFFFFFFFFFF AND PUSH1 0x40 MLOAD PUSH1 0x20 ADD PUSH2 0xC54 SWAP2 SWAP1 PUSH2 0x1ECB JUMP JUMPDEST PUSH1 0x40 MLOAD PUSH1 0x20 DUP2 DUP4 SUB SUB DUP2 MSTORE SWAP1 PUSH1 0x40 MSTORE DUP1 MLOAD SWAP1 PUSH1 0x20 ADD KECCAK256 EQ PUSH2 0xCAA JUMPI PUSH1 0x40 MLOAD PUSH32 0x8C379A000000000000000000000000000000000000000000000000000000000 DUP2 MSTORE PUSH1 0x4 ADD PUSH2 0xCA1 SWAP1 PUSH2 0x1F58 JUMP JUMPDEST PUSH1 0x40 MLOAD DUP1 SWAP2 SUB SWAP1 REVERT JUMPDEST PUSH1 0x0 CALLVALUE SWAP1 POP PUSH1 0x0 DUP1 DUP1 DUP3 DUP5 PUSH2 0xCBF SWAP2 SWAP1 PUSH2 0x1F78 JUMP JUMPDEST SWAP1 POP JUMPDEST PUSH1 0x6 SLOAD PUSH1 0x8 SLOAD GT PUSH2 0xDF4 JUMPI PUSH2 0xCD9 PUSH1 0x8 SLOAD DUP7 PUSH2 0x15C9 JUMP JUMPDEST PUSH1 0x8 PUSH1 0x0 DUP3 SWAP6 POP DUP4 SWAP2 SWAP1 POP SSTORE POP POP DUP2 DUP4 PUSH2 0xCF3 SWAP2 SWAP1 PUSH2 0x1C9A JUMP JUMPDEST SWAP3 POP PUSH1 0x7 SLOAD DUP2 GT PUSH2 0xDB5 JUMPI PUSH1 0xB PUSH1 0x0 DUP2 SLOAD DUP2 LT PUSH2 0xD13 JUMPI PUSH2 0xD12 PUSH2 0x1E73 JUMP JUMPDEST JUMPDEST SWAP1 PUSH1 0x0 MSTORE PUSH1 0x20 PUSH1 0x0 KECCAK256 ADD PUSH1 0x0 SWAP1 SLOAD SWAP1 PUSH2 0x100 EXP SWAP1 DIV PUSH20 0xFFFFFFFFFFFFFFFFFFFFFFFFFFFFFFFFFFFFFFFF AND PUSH20 0xFFFFFFFFFFFFFFFFFFFFFFFFFFFFFFFFFFFFFFFF AND PUSH4 0x82ADD361 DUP3 PUSH1 0x40 MLOAD DUP3 PUSH4 0xFFFFFFFF AND PUSH1 0xE0 SHL DUP2 MSTORE PUSH1 0x4 ADD PUSH1 0x20 PUSH1 0x40 MLOAD DUP1 DUP4 SUB DUP2 DUP6 DUP9 GAS CALL ISZERO DUP1 ISZERO PUSH2 0xD8A JUMPI RETURNDATASIZE PUSH1 0x0 DUP1 RETURNDATACOPY RETURNDATASIZE PUSH1 0x0 REVERT JUMPDEST POP POP POP POP POP PUSH1 0x40 MLOAD RETURNDATASIZE PUSH1 0x1F NOT PUSH1 0x1F DUP3 ADD AND DUP3 ADD DUP1 PUSH1 0x40 MSTORE POP DUP2 ADD SWAP1 PUSH2 0xDAF SWAP2 SWAP1 PUSH2 0x1FD8 JUMP JUMPDEST POP PUSH2 0xDF4 JUMP JUMPDEST PUSH1 0x6 SLOAD PUSH1 0x8 SLOAD GT PUSH2 0xDCE JUMPI PUSH1 0x8 SLOAD PUSH1 0x8 DUP2 SWAP1 SSTORE POP PUSH2 0xDD7 JUMP JUMPDEST PUSH1 0x0 PUSH1 0x8 DUP2 SWAP1 SSTORE POP JUMPDEST PUSH1 0x8 PUSH1 0x0 DUP2 SLOAD DUP1 SWAP3 SWAP2 SWAP1 PUSH2 0xDEA SWAP1 PUSH2 0x1DC8 JUMP JUMPDEST SWAP2 SWAP1 POP SSTORE POP PUSH2 0xCC2 JUMP JUMPDEST PUSH32 0x8AB34DBDE874DE5DDABAD5029CF0ABBEF03843EB2D9509A6AE6697F77DC5A948 TIMESTAMP PUSH1 0x1 PUSH1 0x40 MLOAD PUSH2 0xE26 SWAP3 SWAP2 SWAP1 PUSH2 0x1A96 JUMP JUMPDEST PUSH1 0x40 MLOAD DUP1 SWAP2 SUB SWAP1 LOG1 POP POP POP POP POP JUMP JUMPDEST PUSH1 0x0 DUP1 PUSH1 0x1 PUSH1 0x0 PUSH2 0xE44 PUSH2 0x1179 JUMP JUMPDEST PUSH20 0xFFFFFFFFFFFFFFFFFFFFFFFFFFFFFFFFFFFFFFFF AND PUSH20 0xFFFFFFFFFFFFFFFFFFFFFFFFFFFFFFFFFFFFFFFF AND DUP2 MSTORE PUSH1 0x20 ADD SWAP1 DUP2 MSTORE PUSH1 0x20 ADD PUSH1 0x0 KECCAK256 PUSH1 0x0 DUP6 PUSH20 0xFFFFFFFFFFFFFFFFFFFFFFFFFFFFFFFFFFFFFFFF AND PUSH20 0xFFFFFFFFFFFFFFFFFFFFFFFFFFFFFFFFFFFFFFFF AND DUP2 MSTORE PUSH1 0x20 ADD SWAP1 DUP2 MSTORE PUSH1 0x20 ADD PUSH1 0x0 KECCAK256 SLOAD SWAP1 POP DUP3 DUP2 LT ISZERO PUSH2 0xF01 JUMPI PUSH1 0x40 MLOAD PUSH32 0x8C379A000000000000000000000000000000000000000000000000000000000 DUP2 MSTORE PUSH1 0x4 ADD PUSH2 0xEF8 SWAP1 PUSH2 0x2077 JUMP JUMPDEST PUSH1 0x40 MLOAD DUP1 SWAP2 SUB SWAP1 REVERT JUMPDEST PUSH2 0xF15 PUSH2 0xF0C PUSH2 0x1179 JUMP JUMPDEST DUP6 DUP6 DUP5 SUB PUSH2 0x1181 JUMP JUMPDEST PUSH1 0x1 SWAP2 POP POP SWAP3 SWAP2 POP POP JUMP JUMPDEST PUSH1 0x0 PUSH2 0xF34 PUSH2 0xF2D PUSH2 0x1179 JUMP JUMPDEST DUP5 DUP5 PUSH2 0x134A JUMP JUMPDEST PUSH1 0x1 SWAP1 POP SWAP3 SWAP2 POP POP JUMP JUMPDEST PUSH1 0xB DUP2 DUP2 SLOAD DUP2 LT PUSH2 0xF4E JUMPI PUSH1 0x0 DUP1 REVERT JUMPDEST SWAP1 PUSH1 0x0 MSTORE PUSH1 0x20 PUSH1 0x0 KECCAK256 ADD PUSH1 0x0 SWAP2 POP SLOAD SWAP1 PUSH2 0x100 EXP SWAP1 DIV PUSH20 0xFFFFFFFFFFFFFFFFFFFFFFFFFFFFFFFFFFFFFFFF AND DUP2 JUMP JUMPDEST PUSH1 0x0 DUP1 CALLER SWAP1 POP PUSH1 0x1 ISZERO ISZERO PUSH1 0x9 PUSH1 0x0 DUP4 PUSH20 0xFFFFFFFFFFFFFFFFFFFFFFFFFFFFFFFFFFFFFFFF AND PUSH20 0xFFFFFFFFFFFFFFFFFFFFFFFFFFFFFFFFFFFFFFFF AND DUP2 MSTORE PUSH1 0x20 ADD SWAP1 DUP2 MSTORE PUSH1 0x20 ADD PUSH1 0x0 KECCAK256 PUSH1 0x1 ADD PUSH1 0x0 SWAP1 SLOAD SWAP1 PUSH2 0x100 EXP SWAP1 DIV PUSH1 0xFF AND ISZERO ISZERO EQ PUSH2 0x1019 JUMPI PUSH1 0x40 MLOAD PUSH32 0x8C379A000000000000000000000000000000000000000000000000000000000 DUP2 MSTORE PUSH1 0x4 ADD PUSH2 0x1010 SWAP1 PUSH2 0x20E3 JUMP JUMPDEST PUSH1 0x40 MLOAD DUP1 SWAP2 SUB SWAP1 REVERT JUMPDEST DUP1 PUSH20 0xFFFFFFFFFFFFFFFFFFFFFFFFFFFFFFFFFFFFFFFF AND PUSH2 0x8FC PUSH1 0x9 PUSH1 0x0 CALLER PUSH20 0xFFFFFFFFFFFFFFFFFFFFFFFFFFFFFFFFFFFFFFFF AND PUSH20 0xFFFFFFFFFFFFFFFFFFFFFFFFFFFFFFFFFFFFFFFF AND DUP2 MSTORE PUSH1 0x20 ADD SWAP1 DUP2 MSTORE PUSH1 0x20 ADD PUSH1 0x0 KECCAK256 PUSH1 0x0 ADD SLOAD SWAP1 DUP2 ISZERO MUL SWAP1 PUSH1 0x40 MLOAD PUSH1 0x0 PUSH1 0x40 MLOAD DUP1 DUP4 SUB DUP2 DUP6 DUP9 DUP9 CALL SWAP4 POP POP POP POP ISZERO DUP1 ISZERO PUSH2 0x10A1 JUMPI RETURNDATASIZE PUSH1 0x0 DUP1 RETURNDATACOPY RETURNDATASIZE PUSH1 0x0 REVERT JUMPDEST POP PUSH1 0x0 PUSH1 0x9 PUSH1 0x0 CALLER PUSH20 0xFFFFFFFFFFFFFFFFFFFFFFFFFFFFFFFFFFFFFFFF AND PUSH20 0xFFFFFFFFFFFFFFFFFFFFFFFFFFFFFFFFFFFFFFFF AND DUP2 MSTORE PUSH1 0x20 ADD SWAP1 DUP2 MSTORE PUSH1 0x20 ADD PUSH1 0x0 KECCAK256 PUSH1 0x0 ADD DUP2 SWAP1 SSTORE POP PUSH1 0x1 SWAP2 POP POP SWAP1 JUMP JUMPDEST PUSH1 0x0 PUSH1 0x1 PUSH1 0x0 DUP5 PUSH20 0xFFFFFFFFFFFFFFFFFFFFFFFFFFFFFFFFFFFFFFFF AND PUSH20 0xFFFFFFFFFFFFFFFFFFFFFFFFFFFFFFFFFFFFFFFF AND DUP2 MSTORE PUSH1 0x20 ADD SWAP1 DUP2 MSTORE PUSH1 0x20 ADD PUSH1 0x0 KECCAK256 PUSH1 0x0 DUP4 PUSH20 0xFFFFFFFFFFFFFFFFFFFFFFFFFFFFFFFFFFFFFFFF AND PUSH20 0xFFFFFFFFFFFFFFFFFFFFFFFFFFFFFFFFFFFFFFFF AND DUP2 MSTORE PUSH1 0x20 ADD SWAP1 DUP2 MSTORE PUSH1 0x20 ADD PUSH1 0x0 KECCAK256 SLOAD SWAP1 POP SWAP3 SWAP2 POP POP JUMP JUMPDEST PUSH1 0x0 CALLER SWAP1 POP SWAP1 JUMP JUMPDEST PUSH1 0x0 PUSH20 0xFFFFFFFFFFFFFFFFFFFFFFFFFFFFFFFFFFFFFFFF AND DUP4 PUSH20 0xFFFFFFFFFFFFFFFFFFFFFFFFFFFFFFFFFFFFFFFF AND SUB PUSH2 0x11F0 JUMPI PUSH1 0x40 MLOAD PUSH32 0x8C379A000000000000000000000000000000000000000000000000000000000 DUP2 MSTORE PUSH1 0x4 ADD PUSH2 0x11E7 SWAP1 PUSH2 0x2175 JUMP JUMPDEST PUSH1 0x40 MLOAD DUP1 SWAP2 SUB SWAP1 REVERT JUMPDEST PUSH1 0x0 PUSH20 0xFFFFFFFFFFFFFFFFFFFFFFFFFFFFFFFFFFFFFFFF AND DUP3 PUSH20 0xFFFFFFFFFFFFFFFFFFFFFFFFFFFFFFFFFFFFFFFF AND SUB PUSH2 0x125F JUMPI PUSH1 0x40 MLOAD PUSH32 0x8C379A000000000000000000000000000000000000000000000000000000000 DUP2 MSTORE PUSH1 0x4 ADD PUSH2 0x1256 SWAP1 PUSH2 0x2207 JUMP JUMPDEST PUSH1 0x40 MLOAD DUP1 SWAP2 SUB SWAP1 REVERT JUMPDEST DUP1 PUSH1 0x1 PUSH1 0x0 DUP6 PUSH20 0xFFFFFFFFFFFFFFFFFFFFFFFFFFFFFFFFFFFFFFFF AND PUSH20 0xFFFFFFFFFFFFFFFFFFFFFFFFFFFFFFFFFFFFFFFF AND DUP2 MSTORE PUSH1 0x20 ADD SWAP1 DUP2 MSTORE PUSH1 0x20 ADD PUSH1 0x0 KECCAK256 PUSH1 0x0 DUP5 PUSH20 0xFFFFFFFFFFFFFFFFFFFFFFFFFFFFFFFFFFFFFFFF AND PUSH20 0xFFFFFFFFFFFFFFFFFFFFFFFFFFFFFFFFFFFFFFFF AND DUP2 MSTORE PUSH1 0x20 ADD SWAP1 DUP2 MSTORE PUSH1 0x20 ADD PUSH1 0x0 KECCAK256 DUP2 SWAP1 SSTORE POP DUP2 PUSH20 0xFFFFFFFFFFFFFFFFFFFFFFFFFFFFFFFFFFFFFFFF AND DUP4 PUSH20 0xFFFFFFFFFFFFFFFFFFFFFFFFFFFFFFFFFFFFFFFF AND PUSH32 0x8C5BE1E5EBEC7D5BD14F71427D1E84F3DD0314C0F7B2291E5B200AC8C7C3B925 DUP4 PUSH1 0x40 MLOAD PUSH2 0x133D SWAP2 SWAP1 PUSH2 0x195F JUMP JUMPDEST PUSH1 0x40 MLOAD DUP1 SWAP2 SUB SWAP1 LOG3 POP POP POP JUMP JUMPDEST PUSH1 0x0 PUSH20 0xFFFFFFFFFFFFFFFFFFFFFFFFFFFFFFFFFFFFFFFF AND DUP4 PUSH20 0xFFFFFFFFFFFFFFFFFFFFFFFFFFFFFFFFFFFFFFFF AND SUB PUSH2 0x13B9 JUMPI PUSH1 0x40 MLOAD PUSH32 0x8C379A000000000000000000000000000000000000000000000000000000000 DUP2 MSTORE PUSH1 0x4 ADD PUSH2 0x13B0 SWAP1 PUSH2 0x2299 JUMP JUMPDEST PUSH1 0x40 MLOAD DUP1 SWAP2 SUB SWAP1 REVERT JUMPDEST PUSH1 0x0 PUSH20 0xFFFFFFFFFFFFFFFFFFFFFFFFFFFFFFFFFFFFFFFF AND DUP3 PUSH20 0xFFFFFFFFFFFFFFFFFFFFFFFFFFFFFFFFFFFFFFFF AND SUB PUSH2 0x1428 JUMPI PUSH1 0x40 MLOAD PUSH32 0x8C379A000000000000000000000000000000000000000000000000000000000 DUP2 MSTORE PUSH1 0x4 ADD PUSH2 0x141F SWAP1 PUSH2 0x232B JUMP JUMPDEST PUSH1 0x40 MLOAD DUP1 SWAP2 SUB SWAP1 REVERT JUMPDEST PUSH2 0x1433 DUP4 DUP4 DUP4 PUSH2 0x177C JUMP JUMPDEST PUSH1 0x0 DUP1 PUSH1 0x0 DUP6 PUSH20 0xFFFFFFFFFFFFFFFFFFFFFFFFFFFFFFFFFFFFFFFF AND PUSH20 0xFFFFFFFFFFFFFFFFFFFFFFFFFFFFFFFFFFFFFFFF AND DUP2 MSTORE PUSH1 0x20 ADD SWAP1 DUP2 MSTORE PUSH1 0x20 ADD PUSH1 0x0 KECCAK256 SLOAD SWAP1 POP DUP2 DUP2 LT ISZERO PUSH2 0x14B9 JUMPI PUSH1 0x40 MLOAD PUSH32 0x8C379A000000000000000000000000000000000000000000000000000000000 DUP2 MSTORE PUSH1 0x4 ADD PUSH2 0x14B0 SWAP1 PUSH2 0x23BD JUMP JUMPDEST PUSH1 0x40 MLOAD DUP1 SWAP2 SUB SWAP1 REVERT JUMPDEST DUP2 DUP2 SUB PUSH1 0x0 DUP1 DUP7 PUSH20 0xFFFFFFFFFFFFFFFFFFFFFFFFFFFFFFFFFFFFFFFF AND PUSH20 0xFFFFFFFFFFFFFFFFFFFFFFFFFFFFFFFFFFFFFFFF AND DUP2 MSTORE PUSH1 0x20 ADD SWAP1 DUP2 MSTORE PUSH1 0x20 ADD PUSH1 0x0 KECCAK256 DUP2 SWAP1 SSTORE POP DUP2 PUSH1 0x0 DUP1 DUP6 PUSH20 0xFFFFFFFFFFFFFFFFFFFFFFFFFFFFFFFFFFFFFFFF AND PUSH20 0xFFFFFFFFFFFFFFFFFFFFFFFFFFFFFFFFFFFFFFFF AND DUP2 MSTORE PUSH1 0x20 ADD SWAP1 DUP2 MSTORE PUSH1 0x20 ADD PUSH1 0x0 KECCAK256 PUSH1 0x0 DUP3 DUP3 SLOAD PUSH2 0x154C SWAP2 SWAP1 PUSH2 0x1C9A JUMP JUMPDEST SWAP3 POP POP DUP2 SWAP1 SSTORE POP DUP3 PUSH20 0xFFFFFFFFFFFFFFFFFFFFFFFFFFFFFFFFFFFFFFFF AND DUP5 PUSH20 0xFFFFFFFFFFFFFFFFFFFFFFFFFFFFFFFFFFFFFFFF AND PUSH32 0xDDF252AD1BE2C89B69C2B068FC378DAA952BA7F163C4A11628F55A4DF523B3EF DUP5 PUSH1 0x40 MLOAD PUSH2 0x15B0 SWAP2 SWAP1 PUSH2 0x195F JUMP JUMPDEST PUSH1 0x40 MLOAD DUP1 SWAP2 SUB SWAP1 LOG3 PUSH2 0x15C3 DUP5 DUP5 DUP5 PUSH2 0x1781 JUMP JUMPDEST POP POP POP POP JUMP JUMPDEST PUSH1 0x0 DUP1 PUSH1 0x0 PUSH1 0xA PUSH1 0x0 PUSH1 0x6 SLOAD DUP2 MSTORE PUSH1 0x20 ADD SWAP1 DUP2 MSTORE PUSH1 0x20 ADD PUSH1 0x0 KECCAK256 PUSH1 0x0 ADD PUSH1 0x0 SWAP1 SLOAD SWAP1 PUSH2 0x100 EXP SWAP1 DIV PUSH20 0xFFFFFFFFFFFFFFFFFFFFFFFFFFFFFFFFFFFFFFFF AND SWAP1 POP PUSH1 0x1 ISZERO ISZERO PUSH1 0xA PUSH1 0x0 DUP8 DUP2 MSTORE PUSH1 0x20 ADD SWAP1 DUP2 MSTORE PUSH1 0x20 ADD PUSH1 0x0 KECCAK256 PUSH1 0x0 ADD PUSH1 0x14 SWAP1 SLOAD SWAP1 PUSH2 0x100 EXP SWAP1 DIV PUSH1 0xFF AND ISZERO ISZERO EQ DUP1 ISZERO PUSH2 0x1682 JUMPI POP PUSH1 0x0 PUSH1 0x9 PUSH1 0x0 DUP4 PUSH20 0xFFFFFFFFFFFFFFFFFFFFFFFFFFFFFFFFFFFFFFFF AND PUSH20 0xFFFFFFFFFFFFFFFFFFFFFFFFFFFFFFFFFFFFFFFF AND DUP2 MSTORE PUSH1 0x20 ADD SWAP1 DUP2 MSTORE PUSH1 0x20 ADD PUSH1 0x0 KECCAK256 PUSH1 0x0 ADD SLOAD GT JUMPDEST ISZERO PUSH2 0x172C JUMPI DUP4 PUSH2 0x16C9 PUSH1 0xA PUSH1 0x0 PUSH1 0x6 SLOAD DUP2 MSTORE PUSH1 0x20 ADD SWAP1 DUP2 MSTORE PUSH1 0x20 ADD PUSH1 0x0 KECCAK256 PUSH1 0x0 ADD PUSH1 0x0 SWAP1 SLOAD SWAP1 PUSH2 0x100 EXP SWAP1 DIV PUSH20 0xFFFFFFFFFFFFFFFFFFFFFFFFFFFFFFFFFFFFFFFF AND PUSH2 0x83B JUMP JUMPDEST PUSH2 0x16D3 SWAP2 SWAP1 PUSH2 0x23DD JUMP JUMPDEST PUSH1 0x9 PUSH1 0x0 DUP4 PUSH20 0xFFFFFFFFFFFFFFFFFFFFFFFFFFFFFFFFFFFFFFFF AND PUSH20 0xFFFFFFFFFFFFFFFFFFFFFFFFFFFFFFFFFFFFFFFF AND DUP2 MSTORE PUSH1 0x20 ADD SWAP1 DUP2 MSTORE PUSH1 0x20 ADD PUSH1 0x0 KECCAK256 PUSH1 0x0 ADD PUSH1 0x0 DUP3 DUP3 SLOAD PUSH2 0x1724 SWAP2 SWAP1 PUSH2 0x1C9A JUMP JUMPDEST SWAP3 POP POP DUP2 SWAP1 SSTORE POP JUMPDEST DUP5 PUSH1 0x9 PUSH1 0x0 DUP4 PUSH20 0xFFFFFFFFFFFFFFFFFFFFFFFFFFFFFFFFFFFFFFFF AND PUSH20 0xFFFFFFFFFFFFFFFFFFFFFFFFFFFFFFFFFFFFFFFF AND DUP2 MSTORE PUSH1 0x20 ADD SWAP1 DUP2 MSTORE PUSH1 0x20 ADD PUSH1 0x0 KECCAK256 PUSH1 0x0 ADD SLOAD SWAP3 POP SWAP3 POP POP SWAP3 POP SWAP3 SWAP1 POP JUMP JUMPDEST POP POP POP JUMP JUMPDEST POP POP POP JUMP JUMPDEST PUSH1 0x0 DUP2 MLOAD SWAP1 POP SWAP2 SWAP1 POP JUMP JUMPDEST PUSH1 0x0 DUP3 DUP3 MSTORE PUSH1 0x20 DUP3 ADD SWAP1 POP SWAP3 SWAP2 POP POP JUMP JUMPDEST PUSH1 0x0 JUMPDEST DUP4 DUP2 LT ISZERO PUSH2 0x17C0 JUMPI DUP1 DUP3 ADD MLOAD DUP2 DUP5 ADD MSTORE PUSH1 0x20 DUP2 ADD SWAP1 POP PUSH2 0x17A5 JUMP JUMPDEST DUP4 DUP2 GT ISZERO PUSH2 0x17CF JUMPI PUSH1 0x0 DUP5 DUP5 ADD MSTORE JUMPDEST POP POP POP POP JUMP JUMPDEST PUSH1 0x0 PUSH1 0x1F NOT PUSH1 0x1F DUP4 ADD AND SWAP1 POP SWAP2 SWAP1 POP JUMP JUMPDEST PUSH1 0x0 PUSH2 0x17F1 DUP3 PUSH2 0x1786 JUMP JUMPDEST PUSH2 0x17FB DUP2 DUP6 PUSH2 0x1791 JUMP JUMPDEST SWAP4 POP PUSH2 0x180B DUP2 DUP6 PUSH1 0x20 DUP7 ADD PUSH2 0x17A2 JUMP JUMPDEST PUSH2 0x1814 DUP2 PUSH2 0x17D5 JUMP JUMPDEST DUP5 ADD SWAP2 POP POP SWAP3 SWAP2 POP POP JUMP JUMPDEST PUSH1 0x0 PUSH1 0x20 DUP3 ADD SWAP1 POP DUP2 DUP2 SUB PUSH1 0x0 DUP4 ADD MSTORE PUSH2 0x1839 DUP2 DUP5 PUSH2 0x17E6 JUMP JUMPDEST SWAP1 POP SWAP3 SWAP2 POP POP JUMP JUMPDEST PUSH1 0x0 DUP1 REVERT JUMPDEST PUSH1 0x0 PUSH20 0xFFFFFFFFFFFFFFFFFFFFFFFFFFFFFFFFFFFFFFFF DUP3 AND SWAP1 POP SWAP2 SWAP1 POP JUMP JUMPDEST PUSH1 0x0 PUSH2 0x1871 DUP3 PUSH2 0x1846 JUMP JUMPDEST SWAP1 POP SWAP2 SWAP1 POP JUMP JUMPDEST PUSH2 0x1881 DUP2 PUSH2 0x1866 JUMP JUMPDEST DUP2 EQ PUSH2 0x188C JUMPI PUSH1 0x0 DUP1 REVERT JUMPDEST POP JUMP JUMPDEST PUSH1 0x0 DUP2 CALLDATALOAD SWAP1 POP PUSH2 0x189E DUP2 PUSH2 0x1878 JUMP JUMPDEST SWAP3 SWAP2 POP POP JUMP JUMPDEST PUSH1 0x0 DUP2 SWAP1 POP SWAP2 SWAP1 POP JUMP JUMPDEST PUSH2 0x18B7 DUP2 PUSH2 0x18A4 JUMP JUMPDEST DUP2 EQ PUSH2 0x18C2 JUMPI PUSH1 0x0 DUP1 REVERT JUMPDEST POP JUMP JUMPDEST PUSH1 0x0 DUP2 CALLDATALOAD SWAP1 POP PUSH2 0x18D4 DUP2 PUSH2 0x18AE JUMP JUMPDEST SWAP3 SWAP2 POP POP JUMP JUMPDEST PUSH1 0x0 DUP1 PUSH1 0x40 DUP4 DUP6 SUB SLT ISZERO PUSH2 0x18F1 JUMPI PUSH2 0x18F0 PUSH2 0x1841 JUMP JUMPDEST JUMPDEST PUSH1 0x0 PUSH2 0x18FF DUP6 DUP3 DUP7 ADD PUSH2 0x188F JUMP JUMPDEST SWAP3 POP POP PUSH1 0x20 PUSH2 0x1910 DUP6 DUP3 DUP7 ADD PUSH2 0x18C5 JUMP JUMPDEST SWAP2 POP POP SWAP3 POP SWAP3 SWAP1 POP JUMP JUMPDEST PUSH1 0x0 DUP2 ISZERO ISZERO SWAP1 POP SWAP2 SWAP1 POP JUMP JUMPDEST PUSH2 0x192F DUP2 PUSH2 0x191A JUMP JUMPDEST DUP3 MSTORE POP POP JUMP JUMPDEST PUSH1 0x0 PUSH1 0x20 DUP3 ADD SWAP1 POP PUSH2 0x194A PUSH1 0x0 DUP4 ADD DUP5 PUSH2 0x1926 JUMP JUMPDEST SWAP3 SWAP2 POP POP JUMP JUMPDEST PUSH2 0x1959 DUP2 PUSH2 0x18A4 JUMP JUMPDEST DUP3 MSTORE POP POP JUMP JUMPDEST PUSH1 0x0 PUSH1 0x20 DUP3 ADD SWAP1 POP PUSH2 0x1974 PUSH1 0x0 DUP4 ADD DUP5 PUSH2 0x1950 JUMP JUMPDEST SWAP3 SWAP2 POP POP JUMP JUMPDEST PUSH1 0x0 PUSH1 0x20 DUP3 DUP5 SUB SLT ISZERO PUSH2 0x1990 JUMPI PUSH2 0x198F PUSH2 0x1841 JUMP JUMPDEST JUMPDEST PUSH1 0x0 PUSH2 0x199E DUP5 DUP3 DUP6 ADD PUSH2 0x18C5 JUMP JUMPDEST SWAP2 POP POP SWAP3 SWAP2 POP POP JUMP JUMPDEST PUSH2 0x19B0 DUP2 PUSH2 0x1866 JUMP JUMPDEST DUP3 MSTORE POP POP JUMP JUMPDEST PUSH1 0x0 PUSH1 0x40 DUP3 ADD SWAP1 POP PUSH2 0x19CB PUSH1 0x0 DUP4 ADD DUP6 PUSH2 0x19A7 JUMP JUMPDEST PUSH2 0x19D8 PUSH1 0x20 DUP4 ADD DUP5 PUSH2 0x1926 JUMP JUMPDEST SWAP4 SWAP3 POP POP POP JUMP JUMPDEST PUSH1 0x0 DUP1 PUSH1 0x0 PUSH1 0x60 DUP5 DUP7 SUB SLT ISZERO PUSH2 0x19F8 JUMPI PUSH2 0x19F7 PUSH2 0x1841 JUMP JUMPDEST JUMPDEST PUSH1 0x0 PUSH2 0x1A06 DUP7 DUP3 DUP8 ADD PUSH2 0x188F JUMP JUMPDEST SWAP4 POP POP PUSH1 0x20 PUSH2 0x1A17 DUP7 DUP3 DUP8 ADD PUSH2 0x188F JUMP JUMPDEST SWAP3 POP POP PUSH1 0x40 PUSH2 0x1A28 DUP7 DUP3 DUP8 ADD PUSH2 0x18C5 JUMP JUMPDEST SWAP2 POP POP SWAP3 POP SWAP3 POP SWAP3 JUMP JUMPDEST PUSH1 0x0 PUSH1 0xFF DUP3 AND SWAP1 POP SWAP2 SWAP1 POP JUMP JUMPDEST PUSH2 0x1A48 DUP2 PUSH2 0x1A32 JUMP JUMPDEST DUP3 MSTORE POP POP JUMP JUMPDEST PUSH1 0x0 PUSH1 0x20 DUP3 ADD SWAP1 POP PUSH2 0x1A63 PUSH1 0x0 DUP4 ADD DUP5 PUSH2 0x1A3F JUMP JUMPDEST SWAP3 SWAP2 POP POP JUMP JUMPDEST PUSH1 0x0 PUSH1 0x20 DUP3 DUP5 SUB SLT ISZERO PUSH2 0x1A7F JUMPI PUSH2 0x1A7E PUSH2 0x1841 JUMP JUMPDEST JUMPDEST PUSH1 0x0 PUSH2 0x1A8D DUP5 DUP3 DUP6 ADD PUSH2 0x188F JUMP JUMPDEST SWAP2 POP POP SWAP3 SWAP2 POP POP JUMP JUMPDEST PUSH1 0x0 PUSH1 0x40 DUP3 ADD SWAP1 POP PUSH2 0x1AAB PUSH1 0x0 DUP4 ADD DUP6 PUSH2 0x1950 JUMP JUMPDEST PUSH2 0x1AB8 PUSH1 0x20 DUP4 ADD DUP5 PUSH2 0x1926 JUMP JUMPDEST SWAP4 SWAP3 POP POP POP JUMP JUMPDEST PUSH1 0x0 DUP2 SWAP1 POP SWAP2 SWAP1 POP JUMP JUMPDEST PUSH1 0x0 PUSH2 0x1AE4 PUSH2 0x1ADF PUSH2 0x1ADA DUP5 PUSH2 0x1846 JUMP JUMPDEST PUSH2 0x1ABF JUMP JUMPDEST PUSH2 0x1846 JUMP JUMPDEST SWAP1 POP SWAP2 SWAP1 POP JUMP JUMPDEST PUSH1 0x0 PUSH2 0x1AF6 DUP3 PUSH2 0x1AC9 JUMP JUMPDEST SWAP1 POP SWAP2 SWAP1 POP JUMP JUMPDEST PUSH1 0x0 PUSH2 0x1B08 DUP3 PUSH2 0x1AEB JUMP JUMPDEST SWAP1 POP SWAP2 SWAP1 POP JUMP JUMPDEST PUSH2 0x1B18 DUP2 PUSH2 0x1AFD JUMP JUMPDEST DUP3 MSTORE POP POP JUMP JUMPDEST PUSH1 0x0 PUSH1 0x20 DUP3 ADD SWAP1 POP PUSH2 0x1B33 PUSH1 0x0 DUP4 ADD DUP5 PUSH2 0x1B0F JUMP JUMPDEST SWAP3 SWAP2 POP POP JUMP JUMPDEST PUSH1 0x0 DUP1 PUSH1 0x40 DUP4 DUP6 SUB SLT ISZERO PUSH2 0x1B50 JUMPI PUSH2 0x1B4F PUSH2 0x1841 JUMP JUMPDEST JUMPDEST PUSH1 0x0 PUSH2 0x1B5E DUP6 DUP3 DUP7 ADD PUSH2 0x188F JUMP JUMPDEST SWAP3 POP POP PUSH1 0x20 PUSH2 0x1B6F DUP6 DUP3 DUP7 ADD PUSH2 0x188F JUMP JUMPDEST SWAP2 POP POP SWAP3 POP SWAP3 SWAP1 POP JUMP JUMPDEST PUSH32 0x4E487B7100000000000000000000000000000000000000000000000000000000 PUSH1 0x0 MSTORE PUSH1 0x22 PUSH1 0x4 MSTORE PUSH1 0x24 PUSH1 0x0 REVERT JUMPDEST PUSH1 0x0 PUSH1 0x2 DUP3 DIV SWAP1 POP PUSH1 0x1 DUP3 AND DUP1 PUSH2 0x1BC0 JUMPI PUSH1 0x7F DUP3 AND SWAP2 POP JUMPDEST PUSH1 0x20 DUP3 LT DUP2 SUB PUSH2 0x1BD3 JUMPI PUSH2 0x1BD2 PUSH2 0x1B79 JUMP JUMPDEST JUMPDEST POP SWAP2 SWAP1 POP JUMP JUMPDEST PUSH32 0x45524332303A207472616E7366657220616D6F756E7420657863656564732061 PUSH1 0x0 DUP3 ADD MSTORE PUSH32 0x6C6C6F77616E6365000000000000000000000000000000000000000000000000 PUSH1 0x20 DUP3 ADD MSTORE POP JUMP JUMPDEST PUSH1 0x0 PUSH2 0x1C35 PUSH1 0x28 DUP4 PUSH2 0x1791 JUMP JUMPDEST SWAP2 POP PUSH2 0x1C40 DUP3 PUSH2 0x1BD9 JUMP JUMPDEST PUSH1 0x40 DUP3 ADD SWAP1 POP SWAP2 SWAP1 POP JUMP JUMPDEST PUSH1 0x0 PUSH1 0x20 DUP3 ADD SWAP1 POP DUP2 DUP2 SUB PUSH1 0x0 DUP4 ADD MSTORE PUSH2 0x1C64 DUP2 PUSH2 0x1C28 JUMP JUMPDEST SWAP1 POP SWAP2 SWAP1 POP JUMP JUMPDEST PUSH32 0x4E487B7100000000000000000000000000000000000000000000000000000000 PUSH1 0x0 MSTORE PUSH1 0x11 PUSH1 0x4 MSTORE PUSH1 0x24 PUSH1 0x0 REVERT JUMPDEST PUSH1 0x0 PUSH2 0x1CA5 DUP3 PUSH2 0x18A4 JUMP JUMPDEST SWAP2 POP PUSH2 0x1CB0 DUP4 PUSH2 0x18A4 JUMP JUMPDEST SWAP3 POP DUP3 PUSH32 0xFFFFFFFFFFFFFFFFFFFFFFFFFFFFFFFFFFFFFFFFFFFFFFFFFFFFFFFFFFFFFFFF SUB DUP3 GT ISZERO PUSH2 0x1CE5 JUMPI PUSH2 0x1CE4 PUSH2 0x1C6B JUMP JUMPDEST JUMPDEST DUP3 DUP3 ADD SWAP1 POP SWAP3 SWAP2 POP POP JUMP JUMPDEST PUSH32 0x75736572206E6F74207265676973746572640000000000000000000000000000 PUSH1 0x0 DUP3 ADD MSTORE POP JUMP JUMPDEST PUSH1 0x0 PUSH2 0x1D26 PUSH1 0x12 DUP4 PUSH2 0x1791 JUMP JUMPDEST SWAP2 POP PUSH2 0x1D31 DUP3 PUSH2 0x1CF0 JUMP JUMPDEST PUSH1 0x20 DUP3 ADD SWAP1 POP SWAP2 SWAP1 POP JUMP JUMPDEST PUSH1 0x0 PUSH1 0x20 DUP3 ADD SWAP1 POP DUP2 DUP2 SUB PUSH1 0x0 DUP4 ADD MSTORE PUSH2 0x1D55 DUP2 PUSH2 0x1D19 JUMP JUMPDEST SWAP1 POP SWAP2 SWAP1 POP JUMP JUMPDEST PUSH32 0x7573657220616C72656164792065786973740000000000000000000000000000 PUSH1 0x0 DUP3 ADD MSTORE POP JUMP JUMPDEST PUSH1 0x0 PUSH2 0x1D92 PUSH1 0x12 DUP4 PUSH2 0x1791 JUMP JUMPDEST SWAP2 POP PUSH2 0x1D9D DUP3 PUSH2 0x1D5C JUMP JUMPDEST PUSH1 0x20 DUP3 ADD SWAP1 POP SWAP2 SWAP1 POP JUMP JUMPDEST PUSH1 0x0 PUSH1 0x20 DUP3 ADD SWAP1 POP DUP2 DUP2 SUB PUSH1 0x0 DUP4 ADD MSTORE PUSH2 0x1DC1 DUP2 PUSH2 0x1D85 JUMP JUMPDEST SWAP1 POP SWAP2 SWAP1 POP JUMP JUMPDEST PUSH1 0x0 PUSH2 0x1DD3 DUP3 PUSH2 0x18A4 JUMP JUMPDEST SWAP2 POP PUSH32 0xFFFFFFFFFFFFFFFFFFFFFFFFFFFFFFFFFFFFFFFFFFFFFFFFFFFFFFFFFFFFFFFF DUP3 SUB PUSH2 0x1E05 JUMPI PUSH2 0x1E04 PUSH2 0x1C6B JUMP JUMPDEST JUMPDEST PUSH1 0x1 DUP3 ADD SWAP1 POP SWAP2 SWAP1 POP JUMP JUMPDEST PUSH1 0x0 DUP2 PUSH1 0x60 SHL SWAP1 POP SWAP2 SWAP1 POP JUMP JUMPDEST PUSH1 0x0 PUSH2 0x1E28 DUP3 PUSH2 0x1E10 JUMP JUMPDEST SWAP1 POP SWAP2 SWAP1 POP JUMP JUMPDEST PUSH1 0x0 PUSH2 0x1E3A DUP3 PUSH2 0x1E1D JUMP JUMPDEST SWAP1 POP SWAP2 SWAP1 POP JUMP JUMPDEST PUSH2 0x1E52 PUSH2 0x1E4D DUP3 PUSH2 0x1866 JUMP JUMPDEST PUSH2 0x1E2F JUMP JUMPDEST DUP3 MSTORE POP POP JUMP JUMPDEST PUSH1 0x0 PUSH2 0x1E64 DUP3 DUP5 PUSH2 0x1E41 JUMP JUMPDEST PUSH1 0x14 DUP3 ADD SWAP2 POP DUP2 SWAP1 POP SWAP3 SWAP2 POP POP JUMP JUMPDEST PUSH32 0x4E487B7100000000000000000000000000000000000000000000000000000000 PUSH1 0x0 MSTORE PUSH1 0x32 PUSH1 0x4 MSTORE PUSH1 0x24 PUSH1 0x0 REVERT JUMPDEST PUSH1 0x0 PUSH2 0x1EAD DUP3 PUSH2 0x1E1D JUMP JUMPDEST SWAP1 POP SWAP2 SWAP1 POP JUMP JUMPDEST PUSH2 0x1EC5 PUSH2 0x1EC0 DUP3 PUSH2 0x1AFD JUMP JUMPDEST PUSH2 0x1EA2 JUMP JUMPDEST DUP3 MSTORE POP POP JUMP JUMPDEST PUSH1 0x0 PUSH2 0x1ED7 DUP3 DUP5 PUSH2 0x1EB4 JUMP JUMPDEST PUSH1 0x14 DUP3 ADD SWAP2 POP DUP2 SWAP1 POP SWAP3 SWAP2 POP POP JUMP JUMPDEST PUSH32 0x4F6E6C7920436F6E747261637420636F696E62616E6B2063616E206578656375 PUSH1 0x0 DUP3 ADD MSTORE PUSH32 0x746520746869732066756E6374696F6E00000000000000000000000000000000 PUSH1 0x20 DUP3 ADD MSTORE POP JUMP JUMPDEST PUSH1 0x0 PUSH2 0x1F42 PUSH1 0x30 DUP4 PUSH2 0x1791 JUMP JUMPDEST SWAP2 POP PUSH2 0x1F4D DUP3 PUSH2 0x1EE6 JUMP JUMPDEST PUSH1 0x40 DUP3 ADD SWAP1 POP SWAP2 SWAP1 POP JUMP JUMPDEST PUSH1 0x0 PUSH1 0x20 DUP3 ADD SWAP1 POP DUP2 DUP2 SUB PUSH1 0x0 DUP4 ADD MSTORE PUSH2 0x1F71 DUP2 PUSH2 0x1F35 JUMP JUMPDEST SWAP1 POP SWAP2 SWAP1 POP JUMP JUMPDEST PUSH1 0x0 PUSH2 0x1F83 DUP3 PUSH2 0x18A4 JUMP JUMPDEST SWAP2 POP PUSH2 0x1F8E DUP4 PUSH2 0x18A4 JUMP JUMPDEST SWAP3 POP DUP3 DUP3 LT ISZERO PUSH2 0x1FA1 JUMPI PUSH2 0x1FA0 PUSH2 0x1C6B JUMP JUMPDEST JUMPDEST DUP3 DUP3 SUB SWAP1 POP SWAP3 SWAP2 POP POP JUMP JUMPDEST PUSH2 0x1FB5 DUP2 PUSH2 0x191A JUMP JUMPDEST DUP2 EQ PUSH2 0x1FC0 JUMPI PUSH1 0x0 DUP1 REVERT JUMPDEST POP JUMP JUMPDEST PUSH1 0x0 DUP2 MLOAD SWAP1 POP PUSH2 0x1FD2 DUP2 PUSH2 0x1FAC JUMP JUMPDEST SWAP3 SWAP2 POP POP JUMP JUMPDEST PUSH1 0x0 PUSH1 0x20 DUP3 DUP5 SUB SLT ISZERO PUSH2 0x1FEE JUMPI PUSH2 0x1FED PUSH2 0x1841 JUMP JUMPDEST JUMPDEST PUSH1 0x0 PUSH2 0x1FFC DUP5 DUP3 DUP6 ADD PUSH2 0x1FC3 JUMP JUMPDEST SWAP2 POP POP SWAP3 SWAP2 POP POP JUMP JUMPDEST PUSH32 0x45524332303A2064656372656173656420616C6C6F77616E63652062656C6F77 PUSH1 0x0 DUP3 ADD MSTORE PUSH32 0x207A65726F000000000000000000000000000000000000000000000000000000 PUSH1 0x20 DUP3 ADD MSTORE POP JUMP JUMPDEST PUSH1 0x0 PUSH2 0x2061 PUSH1 0x25 DUP4 PUSH2 0x1791 JUMP JUMPDEST SWAP2 POP PUSH2 0x206C DUP3 PUSH2 0x2005 JUMP JUMPDEST PUSH1 0x40 DUP3 ADD SWAP1 POP SWAP2 SWAP1 POP JUMP JUMPDEST PUSH1 0x0 PUSH1 0x20 DUP3 ADD SWAP1 POP DUP2 DUP2 SUB PUSH1 0x0 DUP4 ADD MSTORE PUSH2 0x2090 DUP2 PUSH2 0x2054 JUMP JUMPDEST SWAP1 POP SWAP2 SWAP1 POP JUMP JUMPDEST PUSH32 0x5573657220646F6573206E6F7420657869737400000000000000000000000000 PUSH1 0x0 DUP3 ADD MSTORE POP JUMP JUMPDEST PUSH1 0x0 PUSH2 0x20CD PUSH1 0x13 DUP4 PUSH2 0x1791 JUMP JUMPDEST SWAP2 POP PUSH2 0x20D8 DUP3 PUSH2 0x2097 JUMP JUMPDEST PUSH1 0x20 DUP3 ADD SWAP1 POP SWAP2 SWAP1 POP JUMP JUMPDEST PUSH1 0x0 PUSH1 0x20 DUP3 ADD SWAP1 POP DUP2 DUP2 SUB PUSH1 0x0 DUP4 ADD MSTORE PUSH2 0x20FC DUP2 PUSH2 0x20C0 JUMP JUMPDEST SWAP1 POP SWAP2 SWAP1 POP JUMP JUMPDEST PUSH32 0x45524332303A20617070726F76652066726F6D20746865207A65726F20616464 PUSH1 0x0 DUP3 ADD MSTORE PUSH32 0x7265737300000000000000000000000000000000000000000000000000000000 PUSH1 0x20 DUP3 ADD MSTORE POP JUMP JUMPDEST PUSH1 0x0 PUSH2 0x215F PUSH1 0x24 DUP4 PUSH2 0x1791 JUMP JUMPDEST SWAP2 POP PUSH2 0x216A DUP3 PUSH2 0x2103 JUMP JUMPDEST PUSH1 0x40 DUP3 ADD SWAP1 POP SWAP2 SWAP1 POP JUMP JUMPDEST PUSH1 0x0 PUSH1 0x20 DUP3 ADD SWAP1 POP DUP2 DUP2 SUB PUSH1 0x0 DUP4 ADD MSTORE PUSH2 0x218E DUP2 PUSH2 0x2152 JUMP JUMPDEST SWAP1 POP SWAP2 SWAP1 POP JUMP JUMPDEST PUSH32 0x45524332303A20617070726F766520746F20746865207A65726F206164647265 PUSH1 0x0 DUP3 ADD MSTORE PUSH32 0x7373000000000000000000000000000000000000000000000000000000000000 PUSH1 0x20 DUP3 ADD MSTORE POP JUMP JUMPDEST PUSH1 0x0 PUSH2 0x21F1 PUSH1 0x22 DUP4 PUSH2 0x1791 JUMP JUMPDEST SWAP2 POP PUSH2 0x21FC DUP3 PUSH2 0x2195 JUMP JUMPDEST PUSH1 0x40 DUP3 ADD SWAP1 POP SWAP2 SWAP1 POP JUMP JUMPDEST PUSH1 0x0 PUSH1 0x20 DUP3 ADD SWAP1 POP DUP2 DUP2 SUB PUSH1 0x0 DUP4 ADD MSTORE PUSH2 0x2220 DUP2 PUSH2 0x21E4 JUMP JUMPDEST SWAP1 POP SWAP2 SWAP1 POP JUMP JUMPDEST PUSH32 0x45524332303A207472616E736665722066726F6D20746865207A65726F206164 PUSH1 0x0 DUP3 ADD MSTORE PUSH32 0x6472657373000000000000000000000000000000000000000000000000000000 PUSH1 0x20 DUP3 ADD MSTORE POP JUMP JUMPDEST PUSH1 0x0 PUSH2 0x2283 PUSH1 0x25 DUP4 PUSH2 0x1791 JUMP JUMPDEST SWAP2 POP PUSH2 0x228E DUP3 PUSH2 0x2227 JUMP JUMPDEST PUSH1 0x40 DUP3 ADD SWAP1 POP SWAP2 SWAP1 POP JUMP JUMPDEST PUSH1 0x0 PUSH1 0x20 DUP3 ADD SWAP1 POP DUP2 DUP2 SUB PUSH1 0x0 DUP4 ADD MSTORE PUSH2 0x22B2 DUP2 PUSH2 0x2276 JUMP JUMPDEST SWAP1 POP SWAP2 SWAP1 POP JUMP JUMPDEST PUSH32 0x45524332303A207472616E7366657220746F20746865207A65726F2061646472 PUSH1 0x0 DUP3 ADD MSTORE PUSH32 0x6573730000000000000000000000000000000000000000000000000000000000 PUSH1 0x20 DUP3 ADD MSTORE POP JUMP JUMPDEST PUSH1 0x0 PUSH2 0x2315 PUSH1 0x23 DUP4 PUSH2 0x1791 JUMP JUMPDEST SWAP2 POP PUSH2 0x2320 DUP3 PUSH2 0x22B9 JUMP JUMPDEST PUSH1 0x40 DUP3 ADD SWAP1 POP SWAP2 SWAP1 POP JUMP JUMPDEST PUSH1 0x0 PUSH1 0x20 DUP3 ADD SWAP1 POP DUP2 DUP2 SUB PUSH1 0x0 DUP4 ADD MSTORE PUSH2 0x2344 DUP2 PUSH2 0x2308 JUMP JUMPDEST SWAP1 POP SWAP2 SWAP1 POP JUMP JUMPDEST PUSH32 0x45524332303A207472616E7366657220616D6F756E7420657863656564732062 PUSH1 0x0 DUP3 ADD MSTORE PUSH32 0x616C616E63650000000000000000000000000000000000000000000000000000 PUSH1 0x20 DUP3 ADD MSTORE POP JUMP JUMPDEST PUSH1 0x0 PUSH2 0x23A7 PUSH1 0x26 DUP4 PUSH2 0x1791 JUMP JUMPDEST SWAP2 POP PUSH2 0x23B2 DUP3 PUSH2 0x234B JUMP JUMPDEST PUSH1 0x40 DUP3 ADD SWAP1 POP SWAP2 SWAP1 POP JUMP JUMPDEST PUSH1 0x0 PUSH1 0x20 DUP3 ADD SWAP1 POP DUP2 DUP2 SUB PUSH1 0x0 DUP4 ADD MSTORE PUSH2 0x23D6 DUP2 PUSH2 0x239A JUMP JUMPDEST SWAP1 POP SWAP2 SWAP1 POP JUMP JUMPDEST PUSH1 0x0 PUSH2 0x23E8 DUP3 PUSH2 0x18A4 JUMP JUMPDEST SWAP2 POP PUSH2 0x23F3 DUP4 PUSH2 0x18A4 JUMP JUMPDEST SWAP3 POP DUP2 PUSH32 0xFFFFFFFFFFFFFFFFFFFFFFFFFFFFFFFFFFFFFFFFFFFFFFFFFFFFFFFFFFFFFFFF DIV DUP4 GT DUP3 ISZERO ISZERO AND ISZERO PUSH2 0x242C JUMPI PUSH2 0x242B PUSH2 0x1C6B JUMP JUMPDEST JUMPDEST DUP3 DUP3 MUL SWAP1 POP SWAP3 SWAP2 POP POP JUMP INVALID LOG2 PUSH5 0x6970667358 0x22 SLT KECCAK256 0xE1 0xBE 0xAE PUSH26 0xBF61CBC771E9BE9E2E5641D3FEDD60FEECF3AFFF84690FC28E9B 0xE PUSH12 0x64736F6C634300080D003360 DUP1 PUSH1 0x40 MSTORE CALLVALUE DUP1 ISZERO PUSH2 0x10 JUMPI PUSH1 0x0 DUP1 REVERT JUMPDEST POP PUSH1 0x40 MLOAD PUSH2 0x7A9 CODESIZE SUB DUP1 PUSH2 0x7A9 DUP4 CODECOPY DUP2 DUP2 ADD PUSH1 0x40 MSTORE DUP2 ADD SWAP1 PUSH2 0x32 SWAP2 SWAP1 PUSH2 0x175 JUMP JUMPDEST PUSH1 0x40 MLOAD DUP1 PUSH1 0x20 ADD PUSH1 0x40 MSTORE DUP1 TIMESTAMP DUP2 MSTORE POP PUSH1 0x4 PUSH1 0x0 DUP5 PUSH20 0xFFFFFFFFFFFFFFFFFFFFFFFFFFFFFFFFFFFFFFFF AND PUSH20 0xFFFFFFFFFFFFFFFFFFFFFFFFFFFFFFFFFFFFFFFF AND DUP2 MSTORE PUSH1 0x20 ADD SWAP1 DUP2 MSTORE PUSH1 0x20 ADD PUSH1 0x0 KECCAK256 PUSH1 0x0 DUP3 ADD MLOAD DUP2 PUSH1 0x0 ADD SSTORE SWAP1 POP POP DUP2 PUSH1 0x3 PUSH1 0x0 PUSH2 0x100 EXP DUP2 SLOAD DUP2 PUSH20 0xFFFFFFFFFFFFFFFFFFFFFFFFFFFFFFFFFFFFFFFF MUL NOT AND SWAP1 DUP4 PUSH20 0xFFFFFFFFFFFFFFFFFFFFFFFFFFFFFFFFFFFFFFFF AND MUL OR SWAP1 SSTORE POP DUP1 PUSH1 0x1 DUP2 SWAP1 SSTORE POP POP POP PUSH2 0x1B5 JUMP JUMPDEST PUSH1 0x0 DUP1 REVERT JUMPDEST PUSH1 0x0 PUSH20 0xFFFFFFFFFFFFFFFFFFFFFFFFFFFFFFFFFFFFFFFF DUP3 AND SWAP1 POP SWAP2 SWAP1 POP JUMP JUMPDEST PUSH1 0x0 PUSH2 0x10C DUP3 PUSH2 0xE1 JUMP JUMPDEST SWAP1 POP SWAP2 SWAP1 POP JUMP JUMPDEST PUSH2 0x11C DUP2 PUSH2 0x101 JUMP JUMPDEST DUP2 EQ PUSH2 0x127 JUMPI PUSH1 0x0 DUP1 REVERT JUMPDEST POP JUMP JUMPDEST PUSH1 0x0 DUP2 MLOAD SWAP1 POP PUSH2 0x139 DUP2 PUSH2 0x113 JUMP JUMPDEST SWAP3 SWAP2 POP POP JUMP JUMPDEST PUSH1 0x0 DUP2 SWAP1 POP SWAP2 SWAP1 POP JUMP JUMPDEST PUSH2 0x152 DUP2 PUSH2 0x13F JUMP JUMPDEST DUP2 EQ PUSH2 0x15D JUMPI PUSH1 0x0 DUP1 REVERT JUMPDEST POP JUMP JUMPDEST PUSH1 0x0 DUP2 MLOAD SWAP1 POP PUSH2 0x16F DUP2 PUSH2 0x149 JUMP JUMPDEST SWAP3 SWAP2 POP POP JUMP JUMPDEST PUSH1 0x0 DUP1 PUSH1 0x40 DUP4 DUP6 SUB SLT ISZERO PUSH2 0x18C JUMPI PUSH2 0x18B PUSH2 0xDC JUMP JUMPDEST JUMPDEST PUSH1 0x0 PUSH2 0x19A DUP6 DUP3 DUP7 ADD PUSH2 0x12A JUMP JUMPDEST SWAP3 POP POP PUSH1 0x20 PUSH2 0x1AB DUP6 DUP3 DUP7 ADD PUSH2 0x160 JUMP JUMPDEST SWAP2 POP POP SWAP3 POP SWAP3 SWAP1 POP JUMP JUMPDEST PUSH2 0x5E5 DUP1 PUSH2 0x1C4 PUSH1 0x0 CODECOPY PUSH1 0x0 RETURN INVALID PUSH1 0x80 PUSH1 0x40 MSTORE PUSH1 0x4 CALLDATASIZE LT PUSH2 0x43 JUMPI PUSH1 0x0 CALLDATALOAD PUSH1 0xE0 SHR DUP1 PUSH4 0x563DF32F EQ PUSH2 0x9D JUMPI DUP1 PUSH4 0x82ADD361 EQ PUSH2 0xC8 JUMPI DUP1 PUSH4 0x91D1A764 EQ PUSH2 0xE6 JUMPI DUP1 PUSH4 0xEE07BF22 EQ PUSH2 0x123 JUMPI PUSH2 0x9B JUMP JUMPDEST CALLDATASIZE PUSH2 0x9B JUMPI PUSH1 0x0 CALLVALUE GT ISZERO PUSH2 0x99 JUMPI ADDRESS PUSH20 0xFFFFFFFFFFFFFFFFFFFFFFFFFFFFFFFFFFFFFFFF AND PUSH2 0x8FC CALLVALUE SWAP1 DUP2 ISZERO MUL SWAP1 PUSH1 0x40 MLOAD PUSH1 0x0 PUSH1 0x40 MLOAD DUP1 DUP4 SUB DUP2 DUP6 DUP9 DUP9 CALL SWAP4 POP POP POP POP ISZERO DUP1 ISZERO PUSH2 0x97 JUMPI RETURNDATASIZE PUSH1 0x0 DUP1 RETURNDATACOPY RETURNDATASIZE PUSH1 0x0 REVERT JUMPDEST POP JUMPDEST STOP JUMPDEST STOP JUMPDEST CALLVALUE DUP1 ISZERO PUSH2 0xA9 JUMPI PUSH1 0x0 DUP1 REVERT JUMPDEST POP PUSH2 0xB2 PUSH2 0x14E JUMP JUMPDEST PUSH1 0x40 MLOAD PUSH2 0xBF SWAP2 SWAP1 PUSH2 0x3BE JUMP JUMPDEST PUSH1 0x40 MLOAD DUP1 SWAP2 SUB SWAP1 RETURN JUMPDEST PUSH2 0xD0 PUSH2 0x174 JUMP JUMPDEST PUSH1 0x40 MLOAD PUSH2 0xDD SWAP2 SWAP1 PUSH2 0x3F4 JUMP JUMPDEST PUSH1 0x40 MLOAD DUP1 SWAP2 SUB SWAP1 RETURN JUMPDEST CALLVALUE DUP1 ISZERO PUSH2 0xF2 JUMPI PUSH1 0x0 DUP1 REVERT JUMPDEST POP PUSH2 0x10D PUSH1 0x4 DUP1 CALLDATASIZE SUB DUP2 ADD SWAP1 PUSH2 0x108 SWAP2 SWAP1 PUSH2 0x440 JUMP JUMPDEST PUSH2 0x289 JUMP JUMPDEST PUSH1 0x40 MLOAD PUSH2 0x11A SWAP2 SWAP1 PUSH2 0x486 JUMP JUMPDEST PUSH1 0x40 MLOAD DUP1 SWAP2 SUB SWAP1 RETURN JUMPDEST CALLVALUE DUP1 ISZERO PUSH2 0x12F JUMPI PUSH1 0x0 DUP1 REVERT JUMPDEST POP PUSH2 0x138 PUSH2 0x2A7 JUMP JUMPDEST PUSH1 0x40 MLOAD PUSH2 0x145 SWAP2 SWAP1 PUSH2 0x486 JUMP JUMPDEST PUSH1 0x40 MLOAD DUP1 SWAP2 SUB SWAP1 RETURN JUMPDEST PUSH1 0x3 PUSH1 0x0 SWAP1 SLOAD SWAP1 PUSH2 0x100 EXP SWAP1 DIV PUSH20 0xFFFFFFFFFFFFFFFFFFFFFFFFFFFFFFFFFFFFFFFF AND DUP2 JUMP JUMPDEST PUSH1 0x0 DUP1 PUSH1 0x0 SWAP1 POP PUSH1 0x4 PUSH1 0x0 PUSH1 0x3 PUSH1 0x0 SWAP1 SLOAD SWAP1 PUSH2 0x100 EXP SWAP1 DIV PUSH20 0xFFFFFFFFFFFFFFFFFFFFFFFFFFFFFFFFFFFFFFFF AND PUSH20 0xFFFFFFFFFFFFFFFFFFFFFFFFFFFFFFFFFFFFFFFF AND PUSH20 0xFFFFFFFFFFFFFFFFFFFFFFFFFFFFFFFFFFFFFFFF AND DUP2 MSTORE PUSH1 0x20 ADD SWAP1 DUP2 MSTORE PUSH1 0x20 ADD PUSH1 0x0 KECCAK256 PUSH1 0x0 ADD SLOAD DUP2 PUSH2 0x1EB SWAP2 SWAP1 PUSH2 0x4D0 JUMP JUMPDEST TIMESTAMP LT PUSH2 0x280 JUMPI PUSH1 0x0 PUSH1 0x1 SLOAD SELFBALANCE PUSH2 0x201 SWAP2 SWAP1 PUSH2 0x555 JUMP JUMPDEST SWAP1 POP PUSH2 0x20C DUP2 PUSH2 0x2AD JUMP JUMPDEST TIMESTAMP PUSH1 0x4 PUSH1 0x0 PUSH1 0x3 PUSH1 0x0 SWAP1 SLOAD SWAP1 PUSH2 0x100 EXP SWAP1 DIV PUSH20 0xFFFFFFFFFFFFFFFFFFFFFFFFFFFFFFFFFFFFFFFF AND PUSH20 0xFFFFFFFFFFFFFFFFFFFFFFFFFFFFFFFFFFFFFFFF AND PUSH20 0xFFFFFFFFFFFFFFFFFFFFFFFFFFFFFFFFFFFFFFFF AND DUP2 MSTORE PUSH1 0x20 ADD SWAP1 DUP2 MSTORE PUSH1 0x20 ADD PUSH1 0x0 KECCAK256 PUSH1 0x0 ADD DUP2 SWAP1 SSTORE POP PUSH1 0x1 SWAP3 POP POP POP PUSH2 0x286 JUMP JUMPDEST PUSH1 0x0 SWAP2 POP POP JUMPDEST SWAP1 JUMP JUMPDEST PUSH1 0x4 PUSH1 0x20 MSTORE DUP1 PUSH1 0x0 MSTORE PUSH1 0x40 PUSH1 0x0 KECCAK256 PUSH1 0x0 SWAP2 POP SWAP1 POP DUP1 PUSH1 0x0 ADD SLOAD SWAP1 POP DUP2 JUMP JUMPDEST PUSH1 0x1 SLOAD DUP2 JUMP JUMPDEST PUSH1 0x0 PUSH1 0x3 PUSH1 0x0 SWAP1 SLOAD SWAP1 PUSH2 0x100 EXP SWAP1 DIV PUSH20 0xFFFFFFFFFFFFFFFFFFFFFFFFFFFFFFFFFFFFFFFF AND SWAP1 POP DUP1 PUSH20 0xFFFFFFFFFFFFFFFFFFFFFFFFFFFFFFFFFFFFFFFF AND PUSH4 0x9A29E6AA DUP4 PUSH1 0x40 MLOAD DUP3 PUSH4 0xFFFFFFFF AND PUSH1 0xE0 SHL DUP2 MSTORE PUSH1 0x4 ADD PUSH2 0x30D SWAP2 SWAP1 PUSH2 0x486 JUMP JUMPDEST PUSH1 0x0 PUSH1 0x40 MLOAD DUP1 DUP4 SUB DUP2 PUSH1 0x0 DUP8 DUP1 EXTCODESIZE ISZERO DUP1 ISZERO PUSH2 0x327 JUMPI PUSH1 0x0 DUP1 REVERT JUMPDEST POP GAS CALL ISZERO DUP1 ISZERO PUSH2 0x33B JUMPI RETURNDATASIZE PUSH1 0x0 DUP1 RETURNDATACOPY RETURNDATASIZE PUSH1 0x0 REVERT JUMPDEST POP POP POP POP PUSH32 0xA45DAC62289018E90B3DC24632D939C6F3545FBC1C00325EE50858F926AFC630 TIMESTAMP PUSH1 0x1 PUSH1 0x40 MLOAD PUSH2 0x371 SWAP3 SWAP2 SWAP1 PUSH2 0x586 JUMP JUMPDEST PUSH1 0x40 MLOAD DUP1 SWAP2 SUB SWAP1 LOG1 POP POP JUMP JUMPDEST PUSH1 0x0 PUSH20 0xFFFFFFFFFFFFFFFFFFFFFFFFFFFFFFFFFFFFFFFF DUP3 AND SWAP1 POP SWAP2 SWAP1 POP JUMP JUMPDEST PUSH1 0x0 PUSH2 0x3A8 DUP3 PUSH2 0x37D JUMP JUMPDEST SWAP1 POP SWAP2 SWAP1 POP JUMP JUMPDEST PUSH2 0x3B8 DUP2 PUSH2 0x39D JUMP JUMPDEST DUP3 MSTORE POP POP JUMP JUMPDEST PUSH1 0x0 PUSH1 0x20 DUP3 ADD SWAP1 POP PUSH2 0x3D3 PUSH1 0x0 DUP4 ADD DUP5 PUSH2 0x3AF JUMP JUMPDEST SWAP3 SWAP2 POP POP JUMP JUMPDEST PUSH1 0x0 DUP2 ISZERO ISZERO SWAP1 POP SWAP2 SWAP1 POP JUMP JUMPDEST PUSH2 0x3EE DUP2 PUSH2 0x3D9 JUMP JUMPDEST DUP3 MSTORE POP POP JUMP JUMPDEST PUSH1 0x0 PUSH1 0x20 DUP3 ADD SWAP1 POP PUSH2 0x409 PUSH1 0x0 DUP4 ADD DUP5 PUSH2 0x3E5 JUMP JUMPDEST SWAP3 SWAP2 POP POP JUMP JUMPDEST PUSH1 0x0 DUP1 REVERT JUMPDEST PUSH2 0x41D DUP2 PUSH2 0x39D JUMP JUMPDEST DUP2 EQ PUSH2 0x428 JUMPI PUSH1 0x0 DUP1 REVERT JUMPDEST POP JUMP JUMPDEST PUSH1 0x0 DUP2 CALLDATALOAD SWAP1 POP PUSH2 0x43A DUP2 PUSH2 0x414 JUMP JUMPDEST SWAP3 SWAP2 POP POP JUMP JUMPDEST PUSH1 0x0 PUSH1 0x20 DUP3 DUP5 SUB SLT ISZERO PUSH2 0x456 JUMPI PUSH2 0x455 PUSH2 0x40F JUMP JUMPDEST JUMPDEST PUSH1 0x0 PUSH2 0x464 DUP5 DUP3 DUP6 ADD PUSH2 0x42B JUMP JUMPDEST SWAP2 POP POP SWAP3 SWAP2 POP POP JUMP JUMPDEST PUSH1 0x0 DUP2 SWAP1 POP SWAP2 SWAP1 POP JUMP JUMPDEST PUSH2 0x480 DUP2 PUSH2 0x46D JUMP JUMPDEST DUP3 MSTORE POP POP JUMP JUMPDEST PUSH1 0x0 PUSH1 0x20 DUP3 ADD SWAP1 POP PUSH2 0x49B PUSH1 0x0 DUP4 ADD DUP5 PUSH2 0x477 JUMP JUMPDEST SWAP3 SWAP2 POP POP JUMP JUMPDEST PUSH32 0x4E487B7100000000000000000000000000000000000000000000000000000000 PUSH1 0x0 MSTORE PUSH1 0x11 PUSH1 0x4 MSTORE PUSH1 0x24 PUSH1 0x0 REVERT JUMPDEST PUSH1 0x0 PUSH2 0x4DB DUP3 PUSH2 0x46D JUMP JUMPDEST SWAP2 POP PUSH2 0x4E6 DUP4 PUSH2 0x46D JUMP JUMPDEST SWAP3 POP DUP3 PUSH32 0xFFFFFFFFFFFFFFFFFFFFFFFFFFFFFFFFFFFFFFFFFFFFFFFFFFFFFFFFFFFFFFFF SUB DUP3 GT ISZERO PUSH2 0x51B JUMPI PUSH2 0x51A PUSH2 0x4A1 JUMP JUMPDEST JUMPDEST DUP3 DUP3 ADD SWAP1 POP SWAP3 SWAP2 POP POP JUMP JUMPDEST PUSH32 0x4E487B7100000000000000000000000000000000000000000000000000000000 PUSH1 0x0 MSTORE PUSH1 0x12 PUSH1 0x4 MSTORE PUSH1 0x24 PUSH1 0x0 REVERT JUMPDEST PUSH1 0x0 PUSH2 0x560 DUP3 PUSH2 0x46D JUMP JUMPDEST SWAP2 POP PUSH2 0x56B DUP4 PUSH2 0x46D JUMP JUMPDEST SWAP3 POP DUP3 PUSH2 0x57B JUMPI PUSH2 0x57A PUSH2 0x526 JUMP JUMPDEST JUMPDEST DUP3 DUP3 DIV SWAP1 POP SWAP3 SWAP2 POP POP JUMP JUMPDEST PUSH1 0x0 PUSH1 0x40 DUP3 ADD SWAP1 POP PUSH2 0x59B PUSH1 0x0 DUP4 ADD DUP6 PUSH2 0x477 JUMP JUMPDEST PUSH2 0x5A8 PUSH1 0x20 DUP4 ADD DUP5 PUSH2 0x3E5 JUMP JUMPDEST SWAP4 SWAP3 POP POP POP JUMP INVALID LOG2 PUSH5 0x6970667358 0x22 SLT KECCAK256 PUSH14 0x7DA3AF6B6EB98F277CEFC5B009D5 DUP13 NOT COINBASE 0x2D CALLCODE 0x21 CREATE2 MLOAD PUSH13 0x33B24B5C6AEA469264736F6C63 NUMBER STOP ADDMOD 0xD STOP CALLER "
				},
				"gasEstimates": {
					"creation": {
						"codeDepositCost": "1865000",
						"executionCost": "infinite",
						"totalCost": "infinite"
					},
					"external": {
						"": "infinite",
						"Accept_From_CoinBank(uint256)": "infinite",
						"Balance()": "407",
						"CoinBank_Contract(uint256)": "infinite",
						"Redeem()": "infinite",
						"Register_Account()": "107366",
						"View_Account()": "4843",
						"accounts(address)": "5193",
						"allowance(address,address)": "infinite",
						"approve(address,uint256)": "infinite",
						"balanceOf(address)": "2864",
						"decimals()": "410",
						"decreaseAllowance(address,uint256)": "infinite",
						"increaseAllowance(address,uint256)": "infinite",
						"ledger(uint256)": "5258",
						"name()": "infinite",
						"symbol()": "infinite",
						"totalSupply()": "2460",
						"transfer(address,uint256)": "infinite",
						"transferFrom(address,address,uint256)": "infinite"
					},
					"internal": {
						"InternalAccounting(uint256,uint256)": "infinite"
					}
				},
				"methodIdentifiers": {
					"Accept_From_CoinBank(uint256)": "9a29e6aa",
					"Balance()": "0ef67887",
					"CoinBank_Contract(uint256)": "add1603e",
					"Redeem()": "d95402e7",
					"Register_Account()": "948dec44",
					"View_Account()": "8ac8bbca",
					"accounts(address)": "5e5c06e2",
					"allowance(address,address)": "dd62ed3e",
					"approve(address,uint256)": "095ea7b3",
					"balanceOf(address)": "70a08231",
					"decimals()": "313ce567",
					"decreaseAllowance(address,uint256)": "a457c2d7",
					"increaseAllowance(address,uint256)": "39509351",
					"ledger(uint256)": "10a7fd7b",
					"name()": "06fdde03",
					"symbol()": "95d89b41",
					"totalSupply()": "18160ddd",
					"transfer(address,uint256)": "a9059cbb",
					"transferFrom(address,address,uint256)": "23b872dd"
				}
			},
			"userdoc": {
				"kind": "user",
				"methods": {},
				"version": 1
			}
		}
	}
}