{
	"Documents/GitHub/XRC-20Plus/contracts/XRC20Plus.sol": {
		"CoinBank": {
			"abi": [
				{
					"inputs": [
						{
							"internalType": "address",
							"name": "_Treasury",
							"type": "address"
						},
						{
							"internalType": "uint256",
							"name": "_supply",
							"type": "uint256"
						}
					],
					"stateMutability": "nonpayable",
					"type": "constructor"
				},
				{
					"anonymous": false,
					"inputs": [
						{
							"indexed": false,
							"internalType": "uint256",
							"name": "",
							"type": "uint256"
						},
						{
							"indexed": false,
							"internalType": "bool",
							"name": "",
							"type": "bool"
						}
					],
					"name": "CoinBankClock",
					"type": "event"
				},
				{
					"stateMutability": "payable",
					"type": "fallback"
				},
				{
					"inputs": [
						{
							"internalType": "address",
							"name": "",
							"type": "address"
						}
					],
					"name": "Bank",
					"outputs": [
						{
							"internalType": "uint256",
							"name": "Previous_Time",
							"type": "uint256"
						}
					],
					"stateMutability": "view",
					"type": "function"
				},
				{
					"inputs": [],
					"name": "Incomming_Payments",
					"outputs": [
						{
							"internalType": "bool",
							"name": "",
							"type": "bool"
						}
					],
					"stateMutability": "payable",
					"type": "function"
				},
				{
					"inputs": [],
					"name": "Supply",
					"outputs": [
						{
							"internalType": "uint256",
							"name": "",
							"type": "uint256"
						}
					],
					"stateMutability": "view",
					"type": "function"
				},
				{
					"inputs": [],
					"name": "Treasury",
					"outputs": [
						{
							"internalType": "address",
							"name": "",
							"type": "address"
						}
					],
					"stateMutability": "view",
					"type": "function"
				},
				{
					"stateMutability": "payable",
					"type": "receive"
				}
			],
			"devdoc": {
				"kind": "dev",
				"methods": {},
				"version": 1
			},
			"evm": {
				"assembly": "    /* \"Documents/GitHub/XRC-20Plus/contracts/XRC20Plus.sol\":305:1980  contract CoinBank is CoinBank_Interface{... */\n  mstore(0x40, 0x80)\n    /* \"Documents/GitHub/XRC-20Plus/contracts/XRC20Plus.sol\":610:780  constructor(address _Treasury,uint _supply){... */\n  callvalue\n  dup1\n  iszero\n  tag_1\n  jumpi\n  0x00\n  dup1\n  revert\ntag_1:\n  pop\n  mload(0x40)\n  sub(codesize, bytecodeSize)\n  dup1\n  bytecodeSize\n  dup4\n  codecopy\n  dup2\n  dup2\n  add\n  0x40\n  mstore\n  dup2\n  add\n  swap1\n  tag_2\n  swap2\n  swap1\n  tag_3\n  jump\t// in\ntag_2:\n    /* \"Documents/GitHub/XRC-20Plus/contracts/XRC20Plus.sol\":681:717  CoinBank_Accounting(block.timestamp) */\n  mload(0x40)\n  dup1\n  0x20\n  add\n  0x40\n  mstore\n  dup1\n    /* \"Documents/GitHub/XRC-20Plus/contracts/XRC20Plus.sol\":701:716  block.timestamp */\n  timestamp\n    /* \"Documents/GitHub/XRC-20Plus/contracts/XRC20Plus.sol\":681:717  CoinBank_Accounting(block.timestamp) */\n  dup2\n  mstore\n  pop\n    /* \"Documents/GitHub/XRC-20Plus/contracts/XRC20Plus.sol\":663:667  Bank */\n  0x04\n    /* \"Documents/GitHub/XRC-20Plus/contracts/XRC20Plus.sol\":663:678  Bank[_Treasury] */\n  0x00\n    /* \"Documents/GitHub/XRC-20Plus/contracts/XRC20Plus.sol\":668:677  _Treasury */\n  dup5\n    /* \"Documents/GitHub/XRC-20Plus/contracts/XRC20Plus.sol\":663:678  Bank[_Treasury] */\n  0xffffffffffffffffffffffffffffffffffffffff\n  and\n  0xffffffffffffffffffffffffffffffffffffffff\n  and\n  dup2\n  mstore\n  0x20\n  add\n  swap1\n  dup2\n  mstore\n  0x20\n  add\n  0x00\n  keccak256\n    /* \"Documents/GitHub/XRC-20Plus/contracts/XRC20Plus.sol\":663:717  Bank[_Treasury] = CoinBank_Accounting(block.timestamp) */\n  0x00\n  dup3\n  add\n  mload\n  dup2\n  0x00\n  add\n  sstore\n  swap1\n  pop\n  pop\n    /* \"Documents/GitHub/XRC-20Plus/contracts/XRC20Plus.sol\":738:747  _Treasury */\n  dup2\n    /* \"Documents/GitHub/XRC-20Plus/contracts/XRC20Plus.sol\":727:735  Treasury */\n  0x03\n  0x00\n    /* \"Documents/GitHub/XRC-20Plus/contracts/XRC20Plus.sol\":727:747  Treasury = _Treasury */\n  0x0100\n  exp\n  dup2\n  sload\n  dup2\n  0xffffffffffffffffffffffffffffffffffffffff\n  mul\n  not\n  and\n  swap1\n  dup4\n  0xffffffffffffffffffffffffffffffffffffffff\n  and\n  mul\n  or\n  swap1\n  sstore\n  pop\n    /* \"Documents/GitHub/XRC-20Plus/contracts/XRC20Plus.sol\":766:773  _supply */\n  dup1\n    /* \"Documents/GitHub/XRC-20Plus/contracts/XRC20Plus.sol\":757:763  Supply */\n  0x01\n    /* \"Documents/GitHub/XRC-20Plus/contracts/XRC20Plus.sol\":757:773  Supply = _supply */\n  dup2\n  swap1\n  sstore\n  pop\n    /* \"Documents/GitHub/XRC-20Plus/contracts/XRC20Plus.sol\":610:780  constructor(address _Treasury,uint _supply){... */\n  pop\n  pop\n    /* \"Documents/GitHub/XRC-20Plus/contracts/XRC20Plus.sol\":305:1980  contract CoinBank is CoinBank_Interface{... */\n  jump(tag_6)\n    /* \"#utility.yul\":88:205   */\ntag_8:\n    /* \"#utility.yul\":197:198   */\n  0x00\n    /* \"#utility.yul\":194:195   */\n  dup1\n    /* \"#utility.yul\":187:199   */\n  revert\n    /* \"#utility.yul\":334:460   */\ntag_10:\n    /* \"#utility.yul\":371:378   */\n  0x00\n    /* \"#utility.yul\":411:453   */\n  0xffffffffffffffffffffffffffffffffffffffff\n    /* \"#utility.yul\":404:409   */\n  dup3\n    /* \"#utility.yul\":400:454   */\n  and\n    /* \"#utility.yul\":389:454   */\n  swap1\n  pop\n    /* \"#utility.yul\":334:460   */\n  swap2\n  swap1\n  pop\n  jump\t// out\n    /* \"#utility.yul\":466:562   */\ntag_11:\n    /* \"#utility.yul\":503:510   */\n  0x00\n    /* \"#utility.yul\":532:556   */\n  tag_23\n    /* \"#utility.yul\":550:555   */\n  dup3\n    /* \"#utility.yul\":532:556   */\n  tag_10\n  jump\t// in\ntag_23:\n    /* \"#utility.yul\":521:556   */\n  swap1\n  pop\n    /* \"#utility.yul\":466:562   */\n  swap2\n  swap1\n  pop\n  jump\t// out\n    /* \"#utility.yul\":568:690   */\ntag_12:\n    /* \"#utility.yul\":641:665   */\n  tag_25\n    /* \"#utility.yul\":659:664   */\n  dup2\n    /* \"#utility.yul\":641:665   */\n  tag_11\n  jump\t// in\ntag_25:\n    /* \"#utility.yul\":634:639   */\n  dup2\n    /* \"#utility.yul\":631:666   */\n  eq\n    /* \"#utility.yul\":621:684   */\n  tag_26\n  jumpi\n    /* \"#utility.yul\":680:681   */\n  0x00\n    /* \"#utility.yul\":677:678   */\n  dup1\n    /* \"#utility.yul\":670:682   */\n  revert\n    /* \"#utility.yul\":621:684   */\ntag_26:\n    /* \"#utility.yul\":568:690   */\n  pop\n  jump\t// out\n    /* \"#utility.yul\":696:839   */\ntag_13:\n    /* \"#utility.yul\":753:758   */\n  0x00\n    /* \"#utility.yul\":784:790   */\n  dup2\n    /* \"#utility.yul\":778:791   */\n  mload\n    /* \"#utility.yul\":769:791   */\n  swap1\n  pop\n    /* \"#utility.yul\":800:833   */\n  tag_28\n    /* \"#utility.yul\":827:832   */\n  dup2\n    /* \"#utility.yul\":800:833   */\n  tag_12\n  jump\t// in\ntag_28:\n    /* \"#utility.yul\":696:839   */\n  swap3\n  swap2\n  pop\n  pop\n  jump\t// out\n    /* \"#utility.yul\":845:922   */\ntag_14:\n    /* \"#utility.yul\":882:889   */\n  0x00\n    /* \"#utility.yul\":911:916   */\n  dup2\n    /* \"#utility.yul\":900:916   */\n  swap1\n  pop\n    /* \"#utility.yul\":845:922   */\n  swap2\n  swap1\n  pop\n  jump\t// out\n    /* \"#utility.yul\":928:1050   */\ntag_15:\n    /* \"#utility.yul\":1001:1025   */\n  tag_31\n    /* \"#utility.yul\":1019:1024   */\n  dup2\n    /* \"#utility.yul\":1001:1025   */\n  tag_14\n  jump\t// in\ntag_31:\n    /* \"#utility.yul\":994:999   */\n  dup2\n    /* \"#utility.yul\":991:1026   */\n  eq\n    /* \"#utility.yul\":981:1044   */\n  tag_32\n  jumpi\n    /* \"#utility.yul\":1040:1041   */\n  0x00\n    /* \"#utility.yul\":1037:1038   */\n  dup1\n    /* \"#utility.yul\":1030:1042   */\n  revert\n    /* \"#utility.yul\":981:1044   */\ntag_32:\n    /* \"#utility.yul\":928:1050   */\n  pop\n  jump\t// out\n    /* \"#utility.yul\":1056:1199   */\ntag_16:\n    /* \"#utility.yul\":1113:1118   */\n  0x00\n    /* \"#utility.yul\":1144:1150   */\n  dup2\n    /* \"#utility.yul\":1138:1151   */\n  mload\n    /* \"#utility.yul\":1129:1151   */\n  swap1\n  pop\n    /* \"#utility.yul\":1160:1193   */\n  tag_34\n    /* \"#utility.yul\":1187:1192   */\n  dup2\n    /* \"#utility.yul\":1160:1193   */\n  tag_15\n  jump\t// in\ntag_34:\n    /* \"#utility.yul\":1056:1199   */\n  swap3\n  swap2\n  pop\n  pop\n  jump\t// out\n    /* \"#utility.yul\":1205:1712   */\ntag_3:\n    /* \"#utility.yul\":1284:1290   */\n  0x00\n    /* \"#utility.yul\":1292:1298   */\n  dup1\n    /* \"#utility.yul\":1341:1343   */\n  0x40\n    /* \"#utility.yul\":1329:1338   */\n  dup4\n    /* \"#utility.yul\":1320:1327   */\n  dup6\n    /* \"#utility.yul\":1316:1339   */\n  sub\n    /* \"#utility.yul\":1312:1344   */\n  slt\n    /* \"#utility.yul\":1309:1428   */\n  iszero\n  tag_36\n  jumpi\n    /* \"#utility.yul\":1347:1426   */\n  tag_37\n  tag_8\n  jump\t// in\ntag_37:\n    /* \"#utility.yul\":1309:1428   */\ntag_36:\n    /* \"#utility.yul\":1467:1468   */\n  0x00\n    /* \"#utility.yul\":1492:1556   */\n  tag_38\n    /* \"#utility.yul\":1548:1555   */\n  dup6\n    /* \"#utility.yul\":1539:1545   */\n  dup3\n    /* \"#utility.yul\":1528:1537   */\n  dup7\n    /* \"#utility.yul\":1524:1546   */\n  add\n    /* \"#utility.yul\":1492:1556   */\n  tag_13\n  jump\t// in\ntag_38:\n    /* \"#utility.yul\":1482:1556   */\n  swap3\n  pop\n    /* \"#utility.yul\":1438:1566   */\n  pop\n    /* \"#utility.yul\":1605:1607   */\n  0x20\n    /* \"#utility.yul\":1631:1695   */\n  tag_39\n    /* \"#utility.yul\":1687:1694   */\n  dup6\n    /* \"#utility.yul\":1678:1684   */\n  dup3\n    /* \"#utility.yul\":1667:1676   */\n  dup7\n    /* \"#utility.yul\":1663:1685   */\n  add\n    /* \"#utility.yul\":1631:1695   */\n  tag_16\n  jump\t// in\ntag_39:\n    /* \"#utility.yul\":1621:1695   */\n  swap2\n  pop\n    /* \"#utility.yul\":1576:1705   */\n  pop\n    /* \"#utility.yul\":1205:1712   */\n  swap3\n  pop\n  swap3\n  swap1\n  pop\n  jump\t// out\n    /* \"Documents/GitHub/XRC-20Plus/contracts/XRC20Plus.sol\":305:1980  contract CoinBank is CoinBank_Interface{... */\ntag_6:\n  dataSize(sub_0)\n  dup1\n  dataOffset(sub_0)\n  0x00\n  codecopy\n  0x00\n  return\nstop\n\nsub_0: assembly {\n        /* \"Documents/GitHub/XRC-20Plus/contracts/XRC20Plus.sol\":305:1980  contract CoinBank is CoinBank_Interface{... */\n      mstore(0x40, 0x80)\n      jumpi(tag_1, lt(calldatasize, 0x04))\n      shr(0xe0, calldataload(0x00))\n      dup1\n      0x563df32f\n      eq\n      tag_3\n      jumpi\n      dup1\n      0x82add361\n      eq\n      tag_4\n      jumpi\n      dup1\n      0x91d1a764\n      eq\n      tag_5\n      jumpi\n      dup1\n      0xee07bf22\n      eq\n      tag_6\n      jumpi\n      jump(tag_2)\n    tag_1:\n      jumpi(tag_2, calldatasize)\n        /* \"Documents/GitHub/XRC-20Plus/contracts/XRC20Plus.sol\":1903:1904  0 */\n      0x00\n        /* \"Documents/GitHub/XRC-20Plus/contracts/XRC20Plus.sol\":1893:1902  msg.value */\n      callvalue\n        /* \"Documents/GitHub/XRC-20Plus/contracts/XRC20Plus.sol\":1893:1904  msg.value>0 */\n      gt\n        /* \"Documents/GitHub/XRC-20Plus/contracts/XRC20Plus.sol\":1890:1972  if(msg.value>0){... */\n      iszero\n      tag_9\n      jumpi\n        /* \"Documents/GitHub/XRC-20Plus/contracts/XRC20Plus.sol\":1935:1939  this */\n      address\n        /* \"Documents/GitHub/XRC-20Plus/contracts/XRC20Plus.sol\":1919:1950  payable(address(this)).transfer */\n      0xffffffffffffffffffffffffffffffffffffffff\n      and\n        /* \"Documents/GitHub/XRC-20Plus/contracts/XRC20Plus.sol\":1919:1961  payable(address(this)).transfer(msg.value) */\n      0x08fc\n        /* \"Documents/GitHub/XRC-20Plus/contracts/XRC20Plus.sol\":1951:1960  msg.value */\n      callvalue\n        /* \"Documents/GitHub/XRC-20Plus/contracts/XRC20Plus.sol\":1919:1961  payable(address(this)).transfer(msg.value) */\n      swap1\n      dup2\n      iszero\n      mul\n      swap1\n      mload(0x40)\n      0x00\n      mload(0x40)\n      dup1\n      dup4\n      sub\n      dup2\n      dup6\n      dup9\n      dup9\n      call\n      swap4\n      pop\n      pop\n      pop\n      pop\n      iszero\n      dup1\n      iszero\n      tag_11\n      jumpi\n      returndatasize\n      0x00\n      dup1\n      returndatacopy\n      revert(0x00, returndatasize)\n    tag_11:\n      pop\n        /* \"Documents/GitHub/XRC-20Plus/contracts/XRC20Plus.sol\":1890:1972  if(msg.value>0){... */\n    tag_9:\n        /* \"Documents/GitHub/XRC-20Plus/contracts/XRC20Plus.sol\":305:1980  contract CoinBank is CoinBank_Interface{... */\n      stop\n    tag_2:\n      stop\n        /* \"Documents/GitHub/XRC-20Plus/contracts/XRC20Plus.sol\":436:459  address public Treasury */\n    tag_3:\n      callvalue\n      dup1\n      iszero\n      tag_14\n      jumpi\n      0x00\n      dup1\n      revert\n    tag_14:\n      pop\n      tag_15\n      tag_16\n      jump\t// in\n    tag_15:\n      mload(0x40)\n      tag_17\n      swap2\n      swap1\n      tag_18\n      jump\t// in\n    tag_17:\n      mload(0x40)\n      dup1\n      swap2\n      sub\n      swap1\n      return\n        /* \"Documents/GitHub/XRC-20Plus/contracts/XRC20Plus.sol\":1333:1813  function Incomming_Payments()public payable returns(bool){... */\n    tag_4:\n      tag_19\n      tag_20\n      jump\t// in\n    tag_19:\n      mload(0x40)\n      tag_21\n      swap2\n      swap1\n      tag_22\n      jump\t// in\n    tag_21:\n      mload(0x40)\n      dup1\n      swap2\n      sub\n      swap1\n      return\n        /* \"Documents/GitHub/XRC-20Plus/contracts/XRC20Plus.sol\":823:875  mapping (address => CoinBank_Accounting) public Bank */\n    tag_5:\n      callvalue\n      dup1\n      iszero\n      tag_23\n      jumpi\n      0x00\n      dup1\n      revert\n    tag_23:\n      pop\n      tag_24\n      0x04\n      dup1\n      calldatasize\n      sub\n      dup2\n      add\n      swap1\n      tag_25\n      swap2\n      swap1\n      tag_26\n      jump\t// in\n    tag_25:\n      tag_27\n      jump\t// in\n    tag_24:\n      mload(0x40)\n      tag_28\n      swap2\n      swap1\n      tag_29\n      jump\t// in\n    tag_28:\n      mload(0x40)\n      dup1\n      swap2\n      sub\n      swap1\n      return\n        /* \"Documents/GitHub/XRC-20Plus/contracts/XRC20Plus.sol\":381:399  uint public Supply */\n    tag_6:\n      callvalue\n      dup1\n      iszero\n      tag_30\n      jumpi\n      0x00\n      dup1\n      revert\n    tag_30:\n      pop\n      tag_31\n      tag_32\n      jump\t// in\n    tag_31:\n      mload(0x40)\n      tag_33\n      swap2\n      swap1\n      tag_29\n      jump\t// in\n    tag_33:\n      mload(0x40)\n      dup1\n      swap2\n      sub\n      swap1\n      return\n        /* \"Documents/GitHub/XRC-20Plus/contracts/XRC20Plus.sol\":436:459  address public Treasury */\n    tag_16:\n      0x03\n      0x00\n      swap1\n      sload\n      swap1\n      0x0100\n      exp\n      swap1\n      div\n      0xffffffffffffffffffffffffffffffffffffffff\n      and\n      dup2\n      jump\t// out\n        /* \"Documents/GitHub/XRC-20Plus/contracts/XRC20Plus.sol\":1333:1813  function Incomming_Payments()public payable returns(bool){... */\n    tag_20:\n        /* \"Documents/GitHub/XRC-20Plus/contracts/XRC20Plus.sol\":1385:1389  bool */\n      0x00\n        /* \"Documents/GitHub/XRC-20Plus/contracts/XRC20Plus.sol\":1400:1417  uint timeInterval */\n      dup1\n        /* \"Documents/GitHub/XRC-20Plus/contracts/XRC20Plus.sol\":1418:1419  0 */\n      0x00\n        /* \"Documents/GitHub/XRC-20Plus/contracts/XRC20Plus.sol\":1400:1419  uint timeInterval=0 */\n      swap1\n      pop\n        /* \"Documents/GitHub/XRC-20Plus/contracts/XRC20Plus.sol\":1500:1504  Bank */\n      0x04\n        /* \"Documents/GitHub/XRC-20Plus/contracts/XRC20Plus.sol\":1500:1514  Bank[Treasury] */\n      0x00\n        /* \"Documents/GitHub/XRC-20Plus/contracts/XRC20Plus.sol\":1505:1513  Treasury */\n      0x03\n      0x00\n      swap1\n      sload\n      swap1\n      0x0100\n      exp\n      swap1\n      div\n      0xffffffffffffffffffffffffffffffffffffffff\n      and\n        /* \"Documents/GitHub/XRC-20Plus/contracts/XRC20Plus.sol\":1500:1514  Bank[Treasury] */\n      0xffffffffffffffffffffffffffffffffffffffff\n      and\n      0xffffffffffffffffffffffffffffffffffffffff\n      and\n      dup2\n      mstore\n      0x20\n      add\n      swap1\n      dup2\n      mstore\n      0x20\n      add\n      0x00\n      keccak256\n        /* \"Documents/GitHub/XRC-20Plus/contracts/XRC20Plus.sol\":1500:1528  Bank[Treasury].Previous_Time */\n      0x00\n      add\n      sload\n        /* \"Documents/GitHub/XRC-20Plus/contracts/XRC20Plus.sol\":1487:1499  timeInterval */\n      dup2\n        /* \"Documents/GitHub/XRC-20Plus/contracts/XRC20Plus.sol\":1487:1528  timeInterval+Bank[Treasury].Previous_Time */\n      tag_35\n      swap2\n      swap1\n      tag_36\n      jump\t// in\n    tag_35:\n        /* \"Documents/GitHub/XRC-20Plus/contracts/XRC20Plus.sol\":1470:1485  block.timestamp */\n      timestamp\n        /* \"Documents/GitHub/XRC-20Plus/contracts/XRC20Plus.sol\":1470:1528  block.timestamp>=timeInterval+Bank[Treasury].Previous_Time */\n      lt\n        /* \"Documents/GitHub/XRC-20Plus/contracts/XRC20Plus.sol\":1467:1807  if(block.timestamp>=timeInterval+Bank[Treasury].Previous_Time){... */\n      tag_37\n      jumpi\n        /* \"Documents/GitHub/XRC-20Plus/contracts/XRC20Plus.sol\":1543:1560  uint single_Shard */\n      0x00\n        /* \"Documents/GitHub/XRC-20Plus/contracts/XRC20Plus.sol\":1590:1596  Supply */\n      sload(0x01)\n        /* \"Documents/GitHub/XRC-20Plus/contracts/XRC20Plus.sol\":1568:1589  address(this).balance */\n      selfbalance\n        /* \"Documents/GitHub/XRC-20Plus/contracts/XRC20Plus.sol\":1568:1596  address(this).balance/Supply */\n      tag_38\n      swap2\n      swap1\n      tag_39\n      jump\t// in\n    tag_38:\n        /* \"Documents/GitHub/XRC-20Plus/contracts/XRC20Plus.sol\":1543:1597  uint single_Shard = uint(address(this).balance/Supply) */\n      swap1\n      pop\n        /* \"Documents/GitHub/XRC-20Plus/contracts/XRC20Plus.sol\":1611:1642  Issue_To_Treasury(single_Shard) */\n      tag_40\n        /* \"Documents/GitHub/XRC-20Plus/contracts/XRC20Plus.sol\":1629:1641  single_Shard */\n      dup2\n        /* \"Documents/GitHub/XRC-20Plus/contracts/XRC20Plus.sol\":1611:1628  Issue_To_Treasury */\n      tag_41\n        /* \"Documents/GitHub/XRC-20Plus/contracts/XRC20Plus.sol\":1611:1642  Issue_To_Treasury(single_Shard) */\n      jump\t// in\n    tag_40:\n        /* \"Documents/GitHub/XRC-20Plus/contracts/XRC20Plus.sol\":1715:1730  block.timestamp */\n      timestamp\n        /* \"Documents/GitHub/XRC-20Plus/contracts/XRC20Plus.sol\":1684:1688  Bank */\n      0x04\n        /* \"Documents/GitHub/XRC-20Plus/contracts/XRC20Plus.sol\":1684:1698  Bank[Treasury] */\n      0x00\n        /* \"Documents/GitHub/XRC-20Plus/contracts/XRC20Plus.sol\":1689:1697  Treasury */\n      0x03\n      0x00\n      swap1\n      sload\n      swap1\n      0x0100\n      exp\n      swap1\n      div\n      0xffffffffffffffffffffffffffffffffffffffff\n      and\n        /* \"Documents/GitHub/XRC-20Plus/contracts/XRC20Plus.sol\":1684:1698  Bank[Treasury] */\n      0xffffffffffffffffffffffffffffffffffffffff\n      and\n      0xffffffffffffffffffffffffffffffffffffffff\n      and\n      dup2\n      mstore\n      0x20\n      add\n      swap1\n      dup2\n      mstore\n      0x20\n      add\n      0x00\n      keccak256\n        /* \"Documents/GitHub/XRC-20Plus/contracts/XRC20Plus.sol\":1684:1712  Bank[Treasury].Previous_Time */\n      0x00\n      add\n        /* \"Documents/GitHub/XRC-20Plus/contracts/XRC20Plus.sol\":1684:1730  Bank[Treasury].Previous_Time = block.timestamp */\n      dup2\n      swap1\n      sstore\n      pop\n        /* \"Documents/GitHub/XRC-20Plus/contracts/XRC20Plus.sol\":1751:1755  true */\n      0x01\n        /* \"Documents/GitHub/XRC-20Plus/contracts/XRC20Plus.sol\":1744:1755  return true */\n      swap3\n      pop\n      pop\n      pop\n      jump(tag_34)\n        /* \"Documents/GitHub/XRC-20Plus/contracts/XRC20Plus.sol\":1467:1807  if(block.timestamp>=timeInterval+Bank[Treasury].Previous_Time){... */\n    tag_37:\n        /* \"Documents/GitHub/XRC-20Plus/contracts/XRC20Plus.sol\":1791:1796  false */\n      0x00\n        /* \"Documents/GitHub/XRC-20Plus/contracts/XRC20Plus.sol\":1784:1796  return false */\n      swap2\n      pop\n      pop\n        /* \"Documents/GitHub/XRC-20Plus/contracts/XRC20Plus.sol\":1333:1813  function Incomming_Payments()public payable returns(bool){... */\n    tag_34:\n      swap1\n      jump\t// out\n        /* \"Documents/GitHub/XRC-20Plus/contracts/XRC20Plus.sol\":823:875  mapping (address => CoinBank_Accounting) public Bank */\n    tag_27:\n      mstore(0x20, 0x04)\n      dup1\n      0x00\n      mstore\n      keccak256(0x00, 0x40)\n      0x00\n      swap2\n      pop\n      swap1\n      pop\n      dup1\n      0x00\n      add\n      sload\n      swap1\n      pop\n      dup2\n      jump\t// out\n        /* \"Documents/GitHub/XRC-20Plus/contracts/XRC20Plus.sol\":381:399  uint public Supply */\n    tag_32:\n      sload(0x01)\n      dup2\n      jump\t// out\n        /* \"Documents/GitHub/XRC-20Plus/contracts/XRC20Plus.sol\":921:1241  function Issue_To_Treasury(uint _single_Shard)internal{... */\n    tag_41:\n        /* \"Documents/GitHub/XRC-20Plus/contracts/XRC20Plus.sol\":1032:1059  Plus_Interface exeInterface */\n      0x00\n        /* \"Documents/GitHub/XRC-20Plus/contracts/XRC20Plus.sol\":1077:1085  Treasury */\n      0x03\n      0x00\n      swap1\n      sload\n      swap1\n      0x0100\n      exp\n      swap1\n      div\n      0xffffffffffffffffffffffffffffffffffffffff\n      and\n        /* \"Documents/GitHub/XRC-20Plus/contracts/XRC20Plus.sol\":1032:1086  Plus_Interface exeInterface = Plus_Interface(Treasury) */\n      swap1\n      pop\n        /* \"Documents/GitHub/XRC-20Plus/contracts/XRC20Plus.sol\":1135:1147  exeInterface */\n      dup1\n        /* \"Documents/GitHub/XRC-20Plus/contracts/XRC20Plus.sol\":1135:1168  exeInterface.Accept_From_CoinBank */\n      0xffffffffffffffffffffffffffffffffffffffff\n      and\n      0x9a29e6aa\n        /* \"Documents/GitHub/XRC-20Plus/contracts/XRC20Plus.sol\":1169:1182  _single_Shard */\n      dup4\n        /* \"Documents/GitHub/XRC-20Plus/contracts/XRC20Plus.sol\":1135:1183  exeInterface.Accept_From_CoinBank(_single_Shard) */\n      mload(0x40)\n      dup3\n      0xffffffff\n      and\n      0xe0\n      shl\n      dup2\n      mstore\n      0x04\n      add\n      tag_44\n      swap2\n      swap1\n      tag_29\n      jump\t// in\n    tag_44:\n      0x00\n      mload(0x40)\n      dup1\n      dup4\n      sub\n      dup2\n      0x00\n      dup8\n      dup1\n      extcodesize\n      iszero\n      dup1\n      iszero\n      tag_45\n      jumpi\n      0x00\n      dup1\n      revert\n    tag_45:\n      pop\n      gas\n      call\n      iszero\n      dup1\n      iszero\n      tag_47\n      jumpi\n      returndatasize\n      0x00\n      dup1\n      returndatacopy\n      revert(0x00, returndatasize)\n    tag_47:\n      pop\n      pop\n      pop\n      pop\n        /* \"Documents/GitHub/XRC-20Plus/contracts/XRC20Plus.sol\":1198:1233  CoinBankClock(block.timestamp,true) */\n      0xa45dac62289018e90b3dc24632d939c6f3545fbc1c00325ee50858f926afc630\n        /* \"Documents/GitHub/XRC-20Plus/contracts/XRC20Plus.sol\":1212:1227  block.timestamp */\n      timestamp\n        /* \"Documents/GitHub/XRC-20Plus/contracts/XRC20Plus.sol\":1228:1232  true */\n      0x01\n        /* \"Documents/GitHub/XRC-20Plus/contracts/XRC20Plus.sol\":1198:1233  CoinBankClock(block.timestamp,true) */\n      mload(0x40)\n      tag_48\n      swap3\n      swap2\n      swap1\n      tag_49\n      jump\t// in\n    tag_48:\n      mload(0x40)\n      dup1\n      swap2\n      sub\n      swap1\n      log1\n        /* \"Documents/GitHub/XRC-20Plus/contracts/XRC20Plus.sol\":975:1241  {... */\n      pop\n        /* \"Documents/GitHub/XRC-20Plus/contracts/XRC20Plus.sol\":921:1241  function Issue_To_Treasury(uint _single_Shard)internal{... */\n      pop\n      jump\t// out\n        /* \"#utility.yul\":7:133   */\n    tag_50:\n        /* \"#utility.yul\":44:51   */\n      0x00\n        /* \"#utility.yul\":84:126   */\n      0xffffffffffffffffffffffffffffffffffffffff\n        /* \"#utility.yul\":77:82   */\n      dup3\n        /* \"#utility.yul\":73:127   */\n      and\n        /* \"#utility.yul\":62:127   */\n      swap1\n      pop\n        /* \"#utility.yul\":7:133   */\n      swap2\n      swap1\n      pop\n      jump\t// out\n        /* \"#utility.yul\":139:235   */\n    tag_51:\n        /* \"#utility.yul\":176:183   */\n      0x00\n        /* \"#utility.yul\":205:229   */\n      tag_67\n        /* \"#utility.yul\":223:228   */\n      dup3\n        /* \"#utility.yul\":205:229   */\n      tag_50\n      jump\t// in\n    tag_67:\n        /* \"#utility.yul\":194:229   */\n      swap1\n      pop\n        /* \"#utility.yul\":139:235   */\n      swap2\n      swap1\n      pop\n      jump\t// out\n        /* \"#utility.yul\":241:359   */\n    tag_52:\n        /* \"#utility.yul\":328:352   */\n      tag_69\n        /* \"#utility.yul\":346:351   */\n      dup2\n        /* \"#utility.yul\":328:352   */\n      tag_51\n      jump\t// in\n    tag_69:\n        /* \"#utility.yul\":323:326   */\n      dup3\n        /* \"#utility.yul\":316:353   */\n      mstore\n        /* \"#utility.yul\":241:359   */\n      pop\n      pop\n      jump\t// out\n        /* \"#utility.yul\":365:587   */\n    tag_18:\n        /* \"#utility.yul\":458:462   */\n      0x00\n        /* \"#utility.yul\":496:498   */\n      0x20\n        /* \"#utility.yul\":485:494   */\n      dup3\n        /* \"#utility.yul\":481:499   */\n      add\n        /* \"#utility.yul\":473:499   */\n      swap1\n      pop\n        /* \"#utility.yul\":509:580   */\n      tag_71\n        /* \"#utility.yul\":577:578   */\n      0x00\n        /* \"#utility.yul\":566:575   */\n      dup4\n        /* \"#utility.yul\":562:579   */\n      add\n        /* \"#utility.yul\":553:559   */\n      dup5\n        /* \"#utility.yul\":509:580   */\n      tag_52\n      jump\t// in\n    tag_71:\n        /* \"#utility.yul\":365:587   */\n      swap3\n      swap2\n      pop\n      pop\n      jump\t// out\n        /* \"#utility.yul\":593:683   */\n    tag_53:\n        /* \"#utility.yul\":627:634   */\n      0x00\n        /* \"#utility.yul\":670:675   */\n      dup2\n        /* \"#utility.yul\":663:676   */\n      iszero\n        /* \"#utility.yul\":656:677   */\n      iszero\n        /* \"#utility.yul\":645:677   */\n      swap1\n      pop\n        /* \"#utility.yul\":593:683   */\n      swap2\n      swap1\n      pop\n      jump\t// out\n        /* \"#utility.yul\":689:798   */\n    tag_54:\n        /* \"#utility.yul\":770:791   */\n      tag_74\n        /* \"#utility.yul\":785:790   */\n      dup2\n        /* \"#utility.yul\":770:791   */\n      tag_53\n      jump\t// in\n    tag_74:\n        /* \"#utility.yul\":765:768   */\n      dup3\n        /* \"#utility.yul\":758:792   */\n      mstore\n        /* \"#utility.yul\":689:798   */\n      pop\n      pop\n      jump\t// out\n        /* \"#utility.yul\":804:1014   */\n    tag_22:\n        /* \"#utility.yul\":891:895   */\n      0x00\n        /* \"#utility.yul\":929:931   */\n      0x20\n        /* \"#utility.yul\":918:927   */\n      dup3\n        /* \"#utility.yul\":914:932   */\n      add\n        /* \"#utility.yul\":906:932   */\n      swap1\n      pop\n        /* \"#utility.yul\":942:1007   */\n      tag_76\n        /* \"#utility.yul\":1004:1005   */\n      0x00\n        /* \"#utility.yul\":993:1002   */\n      dup4\n        /* \"#utility.yul\":989:1006   */\n      add\n        /* \"#utility.yul\":980:986   */\n      dup5\n        /* \"#utility.yul\":942:1007   */\n      tag_54\n      jump\t// in\n    tag_76:\n        /* \"#utility.yul\":804:1014   */\n      swap3\n      swap2\n      pop\n      pop\n      jump\t// out\n        /* \"#utility.yul\":1101:1218   */\n    tag_56:\n        /* \"#utility.yul\":1210:1211   */\n      0x00\n        /* \"#utility.yul\":1207:1208   */\n      dup1\n        /* \"#utility.yul\":1200:1212   */\n      revert\n        /* \"#utility.yul\":1347:1469   */\n    tag_58:\n        /* \"#utility.yul\":1420:1444   */\n      tag_81\n        /* \"#utility.yul\":1438:1443   */\n      dup2\n        /* \"#utility.yul\":1420:1444   */\n      tag_51\n      jump\t// in\n    tag_81:\n        /* \"#utility.yul\":1413:1418   */\n      dup2\n        /* \"#utility.yul\":1410:1445   */\n      eq\n        /* \"#utility.yul\":1400:1463   */\n      tag_82\n      jumpi\n        /* \"#utility.yul\":1459:1460   */\n      0x00\n        /* \"#utility.yul\":1456:1457   */\n      dup1\n        /* \"#utility.yul\":1449:1461   */\n      revert\n        /* \"#utility.yul\":1400:1463   */\n    tag_82:\n        /* \"#utility.yul\":1347:1469   */\n      pop\n      jump\t// out\n        /* \"#utility.yul\":1475:1614   */\n    tag_59:\n        /* \"#utility.yul\":1521:1526   */\n      0x00\n        /* \"#utility.yul\":1559:1565   */\n      dup2\n        /* \"#utility.yul\":1546:1566   */\n      calldataload\n        /* \"#utility.yul\":1537:1566   */\n      swap1\n      pop\n        /* \"#utility.yul\":1575:1608   */\n      tag_84\n        /* \"#utility.yul\":1602:1607   */\n      dup2\n        /* \"#utility.yul\":1575:1608   */\n      tag_58\n      jump\t// in\n    tag_84:\n        /* \"#utility.yul\":1475:1614   */\n      swap3\n      swap2\n      pop\n      pop\n      jump\t// out\n        /* \"#utility.yul\":1620:1949   */\n    tag_26:\n        /* \"#utility.yul\":1679:1685   */\n      0x00\n        /* \"#utility.yul\":1728:1730   */\n      0x20\n        /* \"#utility.yul\":1716:1725   */\n      dup3\n        /* \"#utility.yul\":1707:1714   */\n      dup5\n        /* \"#utility.yul\":1703:1726   */\n      sub\n        /* \"#utility.yul\":1699:1731   */\n      slt\n        /* \"#utility.yul\":1696:1815   */\n      iszero\n      tag_86\n      jumpi\n        /* \"#utility.yul\":1734:1813   */\n      tag_87\n      tag_56\n      jump\t// in\n    tag_87:\n        /* \"#utility.yul\":1696:1815   */\n    tag_86:\n        /* \"#utility.yul\":1854:1855   */\n      0x00\n        /* \"#utility.yul\":1879:1932   */\n      tag_88\n        /* \"#utility.yul\":1924:1931   */\n      dup5\n        /* \"#utility.yul\":1915:1921   */\n      dup3\n        /* \"#utility.yul\":1904:1913   */\n      dup6\n        /* \"#utility.yul\":1900:1922   */\n      add\n        /* \"#utility.yul\":1879:1932   */\n      tag_59\n      jump\t// in\n    tag_88:\n        /* \"#utility.yul\":1869:1932   */\n      swap2\n      pop\n        /* \"#utility.yul\":1825:1942   */\n      pop\n        /* \"#utility.yul\":1620:1949   */\n      swap3\n      swap2\n      pop\n      pop\n      jump\t// out\n        /* \"#utility.yul\":1955:2032   */\n    tag_60:\n        /* \"#utility.yul\":1992:1999   */\n      0x00\n        /* \"#utility.yul\":2021:2026   */\n      dup2\n        /* \"#utility.yul\":2010:2026   */\n      swap1\n      pop\n        /* \"#utility.yul\":1955:2032   */\n      swap2\n      swap1\n      pop\n      jump\t// out\n        /* \"#utility.yul\":2038:2156   */\n    tag_61:\n        /* \"#utility.yul\":2125:2149   */\n      tag_91\n        /* \"#utility.yul\":2143:2148   */\n      dup2\n        /* \"#utility.yul\":2125:2149   */\n      tag_60\n      jump\t// in\n    tag_91:\n        /* \"#utility.yul\":2120:2123   */\n      dup3\n        /* \"#utility.yul\":2113:2150   */\n      mstore\n        /* \"#utility.yul\":2038:2156   */\n      pop\n      pop\n      jump\t// out\n        /* \"#utility.yul\":2162:2384   */\n    tag_29:\n        /* \"#utility.yul\":2255:2259   */\n      0x00\n        /* \"#utility.yul\":2293:2295   */\n      0x20\n        /* \"#utility.yul\":2282:2291   */\n      dup3\n        /* \"#utility.yul\":2278:2296   */\n      add\n        /* \"#utility.yul\":2270:2296   */\n      swap1\n      pop\n        /* \"#utility.yul\":2306:2377   */\n      tag_93\n        /* \"#utility.yul\":2374:2375   */\n      0x00\n        /* \"#utility.yul\":2363:2372   */\n      dup4\n        /* \"#utility.yul\":2359:2376   */\n      add\n        /* \"#utility.yul\":2350:2356   */\n      dup5\n        /* \"#utility.yul\":2306:2377   */\n      tag_61\n      jump\t// in\n    tag_93:\n        /* \"#utility.yul\":2162:2384   */\n      swap3\n      swap2\n      pop\n      pop\n      jump\t// out\n        /* \"#utility.yul\":2390:2570   */\n    tag_62:\n        /* \"#utility.yul\":2438:2515   */\n      0x4e487b7100000000000000000000000000000000000000000000000000000000\n        /* \"#utility.yul\":2435:2436   */\n      0x00\n        /* \"#utility.yul\":2428:2516   */\n      mstore\n        /* \"#utility.yul\":2535:2539   */\n      0x11\n        /* \"#utility.yul\":2532:2533   */\n      0x04\n        /* \"#utility.yul\":2525:2540   */\n      mstore\n        /* \"#utility.yul\":2559:2563   */\n      0x24\n        /* \"#utility.yul\":2556:2557   */\n      0x00\n        /* \"#utility.yul\":2549:2564   */\n      revert\n        /* \"#utility.yul\":2576:2881   */\n    tag_36:\n        /* \"#utility.yul\":2616:2619   */\n      0x00\n        /* \"#utility.yul\":2635:2655   */\n      tag_96\n        /* \"#utility.yul\":2653:2654   */\n      dup3\n        /* \"#utility.yul\":2635:2655   */\n      tag_60\n      jump\t// in\n    tag_96:\n        /* \"#utility.yul\":2630:2655   */\n      swap2\n      pop\n        /* \"#utility.yul\":2669:2689   */\n      tag_97\n        /* \"#utility.yul\":2687:2688   */\n      dup4\n        /* \"#utility.yul\":2669:2689   */\n      tag_60\n      jump\t// in\n    tag_97:\n        /* \"#utility.yul\":2664:2689   */\n      swap3\n      pop\n        /* \"#utility.yul\":2823:2824   */\n      dup3\n        /* \"#utility.yul\":2755:2821   */\n      0xffffffffffffffffffffffffffffffffffffffffffffffffffffffffffffffff\n        /* \"#utility.yul\":2751:2825   */\n      sub\n        /* \"#utility.yul\":2748:2749   */\n      dup3\n        /* \"#utility.yul\":2745:2826   */\n      gt\n        /* \"#utility.yul\":2742:2849   */\n      iszero\n      tag_98\n      jumpi\n        /* \"#utility.yul\":2829:2847   */\n      tag_99\n      tag_62\n      jump\t// in\n    tag_99:\n        /* \"#utility.yul\":2742:2849   */\n    tag_98:\n        /* \"#utility.yul\":2873:2874   */\n      dup3\n        /* \"#utility.yul\":2870:2871   */\n      dup3\n        /* \"#utility.yul\":2866:2875   */\n      add\n        /* \"#utility.yul\":2859:2875   */\n      swap1\n      pop\n        /* \"#utility.yul\":2576:2881   */\n      swap3\n      swap2\n      pop\n      pop\n      jump\t// out\n        /* \"#utility.yul\":2887:3067   */\n    tag_63:\n        /* \"#utility.yul\":2935:3012   */\n      0x4e487b7100000000000000000000000000000000000000000000000000000000\n        /* \"#utility.yul\":2932:2933   */\n      0x00\n        /* \"#utility.yul\":2925:3013   */\n      mstore\n        /* \"#utility.yul\":3032:3036   */\n      0x12\n        /* \"#utility.yul\":3029:3030   */\n      0x04\n        /* \"#utility.yul\":3022:3037   */\n      mstore\n        /* \"#utility.yul\":3056:3060   */\n      0x24\n        /* \"#utility.yul\":3053:3054   */\n      0x00\n        /* \"#utility.yul\":3046:3061   */\n      revert\n        /* \"#utility.yul\":3073:3258   */\n    tag_39:\n        /* \"#utility.yul\":3113:3114   */\n      0x00\n        /* \"#utility.yul\":3130:3150   */\n      tag_102\n        /* \"#utility.yul\":3148:3149   */\n      dup3\n        /* \"#utility.yul\":3130:3150   */\n      tag_60\n      jump\t// in\n    tag_102:\n        /* \"#utility.yul\":3125:3150   */\n      swap2\n      pop\n        /* \"#utility.yul\":3164:3184   */\n      tag_103\n        /* \"#utility.yul\":3182:3183   */\n      dup4\n        /* \"#utility.yul\":3164:3184   */\n      tag_60\n      jump\t// in\n    tag_103:\n        /* \"#utility.yul\":3159:3184   */\n      swap3\n      pop\n        /* \"#utility.yul\":3203:3204   */\n      dup3\n        /* \"#utility.yul\":3193:3228   */\n      tag_104\n      jumpi\n        /* \"#utility.yul\":3208:3226   */\n      tag_105\n      tag_63\n      jump\t// in\n    tag_105:\n        /* \"#utility.yul\":3193:3228   */\n    tag_104:\n        /* \"#utility.yul\":3250:3251   */\n      dup3\n        /* \"#utility.yul\":3247:3248   */\n      dup3\n        /* \"#utility.yul\":3243:3252   */\n      div\n        /* \"#utility.yul\":3238:3252   */\n      swap1\n      pop\n        /* \"#utility.yul\":3073:3258   */\n      swap3\n      swap2\n      pop\n      pop\n      jump\t// out\n        /* \"#utility.yul\":3264:3584   */\n    tag_49:\n        /* \"#utility.yul\":3379:3383   */\n      0x00\n        /* \"#utility.yul\":3417:3419   */\n      0x40\n        /* \"#utility.yul\":3406:3415   */\n      dup3\n        /* \"#utility.yul\":3402:3420   */\n      add\n        /* \"#utility.yul\":3394:3420   */\n      swap1\n      pop\n        /* \"#utility.yul\":3430:3501   */\n      tag_107\n        /* \"#utility.yul\":3498:3499   */\n      0x00\n        /* \"#utility.yul\":3487:3496   */\n      dup4\n        /* \"#utility.yul\":3483:3500   */\n      add\n        /* \"#utility.yul\":3474:3480   */\n      dup6\n        /* \"#utility.yul\":3430:3501   */\n      tag_61\n      jump\t// in\n    tag_107:\n        /* \"#utility.yul\":3511:3577   */\n      tag_108\n        /* \"#utility.yul\":3573:3575   */\n      0x20\n        /* \"#utility.yul\":3562:3571   */\n      dup4\n        /* \"#utility.yul\":3558:3576   */\n      add\n        /* \"#utility.yul\":3549:3555   */\n      dup5\n        /* \"#utility.yul\":3511:3577   */\n      tag_54\n      jump\t// in\n    tag_108:\n        /* \"#utility.yul\":3264:3584   */\n      swap4\n      swap3\n      pop\n      pop\n      pop\n      jump\t// out\n\n    auxdata: 0xa26469706673582212206d7da3af6b6eb98f277cefc5b009d58c19412df221f5516c33b24b5c6aea469264736f6c634300080d0033\n}\n",
				"bytecode": {
					"linkReferences": {},
					"object": "608060405234801561001057600080fd5b506040516107a93803806107a983398181016040528101906100329190610175565b604051806020016040528042815250600460008473ffffffffffffffffffffffffffffffffffffffff1673ffffffffffffffffffffffffffffffffffffffff1681526020019081526020016000206000820151816000015590505081600360006101000a81548173ffffffffffffffffffffffffffffffffffffffff021916908373ffffffffffffffffffffffffffffffffffffffff1602179055508060018190555050506101b5565b600080fd5b600073ffffffffffffffffffffffffffffffffffffffff82169050919050565b600061010c826100e1565b9050919050565b61011c81610101565b811461012757600080fd5b50565b60008151905061013981610113565b92915050565b6000819050919050565b6101528161013f565b811461015d57600080fd5b50565b60008151905061016f81610149565b92915050565b6000806040838503121561018c5761018b6100dc565b5b600061019a8582860161012a565b92505060206101ab85828601610160565b9150509250929050565b6105e5806101c46000396000f3fe6080604052600436106100435760003560e01c8063563df32f1461009d57806382add361146100c857806391d1a764146100e6578063ee07bf22146101235761009b565b3661009b576000341115610099573073ffffffffffffffffffffffffffffffffffffffff166108fc349081150290604051600060405180830381858888f19350505050158015610097573d6000803e3d6000fd5b505b005b005b3480156100a957600080fd5b506100b261014e565b6040516100bf91906103be565b60405180910390f35b6100d0610174565b6040516100dd91906103f4565b60405180910390f35b3480156100f257600080fd5b5061010d60048036038101906101089190610440565b610289565b60405161011a9190610486565b60405180910390f35b34801561012f57600080fd5b506101386102a7565b6040516101459190610486565b60405180910390f35b600360009054906101000a900473ffffffffffffffffffffffffffffffffffffffff1681565b6000806000905060046000600360009054906101000a900473ffffffffffffffffffffffffffffffffffffffff1673ffffffffffffffffffffffffffffffffffffffff1673ffffffffffffffffffffffffffffffffffffffff16815260200190815260200160002060000154816101eb91906104d0565b4210610280576000600154476102019190610555565b905061020c816102ad565b4260046000600360009054906101000a900473ffffffffffffffffffffffffffffffffffffffff1673ffffffffffffffffffffffffffffffffffffffff1673ffffffffffffffffffffffffffffffffffffffff16815260200190815260200160002060000181905550600192505050610286565b60009150505b90565b60046020528060005260406000206000915090508060000154905081565b60015481565b6000600360009054906101000a900473ffffffffffffffffffffffffffffffffffffffff1690508073ffffffffffffffffffffffffffffffffffffffff16639a29e6aa836040518263ffffffff1660e01b815260040161030d9190610486565b600060405180830381600087803b15801561032757600080fd5b505af115801561033b573d6000803e3d6000fd5b505050507fa45dac62289018e90b3dc24632d939c6f3545fbc1c00325ee50858f926afc630426001604051610371929190610586565b60405180910390a15050565b600073ffffffffffffffffffffffffffffffffffffffff82169050919050565b60006103a88261037d565b9050919050565b6103b88161039d565b82525050565b60006020820190506103d360008301846103af565b92915050565b60008115159050919050565b6103ee816103d9565b82525050565b600060208201905061040960008301846103e5565b92915050565b600080fd5b61041d8161039d565b811461042857600080fd5b50565b60008135905061043a81610414565b92915050565b6000602082840312156104565761045561040f565b5b60006104648482850161042b565b91505092915050565b6000819050919050565b6104808161046d565b82525050565b600060208201905061049b6000830184610477565b92915050565b7f4e487b7100000000000000000000000000000000000000000000000000000000600052601160045260246000fd5b60006104db8261046d565b91506104e68361046d565b9250827fffffffffffffffffffffffffffffffffffffffffffffffffffffffffffffffff0382111561051b5761051a6104a1565b5b828201905092915050565b7f4e487b7100000000000000000000000000000000000000000000000000000000600052601260045260246000fd5b60006105608261046d565b915061056b8361046d565b92508261057b5761057a610526565b5b828204905092915050565b600060408201905061059b6000830185610477565b6105a860208301846103e5565b939250505056fea26469706673582212206d7da3af6b6eb98f277cefc5b009d58c19412df221f5516c33b24b5c6aea469264736f6c634300080d0033",
					"opcodes": "PUSH1 0x80 PUSH1 0x40 MSTORE CALLVALUE DUP1 ISZERO PUSH2 0x10 JUMPI PUSH1 0x0 DUP1 REVERT JUMPDEST POP PUSH1 0x40 MLOAD PUSH2 0x7A9 CODESIZE SUB DUP1 PUSH2 0x7A9 DUP4 CODECOPY DUP2 DUP2 ADD PUSH1 0x40 MSTORE DUP2 ADD SWAP1 PUSH2 0x32 SWAP2 SWAP1 PUSH2 0x175 JUMP JUMPDEST PUSH1 0x40 MLOAD DUP1 PUSH1 0x20 ADD PUSH1 0x40 MSTORE DUP1 TIMESTAMP DUP2 MSTORE POP PUSH1 0x4 PUSH1 0x0 DUP5 PUSH20 0xFFFFFFFFFFFFFFFFFFFFFFFFFFFFFFFFFFFFFFFF AND PUSH20 0xFFFFFFFFFFFFFFFFFFFFFFFFFFFFFFFFFFFFFFFF AND DUP2 MSTORE PUSH1 0x20 ADD SWAP1 DUP2 MSTORE PUSH1 0x20 ADD PUSH1 0x0 KECCAK256 PUSH1 0x0 DUP3 ADD MLOAD DUP2 PUSH1 0x0 ADD SSTORE SWAP1 POP POP DUP2 PUSH1 0x3 PUSH1 0x0 PUSH2 0x100 EXP DUP2 SLOAD DUP2 PUSH20 0xFFFFFFFFFFFFFFFFFFFFFFFFFFFFFFFFFFFFFFFF MUL NOT AND SWAP1 DUP4 PUSH20 0xFFFFFFFFFFFFFFFFFFFFFFFFFFFFFFFFFFFFFFFF AND MUL OR SWAP1 SSTORE POP DUP1 PUSH1 0x1 DUP2 SWAP1 SSTORE POP POP POP PUSH2 0x1B5 JUMP JUMPDEST PUSH1 0x0 DUP1 REVERT JUMPDEST PUSH1 0x0 PUSH20 0xFFFFFFFFFFFFFFFFFFFFFFFFFFFFFFFFFFFFFFFF DUP3 AND SWAP1 POP SWAP2 SWAP1 POP JUMP JUMPDEST PUSH1 0x0 PUSH2 0x10C DUP3 PUSH2 0xE1 JUMP JUMPDEST SWAP1 POP SWAP2 SWAP1 POP JUMP JUMPDEST PUSH2 0x11C DUP2 PUSH2 0x101 JUMP JUMPDEST DUP2 EQ PUSH2 0x127 JUMPI PUSH1 0x0 DUP1 REVERT JUMPDEST POP JUMP JUMPDEST PUSH1 0x0 DUP2 MLOAD SWAP1 POP PUSH2 0x139 DUP2 PUSH2 0x113 JUMP JUMPDEST SWAP3 SWAP2 POP POP JUMP JUMPDEST PUSH1 0x0 DUP2 SWAP1 POP SWAP2 SWAP1 POP JUMP JUMPDEST PUSH2 0x152 DUP2 PUSH2 0x13F JUMP JUMPDEST DUP2 EQ PUSH2 0x15D JUMPI PUSH1 0x0 DUP1 REVERT JUMPDEST POP JUMP JUMPDEST PUSH1 0x0 DUP2 MLOAD SWAP1 POP PUSH2 0x16F DUP2 PUSH2 0x149 JUMP JUMPDEST SWAP3 SWAP2 POP POP JUMP JUMPDEST PUSH1 0x0 DUP1 PUSH1 0x40 DUP4 DUP6 SUB SLT ISZERO PUSH2 0x18C JUMPI PUSH2 0x18B PUSH2 0xDC JUMP JUMPDEST JUMPDEST PUSH1 0x0 PUSH2 0x19A DUP6 DUP3 DUP7 ADD PUSH2 0x12A JUMP JUMPDEST SWAP3 POP POP PUSH1 0x20 PUSH2 0x1AB DUP6 DUP3 DUP7 ADD PUSH2 0x160 JUMP JUMPDEST SWAP2 POP POP SWAP3 POP SWAP3 SWAP1 POP JUMP JUMPDEST PUSH2 0x5E5 DUP1 PUSH2 0x1C4 PUSH1 0x0 CODECOPY PUSH1 0x0 RETURN INVALID PUSH1 0x80 PUSH1 0x40 MSTORE PUSH1 0x4 CALLDATASIZE LT PUSH2 0x43 JUMPI PUSH1 0x0 CALLDATALOAD PUSH1 0xE0 SHR DUP1 PUSH4 0x563DF32F EQ PUSH2 0x9D JUMPI DUP1 PUSH4 0x82ADD361 EQ PUSH2 0xC8 JUMPI DUP1 PUSH4 0x91D1A764 EQ PUSH2 0xE6 JUMPI DUP1 PUSH4 0xEE07BF22 EQ PUSH2 0x123 JUMPI PUSH2 0x9B JUMP JUMPDEST CALLDATASIZE PUSH2 0x9B JUMPI PUSH1 0x0 CALLVALUE GT ISZERO PUSH2 0x99 JUMPI ADDRESS PUSH20 0xFFFFFFFFFFFFFFFFFFFFFFFFFFFFFFFFFFFFFFFF AND PUSH2 0x8FC CALLVALUE SWAP1 DUP2 ISZERO MUL SWAP1 PUSH1 0x40 MLOAD PUSH1 0x0 PUSH1 0x40 MLOAD DUP1 DUP4 SUB DUP2 DUP6 DUP9 DUP9 CALL SWAP4 POP POP POP POP ISZERO DUP1 ISZERO PUSH2 0x97 JUMPI RETURNDATASIZE PUSH1 0x0 DUP1 RETURNDATACOPY RETURNDATASIZE PUSH1 0x0 REVERT JUMPDEST POP JUMPDEST STOP JUMPDEST STOP JUMPDEST CALLVALUE DUP1 ISZERO PUSH2 0xA9 JUMPI PUSH1 0x0 DUP1 REVERT JUMPDEST POP PUSH2 0xB2 PUSH2 0x14E JUMP JUMPDEST PUSH1 0x40 MLOAD PUSH2 0xBF SWAP2 SWAP1 PUSH2 0x3BE JUMP JUMPDEST PUSH1 0x40 MLOAD DUP1 SWAP2 SUB SWAP1 RETURN JUMPDEST PUSH2 0xD0 PUSH2 0x174 JUMP JUMPDEST PUSH1 0x40 MLOAD PUSH2 0xDD SWAP2 SWAP1 PUSH2 0x3F4 JUMP JUMPDEST PUSH1 0x40 MLOAD DUP1 SWAP2 SUB SWAP1 RETURN JUMPDEST CALLVALUE DUP1 ISZERO PUSH2 0xF2 JUMPI PUSH1 0x0 DUP1 REVERT JUMPDEST POP PUSH2 0x10D PUSH1 0x4 DUP1 CALLDATASIZE SUB DUP2 ADD SWAP1 PUSH2 0x108 SWAP2 SWAP1 PUSH2 0x440 JUMP JUMPDEST PUSH2 0x289 JUMP JUMPDEST PUSH1 0x40 MLOAD PUSH2 0x11A SWAP2 SWAP1 PUSH2 0x486 JUMP JUMPDEST PUSH1 0x40 MLOAD DUP1 SWAP2 SUB SWAP1 RETURN JUMPDEST CALLVALUE DUP1 ISZERO PUSH2 0x12F JUMPI PUSH1 0x0 DUP1 REVERT JUMPDEST POP PUSH2 0x138 PUSH2 0x2A7 JUMP JUMPDEST PUSH1 0x40 MLOAD PUSH2 0x145 SWAP2 SWAP1 PUSH2 0x486 JUMP JUMPDEST PUSH1 0x40 MLOAD DUP1 SWAP2 SUB SWAP1 RETURN JUMPDEST PUSH1 0x3 PUSH1 0x0 SWAP1 SLOAD SWAP1 PUSH2 0x100 EXP SWAP1 DIV PUSH20 0xFFFFFFFFFFFFFFFFFFFFFFFFFFFFFFFFFFFFFFFF AND DUP2 JUMP JUMPDEST PUSH1 0x0 DUP1 PUSH1 0x0 SWAP1 POP PUSH1 0x4 PUSH1 0x0 PUSH1 0x3 PUSH1 0x0 SWAP1 SLOAD SWAP1 PUSH2 0x100 EXP SWAP1 DIV PUSH20 0xFFFFFFFFFFFFFFFFFFFFFFFFFFFFFFFFFFFFFFFF AND PUSH20 0xFFFFFFFFFFFFFFFFFFFFFFFFFFFFFFFFFFFFFFFF AND PUSH20 0xFFFFFFFFFFFFFFFFFFFFFFFFFFFFFFFFFFFFFFFF AND DUP2 MSTORE PUSH1 0x20 ADD SWAP1 DUP2 MSTORE PUSH1 0x20 ADD PUSH1 0x0 KECCAK256 PUSH1 0x0 ADD SLOAD DUP2 PUSH2 0x1EB SWAP2 SWAP1 PUSH2 0x4D0 JUMP JUMPDEST TIMESTAMP LT PUSH2 0x280 JUMPI PUSH1 0x0 PUSH1 0x1 SLOAD SELFBALANCE PUSH2 0x201 SWAP2 SWAP1 PUSH2 0x555 JUMP JUMPDEST SWAP1 POP PUSH2 0x20C DUP2 PUSH2 0x2AD JUMP JUMPDEST TIMESTAMP PUSH1 0x4 PUSH1 0x0 PUSH1 0x3 PUSH1 0x0 SWAP1 SLOAD SWAP1 PUSH2 0x100 EXP SWAP1 DIV PUSH20 0xFFFFFFFFFFFFFFFFFFFFFFFFFFFFFFFFFFFFFFFF AND PUSH20 0xFFFFFFFFFFFFFFFFFFFFFFFFFFFFFFFFFFFFFFFF AND PUSH20 0xFFFFFFFFFFFFFFFFFFFFFFFFFFFFFFFFFFFFFFFF AND DUP2 MSTORE PUSH1 0x20 ADD SWAP1 DUP2 MSTORE PUSH1 0x20 ADD PUSH1 0x0 KECCAK256 PUSH1 0x0 ADD DUP2 SWAP1 SSTORE POP PUSH1 0x1 SWAP3 POP POP POP PUSH2 0x286 JUMP JUMPDEST PUSH1 0x0 SWAP2 POP POP JUMPDEST SWAP1 JUMP JUMPDEST PUSH1 0x4 PUSH1 0x20 MSTORE DUP1 PUSH1 0x0 MSTORE PUSH1 0x40 PUSH1 0x0 KECCAK256 PUSH1 0x0 SWAP2 POP SWAP1 POP DUP1 PUSH1 0x0 ADD SLOAD SWAP1 POP DUP2 JUMP JUMPDEST PUSH1 0x1 SLOAD DUP2 JUMP JUMPDEST PUSH1 0x0 PUSH1 0x3 PUSH1 0x0 SWAP1 SLOAD SWAP1 PUSH2 0x100 EXP SWAP1 DIV PUSH20 0xFFFFFFFFFFFFFFFFFFFFFFFFFFFFFFFFFFFFFFFF AND SWAP1 POP DUP1 PUSH20 0xFFFFFFFFFFFFFFFFFFFFFFFFFFFFFFFFFFFFFFFF AND PUSH4 0x9A29E6AA DUP4 PUSH1 0x40 MLOAD DUP3 PUSH4 0xFFFFFFFF AND PUSH1 0xE0 SHL DUP2 MSTORE PUSH1 0x4 ADD PUSH2 0x30D SWAP2 SWAP1 PUSH2 0x486 JUMP JUMPDEST PUSH1 0x0 PUSH1 0x40 MLOAD DUP1 DUP4 SUB DUP2 PUSH1 0x0 DUP8 DUP1 EXTCODESIZE ISZERO DUP1 ISZERO PUSH2 0x327 JUMPI PUSH1 0x0 DUP1 REVERT JUMPDEST POP GAS CALL ISZERO DUP1 ISZERO PUSH2 0x33B JUMPI RETURNDATASIZE PUSH1 0x0 DUP1 RETURNDATACOPY RETURNDATASIZE PUSH1 0x0 REVERT JUMPDEST POP POP POP POP PUSH32 0xA45DAC62289018E90B3DC24632D939C6F3545FBC1C00325EE50858F926AFC630 TIMESTAMP PUSH1 0x1 PUSH1 0x40 MLOAD PUSH2 0x371 SWAP3 SWAP2 SWAP1 PUSH2 0x586 JUMP JUMPDEST PUSH1 0x40 MLOAD DUP1 SWAP2 SUB SWAP1 LOG1 POP POP JUMP JUMPDEST PUSH1 0x0 PUSH20 0xFFFFFFFFFFFFFFFFFFFFFFFFFFFFFFFFFFFFFFFF DUP3 AND SWAP1 POP SWAP2 SWAP1 POP JUMP JUMPDEST PUSH1 0x0 PUSH2 0x3A8 DUP3 PUSH2 0x37D JUMP JUMPDEST SWAP1 POP SWAP2 SWAP1 POP JUMP JUMPDEST PUSH2 0x3B8 DUP2 PUSH2 0x39D JUMP JUMPDEST DUP3 MSTORE POP POP JUMP JUMPDEST PUSH1 0x0 PUSH1 0x20 DUP3 ADD SWAP1 POP PUSH2 0x3D3 PUSH1 0x0 DUP4 ADD DUP5 PUSH2 0x3AF JUMP JUMPDEST SWAP3 SWAP2 POP POP JUMP JUMPDEST PUSH1 0x0 DUP2 ISZERO ISZERO SWAP1 POP SWAP2 SWAP1 POP JUMP JUMPDEST PUSH2 0x3EE DUP2 PUSH2 0x3D9 JUMP JUMPDEST DUP3 MSTORE POP POP JUMP JUMPDEST PUSH1 0x0 PUSH1 0x20 DUP3 ADD SWAP1 POP PUSH2 0x409 PUSH1 0x0 DUP4 ADD DUP5 PUSH2 0x3E5 JUMP JUMPDEST SWAP3 SWAP2 POP POP JUMP JUMPDEST PUSH1 0x0 DUP1 REVERT JUMPDEST PUSH2 0x41D DUP2 PUSH2 0x39D JUMP JUMPDEST DUP2 EQ PUSH2 0x428 JUMPI PUSH1 0x0 DUP1 REVERT JUMPDEST POP JUMP JUMPDEST PUSH1 0x0 DUP2 CALLDATALOAD SWAP1 POP PUSH2 0x43A DUP2 PUSH2 0x414 JUMP JUMPDEST SWAP3 SWAP2 POP POP JUMP JUMPDEST PUSH1 0x0 PUSH1 0x20 DUP3 DUP5 SUB SLT ISZERO PUSH2 0x456 JUMPI PUSH2 0x455 PUSH2 0x40F JUMP JUMPDEST JUMPDEST PUSH1 0x0 PUSH2 0x464 DUP5 DUP3 DUP6 ADD PUSH2 0x42B JUMP JUMPDEST SWAP2 POP POP SWAP3 SWAP2 POP POP JUMP JUMPDEST PUSH1 0x0 DUP2 SWAP1 POP SWAP2 SWAP1 POP JUMP JUMPDEST PUSH2 0x480 DUP2 PUSH2 0x46D JUMP JUMPDEST DUP3 MSTORE POP POP JUMP JUMPDEST PUSH1 0x0 PUSH1 0x20 DUP3 ADD SWAP1 POP PUSH2 0x49B PUSH1 0x0 DUP4 ADD DUP5 PUSH2 0x477 JUMP JUMPDEST SWAP3 SWAP2 POP POP JUMP JUMPDEST PUSH32 0x4E487B7100000000000000000000000000000000000000000000000000000000 PUSH1 0x0 MSTORE PUSH1 0x11 PUSH1 0x4 MSTORE PUSH1 0x24 PUSH1 0x0 REVERT JUMPDEST PUSH1 0x0 PUSH2 0x4DB DUP3 PUSH2 0x46D JUMP JUMPDEST SWAP2 POP PUSH2 0x4E6 DUP4 PUSH2 0x46D JUMP JUMPDEST SWAP3 POP DUP3 PUSH32 0xFFFFFFFFFFFFFFFFFFFFFFFFFFFFFFFFFFFFFFFFFFFFFFFFFFFFFFFFFFFFFFFF SUB DUP3 GT ISZERO PUSH2 0x51B JUMPI PUSH2 0x51A PUSH2 0x4A1 JUMP JUMPDEST JUMPDEST DUP3 DUP3 ADD SWAP1 POP SWAP3 SWAP2 POP POP JUMP JUMPDEST PUSH32 0x4E487B7100000000000000000000000000000000000000000000000000000000 PUSH1 0x0 MSTORE PUSH1 0x12 PUSH1 0x4 MSTORE PUSH1 0x24 PUSH1 0x0 REVERT JUMPDEST PUSH1 0x0 PUSH2 0x560 DUP3 PUSH2 0x46D JUMP JUMPDEST SWAP2 POP PUSH2 0x56B DUP4 PUSH2 0x46D JUMP JUMPDEST SWAP3 POP DUP3 PUSH2 0x57B JUMPI PUSH2 0x57A PUSH2 0x526 JUMP JUMPDEST JUMPDEST DUP3 DUP3 DIV SWAP1 POP SWAP3 SWAP2 POP POP JUMP JUMPDEST PUSH1 0x0 PUSH1 0x40 DUP3 ADD SWAP1 POP PUSH2 0x59B PUSH1 0x0 DUP4 ADD DUP6 PUSH2 0x477 JUMP JUMPDEST PUSH2 0x5A8 PUSH1 0x20 DUP4 ADD DUP5 PUSH2 0x3E5 JUMP JUMPDEST SWAP4 SWAP3 POP POP POP JUMP INVALID LOG2 PUSH5 0x6970667358 0x22 SLT KECCAK256 PUSH14 0x7DA3AF6B6EB98F277CEFC5B009D5 DUP13 NOT COINBASE 0x2D CALLCODE 0x21 CREATE2 MLOAD PUSH13 0x33B24B5C6AEA469264736F6C63 NUMBER STOP ADDMOD 0xD STOP CALLER "
				},
				"gasEstimates": {
					"creation": {
						"codeDepositCost": "301800",
						"executionCost": "infinite",
						"totalCost": "infinite"
					},
					"external": {
						"": "151",
						"Bank(address)": "2850",
						"Incomming_Payments()": "infinite",
						"Supply()": "2473",
						"Treasury()": "2492"
					},
					"internal": {
						"Issue_To_Treasury(uint256)": "infinite"
					}
				},
				"methodIdentifiers": {
					"Bank(address)": "91d1a764",
					"Incomming_Payments()": "82add361",
					"Supply()": "ee07bf22",
					"Treasury()": "563df32f"
				}
			},
			"userdoc": {
				"kind": "user",
				"methods": {},
				"version": 1
			}
		}
	}
}