{
  "contractName": "CoinBank",
  "abi": [
    {
      "inputs": [
        {
          "internalType": "address",
          "name": "_Treasury",
          "type": "address"
        }
      ],
      "stateMutability": "nonpayable",
      "type": "constructor"
    },
    {
      "inputs": [
        {
          "internalType": "uint256",
          "name": "",
          "type": "uint256"
        }
      ],
      "name": "Bank",
      "outputs": [
        {
          "internalType": "uint256",
          "name": "Current_Funds_Retained",
          "type": "uint256"
        },
        {
          "internalType": "uint256",
          "name": "Previous_Time",
          "type": "uint256"
        }
      ],
      "stateMutability": "view",
      "type": "function"
    },
    {
      "inputs": [],
      "name": "CoinBankAddress",
      "outputs": [
        {
          "internalType": "address",
          "name": "",
          "type": "address"
        }
      ],
      "stateMutability": "view",
      "type": "function"
    },
    {
      "inputs": [],
      "name": "Incomming_Payments",
      "outputs": [],
      "stateMutability": "payable",
      "type": "function"
    }
  ],
  "bytecode": "0x6080604052306000806101000a81548173ffffffffffffffffffffffffffffffffffffffff021916908373ffffffffffffffffffffffffffffffffffffffff1602179055504760015534801561005457600080fd5b5060405161068138038061068183398181016040528101906100769190610160565b6040518060400160405280600081526020014281525060076000808152602001908152602001600020600082015181600001556020820151816001015590505080600560006101000a81548173ffffffffffffffffffffffffffffffffffffffff021916908373ffffffffffffffffffffffffffffffffffffffff1602179055505061018d565b600080fd5b600073ffffffffffffffffffffffffffffffffffffffff82169050919050565b600061012d82610102565b9050919050565b61013d81610122565b811461014857600080fd5b50565b60008151905061015a81610134565b92915050565b600060208284031215610176576101756100fd565b5b60006101848482850161014b565b91505092915050565b6104e58061019c6000396000f3fe6080604052600436106100345760003560e01c8063393bc1d91461003957806382add36114610064578063b0128f6d1461006e575b600080fd5b34801561004557600080fd5b5061004e6100ac565b60405161005b9190610277565b60405180910390f35b61006c6100d0565b005b34801561007a57600080fd5b50610095600480360381019061009091906102cd565b61017c565b6040516100a3929190610309565b60405180910390f35b60008054906101000a900473ffffffffffffffffffffffffffffffffffffffff1681565b6000806000805b6006548311610122578160076000600654815260200190815260200160002060000160008282546101089190610361565b92505081905550828061011a906103b7565b9350506100d7565b814761012e9190610400565b91506007600080815260200190815260200160002060010154846101529190610361565b421115610176576000600354836101699190610463565b9050610174816101a0565b505b50505050565b60076020528060005260406000206000915090508060000154908060010154905082565b6000600560009054906101000a900473ffffffffffffffffffffffffffffffffffffffff1690508073ffffffffffffffffffffffffffffffffffffffff16639a29e6aa836040518263ffffffff1660e01b81526004016102009190610494565b600060405180830381600087803b15801561021a57600080fd5b505af115801561022e573d6000803e3d6000fd5b505050505050565b600073ffffffffffffffffffffffffffffffffffffffff82169050919050565b600061026182610236565b9050919050565b61027181610256565b82525050565b600060208201905061028c6000830184610268565b92915050565b600080fd5b6000819050919050565b6102aa81610297565b81146102b557600080fd5b50565b6000813590506102c7816102a1565b92915050565b6000602082840312156102e3576102e2610292565b5b60006102f1848285016102b8565b91505092915050565b61030381610297565b82525050565b600060408201905061031e60008301856102fa565b61032b60208301846102fa565b9392505050565b7f4e487b7100000000000000000000000000000000000000000000000000000000600052601160045260246000fd5b600061036c82610297565b915061037783610297565b9250827fffffffffffffffffffffffffffffffffffffffffffffffffffffffffffffffff038211156103ac576103ab610332565b5b828201905092915050565b60006103c282610297565b91507fffffffffffffffffffffffffffffffffffffffffffffffffffffffffffffffff8214156103f5576103f4610332565b5b600182019050919050565b600061040b82610297565b915061041683610297565b92508282101561042957610428610332565b5b828203905092915050565b7f4e487b7100000000000000000000000000000000000000000000000000000000600052601260045260246000fd5b600061046e82610297565b915061047983610297565b92508261048957610488610434565b5b828204905092915050565b60006020820190506104a960008301846102fa565b9291505056fea2646970667358221220d73f19434a8111671c08d6cdf7fb874d3a6372101c349954b85a45dc745aa7b264736f6c634300080a0033",
  "immutableReferences": {},
  "source": "pragma solidity ^0.8.10;\n// SPDX-License-Identifier: MIT\nimport \"@openzeppelin/contracts/token/ERC20/ERC20.sol\";\n//-------------------------- CoinBank Accounting Contract --------------------------\ncontract CoinBank{\n    address public CoinBankAddress=address(this); // When coinbank is launched add address <--Here\n    uint coinbanktotal = address(this).balance;\n    uint Shard_yeild_deposit; //votable\n    uint supply;\n    uint Fund_Retention_Rate; //votable\n    address Treasury;\n    uint totalBanks;\n    // Keep track of Funds in CoinBank\n    struct CoinBank_Accounting{\n        uint Current_Funds_Retained;\n        uint Previous_Time;\n    }\n    constructor(address _Treasury){\n        Bank[0] = CoinBank_Accounting(0,block.timestamp);\n        Treasury = _Treasury;\n    }\n    //CoinBank Index of all DAO Banks\n    mapping (uint256 => CoinBank_Accounting) public Bank;\n\n    // Send funds to Treasury Contract\n    function Issue_To_Treasury(uint _single_Shard)internal{\n       // send data through interface function\n        Accept_From_CoinBank_Interface exeInterface = Accept_From_CoinBank_Interface(Treasury); //place treasury contract address here\n        exeInterface.Accept_From_CoinBank(_single_Shard);      \n    }\n    // Payments to CoinBank will take account of funds\n    function Incomming_Payments()public payable{\n        uint min=0; // add one min ro the int\n        uint i=0;\n        uint Total_from_Bank =0;\n        address TreasuryContract;\n\n        for(i;i<=totalBanks;i++){\n            Bank[totalBanks].Current_Funds_Retained += Total_from_Bank;\n        }\n        \n        Total_from_Bank = address(this).balance-Total_from_Bank;\n        if(block.timestamp>min+Bank[0].Previous_Time){\n            uint single_Shard = uint(Total_from_Bank/supply);\n            Issue_To_Treasury(single_Shard);\n            //Call Accept from CoinBank\n        }\n    }\n}\ninterface Accept_From_CoinBank_Interface {\n    function Accept_From_CoinBank(uint _singleShard) external payable;\n}\n//-------------------------- Plus Treasury Contract --------------------------\nabstract contract Plus is ERC20, CoinBank,Accept_From_CoinBank_Interface {\n    uint counter =0;\n    uint Account_Counter = 0;\n\n    \n    //mappings map Account amounts and micro ledger\n    mapping (address => Accounts) public accounts;\n    mapping (uint => micro_ledger) public ledger;\n    \n    //CoinBank Contract\n    CoinBank public CoinBank_Contract;\n    //Account Details\n    struct Accounts{\n        uint ammount;\n        bool exist;\n    }\n    //Micrledger holds all accounts ever\n    struct micro_ledger{\n        address account;\n        bool exist;\n    }\n    //launch Contract\n    constructor(string memory name,string memory symbol,uint totalSupply,uint Fund_Retention_Rate,uint totalBanks) ERC20(name, symbol) {\n        _mint(msg.sender, uint(totalSupply));\n        supply = uint(totalSupply);\n\n        //------------------launch Conbank Contract------------------\n        CoinBank_Contract = new CoinBank(CoinBankAddress);\n    }\n    //require coinbank \n    modifier CoinBankOnly{\n        require(CoinBankAddress == msg.sender);\n        _;\n    }\n    //Test logging and accounting user dividends\n    function Register_Account() internal{\n        if(accounts[msg.sender].exist == true){\n            //do nothing\n        } else {\n            ledger[Account_Counter] = micro_ledger(msg.sender,true);\n            accounts[msg.sender] = Accounts(0,true);\n            Account_Counter++;\n        }\n    }   \n    //Account of your funds in contract\n    function View_Account() public view returns(uint){\n        if(accounts[msg.sender].exist == true){\n            return accounts[msg.sender].ammount;\n        } else {\n            //event to register account\n        }\n    }\n    //call contract balance\n    function Balance() public returns (uint256) {\n        return address(this).balance;\n    }\n    //Accept payment from CoinBank and issue dividends to accouts\n    function Accept_From_CoinBank(uint _singleShard)public payable CoinBankOnly{\n        uint value = msg.value;\n        uint ShardCounter=0;\n        uint i=0;\n        for(i;i>=Account_Counter;i++){\n            address Serach_result = ledger[Account_Counter].account;\n            if(ledger[Account_Counter].exist == true && accounts[Serach_result].ammount > 0){\n                accounts[Serach_result].ammount += balanceOf(ledger[Account_Counter].account) * _singleShard;\n                ShardCounter += balanceOf(ledger[Account_Counter].account) * _singleShard;\n            }\n        }\n        //refactor leftovers from unregisterd account & assimilate additional funds into treasury\n        if(ShardCounter != value){\n            uint leftovers = value - ShardCounter;\n            Accept_From_CoinBank(leftovers);\n        }\n    }\n    //Redeem Dividends from treasury\n    function Redeem()public {\n        address payable RedeemAddress = payable(msg.sender);\n        if(accounts[RedeemAddress].exist == true){\n            return RedeemAddress.transfer(accounts[msg.sender].ammount);\n        } else {\n            //no account registerd\n        }      \n    }\n}",
  "sourcePath": "/Users/Q/Local_Repo/Solidity_Contracts/XRC-Dividend/contracts/XRC20Plus.sol",
  "compiler": {
    "name": "solc",
    "version": "0.8.10+commit.fc410830.Emscripten.clang"
  },
  "schemaVersion": "3.4.3",
  "updatedAt": "2022-01-26T03:28:27.500Z",
  "devdoc": {
    "kind": "dev",
    "methods": {},
    "version": 1
  },
  "userdoc": {
    "kind": "user",
    "methods": {},
    "version": 1
  }
}