{
  "contractName": "CoinBank",
  "abi": [
    {
      "inputs": [
        {
          "internalType": "address",
          "name": "_Treasury",
          "type": "address"
        }
      ],
      "stateMutability": "nonpayable",
      "type": "constructor"
    },
    {
      "inputs": [
        {
          "internalType": "uint256",
          "name": "",
          "type": "uint256"
        }
      ],
      "name": "Bank",
      "outputs": [
        {
          "internalType": "uint256",
          "name": "Current_Funds_Retained",
          "type": "uint256"
        },
        {
          "internalType": "uint256",
          "name": "Previous_Time",
          "type": "uint256"
        }
      ],
      "stateMutability": "view",
      "type": "function"
    },
    {
      "inputs": [],
      "name": "Incomming_Payments",
      "outputs": [],
      "stateMutability": "payable",
      "type": "function"
    }
  ],
  "bytecode": "0x60806040524760005534801561001457600080fd5b5060405161058b38038061058b83398181016040528101906100369190610120565b6040518060400160405280600081526020014281525060066000808152602001908152602001600020600082015181600001556020820151816001015590505080600460006101000a81548173ffffffffffffffffffffffffffffffffffffffff021916908373ffffffffffffffffffffffffffffffffffffffff1602179055505061014d565b600080fd5b600073ffffffffffffffffffffffffffffffffffffffff82169050919050565b60006100ed826100c2565b9050919050565b6100fd816100e2565b811461010857600080fd5b50565b60008151905061011a816100f4565b92915050565b600060208284031215610136576101356100bd565b5b60006101448482850161010b565b91505092915050565b61042f8061015c6000396000f3fe6080604052600436106100295760003560e01c806382add3611461002e578063b0128f6d14610038575b600080fd5b610036610076565b005b34801561004457600080fd5b5061005f600480360381019061005a9190610217565b610122565b60405161006d929190610253565b60405180910390f35b6000806000805b60055483116100c8578160066000600554815260200190815260200160002060000160008282546100ae91906102ab565b9250508190555082806100c090610301565b93505061007d565b81476100d4919061034a565b91506006600080815260200190815260200160002060010154846100f891906102ab565b42111561011c5760006002548361010f91906103ad565b905061011a81610146565b505b50505050565b60066020528060005260406000206000915090508060000154908060010154905082565b6000600460009054906101000a900473ffffffffffffffffffffffffffffffffffffffff1690508073ffffffffffffffffffffffffffffffffffffffff16639a29e6aa836040518263ffffffff1660e01b81526004016101a691906103de565b600060405180830381600087803b1580156101c057600080fd5b505af11580156101d4573d6000803e3d6000fd5b505050505050565b600080fd5b6000819050919050565b6101f4816101e1565b81146101ff57600080fd5b50565b600081359050610211816101eb565b92915050565b60006020828403121561022d5761022c6101dc565b5b600061023b84828501610202565b91505092915050565b61024d816101e1565b82525050565b60006040820190506102686000830185610244565b6102756020830184610244565b9392505050565b7f4e487b7100000000000000000000000000000000000000000000000000000000600052601160045260246000fd5b60006102b6826101e1565b91506102c1836101e1565b9250827fffffffffffffffffffffffffffffffffffffffffffffffffffffffffffffffff038211156102f6576102f561027c565b5b828201905092915050565b600061030c826101e1565b91507fffffffffffffffffffffffffffffffffffffffffffffffffffffffffffffffff82141561033f5761033e61027c565b5b600182019050919050565b6000610355826101e1565b9150610360836101e1565b9250828210156103735761037261027c565b5b828203905092915050565b7f4e487b7100000000000000000000000000000000000000000000000000000000600052601260045260246000fd5b60006103b8826101e1565b91506103c3836101e1565b9250826103d3576103d261037e565b5b828204905092915050565b60006020820190506103f36000830184610244565b9291505056fea2646970667358221220bd6e0039167c30dd78e7dba54f8d946d1a04cbd5398658bd7db66ea89661278864736f6c634300080a0033",
  "immutableReferences": {},
  "source": "pragma solidity ^0.8.10;\n// SPDX-License-Identifier: MIT\nimport \"@openzeppelin/contracts/token/ERC20/ERC20.sol\";\n//-------------------------- CoinBank Accounting Contract --------------------------\ncontract CoinBank{\n    uint coinbanktotal = address(this).balance;\n    uint Shard_yeild_deposit; //votable\n    uint supply;\n    uint Fund_Retention_Rate; //votable\n    address Treasury;\n    uint totalBanks;\n    // Keep track of Funds in CoinBank\n    struct CoinBank_Accounting{\n        uint Current_Funds_Retained;\n        uint Previous_Time;\n    }\n    constructor(address _Treasury){\n        Bank[0] = CoinBank_Accounting(0,block.timestamp);\n        Treasury = _Treasury;\n    }\n    //CoinBank Index of all DAO Banks\n    mapping (uint256 => CoinBank_Accounting) public Bank;\n\n    // Send funds to Treasury Contract\n    function Issue_To_Treasury(uint _single_Shard)internal{\n       // send data through interface function\n        Accept_From_CoinBank_Interface exeInterface = Accept_From_CoinBank_Interface(Treasury); //place treasury contract address here\n        exeInterface.Accept_From_CoinBank(_single_Shard);      \n    }\n    // Payments to CoinBank will take account of funds\n    function Incomming_Payments()public payable{\n        uint min=0;\n        uint i=0;\n        uint Total_from_Bank =0;\n        address TreasuryContract;\n\n        for(i;i<=totalBanks;i++){\n            Bank[totalBanks].Current_Funds_Retained += Total_from_Bank;\n        }\n        \n        Total_from_Bank = address(this).balance-Total_from_Bank;\n        if(block.timestamp>min+Bank[0].Previous_Time){\n            uint single_Shard = uint(Total_from_Bank/supply);\n            Issue_To_Treasury(single_Shard);\n            //Call Accept from CoinBank\n        }\n    }\n}\ninterface Accept_From_CoinBank_Interface {\n    function Accept_From_CoinBank(uint _singleShard) external payable;\n}\n//-------------------------- Plus Treasury Contract --------------------------\nabstract contract Plus is ERC20, CoinBank,Accept_From_CoinBank_Interface {\n    uint counter =0;\n    uint Account_Counter = 0;\n\n    address public CoinBankAddress=address(this); // When coinbank is launched add address <--Here\n    //mappings map Account amounts and micro ledger\n    mapping (address => Accounts) public accounts;\n    mapping (uint => micro_ledger) public ledger;\n    \n    //CoinBank Contract\n    CoinBank public CoinBank_Contract;\n    //Account Details\n    struct Accounts{\n        uint ammount;\n        bool exist;\n    }\n    //Micrledger holds all accounts ever\n    struct micro_ledger{\n        address account;\n        bool exist;\n    }\n    //launch Contract\n    constructor(string memory name,string memory symbol,uint totalSupply,uint Fund_Retention_Rate,uint totalBanks) ERC20(name, symbol) {\n        _mint(msg.sender, uint(totalSupply));\n        supply = uint(totalSupply);\n\n        //------------------launch Conbank Contract------------------\n        CoinBank_Contract = new CoinBank(CoinBankAddress);\n    }\n    //require coinbank \n    modifier CoinBankOnly{\n        require(CoinBankAddress == msg.sender);\n        _;\n    }\n    //Test logging and accounting user dividends\n    function Add_to_Micro_ledger() internal{\n        if(accounts[msg.sender].exist == true){\n            //do nothing\n        } else {\n            ledger[Account_Counter] = micro_ledger(msg.sender,true);\n            accounts[msg.sender] = Accounts(0,true);\n            Account_Counter++;\n        }\n    }   \n    //Account of your funds in contract\n    function View_Account() public view returns(uint){\n        if(accounts[msg.sender].exist == true){\n            return accounts[msg.sender].ammount;\n        } else {\n            //event to register account\n        }\n    }\n    //call contract balance\n    function Balance() public returns (uint256) {\n        return address(this).balance;\n    }\n    //Accept payment from CoinBank and issue dividends to accouts\n    function Accept_From_CoinBank(uint _singleShard)external payable CoinBankOnly{\n        uint i=0;\n        for(i;i>=Account_Counter;i++){\n            address Serach_result = ledger[Account_Counter].account;\n            if(ledger[Account_Counter].exist == true && accounts[Serach_result].ammount > 0){\n                accounts[Serach_result].ammount += balanceOf(ledger[Account_Counter].account) * _singleShard;\n            }\n        }\n    }\n    //Redeem Dividends from treasury\n    function Redeem()public {\n        address payable RedeemAddress = payable(msg.sender);\n        if(accounts[RedeemAddress].exist == true){\n            return RedeemAddress.transfer(accounts[msg.sender].ammount);\n        } else {\n            //no account registerd\n        }      \n    }\n}",
  "sourcePath": "/Users/Q/Local_Repo/Solidity_Contracts/XRC-Dividend/contracts/XRC20Plus.sol",
  "compiler": {
    "name": "solc",
    "version": "0.8.10+commit.fc410830.Emscripten.clang"
  },
  "schemaVersion": "3.4.3",
  "updatedAt": "2022-01-07T01:20:57.658Z",
  "devdoc": {
    "kind": "dev",
    "methods": {},
    "version": 1
  },
  "userdoc": {
    "kind": "user",
    "methods": {},
    "version": 1
  }
}