{
  "contractName": "Plus",
  "abi": [
    {
      "inputs": [
        {
          "internalType": "string",
          "name": "name",
          "type": "string"
        },
        {
          "internalType": "string",
          "name": "symbol",
          "type": "string"
        },
        {
          "internalType": "uint256",
          "name": "totalSupply",
          "type": "uint256"
        }
      ],
      "stateMutability": "nonpayable",
      "type": "constructor"
    },
    {
      "anonymous": false,
      "inputs": [
        {
          "indexed": true,
          "internalType": "address",
          "name": "owner",
          "type": "address"
        },
        {
          "indexed": true,
          "internalType": "address",
          "name": "spender",
          "type": "address"
        },
        {
          "indexed": false,
          "internalType": "uint256",
          "name": "value",
          "type": "uint256"
        }
      ],
      "name": "Approval",
      "type": "event"
    },
    {
      "anonymous": false,
      "inputs": [
        {
          "indexed": true,
          "internalType": "address",
          "name": "from",
          "type": "address"
        },
        {
          "indexed": true,
          "internalType": "address",
          "name": "to",
          "type": "address"
        },
        {
          "indexed": false,
          "internalType": "uint256",
          "name": "value",
          "type": "uint256"
        }
      ],
      "name": "Transfer",
      "type": "event"
    },
    {
      "inputs": [
        {
          "internalType": "uint256",
          "name": "",
          "type": "uint256"
        }
      ],
      "name": "Micro_ledger_map",
      "outputs": [
        {
          "internalType": "address payable",
          "name": "Address",
          "type": "address"
        }
      ],
      "stateMutability": "view",
      "type": "function",
      "constant": true
    },
    {
      "inputs": [
        {
          "internalType": "address",
          "name": "owner",
          "type": "address"
        },
        {
          "internalType": "address",
          "name": "spender",
          "type": "address"
        }
      ],
      "name": "allowance",
      "outputs": [
        {
          "internalType": "uint256",
          "name": "",
          "type": "uint256"
        }
      ],
      "stateMutability": "view",
      "type": "function",
      "constant": true
    },
    {
      "inputs": [
        {
          "internalType": "address",
          "name": "spender",
          "type": "address"
        },
        {
          "internalType": "uint256",
          "name": "amount",
          "type": "uint256"
        }
      ],
      "name": "approve",
      "outputs": [
        {
          "internalType": "bool",
          "name": "",
          "type": "bool"
        }
      ],
      "stateMutability": "nonpayable",
      "type": "function"
    },
    {
      "inputs": [
        {
          "internalType": "address",
          "name": "account",
          "type": "address"
        }
      ],
      "name": "balanceOf",
      "outputs": [
        {
          "internalType": "uint256",
          "name": "",
          "type": "uint256"
        }
      ],
      "stateMutability": "view",
      "type": "function",
      "constant": true
    },
    {
      "inputs": [],
      "name": "decimals",
      "outputs": [
        {
          "internalType": "uint8",
          "name": "",
          "type": "uint8"
        }
      ],
      "stateMutability": "view",
      "type": "function",
      "constant": true
    },
    {
      "inputs": [
        {
          "internalType": "address",
          "name": "spender",
          "type": "address"
        },
        {
          "internalType": "uint256",
          "name": "subtractedValue",
          "type": "uint256"
        }
      ],
      "name": "decreaseAllowance",
      "outputs": [
        {
          "internalType": "bool",
          "name": "",
          "type": "bool"
        }
      ],
      "stateMutability": "nonpayable",
      "type": "function"
    },
    {
      "inputs": [
        {
          "internalType": "address",
          "name": "spender",
          "type": "address"
        },
        {
          "internalType": "uint256",
          "name": "addedValue",
          "type": "uint256"
        }
      ],
      "name": "increaseAllowance",
      "outputs": [
        {
          "internalType": "bool",
          "name": "",
          "type": "bool"
        }
      ],
      "stateMutability": "nonpayable",
      "type": "function"
    },
    {
      "inputs": [],
      "name": "name",
      "outputs": [
        {
          "internalType": "string",
          "name": "",
          "type": "string"
        }
      ],
      "stateMutability": "view",
      "type": "function",
      "constant": true
    },
    {
      "inputs": [],
      "name": "symbol",
      "outputs": [
        {
          "internalType": "string",
          "name": "",
          "type": "string"
        }
      ],
      "stateMutability": "view",
      "type": "function",
      "constant": true
    },
    {
      "inputs": [],
      "name": "totalSupply",
      "outputs": [
        {
          "internalType": "uint256",
          "name": "",
          "type": "uint256"
        }
      ],
      "stateMutability": "view",
      "type": "function",
      "constant": true
    },
    {
      "inputs": [
        {
          "internalType": "address",
          "name": "recipient",
          "type": "address"
        },
        {
          "internalType": "uint256",
          "name": "amount",
          "type": "uint256"
        }
      ],
      "name": "transfer",
      "outputs": [
        {
          "internalType": "bool",
          "name": "",
          "type": "bool"
        }
      ],
      "stateMutability": "nonpayable",
      "type": "function"
    },
    {
      "inputs": [
        {
          "internalType": "address",
          "name": "sender",
          "type": "address"
        },
        {
          "internalType": "address",
          "name": "recipient",
          "type": "address"
        },
        {
          "internalType": "uint256",
          "name": "amount",
          "type": "uint256"
        }
      ],
      "name": "transferFrom",
      "outputs": [
        {
          "internalType": "bool",
          "name": "",
          "type": "bool"
        }
      ],
      "stateMutability": "nonpayable",
      "type": "function"
    },
    {
      "inputs": [
        {
          "internalType": "address payable",
          "name": "_to",
          "type": "address"
        }
      ],
      "name": "Ledger",
      "outputs": [],
      "stateMutability": "nonpayable",
      "type": "function"
    },
    {
      "inputs": [
        {
          "internalType": "address payable",
          "name": "_address",
          "type": "address"
        },
        {
          "internalType": "uint256",
          "name": "_total",
          "type": "uint256"
        }
      ],
      "name": "Submit",
      "outputs": [],
      "stateMutability": "payable",
      "type": "function",
      "payable": true
    },
    {
      "inputs": [],
      "name": "Dividends",
      "outputs": [],
      "stateMutability": "payable",
      "type": "function",
      "payable": true
    },
    {
      "inputs": [],
      "name": "Balance",
      "outputs": [
        {
          "internalType": "uint256",
          "name": "",
          "type": "uint256"
        }
      ],
      "stateMutability": "nonpayable",
      "type": "function"
    }
  ],
  "bytecode": "0x608060405260006005553480156200001657600080fd5b50604051620022d3380380620022d383398181016040528101906200003c9190620005fa565b828281600390805190602001906200005692919062000372565b5080600490805190602001906200006f92919062000372565b505050620000843382620000a360201b60201c565b6200009a336200021c60201b620006bd1760201c565b50505062000884565b600073ffffffffffffffffffffffffffffffffffffffff168273ffffffffffffffffffffffffffffffffffffffff16141562000116576040517f08c379a00000000000000000000000000000000000000000000000000000000081526004016200010d90620006f5565b60405180910390fd5b6200012a600083836200036860201b60201c565b80600260008282546200013e919062000746565b92505081905550806000808473ffffffffffffffffffffffffffffffffffffffff1673ffffffffffffffffffffffffffffffffffffffff168152602001908152602001600020600082825462000195919062000746565b925050819055508173ffffffffffffffffffffffffffffffffffffffff16600073ffffffffffffffffffffffffffffffffffffffff167fddf252ad1be2c89b69c2b068fc378daa952ba7f163c4a11628f55a4df523b3ef83604051620001fc9190620007b4565b60405180910390a362000218600083836200036d60201b60201c565b5050565b60005b600554811162000364578173ffffffffffffffffffffffffffffffffffffffff166006600083815260200190815260200160002060000160009054906101000a900473ffffffffffffffffffffffffffffffffffffffff1673ffffffffffffffffffffffffffffffffffffffff16141580156200029d575080600554145b156200034e5760405180602001604052808373ffffffffffffffffffffffffffffffffffffffff16815250600660008380620002d990620007d1565b9450815260200190815260200160002060008201518160000160006101000a81548173ffffffffffffffffffffffffffffffffffffffff021916908373ffffffffffffffffffffffffffffffffffffffff160217905550905050600560008154809291906200034890620007d1565b91905055505b80806200035b90620007d1565b9150506200021f565b5050565b505050565b505050565b82805462000380906200084e565b90600052602060002090601f016020900481019282620003a45760008555620003f0565b82601f10620003bf57805160ff1916838001178555620003f0565b82800160010185558215620003f0579182015b82811115620003ef578251825591602001919060010190620003d2565b5b509050620003ff919062000403565b5090565b5b808211156200041e57600081600090555060010162000404565b5090565b6000604051905090565b600080fd5b600080fd5b600080fd5b600080fd5b6000601f19601f8301169050919050565b7f4e487b7100000000000000000000000000000000000000000000000000000000600052604160045260246000fd5b6200048b8262000440565b810181811067ffffffffffffffff82111715620004ad57620004ac62000451565b5b80604052505050565b6000620004c262000422565b9050620004d0828262000480565b919050565b600067ffffffffffffffff821115620004f357620004f262000451565b5b620004fe8262000440565b9050602081019050919050565b60005b838110156200052b5780820151818401526020810190506200050e565b838111156200053b576000848401525b50505050565b6000620005586200055284620004d5565b620004b6565b9050828152602081018484840111156200057757620005766200043b565b5b620005848482856200050b565b509392505050565b600082601f830112620005a457620005a362000436565b5b8151620005b684826020860162000541565b91505092915050565b6000819050919050565b620005d481620005bf565b8114620005e057600080fd5b50565b600081519050620005f481620005c9565b92915050565b6000806000606084860312156200061657620006156200042c565b5b600084015167ffffffffffffffff81111562000637576200063662000431565b5b62000645868287016200058c565b935050602084015167ffffffffffffffff81111562000669576200066862000431565b5b62000677868287016200058c565b92505060406200068a86828701620005e3565b9150509250925092565b600082825260208201905092915050565b7f45524332303a206d696e7420746f20746865207a65726f206164647265737300600082015250565b6000620006dd601f8362000694565b9150620006ea82620006a5565b602082019050919050565b600060208201905081810360008301526200071081620006ce565b9050919050565b7f4e487b7100000000000000000000000000000000000000000000000000000000600052601160045260246000fd5b60006200075382620005bf565b91506200076083620005bf565b9250827fffffffffffffffffffffffffffffffffffffffffffffffffffffffffffffffff0382111562000798576200079762000717565b5b828201905092915050565b620007ae81620005bf565b82525050565b6000602082019050620007cb6000830184620007a3565b92915050565b6000620007de82620005bf565b91507fffffffffffffffffffffffffffffffffffffffffffffffffffffffffffffffff82141562000814576200081362000717565b5b600182019050919050565b7f4e487b7100000000000000000000000000000000000000000000000000000000600052602260045260246000fd5b600060028204905060018216806200086757607f821691505b602082108114156200087e576200087d6200081f565b5b50919050565b611a3f80620008946000396000f3fe6080604052600436106100f35760003560e01c80637f8b8f481161008a578063c205a92211610059578063c205a92214610366578063dd62ed3e14610382578063e4cf54c0146103bf578063f15f14c5146103fc576100f3565b80637f8b8f481461029857806395d89b41146102c1578063a457c2d7146102ec578063a9059cbb14610329576100f3565b806323b872dd116100c657806323b872dd146101b6578063313ce567146101f3578063395093511461021e57806370a082311461025b576100f3565b806306fdde03146100f8578063095ea7b3146101235780630ef678871461016057806318160ddd1461018b575b600080fd5b34801561010457600080fd5b5061010d610406565b60405161011a91906110ce565b60405180910390f35b34801561012f57600080fd5b5061014a60048036038101906101459190611189565b610498565b60405161015791906111e4565b60405180910390f35b34801561016c57600080fd5b506101756104b6565b604051610182919061120e565b60405180910390f35b34801561019757600080fd5b506101a06104be565b6040516101ad919061120e565b60405180910390f35b3480156101c257600080fd5b506101dd60048036038101906101d89190611229565b6104c8565b6040516101ea91906111e4565b60405180910390f35b3480156101ff57600080fd5b506102086105c0565b6040516102159190611298565b60405180910390f35b34801561022a57600080fd5b5061024560048036038101906102409190611189565b6105c9565b60405161025291906111e4565b60405180910390f35b34801561026757600080fd5b50610282600480360381019061027d91906112b3565b610675565b60405161028f919061120e565b60405180910390f35b3480156102a457600080fd5b506102bf60048036038101906102ba919061131e565b6106bd565b005b3480156102cd57600080fd5b506102d66107ff565b6040516102e391906110ce565b60405180910390f35b3480156102f857600080fd5b50610313600480360381019061030e9190611189565b610891565b60405161032091906111e4565b60405180910390f35b34801561033557600080fd5b50610350600480360381019061034b9190611189565b61097c565b60405161035d91906111e4565b60405180910390f35b610380600480360381019061037b919061134b565b61099a565b005b34801561038e57600080fd5b506103a960048036038101906103a4919061138b565b6109ee565b6040516103b6919061120e565b60405180910390f35b3480156103cb57600080fd5b506103e660048036038101906103e191906113cb565b610a75565b6040516103f39190611407565b60405180910390f35b610404610ab3565b005b60606003805461041590611451565b80601f016020809104026020016040519081016040528092919081815260200182805461044190611451565b801561048e5780601f106104635761010080835404028352916020019161048e565b820191906000526020600020905b81548152906001019060200180831161047157829003601f168201915b5050505050905090565b60006104ac6104a5610bd7565b8484610bdf565b6001905092915050565b600047905090565b6000600254905090565b60006104d5848484610daa565b6000600160008673ffffffffffffffffffffffffffffffffffffffff1673ffffffffffffffffffffffffffffffffffffffff1681526020019081526020016000206000610520610bd7565b73ffffffffffffffffffffffffffffffffffffffff1673ffffffffffffffffffffffffffffffffffffffff168152602001908152602001600020549050828110156105a0576040517f08c379a0000000000000000000000000000000000000000000000000000000008152600401610597906114f5565b60405180910390fd5b6105b4856105ac610bd7565b858403610bdf565b60019150509392505050565b60006012905090565b600061066b6105d6610bd7565b8484600160006105e4610bd7565b73ffffffffffffffffffffffffffffffffffffffff1673ffffffffffffffffffffffffffffffffffffffff16815260200190815260200160002060008873ffffffffffffffffffffffffffffffffffffffff1673ffffffffffffffffffffffffffffffffffffffff168152602001908152602001600020546106669190611544565b610bdf565b6001905092915050565b60008060008373ffffffffffffffffffffffffffffffffffffffff1673ffffffffffffffffffffffffffffffffffffffff168152602001908152602001600020549050919050565b60005b60055481116107fb578173ffffffffffffffffffffffffffffffffffffffff166006600083815260200190815260200160002060000160009054906101000a900473ffffffffffffffffffffffffffffffffffffffff1673ffffffffffffffffffffffffffffffffffffffff161415801561073c575080600554145b156107e85760405180602001604052808373ffffffffffffffffffffffffffffffffffffffff168152506006600083806107759061159a565b9450815260200190815260200160002060008201518160000160006101000a81548173ffffffffffffffffffffffffffffffffffffffff021916908373ffffffffffffffffffffffffffffffffffffffff160217905550905050600560008154809291906107e29061159a565b91905055505b80806107f39061159a565b9150506106c0565b5050565b60606004805461080e90611451565b80601f016020809104026020016040519081016040528092919081815260200182805461083a90611451565b80156108875780601f1061085c57610100808354040283529160200191610887565b820191906000526020600020905b81548152906001019060200180831161086a57829003601f168201915b5050505050905090565b600080600160006108a0610bd7565b73ffffffffffffffffffffffffffffffffffffffff1673ffffffffffffffffffffffffffffffffffffffff16815260200190815260200160002060008573ffffffffffffffffffffffffffffffffffffffff1673ffffffffffffffffffffffffffffffffffffffff1681526020019081526020016000205490508281101561095d576040517f08c379a000000000000000000000000000000000000000000000000000000000815260040161095490611655565b60405180910390fd5b610971610968610bd7565b85858403610bdf565b600191505092915050565b6000610990610989610bd7565b8484610daa565b6001905092915050565b8173ffffffffffffffffffffffffffffffffffffffff166108fc349081150290604051600060405180830381858888f193505050501580156109e0573d6000803e3d6000fd5b506109ea826106bd565b5050565b6000600160008473ffffffffffffffffffffffffffffffffffffffff1673ffffffffffffffffffffffffffffffffffffffff16815260200190815260200160002060008373ffffffffffffffffffffffffffffffffffffffff1673ffffffffffffffffffffffffffffffffffffffff16815260200190815260200160002054905092915050565b60066020528060005260406000206000915090508060000160009054906101000a900473ffffffffffffffffffffffffffffffffffffffff16905081565b6000804714610bd4576000479050600081610acc6104be565b610ad691906116a4565b90505b6005548311610bd15760006006600085815260200190815260200160002060000160009054906101000a900473ffffffffffffffffffffffffffffffffffffffff1690506000610b5e6006600087815260200190815260200160002060000160009054906101000a900473ffffffffffffffffffffffffffffffffffffffff16610675565b14610bbd576000610ba46006600087815260200190815260200160002060000160009054906101000a900473ffffffffffffffffffffffffffffffffffffffff16610675565b83610baf91906116d5565b9050610bbb828261099a565b505b508280610bc99061159a565b935050610ad9565b50505b50565b600033905090565b600073ffffffffffffffffffffffffffffffffffffffff168373ffffffffffffffffffffffffffffffffffffffff161415610c4f576040517f08c379a0000000000000000000000000000000000000000000000000000000008152600401610c46906117a1565b60405180910390fd5b600073ffffffffffffffffffffffffffffffffffffffff168273ffffffffffffffffffffffffffffffffffffffff161415610cbf576040517f08c379a0000000000000000000000000000000000000000000000000000000008152600401610cb690611833565b60405180910390fd5b80600160008573ffffffffffffffffffffffffffffffffffffffff1673ffffffffffffffffffffffffffffffffffffffff16815260200190815260200160002060008473ffffffffffffffffffffffffffffffffffffffff1673ffffffffffffffffffffffffffffffffffffffff168152602001908152602001600020819055508173ffffffffffffffffffffffffffffffffffffffff168373ffffffffffffffffffffffffffffffffffffffff167f8c5be1e5ebec7d5bd14f71427d1e84f3dd0314c0f7b2291e5b200ac8c7c3b92583604051610d9d919061120e565b60405180910390a3505050565b600073ffffffffffffffffffffffffffffffffffffffff168373ffffffffffffffffffffffffffffffffffffffff161415610e1a576040517f08c379a0000000000000000000000000000000000000000000000000000000008152600401610e11906118c5565b60405180910390fd5b600073ffffffffffffffffffffffffffffffffffffffff168273ffffffffffffffffffffffffffffffffffffffff161415610e8a576040517f08c379a0000000000000000000000000000000000000000000000000000000008152600401610e8190611957565b60405180910390fd5b610e9583838361102b565b60008060008573ffffffffffffffffffffffffffffffffffffffff1673ffffffffffffffffffffffffffffffffffffffff16815260200190815260200160002054905081811015610f1b576040517f08c379a0000000000000000000000000000000000000000000000000000000008152600401610f12906119e9565b60405180910390fd5b8181036000808673ffffffffffffffffffffffffffffffffffffffff1673ffffffffffffffffffffffffffffffffffffffff16815260200190815260200160002081905550816000808573ffffffffffffffffffffffffffffffffffffffff1673ffffffffffffffffffffffffffffffffffffffff1681526020019081526020016000206000828254610fae9190611544565b925050819055508273ffffffffffffffffffffffffffffffffffffffff168473ffffffffffffffffffffffffffffffffffffffff167fddf252ad1be2c89b69c2b068fc378daa952ba7f163c4a11628f55a4df523b3ef84604051611012919061120e565b60405180910390a3611025848484611030565b50505050565b505050565b505050565b600081519050919050565b600082825260208201905092915050565b60005b8381101561106f578082015181840152602081019050611054565b8381111561107e576000848401525b50505050565b6000601f19601f8301169050919050565b60006110a082611035565b6110aa8185611040565b93506110ba818560208601611051565b6110c381611084565b840191505092915050565b600060208201905081810360008301526110e88184611095565b905092915050565b600080fd5b600073ffffffffffffffffffffffffffffffffffffffff82169050919050565b6000611120826110f5565b9050919050565b61113081611115565b811461113b57600080fd5b50565b60008135905061114d81611127565b92915050565b6000819050919050565b61116681611153565b811461117157600080fd5b50565b6000813590506111838161115d565b92915050565b600080604083850312156111a05761119f6110f0565b5b60006111ae8582860161113e565b92505060206111bf85828601611174565b9150509250929050565b60008115159050919050565b6111de816111c9565b82525050565b60006020820190506111f960008301846111d5565b92915050565b61120881611153565b82525050565b600060208201905061122360008301846111ff565b92915050565b600080600060608486031215611242576112416110f0565b5b60006112508682870161113e565b93505060206112618682870161113e565b925050604061127286828701611174565b9150509250925092565b600060ff82169050919050565b6112928161127c565b82525050565b60006020820190506112ad6000830184611289565b92915050565b6000602082840312156112c9576112c86110f0565b5b60006112d78482850161113e565b91505092915050565b60006112eb826110f5565b9050919050565b6112fb816112e0565b811461130657600080fd5b50565b600081359050611318816112f2565b92915050565b600060208284031215611334576113336110f0565b5b600061134284828501611309565b91505092915050565b60008060408385031215611362576113616110f0565b5b600061137085828601611309565b925050602061138185828601611174565b9150509250929050565b600080604083850312156113a2576113a16110f0565b5b60006113b08582860161113e565b92505060206113c18582860161113e565b9150509250929050565b6000602082840312156113e1576113e06110f0565b5b60006113ef84828501611174565b91505092915050565b611401816112e0565b82525050565b600060208201905061141c60008301846113f8565b92915050565b7f4e487b7100000000000000000000000000000000000000000000000000000000600052602260045260246000fd5b6000600282049050600182168061146957607f821691505b6020821081141561147d5761147c611422565b5b50919050565b7f45524332303a207472616e7366657220616d6f756e742065786365656473206160008201527f6c6c6f77616e6365000000000000000000000000000000000000000000000000602082015250565b60006114df602883611040565b91506114ea82611483565b604082019050919050565b6000602082019050818103600083015261150e816114d2565b9050919050565b7f4e487b7100000000000000000000000000000000000000000000000000000000600052601160045260246000fd5b600061154f82611153565b915061155a83611153565b9250827fffffffffffffffffffffffffffffffffffffffffffffffffffffffffffffffff0382111561158f5761158e611515565b5b828201905092915050565b60006115a582611153565b91507fffffffffffffffffffffffffffffffffffffffffffffffffffffffffffffffff8214156115d8576115d7611515565b5b600182019050919050565b7f45524332303a2064656372656173656420616c6c6f77616e63652062656c6f7760008201527f207a65726f000000000000000000000000000000000000000000000000000000602082015250565b600061163f602583611040565b915061164a826115e3565b604082019050919050565b6000602082019050818103600083015261166e81611632565b9050919050565b7f4e487b7100000000000000000000000000000000000000000000000000000000600052601260045260246000fd5b60006116af82611153565b91506116ba83611153565b9250826116ca576116c9611675565b5b828204905092915050565b60006116e082611153565b91506116eb83611153565b9250817fffffffffffffffffffffffffffffffffffffffffffffffffffffffffffffffff048311821515161561172457611723611515565b5b828202905092915050565b7f45524332303a20617070726f76652066726f6d20746865207a65726f2061646460008201527f7265737300000000000000000000000000000000000000000000000000000000602082015250565b600061178b602483611040565b91506117968261172f565b604082019050919050565b600060208201905081810360008301526117ba8161177e565b9050919050565b7f45524332303a20617070726f766520746f20746865207a65726f20616464726560008201527f7373000000000000000000000000000000000000000000000000000000000000602082015250565b600061181d602283611040565b9150611828826117c1565b604082019050919050565b6000602082019050818103600083015261184c81611810565b9050919050565b7f45524332303a207472616e736665722066726f6d20746865207a65726f20616460008201527f6472657373000000000000000000000000000000000000000000000000000000602082015250565b60006118af602583611040565b91506118ba82611853565b604082019050919050565b600060208201905081810360008301526118de816118a2565b9050919050565b7f45524332303a207472616e7366657220746f20746865207a65726f206164647260008201527f6573730000000000000000000000000000000000000000000000000000000000602082015250565b6000611941602383611040565b915061194c826118e5565b604082019050919050565b6000602082019050818103600083015261197081611934565b9050919050565b7f45524332303a207472616e7366657220616d6f756e742065786365656473206260008201527f616c616e63650000000000000000000000000000000000000000000000000000602082015250565b60006119d3602683611040565b91506119de82611977565b604082019050919050565b60006020820190508181036000830152611a02816119c6565b905091905056fea2646970667358221220e6eecb63d36c945feb0e42dd5d7c012f494b51bd83f4272b9493eb1ad2e7d65764736f6c634300080a0033",
  "immutableReferences": {},
  "source": "pragma solidity ^0.8.10;\n// SPDX-License-Identifier: MIT\n\nimport \"@openzeppelin/contracts/token/ERC20/ERC20.sol\";\n\n\ncontract Plus is ERC20 {\n    uint counter =0;\n\n    mapping (uint256 => Micro_Ledger) public Micro_ledger_map;\n    \n    struct Micro_Ledger{\n        address payable Address;\n    }\n    \n    constructor(string memory name,string memory symbol,uint256 totalSupply) ERC20(name, symbol) {\n        _mint(msg.sender, uint(totalSupply));\n        Plus.Ledger(payable(msg.sender));\n\n        //Test\n        //Ledger()\n    }\n\n    function Ledger(address payable _to) public{\n        uint i=0;\n        for(i;i<=counter;i++){\n            if(Micro_ledger_map[i].Address != _to && counter ==i){\n                Micro_ledger_map[i++] = Micro_Ledger(_to);\n                counter++;\n            }\n        }\n    }\n\n    function Submit(address payable _address, uint _total) public payable{\n        _address.transfer(msg.value);\n        Ledger(_address);\n    }\n    \n    function Dividends() public payable{\n        uint i=0;\n        if(address(this).balance!=0){\n            uint bal = address(this).balance;\n            uint ammount = (totalSupply()/bal);\n        \n            for (i;i<=counter;i++){\n                address payable Pay = Micro_ledger_map[i].Address;\n                if(balanceOf(Micro_ledger_map[i].Address) != 0){\n                    uint total = ammount * balanceOf(Micro_ledger_map[i].Address);\n                    Submit(Pay,total);\n                }\n            }\n        }\n    }\n    \n    function Balance() public returns (uint256) {\n        return address(this).balance;\n    }\n}",
  "sourcePath": "/Users/Q/Local_Repo/Solidity_Contracts/XRC-Dividend/contracts/XRC20Plus.sol",
  "compiler": {
    "name": "solc",
    "version": "0.8.10+commit.fc410830.Emscripten.clang"
  },
  "schemaVersion": "3.4.3",
  "updatedAt": "2021-12-09T19:36:52.860Z",
  "networkType": "ethereum",
  "devdoc": {
    "kind": "dev",
    "methods": {
      "allowance(address,address)": {
        "details": "See {IERC20-allowance}."
      },
      "approve(address,uint256)": {
        "details": "See {IERC20-approve}. Requirements: - `spender` cannot be the zero address."
      },
      "balanceOf(address)": {
        "details": "See {IERC20-balanceOf}."
      },
      "decimals()": {
        "details": "Returns the number of decimals used to get its user representation. For example, if `decimals` equals `2`, a balance of `505` tokens should be displayed to a user as `5.05` (`505 / 10 ** 2`). Tokens usually opt for a value of 18, imitating the relationship between Ether and Wei. This is the value {ERC20} uses, unless this function is overridden; NOTE: This information is only used for _display_ purposes: it in no way affects any of the arithmetic of the contract, including {IERC20-balanceOf} and {IERC20-transfer}."
      },
      "decreaseAllowance(address,uint256)": {
        "details": "Atomically decreases the allowance granted to `spender` by the caller. This is an alternative to {approve} that can be used as a mitigation for problems described in {IERC20-approve}. Emits an {Approval} event indicating the updated allowance. Requirements: - `spender` cannot be the zero address. - `spender` must have allowance for the caller of at least `subtractedValue`."
      },
      "increaseAllowance(address,uint256)": {
        "details": "Atomically increases the allowance granted to `spender` by the caller. This is an alternative to {approve} that can be used as a mitigation for problems described in {IERC20-approve}. Emits an {Approval} event indicating the updated allowance. Requirements: - `spender` cannot be the zero address."
      },
      "name()": {
        "details": "Returns the name of the token."
      },
      "symbol()": {
        "details": "Returns the symbol of the token, usually a shorter version of the name."
      },
      "totalSupply()": {
        "details": "See {IERC20-totalSupply}."
      },
      "transfer(address,uint256)": {
        "details": "See {IERC20-transfer}. Requirements: - `recipient` cannot be the zero address. - the caller must have a balance of at least `amount`."
      },
      "transferFrom(address,address,uint256)": {
        "details": "See {IERC20-transferFrom}. Emits an {Approval} event indicating the updated allowance. This is not required by the EIP. See the note at the beginning of {ERC20}. Requirements: - `sender` and `recipient` cannot be the zero address. - `sender` must have a balance of at least `amount`. - the caller must have allowance for ``sender``'s tokens of at least `amount`."
      }
    },
    "version": 1
  },
  "userdoc": {
    "kind": "user",
    "methods": {},
    "version": 1
  }
}